{
	"BitwiseOperators.sol": {
		"BitwiseOps": {
			"abi": [
				{
					"inputs": [
						{
							"internalType": "uint256",
							"name": "x",
							"type": "uint256"
						},
						{
							"internalType": "uint256",
							"name": "y",
							"type": "uint256"
						}
					],
					"name": "and",
					"outputs": [
						{
							"internalType": "uint256",
							"name": "",
							"type": "uint256"
						}
					],
					"stateMutability": "pure",
					"type": "function"
				},
				{
					"inputs": [
						{
							"internalType": "uint256",
							"name": "x",
							"type": "uint256"
						},
						{
							"internalType": "uint256",
							"name": "n",
							"type": "uint256"
						},
						{
							"internalType": "uint256",
							"name": "len",
							"type": "uint256"
						}
					],
					"name": "getFirstNBits",
					"outputs": [
						{
							"internalType": "uint256",
							"name": "",
							"type": "uint256"
						}
					],
					"stateMutability": "pure",
					"type": "function"
				},
				{
					"inputs": [
						{
							"internalType": "uint256",
							"name": "x",
							"type": "uint256"
						},
						{
							"internalType": "uint256",
							"name": "n",
							"type": "uint256"
						}
					],
					"name": "getLastNBits",
					"outputs": [
						{
							"internalType": "uint256",
							"name": "",
							"type": "uint256"
						}
					],
					"stateMutability": "pure",
					"type": "function"
				},
				{
					"inputs": [
						{
							"internalType": "uint256",
							"name": "x",
							"type": "uint256"
						},
						{
							"internalType": "uint256",
							"name": "n",
							"type": "uint256"
						}
					],
					"name": "getLastNBitsUsingMod",
					"outputs": [
						{
							"internalType": "uint256",
							"name": "",
							"type": "uint256"
						}
					],
					"stateMutability": "pure",
					"type": "function"
				},
				{
					"inputs": [
						{
							"internalType": "uint256",
							"name": "x",
							"type": "uint256"
						}
					],
					"name": "mostSignificantBit",
					"outputs": [
						{
							"internalType": "uint256",
							"name": "",
							"type": "uint256"
						}
					],
					"stateMutability": "pure",
					"type": "function"
				},
				{
					"inputs": [
						{
							"internalType": "uint8",
							"name": "x",
							"type": "uint8"
						}
					],
					"name": "not",
					"outputs": [
						{
							"internalType": "uint8",
							"name": "",
							"type": "uint8"
						}
					],
					"stateMutability": "pure",
					"type": "function"
				},
				{
					"inputs": [
						{
							"internalType": "uint256",
							"name": "x",
							"type": "uint256"
						},
						{
							"internalType": "uint256",
							"name": "y",
							"type": "uint256"
						}
					],
					"name": "or",
					"outputs": [
						{
							"internalType": "uint256",
							"name": "",
							"type": "uint256"
						}
					],
					"stateMutability": "pure",
					"type": "function"
				},
				{
					"inputs": [
						{
							"internalType": "uint256",
							"name": "x",
							"type": "uint256"
						},
						{
							"internalType": "uint256",
							"name": "bits",
							"type": "uint256"
						}
					],
					"name": "shiftLeft",
					"outputs": [
						{
							"internalType": "uint256",
							"name": "",
							"type": "uint256"
						}
					],
					"stateMutability": "pure",
					"type": "function"
				},
				{
					"inputs": [
						{
							"internalType": "uint256",
							"name": "x",
							"type": "uint256"
						},
						{
							"internalType": "uint256",
							"name": "bits",
							"type": "uint256"
						}
					],
					"name": "shiftRight",
					"outputs": [
						{
							"internalType": "uint256",
							"name": "",
							"type": "uint256"
						}
					],
					"stateMutability": "pure",
					"type": "function"
				},
				{
					"inputs": [
						{
							"internalType": "uint256",
							"name": "x",
							"type": "uint256"
						},
						{
							"internalType": "uint256",
							"name": "y",
							"type": "uint256"
						}
					],
					"name": "xor",
					"outputs": [
						{
							"internalType": "uint256",
							"name": "",
							"type": "uint256"
						}
					],
					"stateMutability": "pure",
					"type": "function"
				}
			],
			"devdoc": {
				"kind": "dev",
				"methods": {},
				"version": 1
			},
			"evm": {
				"assembly": "    /* \"BitwiseOperators.sol\":61:3059  contract BitwiseOps {... */\n  mstore(0x40, 0x80)\n  callvalue\n  dup1\n  iszero\n  tag_1\n  jumpi\n  0x00\n  dup1\n  revert\ntag_1:\n  pop\n  dataSize(sub_0)\n  dup1\n  dataOffset(sub_0)\n  0x00\n  codecopy\n  0x00\n  return\nstop\n\nsub_0: assembly {\n        /* \"BitwiseOperators.sol\":61:3059  contract BitwiseOps {... */\n      mstore(0x40, 0x80)\n      callvalue\n      dup1\n      iszero\n      tag_1\n      jumpi\n      0x00\n      dup1\n      revert\n    tag_1:\n      pop\n      jumpi(tag_2, lt(calldatasize, 0x04))\n      shr(0xe0, calldataload(0x00))\n      dup1\n      0x903b9842\n      gt\n      tag_13\n      jumpi\n      dup1\n      0x903b9842\n      eq\n      tag_8\n      jumpi\n      dup1\n      0x9ed41ba1\n      eq\n      tag_9\n      jumpi\n      dup1\n      0xa589d212\n      eq\n      tag_10\n      jumpi\n      dup1\n      0xe6bcbc65\n      eq\n      tag_11\n      jumpi\n      dup1\n      0xecc43a0e\n      eq\n      tag_12\n      jumpi\n      jump(tag_2)\n    tag_13:\n      dup1\n      0x097c2cb2\n      eq\n      tag_3\n      jumpi\n      dup1\n      0x0a7d4a39\n      eq\n      tag_4\n      jumpi\n      dup1\n      0x1180f8c3\n      eq\n      tag_5\n      jumpi\n      dup1\n      0x1685fa98\n      eq\n      tag_6\n      jumpi\n      dup1\n      0x21a95296\n      eq\n      tag_7\n      jumpi\n    tag_2:\n      0x00\n      dup1\n      revert\n        /* \"BitwiseOperators.sol\":445:542  function or(uint256 x, uint256 y) external pure returns (uint256) {... */\n    tag_3:\n      tag_14\n      0x04\n      dup1\n      calldatasize\n      sub\n      dup2\n      add\n      swap1\n      tag_15\n      swap2\n      swap1\n      tag_16\n      jump\t// in\n    tag_15:\n      tag_17\n      jump\t// in\n    tag_14:\n      mload(0x40)\n      tag_18\n      swap2\n      swap1\n      tag_19\n      jump\t// in\n    tag_18:\n      mload(0x40)\n      dup1\n      swap2\n      sub\n      swap1\n      return\n        /* \"BitwiseOperators.sol\":2712:3056  function getFirstNBits(uint256 x, uint256 n, uint256 len)... */\n    tag_4:\n      tag_20\n      0x04\n      dup1\n      calldatasize\n      sub\n      dup2\n      add\n      swap1\n      tag_21\n      swap2\n      swap1\n      tag_22\n      jump\t// in\n    tag_21:\n      tag_23\n      jump\t// in\n    tag_20:\n      mload(0x40)\n      tag_24\n      swap2\n      swap1\n      tag_19\n      jump\t// in\n    tag_24:\n      mload(0x40)\n      dup1\n      swap2\n      sub\n      swap1\n      return\n        /* \"BitwiseOperators.sol\":909:989  function not(uint8 x) external pure returns (uint8) {... */\n    tag_5:\n      tag_25\n      0x04\n      dup1\n      calldatasize\n      sub\n      dup2\n      add\n      swap1\n      tag_26\n      swap2\n      swap1\n      tag_27\n      jump\t// in\n    tag_26:\n      tag_28\n      jump\t// in\n    tag_25:\n      mload(0x40)\n      tag_29\n      swap2\n      swap1\n      tag_30\n      jump\t// in\n    tag_29:\n      mload(0x40)\n      dup1\n      swap2\n      sub\n      swap1\n      return\n        /* \"BitwiseOperators.sol\":1540:1684  function shiftRight(uint256 x, uint256 bits)... */\n    tag_6:\n      tag_31\n      0x04\n      dup1\n      calldatasize\n      sub\n      dup2\n      add\n      swap1\n      tag_32\n      swap2\n      swap1\n      tag_16\n      jump\t// in\n    tag_32:\n      tag_33\n      jump\t// in\n    tag_31:\n      mload(0x40)\n      tag_34\n      swap2\n      swap1\n      tag_19\n      jump\t// in\n    tag_34:\n      mload(0x40)\n      dup1\n      swap2\n      sub\n      swap1\n      return\n        /* \"BitwiseOperators.sol\":1723:2033  function getLastNBits(uint256 x, uint256 n)... */\n    tag_7:\n      tag_35\n      0x04\n      dup1\n      calldatasize\n      sub\n      dup2\n      add\n      swap1\n      tag_36\n      swap2\n      swap1\n      tag_16\n      jump\t// in\n    tag_36:\n      tag_37\n      jump\t// in\n    tag_35:\n      mload(0x40)\n      tag_38\n      swap2\n      swap1\n      tag_19\n      jump\t// in\n    tag_38:\n      mload(0x40)\n      dup1\n      swap2\n      sub\n      swap1\n      return\n        /* \"BitwiseOperators.sol\":214:312  function and(uint256 x, uint256 y) external pure returns (uint256) {... */\n    tag_8:\n      tag_39\n      0x04\n      dup1\n      calldatasize\n      sub\n      dup2\n      add\n      swap1\n      tag_40\n      swap2\n      swap1\n      tag_16\n      jump\t// in\n    tag_40:\n      tag_41\n      jump\t// in\n    tag_39:\n      mload(0x40)\n      tag_42\n      swap2\n      swap1\n      tag_19\n      jump\t// in\n    tag_42:\n      mload(0x40)\n      dup1\n      swap2\n      sub\n      swap1\n      return\n        /* \"BitwiseOperators.sol\":674:772  function xor(uint256 x, uint256 y) external pure returns (uint256) {... */\n    tag_9:\n      tag_43\n      0x04\n      dup1\n      calldatasize\n      sub\n      dup2\n      add\n      swap1\n      tag_44\n      swap2\n      swap1\n      tag_16\n      jump\t// in\n    tag_44:\n      tag_45\n      jump\t// in\n    tag_43:\n      mload(0x40)\n      tag_46\n      swap2\n      swap1\n      tag_19\n      jump\t// in\n    tag_46:\n      mload(0x40)\n      dup1\n      swap2\n      sub\n      swap1\n      return\n        /* \"BitwiseOperators.sol\":1173:1316  function shiftLeft(uint256 x, uint256 bits)... */\n    tag_10:\n      tag_47\n      0x04\n      dup1\n      calldatasize\n      sub\n      dup2\n      add\n      swap1\n      tag_48\n      swap2\n      swap1\n      tag_16\n      jump\t// in\n    tag_48:\n      tag_49\n      jump\t// in\n    tag_47:\n      mload(0x40)\n      tag_50\n      swap2\n      swap1\n      tag_19\n      jump\t// in\n    tag_50:\n      mload(0x40)\n      dup1\n      swap2\n      sub\n      swap1\n      return\n        /* \"BitwiseOperators.sol\":2409:2593  function mostSignificantBit(uint256 x) external pure returns (uint256) {... */\n    tag_11:\n      tag_51\n      0x04\n      dup1\n      calldatasize\n      sub\n      dup2\n      add\n      swap1\n      tag_52\n      swap2\n      swap1\n      tag_53\n      jump\t// in\n    tag_52:\n      tag_54\n      jump\t// in\n    tag_51:\n      mload(0x40)\n      tag_55\n      swap2\n      swap1\n      tag_19\n      jump\t// in\n    tag_55:\n      mload(0x40)\n      dup1\n      swap2\n      sub\n      swap1\n      return\n        /* \"BitwiseOperators.sol\":2091:2273  function getLastNBitsUsingMod(uint256 x, uint256 n)... */\n    tag_12:\n      tag_56\n      0x04\n      dup1\n      calldatasize\n      sub\n      dup2\n      add\n      swap1\n      tag_57\n      swap2\n      swap1\n      tag_16\n      jump\t// in\n    tag_57:\n      tag_58\n      jump\t// in\n    tag_56:\n      mload(0x40)\n      tag_59\n      swap2\n      swap1\n      tag_19\n      jump\t// in\n    tag_59:\n      mload(0x40)\n      dup1\n      swap2\n      sub\n      swap1\n      return\n        /* \"BitwiseOperators.sol\":445:542  function or(uint256 x, uint256 y) external pure returns (uint256) {... */\n    tag_17:\n        /* \"BitwiseOperators.sol\":502:509  uint256 */\n      0x00\n        /* \"BitwiseOperators.sol\":533:534  y */\n      dup2\n        /* \"BitwiseOperators.sol\":529:530  x */\n      dup4\n        /* \"BitwiseOperators.sol\":529:534  x | y */\n      or\n        /* \"BitwiseOperators.sol\":522:534  return x | y */\n      swap1\n      pop\n        /* \"BitwiseOperators.sol\":445:542  function or(uint256 x, uint256 y) external pure returns (uint256) {... */\n      swap3\n      swap2\n      pop\n      pop\n      jump\t// out\n        /* \"BitwiseOperators.sol\":2712:3056  function getFirstNBits(uint256 x, uint256 n, uint256 len)... */\n    tag_23:\n        /* \"BitwiseOperators.sol\":2820:2827  uint256 */\n      0x00\n        /* \"BitwiseOperators.sol\":2980:2992  uint256 mask */\n      dup1\n        /* \"BitwiseOperators.sol\":3020:3021  n */\n      dup4\n        /* \"BitwiseOperators.sol\":3014:3017  len */\n      dup4\n        /* \"BitwiseOperators.sol\":3014:3021  len - n */\n      tag_62\n      swap2\n      swap1\n      tag_63\n      jump\t// in\n    tag_62:\n        /* \"BitwiseOperators.sol\":3007:3008  1 */\n      0x01\n        /* \"BitwiseOperators.sol\":3002:3003  n */\n      dup6\n        /* \"BitwiseOperators.sol\":2997:2998  1 */\n      0x01\n        /* \"BitwiseOperators.sol\":2997:3003  1 << n */\n      swap1\n      shl\n        /* \"BitwiseOperators.sol\":2996:3008  (1 << n) - 1 */\n      tag_64\n      swap2\n      swap1\n      tag_63\n      jump\t// in\n    tag_64:\n        /* \"BitwiseOperators.sol\":2995:3022  ((1 << n) - 1) << (len - n) */\n      swap1\n      shl\n        /* \"BitwiseOperators.sol\":2980:3022  uint256 mask = ((1 << n) - 1) << (len - n) */\n      swap1\n      pop\n        /* \"BitwiseOperators.sol\":3044:3048  mask */\n      dup1\n        /* \"BitwiseOperators.sol\":3040:3041  x */\n      dup6\n        /* \"BitwiseOperators.sol\":3040:3048  x & mask */\n      and\n        /* \"BitwiseOperators.sol\":3033:3048  return x & mask */\n      swap2\n      pop\n      pop\n        /* \"BitwiseOperators.sol\":2712:3056  function getFirstNBits(uint256 x, uint256 n, uint256 len)... */\n      swap4\n      swap3\n      pop\n      pop\n      pop\n      jump\t// out\n        /* \"BitwiseOperators.sol\":909:989  function not(uint8 x) external pure returns (uint8) {... */\n    tag_28:\n        /* \"BitwiseOperators.sol\":954:959  uint8 */\n      0x00\n        /* \"BitwiseOperators.sol\":980:981  x */\n      dup2\n        /* \"BitwiseOperators.sol\":979:981  ~x */\n      not\n        /* \"BitwiseOperators.sol\":972:981  return ~x */\n      swap1\n      pop\n        /* \"BitwiseOperators.sol\":909:989  function not(uint8 x) external pure returns (uint8) {... */\n      swap2\n      swap1\n      pop\n      jump\t// out\n        /* \"BitwiseOperators.sol\":1540:1684  function shiftRight(uint256 x, uint256 bits)... */\n    tag_33:\n        /* \"BitwiseOperators.sol\":1635:1642  uint256 */\n      0x00\n        /* \"BitwiseOperators.sol\":1672:1676  bits */\n      dup2\n        /* \"BitwiseOperators.sol\":1667:1668  x */\n      dup4\n        /* \"BitwiseOperators.sol\":1667:1676  x >> bits */\n      swap1\n      shr\n        /* \"BitwiseOperators.sol\":1660:1676  return x >> bits */\n      swap1\n      pop\n        /* \"BitwiseOperators.sol\":1540:1684  function shiftRight(uint256 x, uint256 bits)... */\n      swap3\n      swap2\n      pop\n      pop\n      jump\t// out\n        /* \"BitwiseOperators.sol\":1723:2033  function getLastNBits(uint256 x, uint256 n)... */\n    tag_37:\n        /* \"BitwiseOperators.sol\":1817:1824  uint256 */\n      0x00\n        /* \"BitwiseOperators.sol\":1972:1984  uint256 mask */\n      dup1\n        /* \"BitwiseOperators.sol\":1998:1999  1 */\n      0x01\n        /* \"BitwiseOperators.sol\":1993:1994  n */\n      dup4\n        /* \"BitwiseOperators.sol\":1988:1989  1 */\n      0x01\n        /* \"BitwiseOperators.sol\":1988:1994  1 << n */\n      swap1\n      shl\n        /* \"BitwiseOperators.sol\":1987:1999  (1 << n) - 1 */\n      tag_68\n      swap2\n      swap1\n      tag_63\n      jump\t// in\n    tag_68:\n        /* \"BitwiseOperators.sol\":1972:1999  uint256 mask = (1 << n) - 1 */\n      swap1\n      pop\n        /* \"BitwiseOperators.sol\":2021:2025  mask */\n      dup1\n        /* \"BitwiseOperators.sol\":2017:2018  x */\n      dup5\n        /* \"BitwiseOperators.sol\":2017:2025  x & mask */\n      and\n        /* \"BitwiseOperators.sol\":2010:2025  return x & mask */\n      swap2\n      pop\n      pop\n        /* \"BitwiseOperators.sol\":1723:2033  function getLastNBits(uint256 x, uint256 n)... */\n      swap3\n      swap2\n      pop\n      pop\n      jump\t// out\n        /* \"BitwiseOperators.sol\":214:312  function and(uint256 x, uint256 y) external pure returns (uint256) {... */\n    tag_41:\n        /* \"BitwiseOperators.sol\":272:279  uint256 */\n      0x00\n        /* \"BitwiseOperators.sol\":303:304  y */\n      dup2\n        /* \"BitwiseOperators.sol\":299:300  x */\n      dup4\n        /* \"BitwiseOperators.sol\":299:304  x & y */\n      and\n        /* \"BitwiseOperators.sol\":292:304  return x & y */\n      swap1\n      pop\n        /* \"BitwiseOperators.sol\":214:312  function and(uint256 x, uint256 y) external pure returns (uint256) {... */\n      swap3\n      swap2\n      pop\n      pop\n      jump\t// out\n        /* \"BitwiseOperators.sol\":674:772  function xor(uint256 x, uint256 y) external pure returns (uint256) {... */\n    tag_45:\n        /* \"BitwiseOperators.sol\":732:739  uint256 */\n      0x00\n        /* \"BitwiseOperators.sol\":763:764  y */\n      dup2\n        /* \"BitwiseOperators.sol\":759:760  x */\n      dup4\n        /* \"BitwiseOperators.sol\":759:764  x ^ y */\n      xor\n        /* \"BitwiseOperators.sol\":752:764  return x ^ y */\n      swap1\n      pop\n        /* \"BitwiseOperators.sol\":674:772  function xor(uint256 x, uint256 y) external pure returns (uint256) {... */\n      swap3\n      swap2\n      pop\n      pop\n      jump\t// out\n        /* \"BitwiseOperators.sol\":1173:1316  function shiftLeft(uint256 x, uint256 bits)... */\n    tag_49:\n        /* \"BitwiseOperators.sol\":1267:1274  uint256 */\n      0x00\n        /* \"BitwiseOperators.sol\":1304:1308  bits */\n      dup2\n        /* \"BitwiseOperators.sol\":1299:1300  x */\n      dup4\n        /* \"BitwiseOperators.sol\":1299:1308  x << bits */\n      swap1\n      shl\n        /* \"BitwiseOperators.sol\":1292:1308  return x << bits */\n      swap1\n      pop\n        /* \"BitwiseOperators.sol\":1173:1316  function shiftLeft(uint256 x, uint256 bits)... */\n      swap3\n      swap2\n      pop\n      pop\n      jump\t// out\n        /* \"BitwiseOperators.sol\":2409:2593  function mostSignificantBit(uint256 x) external pure returns (uint256) {... */\n    tag_54:\n        /* \"BitwiseOperators.sol\":2471:2478  uint256 */\n      0x00\n        /* \"BitwiseOperators.sol\":2491:2500  uint256 i */\n      dup1\n        /* \"BitwiseOperators.sol\":2503:2504  0 */\n      0x00\n        /* \"BitwiseOperators.sol\":2491:2504  uint256 i = 0 */\n      swap1\n      pop\n        /* \"BitwiseOperators.sol\":2515:2567  while ((x >>= 1) > 0) {... */\n    tag_73:\n        /* \"BitwiseOperators.sol\":2534:2535  0 */\n      0x00\n        /* \"BitwiseOperators.sol\":2529:2530  1 */\n      0x01\n        /* \"BitwiseOperators.sol\":2523:2530  x >>= 1 */\n      dup5\n      swap1\n      shr\n      swap4\n      pop\n      dup4\n        /* \"BitwiseOperators.sol\":2522:2535  (x >>= 1) > 0 */\n      gt\n        /* \"BitwiseOperators.sol\":2515:2567  while ((x >>= 1) > 0) {... */\n      iszero\n      tag_74\n      jumpi\n        /* \"BitwiseOperators.sol\":2552:2555  ++i */\n      dup1\n      tag_75\n      swap1\n      tag_76\n      jump\t// in\n    tag_75:\n      swap1\n      pop\n        /* \"BitwiseOperators.sol\":2515:2567  while ((x >>= 1) > 0) {... */\n      jump(tag_73)\n    tag_74:\n        /* \"BitwiseOperators.sol\":2584:2585  i */\n      dup1\n        /* \"BitwiseOperators.sol\":2577:2585  return i */\n      swap2\n      pop\n      pop\n        /* \"BitwiseOperators.sol\":2409:2593  function mostSignificantBit(uint256 x) external pure returns (uint256) {... */\n      swap2\n      swap1\n      pop\n      jump\t// out\n        /* \"BitwiseOperators.sol\":2091:2273  function getLastNBitsUsingMod(uint256 x, uint256 n)... */\n    tag_58:\n        /* \"BitwiseOperators.sol\":2193:2200  uint256 */\n      0x00\n        /* \"BitwiseOperators.sol\":2263:2264  n */\n      dup2\n        /* \"BitwiseOperators.sol\":2258:2259  1 */\n      0x01\n        /* \"BitwiseOperators.sol\":2258:2264  1 << n */\n      swap1\n      shl\n        /* \"BitwiseOperators.sol\":2253:2254  x */\n      dup4\n        /* \"BitwiseOperators.sol\":2253:2265  x % (1 << n) */\n      tag_78\n      swap2\n      swap1\n      tag_79\n      jump\t// in\n    tag_78:\n        /* \"BitwiseOperators.sol\":2246:2265  return x % (1 << n) */\n      swap1\n      pop\n        /* \"BitwiseOperators.sol\":2091:2273  function getLastNBitsUsingMod(uint256 x, uint256 n)... */\n      swap3\n      swap2\n      pop\n      pop\n      jump\t// out\n        /* \"#utility.yul\":88:205   */\n    tag_81:\n        /* \"#utility.yul\":197:198   */\n      0x00\n        /* \"#utility.yul\":194:195   */\n      dup1\n        /* \"#utility.yul\":187:199   */\n      revert\n        /* \"#utility.yul\":334:411   */\n    tag_83:\n        /* \"#utility.yul\":371:378   */\n      0x00\n        /* \"#utility.yul\":400:405   */\n      dup2\n        /* \"#utility.yul\":389:405   */\n      swap1\n      pop\n        /* \"#utility.yul\":334:411   */\n      swap2\n      swap1\n      pop\n      jump\t// out\n        /* \"#utility.yul\":417:539   */\n    tag_84:\n        /* \"#utility.yul\":490:514   */\n      tag_99\n        /* \"#utility.yul\":508:513   */\n      dup2\n        /* \"#utility.yul\":490:514   */\n      tag_83\n      jump\t// in\n    tag_99:\n        /* \"#utility.yul\":483:488   */\n      dup2\n        /* \"#utility.yul\":480:515   */\n      eq\n        /* \"#utility.yul\":470:533   */\n      tag_100\n      jumpi\n        /* \"#utility.yul\":529:530   */\n      0x00\n        /* \"#utility.yul\":526:527   */\n      dup1\n        /* \"#utility.yul\":519:531   */\n      revert\n        /* \"#utility.yul\":470:533   */\n    tag_100:\n        /* \"#utility.yul\":417:539   */\n      pop\n      jump\t// out\n        /* \"#utility.yul\":545:684   */\n    tag_85:\n        /* \"#utility.yul\":591:596   */\n      0x00\n        /* \"#utility.yul\":629:635   */\n      dup2\n        /* \"#utility.yul\":616:636   */\n      calldataload\n        /* \"#utility.yul\":607:636   */\n      swap1\n      pop\n        /* \"#utility.yul\":645:678   */\n      tag_102\n        /* \"#utility.yul\":672:677   */\n      dup2\n        /* \"#utility.yul\":645:678   */\n      tag_84\n      jump\t// in\n    tag_102:\n        /* \"#utility.yul\":545:684   */\n      swap3\n      swap2\n      pop\n      pop\n      jump\t// out\n        /* \"#utility.yul\":690:1164   */\n    tag_16:\n        /* \"#utility.yul\":758:764   */\n      0x00\n        /* \"#utility.yul\":766:772   */\n      dup1\n        /* \"#utility.yul\":815:817   */\n      0x40\n        /* \"#utility.yul\":803:812   */\n      dup4\n        /* \"#utility.yul\":794:801   */\n      dup6\n        /* \"#utility.yul\":790:813   */\n      sub\n        /* \"#utility.yul\":786:818   */\n      slt\n        /* \"#utility.yul\":783:902   */\n      iszero\n      tag_104\n      jumpi\n        /* \"#utility.yul\":821:900   */\n      tag_105\n      tag_81\n      jump\t// in\n    tag_105:\n        /* \"#utility.yul\":783:902   */\n    tag_104:\n        /* \"#utility.yul\":941:942   */\n      0x00\n        /* \"#utility.yul\":966:1019   */\n      tag_106\n        /* \"#utility.yul\":1011:1018   */\n      dup6\n        /* \"#utility.yul\":1002:1008   */\n      dup3\n        /* \"#utility.yul\":991:1000   */\n      dup7\n        /* \"#utility.yul\":987:1009   */\n      add\n        /* \"#utility.yul\":966:1019   */\n      tag_85\n      jump\t// in\n    tag_106:\n        /* \"#utility.yul\":956:1019   */\n      swap3\n      pop\n        /* \"#utility.yul\":912:1029   */\n      pop\n        /* \"#utility.yul\":1068:1070   */\n      0x20\n        /* \"#utility.yul\":1094:1147   */\n      tag_107\n        /* \"#utility.yul\":1139:1146   */\n      dup6\n        /* \"#utility.yul\":1130:1136   */\n      dup3\n        /* \"#utility.yul\":1119:1128   */\n      dup7\n        /* \"#utility.yul\":1115:1137   */\n      add\n        /* \"#utility.yul\":1094:1147   */\n      tag_85\n      jump\t// in\n    tag_107:\n        /* \"#utility.yul\":1084:1147   */\n      swap2\n      pop\n        /* \"#utility.yul\":1039:1157   */\n      pop\n        /* \"#utility.yul\":690:1164   */\n      swap3\n      pop\n      swap3\n      swap1\n      pop\n      jump\t// out\n        /* \"#utility.yul\":1170:1288   */\n    tag_86:\n        /* \"#utility.yul\":1257:1281   */\n      tag_109\n        /* \"#utility.yul\":1275:1280   */\n      dup2\n        /* \"#utility.yul\":1257:1281   */\n      tag_83\n      jump\t// in\n    tag_109:\n        /* \"#utility.yul\":1252:1255   */\n      dup3\n        /* \"#utility.yul\":1245:1282   */\n      mstore\n        /* \"#utility.yul\":1170:1288   */\n      pop\n      pop\n      jump\t// out\n        /* \"#utility.yul\":1294:1516   */\n    tag_19:\n        /* \"#utility.yul\":1387:1391   */\n      0x00\n        /* \"#utility.yul\":1425:1427   */\n      0x20\n        /* \"#utility.yul\":1414:1423   */\n      dup3\n        /* \"#utility.yul\":1410:1428   */\n      add\n        /* \"#utility.yul\":1402:1428   */\n      swap1\n      pop\n        /* \"#utility.yul\":1438:1509   */\n      tag_111\n        /* \"#utility.yul\":1506:1507   */\n      0x00\n        /* \"#utility.yul\":1495:1504   */\n      dup4\n        /* \"#utility.yul\":1491:1508   */\n      add\n        /* \"#utility.yul\":1482:1488   */\n      dup5\n        /* \"#utility.yul\":1438:1509   */\n      tag_86\n      jump\t// in\n    tag_111:\n        /* \"#utility.yul\":1294:1516   */\n      swap3\n      swap2\n      pop\n      pop\n      jump\t// out\n        /* \"#utility.yul\":1522:2141   */\n    tag_22:\n        /* \"#utility.yul\":1599:1605   */\n      0x00\n        /* \"#utility.yul\":1607:1613   */\n      dup1\n        /* \"#utility.yul\":1615:1621   */\n      0x00\n        /* \"#utility.yul\":1664:1666   */\n      0x60\n        /* \"#utility.yul\":1652:1661   */\n      dup5\n        /* \"#utility.yul\":1643:1650   */\n      dup7\n        /* \"#utility.yul\":1639:1662   */\n      sub\n        /* \"#utility.yul\":1635:1667   */\n      slt\n        /* \"#utility.yul\":1632:1751   */\n      iszero\n      tag_113\n      jumpi\n        /* \"#utility.yul\":1670:1749   */\n      tag_114\n      tag_81\n      jump\t// in\n    tag_114:\n        /* \"#utility.yul\":1632:1751   */\n    tag_113:\n        /* \"#utility.yul\":1790:1791   */\n      0x00\n        /* \"#utility.yul\":1815:1868   */\n      tag_115\n        /* \"#utility.yul\":1860:1867   */\n      dup7\n        /* \"#utility.yul\":1851:1857   */\n      dup3\n        /* \"#utility.yul\":1840:1849   */\n      dup8\n        /* \"#utility.yul\":1836:1858   */\n      add\n        /* \"#utility.yul\":1815:1868   */\n      tag_85\n      jump\t// in\n    tag_115:\n        /* \"#utility.yul\":1805:1868   */\n      swap4\n      pop\n        /* \"#utility.yul\":1761:1878   */\n      pop\n        /* \"#utility.yul\":1917:1919   */\n      0x20\n        /* \"#utility.yul\":1943:1996   */\n      tag_116\n        /* \"#utility.yul\":1988:1995   */\n      dup7\n        /* \"#utility.yul\":1979:1985   */\n      dup3\n        /* \"#utility.yul\":1968:1977   */\n      dup8\n        /* \"#utility.yul\":1964:1986   */\n      add\n        /* \"#utility.yul\":1943:1996   */\n      tag_85\n      jump\t// in\n    tag_116:\n        /* \"#utility.yul\":1933:1996   */\n      swap3\n      pop\n        /* \"#utility.yul\":1888:2006   */\n      pop\n        /* \"#utility.yul\":2045:2047   */\n      0x40\n        /* \"#utility.yul\":2071:2124   */\n      tag_117\n        /* \"#utility.yul\":2116:2123   */\n      dup7\n        /* \"#utility.yul\":2107:2113   */\n      dup3\n        /* \"#utility.yul\":2096:2105   */\n      dup8\n        /* \"#utility.yul\":2092:2114   */\n      add\n        /* \"#utility.yul\":2071:2124   */\n      tag_85\n      jump\t// in\n    tag_117:\n        /* \"#utility.yul\":2061:2124   */\n      swap2\n      pop\n        /* \"#utility.yul\":2016:2134   */\n      pop\n        /* \"#utility.yul\":1522:2141   */\n      swap3\n      pop\n      swap3\n      pop\n      swap3\n      jump\t// out\n        /* \"#utility.yul\":2147:2233   */\n    tag_87:\n        /* \"#utility.yul\":2182:2189   */\n      0x00\n        /* \"#utility.yul\":2222:2226   */\n      0xff\n        /* \"#utility.yul\":2215:2220   */\n      dup3\n        /* \"#utility.yul\":2211:2227   */\n      and\n        /* \"#utility.yul\":2200:2227   */\n      swap1\n      pop\n        /* \"#utility.yul\":2147:2233   */\n      swap2\n      swap1\n      pop\n      jump\t// out\n        /* \"#utility.yul\":2239:2357   */\n    tag_88:\n        /* \"#utility.yul\":2310:2332   */\n      tag_120\n        /* \"#utility.yul\":2326:2331   */\n      dup2\n        /* \"#utility.yul\":2310:2332   */\n      tag_87\n      jump\t// in\n    tag_120:\n        /* \"#utility.yul\":2303:2308   */\n      dup2\n        /* \"#utility.yul\":2300:2333   */\n      eq\n        /* \"#utility.yul\":2290:2351   */\n      tag_121\n      jumpi\n        /* \"#utility.yul\":2347:2348   */\n      0x00\n        /* \"#utility.yul\":2344:2345   */\n      dup1\n        /* \"#utility.yul\":2337:2349   */\n      revert\n        /* \"#utility.yul\":2290:2351   */\n    tag_121:\n        /* \"#utility.yul\":2239:2357   */\n      pop\n      jump\t// out\n        /* \"#utility.yul\":2363:2498   */\n    tag_89:\n        /* \"#utility.yul\":2407:2412   */\n      0x00\n        /* \"#utility.yul\":2445:2451   */\n      dup2\n        /* \"#utility.yul\":2432:2452   */\n      calldataload\n        /* \"#utility.yul\":2423:2452   */\n      swap1\n      pop\n        /* \"#utility.yul\":2461:2492   */\n      tag_123\n        /* \"#utility.yul\":2486:2491   */\n      dup2\n        /* \"#utility.yul\":2461:2492   */\n      tag_88\n      jump\t// in\n    tag_123:\n        /* \"#utility.yul\":2363:2498   */\n      swap3\n      swap2\n      pop\n      pop\n      jump\t// out\n        /* \"#utility.yul\":2504:2829   */\n    tag_27:\n        /* \"#utility.yul\":2561:2567   */\n      0x00\n        /* \"#utility.yul\":2610:2612   */\n      0x20\n        /* \"#utility.yul\":2598:2607   */\n      dup3\n        /* \"#utility.yul\":2589:2596   */\n      dup5\n        /* \"#utility.yul\":2585:2608   */\n      sub\n        /* \"#utility.yul\":2581:2613   */\n      slt\n        /* \"#utility.yul\":2578:2697   */\n      iszero\n      tag_125\n      jumpi\n        /* \"#utility.yul\":2616:2695   */\n      tag_126\n      tag_81\n      jump\t// in\n    tag_126:\n        /* \"#utility.yul\":2578:2697   */\n    tag_125:\n        /* \"#utility.yul\":2736:2737   */\n      0x00\n        /* \"#utility.yul\":2761:2812   */\n      tag_127\n        /* \"#utility.yul\":2804:2811   */\n      dup5\n        /* \"#utility.yul\":2795:2801   */\n      dup3\n        /* \"#utility.yul\":2784:2793   */\n      dup6\n        /* \"#utility.yul\":2780:2802   */\n      add\n        /* \"#utility.yul\":2761:2812   */\n      tag_89\n      jump\t// in\n    tag_127:\n        /* \"#utility.yul\":2751:2812   */\n      swap2\n      pop\n        /* \"#utility.yul\":2707:2822   */\n      pop\n        /* \"#utility.yul\":2504:2829   */\n      swap3\n      swap2\n      pop\n      pop\n      jump\t// out\n        /* \"#utility.yul\":2835:2947   */\n    tag_90:\n        /* \"#utility.yul\":2918:2940   */\n      tag_129\n        /* \"#utility.yul\":2934:2939   */\n      dup2\n        /* \"#utility.yul\":2918:2940   */\n      tag_87\n      jump\t// in\n    tag_129:\n        /* \"#utility.yul\":2913:2916   */\n      dup3\n        /* \"#utility.yul\":2906:2941   */\n      mstore\n        /* \"#utility.yul\":2835:2947   */\n      pop\n      pop\n      jump\t// out\n        /* \"#utility.yul\":2953:3167   */\n    tag_30:\n        /* \"#utility.yul\":3042:3046   */\n      0x00\n        /* \"#utility.yul\":3080:3082   */\n      0x20\n        /* \"#utility.yul\":3069:3078   */\n      dup3\n        /* \"#utility.yul\":3065:3083   */\n      add\n        /* \"#utility.yul\":3057:3083   */\n      swap1\n      pop\n        /* \"#utility.yul\":3093:3160   */\n      tag_131\n        /* \"#utility.yul\":3157:3158   */\n      0x00\n        /* \"#utility.yul\":3146:3155   */\n      dup4\n        /* \"#utility.yul\":3142:3159   */\n      add\n        /* \"#utility.yul\":3133:3139   */\n      dup5\n        /* \"#utility.yul\":3093:3160   */\n      tag_90\n      jump\t// in\n    tag_131:\n        /* \"#utility.yul\":2953:3167   */\n      swap3\n      swap2\n      pop\n      pop\n      jump\t// out\n        /* \"#utility.yul\":3173:3502   */\n    tag_53:\n        /* \"#utility.yul\":3232:3238   */\n      0x00\n        /* \"#utility.yul\":3281:3283   */\n      0x20\n        /* \"#utility.yul\":3269:3278   */\n      dup3\n        /* \"#utility.yul\":3260:3267   */\n      dup5\n        /* \"#utility.yul\":3256:3279   */\n      sub\n        /* \"#utility.yul\":3252:3284   */\n      slt\n        /* \"#utility.yul\":3249:3368   */\n      iszero\n      tag_133\n      jumpi\n        /* \"#utility.yul\":3287:3366   */\n      tag_134\n      tag_81\n      jump\t// in\n    tag_134:\n        /* \"#utility.yul\":3249:3368   */\n    tag_133:\n        /* \"#utility.yul\":3407:3408   */\n      0x00\n        /* \"#utility.yul\":3432:3485   */\n      tag_135\n        /* \"#utility.yul\":3477:3484   */\n      dup5\n        /* \"#utility.yul\":3468:3474   */\n      dup3\n        /* \"#utility.yul\":3457:3466   */\n      dup6\n        /* \"#utility.yul\":3453:3475   */\n      add\n        /* \"#utility.yul\":3432:3485   */\n      tag_85\n      jump\t// in\n    tag_135:\n        /* \"#utility.yul\":3422:3485   */\n      swap2\n      pop\n        /* \"#utility.yul\":3378:3495   */\n      pop\n        /* \"#utility.yul\":3173:3502   */\n      swap3\n      swap2\n      pop\n      pop\n      jump\t// out\n        /* \"#utility.yul\":3508:3688   */\n    tag_91:\n        /* \"#utility.yul\":3556:3633   */\n      0x4e487b7100000000000000000000000000000000000000000000000000000000\n        /* \"#utility.yul\":3553:3554   */\n      0x00\n        /* \"#utility.yul\":3546:3634   */\n      mstore\n        /* \"#utility.yul\":3653:3657   */\n      0x11\n        /* \"#utility.yul\":3650:3651   */\n      0x04\n        /* \"#utility.yul\":3643:3658   */\n      mstore\n        /* \"#utility.yul\":3677:3681   */\n      0x24\n        /* \"#utility.yul\":3674:3675   */\n      0x00\n        /* \"#utility.yul\":3667:3682   */\n      revert\n        /* \"#utility.yul\":3694:3888   */\n    tag_63:\n        /* \"#utility.yul\":3734:3738   */\n      0x00\n        /* \"#utility.yul\":3754:3774   */\n      tag_138\n        /* \"#utility.yul\":3772:3773   */\n      dup3\n        /* \"#utility.yul\":3754:3774   */\n      tag_83\n      jump\t// in\n    tag_138:\n        /* \"#utility.yul\":3749:3774   */\n      swap2\n      pop\n        /* \"#utility.yul\":3788:3808   */\n      tag_139\n        /* \"#utility.yul\":3806:3807   */\n      dup4\n        /* \"#utility.yul\":3788:3808   */\n      tag_83\n      jump\t// in\n    tag_139:\n        /* \"#utility.yul\":3783:3808   */\n      swap3\n      pop\n        /* \"#utility.yul\":3832:3833   */\n      dup3\n        /* \"#utility.yul\":3829:3830   */\n      dup3\n        /* \"#utility.yul\":3825:3834   */\n      sub\n        /* \"#utility.yul\":3817:3834   */\n      swap1\n      pop\n        /* \"#utility.yul\":3856:3857   */\n      dup2\n        /* \"#utility.yul\":3850:3854   */\n      dup2\n        /* \"#utility.yul\":3847:3858   */\n      gt\n        /* \"#utility.yul\":3844:3881   */\n      iszero\n      tag_140\n      jumpi\n        /* \"#utility.yul\":3861:3879   */\n      tag_141\n      tag_91\n      jump\t// in\n    tag_141:\n        /* \"#utility.yul\":3844:3881   */\n    tag_140:\n        /* \"#utility.yul\":3694:3888   */\n      swap3\n      swap2\n      pop\n      pop\n      jump\t// out\n        /* \"#utility.yul\":3894:4127   */\n    tag_76:\n        /* \"#utility.yul\":3933:3936   */\n      0x00\n        /* \"#utility.yul\":3956:3980   */\n      tag_143\n        /* \"#utility.yul\":3974:3979   */\n      dup3\n        /* \"#utility.yul\":3956:3980   */\n      tag_83\n      jump\t// in\n    tag_143:\n        /* \"#utility.yul\":3947:3980   */\n      swap2\n      pop\n        /* \"#utility.yul\":4002:4068   */\n      0xffffffffffffffffffffffffffffffffffffffffffffffffffffffffffffffff\n        /* \"#utility.yul\":3995:4000   */\n      dup3\n        /* \"#utility.yul\":3992:4069   */\n      sub\n        /* \"#utility.yul\":3989:4092   */\n      tag_144\n      jumpi\n        /* \"#utility.yul\":4072:4090   */\n      tag_145\n      tag_91\n      jump\t// in\n    tag_145:\n        /* \"#utility.yul\":3989:4092   */\n    tag_144:\n        /* \"#utility.yul\":4119:4120   */\n      0x01\n        /* \"#utility.yul\":4112:4117   */\n      dup3\n        /* \"#utility.yul\":4108:4121   */\n      add\n        /* \"#utility.yul\":4101:4121   */\n      swap1\n      pop\n        /* \"#utility.yul\":3894:4127   */\n      swap2\n      swap1\n      pop\n      jump\t// out\n        /* \"#utility.yul\":4133:4313   */\n    tag_92:\n        /* \"#utility.yul\":4181:4258   */\n      0x4e487b7100000000000000000000000000000000000000000000000000000000\n        /* \"#utility.yul\":4178:4179   */\n      0x00\n        /* \"#utility.yul\":4171:4259   */\n      mstore\n        /* \"#utility.yul\":4278:4282   */\n      0x12\n        /* \"#utility.yul\":4275:4276   */\n      0x04\n        /* \"#utility.yul\":4268:4283   */\n      mstore\n        /* \"#utility.yul\":4302:4306   */\n      0x24\n        /* \"#utility.yul\":4299:4300   */\n      0x00\n        /* \"#utility.yul\":4292:4307   */\n      revert\n        /* \"#utility.yul\":4319:4495   */\n    tag_79:\n        /* \"#utility.yul\":4351:4352   */\n      0x00\n        /* \"#utility.yul\":4368:4388   */\n      tag_148\n        /* \"#utility.yul\":4386:4387   */\n      dup3\n        /* \"#utility.yul\":4368:4388   */\n      tag_83\n      jump\t// in\n    tag_148:\n        /* \"#utility.yul\":4363:4388   */\n      swap2\n      pop\n        /* \"#utility.yul\":4402:4422   */\n      tag_149\n        /* \"#utility.yul\":4420:4421   */\n      dup4\n        /* \"#utility.yul\":4402:4422   */\n      tag_83\n      jump\t// in\n    tag_149:\n        /* \"#utility.yul\":4397:4422   */\n      swap3\n      pop\n        /* \"#utility.yul\":4441:4442   */\n      dup3\n        /* \"#utility.yul\":4431:4466   */\n      tag_150\n      jumpi\n        /* \"#utility.yul\":4446:4464   */\n      tag_151\n      tag_92\n      jump\t// in\n    tag_151:\n        /* \"#utility.yul\":4431:4466   */\n    tag_150:\n        /* \"#utility.yul\":4487:4488   */\n      dup3\n        /* \"#utility.yul\":4484:4485   */\n      dup3\n        /* \"#utility.yul\":4480:4489   */\n      mod\n        /* \"#utility.yul\":4475:4489   */\n      swap1\n      pop\n        /* \"#utility.yul\":4319:4495   */\n      swap3\n      swap2\n      pop\n      pop\n      jump\t// out\n\n    auxdata: 0xa264697066735822122055877645975519aa3b0bf6b7014f50784899b50e88b9d368aacba5e67c7f212864736f6c634300081a0033\n}\n",
				"bytecode": {
					"linkReferences": {},
					"object": "6080604052348015600e575f80fd5b5061063c8061001c5f395ff3fe608060405234801561000f575f80fd5b506004361061009c575f3560e01c8063903b984211610064578063903b9842146101905780639ed41ba1146101c0578063a589d212146101f0578063e6bcbc6514610220578063ecc43a0e146102505761009c565b8063097c2cb2146100a05780630a7d4a39146100d05780631180f8c3146101005780631685fa981461013057806321a9529614610160575b5f80fd5b6100ba60048036038101906100b59190610398565b610280565b6040516100c791906103e5565b60405180910390f35b6100ea60048036038101906100e591906103fe565b61028c565b6040516100f791906103e5565b60405180910390f35b61011a60048036038101906101159190610484565b6102bc565b60405161012791906104be565b60405180910390f35b61014a60048036038101906101459190610398565b6102c6565b60405161015791906103e5565b60405180910390f35b61017a60048036038101906101759190610398565b6102d3565b60405161018791906103e5565b60405180910390f35b6101aa60048036038101906101a59190610398565b6102f4565b6040516101b791906103e5565b60405180910390f35b6101da60048036038101906101d59190610398565b610300565b6040516101e791906103e5565b60405180910390f35b61020a60048036038101906102059190610398565b61030c565b60405161021791906103e5565b60405180910390f35b61023a600480360381019061023591906104d7565b610319565b60405161024791906103e5565b60405180910390f35b61026a60048036038101906102659190610398565b610348565b60405161027791906103e5565b60405180910390f35b5f818317905092915050565b5f80838361029a919061052f565b6001856001901b6102ab919061052f565b901b90508085169150509392505050565b5f81199050919050565b5f8183901c905092915050565b5f806001836001901b6102e6919061052f565b905080841691505092915050565b5f818316905092915050565b5f818318905092915050565b5f8183901b905092915050565b5f805f90505b5f600184901c935083111561033f578061033890610562565b905061031f565b80915050919050565b5f816001901b8361035991906105d6565b905092915050565b5f80fd5b5f819050919050565b61037781610365565b8114610381575f80fd5b50565b5f813590506103928161036e565b92915050565b5f80604083850312156103ae576103ad610361565b5b5f6103bb85828601610384565b92505060206103cc85828601610384565b9150509250929050565b6103df81610365565b82525050565b5f6020820190506103f85f8301846103d6565b92915050565b5f805f6060848603121561041557610414610361565b5b5f61042286828701610384565b935050602061043386828701610384565b925050604061044486828701610384565b9150509250925092565b5f60ff82169050919050565b6104638161044e565b811461046d575f80fd5b50565b5f8135905061047e8161045a565b92915050565b5f6020828403121561049957610498610361565b5b5f6104a684828501610470565b91505092915050565b6104b88161044e565b82525050565b5f6020820190506104d15f8301846104af565b92915050565b5f602082840312156104ec576104eb610361565b5b5f6104f984828501610384565b91505092915050565b7f4e487b71000000000000000000000000000000000000000000000000000000005f52601160045260245ffd5b5f61053982610365565b915061054483610365565b925082820390508181111561055c5761055b610502565b5b92915050565b5f61056c82610365565b91507fffffffffffffffffffffffffffffffffffffffffffffffffffffffffffffffff820361059e5761059d610502565b5b600182019050919050565b7f4e487b71000000000000000000000000000000000000000000000000000000005f52601260045260245ffd5b5f6105e082610365565b91506105eb83610365565b9250826105fb576105fa6105a9565b5b82820690509291505056fea264697066735822122055877645975519aa3b0bf6b7014f50784899b50e88b9d368aacba5e67c7f212864736f6c634300081a0033",
					"opcodes": "PUSH1 0x80 PUSH1 0x40 MSTORE CALLVALUE DUP1 ISZERO PUSH1 0xE JUMPI PUSH0 DUP1 REVERT JUMPDEST POP PUSH2 0x63C DUP1 PUSH2 0x1C PUSH0 CODECOPY PUSH0 RETURN INVALID PUSH1 0x80 PUSH1 0x40 MSTORE CALLVALUE DUP1 ISZERO PUSH2 0xF JUMPI PUSH0 DUP1 REVERT JUMPDEST POP PUSH1 0x4 CALLDATASIZE LT PUSH2 0x9C JUMPI PUSH0 CALLDATALOAD PUSH1 0xE0 SHR DUP1 PUSH4 0x903B9842 GT PUSH2 0x64 JUMPI DUP1 PUSH4 0x903B9842 EQ PUSH2 0x190 JUMPI DUP1 PUSH4 0x9ED41BA1 EQ PUSH2 0x1C0 JUMPI DUP1 PUSH4 0xA589D212 EQ PUSH2 0x1F0 JUMPI DUP1 PUSH4 0xE6BCBC65 EQ PUSH2 0x220 JUMPI DUP1 PUSH4 0xECC43A0E EQ PUSH2 0x250 JUMPI PUSH2 0x9C JUMP JUMPDEST DUP1 PUSH4 0x97C2CB2 EQ PUSH2 0xA0 JUMPI DUP1 PUSH4 0xA7D4A39 EQ PUSH2 0xD0 JUMPI DUP1 PUSH4 0x1180F8C3 EQ PUSH2 0x100 JUMPI DUP1 PUSH4 0x1685FA98 EQ PUSH2 0x130 JUMPI DUP1 PUSH4 0x21A95296 EQ PUSH2 0x160 JUMPI JUMPDEST PUSH0 DUP1 REVERT JUMPDEST PUSH2 0xBA PUSH1 0x4 DUP1 CALLDATASIZE SUB DUP2 ADD SWAP1 PUSH2 0xB5 SWAP2 SWAP1 PUSH2 0x398 JUMP JUMPDEST PUSH2 0x280 JUMP JUMPDEST PUSH1 0x40 MLOAD PUSH2 0xC7 SWAP2 SWAP1 PUSH2 0x3E5 JUMP JUMPDEST PUSH1 0x40 MLOAD DUP1 SWAP2 SUB SWAP1 RETURN JUMPDEST PUSH2 0xEA PUSH1 0x4 DUP1 CALLDATASIZE SUB DUP2 ADD SWAP1 PUSH2 0xE5 SWAP2 SWAP1 PUSH2 0x3FE JUMP JUMPDEST PUSH2 0x28C JUMP JUMPDEST PUSH1 0x40 MLOAD PUSH2 0xF7 SWAP2 SWAP1 PUSH2 0x3E5 JUMP JUMPDEST PUSH1 0x40 MLOAD DUP1 SWAP2 SUB SWAP1 RETURN JUMPDEST PUSH2 0x11A PUSH1 0x4 DUP1 CALLDATASIZE SUB DUP2 ADD SWAP1 PUSH2 0x115 SWAP2 SWAP1 PUSH2 0x484 JUMP JUMPDEST PUSH2 0x2BC JUMP JUMPDEST PUSH1 0x40 MLOAD PUSH2 0x127 SWAP2 SWAP1 PUSH2 0x4BE JUMP JUMPDEST PUSH1 0x40 MLOAD DUP1 SWAP2 SUB SWAP1 RETURN JUMPDEST PUSH2 0x14A PUSH1 0x4 DUP1 CALLDATASIZE SUB DUP2 ADD SWAP1 PUSH2 0x145 SWAP2 SWAP1 PUSH2 0x398 JUMP JUMPDEST PUSH2 0x2C6 JUMP JUMPDEST PUSH1 0x40 MLOAD PUSH2 0x157 SWAP2 SWAP1 PUSH2 0x3E5 JUMP JUMPDEST PUSH1 0x40 MLOAD DUP1 SWAP2 SUB SWAP1 RETURN JUMPDEST PUSH2 0x17A PUSH1 0x4 DUP1 CALLDATASIZE SUB DUP2 ADD SWAP1 PUSH2 0x175 SWAP2 SWAP1 PUSH2 0x398 JUMP JUMPDEST PUSH2 0x2D3 JUMP JUMPDEST PUSH1 0x40 MLOAD PUSH2 0x187 SWAP2 SWAP1 PUSH2 0x3E5 JUMP JUMPDEST PUSH1 0x40 MLOAD DUP1 SWAP2 SUB SWAP1 RETURN JUMPDEST PUSH2 0x1AA PUSH1 0x4 DUP1 CALLDATASIZE SUB DUP2 ADD SWAP1 PUSH2 0x1A5 SWAP2 SWAP1 PUSH2 0x398 JUMP JUMPDEST PUSH2 0x2F4 JUMP JUMPDEST PUSH1 0x40 MLOAD PUSH2 0x1B7 SWAP2 SWAP1 PUSH2 0x3E5 JUMP JUMPDEST PUSH1 0x40 MLOAD DUP1 SWAP2 SUB SWAP1 RETURN JUMPDEST PUSH2 0x1DA PUSH1 0x4 DUP1 CALLDATASIZE SUB DUP2 ADD SWAP1 PUSH2 0x1D5 SWAP2 SWAP1 PUSH2 0x398 JUMP JUMPDEST PUSH2 0x300 JUMP JUMPDEST PUSH1 0x40 MLOAD PUSH2 0x1E7 SWAP2 SWAP1 PUSH2 0x3E5 JUMP JUMPDEST PUSH1 0x40 MLOAD DUP1 SWAP2 SUB SWAP1 RETURN JUMPDEST PUSH2 0x20A PUSH1 0x4 DUP1 CALLDATASIZE SUB DUP2 ADD SWAP1 PUSH2 0x205 SWAP2 SWAP1 PUSH2 0x398 JUMP JUMPDEST PUSH2 0x30C JUMP JUMPDEST PUSH1 0x40 MLOAD PUSH2 0x217 SWAP2 SWAP1 PUSH2 0x3E5 JUMP JUMPDEST PUSH1 0x40 MLOAD DUP1 SWAP2 SUB SWAP1 RETURN JUMPDEST PUSH2 0x23A PUSH1 0x4 DUP1 CALLDATASIZE SUB DUP2 ADD SWAP1 PUSH2 0x235 SWAP2 SWAP1 PUSH2 0x4D7 JUMP JUMPDEST PUSH2 0x319 JUMP JUMPDEST PUSH1 0x40 MLOAD PUSH2 0x247 SWAP2 SWAP1 PUSH2 0x3E5 JUMP JUMPDEST PUSH1 0x40 MLOAD DUP1 SWAP2 SUB SWAP1 RETURN JUMPDEST PUSH2 0x26A PUSH1 0x4 DUP1 CALLDATASIZE SUB DUP2 ADD SWAP1 PUSH2 0x265 SWAP2 SWAP1 PUSH2 0x398 JUMP JUMPDEST PUSH2 0x348 JUMP JUMPDEST PUSH1 0x40 MLOAD PUSH2 0x277 SWAP2 SWAP1 PUSH2 0x3E5 JUMP JUMPDEST PUSH1 0x40 MLOAD DUP1 SWAP2 SUB SWAP1 RETURN JUMPDEST PUSH0 DUP2 DUP4 OR SWAP1 POP SWAP3 SWAP2 POP POP JUMP JUMPDEST PUSH0 DUP1 DUP4 DUP4 PUSH2 0x29A SWAP2 SWAP1 PUSH2 0x52F JUMP JUMPDEST PUSH1 0x1 DUP6 PUSH1 0x1 SWAP1 SHL PUSH2 0x2AB SWAP2 SWAP1 PUSH2 0x52F JUMP JUMPDEST SWAP1 SHL SWAP1 POP DUP1 DUP6 AND SWAP2 POP POP SWAP4 SWAP3 POP POP POP JUMP JUMPDEST PUSH0 DUP2 NOT SWAP1 POP SWAP2 SWAP1 POP JUMP JUMPDEST PUSH0 DUP2 DUP4 SWAP1 SHR SWAP1 POP SWAP3 SWAP2 POP POP JUMP JUMPDEST PUSH0 DUP1 PUSH1 0x1 DUP4 PUSH1 0x1 SWAP1 SHL PUSH2 0x2E6 SWAP2 SWAP1 PUSH2 0x52F JUMP JUMPDEST SWAP1 POP DUP1 DUP5 AND SWAP2 POP POP SWAP3 SWAP2 POP POP JUMP JUMPDEST PUSH0 DUP2 DUP4 AND SWAP1 POP SWAP3 SWAP2 POP POP JUMP JUMPDEST PUSH0 DUP2 DUP4 XOR SWAP1 POP SWAP3 SWAP2 POP POP JUMP JUMPDEST PUSH0 DUP2 DUP4 SWAP1 SHL SWAP1 POP SWAP3 SWAP2 POP POP JUMP JUMPDEST PUSH0 DUP1 PUSH0 SWAP1 POP JUMPDEST PUSH0 PUSH1 0x1 DUP5 SWAP1 SHR SWAP4 POP DUP4 GT ISZERO PUSH2 0x33F JUMPI DUP1 PUSH2 0x338 SWAP1 PUSH2 0x562 JUMP JUMPDEST SWAP1 POP PUSH2 0x31F JUMP JUMPDEST DUP1 SWAP2 POP POP SWAP2 SWAP1 POP JUMP JUMPDEST PUSH0 DUP2 PUSH1 0x1 SWAP1 SHL DUP4 PUSH2 0x359 SWAP2 SWAP1 PUSH2 0x5D6 JUMP JUMPDEST SWAP1 POP SWAP3 SWAP2 POP POP JUMP JUMPDEST PUSH0 DUP1 REVERT JUMPDEST PUSH0 DUP2 SWAP1 POP SWAP2 SWAP1 POP JUMP JUMPDEST PUSH2 0x377 DUP2 PUSH2 0x365 JUMP JUMPDEST DUP2 EQ PUSH2 0x381 JUMPI PUSH0 DUP1 REVERT JUMPDEST POP JUMP JUMPDEST PUSH0 DUP2 CALLDATALOAD SWAP1 POP PUSH2 0x392 DUP2 PUSH2 0x36E JUMP JUMPDEST SWAP3 SWAP2 POP POP JUMP JUMPDEST PUSH0 DUP1 PUSH1 0x40 DUP4 DUP6 SUB SLT ISZERO PUSH2 0x3AE JUMPI PUSH2 0x3AD PUSH2 0x361 JUMP JUMPDEST JUMPDEST PUSH0 PUSH2 0x3BB DUP6 DUP3 DUP7 ADD PUSH2 0x384 JUMP JUMPDEST SWAP3 POP POP PUSH1 0x20 PUSH2 0x3CC DUP6 DUP3 DUP7 ADD PUSH2 0x384 JUMP JUMPDEST SWAP2 POP POP SWAP3 POP SWAP3 SWAP1 POP JUMP JUMPDEST PUSH2 0x3DF DUP2 PUSH2 0x365 JUMP JUMPDEST DUP3 MSTORE POP POP JUMP JUMPDEST PUSH0 PUSH1 0x20 DUP3 ADD SWAP1 POP PUSH2 0x3F8 PUSH0 DUP4 ADD DUP5 PUSH2 0x3D6 JUMP JUMPDEST SWAP3 SWAP2 POP POP JUMP JUMPDEST PUSH0 DUP1 PUSH0 PUSH1 0x60 DUP5 DUP7 SUB SLT ISZERO PUSH2 0x415 JUMPI PUSH2 0x414 PUSH2 0x361 JUMP JUMPDEST JUMPDEST PUSH0 PUSH2 0x422 DUP7 DUP3 DUP8 ADD PUSH2 0x384 JUMP JUMPDEST SWAP4 POP POP PUSH1 0x20 PUSH2 0x433 DUP7 DUP3 DUP8 ADD PUSH2 0x384 JUMP JUMPDEST SWAP3 POP POP PUSH1 0x40 PUSH2 0x444 DUP7 DUP3 DUP8 ADD PUSH2 0x384 JUMP JUMPDEST SWAP2 POP POP SWAP3 POP SWAP3 POP SWAP3 JUMP JUMPDEST PUSH0 PUSH1 0xFF DUP3 AND SWAP1 POP SWAP2 SWAP1 POP JUMP JUMPDEST PUSH2 0x463 DUP2 PUSH2 0x44E JUMP JUMPDEST DUP2 EQ PUSH2 0x46D JUMPI PUSH0 DUP1 REVERT JUMPDEST POP JUMP JUMPDEST PUSH0 DUP2 CALLDATALOAD SWAP1 POP PUSH2 0x47E DUP2 PUSH2 0x45A JUMP JUMPDEST SWAP3 SWAP2 POP POP JUMP JUMPDEST PUSH0 PUSH1 0x20 DUP3 DUP5 SUB SLT ISZERO PUSH2 0x499 JUMPI PUSH2 0x498 PUSH2 0x361 JUMP JUMPDEST JUMPDEST PUSH0 PUSH2 0x4A6 DUP5 DUP3 DUP6 ADD PUSH2 0x470 JUMP JUMPDEST SWAP2 POP POP SWAP3 SWAP2 POP POP JUMP JUMPDEST PUSH2 0x4B8 DUP2 PUSH2 0x44E JUMP JUMPDEST DUP3 MSTORE POP POP JUMP JUMPDEST PUSH0 PUSH1 0x20 DUP3 ADD SWAP1 POP PUSH2 0x4D1 PUSH0 DUP4 ADD DUP5 PUSH2 0x4AF JUMP JUMPDEST SWAP3 SWAP2 POP POP JUMP JUMPDEST PUSH0 PUSH1 0x20 DUP3 DUP5 SUB SLT ISZERO PUSH2 0x4EC JUMPI PUSH2 0x4EB PUSH2 0x361 JUMP JUMPDEST JUMPDEST PUSH0 PUSH2 0x4F9 DUP5 DUP3 DUP6 ADD PUSH2 0x384 JUMP JUMPDEST SWAP2 POP POP SWAP3 SWAP2 POP POP JUMP JUMPDEST PUSH32 0x4E487B7100000000000000000000000000000000000000000000000000000000 PUSH0 MSTORE PUSH1 0x11 PUSH1 0x4 MSTORE PUSH1 0x24 PUSH0 REVERT JUMPDEST PUSH0 PUSH2 0x539 DUP3 PUSH2 0x365 JUMP JUMPDEST SWAP2 POP PUSH2 0x544 DUP4 PUSH2 0x365 JUMP JUMPDEST SWAP3 POP DUP3 DUP3 SUB SWAP1 POP DUP2 DUP2 GT ISZERO PUSH2 0x55C JUMPI PUSH2 0x55B PUSH2 0x502 JUMP JUMPDEST JUMPDEST SWAP3 SWAP2 POP POP JUMP JUMPDEST PUSH0 PUSH2 0x56C DUP3 PUSH2 0x365 JUMP JUMPDEST SWAP2 POP PUSH32 0xFFFFFFFFFFFFFFFFFFFFFFFFFFFFFFFFFFFFFFFFFFFFFFFFFFFFFFFFFFFFFFFF DUP3 SUB PUSH2 0x59E JUMPI PUSH2 0x59D PUSH2 0x502 JUMP JUMPDEST JUMPDEST PUSH1 0x1 DUP3 ADD SWAP1 POP SWAP2 SWAP1 POP JUMP JUMPDEST PUSH32 0x4E487B7100000000000000000000000000000000000000000000000000000000 PUSH0 MSTORE PUSH1 0x12 PUSH1 0x4 MSTORE PUSH1 0x24 PUSH0 REVERT JUMPDEST PUSH0 PUSH2 0x5E0 DUP3 PUSH2 0x365 JUMP JUMPDEST SWAP2 POP PUSH2 0x5EB DUP4 PUSH2 0x365 JUMP JUMPDEST SWAP3 POP DUP3 PUSH2 0x5FB JUMPI PUSH2 0x5FA PUSH2 0x5A9 JUMP JUMPDEST JUMPDEST DUP3 DUP3 MOD SWAP1 POP SWAP3 SWAP2 POP POP JUMP INVALID LOG2 PUSH5 0x6970667358 0x22 SLT KECCAK256 SSTORE DUP8 PUSH23 0x45975519AA3B0BF6B7014F50784899B50E88B9D368AACB 0xA5 0xE6 PUSH29 0x7F212864736F6C634300081A0033000000000000000000000000000000 "
				},
				"gasEstimates": {
					"creation": {
						"codeDepositCost": "319200",
						"executionCost": "353",
						"totalCost": "319553"
					},
					"external": {
						"and(uint256,uint256)": "infinite",
						"getFirstNBits(uint256,uint256,uint256)": "infinite",
						"getLastNBits(uint256,uint256)": "infinite",
						"getLastNBitsUsingMod(uint256,uint256)": "infinite",
						"mostSignificantBit(uint256)": "infinite",
						"not(uint8)": "infinite",
						"or(uint256,uint256)": "infinite",
						"shiftLeft(uint256,uint256)": "infinite",
						"shiftRight(uint256,uint256)": "infinite",
						"xor(uint256,uint256)": "infinite"
					}
				},
				"methodIdentifiers": {
					"and(uint256,uint256)": "903b9842",
					"getFirstNBits(uint256,uint256,uint256)": "0a7d4a39",
					"getLastNBits(uint256,uint256)": "21a95296",
					"getLastNBitsUsingMod(uint256,uint256)": "ecc43a0e",
					"mostSignificantBit(uint256)": "e6bcbc65",
					"not(uint8)": "1180f8c3",
					"or(uint256,uint256)": "097c2cb2",
					"shiftLeft(uint256,uint256)": "a589d212",
					"shiftRight(uint256,uint256)": "1685fa98",
					"xor(uint256,uint256)": "9ed41ba1"
				}
			},
			"storageLayout": {
				"storage": [],
				"types": null
			},
			"userdoc": {
				"kind": "user",
				"methods": {},
				"version": 1
			}
		}
	}
}