{
	"BitwiseOperators.sol": {
		"MostSignificantBitAssembly": {
			"abi": [
				{
					"inputs": [
						{
							"internalType": "uint256",
							"name": "x",
							"type": "uint256"
						}
					],
					"name": "mostSignificantBit",
					"outputs": [
						{
							"internalType": "uint256",
							"name": "msb",
							"type": "uint256"
						}
					],
					"stateMutability": "pure",
					"type": "function"
				}
			],
			"devdoc": {
				"kind": "dev",
				"methods": {},
				"version": 1
			},
			"evm": {
				"assembly": "    /* \"BitwiseOperators.sol\":4214:5488  contract MostSignificantBitAssembly {... */\n  mstore(0x40, 0x80)\n  callvalue\n  dup1\n  iszero\n  tag_1\n  jumpi\n  0x00\n  dup1\n  revert\ntag_1:\n  pop\n  dataSize(sub_0)\n  dup1\n  dataOffset(sub_0)\n  0x00\n  codecopy\n  0x00\n  return\nstop\n\nsub_0: assembly {\n        /* \"BitwiseOperators.sol\":4214:5488  contract MostSignificantBitAssembly {... */\n      mstore(0x40, 0x80)\n      callvalue\n      dup1\n      iszero\n      tag_1\n      jumpi\n      0x00\n      dup1\n      revert\n    tag_1:\n      pop\n      jumpi(tag_2, lt(calldatasize, 0x04))\n      shr(0xe0, calldataload(0x00))\n      dup1\n      0xe6bcbc65\n      eq\n      tag_3\n      jumpi\n    tag_2:\n      0x00\n      dup1\n      revert\n        /* \"BitwiseOperators.sol\":4257:5485  function mostSignificantBit(uint256 x)... */\n    tag_3:\n      tag_4\n      0x04\n      dup1\n      calldatasize\n      sub\n      dup2\n      add\n      swap1\n      tag_5\n      swap2\n      swap1\n      tag_6\n      jump\t// in\n    tag_5:\n      tag_7\n      jump\t// in\n    tag_4:\n      mload(0x40)\n      tag_8\n      swap2\n      swap1\n      tag_9\n      jump\t// in\n    tag_8:\n      mload(0x40)\n      dup1\n      swap2\n      sub\n      swap1\n      return\n    tag_7:\n        /* \"BitwiseOperators.sol\":4346:4357  uint256 msb */\n      0x00\n        /* \"BitwiseOperators.sol\":4421:4455  0xFFFFFFFFFFFFFFFFFFFFFFFFFFFFFFFF */\n      0xffffffffffffffffffffffffffffffff\n        /* \"BitwiseOperators.sol\":4418:4419  x */\n      dup3\n        /* \"BitwiseOperators.sol\":4415:4456  gt(x, 0xFFFFFFFFFFFFFFFFFFFFFFFFFFFFFFFF) */\n      gt\n        /* \"BitwiseOperators.sol\":4412:4413  7 */\n      0x07\n        /* \"BitwiseOperators.sol\":4408:4457  shl(7, gt(x, 0xFFFFFFFFFFFFFFFFFFFFFFFFFFFFFFFF)) */\n      shl\n        /* \"BitwiseOperators.sol\":4483:4484  x */\n      dup3\n        /* \"BitwiseOperators.sol\":4480:4481  f */\n      dup2\n        /* \"BitwiseOperators.sol\":4476:4485  shr(f, x) */\n      shr\n        /* \"BitwiseOperators.sol\":4471:4485  x := shr(f, x) */\n      swap3\n      pop\n        /* \"BitwiseOperators.sol\":4558:4559  f */\n      dup1\n        /* \"BitwiseOperators.sol\":4553:4556  msb */\n      dup3\n        /* \"BitwiseOperators.sol\":4550:4560  or(msb, f) */\n      or\n        /* \"BitwiseOperators.sol\":4543:4560  msb := or(msb, f) */\n      swap2\n      pop\n        /* \"BitwiseOperators.sol\":4384:4571  {... */\n      pop\n        /* \"BitwiseOperators.sol\":4627:4645  0xFFFFFFFFFFFFFFFF */\n      0xffffffffffffffff\n        /* \"BitwiseOperators.sol\":4624:4625  x */\n      dup3\n        /* \"BitwiseOperators.sol\":4621:4646  gt(x, 0xFFFFFFFFFFFFFFFF) */\n      gt\n        /* \"BitwiseOperators.sol\":4618:4619  6 */\n      0x06\n        /* \"BitwiseOperators.sol\":4614:4647  shl(6, gt(x, 0xFFFFFFFFFFFFFFFF)) */\n      shl\n        /* \"BitwiseOperators.sol\":4673:4674  x */\n      dup3\n        /* \"BitwiseOperators.sol\":4670:4671  f */\n      dup2\n        /* \"BitwiseOperators.sol\":4666:4675  shr(f, x) */\n      shr\n        /* \"BitwiseOperators.sol\":4661:4675  x := shr(f, x) */\n      swap3\n      pop\n        /* \"BitwiseOperators.sol\":4704:4705  f */\n      dup1\n        /* \"BitwiseOperators.sol\":4699:4702  msb */\n      dup3\n        /* \"BitwiseOperators.sol\":4696:4706  or(msb, f) */\n      or\n        /* \"BitwiseOperators.sol\":4689:4706  msb := or(msb, f) */\n      swap2\n      pop\n        /* \"BitwiseOperators.sol\":4590:4717  {... */\n      pop\n        /* \"BitwiseOperators.sol\":4773:4783  0xFFFFFFFF */\n      0xffffffff\n        /* \"BitwiseOperators.sol\":4770:4771  x */\n      dup3\n        /* \"BitwiseOperators.sol\":4767:4784  gt(x, 0xFFFFFFFF) */\n      gt\n        /* \"BitwiseOperators.sol\":4764:4765  5 */\n      0x05\n        /* \"BitwiseOperators.sol\":4760:4785  shl(5, gt(x, 0xFFFFFFFF)) */\n      shl\n        /* \"BitwiseOperators.sol\":4811:4812  x */\n      dup3\n        /* \"BitwiseOperators.sol\":4808:4809  f */\n      dup2\n        /* \"BitwiseOperators.sol\":4804:4813  shr(f, x) */\n      shr\n        /* \"BitwiseOperators.sol\":4799:4813  x := shr(f, x) */\n      swap3\n      pop\n        /* \"BitwiseOperators.sol\":4842:4843  f */\n      dup1\n        /* \"BitwiseOperators.sol\":4837:4840  msb */\n      dup3\n        /* \"BitwiseOperators.sol\":4834:4844  or(msb, f) */\n      or\n        /* \"BitwiseOperators.sol\":4827:4844  msb := or(msb, f) */\n      swap2\n      pop\n        /* \"BitwiseOperators.sol\":4736:4855  {... */\n      pop\n        /* \"BitwiseOperators.sol\":4911:4917  0xFFFF */\n      0xffff\n        /* \"BitwiseOperators.sol\":4908:4909  x */\n      dup3\n        /* \"BitwiseOperators.sol\":4905:4918  gt(x, 0xFFFF) */\n      gt\n        /* \"BitwiseOperators.sol\":4902:4903  4 */\n      0x04\n        /* \"BitwiseOperators.sol\":4898:4919  shl(4, gt(x, 0xFFFF)) */\n      shl\n        /* \"BitwiseOperators.sol\":4945:4946  x */\n      dup3\n        /* \"BitwiseOperators.sol\":4942:4943  f */\n      dup2\n        /* \"BitwiseOperators.sol\":4938:4947  shr(f, x) */\n      shr\n        /* \"BitwiseOperators.sol\":4933:4947  x := shr(f, x) */\n      swap3\n      pop\n        /* \"BitwiseOperators.sol\":4976:4977  f */\n      dup1\n        /* \"BitwiseOperators.sol\":4971:4974  msb */\n      dup3\n        /* \"BitwiseOperators.sol\":4968:4978  or(msb, f) */\n      or\n        /* \"BitwiseOperators.sol\":4961:4978  msb := or(msb, f) */\n      swap2\n      pop\n        /* \"BitwiseOperators.sol\":4874:4989  {... */\n      pop\n        /* \"BitwiseOperators.sol\":5045:5049  0xFF */\n      0xff\n        /* \"BitwiseOperators.sol\":5042:5043  x */\n      dup3\n        /* \"BitwiseOperators.sol\":5039:5050  gt(x, 0xFF) */\n      gt\n        /* \"BitwiseOperators.sol\":5036:5037  3 */\n      0x03\n        /* \"BitwiseOperators.sol\":5032:5051  shl(3, gt(x, 0xFF)) */\n      shl\n        /* \"BitwiseOperators.sol\":5077:5078  x */\n      dup3\n        /* \"BitwiseOperators.sol\":5074:5075  f */\n      dup2\n        /* \"BitwiseOperators.sol\":5070:5079  shr(f, x) */\n      shr\n        /* \"BitwiseOperators.sol\":5065:5079  x := shr(f, x) */\n      swap3\n      pop\n        /* \"BitwiseOperators.sol\":5108:5109  f */\n      dup1\n        /* \"BitwiseOperators.sol\":5103:5106  msb */\n      dup3\n        /* \"BitwiseOperators.sol\":5100:5110  or(msb, f) */\n      or\n        /* \"BitwiseOperators.sol\":5093:5110  msb := or(msb, f) */\n      swap2\n      pop\n        /* \"BitwiseOperators.sol\":5008:5121  {... */\n      pop\n        /* \"BitwiseOperators.sol\":5177:5180  0xF */\n      0x0f\n        /* \"BitwiseOperators.sol\":5174:5175  x */\n      dup3\n        /* \"BitwiseOperators.sol\":5171:5181  gt(x, 0xF) */\n      gt\n        /* \"BitwiseOperators.sol\":5168:5169  2 */\n      0x02\n        /* \"BitwiseOperators.sol\":5164:5182  shl(2, gt(x, 0xF)) */\n      shl\n        /* \"BitwiseOperators.sol\":5208:5209  x */\n      dup3\n        /* \"BitwiseOperators.sol\":5205:5206  f */\n      dup2\n        /* \"BitwiseOperators.sol\":5201:5210  shr(f, x) */\n      shr\n        /* \"BitwiseOperators.sol\":5196:5210  x := shr(f, x) */\n      swap3\n      pop\n        /* \"BitwiseOperators.sol\":5239:5240  f */\n      dup1\n        /* \"BitwiseOperators.sol\":5234:5237  msb */\n      dup3\n        /* \"BitwiseOperators.sol\":5231:5241  or(msb, f) */\n      or\n        /* \"BitwiseOperators.sol\":5224:5241  msb := or(msb, f) */\n      swap2\n      pop\n        /* \"BitwiseOperators.sol\":5140:5252  {... */\n      pop\n        /* \"BitwiseOperators.sol\":5308:5311  0x3 */\n      0x03\n        /* \"BitwiseOperators.sol\":5305:5306  x */\n      dup3\n        /* \"BitwiseOperators.sol\":5302:5312  gt(x, 0x3) */\n      gt\n        /* \"BitwiseOperators.sol\":5299:5300  1 */\n      0x01\n        /* \"BitwiseOperators.sol\":5295:5313  shl(1, gt(x, 0x3)) */\n      shl\n        /* \"BitwiseOperators.sol\":5339:5340  x */\n      dup3\n        /* \"BitwiseOperators.sol\":5336:5337  f */\n      dup2\n        /* \"BitwiseOperators.sol\":5332:5341  shr(f, x) */\n      shr\n        /* \"BitwiseOperators.sol\":5327:5341  x := shr(f, x) */\n      swap3\n      pop\n        /* \"BitwiseOperators.sol\":5370:5371  f */\n      dup1\n        /* \"BitwiseOperators.sol\":5365:5368  msb */\n      dup3\n        /* \"BitwiseOperators.sol\":5362:5372  or(msb, f) */\n      or\n        /* \"BitwiseOperators.sol\":5355:5372  msb := or(msb, f) */\n      swap2\n      pop\n        /* \"BitwiseOperators.sol\":5271:5383  {... */\n      pop\n        /* \"BitwiseOperators.sol\":5432:5435  0x1 */\n      0x01\n        /* \"BitwiseOperators.sol\":5429:5430  x */\n      dup3\n        /* \"BitwiseOperators.sol\":5426:5436  gt(x, 0x1) */\n      gt\n        /* \"BitwiseOperators.sol\":5465:5466  f */\n      dup1\n        /* \"BitwiseOperators.sol\":5460:5463  msb */\n      dup3\n        /* \"BitwiseOperators.sol\":5457:5467  or(msb, f) */\n      or\n        /* \"BitwiseOperators.sol\":5450:5467  msb := or(msb, f) */\n      swap2\n      pop\n        /* \"BitwiseOperators.sol\":5402:5478  {... */\n      pop\n        /* \"BitwiseOperators.sol\":4257:5485  function mostSignificantBit(uint256 x)... */\n      swap2\n      swap1\n      pop\n      jump\t// out\n        /* \"#utility.yul\":88:205   */\n    tag_12:\n        /* \"#utility.yul\":197:198   */\n      0x00\n        /* \"#utility.yul\":194:195   */\n      dup1\n        /* \"#utility.yul\":187:199   */\n      revert\n        /* \"#utility.yul\":334:411   */\n    tag_14:\n        /* \"#utility.yul\":371:378   */\n      0x00\n        /* \"#utility.yul\":400:405   */\n      dup2\n        /* \"#utility.yul\":389:405   */\n      swap1\n      pop\n        /* \"#utility.yul\":334:411   */\n      swap2\n      swap1\n      pop\n      jump\t// out\n        /* \"#utility.yul\":417:539   */\n    tag_15:\n        /* \"#utility.yul\":490:514   */\n      tag_24\n        /* \"#utility.yul\":508:513   */\n      dup2\n        /* \"#utility.yul\":490:514   */\n      tag_14\n      jump\t// in\n    tag_24:\n        /* \"#utility.yul\":483:488   */\n      dup2\n        /* \"#utility.yul\":480:515   */\n      eq\n        /* \"#utility.yul\":470:533   */\n      tag_25\n      jumpi\n        /* \"#utility.yul\":529:530   */\n      0x00\n        /* \"#utility.yul\":526:527   */\n      dup1\n        /* \"#utility.yul\":519:531   */\n      revert\n        /* \"#utility.yul\":470:533   */\n    tag_25:\n        /* \"#utility.yul\":417:539   */\n      pop\n      jump\t// out\n        /* \"#utility.yul\":545:684   */\n    tag_16:\n        /* \"#utility.yul\":591:596   */\n      0x00\n        /* \"#utility.yul\":629:635   */\n      dup2\n        /* \"#utility.yul\":616:636   */\n      calldataload\n        /* \"#utility.yul\":607:636   */\n      swap1\n      pop\n        /* \"#utility.yul\":645:678   */\n      tag_27\n        /* \"#utility.yul\":672:677   */\n      dup2\n        /* \"#utility.yul\":645:678   */\n      tag_15\n      jump\t// in\n    tag_27:\n        /* \"#utility.yul\":545:684   */\n      swap3\n      swap2\n      pop\n      pop\n      jump\t// out\n        /* \"#utility.yul\":690:1019   */\n    tag_6:\n        /* \"#utility.yul\":749:755   */\n      0x00\n        /* \"#utility.yul\":798:800   */\n      0x20\n        /* \"#utility.yul\":786:795   */\n      dup3\n        /* \"#utility.yul\":777:784   */\n      dup5\n        /* \"#utility.yul\":773:796   */\n      sub\n        /* \"#utility.yul\":769:801   */\n      slt\n        /* \"#utility.yul\":766:885   */\n      iszero\n      tag_29\n      jumpi\n        /* \"#utility.yul\":804:883   */\n      tag_30\n      tag_12\n      jump\t// in\n    tag_30:\n        /* \"#utility.yul\":766:885   */\n    tag_29:\n        /* \"#utility.yul\":924:925   */\n      0x00\n        /* \"#utility.yul\":949:1002   */\n      tag_31\n        /* \"#utility.yul\":994:1001   */\n      dup5\n        /* \"#utility.yul\":985:991   */\n      dup3\n        /* \"#utility.yul\":974:983   */\n      dup6\n        /* \"#utility.yul\":970:992   */\n      add\n        /* \"#utility.yul\":949:1002   */\n      tag_16\n      jump\t// in\n    tag_31:\n        /* \"#utility.yul\":939:1002   */\n      swap2\n      pop\n        /* \"#utility.yul\":895:1012   */\n      pop\n        /* \"#utility.yul\":690:1019   */\n      swap3\n      swap2\n      pop\n      pop\n      jump\t// out\n        /* \"#utility.yul\":1025:1143   */\n    tag_17:\n        /* \"#utility.yul\":1112:1136   */\n      tag_33\n        /* \"#utility.yul\":1130:1135   */\n      dup2\n        /* \"#utility.yul\":1112:1136   */\n      tag_14\n      jump\t// in\n    tag_33:\n        /* \"#utility.yul\":1107:1110   */\n      dup3\n        /* \"#utility.yul\":1100:1137   */\n      mstore\n        /* \"#utility.yul\":1025:1143   */\n      pop\n      pop\n      jump\t// out\n        /* \"#utility.yul\":1149:1371   */\n    tag_9:\n        /* \"#utility.yul\":1242:1246   */\n      0x00\n        /* \"#utility.yul\":1280:1282   */\n      0x20\n        /* \"#utility.yul\":1269:1278   */\n      dup3\n        /* \"#utility.yul\":1265:1283   */\n      add\n        /* \"#utility.yul\":1257:1283   */\n      swap1\n      pop\n        /* \"#utility.yul\":1293:1364   */\n      tag_35\n        /* \"#utility.yul\":1361:1362   */\n      0x00\n        /* \"#utility.yul\":1350:1359   */\n      dup4\n        /* \"#utility.yul\":1346:1363   */\n      add\n        /* \"#utility.yul\":1337:1343   */\n      dup5\n        /* \"#utility.yul\":1293:1364   */\n      tag_17\n      jump\t// in\n    tag_35:\n        /* \"#utility.yul\":1149:1371   */\n      swap3\n      swap2\n      pop\n      pop\n      jump\t// out\n\n    auxdata: 0xa2646970667358221220da55690d403c5c855c98733c494071eeb47717cfaf108e6a583564e63a940d6364736f6c634300081a0033\n}\n",
				"bytecode": {
					"linkReferences": {},
					"object": "6080604052348015600e575f80fd5b506101c58061001c5f395ff3fe608060405234801561000f575f80fd5b5060043610610029575f3560e01c8063e6bcbc651461002d575b5f80fd5b6100476004803603810190610042919061013c565b61005d565b6040516100549190610176565b60405180910390f35b5f6fffffffffffffffffffffffffffffffff821160071b82811c925080821791505067ffffffffffffffff821160061b82811c925080821791505063ffffffff821160051b82811c925080821791505061ffff821160041b82811c925080821791505060ff821160031b82811c9250808217915050600f821160021b82811c92508082179150506003821160011b82811c925080821791505060018211808217915050919050565b5f80fd5b5f819050919050565b61011b81610109565b8114610125575f80fd5b50565b5f8135905061013681610112565b92915050565b5f6020828403121561015157610150610105565b5b5f61015e84828501610128565b91505092915050565b61017081610109565b82525050565b5f6020820190506101895f830184610167565b9291505056fea2646970667358221220da55690d403c5c855c98733c494071eeb47717cfaf108e6a583564e63a940d6364736f6c634300081a0033",
					"opcodes": "PUSH1 0x80 PUSH1 0x40 MSTORE CALLVALUE DUP1 ISZERO PUSH1 0xE JUMPI PUSH0 DUP1 REVERT JUMPDEST POP PUSH2 0x1C5 DUP1 PUSH2 0x1C PUSH0 CODECOPY PUSH0 RETURN INVALID PUSH1 0x80 PUSH1 0x40 MSTORE CALLVALUE DUP1 ISZERO PUSH2 0xF JUMPI PUSH0 DUP1 REVERT JUMPDEST POP PUSH1 0x4 CALLDATASIZE LT PUSH2 0x29 JUMPI PUSH0 CALLDATALOAD PUSH1 0xE0 SHR DUP1 PUSH4 0xE6BCBC65 EQ PUSH2 0x2D JUMPI JUMPDEST PUSH0 DUP1 REVERT JUMPDEST PUSH2 0x47 PUSH1 0x4 DUP1 CALLDATASIZE SUB DUP2 ADD SWAP1 PUSH2 0x42 SWAP2 SWAP1 PUSH2 0x13C JUMP JUMPDEST PUSH2 0x5D JUMP JUMPDEST PUSH1 0x40 MLOAD PUSH2 0x54 SWAP2 SWAP1 PUSH2 0x176 JUMP JUMPDEST PUSH1 0x40 MLOAD DUP1 SWAP2 SUB SWAP1 RETURN JUMPDEST PUSH0 PUSH16 0xFFFFFFFFFFFFFFFFFFFFFFFFFFFFFFFF DUP3 GT PUSH1 0x7 SHL DUP3 DUP2 SHR SWAP3 POP DUP1 DUP3 OR SWAP2 POP POP PUSH8 0xFFFFFFFFFFFFFFFF DUP3 GT PUSH1 0x6 SHL DUP3 DUP2 SHR SWAP3 POP DUP1 DUP3 OR SWAP2 POP POP PUSH4 0xFFFFFFFF DUP3 GT PUSH1 0x5 SHL DUP3 DUP2 SHR SWAP3 POP DUP1 DUP3 OR SWAP2 POP POP PUSH2 0xFFFF DUP3 GT PUSH1 0x4 SHL DUP3 DUP2 SHR SWAP3 POP DUP1 DUP3 OR SWAP2 POP POP PUSH1 0xFF DUP3 GT PUSH1 0x3 SHL DUP3 DUP2 SHR SWAP3 POP DUP1 DUP3 OR SWAP2 POP POP PUSH1 0xF DUP3 GT PUSH1 0x2 SHL DUP3 DUP2 SHR SWAP3 POP DUP1 DUP3 OR SWAP2 POP POP PUSH1 0x3 DUP3 GT PUSH1 0x1 SHL DUP3 DUP2 SHR SWAP3 POP DUP1 DUP3 OR SWAP2 POP POP PUSH1 0x1 DUP3 GT DUP1 DUP3 OR SWAP2 POP POP SWAP2 SWAP1 POP JUMP JUMPDEST PUSH0 DUP1 REVERT JUMPDEST PUSH0 DUP2 SWAP1 POP SWAP2 SWAP1 POP JUMP JUMPDEST PUSH2 0x11B DUP2 PUSH2 0x109 JUMP JUMPDEST DUP2 EQ PUSH2 0x125 JUMPI PUSH0 DUP1 REVERT JUMPDEST POP JUMP JUMPDEST PUSH0 DUP2 CALLDATALOAD SWAP1 POP PUSH2 0x136 DUP2 PUSH2 0x112 JUMP JUMPDEST SWAP3 SWAP2 POP POP JUMP JUMPDEST PUSH0 PUSH1 0x20 DUP3 DUP5 SUB SLT ISZERO PUSH2 0x151 JUMPI PUSH2 0x150 PUSH2 0x105 JUMP JUMPDEST JUMPDEST PUSH0 PUSH2 0x15E DUP5 DUP3 DUP6 ADD PUSH2 0x128 JUMP JUMPDEST SWAP2 POP POP SWAP3 SWAP2 POP POP JUMP JUMPDEST PUSH2 0x170 DUP2 PUSH2 0x109 JUMP JUMPDEST DUP3 MSTORE POP POP JUMP JUMPDEST PUSH0 PUSH1 0x20 DUP3 ADD SWAP1 POP PUSH2 0x189 PUSH0 DUP4 ADD DUP5 PUSH2 0x167 JUMP JUMPDEST SWAP3 SWAP2 POP POP JUMP INVALID LOG2 PUSH5 0x6970667358 0x22 SLT KECCAK256 0xDA SSTORE PUSH10 0xD403C5C855C98733C49 BLOCKHASH PUSH18 0xEEB47717CFAF108E6A583564E63A940D6364 PUSH20 0x6F6C634300081A00330000000000000000000000 "
				},
				"gasEstimates": {
					"creation": {
						"codeDepositCost": "90600",
						"executionCost": "139",
						"totalCost": "90739"
					},
					"external": {
						"mostSignificantBit(uint256)": "infinite"
					}
				},
				"methodIdentifiers": {
					"mostSignificantBit(uint256)": "e6bcbc65"
				}
			},
			"storageLayout": {
				"storage": [],
				"types": null
			},
			"userdoc": {
				"kind": "user",
				"methods": {},
				"version": 1
			}
		}
	}
}