{
	"BitwiseOperators.sol": {
		"MostSignificantBitFunction": {
			"abi": [
				{
					"inputs": [
						{
							"internalType": "uint256",
							"name": "x",
							"type": "uint256"
						}
					],
					"name": "mostSignificantBit",
					"outputs": [
						{
							"internalType": "uint256",
							"name": "msb",
							"type": "uint256"
						}
					],
					"stateMutability": "pure",
					"type": "function"
				}
			],
			"devdoc": {
				"kind": "dev",
				"methods": {},
				"version": 1
			},
			"evm": {
				"assembly": "    /* \"BitwiseOperators.sol\":3088:4173  contract MostSignificantBitFunction {... */\n  mstore(0x40, 0x80)\n  callvalue\n  dup1\n  iszero\n  tag_1\n  jumpi\n  0x00\n  dup1\n  revert\ntag_1:\n  pop\n  dataSize(sub_0)\n  dup1\n  dataOffset(sub_0)\n  0x00\n  codecopy\n  0x00\n  return\nstop\n\nsub_0: assembly {\n        /* \"BitwiseOperators.sol\":3088:4173  contract MostSignificantBitFunction {... */\n      mstore(0x40, 0x80)\n      callvalue\n      dup1\n      iszero\n      tag_1\n      jumpi\n      0x00\n      dup1\n      revert\n    tag_1:\n      pop\n      jumpi(tag_2, lt(calldatasize, 0x04))\n      shr(0xe0, calldataload(0x00))\n      dup1\n      0xe6bcbc65\n      eq\n      tag_3\n      jumpi\n    tag_2:\n      0x00\n      dup1\n      revert\n        /* \"BitwiseOperators.sol\":3185:4170  function mostSignificantBit(uint256 x)... */\n    tag_3:\n      tag_4\n      0x04\n      dup1\n      calldatasize\n      sub\n      dup2\n      add\n      swap1\n      tag_5\n      swap2\n      swap1\n      tag_6\n      jump\t// in\n    tag_5:\n      tag_7\n      jump\t// in\n    tag_4:\n      mload(0x40)\n      tag_8\n      swap2\n      swap1\n      tag_9\n      jump\t// in\n    tag_8:\n      mload(0x40)\n      dup1\n      swap2\n      sub\n      swap1\n      return\n    tag_7:\n        /* \"BitwiseOperators.sol\":3274:3285  uint256 msb */\n      0x00\n        /* \"BitwiseOperators.sol\":3338:3373  0x100000000000000000000000000000000 */\n      0x0100000000000000000000000000000000\n        /* \"BitwiseOperators.sol\":3333:3334  x */\n      dup3\n        /* \"BitwiseOperators.sol\":3333:3373  x >= 0x100000000000000000000000000000000 */\n      lt\n        /* \"BitwiseOperators.sol\":3329:3436  if (x >= 0x100000000000000000000000000000000) {... */\n      tag_11\n      jumpi\n        /* \"BitwiseOperators.sol\":3396:3399  128 */\n      0x80\n        /* \"BitwiseOperators.sol\":3390:3399  x >>= 128 */\n      dup3\n      swap1\n      shr\n      swap2\n      pop\n        /* \"BitwiseOperators.sol\":3421:3424  128 */\n      0x80\n        /* \"BitwiseOperators.sol\":3414:3424  msb += 128 */\n      dup2\n      tag_12\n      swap2\n      swap1\n      tag_13\n      jump\t// in\n    tag_12:\n      swap1\n      pop\n        /* \"BitwiseOperators.sol\":3329:3436  if (x >= 0x100000000000000000000000000000000) {... */\n    tag_11:\n        /* \"BitwiseOperators.sol\":3480:3499  0x10000000000000000 */\n      0x010000000000000000\n        /* \"BitwiseOperators.sol\":3475:3476  x */\n      dup3\n        /* \"BitwiseOperators.sol\":3475:3499  x >= 0x10000000000000000 */\n      lt\n        /* \"BitwiseOperators.sol\":3471:3560  if (x >= 0x10000000000000000) {... */\n      tag_14\n      jumpi\n        /* \"BitwiseOperators.sol\":3522:3524  64 */\n      0x40\n        /* \"BitwiseOperators.sol\":3516:3524  x >>= 64 */\n      dup3\n      swap1\n      shr\n      swap2\n      pop\n        /* \"BitwiseOperators.sol\":3546:3548  64 */\n      0x40\n        /* \"BitwiseOperators.sol\":3539:3548  msb += 64 */\n      dup2\n      tag_15\n      swap2\n      swap1\n      tag_13\n      jump\t// in\n    tag_15:\n      swap1\n      pop\n        /* \"BitwiseOperators.sol\":3471:3560  if (x >= 0x10000000000000000) {... */\n    tag_14:\n        /* \"BitwiseOperators.sol\":3604:3615  0x100000000 */\n      0x0100000000\n        /* \"BitwiseOperators.sol\":3599:3600  x */\n      dup3\n        /* \"BitwiseOperators.sol\":3599:3615  x >= 0x100000000 */\n      lt\n        /* \"BitwiseOperators.sol\":3595:3676  if (x >= 0x100000000) {... */\n      tag_16\n      jumpi\n        /* \"BitwiseOperators.sol\":3638:3640  32 */\n      0x20\n        /* \"BitwiseOperators.sol\":3632:3640  x >>= 32 */\n      dup3\n      swap1\n      shr\n      swap2\n      pop\n        /* \"BitwiseOperators.sol\":3662:3664  32 */\n      0x20\n        /* \"BitwiseOperators.sol\":3655:3664  msb += 32 */\n      dup2\n      tag_17\n      swap2\n      swap1\n      tag_13\n      jump\t// in\n    tag_17:\n      swap1\n      pop\n        /* \"BitwiseOperators.sol\":3595:3676  if (x >= 0x100000000) {... */\n    tag_16:\n        /* \"BitwiseOperators.sol\":3720:3727  0x10000 */\n      0x010000\n        /* \"BitwiseOperators.sol\":3715:3716  x */\n      dup3\n        /* \"BitwiseOperators.sol\":3715:3727  x >= 0x10000 */\n      lt\n        /* \"BitwiseOperators.sol\":3711:3788  if (x >= 0x10000) {... */\n      tag_18\n      jumpi\n        /* \"BitwiseOperators.sol\":3750:3752  16 */\n      0x10\n        /* \"BitwiseOperators.sol\":3744:3752  x >>= 16 */\n      dup3\n      swap1\n      shr\n      swap2\n      pop\n        /* \"BitwiseOperators.sol\":3774:3776  16 */\n      0x10\n        /* \"BitwiseOperators.sol\":3767:3776  msb += 16 */\n      dup2\n      tag_19\n      swap2\n      swap1\n      tag_13\n      jump\t// in\n    tag_19:\n      swap1\n      pop\n        /* \"BitwiseOperators.sol\":3711:3788  if (x >= 0x10000) {... */\n    tag_18:\n        /* \"BitwiseOperators.sol\":3831:3836  0x100 */\n      0x0100\n        /* \"BitwiseOperators.sol\":3826:3827  x */\n      dup3\n        /* \"BitwiseOperators.sol\":3826:3836  x >= 0x100 */\n      lt\n        /* \"BitwiseOperators.sol\":3822:3895  if (x >= 0x100) {... */\n      tag_20\n      jumpi\n        /* \"BitwiseOperators.sol\":3859:3860  8 */\n      0x08\n        /* \"BitwiseOperators.sol\":3853:3860  x >>= 8 */\n      dup3\n      swap1\n      shr\n      swap2\n      pop\n        /* \"BitwiseOperators.sol\":3882:3883  8 */\n      0x08\n        /* \"BitwiseOperators.sol\":3875:3883  msb += 8 */\n      dup2\n      tag_21\n      swap2\n      swap1\n      tag_13\n      jump\t// in\n    tag_21:\n      swap1\n      pop\n        /* \"BitwiseOperators.sol\":3822:3895  if (x >= 0x100) {... */\n    tag_20:\n        /* \"BitwiseOperators.sol\":3938:3942  0x10 */\n      0x10\n        /* \"BitwiseOperators.sol\":3933:3934  x */\n      dup3\n        /* \"BitwiseOperators.sol\":3933:3942  x >= 0x10 */\n      lt\n        /* \"BitwiseOperators.sol\":3929:4001  if (x >= 0x10) {... */\n      tag_22\n      jumpi\n        /* \"BitwiseOperators.sol\":3965:3966  4 */\n      0x04\n        /* \"BitwiseOperators.sol\":3959:3966  x >>= 4 */\n      dup3\n      swap1\n      shr\n      swap2\n      pop\n        /* \"BitwiseOperators.sol\":3988:3989  4 */\n      0x04\n        /* \"BitwiseOperators.sol\":3981:3989  msb += 4 */\n      dup2\n      tag_23\n      swap2\n      swap1\n      tag_13\n      jump\t// in\n    tag_23:\n      swap1\n      pop\n        /* \"BitwiseOperators.sol\":3929:4001  if (x >= 0x10) {... */\n    tag_22:\n        /* \"BitwiseOperators.sol\":4044:4047  0x4 */\n      0x04\n        /* \"BitwiseOperators.sol\":4039:4040  x */\n      dup3\n        /* \"BitwiseOperators.sol\":4039:4047  x >= 0x4 */\n      lt\n        /* \"BitwiseOperators.sol\":4035:4106  if (x >= 0x4) {... */\n      tag_24\n      jumpi\n        /* \"BitwiseOperators.sol\":4070:4071  2 */\n      0x02\n        /* \"BitwiseOperators.sol\":4064:4071  x >>= 2 */\n      dup3\n      swap1\n      shr\n      swap2\n      pop\n        /* \"BitwiseOperators.sol\":4093:4094  2 */\n      0x02\n        /* \"BitwiseOperators.sol\":4086:4094  msb += 2 */\n      dup2\n      tag_25\n      swap2\n      swap1\n      tag_13\n      jump\t// in\n    tag_25:\n      swap1\n      pop\n        /* \"BitwiseOperators.sol\":4035:4106  if (x >= 0x4) {... */\n    tag_24:\n        /* \"BitwiseOperators.sol\":4149:4152  0x2 */\n      0x02\n        /* \"BitwiseOperators.sol\":4144:4145  x */\n      dup3\n        /* \"BitwiseOperators.sol\":4144:4152  x >= 0x2 */\n      lt\n        /* \"BitwiseOperators.sol\":4140:4162  if (x >= 0x2) msb += 1 */\n      tag_26\n      jumpi\n        /* \"BitwiseOperators.sol\":4161:4162  1 */\n      0x01\n        /* \"BitwiseOperators.sol\":4154:4162  msb += 1 */\n      dup2\n      tag_27\n      swap2\n      swap1\n      tag_13\n      jump\t// in\n    tag_27:\n      swap1\n      pop\n        /* \"BitwiseOperators.sol\":4140:4162  if (x >= 0x2) msb += 1 */\n    tag_26:\n        /* \"BitwiseOperators.sol\":3185:4170  function mostSignificantBit(uint256 x)... */\n      swap2\n      swap1\n      pop\n      jump\t// out\n        /* \"#utility.yul\":88:205   */\n    tag_29:\n        /* \"#utility.yul\":197:198   */\n      0x00\n        /* \"#utility.yul\":194:195   */\n      dup1\n        /* \"#utility.yul\":187:199   */\n      revert\n        /* \"#utility.yul\":334:411   */\n    tag_31:\n        /* \"#utility.yul\":371:378   */\n      0x00\n        /* \"#utility.yul\":400:405   */\n      dup2\n        /* \"#utility.yul\":389:405   */\n      swap1\n      pop\n        /* \"#utility.yul\":334:411   */\n      swap2\n      swap1\n      pop\n      jump\t// out\n        /* \"#utility.yul\":417:539   */\n    tag_32:\n        /* \"#utility.yul\":490:514   */\n      tag_42\n        /* \"#utility.yul\":508:513   */\n      dup2\n        /* \"#utility.yul\":490:514   */\n      tag_31\n      jump\t// in\n    tag_42:\n        /* \"#utility.yul\":483:488   */\n      dup2\n        /* \"#utility.yul\":480:515   */\n      eq\n        /* \"#utility.yul\":470:533   */\n      tag_43\n      jumpi\n        /* \"#utility.yul\":529:530   */\n      0x00\n        /* \"#utility.yul\":526:527   */\n      dup1\n        /* \"#utility.yul\":519:531   */\n      revert\n        /* \"#utility.yul\":470:533   */\n    tag_43:\n        /* \"#utility.yul\":417:539   */\n      pop\n      jump\t// out\n        /* \"#utility.yul\":545:684   */\n    tag_33:\n        /* \"#utility.yul\":591:596   */\n      0x00\n        /* \"#utility.yul\":629:635   */\n      dup2\n        /* \"#utility.yul\":616:636   */\n      calldataload\n        /* \"#utility.yul\":607:636   */\n      swap1\n      pop\n        /* \"#utility.yul\":645:678   */\n      tag_45\n        /* \"#utility.yul\":672:677   */\n      dup2\n        /* \"#utility.yul\":645:678   */\n      tag_32\n      jump\t// in\n    tag_45:\n        /* \"#utility.yul\":545:684   */\n      swap3\n      swap2\n      pop\n      pop\n      jump\t// out\n        /* \"#utility.yul\":690:1019   */\n    tag_6:\n        /* \"#utility.yul\":749:755   */\n      0x00\n        /* \"#utility.yul\":798:800   */\n      0x20\n        /* \"#utility.yul\":786:795   */\n      dup3\n        /* \"#utility.yul\":777:784   */\n      dup5\n        /* \"#utility.yul\":773:796   */\n      sub\n        /* \"#utility.yul\":769:801   */\n      slt\n        /* \"#utility.yul\":766:885   */\n      iszero\n      tag_47\n      jumpi\n        /* \"#utility.yul\":804:883   */\n      tag_48\n      tag_29\n      jump\t// in\n    tag_48:\n        /* \"#utility.yul\":766:885   */\n    tag_47:\n        /* \"#utility.yul\":924:925   */\n      0x00\n        /* \"#utility.yul\":949:1002   */\n      tag_49\n        /* \"#utility.yul\":994:1001   */\n      dup5\n        /* \"#utility.yul\":985:991   */\n      dup3\n        /* \"#utility.yul\":974:983   */\n      dup6\n        /* \"#utility.yul\":970:992   */\n      add\n        /* \"#utility.yul\":949:1002   */\n      tag_33\n      jump\t// in\n    tag_49:\n        /* \"#utility.yul\":939:1002   */\n      swap2\n      pop\n        /* \"#utility.yul\":895:1012   */\n      pop\n        /* \"#utility.yul\":690:1019   */\n      swap3\n      swap2\n      pop\n      pop\n      jump\t// out\n        /* \"#utility.yul\":1025:1143   */\n    tag_34:\n        /* \"#utility.yul\":1112:1136   */\n      tag_51\n        /* \"#utility.yul\":1130:1135   */\n      dup2\n        /* \"#utility.yul\":1112:1136   */\n      tag_31\n      jump\t// in\n    tag_51:\n        /* \"#utility.yul\":1107:1110   */\n      dup3\n        /* \"#utility.yul\":1100:1137   */\n      mstore\n        /* \"#utility.yul\":1025:1143   */\n      pop\n      pop\n      jump\t// out\n        /* \"#utility.yul\":1149:1371   */\n    tag_9:\n        /* \"#utility.yul\":1242:1246   */\n      0x00\n        /* \"#utility.yul\":1280:1282   */\n      0x20\n        /* \"#utility.yul\":1269:1278   */\n      dup3\n        /* \"#utility.yul\":1265:1283   */\n      add\n        /* \"#utility.yul\":1257:1283   */\n      swap1\n      pop\n        /* \"#utility.yul\":1293:1364   */\n      tag_53\n        /* \"#utility.yul\":1361:1362   */\n      0x00\n        /* \"#utility.yul\":1350:1359   */\n      dup4\n        /* \"#utility.yul\":1346:1363   */\n      add\n        /* \"#utility.yul\":1337:1343   */\n      dup5\n        /* \"#utility.yul\":1293:1364   */\n      tag_34\n      jump\t// in\n    tag_53:\n        /* \"#utility.yul\":1149:1371   */\n      swap3\n      swap2\n      pop\n      pop\n      jump\t// out\n        /* \"#utility.yul\":1377:1557   */\n    tag_35:\n        /* \"#utility.yul\":1425:1502   */\n      0x4e487b7100000000000000000000000000000000000000000000000000000000\n        /* \"#utility.yul\":1422:1423   */\n      0x00\n        /* \"#utility.yul\":1415:1503   */\n      mstore\n        /* \"#utility.yul\":1522:1526   */\n      0x11\n        /* \"#utility.yul\":1519:1520   */\n      0x04\n        /* \"#utility.yul\":1512:1527   */\n      mstore\n        /* \"#utility.yul\":1546:1550   */\n      0x24\n        /* \"#utility.yul\":1543:1544   */\n      0x00\n        /* \"#utility.yul\":1536:1551   */\n      revert\n        /* \"#utility.yul\":1563:1754   */\n    tag_13:\n        /* \"#utility.yul\":1603:1606   */\n      0x00\n        /* \"#utility.yul\":1622:1642   */\n      tag_56\n        /* \"#utility.yul\":1640:1641   */\n      dup3\n        /* \"#utility.yul\":1622:1642   */\n      tag_31\n      jump\t// in\n    tag_56:\n        /* \"#utility.yul\":1617:1642   */\n      swap2\n      pop\n        /* \"#utility.yul\":1656:1676   */\n      tag_57\n        /* \"#utility.yul\":1674:1675   */\n      dup4\n        /* \"#utility.yul\":1656:1676   */\n      tag_31\n      jump\t// in\n    tag_57:\n        /* \"#utility.yul\":1651:1676   */\n      swap3\n      pop\n        /* \"#utility.yul\":1699:1700   */\n      dup3\n        /* \"#utility.yul\":1696:1697   */\n      dup3\n        /* \"#utility.yul\":1692:1701   */\n      add\n        /* \"#utility.yul\":1685:1701   */\n      swap1\n      pop\n        /* \"#utility.yul\":1720:1723   */\n      dup1\n        /* \"#utility.yul\":1717:1718   */\n      dup3\n        /* \"#utility.yul\":1714:1724   */\n      gt\n        /* \"#utility.yul\":1711:1747   */\n      iszero\n      tag_58\n      jumpi\n        /* \"#utility.yul\":1727:1745   */\n      tag_59\n      tag_35\n      jump\t// in\n    tag_59:\n        /* \"#utility.yul\":1711:1747   */\n    tag_58:\n        /* \"#utility.yul\":1563:1754   */\n      swap3\n      swap2\n      pop\n      pop\n      jump\t// out\n\n    auxdata: 0xa2646970667358221220672ed8e30cf8cfc29bb7fa86a255826fa29327abfb34a0aac21555515b9c012b64736f6c634300081a0033\n}\n",
				"bytecode": {
					"linkReferences": {},
					"object": "6080604052348015600e575f80fd5b506102938061001c5f395ff3fe608060405234801561000f575f80fd5b5060043610610029575f3560e01c8063e6bcbc651461002d575b5f80fd5b610047600480360381019061004291906101aa565b61005d565b60405161005491906101e4565b60405180910390f35b5f700100000000000000000000000000000000821061008d57608082901c915060808161008a919061022a565b90505b6801000000000000000082106100b457604082901c91506040816100b1919061022a565b90505b64010000000082106100d757602082901c91506020816100d4919061022a565b90505b6201000082106100f857601082901c91506010816100f5919061022a565b90505b610100821061011857600882901c9150600881610115919061022a565b90505b6010821061013757600482901c9150600481610134919061022a565b90505b6004821061015657600282901c9150600281610153919061022a565b90505b6002821061016e5760018161016b919061022a565b90505b919050565b5f80fd5b5f819050919050565b61018981610177565b8114610193575f80fd5b50565b5f813590506101a481610180565b92915050565b5f602082840312156101bf576101be610173565b5b5f6101cc84828501610196565b91505092915050565b6101de81610177565b82525050565b5f6020820190506101f75f8301846101d5565b92915050565b7f4e487b71000000000000000000000000000000000000000000000000000000005f52601160045260245ffd5b5f61023482610177565b915061023f83610177565b9250828201905080821115610257576102566101fd565b5b9291505056fea2646970667358221220672ed8e30cf8cfc29bb7fa86a255826fa29327abfb34a0aac21555515b9c012b64736f6c634300081a0033",
					"opcodes": "PUSH1 0x80 PUSH1 0x40 MSTORE CALLVALUE DUP1 ISZERO PUSH1 0xE JUMPI PUSH0 DUP1 REVERT JUMPDEST POP PUSH2 0x293 DUP1 PUSH2 0x1C PUSH0 CODECOPY PUSH0 RETURN INVALID PUSH1 0x80 PUSH1 0x40 MSTORE CALLVALUE DUP1 ISZERO PUSH2 0xF JUMPI PUSH0 DUP1 REVERT JUMPDEST POP PUSH1 0x4 CALLDATASIZE LT PUSH2 0x29 JUMPI PUSH0 CALLDATALOAD PUSH1 0xE0 SHR DUP1 PUSH4 0xE6BCBC65 EQ PUSH2 0x2D JUMPI JUMPDEST PUSH0 DUP1 REVERT JUMPDEST PUSH2 0x47 PUSH1 0x4 DUP1 CALLDATASIZE SUB DUP2 ADD SWAP1 PUSH2 0x42 SWAP2 SWAP1 PUSH2 0x1AA JUMP JUMPDEST PUSH2 0x5D JUMP JUMPDEST PUSH1 0x40 MLOAD PUSH2 0x54 SWAP2 SWAP1 PUSH2 0x1E4 JUMP JUMPDEST PUSH1 0x40 MLOAD DUP1 SWAP2 SUB SWAP1 RETURN JUMPDEST PUSH0 PUSH17 0x100000000000000000000000000000000 DUP3 LT PUSH2 0x8D JUMPI PUSH1 0x80 DUP3 SWAP1 SHR SWAP2 POP PUSH1 0x80 DUP2 PUSH2 0x8A SWAP2 SWAP1 PUSH2 0x22A JUMP JUMPDEST SWAP1 POP JUMPDEST PUSH9 0x10000000000000000 DUP3 LT PUSH2 0xB4 JUMPI PUSH1 0x40 DUP3 SWAP1 SHR SWAP2 POP PUSH1 0x40 DUP2 PUSH2 0xB1 SWAP2 SWAP1 PUSH2 0x22A JUMP JUMPDEST SWAP1 POP JUMPDEST PUSH5 0x100000000 DUP3 LT PUSH2 0xD7 JUMPI PUSH1 0x20 DUP3 SWAP1 SHR SWAP2 POP PUSH1 0x20 DUP2 PUSH2 0xD4 SWAP2 SWAP1 PUSH2 0x22A JUMP JUMPDEST SWAP1 POP JUMPDEST PUSH3 0x10000 DUP3 LT PUSH2 0xF8 JUMPI PUSH1 0x10 DUP3 SWAP1 SHR SWAP2 POP PUSH1 0x10 DUP2 PUSH2 0xF5 SWAP2 SWAP1 PUSH2 0x22A JUMP JUMPDEST SWAP1 POP JUMPDEST PUSH2 0x100 DUP3 LT PUSH2 0x118 JUMPI PUSH1 0x8 DUP3 SWAP1 SHR SWAP2 POP PUSH1 0x8 DUP2 PUSH2 0x115 SWAP2 SWAP1 PUSH2 0x22A JUMP JUMPDEST SWAP1 POP JUMPDEST PUSH1 0x10 DUP3 LT PUSH2 0x137 JUMPI PUSH1 0x4 DUP3 SWAP1 SHR SWAP2 POP PUSH1 0x4 DUP2 PUSH2 0x134 SWAP2 SWAP1 PUSH2 0x22A JUMP JUMPDEST SWAP1 POP JUMPDEST PUSH1 0x4 DUP3 LT PUSH2 0x156 JUMPI PUSH1 0x2 DUP3 SWAP1 SHR SWAP2 POP PUSH1 0x2 DUP2 PUSH2 0x153 SWAP2 SWAP1 PUSH2 0x22A JUMP JUMPDEST SWAP1 POP JUMPDEST PUSH1 0x2 DUP3 LT PUSH2 0x16E JUMPI PUSH1 0x1 DUP2 PUSH2 0x16B SWAP2 SWAP1 PUSH2 0x22A JUMP JUMPDEST SWAP1 POP JUMPDEST SWAP2 SWAP1 POP JUMP JUMPDEST PUSH0 DUP1 REVERT JUMPDEST PUSH0 DUP2 SWAP1 POP SWAP2 SWAP1 POP JUMP JUMPDEST PUSH2 0x189 DUP2 PUSH2 0x177 JUMP JUMPDEST DUP2 EQ PUSH2 0x193 JUMPI PUSH0 DUP1 REVERT JUMPDEST POP JUMP JUMPDEST PUSH0 DUP2 CALLDATALOAD SWAP1 POP PUSH2 0x1A4 DUP2 PUSH2 0x180 JUMP JUMPDEST SWAP3 SWAP2 POP POP JUMP JUMPDEST PUSH0 PUSH1 0x20 DUP3 DUP5 SUB SLT ISZERO PUSH2 0x1BF JUMPI PUSH2 0x1BE PUSH2 0x173 JUMP JUMPDEST JUMPDEST PUSH0 PUSH2 0x1CC DUP5 DUP3 DUP6 ADD PUSH2 0x196 JUMP JUMPDEST SWAP2 POP POP SWAP3 SWAP2 POP POP JUMP JUMPDEST PUSH2 0x1DE DUP2 PUSH2 0x177 JUMP JUMPDEST DUP3 MSTORE POP POP JUMP JUMPDEST PUSH0 PUSH1 0x20 DUP3 ADD SWAP1 POP PUSH2 0x1F7 PUSH0 DUP4 ADD DUP5 PUSH2 0x1D5 JUMP JUMPDEST SWAP3 SWAP2 POP POP JUMP JUMPDEST PUSH32 0x4E487B7100000000000000000000000000000000000000000000000000000000 PUSH0 MSTORE PUSH1 0x11 PUSH1 0x4 MSTORE PUSH1 0x24 PUSH0 REVERT JUMPDEST PUSH0 PUSH2 0x234 DUP3 PUSH2 0x177 JUMP JUMPDEST SWAP2 POP PUSH2 0x23F DUP4 PUSH2 0x177 JUMP JUMPDEST SWAP3 POP DUP3 DUP3 ADD SWAP1 POP DUP1 DUP3 GT ISZERO PUSH2 0x257 JUMPI PUSH2 0x256 PUSH2 0x1FD JUMP JUMPDEST JUMPDEST SWAP3 SWAP2 POP POP JUMP INVALID LOG2 PUSH5 0x6970667358 0x22 SLT KECCAK256 PUSH8 0x2ED8E30CF8CFC29B 0xB7 STATICCALL DUP7 LOG2 SSTORE DUP3 PUSH16 0xA29327ABFB34A0AAC21555515B9C012B PUSH5 0x736F6C6343 STOP ADDMOD BYTE STOP CALLER "
				},
				"gasEstimates": {
					"creation": {
						"codeDepositCost": "131800",
						"executionCost": "175",
						"totalCost": "131975"
					},
					"external": {
						"mostSignificantBit(uint256)": "infinite"
					}
				},
				"methodIdentifiers": {
					"mostSignificantBit(uint256)": "e6bcbc65"
				}
			},
			"storageLayout": {
				"storage": [],
				"types": null
			},
			"userdoc": {
				"kind": "user",
				"methods": {},
				"version": 1
			}
		}
	}
}