{
	"EVMStorageLayout.sol": {
		"EVMStorageDynamicArrayStruct": {
			"abi": [
				{
					"inputs": [],
					"stateMutability": "nonpayable",
					"type": "constructor"
				},
				{
					"inputs": [
						{
							"internalType": "uint256",
							"name": "i",
							"type": "uint256"
						}
					],
					"name": "test_struct_arr",
					"outputs": [
						{
							"internalType": "uint256",
							"name": "x",
							"type": "uint256"
						},
						{
							"internalType": "uint128",
							"name": "y",
							"type": "uint128"
						},
						{
							"internalType": "uint128",
							"name": "z",
							"type": "uint128"
						},
						{
							"internalType": "uint256",
							"name": "len",
							"type": "uint256"
						}
					],
					"stateMutability": "view",
					"type": "function"
				}
			],
			"devdoc": {
				"kind": "dev",
				"methods": {},
				"version": 1
			},
			"evm": {
				"assembly": "    /* \"EVMStorageLayout.sol\":15142:16495  contract EVMStorageDynamicArrayStruct {... */\n  mstore(0x40, 0x80)\n    /* \"EVMStorageLayout.sol\":15440:15576  constructor() {... */\n  callvalue\n  dup1\n  iszero\n  tag_1\n  jumpi\n  0x00\n  dup1\n  revert\ntag_1:\n  pop\n    /* \"EVMStorageLayout.sol\":15465:15468  arr */\n  0x00\n    /* \"EVMStorageLayout.sol\":15474:15491  Point(11, 22, 33) */\n  mload(0x40)\n  dup1\n  0x60\n  add\n  0x40\n  mstore\n  dup1\n    /* \"EVMStorageLayout.sol\":15480:15482  11 */\n  0x0b\n    /* \"EVMStorageLayout.sol\":15474:15491  Point(11, 22, 33) */\n  dup2\n  mstore\n  0x20\n  add\n    /* \"EVMStorageLayout.sol\":15484:15486  22 */\n  0x16\n    /* \"EVMStorageLayout.sol\":15474:15491  Point(11, 22, 33) */\n  0xffffffffffffffffffffffffffffffff\n  and\n  dup2\n  mstore\n  0x20\n  add\n    /* \"EVMStorageLayout.sol\":15488:15490  33 */\n  0x21\n    /* \"EVMStorageLayout.sol\":15474:15491  Point(11, 22, 33) */\n  0xffffffffffffffffffffffffffffffff\n  and\n  dup2\n  mstore\n  pop\n    /* \"EVMStorageLayout.sol\":15465:15492  arr.push(Point(11, 22, 33)) */\n  swap1\n  dup1\n  0x01\n  dup2\n  sload\n  add\n  dup1\n  dup3\n  sstore\n  dup1\n  swap2\n  pop\n  pop\n  0x01\n  swap1\n  sub\n  swap1\n  0x00\n  mstore\n  keccak256(0x00, 0x20)\n  swap1\n  0x02\n  mul\n  add\n  0x00\n  swap1\n  swap2\n  swap1\n  swap2\n  swap1\n  swap2\n  pop\n  0x00\n  dup3\n  add\n  mload\n  dup2\n  0x00\n  add\n  sstore\n  0x20\n  dup3\n  add\n  mload\n  dup2\n  0x01\n  add\n  exp(0x0100, 0x00)\n  dup2\n  sload\n  dup2\n  0xffffffffffffffffffffffffffffffff\n  mul\n  not\n  and\n  swap1\n  dup4\n  0xffffffffffffffffffffffffffffffff\n  and\n  mul\n  or\n  swap1\n  sstore\n  pop\n  0x40\n  dup3\n  add\n  mload\n  dup2\n  0x01\n  add\n  exp(0x0100, 0x10)\n  dup2\n  sload\n  dup2\n  0xffffffffffffffffffffffffffffffff\n  mul\n  not\n  and\n  swap1\n  dup4\n  0xffffffffffffffffffffffffffffffff\n  and\n  mul\n  or\n  swap1\n  sstore\n  pop\n  pop\n  pop\n    /* \"EVMStorageLayout.sol\":15503:15506  arr */\n  0x00\n    /* \"EVMStorageLayout.sol\":15512:15529  Point(44, 55, 66) */\n  mload(0x40)\n  dup1\n  0x60\n  add\n  0x40\n  mstore\n  dup1\n    /* \"EVMStorageLayout.sol\":15518:15520  44 */\n  0x2c\n    /* \"EVMStorageLayout.sol\":15512:15529  Point(44, 55, 66) */\n  dup2\n  mstore\n  0x20\n  add\n    /* \"EVMStorageLayout.sol\":15522:15524  55 */\n  0x37\n    /* \"EVMStorageLayout.sol\":15512:15529  Point(44, 55, 66) */\n  0xffffffffffffffffffffffffffffffff\n  and\n  dup2\n  mstore\n  0x20\n  add\n    /* \"EVMStorageLayout.sol\":15526:15528  66 */\n  0x42\n    /* \"EVMStorageLayout.sol\":15512:15529  Point(44, 55, 66) */\n  0xffffffffffffffffffffffffffffffff\n  and\n  dup2\n  mstore\n  pop\n    /* \"EVMStorageLayout.sol\":15503:15530  arr.push(Point(44, 55, 66)) */\n  swap1\n  dup1\n  0x01\n  dup2\n  sload\n  add\n  dup1\n  dup3\n  sstore\n  dup1\n  swap2\n  pop\n  pop\n  0x01\n  swap1\n  sub\n  swap1\n  0x00\n  mstore\n  keccak256(0x00, 0x20)\n  swap1\n  0x02\n  mul\n  add\n  0x00\n  swap1\n  swap2\n  swap1\n  swap2\n  swap1\n  swap2\n  pop\n  0x00\n  dup3\n  add\n  mload\n  dup2\n  0x00\n  add\n  sstore\n  0x20\n  dup3\n  add\n  mload\n  dup2\n  0x01\n  add\n  exp(0x0100, 0x00)\n  dup2\n  sload\n  dup2\n  0xffffffffffffffffffffffffffffffff\n  mul\n  not\n  and\n  swap1\n  dup4\n  0xffffffffffffffffffffffffffffffff\n  and\n  mul\n  or\n  swap1\n  sstore\n  pop\n  0x40\n  dup3\n  add\n  mload\n  dup2\n  0x01\n  add\n  exp(0x0100, 0x10)\n  dup2\n  sload\n  dup2\n  0xffffffffffffffffffffffffffffffff\n  mul\n  not\n  and\n  swap1\n  dup4\n  0xffffffffffffffffffffffffffffffff\n  and\n  mul\n  or\n  swap1\n  sstore\n  pop\n  pop\n  pop\n    /* \"EVMStorageLayout.sol\":15541:15544  arr */\n  0x00\n    /* \"EVMStorageLayout.sol\":15550:15567  Point(77, 88, 99) */\n  mload(0x40)\n  dup1\n  0x60\n  add\n  0x40\n  mstore\n  dup1\n    /* \"EVMStorageLayout.sol\":15556:15558  77 */\n  0x4d\n    /* \"EVMStorageLayout.sol\":15550:15567  Point(77, 88, 99) */\n  dup2\n  mstore\n  0x20\n  add\n    /* \"EVMStorageLayout.sol\":15560:15562  88 */\n  0x58\n    /* \"EVMStorageLayout.sol\":15550:15567  Point(77, 88, 99) */\n  0xffffffffffffffffffffffffffffffff\n  and\n  dup2\n  mstore\n  0x20\n  add\n    /* \"EVMStorageLayout.sol\":15564:15566  99 */\n  0x63\n    /* \"EVMStorageLayout.sol\":15550:15567  Point(77, 88, 99) */\n  0xffffffffffffffffffffffffffffffff\n  and\n  dup2\n  mstore\n  pop\n    /* \"EVMStorageLayout.sol\":15541:15568  arr.push(Point(77, 88, 99)) */\n  swap1\n  dup1\n  0x01\n  dup2\n  sload\n  add\n  dup1\n  dup3\n  sstore\n  dup1\n  swap2\n  pop\n  pop\n  0x01\n  swap1\n  sub\n  swap1\n  0x00\n  mstore\n  keccak256(0x00, 0x20)\n  swap1\n  0x02\n  mul\n  add\n  0x00\n  swap1\n  swap2\n  swap1\n  swap2\n  swap1\n  swap2\n  pop\n  0x00\n  dup3\n  add\n  mload\n  dup2\n  0x00\n  add\n  sstore\n  0x20\n  dup3\n  add\n  mload\n  dup2\n  0x01\n  add\n  exp(0x0100, 0x00)\n  dup2\n  sload\n  dup2\n  0xffffffffffffffffffffffffffffffff\n  mul\n  not\n  and\n  swap1\n  dup4\n  0xffffffffffffffffffffffffffffffff\n  and\n  mul\n  or\n  swap1\n  sstore\n  pop\n  0x40\n  dup3\n  add\n  mload\n  dup2\n  0x01\n  add\n  exp(0x0100, 0x10)\n  dup2\n  sload\n  dup2\n  0xffffffffffffffffffffffffffffffff\n  mul\n  not\n  and\n  swap1\n  dup4\n  0xffffffffffffffffffffffffffffffff\n  and\n  mul\n  or\n  swap1\n  sstore\n  pop\n  pop\n  pop\n    /* \"EVMStorageLayout.sol\":15142:16495  contract EVMStorageDynamicArrayStruct {... */\n  dataSize(sub_0)\n  dup1\n  dataOffset(sub_0)\n  0x00\n  codecopy\n  0x00\n  return\nstop\n\nsub_0: assembly {\n        /* \"EVMStorageLayout.sol\":15142:16495  contract EVMStorageDynamicArrayStruct {... */\n      mstore(0x40, 0x80)\n      callvalue\n      dup1\n      iszero\n      tag_1\n      jumpi\n      0x00\n      dup1\n      revert\n    tag_1:\n      pop\n      jumpi(tag_2, lt(calldatasize, 0x04))\n      shr(0xe0, calldataload(0x00))\n      dup1\n      0x5e5be598\n      eq\n      tag_3\n      jumpi\n    tag_2:\n      0x00\n      dup1\n      revert\n        /* \"EVMStorageLayout.sol\":15584:16492  function test_struct_arr(uint256 i)... */\n    tag_3:\n      tag_4\n      0x04\n      dup1\n      calldatasize\n      sub\n      dup2\n      add\n      swap1\n      tag_5\n      swap2\n      swap1\n      tag_6\n      jump\t// in\n    tag_5:\n      tag_7\n      jump\t// in\n    tag_4:\n      mload(0x40)\n      tag_8\n      swap5\n      swap4\n      swap3\n      swap2\n      swap1\n      tag_9\n      jump\t// in\n    tag_8:\n      mload(0x40)\n      dup1\n      swap2\n      sub\n      swap1\n      return\n    tag_7:\n        /* \"EVMStorageLayout.sol\":15668:15677  uint256 x */\n      0x00\n        /* \"EVMStorageLayout.sol\":15679:15688  uint128 y */\n      dup1\n        /* \"EVMStorageLayout.sol\":15690:15699  uint128 z */\n      0x00\n        /* \"EVMStorageLayout.sol\":15701:15712  uint256 len */\n      dup1\n        /* \"EVMStorageLayout.sol\":15730:15742  uint256 slot */\n      0x00\n        /* \"EVMStorageLayout.sol\":15757:15770  bytes32 start */\n      dup1\n        /* \"EVMStorageLayout.sol\":15794:15798  slot */\n      dup2\n        /* \"EVMStorageLayout.sol\":15783:15799  abi.encode(slot) */\n      add(0x20, mload(0x40))\n      tag_11\n      swap2\n      swap1\n      tag_12\n      jump\t// in\n    tag_11:\n      mload(0x40)\n      0x20\n      dup2\n      dup4\n      sub\n      sub\n      dup2\n      mstore\n      swap1\n      0x40\n      mstore\n        /* \"EVMStorageLayout.sol\":15773:15800  keccak256(abi.encode(slot)) */\n      dup1\n      mload\n      swap1\n      0x20\n      add\n      keccak256\n        /* \"EVMStorageLayout.sol\":15757:15800  bytes32 start = keccak256(abi.encode(slot)) */\n      swap1\n      pop\n        /* \"EVMStorageLayout.sol\":15850:15854  slot */\n      dup2\n        /* \"EVMStorageLayout.sol\":15844:15855  sload(slot) */\n      sload\n        /* \"EVMStorageLayout.sol\":15837:15855  len := sload(slot) */\n      swap3\n      pop\n        /* \"EVMStorageLayout.sol\":16292:16293  2 */\n      0x02\n        /* \"EVMStorageLayout.sol\":16289:16290  i */\n      dup8\n        /* \"EVMStorageLayout.sol\":16285:16294  mul(i, 2) */\n      mul\n        /* \"EVMStorageLayout.sol\":16278:16283  start */\n      dup2\n        /* \"EVMStorageLayout.sol\":16274:16295  add(start, mul(i, 2)) */\n      add\n        /* \"EVMStorageLayout.sol\":16268:16296  sload(add(start, mul(i, 2))) */\n      sload\n        /* \"EVMStorageLayout.sol\":16263:16296  x := sload(add(start, mul(i, 2))) */\n      swap6\n      pop\n        /* \"EVMStorageLayout.sol\":16352:16353  1 */\n      0x01\n        /* \"EVMStorageLayout.sol\":16348:16349  2 */\n      0x02\n        /* \"EVMStorageLayout.sol\":16345:16346  i */\n      dup9\n        /* \"EVMStorageLayout.sol\":16341:16350  mul(i, 2) */\n      mul\n        /* \"EVMStorageLayout.sol\":16337:16354  add(mul(i, 2), 1) */\n      add\n        /* \"EVMStorageLayout.sol\":16330:16335  start */\n      dup2\n        /* \"EVMStorageLayout.sol\":16326:16355  add(start, add(mul(i, 2), 1)) */\n      add\n        /* \"EVMStorageLayout.sol\":16320:16356  sload(add(start, add(mul(i, 2), 1))) */\n      sload\n        /* \"EVMStorageLayout.sol\":16441:16443  zy */\n      dup1\n        /* \"EVMStorageLayout.sol\":16436:16443  y := zy */\n      swap6\n      pop\n        /* \"EVMStorageLayout.sol\":16471:16473  zy */\n      dup1\n        /* \"EVMStorageLayout.sol\":16466:16469  128 */\n      0x80\n        /* \"EVMStorageLayout.sol\":16462:16474  shr(128, zy) */\n      shr\n        /* \"EVMStorageLayout.sol\":16457:16474  z := shr(128, zy) */\n      swap5\n      pop\n        /* \"EVMStorageLayout.sol\":15822:16485  {... */\n      pop\n      pop\n      pop\n        /* \"EVMStorageLayout.sol\":15584:16492  function test_struct_arr(uint256 i)... */\n      swap2\n      swap4\n      pop\n      swap2\n      swap4\n      jump\t// out\n        /* \"#utility.yul\":88:205   */\n    tag_14:\n        /* \"#utility.yul\":197:198   */\n      0x00\n        /* \"#utility.yul\":194:195   */\n      dup1\n        /* \"#utility.yul\":187:199   */\n      revert\n        /* \"#utility.yul\":334:411   */\n    tag_16:\n        /* \"#utility.yul\":371:378   */\n      0x00\n        /* \"#utility.yul\":400:405   */\n      dup2\n        /* \"#utility.yul\":389:405   */\n      swap1\n      pop\n        /* \"#utility.yul\":334:411   */\n      swap2\n      swap1\n      pop\n      jump\t// out\n        /* \"#utility.yul\":417:539   */\n    tag_17:\n        /* \"#utility.yul\":490:514   */\n      tag_28\n        /* \"#utility.yul\":508:513   */\n      dup2\n        /* \"#utility.yul\":490:514   */\n      tag_16\n      jump\t// in\n    tag_28:\n        /* \"#utility.yul\":483:488   */\n      dup2\n        /* \"#utility.yul\":480:515   */\n      eq\n        /* \"#utility.yul\":470:533   */\n      tag_29\n      jumpi\n        /* \"#utility.yul\":529:530   */\n      0x00\n        /* \"#utility.yul\":526:527   */\n      dup1\n        /* \"#utility.yul\":519:531   */\n      revert\n        /* \"#utility.yul\":470:533   */\n    tag_29:\n        /* \"#utility.yul\":417:539   */\n      pop\n      jump\t// out\n        /* \"#utility.yul\":545:684   */\n    tag_18:\n        /* \"#utility.yul\":591:596   */\n      0x00\n        /* \"#utility.yul\":629:635   */\n      dup2\n        /* \"#utility.yul\":616:636   */\n      calldataload\n        /* \"#utility.yul\":607:636   */\n      swap1\n      pop\n        /* \"#utility.yul\":645:678   */\n      tag_31\n        /* \"#utility.yul\":672:677   */\n      dup2\n        /* \"#utility.yul\":645:678   */\n      tag_17\n      jump\t// in\n    tag_31:\n        /* \"#utility.yul\":545:684   */\n      swap3\n      swap2\n      pop\n      pop\n      jump\t// out\n        /* \"#utility.yul\":690:1019   */\n    tag_6:\n        /* \"#utility.yul\":749:755   */\n      0x00\n        /* \"#utility.yul\":798:800   */\n      0x20\n        /* \"#utility.yul\":786:795   */\n      dup3\n        /* \"#utility.yul\":777:784   */\n      dup5\n        /* \"#utility.yul\":773:796   */\n      sub\n        /* \"#utility.yul\":769:801   */\n      slt\n        /* \"#utility.yul\":766:885   */\n      iszero\n      tag_33\n      jumpi\n        /* \"#utility.yul\":804:883   */\n      tag_34\n      tag_14\n      jump\t// in\n    tag_34:\n        /* \"#utility.yul\":766:885   */\n    tag_33:\n        /* \"#utility.yul\":924:925   */\n      0x00\n        /* \"#utility.yul\":949:1002   */\n      tag_35\n        /* \"#utility.yul\":994:1001   */\n      dup5\n        /* \"#utility.yul\":985:991   */\n      dup3\n        /* \"#utility.yul\":974:983   */\n      dup6\n        /* \"#utility.yul\":970:992   */\n      add\n        /* \"#utility.yul\":949:1002   */\n      tag_18\n      jump\t// in\n    tag_35:\n        /* \"#utility.yul\":939:1002   */\n      swap2\n      pop\n        /* \"#utility.yul\":895:1012   */\n      pop\n        /* \"#utility.yul\":690:1019   */\n      swap3\n      swap2\n      pop\n      pop\n      jump\t// out\n        /* \"#utility.yul\":1025:1143   */\n    tag_19:\n        /* \"#utility.yul\":1112:1136   */\n      tag_37\n        /* \"#utility.yul\":1130:1135   */\n      dup2\n        /* \"#utility.yul\":1112:1136   */\n      tag_16\n      jump\t// in\n    tag_37:\n        /* \"#utility.yul\":1107:1110   */\n      dup3\n        /* \"#utility.yul\":1100:1137   */\n      mstore\n        /* \"#utility.yul\":1025:1143   */\n      pop\n      pop\n      jump\t// out\n        /* \"#utility.yul\":1149:1267   */\n    tag_20:\n        /* \"#utility.yul\":1186:1193   */\n      0x00\n        /* \"#utility.yul\":1226:1260   */\n      0xffffffffffffffffffffffffffffffff\n        /* \"#utility.yul\":1219:1224   */\n      dup3\n        /* \"#utility.yul\":1215:1261   */\n      and\n        /* \"#utility.yul\":1204:1261   */\n      swap1\n      pop\n        /* \"#utility.yul\":1149:1267   */\n      swap2\n      swap1\n      pop\n      jump\t// out\n        /* \"#utility.yul\":1273:1391   */\n    tag_21:\n        /* \"#utility.yul\":1360:1384   */\n      tag_40\n        /* \"#utility.yul\":1378:1383   */\n      dup2\n        /* \"#utility.yul\":1360:1384   */\n      tag_20\n      jump\t// in\n    tag_40:\n        /* \"#utility.yul\":1355:1358   */\n      dup3\n        /* \"#utility.yul\":1348:1385   */\n      mstore\n        /* \"#utility.yul\":1273:1391   */\n      pop\n      pop\n      jump\t// out\n        /* \"#utility.yul\":1397:1950   */\n    tag_9:\n        /* \"#utility.yul\":1574:1578   */\n      0x00\n        /* \"#utility.yul\":1612:1615   */\n      0x80\n        /* \"#utility.yul\":1601:1610   */\n      dup3\n        /* \"#utility.yul\":1597:1616   */\n      add\n        /* \"#utility.yul\":1589:1616   */\n      swap1\n      pop\n        /* \"#utility.yul\":1626:1697   */\n      tag_42\n        /* \"#utility.yul\":1694:1695   */\n      0x00\n        /* \"#utility.yul\":1683:1692   */\n      dup4\n        /* \"#utility.yul\":1679:1696   */\n      add\n        /* \"#utility.yul\":1670:1676   */\n      dup8\n        /* \"#utility.yul\":1626:1697   */\n      tag_19\n      jump\t// in\n    tag_42:\n        /* \"#utility.yul\":1707:1779   */\n      tag_43\n        /* \"#utility.yul\":1775:1777   */\n      0x20\n        /* \"#utility.yul\":1764:1773   */\n      dup4\n        /* \"#utility.yul\":1760:1778   */\n      add\n        /* \"#utility.yul\":1751:1757   */\n      dup7\n        /* \"#utility.yul\":1707:1779   */\n      tag_21\n      jump\t// in\n    tag_43:\n        /* \"#utility.yul\":1789:1861   */\n      tag_44\n        /* \"#utility.yul\":1857:1859   */\n      0x40\n        /* \"#utility.yul\":1846:1855   */\n      dup4\n        /* \"#utility.yul\":1842:1860   */\n      add\n        /* \"#utility.yul\":1833:1839   */\n      dup6\n        /* \"#utility.yul\":1789:1861   */\n      tag_21\n      jump\t// in\n    tag_44:\n        /* \"#utility.yul\":1871:1943   */\n      tag_45\n        /* \"#utility.yul\":1939:1941   */\n      0x60\n        /* \"#utility.yul\":1928:1937   */\n      dup4\n        /* \"#utility.yul\":1924:1942   */\n      add\n        /* \"#utility.yul\":1915:1921   */\n      dup5\n        /* \"#utility.yul\":1871:1943   */\n      tag_19\n      jump\t// in\n    tag_45:\n        /* \"#utility.yul\":1397:1950   */\n      swap6\n      swap5\n      pop\n      pop\n      pop\n      pop\n      pop\n      jump\t// out\n        /* \"#utility.yul\":1956:2178   */\n    tag_12:\n        /* \"#utility.yul\":2049:2053   */\n      0x00\n        /* \"#utility.yul\":2087:2089   */\n      0x20\n        /* \"#utility.yul\":2076:2085   */\n      dup3\n        /* \"#utility.yul\":2072:2090   */\n      add\n        /* \"#utility.yul\":2064:2090   */\n      swap1\n      pop\n        /* \"#utility.yul\":2100:2171   */\n      tag_47\n        /* \"#utility.yul\":2168:2169   */\n      0x00\n        /* \"#utility.yul\":2157:2166   */\n      dup4\n        /* \"#utility.yul\":2153:2170   */\n      add\n        /* \"#utility.yul\":2144:2150   */\n      dup5\n        /* \"#utility.yul\":2100:2171   */\n      tag_19\n      jump\t// in\n    tag_47:\n        /* \"#utility.yul\":1956:2178   */\n      swap3\n      swap2\n      pop\n      pop\n      jump\t// out\n\n    auxdata: 0xa26469706673582212201ab80fa7c7f6879459fd3f5dfe6bcff4f5951feb4d3b36a7c04051a40b869bfb64736f6c634300081a0033\n}\n",
				"bytecode": {
					"linkReferences": {},
					"object": "608060405234801561000f575f80fd5b505f6040518060600160405280600b815260200160166fffffffffffffffffffffffffffffffff16815260200160216fffffffffffffffffffffffffffffffff16815250908060018154018082558091505060019003905f5260205f2090600202015f909190919091505f820151815f01556020820151816001015f6101000a8154816fffffffffffffffffffffffffffffffff02191690836fffffffffffffffffffffffffffffffff16021790555060408201518160010160106101000a8154816fffffffffffffffffffffffffffffffff02191690836fffffffffffffffffffffffffffffffff16021790555050505f6040518060600160405280602c815260200160376fffffffffffffffffffffffffffffffff16815260200160426fffffffffffffffffffffffffffffffff16815250908060018154018082558091505060019003905f5260205f2090600202015f909190919091505f820151815f01556020820151816001015f6101000a8154816fffffffffffffffffffffffffffffffff02191690836fffffffffffffffffffffffffffffffff16021790555060408201518160010160106101000a8154816fffffffffffffffffffffffffffffffff02191690836fffffffffffffffffffffffffffffffff16021790555050505f6040518060600160405280604d815260200160586fffffffffffffffffffffffffffffffff16815260200160636fffffffffffffffffffffffffffffffff16815250908060018154018082558091505060019003905f5260205f2090600202015f909190919091505f820151815f01556020820151816001015f6101000a8154816fffffffffffffffffffffffffffffffff02191690836fffffffffffffffffffffffffffffffff16021790555060408201518160010160106101000a8154816fffffffffffffffffffffffffffffffff02191690836fffffffffffffffffffffffffffffffff16021790555050506101e6806102ed5f395ff3fe608060405234801561000f575f80fd5b5060043610610029575f3560e01c80635e5be5981461002d575b5f80fd5b610047600480360381019061004291906100f0565b610060565b6040516100579493929190610154565b60405180910390f35b5f805f805f80816040516020016100779190610197565b60405160208183030381529060405280519060200120905081549250600287028101549550600160028802018101548095508060801c94505050509193509193565b5f80fd5b5f819050919050565b6100cf816100bd565b81146100d9575f80fd5b50565b5f813590506100ea816100c6565b92915050565b5f60208284031215610105576101046100b9565b5b5f610112848285016100dc565b91505092915050565b610124816100bd565b82525050565b5f6fffffffffffffffffffffffffffffffff82169050919050565b61014e8161012a565b82525050565b5f6080820190506101675f83018761011b565b6101746020830186610145565b6101816040830185610145565b61018e606083018461011b565b95945050505050565b5f6020820190506101aa5f83018461011b565b9291505056fea26469706673582212201ab80fa7c7f6879459fd3f5dfe6bcff4f5951feb4d3b36a7c04051a40b869bfb64736f6c634300081a0033",
					"opcodes": "PUSH1 0x80 PUSH1 0x40 MSTORE CALLVALUE DUP1 ISZERO PUSH2 0xF JUMPI PUSH0 DUP1 REVERT JUMPDEST POP PUSH0 PUSH1 0x40 MLOAD DUP1 PUSH1 0x60 ADD PUSH1 0x40 MSTORE DUP1 PUSH1 0xB DUP2 MSTORE PUSH1 0x20 ADD PUSH1 0x16 PUSH16 0xFFFFFFFFFFFFFFFFFFFFFFFFFFFFFFFF AND DUP2 MSTORE PUSH1 0x20 ADD PUSH1 0x21 PUSH16 0xFFFFFFFFFFFFFFFFFFFFFFFFFFFFFFFF AND DUP2 MSTORE POP SWAP1 DUP1 PUSH1 0x1 DUP2 SLOAD ADD DUP1 DUP3 SSTORE DUP1 SWAP2 POP POP PUSH1 0x1 SWAP1 SUB SWAP1 PUSH0 MSTORE PUSH1 0x20 PUSH0 KECCAK256 SWAP1 PUSH1 0x2 MUL ADD PUSH0 SWAP1 SWAP2 SWAP1 SWAP2 SWAP1 SWAP2 POP PUSH0 DUP3 ADD MLOAD DUP2 PUSH0 ADD SSTORE PUSH1 0x20 DUP3 ADD MLOAD DUP2 PUSH1 0x1 ADD PUSH0 PUSH2 0x100 EXP DUP2 SLOAD DUP2 PUSH16 0xFFFFFFFFFFFFFFFFFFFFFFFFFFFFFFFF MUL NOT AND SWAP1 DUP4 PUSH16 0xFFFFFFFFFFFFFFFFFFFFFFFFFFFFFFFF AND MUL OR SWAP1 SSTORE POP PUSH1 0x40 DUP3 ADD MLOAD DUP2 PUSH1 0x1 ADD PUSH1 0x10 PUSH2 0x100 EXP DUP2 SLOAD DUP2 PUSH16 0xFFFFFFFFFFFFFFFFFFFFFFFFFFFFFFFF MUL NOT AND SWAP1 DUP4 PUSH16 0xFFFFFFFFFFFFFFFFFFFFFFFFFFFFFFFF AND MUL OR SWAP1 SSTORE POP POP POP PUSH0 PUSH1 0x40 MLOAD DUP1 PUSH1 0x60 ADD PUSH1 0x40 MSTORE DUP1 PUSH1 0x2C DUP2 MSTORE PUSH1 0x20 ADD PUSH1 0x37 PUSH16 0xFFFFFFFFFFFFFFFFFFFFFFFFFFFFFFFF AND DUP2 MSTORE PUSH1 0x20 ADD PUSH1 0x42 PUSH16 0xFFFFFFFFFFFFFFFFFFFFFFFFFFFFFFFF AND DUP2 MSTORE POP SWAP1 DUP1 PUSH1 0x1 DUP2 SLOAD ADD DUP1 DUP3 SSTORE DUP1 SWAP2 POP POP PUSH1 0x1 SWAP1 SUB SWAP1 PUSH0 MSTORE PUSH1 0x20 PUSH0 KECCAK256 SWAP1 PUSH1 0x2 MUL ADD PUSH0 SWAP1 SWAP2 SWAP1 SWAP2 SWAP1 SWAP2 POP PUSH0 DUP3 ADD MLOAD DUP2 PUSH0 ADD SSTORE PUSH1 0x20 DUP3 ADD MLOAD DUP2 PUSH1 0x1 ADD PUSH0 PUSH2 0x100 EXP DUP2 SLOAD DUP2 PUSH16 0xFFFFFFFFFFFFFFFFFFFFFFFFFFFFFFFF MUL NOT AND SWAP1 DUP4 PUSH16 0xFFFFFFFFFFFFFFFFFFFFFFFFFFFFFFFF AND MUL OR SWAP1 SSTORE POP PUSH1 0x40 DUP3 ADD MLOAD DUP2 PUSH1 0x1 ADD PUSH1 0x10 PUSH2 0x100 EXP DUP2 SLOAD DUP2 PUSH16 0xFFFFFFFFFFFFFFFFFFFFFFFFFFFFFFFF MUL NOT AND SWAP1 DUP4 PUSH16 0xFFFFFFFFFFFFFFFFFFFFFFFFFFFFFFFF AND MUL OR SWAP1 SSTORE POP POP POP PUSH0 PUSH1 0x40 MLOAD DUP1 PUSH1 0x60 ADD PUSH1 0x40 MSTORE DUP1 PUSH1 0x4D DUP2 MSTORE PUSH1 0x20 ADD PUSH1 0x58 PUSH16 0xFFFFFFFFFFFFFFFFFFFFFFFFFFFFFFFF AND DUP2 MSTORE PUSH1 0x20 ADD PUSH1 0x63 PUSH16 0xFFFFFFFFFFFFFFFFFFFFFFFFFFFFFFFF AND DUP2 MSTORE POP SWAP1 DUP1 PUSH1 0x1 DUP2 SLOAD ADD DUP1 DUP3 SSTORE DUP1 SWAP2 POP POP PUSH1 0x1 SWAP1 SUB SWAP1 PUSH0 MSTORE PUSH1 0x20 PUSH0 KECCAK256 SWAP1 PUSH1 0x2 MUL ADD PUSH0 SWAP1 SWAP2 SWAP1 SWAP2 SWAP1 SWAP2 POP PUSH0 DUP3 ADD MLOAD DUP2 PUSH0 ADD SSTORE PUSH1 0x20 DUP3 ADD MLOAD DUP2 PUSH1 0x1 ADD PUSH0 PUSH2 0x100 EXP DUP2 SLOAD DUP2 PUSH16 0xFFFFFFFFFFFFFFFFFFFFFFFFFFFFFFFF MUL NOT AND SWAP1 DUP4 PUSH16 0xFFFFFFFFFFFFFFFFFFFFFFFFFFFFFFFF AND MUL OR SWAP1 SSTORE POP PUSH1 0x40 DUP3 ADD MLOAD DUP2 PUSH1 0x1 ADD PUSH1 0x10 PUSH2 0x100 EXP DUP2 SLOAD DUP2 PUSH16 0xFFFFFFFFFFFFFFFFFFFFFFFFFFFFFFFF MUL NOT AND SWAP1 DUP4 PUSH16 0xFFFFFFFFFFFFFFFFFFFFFFFFFFFFFFFF AND MUL OR SWAP1 SSTORE POP POP POP PUSH2 0x1E6 DUP1 PUSH2 0x2ED PUSH0 CODECOPY PUSH0 RETURN INVALID PUSH1 0x80 PUSH1 0x40 MSTORE CALLVALUE DUP1 ISZERO PUSH2 0xF JUMPI PUSH0 DUP1 REVERT JUMPDEST POP PUSH1 0x4 CALLDATASIZE LT PUSH2 0x29 JUMPI PUSH0 CALLDATALOAD PUSH1 0xE0 SHR DUP1 PUSH4 0x5E5BE598 EQ PUSH2 0x2D JUMPI JUMPDEST PUSH0 DUP1 REVERT JUMPDEST PUSH2 0x47 PUSH1 0x4 DUP1 CALLDATASIZE SUB DUP2 ADD SWAP1 PUSH2 0x42 SWAP2 SWAP1 PUSH2 0xF0 JUMP JUMPDEST PUSH2 0x60 JUMP JUMPDEST PUSH1 0x40 MLOAD PUSH2 0x57 SWAP5 SWAP4 SWAP3 SWAP2 SWAP1 PUSH2 0x154 JUMP JUMPDEST PUSH1 0x40 MLOAD DUP1 SWAP2 SUB SWAP1 RETURN JUMPDEST PUSH0 DUP1 PUSH0 DUP1 PUSH0 DUP1 DUP2 PUSH1 0x40 MLOAD PUSH1 0x20 ADD PUSH2 0x77 SWAP2 SWAP1 PUSH2 0x197 JUMP JUMPDEST PUSH1 0x40 MLOAD PUSH1 0x20 DUP2 DUP4 SUB SUB DUP2 MSTORE SWAP1 PUSH1 0x40 MSTORE DUP1 MLOAD SWAP1 PUSH1 0x20 ADD KECCAK256 SWAP1 POP DUP2 SLOAD SWAP3 POP PUSH1 0x2 DUP8 MUL DUP2 ADD SLOAD SWAP6 POP PUSH1 0x1 PUSH1 0x2 DUP9 MUL ADD DUP2 ADD SLOAD DUP1 SWAP6 POP DUP1 PUSH1 0x80 SHR SWAP5 POP POP POP POP SWAP2 SWAP4 POP SWAP2 SWAP4 JUMP JUMPDEST PUSH0 DUP1 REVERT JUMPDEST PUSH0 DUP2 SWAP1 POP SWAP2 SWAP1 POP JUMP JUMPDEST PUSH2 0xCF DUP2 PUSH2 0xBD JUMP JUMPDEST DUP2 EQ PUSH2 0xD9 JUMPI PUSH0 DUP1 REVERT JUMPDEST POP JUMP JUMPDEST PUSH0 DUP2 CALLDATALOAD SWAP1 POP PUSH2 0xEA DUP2 PUSH2 0xC6 JUMP JUMPDEST SWAP3 SWAP2 POP POP JUMP JUMPDEST PUSH0 PUSH1 0x20 DUP3 DUP5 SUB SLT ISZERO PUSH2 0x105 JUMPI PUSH2 0x104 PUSH2 0xB9 JUMP JUMPDEST JUMPDEST PUSH0 PUSH2 0x112 DUP5 DUP3 DUP6 ADD PUSH2 0xDC JUMP JUMPDEST SWAP2 POP POP SWAP3 SWAP2 POP POP JUMP JUMPDEST PUSH2 0x124 DUP2 PUSH2 0xBD JUMP JUMPDEST DUP3 MSTORE POP POP JUMP JUMPDEST PUSH0 PUSH16 0xFFFFFFFFFFFFFFFFFFFFFFFFFFFFFFFF DUP3 AND SWAP1 POP SWAP2 SWAP1 POP JUMP JUMPDEST PUSH2 0x14E DUP2 PUSH2 0x12A JUMP JUMPDEST DUP3 MSTORE POP POP JUMP JUMPDEST PUSH0 PUSH1 0x80 DUP3 ADD SWAP1 POP PUSH2 0x167 PUSH0 DUP4 ADD DUP8 PUSH2 0x11B JUMP JUMPDEST PUSH2 0x174 PUSH1 0x20 DUP4 ADD DUP7 PUSH2 0x145 JUMP JUMPDEST PUSH2 0x181 PUSH1 0x40 DUP4 ADD DUP6 PUSH2 0x145 JUMP JUMPDEST PUSH2 0x18E PUSH1 0x60 DUP4 ADD DUP5 PUSH2 0x11B JUMP JUMPDEST SWAP6 SWAP5 POP POP POP POP POP JUMP JUMPDEST PUSH0 PUSH1 0x20 DUP3 ADD SWAP1 POP PUSH2 0x1AA PUSH0 DUP4 ADD DUP5 PUSH2 0x11B JUMP JUMPDEST SWAP3 SWAP2 POP POP JUMP INVALID LOG2 PUSH5 0x6970667358 0x22 SLT KECCAK256 BYTE 0xB8 0xF 0xA7 0xC7 0xF6 DUP8 SWAP5 MSIZE REVERT EXTCODEHASH TSTORE INVALID PUSH12 0xCFF4F5951FEB4D3B36A7C040 MLOAD LOG4 SIGNEXTEND DUP7 SWAP12 0xFB PUSH5 0x736F6C6343 STOP ADDMOD BYTE STOP CALLER "
				},
				"gasEstimates": {
					"creation": {
						"codeDepositCost": "97200",
						"executionCost": "285565",
						"totalCost": "382765"
					},
					"external": {
						"test_struct_arr(uint256)": "infinite"
					}
				},
				"methodIdentifiers": {
					"test_struct_arr(uint256)": "5e5be598"
				}
			},
			"storageLayout": {
				"storage": [
					{
						"astId": 608,
						"contract": "EVMStorageLayout.sol:EVMStorageDynamicArrayStruct",
						"label": "arr",
						"offset": 0,
						"slot": "0",
						"type": "t_array(t_struct(Point)604_storage)dyn_storage"
					}
				],
				"types": {
					"t_array(t_struct(Point)604_storage)dyn_storage": {
						"base": "t_struct(Point)604_storage",
						"encoding": "dynamic_array",
						"label": "struct EVMStorageDynamicArrayStruct.Point[]",
						"numberOfBytes": "32"
					},
					"t_struct(Point)604_storage": {
						"encoding": "inplace",
						"label": "struct EVMStorageDynamicArrayStruct.Point",
						"members": [
							{
								"astId": 599,
								"contract": "EVMStorageLayout.sol:EVMStorageDynamicArrayStruct",
								"label": "x",
								"offset": 0,
								"slot": "0",
								"type": "t_uint256"
							},
							{
								"astId": 601,
								"contract": "EVMStorageLayout.sol:EVMStorageDynamicArrayStruct",
								"label": "y",
								"offset": 0,
								"slot": "1",
								"type": "t_uint128"
							},
							{
								"astId": 603,
								"contract": "EVMStorageLayout.sol:EVMStorageDynamicArrayStruct",
								"label": "z",
								"offset": 16,
								"slot": "1",
								"type": "t_uint128"
							}
						],
						"numberOfBytes": "64"
					},
					"t_uint128": {
						"encoding": "inplace",
						"label": "uint128",
						"numberOfBytes": "16"
					},
					"t_uint256": {
						"encoding": "inplace",
						"label": "uint256",
						"numberOfBytes": "32"
					}
				}
			},
			"userdoc": {
				"kind": "user",
				"methods": {},
				"version": 1
			}
		}
	}
}