{
	"EVMStorageLayout.sol": {
		"YuIntro": {
			"abi": [
				{
					"inputs": [],
					"name": "test_yul_types",
					"outputs": [
						{
							"internalType": "bool",
							"name": "x",
							"type": "bool"
						},
						{
							"internalType": "uint256",
							"name": "y",
							"type": "uint256"
						},
						{
							"internalType": "bytes32",
							"name": "z",
							"type": "bytes32"
						}
					],
					"stateMutability": "pure",
					"type": "function"
				},
				{
					"inputs": [],
					"name": "test_yul_var",
					"outputs": [
						{
							"internalType": "uint256",
							"name": "",
							"type": "uint256"
						}
					],
					"stateMutability": "pure",
					"type": "function"
				}
			],
			"devdoc": {
				"kind": "dev",
				"methods": {},
				"version": 1
			},
			"evm": {
				"assembly": "    /* \"EVMStorageLayout.sol\":226:851  contract YuIntro {... */\n  mstore(0x40, 0x80)\n  callvalue\n  dup1\n  iszero\n  tag_1\n  jumpi\n  0x00\n  dup1\n  revert\ntag_1:\n  pop\n  dataSize(sub_0)\n  dup1\n  dataOffset(sub_0)\n  0x00\n  codecopy\n  0x00\n  return\nstop\n\nsub_0: assembly {\n        /* \"EVMStorageLayout.sol\":226:851  contract YuIntro {... */\n      mstore(0x40, 0x80)\n      callvalue\n      dup1\n      iszero\n      tag_1\n      jumpi\n      0x00\n      dup1\n      revert\n    tag_1:\n      pop\n      jumpi(tag_2, lt(calldatasize, 0x04))\n      shr(0xe0, calldataload(0x00))\n      dup1\n      0x33c7106b\n      eq\n      tag_3\n      jumpi\n      dup1\n      0x5045f052\n      eq\n      tag_4\n      jumpi\n    tag_2:\n      0x00\n      dup1\n      revert\n        /* \"EVMStorageLayout.sol\":629:848  function test_yul_types() public pure returns (bool x, uint256 y, bytes32 z) {... */\n    tag_3:\n      tag_5\n      tag_6\n      jump\t// in\n    tag_5:\n      mload(0x40)\n      tag_7\n      swap4\n      swap3\n      swap2\n      swap1\n      tag_8\n      jump\t// in\n    tag_7:\n      mload(0x40)\n      dup1\n      swap2\n      sub\n      swap1\n      return\n        /* \"EVMStorageLayout.sol\":273:579  function test_yul_var() public pure returns (uint256) {... */\n    tag_4:\n      tag_9\n      tag_10\n      jump\t// in\n    tag_9:\n      mload(0x40)\n      tag_11\n      swap2\n      swap1\n      tag_12\n      jump\t// in\n    tag_11:\n      mload(0x40)\n      dup1\n      swap2\n      sub\n      swap1\n      return\n        /* \"EVMStorageLayout.sol\":629:848  function test_yul_types() public pure returns (bool x, uint256 y, bytes32 z) {... */\n    tag_6:\n        /* \"EVMStorageLayout.sol\":676:682  bool x */\n      0x00\n        /* \"EVMStorageLayout.sol\":684:693  uint256 y */\n      dup1\n        /* \"EVMStorageLayout.sol\":695:704  bytes32 z */\n      0x00\n        /* \"EVMStorageLayout.sol\":746:747  1 */\n      0x01\n        /* \"EVMStorageLayout.sol\":741:747  x := 1 */\n      swap3\n      pop\n        /* \"EVMStorageLayout.sol\":766:771  0xaaa */\n      0x0aaa\n        /* \"EVMStorageLayout.sol\":761:771  y := 0xaaa */\n      swap2\n      pop\n        /* \"EVMStorageLayout.sol\":790:801  \"Hello Yul\" */\n      0x48656c6c6f2059756c0000000000000000000000000000000000000000000000\n        /* \"EVMStorageLayout.sol\":785:801  z := \"Hello Yul\" */\n      swap1\n      pop\n        /* \"EVMStorageLayout.sol\":629:848  function test_yul_types() public pure returns (bool x, uint256 y, bytes32 z) {... */\n      swap1\n      swap2\n      swap3\n      jump\t// out\n        /* \"EVMStorageLayout.sol\":273:579  function test_yul_var() public pure returns (uint256) {... */\n    tag_10:\n        /* \"EVMStorageLayout.sol\":318:325  uint256 */\n      0x00\n        /* \"EVMStorageLayout.sol\":338:347  uint256 s */\n      dup1\n        /* \"EVMStorageLayout.sol\":350:351  0 */\n      0x00\n        /* \"EVMStorageLayout.sol\":338:351  uint256 s = 0 */\n      swap1\n      pop\n        /* \"EVMStorageLayout.sol\":430:431  1 */\n      0x01\n        /* \"EVMStorageLayout.sol\":475:476  2 */\n      0x02\n        /* \"EVMStorageLayout.sol\":470:476  x := 2 */\n      swap1\n      pop\n        /* \"EVMStorageLayout.sol\":539:540  2 */\n      0x02\n        /* \"EVMStorageLayout.sol\":534:540  s := 2 */\n      swap2\n      pop\n        /* \"EVMStorageLayout.sol\":373:551  {... */\n      pop\n        /* \"EVMStorageLayout.sol\":570:571  s */\n      dup1\n        /* \"EVMStorageLayout.sol\":563:571  return s */\n      swap2\n      pop\n      pop\n        /* \"EVMStorageLayout.sol\":273:579  function test_yul_var() public pure returns (uint256) {... */\n      swap1\n      jump\t// out\n        /* \"#utility.yul\":7:97   */\n    tag_15:\n        /* \"#utility.yul\":41:48   */\n      0x00\n        /* \"#utility.yul\":84:89   */\n      dup2\n        /* \"#utility.yul\":77:90   */\n      iszero\n        /* \"#utility.yul\":70:91   */\n      iszero\n        /* \"#utility.yul\":59:91   */\n      swap1\n      pop\n        /* \"#utility.yul\":7:97   */\n      swap2\n      swap1\n      pop\n      jump\t// out\n        /* \"#utility.yul\":103:212   */\n    tag_16:\n        /* \"#utility.yul\":184:205   */\n      tag_24\n        /* \"#utility.yul\":199:204   */\n      dup2\n        /* \"#utility.yul\":184:205   */\n      tag_15\n      jump\t// in\n    tag_24:\n        /* \"#utility.yul\":179:182   */\n      dup3\n        /* \"#utility.yul\":172:206   */\n      mstore\n        /* \"#utility.yul\":103:212   */\n      pop\n      pop\n      jump\t// out\n        /* \"#utility.yul\":218:295   */\n    tag_17:\n        /* \"#utility.yul\":255:262   */\n      0x00\n        /* \"#utility.yul\":284:289   */\n      dup2\n        /* \"#utility.yul\":273:289   */\n      swap1\n      pop\n        /* \"#utility.yul\":218:295   */\n      swap2\n      swap1\n      pop\n      jump\t// out\n        /* \"#utility.yul\":301:419   */\n    tag_18:\n        /* \"#utility.yul\":388:412   */\n      tag_27\n        /* \"#utility.yul\":406:411   */\n      dup2\n        /* \"#utility.yul\":388:412   */\n      tag_17\n      jump\t// in\n    tag_27:\n        /* \"#utility.yul\":383:386   */\n      dup3\n        /* \"#utility.yul\":376:413   */\n      mstore\n        /* \"#utility.yul\":301:419   */\n      pop\n      pop\n      jump\t// out\n        /* \"#utility.yul\":425:502   */\n    tag_19:\n        /* \"#utility.yul\":462:469   */\n      0x00\n        /* \"#utility.yul\":491:496   */\n      dup2\n        /* \"#utility.yul\":480:496   */\n      swap1\n      pop\n        /* \"#utility.yul\":425:502   */\n      swap2\n      swap1\n      pop\n      jump\t// out\n        /* \"#utility.yul\":508:626   */\n    tag_20:\n        /* \"#utility.yul\":595:619   */\n      tag_30\n        /* \"#utility.yul\":613:618   */\n      dup2\n        /* \"#utility.yul\":595:619   */\n      tag_19\n      jump\t// in\n    tag_30:\n        /* \"#utility.yul\":590:593   */\n      dup3\n        /* \"#utility.yul\":583:620   */\n      mstore\n        /* \"#utility.yul\":508:626   */\n      pop\n      pop\n      jump\t// out\n        /* \"#utility.yul\":632:1062   */\n    tag_8:\n        /* \"#utility.yul\":775:779   */\n      0x00\n        /* \"#utility.yul\":813:815   */\n      0x60\n        /* \"#utility.yul\":802:811   */\n      dup3\n        /* \"#utility.yul\":798:816   */\n      add\n        /* \"#utility.yul\":790:816   */\n      swap1\n      pop\n        /* \"#utility.yul\":826:891   */\n      tag_32\n        /* \"#utility.yul\":888:889   */\n      0x00\n        /* \"#utility.yul\":877:886   */\n      dup4\n        /* \"#utility.yul\":873:890   */\n      add\n        /* \"#utility.yul\":864:870   */\n      dup7\n        /* \"#utility.yul\":826:891   */\n      tag_16\n      jump\t// in\n    tag_32:\n        /* \"#utility.yul\":901:973   */\n      tag_33\n        /* \"#utility.yul\":969:971   */\n      0x20\n        /* \"#utility.yul\":958:967   */\n      dup4\n        /* \"#utility.yul\":954:972   */\n      add\n        /* \"#utility.yul\":945:951   */\n      dup6\n        /* \"#utility.yul\":901:973   */\n      tag_18\n      jump\t// in\n    tag_33:\n        /* \"#utility.yul\":983:1055   */\n      tag_34\n        /* \"#utility.yul\":1051:1053   */\n      0x40\n        /* \"#utility.yul\":1040:1049   */\n      dup4\n        /* \"#utility.yul\":1036:1054   */\n      add\n        /* \"#utility.yul\":1027:1033   */\n      dup5\n        /* \"#utility.yul\":983:1055   */\n      tag_20\n      jump\t// in\n    tag_34:\n        /* \"#utility.yul\":632:1062   */\n      swap5\n      swap4\n      pop\n      pop\n      pop\n      pop\n      jump\t// out\n        /* \"#utility.yul\":1068:1290   */\n    tag_12:\n        /* \"#utility.yul\":1161:1165   */\n      0x00\n        /* \"#utility.yul\":1199:1201   */\n      0x20\n        /* \"#utility.yul\":1188:1197   */\n      dup3\n        /* \"#utility.yul\":1184:1202   */\n      add\n        /* \"#utility.yul\":1176:1202   */\n      swap1\n      pop\n        /* \"#utility.yul\":1212:1283   */\n      tag_36\n        /* \"#utility.yul\":1280:1281   */\n      0x00\n        /* \"#utility.yul\":1269:1278   */\n      dup4\n        /* \"#utility.yul\":1265:1282   */\n      add\n        /* \"#utility.yul\":1256:1262   */\n      dup5\n        /* \"#utility.yul\":1212:1283   */\n      tag_18\n      jump\t// in\n    tag_36:\n        /* \"#utility.yul\":1068:1290   */\n      swap3\n      swap2\n      pop\n      pop\n      jump\t// out\n\n    auxdata: 0xa26469706673582212205930295b029f7d52466e834d2a0c76788e035bfa67ab811e314f2de96f8b908d64736f6c634300081a0033\n}\n",
				"bytecode": {
					"linkReferences": {},
					"object": "6080604052348015600e575f80fd5b5061018f8061001c5f395ff3fe608060405234801561000f575f80fd5b5060043610610034575f3560e01c806333c7106b146100385780635045f05214610058575b5f80fd5b610040610076565b60405161004f9392919061010b565b60405180910390f35b6100606100aa565b60405161006d9190610140565b60405180910390f35b5f805f60019250610aaa91507f48656c6c6f2059756c00000000000000000000000000000000000000000000009050909192565b5f805f905060016002905060029150508091505090565b5f8115159050919050565b6100d5816100c1565b82525050565b5f819050919050565b6100ed816100db565b82525050565b5f819050919050565b610105816100f3565b82525050565b5f60608201905061011e5f8301866100cc565b61012b60208301856100e4565b61013860408301846100fc565b949350505050565b5f6020820190506101535f8301846100e4565b9291505056fea26469706673582212205930295b029f7d52466e834d2a0c76788e035bfa67ab811e314f2de96f8b908d64736f6c634300081a0033",
					"opcodes": "PUSH1 0x80 PUSH1 0x40 MSTORE CALLVALUE DUP1 ISZERO PUSH1 0xE JUMPI PUSH0 DUP1 REVERT JUMPDEST POP PUSH2 0x18F DUP1 PUSH2 0x1C PUSH0 CODECOPY PUSH0 RETURN INVALID PUSH1 0x80 PUSH1 0x40 MSTORE CALLVALUE DUP1 ISZERO PUSH2 0xF JUMPI PUSH0 DUP1 REVERT JUMPDEST POP PUSH1 0x4 CALLDATASIZE LT PUSH2 0x34 JUMPI PUSH0 CALLDATALOAD PUSH1 0xE0 SHR DUP1 PUSH4 0x33C7106B EQ PUSH2 0x38 JUMPI DUP1 PUSH4 0x5045F052 EQ PUSH2 0x58 JUMPI JUMPDEST PUSH0 DUP1 REVERT JUMPDEST PUSH2 0x40 PUSH2 0x76 JUMP JUMPDEST PUSH1 0x40 MLOAD PUSH2 0x4F SWAP4 SWAP3 SWAP2 SWAP1 PUSH2 0x10B JUMP JUMPDEST PUSH1 0x40 MLOAD DUP1 SWAP2 SUB SWAP1 RETURN JUMPDEST PUSH2 0x60 PUSH2 0xAA JUMP JUMPDEST PUSH1 0x40 MLOAD PUSH2 0x6D SWAP2 SWAP1 PUSH2 0x140 JUMP JUMPDEST PUSH1 0x40 MLOAD DUP1 SWAP2 SUB SWAP1 RETURN JUMPDEST PUSH0 DUP1 PUSH0 PUSH1 0x1 SWAP3 POP PUSH2 0xAAA SWAP2 POP PUSH32 0x48656C6C6F2059756C0000000000000000000000000000000000000000000000 SWAP1 POP SWAP1 SWAP2 SWAP3 JUMP JUMPDEST PUSH0 DUP1 PUSH0 SWAP1 POP PUSH1 0x1 PUSH1 0x2 SWAP1 POP PUSH1 0x2 SWAP2 POP POP DUP1 SWAP2 POP POP SWAP1 JUMP JUMPDEST PUSH0 DUP2 ISZERO ISZERO SWAP1 POP SWAP2 SWAP1 POP JUMP JUMPDEST PUSH2 0xD5 DUP2 PUSH2 0xC1 JUMP JUMPDEST DUP3 MSTORE POP POP JUMP JUMPDEST PUSH0 DUP2 SWAP1 POP SWAP2 SWAP1 POP JUMP JUMPDEST PUSH2 0xED DUP2 PUSH2 0xDB JUMP JUMPDEST DUP3 MSTORE POP POP JUMP JUMPDEST PUSH0 DUP2 SWAP1 POP SWAP2 SWAP1 POP JUMP JUMPDEST PUSH2 0x105 DUP2 PUSH2 0xF3 JUMP JUMPDEST DUP3 MSTORE POP POP JUMP JUMPDEST PUSH0 PUSH1 0x60 DUP3 ADD SWAP1 POP PUSH2 0x11E PUSH0 DUP4 ADD DUP7 PUSH2 0xCC JUMP JUMPDEST PUSH2 0x12B PUSH1 0x20 DUP4 ADD DUP6 PUSH2 0xE4 JUMP JUMPDEST PUSH2 0x138 PUSH1 0x40 DUP4 ADD DUP5 PUSH2 0xFC JUMP JUMPDEST SWAP5 SWAP4 POP POP POP POP JUMP JUMPDEST PUSH0 PUSH1 0x20 DUP3 ADD SWAP1 POP PUSH2 0x153 PUSH0 DUP4 ADD DUP5 PUSH2 0xE4 JUMP JUMPDEST SWAP3 SWAP2 POP POP JUMP INVALID LOG2 PUSH5 0x6970667358 0x22 SLT KECCAK256 MSIZE ADDRESS 0x29 JUMPDEST MUL SWAP16 PUSH30 0x52466E834D2A0C76788E035BFA67AB811E314F2DE96F8B908D64736F6C63 NUMBER STOP ADDMOD BYTE STOP CALLER "
				},
				"gasEstimates": {
					"creation": {
						"codeDepositCost": "79800",
						"executionCost": "127",
						"totalCost": "79927"
					},
					"external": {
						"test_yul_types()": "541",
						"test_yul_var()": "365"
					}
				},
				"methodIdentifiers": {
					"test_yul_types()": "33c7106b",
					"test_yul_var()": "5045f052"
				}
			},
			"storageLayout": {
				"storage": [],
				"types": null
			},
			"userdoc": {
				"kind": "user",
				"methods": {},
				"version": 1
			}
		}
	}
}