{
	"EVMStorageLayout.sol": {
		"EVMStorageNestedMapping": {
			"abi": [
				{
					"inputs": [],
					"stateMutability": "nonpayable",
					"type": "constructor"
				},
				{
					"inputs": [],
					"name": "ADDR_1",
					"outputs": [
						{
							"internalType": "address",
							"name": "",
							"type": "address"
						}
					],
					"stateMutability": "view",
					"type": "function"
				},
				{
					"inputs": [],
					"name": "ADDR_2",
					"outputs": [
						{
							"internalType": "address",
							"name": "",
							"type": "address"
						}
					],
					"stateMutability": "view",
					"type": "function"
				},
				{
					"inputs": [],
					"name": "ADDR_3",
					"outputs": [
						{
							"internalType": "address",
							"name": "",
							"type": "address"
						}
					],
					"stateMutability": "view",
					"type": "function"
				},
				{
					"inputs": [
						{
							"internalType": "address",
							"name": "",
							"type": "address"
						},
						{
							"internalType": "address",
							"name": "",
							"type": "address"
						}
					],
					"name": "map",
					"outputs": [
						{
							"internalType": "uint256",
							"name": "",
							"type": "uint256"
						}
					],
					"stateMutability": "view",
					"type": "function"
				},
				{
					"inputs": [
						{
							"internalType": "address",
							"name": "key_0",
							"type": "address"
						},
						{
							"internalType": "address",
							"name": "key_1",
							"type": "address"
						}
					],
					"name": "test_nested_mapping",
					"outputs": [
						{
							"internalType": "uint256",
							"name": "v",
							"type": "uint256"
						}
					],
					"stateMutability": "view",
					"type": "function"
				}
			],
			"devdoc": {
				"kind": "dev",
				"methods": {},
				"version": 1
			},
			"evm": {
				"assembly": "    /* \"EVMStorageLayout.sol\":13267:14122  contract EVMStorageNestedMapping {... */\n  mstore(0x40, 0x80)\n    /* \"EVMStorageLayout.sol\":13651:13778  constructor() {... */\n  callvalue\n  dup1\n  iszero\n  tag_1\n  jumpi\n  0x00\n  dup1\n  revert\ntag_1:\n  pop\n    /* \"EVMStorageLayout.sol\":13698:13700  11 */\n  0x0b\n    /* \"EVMStorageLayout.sol\":13676:13679  map */\n  0x00\n    /* \"EVMStorageLayout.sol\":13676:13687  map[ADDR_1] */\n  dup1\n    /* \"EVMStorageLayout.sol\":13540:13541  1 */\n  0x01\n    /* \"EVMStorageLayout.sol\":13676:13687  map[ADDR_1] */\n  0xffffffffffffffffffffffffffffffffffffffff\n  and\n  0xffffffffffffffffffffffffffffffffffffffff\n  and\n  dup2\n  mstore\n  0x20\n  add\n  swap1\n  dup2\n  mstore\n  0x20\n  add\n  0x00\n  keccak256\n    /* \"EVMStorageLayout.sol\":13676:13695  map[ADDR_1][ADDR_2] */\n  0x00\n    /* \"EVMStorageLayout.sol\":13590:13591  2 */\n  0x02\n    /* \"EVMStorageLayout.sol\":13676:13695  map[ADDR_1][ADDR_2] */\n  0xffffffffffffffffffffffffffffffffffffffff\n  and\n  0xffffffffffffffffffffffffffffffffffffffff\n  and\n  dup2\n  mstore\n  0x20\n  add\n  swap1\n  dup2\n  mstore\n  0x20\n  add\n  0x00\n  keccak256\n    /* \"EVMStorageLayout.sol\":13676:13700  map[ADDR_1][ADDR_2] = 11 */\n  dup2\n  swap1\n  sstore\n  pop\n    /* \"EVMStorageLayout.sol\":13733:13735  22 */\n  0x16\n    /* \"EVMStorageLayout.sol\":13711:13714  map */\n  0x00\n    /* \"EVMStorageLayout.sol\":13711:13722  map[ADDR_2] */\n  dup1\n    /* \"EVMStorageLayout.sol\":13590:13591  2 */\n  0x02\n    /* \"EVMStorageLayout.sol\":13711:13722  map[ADDR_2] */\n  0xffffffffffffffffffffffffffffffffffffffff\n  and\n  0xffffffffffffffffffffffffffffffffffffffff\n  and\n  dup2\n  mstore\n  0x20\n  add\n  swap1\n  dup2\n  mstore\n  0x20\n  add\n  0x00\n  keccak256\n    /* \"EVMStorageLayout.sol\":13711:13730  map[ADDR_2][ADDR_3] */\n  0x00\n    /* \"EVMStorageLayout.sol\":13640:13641  3 */\n  0x03\n    /* \"EVMStorageLayout.sol\":13711:13730  map[ADDR_2][ADDR_3] */\n  0xffffffffffffffffffffffffffffffffffffffff\n  and\n  0xffffffffffffffffffffffffffffffffffffffff\n  and\n  dup2\n  mstore\n  0x20\n  add\n  swap1\n  dup2\n  mstore\n  0x20\n  add\n  0x00\n  keccak256\n    /* \"EVMStorageLayout.sol\":13711:13735  map[ADDR_2][ADDR_3] = 22 */\n  dup2\n  swap1\n  sstore\n  pop\n    /* \"EVMStorageLayout.sol\":13768:13770  33 */\n  0x21\n    /* \"EVMStorageLayout.sol\":13746:13749  map */\n  0x00\n    /* \"EVMStorageLayout.sol\":13746:13757  map[ADDR_3] */\n  dup1\n    /* \"EVMStorageLayout.sol\":13640:13641  3 */\n  0x03\n    /* \"EVMStorageLayout.sol\":13746:13757  map[ADDR_3] */\n  0xffffffffffffffffffffffffffffffffffffffff\n  and\n  0xffffffffffffffffffffffffffffffffffffffff\n  and\n  dup2\n  mstore\n  0x20\n  add\n  swap1\n  dup2\n  mstore\n  0x20\n  add\n  0x00\n  keccak256\n    /* \"EVMStorageLayout.sol\":13746:13765  map[ADDR_3][ADDR_1] */\n  0x00\n    /* \"EVMStorageLayout.sol\":13540:13541  1 */\n  0x01\n    /* \"EVMStorageLayout.sol\":13746:13765  map[ADDR_3][ADDR_1] */\n  0xffffffffffffffffffffffffffffffffffffffff\n  and\n  0xffffffffffffffffffffffffffffffffffffffff\n  and\n  dup2\n  mstore\n  0x20\n  add\n  swap1\n  dup2\n  mstore\n  0x20\n  add\n  0x00\n  keccak256\n    /* \"EVMStorageLayout.sol\":13746:13770  map[ADDR_3][ADDR_1] = 33 */\n  dup2\n  swap1\n  sstore\n  pop\n    /* \"EVMStorageLayout.sol\":13267:14122  contract EVMStorageNestedMapping {... */\n  dataSize(sub_0)\n  dup1\n  dataOffset(sub_0)\n  0x00\n  codecopy\n  0x00\n  return\nstop\n\nsub_0: assembly {\n        /* \"EVMStorageLayout.sol\":13267:14122  contract EVMStorageNestedMapping {... */\n      mstore(0x40, 0x80)\n      callvalue\n      dup1\n      iszero\n      tag_1\n      jumpi\n      0x00\n      dup1\n      revert\n    tag_1:\n      pop\n      jumpi(tag_2, lt(calldatasize, 0x04))\n      shr(0xe0, calldataload(0x00))\n      dup1\n      0x08268788\n      eq\n      tag_3\n      jumpi\n      dup1\n      0x15d20efc\n      eq\n      tag_4\n      jumpi\n      dup1\n      0x4ee9430d\n      eq\n      tag_5\n      jumpi\n      dup1\n      0xc1cbb453\n      eq\n      tag_6\n      jumpi\n      dup1\n      0xd0aecb4c\n      eq\n      tag_7\n      jumpi\n    tag_2:\n      0x00\n      dup1\n      revert\n        /* \"EVMStorageLayout.sol\":13499:13542  address public constant ADDR_1 = address(1) */\n    tag_3:\n      tag_8\n      tag_9\n      jump\t// in\n    tag_8:\n      mload(0x40)\n      tag_10\n      swap2\n      swap1\n      tag_11\n      jump\t// in\n    tag_10:\n      mload(0x40)\n      dup1\n      swap2\n      sub\n      swap1\n      return\n        /* \"EVMStorageLayout.sol\":13786:14119  function test_nested_mapping(address key_0, address key_1)... */\n    tag_4:\n      tag_12\n      0x04\n      dup1\n      calldatasize\n      sub\n      dup2\n      add\n      swap1\n      tag_13\n      swap2\n      swap1\n      tag_14\n      jump\t// in\n    tag_13:\n      tag_15\n      jump\t// in\n    tag_12:\n      mload(0x40)\n      tag_16\n      swap2\n      swap1\n      tag_17\n      jump\t// in\n    tag_16:\n      mload(0x40)\n      dup1\n      swap2\n      sub\n      swap1\n      return\n        /* \"EVMStorageLayout.sol\":13599:13642  address public constant ADDR_3 = address(3) */\n    tag_5:\n      tag_18\n      tag_19\n      jump\t// in\n    tag_18:\n      mload(0x40)\n      tag_20\n      swap2\n      swap1\n      tag_11\n      jump\t// in\n    tag_20:\n      mload(0x40)\n      dup1\n      swap2\n      sub\n      swap1\n      return\n        /* \"EVMStorageLayout.sol\":13432:13490  mapping(address => mapping(address => uint256)) public map */\n    tag_6:\n      tag_21\n      0x04\n      dup1\n      calldatasize\n      sub\n      dup2\n      add\n      swap1\n      tag_22\n      swap2\n      swap1\n      tag_14\n      jump\t// in\n    tag_22:\n      tag_23\n      jump\t// in\n    tag_21:\n      mload(0x40)\n      tag_24\n      swap2\n      swap1\n      tag_17\n      jump\t// in\n    tag_24:\n      mload(0x40)\n      dup1\n      swap2\n      sub\n      swap1\n      return\n        /* \"EVMStorageLayout.sol\":13549:13592  address public constant ADDR_2 = address(2) */\n    tag_7:\n      tag_25\n      tag_26\n      jump\t// in\n    tag_25:\n      mload(0x40)\n      tag_27\n      swap2\n      swap1\n      tag_11\n      jump\t// in\n    tag_27:\n      mload(0x40)\n      dup1\n      swap2\n      sub\n      swap1\n      return\n        /* \"EVMStorageLayout.sol\":13499:13542  address public constant ADDR_1 = address(1) */\n    tag_9:\n        /* \"EVMStorageLayout.sol\":13540:13541  1 */\n      0x01\n        /* \"EVMStorageLayout.sol\":13499:13542  address public constant ADDR_1 = address(1) */\n      dup2\n      jump\t// out\n        /* \"EVMStorageLayout.sol\":13786:14119  function test_nested_mapping(address key_0, address key_1)... */\n    tag_15:\n        /* \"EVMStorageLayout.sol\":13893:13902  uint256 v */\n      0x00\n        /* \"EVMStorageLayout.sol\":13920:13932  uint256 slot */\n      dup1\n        /* \"EVMStorageLayout.sol\":13935:13936  0 */\n      0x00\n        /* \"EVMStorageLayout.sol\":13920:13936  uint256 slot = 0 */\n      swap1\n      pop\n        /* \"EVMStorageLayout.sol\":13947:13957  bytes32 s0 */\n      0x00\n        /* \"EVMStorageLayout.sol\":13981:13986  key_0 */\n      dup5\n        /* \"EVMStorageLayout.sol\":13988:13992  slot */\n      dup3\n        /* \"EVMStorageLayout.sol\":13970:13993  abi.encode(key_0, slot) */\n      add(0x20, mload(0x40))\n      tag_29\n      swap3\n      swap2\n      swap1\n      tag_30\n      jump\t// in\n    tag_29:\n      mload(0x40)\n      0x20\n      dup2\n      dup4\n      sub\n      sub\n      dup2\n      mstore\n      swap1\n      0x40\n      mstore\n        /* \"EVMStorageLayout.sol\":13960:13994  keccak256(abi.encode(key_0, slot)) */\n      dup1\n      mload\n      swap1\n      0x20\n      add\n      keccak256\n        /* \"EVMStorageLayout.sol\":13947:13994  bytes32 s0 = keccak256(abi.encode(key_0, slot)) */\n      swap1\n      pop\n        /* \"EVMStorageLayout.sol\":14005:14015  bytes32 s1 */\n      0x00\n        /* \"EVMStorageLayout.sol\":14039:14044  key_1 */\n      dup5\n        /* \"EVMStorageLayout.sol\":14046:14048  s0 */\n      dup3\n        /* \"EVMStorageLayout.sol\":14028:14049  abi.encode(key_1, s0) */\n      add(0x20, mload(0x40))\n      tag_31\n      swap3\n      swap2\n      swap1\n      tag_32\n      jump\t// in\n    tag_31:\n      mload(0x40)\n      0x20\n      dup2\n      dup4\n      sub\n      sub\n      dup2\n      mstore\n      swap1\n      0x40\n      mstore\n        /* \"EVMStorageLayout.sol\":14018:14050  keccak256(abi.encode(key_1, s0)) */\n      dup1\n      mload\n      swap1\n      0x20\n      add\n      keccak256\n        /* \"EVMStorageLayout.sol\":14005:14050  bytes32 s1 = keccak256(abi.encode(key_1, s0)) */\n      swap1\n      pop\n        /* \"EVMStorageLayout.sol\":14098:14100  s1 */\n      dup1\n        /* \"EVMStorageLayout.sol\":14092:14101  sload(s1) */\n      sload\n        /* \"EVMStorageLayout.sol\":14087:14101  v := sload(s1) */\n      swap4\n      pop\n        /* \"EVMStorageLayout.sol\":14072:14112  {... */\n      pop\n      pop\n      pop\n        /* \"EVMStorageLayout.sol\":13786:14119  function test_nested_mapping(address key_0, address key_1)... */\n      swap3\n      swap2\n      pop\n      pop\n      jump\t// out\n        /* \"EVMStorageLayout.sol\":13599:13642  address public constant ADDR_3 = address(3) */\n    tag_19:\n        /* \"EVMStorageLayout.sol\":13640:13641  3 */\n      0x03\n        /* \"EVMStorageLayout.sol\":13599:13642  address public constant ADDR_3 = address(3) */\n      dup2\n      jump\t// out\n        /* \"EVMStorageLayout.sol\":13432:13490  mapping(address => mapping(address => uint256)) public map */\n    tag_23:\n      mstore(0x20, 0x00)\n      dup2\n      0x00\n      mstore\n      mstore(0x20, keccak256(0x00, 0x40))\n      dup1\n      0x00\n      mstore\n      keccak256(0x00, 0x40)\n      0x00\n      swap2\n      pop\n      swap2\n      pop\n      pop\n      sload\n      dup2\n      jump\t// out\n        /* \"EVMStorageLayout.sol\":13549:13592  address public constant ADDR_2 = address(2) */\n    tag_26:\n        /* \"EVMStorageLayout.sol\":13590:13591  2 */\n      0x02\n        /* \"EVMStorageLayout.sol\":13549:13592  address public constant ADDR_2 = address(2) */\n      dup2\n      jump\t// out\n        /* \"#utility.yul\":7:133   */\n    tag_33:\n        /* \"#utility.yul\":44:51   */\n      0x00\n        /* \"#utility.yul\":84:126   */\n      0xffffffffffffffffffffffffffffffffffffffff\n        /* \"#utility.yul\":77:82   */\n      dup3\n        /* \"#utility.yul\":73:127   */\n      and\n        /* \"#utility.yul\":62:127   */\n      swap1\n      pop\n        /* \"#utility.yul\":7:133   */\n      swap2\n      swap1\n      pop\n      jump\t// out\n        /* \"#utility.yul\":139:235   */\n    tag_34:\n        /* \"#utility.yul\":176:183   */\n      0x00\n        /* \"#utility.yul\":205:229   */\n      tag_48\n        /* \"#utility.yul\":223:228   */\n      dup3\n        /* \"#utility.yul\":205:229   */\n      tag_33\n      jump\t// in\n    tag_48:\n        /* \"#utility.yul\":194:229   */\n      swap1\n      pop\n        /* \"#utility.yul\":139:235   */\n      swap2\n      swap1\n      pop\n      jump\t// out\n        /* \"#utility.yul\":241:359   */\n    tag_35:\n        /* \"#utility.yul\":328:352   */\n      tag_50\n        /* \"#utility.yul\":346:351   */\n      dup2\n        /* \"#utility.yul\":328:352   */\n      tag_34\n      jump\t// in\n    tag_50:\n        /* \"#utility.yul\":323:326   */\n      dup3\n        /* \"#utility.yul\":316:353   */\n      mstore\n        /* \"#utility.yul\":241:359   */\n      pop\n      pop\n      jump\t// out\n        /* \"#utility.yul\":365:587   */\n    tag_11:\n        /* \"#utility.yul\":458:462   */\n      0x00\n        /* \"#utility.yul\":496:498   */\n      0x20\n        /* \"#utility.yul\":485:494   */\n      dup3\n        /* \"#utility.yul\":481:499   */\n      add\n        /* \"#utility.yul\":473:499   */\n      swap1\n      pop\n        /* \"#utility.yul\":509:580   */\n      tag_52\n        /* \"#utility.yul\":577:578   */\n      0x00\n        /* \"#utility.yul\":566:575   */\n      dup4\n        /* \"#utility.yul\":562:579   */\n      add\n        /* \"#utility.yul\":553:559   */\n      dup5\n        /* \"#utility.yul\":509:580   */\n      tag_35\n      jump\t// in\n    tag_52:\n        /* \"#utility.yul\":365:587   */\n      swap3\n      swap2\n      pop\n      pop\n      jump\t// out\n        /* \"#utility.yul\":674:791   */\n    tag_37:\n        /* \"#utility.yul\":783:784   */\n      0x00\n        /* \"#utility.yul\":780:781   */\n      dup1\n        /* \"#utility.yul\":773:785   */\n      revert\n        /* \"#utility.yul\":920:1042   */\n    tag_39:\n        /* \"#utility.yul\":993:1017   */\n      tag_57\n        /* \"#utility.yul\":1011:1016   */\n      dup2\n        /* \"#utility.yul\":993:1017   */\n      tag_34\n      jump\t// in\n    tag_57:\n        /* \"#utility.yul\":986:991   */\n      dup2\n        /* \"#utility.yul\":983:1018   */\n      eq\n        /* \"#utility.yul\":973:1036   */\n      tag_58\n      jumpi\n        /* \"#utility.yul\":1032:1033   */\n      0x00\n        /* \"#utility.yul\":1029:1030   */\n      dup1\n        /* \"#utility.yul\":1022:1034   */\n      revert\n        /* \"#utility.yul\":973:1036   */\n    tag_58:\n        /* \"#utility.yul\":920:1042   */\n      pop\n      jump\t// out\n        /* \"#utility.yul\":1048:1187   */\n    tag_40:\n        /* \"#utility.yul\":1094:1099   */\n      0x00\n        /* \"#utility.yul\":1132:1138   */\n      dup2\n        /* \"#utility.yul\":1119:1139   */\n      calldataload\n        /* \"#utility.yul\":1110:1139   */\n      swap1\n      pop\n        /* \"#utility.yul\":1148:1181   */\n      tag_60\n        /* \"#utility.yul\":1175:1180   */\n      dup2\n        /* \"#utility.yul\":1148:1181   */\n      tag_39\n      jump\t// in\n    tag_60:\n        /* \"#utility.yul\":1048:1187   */\n      swap3\n      swap2\n      pop\n      pop\n      jump\t// out\n        /* \"#utility.yul\":1193:1667   */\n    tag_14:\n        /* \"#utility.yul\":1261:1267   */\n      0x00\n        /* \"#utility.yul\":1269:1275   */\n      dup1\n        /* \"#utility.yul\":1318:1320   */\n      0x40\n        /* \"#utility.yul\":1306:1315   */\n      dup4\n        /* \"#utility.yul\":1297:1304   */\n      dup6\n        /* \"#utility.yul\":1293:1316   */\n      sub\n        /* \"#utility.yul\":1289:1321   */\n      slt\n        /* \"#utility.yul\":1286:1405   */\n      iszero\n      tag_62\n      jumpi\n        /* \"#utility.yul\":1324:1403   */\n      tag_63\n      tag_37\n      jump\t// in\n    tag_63:\n        /* \"#utility.yul\":1286:1405   */\n    tag_62:\n        /* \"#utility.yul\":1444:1445   */\n      0x00\n        /* \"#utility.yul\":1469:1522   */\n      tag_64\n        /* \"#utility.yul\":1514:1521   */\n      dup6\n        /* \"#utility.yul\":1505:1511   */\n      dup3\n        /* \"#utility.yul\":1494:1503   */\n      dup7\n        /* \"#utility.yul\":1490:1512   */\n      add\n        /* \"#utility.yul\":1469:1522   */\n      tag_40\n      jump\t// in\n    tag_64:\n        /* \"#utility.yul\":1459:1522   */\n      swap3\n      pop\n        /* \"#utility.yul\":1415:1532   */\n      pop\n        /* \"#utility.yul\":1571:1573   */\n      0x20\n        /* \"#utility.yul\":1597:1650   */\n      tag_65\n        /* \"#utility.yul\":1642:1649   */\n      dup6\n        /* \"#utility.yul\":1633:1639   */\n      dup3\n        /* \"#utility.yul\":1622:1631   */\n      dup7\n        /* \"#utility.yul\":1618:1640   */\n      add\n        /* \"#utility.yul\":1597:1650   */\n      tag_40\n      jump\t// in\n    tag_65:\n        /* \"#utility.yul\":1587:1650   */\n      swap2\n      pop\n        /* \"#utility.yul\":1542:1660   */\n      pop\n        /* \"#utility.yul\":1193:1667   */\n      swap3\n      pop\n      swap3\n      swap1\n      pop\n      jump\t// out\n        /* \"#utility.yul\":1673:1750   */\n    tag_41:\n        /* \"#utility.yul\":1710:1717   */\n      0x00\n        /* \"#utility.yul\":1739:1744   */\n      dup2\n        /* \"#utility.yul\":1728:1744   */\n      swap1\n      pop\n        /* \"#utility.yul\":1673:1750   */\n      swap2\n      swap1\n      pop\n      jump\t// out\n        /* \"#utility.yul\":1756:1874   */\n    tag_42:\n        /* \"#utility.yul\":1843:1867   */\n      tag_68\n        /* \"#utility.yul\":1861:1866   */\n      dup2\n        /* \"#utility.yul\":1843:1867   */\n      tag_41\n      jump\t// in\n    tag_68:\n        /* \"#utility.yul\":1838:1841   */\n      dup3\n        /* \"#utility.yul\":1831:1868   */\n      mstore\n        /* \"#utility.yul\":1756:1874   */\n      pop\n      pop\n      jump\t// out\n        /* \"#utility.yul\":1880:2102   */\n    tag_17:\n        /* \"#utility.yul\":1973:1977   */\n      0x00\n        /* \"#utility.yul\":2011:2013   */\n      0x20\n        /* \"#utility.yul\":2000:2009   */\n      dup3\n        /* \"#utility.yul\":1996:2014   */\n      add\n        /* \"#utility.yul\":1988:2014   */\n      swap1\n      pop\n        /* \"#utility.yul\":2024:2095   */\n      tag_70\n        /* \"#utility.yul\":2092:2093   */\n      0x00\n        /* \"#utility.yul\":2081:2090   */\n      dup4\n        /* \"#utility.yul\":2077:2094   */\n      add\n        /* \"#utility.yul\":2068:2074   */\n      dup5\n        /* \"#utility.yul\":2024:2095   */\n      tag_42\n      jump\t// in\n    tag_70:\n        /* \"#utility.yul\":1880:2102   */\n      swap3\n      swap2\n      pop\n      pop\n      jump\t// out\n        /* \"#utility.yul\":2108:2440   */\n    tag_30:\n        /* \"#utility.yul\":2229:2233   */\n      0x00\n        /* \"#utility.yul\":2267:2269   */\n      0x40\n        /* \"#utility.yul\":2256:2265   */\n      dup3\n        /* \"#utility.yul\":2252:2270   */\n      add\n        /* \"#utility.yul\":2244:2270   */\n      swap1\n      pop\n        /* \"#utility.yul\":2280:2351   */\n      tag_72\n        /* \"#utility.yul\":2348:2349   */\n      0x00\n        /* \"#utility.yul\":2337:2346   */\n      dup4\n        /* \"#utility.yul\":2333:2350   */\n      add\n        /* \"#utility.yul\":2324:2330   */\n      dup6\n        /* \"#utility.yul\":2280:2351   */\n      tag_35\n      jump\t// in\n    tag_72:\n        /* \"#utility.yul\":2361:2433   */\n      tag_73\n        /* \"#utility.yul\":2429:2431   */\n      0x20\n        /* \"#utility.yul\":2418:2427   */\n      dup4\n        /* \"#utility.yul\":2414:2432   */\n      add\n        /* \"#utility.yul\":2405:2411   */\n      dup5\n        /* \"#utility.yul\":2361:2433   */\n      tag_42\n      jump\t// in\n    tag_73:\n        /* \"#utility.yul\":2108:2440   */\n      swap4\n      swap3\n      pop\n      pop\n      pop\n      jump\t// out\n        /* \"#utility.yul\":2446:2523   */\n    tag_43:\n        /* \"#utility.yul\":2483:2490   */\n      0x00\n        /* \"#utility.yul\":2512:2517   */\n      dup2\n        /* \"#utility.yul\":2501:2517   */\n      swap1\n      pop\n        /* \"#utility.yul\":2446:2523   */\n      swap2\n      swap1\n      pop\n      jump\t// out\n        /* \"#utility.yul\":2529:2647   */\n    tag_44:\n        /* \"#utility.yul\":2616:2640   */\n      tag_76\n        /* \"#utility.yul\":2634:2639   */\n      dup2\n        /* \"#utility.yul\":2616:2640   */\n      tag_43\n      jump\t// in\n    tag_76:\n        /* \"#utility.yul\":2611:2614   */\n      dup3\n        /* \"#utility.yul\":2604:2641   */\n      mstore\n        /* \"#utility.yul\":2529:2647   */\n      pop\n      pop\n      jump\t// out\n        /* \"#utility.yul\":2653:2985   */\n    tag_32:\n        /* \"#utility.yul\":2774:2778   */\n      0x00\n        /* \"#utility.yul\":2812:2814   */\n      0x40\n        /* \"#utility.yul\":2801:2810   */\n      dup3\n        /* \"#utility.yul\":2797:2815   */\n      add\n        /* \"#utility.yul\":2789:2815   */\n      swap1\n      pop\n        /* \"#utility.yul\":2825:2896   */\n      tag_78\n        /* \"#utility.yul\":2893:2894   */\n      0x00\n        /* \"#utility.yul\":2882:2891   */\n      dup4\n        /* \"#utility.yul\":2878:2895   */\n      add\n        /* \"#utility.yul\":2869:2875   */\n      dup6\n        /* \"#utility.yul\":2825:2896   */\n      tag_35\n      jump\t// in\n    tag_78:\n        /* \"#utility.yul\":2906:2978   */\n      tag_79\n        /* \"#utility.yul\":2974:2976   */\n      0x20\n        /* \"#utility.yul\":2963:2972   */\n      dup4\n        /* \"#utility.yul\":2959:2977   */\n      add\n        /* \"#utility.yul\":2950:2956   */\n      dup5\n        /* \"#utility.yul\":2906:2978   */\n      tag_44\n      jump\t// in\n    tag_79:\n        /* \"#utility.yul\":2653:2985   */\n      swap4\n      swap3\n      pop\n      pop\n      pop\n      jump\t// out\n\n    auxdata: 0xa2646970667358221220ba3b6d84388c4657cca0392ca0eff4a89f799e6aefc805c70c7c13f78979fcd264736f6c634300081a0033\n}\n",
				"bytecode": {
					"linkReferences": {},
					"object": "608060405234801561000f575f80fd5b50600b5f80600173ffffffffffffffffffffffffffffffffffffffff1673ffffffffffffffffffffffffffffffffffffffff1681526020019081526020015f205f600273ffffffffffffffffffffffffffffffffffffffff1673ffffffffffffffffffffffffffffffffffffffff1681526020019081526020015f208190555060165f80600273ffffffffffffffffffffffffffffffffffffffff1673ffffffffffffffffffffffffffffffffffffffff1681526020019081526020015f205f600373ffffffffffffffffffffffffffffffffffffffff1673ffffffffffffffffffffffffffffffffffffffff1681526020019081526020015f208190555060215f80600373ffffffffffffffffffffffffffffffffffffffff1673ffffffffffffffffffffffffffffffffffffffff1681526020019081526020015f205f600173ffffffffffffffffffffffffffffffffffffffff1673ffffffffffffffffffffffffffffffffffffffff1681526020019081526020015f208190555061033c8061019a5f395ff3fe608060405234801561000f575f80fd5b5060043610610055575f3560e01c8063082687881461005957806315d20efc146100775780634ee9430d146100a7578063c1cbb453146100c5578063d0aecb4c146100f5575b5f80fd5b610061610113565b60405161006e91906101ea565b60405180910390f35b610091600480360381019061008c9190610231565b610118565b60405161009e9190610287565b60405180910390f35b6100af610182565b6040516100bc91906101ea565b60405180910390f35b6100df60048036038101906100da9190610231565b610187565b6040516100ec9190610287565b60405180910390f35b6100fd6101a6565b60405161010a91906101ea565b60405180910390f35b600181565b5f805f90505f84826040516020016101319291906102a0565b6040516020818303038152906040528051906020012090505f848260405160200161015d9291906102df565b6040516020818303038152906040528051906020012090508054935050505092915050565b600381565b5f602052815f5260405f20602052805f5260405f205f91509150505481565b600281565b5f73ffffffffffffffffffffffffffffffffffffffff82169050919050565b5f6101d4826101ab565b9050919050565b6101e4816101ca565b82525050565b5f6020820190506101fd5f8301846101db565b92915050565b5f80fd5b610210816101ca565b811461021a575f80fd5b50565b5f8135905061022b81610207565b92915050565b5f806040838503121561024757610246610203565b5b5f6102548582860161021d565b92505060206102658582860161021d565b9150509250929050565b5f819050919050565b6102818161026f565b82525050565b5f60208201905061029a5f830184610278565b92915050565b5f6040820190506102b35f8301856101db565b6102c06020830184610278565b9392505050565b5f819050919050565b6102d9816102c7565b82525050565b5f6040820190506102f25f8301856101db565b6102ff60208301846102d0565b939250505056fea2646970667358221220ba3b6d84388c4657cca0392ca0eff4a89f799e6aefc805c70c7c13f78979fcd264736f6c634300081a0033",
					"opcodes": "PUSH1 0x80 PUSH1 0x40 MSTORE CALLVALUE DUP1 ISZERO PUSH2 0xF JUMPI PUSH0 DUP1 REVERT JUMPDEST POP PUSH1 0xB PUSH0 DUP1 PUSH1 0x1 PUSH20 0xFFFFFFFFFFFFFFFFFFFFFFFFFFFFFFFFFFFFFFFF AND PUSH20 0xFFFFFFFFFFFFFFFFFFFFFFFFFFFFFFFFFFFFFFFF AND DUP2 MSTORE PUSH1 0x20 ADD SWAP1 DUP2 MSTORE PUSH1 0x20 ADD PUSH0 KECCAK256 PUSH0 PUSH1 0x2 PUSH20 0xFFFFFFFFFFFFFFFFFFFFFFFFFFFFFFFFFFFFFFFF AND PUSH20 0xFFFFFFFFFFFFFFFFFFFFFFFFFFFFFFFFFFFFFFFF AND DUP2 MSTORE PUSH1 0x20 ADD SWAP1 DUP2 MSTORE PUSH1 0x20 ADD PUSH0 KECCAK256 DUP2 SWAP1 SSTORE POP PUSH1 0x16 PUSH0 DUP1 PUSH1 0x2 PUSH20 0xFFFFFFFFFFFFFFFFFFFFFFFFFFFFFFFFFFFFFFFF AND PUSH20 0xFFFFFFFFFFFFFFFFFFFFFFFFFFFFFFFFFFFFFFFF AND DUP2 MSTORE PUSH1 0x20 ADD SWAP1 DUP2 MSTORE PUSH1 0x20 ADD PUSH0 KECCAK256 PUSH0 PUSH1 0x3 PUSH20 0xFFFFFFFFFFFFFFFFFFFFFFFFFFFFFFFFFFFFFFFF AND PUSH20 0xFFFFFFFFFFFFFFFFFFFFFFFFFFFFFFFFFFFFFFFF AND DUP2 MSTORE PUSH1 0x20 ADD SWAP1 DUP2 MSTORE PUSH1 0x20 ADD PUSH0 KECCAK256 DUP2 SWAP1 SSTORE POP PUSH1 0x21 PUSH0 DUP1 PUSH1 0x3 PUSH20 0xFFFFFFFFFFFFFFFFFFFFFFFFFFFFFFFFFFFFFFFF AND PUSH20 0xFFFFFFFFFFFFFFFFFFFFFFFFFFFFFFFFFFFFFFFF AND DUP2 MSTORE PUSH1 0x20 ADD SWAP1 DUP2 MSTORE PUSH1 0x20 ADD PUSH0 KECCAK256 PUSH0 PUSH1 0x1 PUSH20 0xFFFFFFFFFFFFFFFFFFFFFFFFFFFFFFFFFFFFFFFF AND PUSH20 0xFFFFFFFFFFFFFFFFFFFFFFFFFFFFFFFFFFFFFFFF AND DUP2 MSTORE PUSH1 0x20 ADD SWAP1 DUP2 MSTORE PUSH1 0x20 ADD PUSH0 KECCAK256 DUP2 SWAP1 SSTORE POP PUSH2 0x33C DUP1 PUSH2 0x19A PUSH0 CODECOPY PUSH0 RETURN INVALID PUSH1 0x80 PUSH1 0x40 MSTORE CALLVALUE DUP1 ISZERO PUSH2 0xF JUMPI PUSH0 DUP1 REVERT JUMPDEST POP PUSH1 0x4 CALLDATASIZE LT PUSH2 0x55 JUMPI PUSH0 CALLDATALOAD PUSH1 0xE0 SHR DUP1 PUSH4 0x8268788 EQ PUSH2 0x59 JUMPI DUP1 PUSH4 0x15D20EFC EQ PUSH2 0x77 JUMPI DUP1 PUSH4 0x4EE9430D EQ PUSH2 0xA7 JUMPI DUP1 PUSH4 0xC1CBB453 EQ PUSH2 0xC5 JUMPI DUP1 PUSH4 0xD0AECB4C EQ PUSH2 0xF5 JUMPI JUMPDEST PUSH0 DUP1 REVERT JUMPDEST PUSH2 0x61 PUSH2 0x113 JUMP JUMPDEST PUSH1 0x40 MLOAD PUSH2 0x6E SWAP2 SWAP1 PUSH2 0x1EA JUMP JUMPDEST PUSH1 0x40 MLOAD DUP1 SWAP2 SUB SWAP1 RETURN JUMPDEST PUSH2 0x91 PUSH1 0x4 DUP1 CALLDATASIZE SUB DUP2 ADD SWAP1 PUSH2 0x8C SWAP2 SWAP1 PUSH2 0x231 JUMP JUMPDEST PUSH2 0x118 JUMP JUMPDEST PUSH1 0x40 MLOAD PUSH2 0x9E SWAP2 SWAP1 PUSH2 0x287 JUMP JUMPDEST PUSH1 0x40 MLOAD DUP1 SWAP2 SUB SWAP1 RETURN JUMPDEST PUSH2 0xAF PUSH2 0x182 JUMP JUMPDEST PUSH1 0x40 MLOAD PUSH2 0xBC SWAP2 SWAP1 PUSH2 0x1EA JUMP JUMPDEST PUSH1 0x40 MLOAD DUP1 SWAP2 SUB SWAP1 RETURN JUMPDEST PUSH2 0xDF PUSH1 0x4 DUP1 CALLDATASIZE SUB DUP2 ADD SWAP1 PUSH2 0xDA SWAP2 SWAP1 PUSH2 0x231 JUMP JUMPDEST PUSH2 0x187 JUMP JUMPDEST PUSH1 0x40 MLOAD PUSH2 0xEC SWAP2 SWAP1 PUSH2 0x287 JUMP JUMPDEST PUSH1 0x40 MLOAD DUP1 SWAP2 SUB SWAP1 RETURN JUMPDEST PUSH2 0xFD PUSH2 0x1A6 JUMP JUMPDEST PUSH1 0x40 MLOAD PUSH2 0x10A SWAP2 SWAP1 PUSH2 0x1EA JUMP JUMPDEST PUSH1 0x40 MLOAD DUP1 SWAP2 SUB SWAP1 RETURN JUMPDEST PUSH1 0x1 DUP2 JUMP JUMPDEST PUSH0 DUP1 PUSH0 SWAP1 POP PUSH0 DUP5 DUP3 PUSH1 0x40 MLOAD PUSH1 0x20 ADD PUSH2 0x131 SWAP3 SWAP2 SWAP1 PUSH2 0x2A0 JUMP JUMPDEST PUSH1 0x40 MLOAD PUSH1 0x20 DUP2 DUP4 SUB SUB DUP2 MSTORE SWAP1 PUSH1 0x40 MSTORE DUP1 MLOAD SWAP1 PUSH1 0x20 ADD KECCAK256 SWAP1 POP PUSH0 DUP5 DUP3 PUSH1 0x40 MLOAD PUSH1 0x20 ADD PUSH2 0x15D SWAP3 SWAP2 SWAP1 PUSH2 0x2DF JUMP JUMPDEST PUSH1 0x40 MLOAD PUSH1 0x20 DUP2 DUP4 SUB SUB DUP2 MSTORE SWAP1 PUSH1 0x40 MSTORE DUP1 MLOAD SWAP1 PUSH1 0x20 ADD KECCAK256 SWAP1 POP DUP1 SLOAD SWAP4 POP POP POP POP SWAP3 SWAP2 POP POP JUMP JUMPDEST PUSH1 0x3 DUP2 JUMP JUMPDEST PUSH0 PUSH1 0x20 MSTORE DUP2 PUSH0 MSTORE PUSH1 0x40 PUSH0 KECCAK256 PUSH1 0x20 MSTORE DUP1 PUSH0 MSTORE PUSH1 0x40 PUSH0 KECCAK256 PUSH0 SWAP2 POP SWAP2 POP POP SLOAD DUP2 JUMP JUMPDEST PUSH1 0x2 DUP2 JUMP JUMPDEST PUSH0 PUSH20 0xFFFFFFFFFFFFFFFFFFFFFFFFFFFFFFFFFFFFFFFF DUP3 AND SWAP1 POP SWAP2 SWAP1 POP JUMP JUMPDEST PUSH0 PUSH2 0x1D4 DUP3 PUSH2 0x1AB JUMP JUMPDEST SWAP1 POP SWAP2 SWAP1 POP JUMP JUMPDEST PUSH2 0x1E4 DUP2 PUSH2 0x1CA JUMP JUMPDEST DUP3 MSTORE POP POP JUMP JUMPDEST PUSH0 PUSH1 0x20 DUP3 ADD SWAP1 POP PUSH2 0x1FD PUSH0 DUP4 ADD DUP5 PUSH2 0x1DB JUMP JUMPDEST SWAP3 SWAP2 POP POP JUMP JUMPDEST PUSH0 DUP1 REVERT JUMPDEST PUSH2 0x210 DUP2 PUSH2 0x1CA JUMP JUMPDEST DUP2 EQ PUSH2 0x21A JUMPI PUSH0 DUP1 REVERT JUMPDEST POP JUMP JUMPDEST PUSH0 DUP2 CALLDATALOAD SWAP1 POP PUSH2 0x22B DUP2 PUSH2 0x207 JUMP JUMPDEST SWAP3 SWAP2 POP POP JUMP JUMPDEST PUSH0 DUP1 PUSH1 0x40 DUP4 DUP6 SUB SLT ISZERO PUSH2 0x247 JUMPI PUSH2 0x246 PUSH2 0x203 JUMP JUMPDEST JUMPDEST PUSH0 PUSH2 0x254 DUP6 DUP3 DUP7 ADD PUSH2 0x21D JUMP JUMPDEST SWAP3 POP POP PUSH1 0x20 PUSH2 0x265 DUP6 DUP3 DUP7 ADD PUSH2 0x21D JUMP JUMPDEST SWAP2 POP POP SWAP3 POP SWAP3 SWAP1 POP JUMP JUMPDEST PUSH0 DUP2 SWAP1 POP SWAP2 SWAP1 POP JUMP JUMPDEST PUSH2 0x281 DUP2 PUSH2 0x26F JUMP JUMPDEST DUP3 MSTORE POP POP JUMP JUMPDEST PUSH0 PUSH1 0x20 DUP3 ADD SWAP1 POP PUSH2 0x29A PUSH0 DUP4 ADD DUP5 PUSH2 0x278 JUMP JUMPDEST SWAP3 SWAP2 POP POP JUMP JUMPDEST PUSH0 PUSH1 0x40 DUP3 ADD SWAP1 POP PUSH2 0x2B3 PUSH0 DUP4 ADD DUP6 PUSH2 0x1DB JUMP JUMPDEST PUSH2 0x2C0 PUSH1 0x20 DUP4 ADD DUP5 PUSH2 0x278 JUMP JUMPDEST SWAP4 SWAP3 POP POP POP JUMP JUMPDEST PUSH0 DUP2 SWAP1 POP SWAP2 SWAP1 POP JUMP JUMPDEST PUSH2 0x2D9 DUP2 PUSH2 0x2C7 JUMP JUMPDEST DUP3 MSTORE POP POP JUMP JUMPDEST PUSH0 PUSH1 0x40 DUP3 ADD SWAP1 POP PUSH2 0x2F2 PUSH0 DUP4 ADD DUP6 PUSH2 0x1DB JUMP JUMPDEST PUSH2 0x2FF PUSH1 0x20 DUP4 ADD DUP5 PUSH2 0x2D0 JUMP JUMPDEST SWAP4 SWAP3 POP POP POP JUMP INVALID LOG2 PUSH5 0x6970667358 0x22 SLT KECCAK256 0xBA EXTCODESIZE PUSH14 0x84388C4657CCA0392CA0EFF4A89F PUSH26 0x9E6AEFC805C70C7C13F78979FCD264736F6C634300081A003300 "
				},
				"gasEstimates": {
					"creation": {
						"codeDepositCost": "165600",
						"executionCost": "67076",
						"totalCost": "232676"
					},
					"external": {
						"ADDR_1()": "351",
						"ADDR_2()": "439",
						"ADDR_3()": "395",
						"map(address,address)": "infinite",
						"test_nested_mapping(address,address)": "infinite"
					}
				},
				"methodIdentifiers": {
					"ADDR_1()": "08268788",
					"ADDR_2()": "d0aecb4c",
					"ADDR_3()": "4ee9430d",
					"map(address,address)": "c1cbb453",
					"test_nested_mapping(address,address)": "15d20efc"
				}
			},
			"storageLayout": {
				"storage": [
					{
						"astId": 415,
						"contract": "EVMStorageLayout.sol:EVMStorageNestedMapping",
						"label": "map",
						"offset": 0,
						"slot": "0",
						"type": "t_mapping(t_address,t_mapping(t_address,t_uint256))"
					}
				],
				"types": {
					"t_address": {
						"encoding": "inplace",
						"label": "address",
						"numberOfBytes": "20"
					},
					"t_mapping(t_address,t_mapping(t_address,t_uint256))": {
						"encoding": "mapping",
						"key": "t_address",
						"label": "mapping(address => mapping(address => uint256))",
						"numberOfBytes": "32",
						"value": "t_mapping(t_address,t_uint256)"
					},
					"t_mapping(t_address,t_uint256)": {
						"encoding": "mapping",
						"key": "t_address",
						"label": "mapping(address => uint256)",
						"numberOfBytes": "32",
						"value": "t_uint256"
					},
					"t_uint256": {
						"encoding": "inplace",
						"label": "uint256",
						"numberOfBytes": "32"
					}
				}
			},
			"userdoc": {
				"kind": "user",
				"methods": {},
				"version": 1
			}
		}
	}
}