{
	"EVMStorageLayout.sol": {
		"EVMStoragePackedSlot": {
			"abi": [
				{
					"inputs": [],
					"name": "s_a",
					"outputs": [
						{
							"internalType": "uint128",
							"name": "",
							"type": "uint128"
						}
					],
					"stateMutability": "view",
					"type": "function"
				},
				{
					"inputs": [],
					"name": "s_addr",
					"outputs": [
						{
							"internalType": "address",
							"name": "",
							"type": "address"
						}
					],
					"stateMutability": "view",
					"type": "function"
				},
				{
					"inputs": [],
					"name": "s_b",
					"outputs": [
						{
							"internalType": "uint64",
							"name": "",
							"type": "uint64"
						}
					],
					"stateMutability": "view",
					"type": "function"
				},
				{
					"inputs": [],
					"name": "s_c",
					"outputs": [
						{
							"internalType": "uint32",
							"name": "",
							"type": "uint32"
						}
					],
					"stateMutability": "view",
					"type": "function"
				},
				{
					"inputs": [],
					"name": "s_d",
					"outputs": [
						{
							"internalType": "uint32",
							"name": "",
							"type": "uint32"
						}
					],
					"stateMutability": "view",
					"type": "function"
				},
				{
					"inputs": [],
					"name": "s_x",
					"outputs": [
						{
							"internalType": "uint64",
							"name": "",
							"type": "uint64"
						}
					],
					"stateMutability": "view",
					"type": "function"
				},
				{
					"inputs": [],
					"name": "s_y",
					"outputs": [
						{
							"internalType": "uint32",
							"name": "",
							"type": "uint32"
						}
					],
					"stateMutability": "view",
					"type": "function"
				},
				{
					"inputs": [],
					"name": "test_slot_0_offset",
					"outputs": [
						{
							"internalType": "uint256",
							"name": "a_offset",
							"type": "uint256"
						},
						{
							"internalType": "uint256",
							"name": "b_offset",
							"type": "uint256"
						},
						{
							"internalType": "uint256",
							"name": "c_offset",
							"type": "uint256"
						},
						{
							"internalType": "uint256",
							"name": "d_offset",
							"type": "uint256"
						}
					],
					"stateMutability": "pure",
					"type": "function"
				},
				{
					"inputs": [],
					"name": "test_slot_1_offset",
					"outputs": [
						{
							"internalType": "uint256",
							"name": "addr_offset",
							"type": "uint256"
						},
						{
							"internalType": "uint256",
							"name": "x_offset",
							"type": "uint256"
						},
						{
							"internalType": "uint256",
							"name": "y_offset",
							"type": "uint256"
						}
					],
					"stateMutability": "pure",
					"type": "function"
				},
				{
					"inputs": [],
					"name": "test_sstore",
					"outputs": [],
					"stateMutability": "nonpayable",
					"type": "function"
				},
				{
					"inputs": [],
					"name": "test_sstore_using_offset",
					"outputs": [],
					"stateMutability": "nonpayable",
					"type": "function"
				}
			],
			"devdoc": {
				"kind": "dev",
				"methods": {},
				"version": 1
			},
			"evm": {
				"assembly": "    /* \"EVMStorageLayout.sol\":3714:9113  contract EVMStoragePackedSlot {... */\n  mstore(0x40, 0x80)\n  callvalue\n  dup1\n  iszero\n  tag_1\n  jumpi\n  0x00\n  dup1\n  revert\ntag_1:\n  pop\n  dataSize(sub_0)\n  dup1\n  dataOffset(sub_0)\n  0x00\n  codecopy\n  0x00\n  return\nstop\n\nsub_0: assembly {\n        /* \"EVMStorageLayout.sol\":3714:9113  contract EVMStoragePackedSlot {... */\n      mstore(0x40, 0x80)\n      callvalue\n      dup1\n      iszero\n      tag_1\n      jumpi\n      0x00\n      dup1\n      revert\n    tag_1:\n      pop\n      jumpi(tag_2, lt(calldatasize, 0x04))\n      shr(0xe0, calldataload(0x00))\n      dup1\n      0x6c7594ff\n      gt\n      tag_14\n      jumpi\n      dup1\n      0x6c7594ff\n      eq\n      tag_8\n      jumpi\n      dup1\n      0x7ae697db\n      eq\n      tag_9\n      jumpi\n      dup1\n      0x9ebeb8eb\n      eq\n      tag_10\n      jumpi\n      dup1\n      0xddc87aa1\n      eq\n      tag_11\n      jumpi\n      dup1\n      0xe79aa60a\n      eq\n      tag_12\n      jumpi\n      dup1\n      0xfcc8e5e1\n      eq\n      tag_13\n      jumpi\n      jump(tag_2)\n    tag_14:\n      dup1\n      0x1dd66ebc\n      eq\n      tag_3\n      jumpi\n      dup1\n      0x22797bb1\n      eq\n      tag_4\n      jumpi\n      dup1\n      0x4f3080a9\n      eq\n      tag_5\n      jumpi\n      dup1\n      0x51a5467e\n      eq\n      tag_6\n      jumpi\n      dup1\n      0x5c86ad78\n      eq\n      tag_7\n      jumpi\n    tag_2:\n      0x00\n      dup1\n      revert\n        /* \"EVMStorageLayout.sol\":5964:6549  function test_slot_0_offset()... */\n    tag_3:\n      tag_15\n      tag_16\n      jump\t// in\n    tag_15:\n      mload(0x40)\n      tag_17\n      swap5\n      swap4\n      swap3\n      swap2\n      swap1\n      tag_18\n      jump\t// in\n    tag_17:\n      mload(0x40)\n      dup1\n      swap2\n      sub\n      swap1\n      return\n        /* \"EVMStorageLayout.sol\":4022:4043  address public s_addr */\n    tag_4:\n      tag_19\n      tag_20\n      jump\t// in\n    tag_19:\n      mload(0x40)\n      tag_21\n      swap2\n      swap1\n      tag_22\n      jump\t// in\n    tag_21:\n      mload(0x40)\n      dup1\n      swap2\n      sub\n      swap1\n      return\n        /* \"EVMStorageLayout.sol\":4116:5956  function test_sstore() public {... */\n    tag_5:\n      tag_23\n      tag_24\n      jump\t// in\n    tag_23:\n      stop\n        /* \"EVMStorageLayout.sol\":3955:3972  uint32 public s_d */\n    tag_6:\n      tag_25\n      tag_26\n      jump\t// in\n    tag_25:\n      mload(0x40)\n      tag_27\n      swap2\n      swap1\n      tag_28\n      jump\t// in\n    tag_27:\n      mload(0x40)\n      dup1\n      swap2\n      sub\n      swap1\n      return\n        /* \"EVMStorageLayout.sol\":4090:4107  uint32 public s_y */\n    tag_7:\n      tag_29\n      tag_30\n      jump\t// in\n    tag_29:\n      mload(0x40)\n      tag_31\n      swap2\n      swap1\n      tag_28\n      jump\t// in\n    tag_31:\n      mload(0x40)\n      dup1\n      swap2\n      sub\n      swap1\n      return\n        /* \"EVMStorageLayout.sol\":3907:3924  uint64 public s_b */\n    tag_8:\n      tag_32\n      tag_33\n      jump\t// in\n    tag_32:\n      mload(0x40)\n      tag_34\n      swap2\n      swap1\n      tag_35\n      jump\t// in\n    tag_34:\n      mload(0x40)\n      dup1\n      swap2\n      sub\n      swap1\n      return\n        /* \"EVMStorageLayout.sol\":6557:6930  function test_slot_1_offset()... */\n    tag_9:\n      tag_36\n      tag_37\n      jump\t// in\n    tag_36:\n      mload(0x40)\n      tag_38\n      swap4\n      swap3\n      swap2\n      swap1\n      tag_39\n      jump\t// in\n    tag_38:\n      mload(0x40)\n      dup1\n      swap2\n      sub\n      swap1\n      return\n        /* \"EVMStorageLayout.sol\":3882:3900  uint128 public s_a */\n    tag_10:\n      tag_40\n      tag_41\n      jump\t// in\n    tag_40:\n      mload(0x40)\n      tag_42\n      swap2\n      swap1\n      tag_43\n      jump\t// in\n    tag_42:\n      mload(0x40)\n      dup1\n      swap2\n      sub\n      swap1\n      return\n        /* \"EVMStorageLayout.sol\":4066:4083  uint64 public s_x */\n    tag_11:\n      tag_44\n      tag_45\n      jump\t// in\n    tag_44:\n      mload(0x40)\n      tag_46\n      swap2\n      swap1\n      tag_35\n      jump\t// in\n    tag_46:\n      mload(0x40)\n      dup1\n      swap2\n      sub\n      swap1\n      return\n        /* \"EVMStorageLayout.sol\":6962:9110  function test_sstore_using_offset() public {... */\n    tag_12:\n      tag_47\n      tag_48\n      jump\t// in\n    tag_47:\n      stop\n        /* \"EVMStorageLayout.sol\":3931:3948  uint32 public s_c */\n    tag_13:\n      tag_49\n      tag_50\n      jump\t// in\n    tag_49:\n      mload(0x40)\n      tag_51\n      swap2\n      swap1\n      tag_28\n      jump\t// in\n    tag_51:\n      mload(0x40)\n      dup1\n      swap2\n      sub\n      swap1\n      return\n        /* \"EVMStorageLayout.sol\":5964:6549  function test_slot_0_offset()... */\n    tag_16:\n        /* \"EVMStorageLayout.sol\":6056:6072  uint256 a_offset */\n      0x00\n        /* \"EVMStorageLayout.sol\":6087:6103  uint256 b_offset */\n      dup1\n        /* \"EVMStorageLayout.sol\":6118:6134  uint256 c_offset */\n      0x00\n        /* \"EVMStorageLayout.sol\":6149:6165  uint256 d_offset */\n      dup1\n        /* \"EVMStorageLayout.sol\":6413:6423  s_a.offset */\n      0x00\n        /* \"EVMStorageLayout.sol\":6401:6423  a_offset := s_a.offset */\n      swap4\n      pop\n        /* \"EVMStorageLayout.sol\":6449:6459  s_b.offset */\n      0x10\n        /* \"EVMStorageLayout.sol\":6437:6459  b_offset := s_b.offset */\n      swap3\n      pop\n        /* \"EVMStorageLayout.sol\":6485:6495  s_c.offset */\n      0x18\n        /* \"EVMStorageLayout.sol\":6473:6495  c_offset := s_c.offset */\n      swap2\n      pop\n        /* \"EVMStorageLayout.sol\":6521:6531  s_d.offset */\n      0x1c\n        /* \"EVMStorageLayout.sol\":6509:6531  d_offset := s_d.offset */\n      swap1\n      pop\n        /* \"EVMStorageLayout.sol\":5964:6549  function test_slot_0_offset()... */\n      swap1\n      swap2\n      swap3\n      swap4\n      jump\t// out\n        /* \"EVMStorageLayout.sol\":4022:4043  address public s_addr */\n    tag_20:\n      0x01\n      0x00\n      swap1\n      sload\n      swap1\n      0x0100\n      exp\n      swap1\n      div\n      0xffffffffffffffffffffffffffffffffffffffff\n      and\n      dup2\n      jump\t// out\n        /* \"EVMStorageLayout.sol\":4116:5956  function test_sstore() public {... */\n    tag_24:\n        /* \"EVMStorageLayout.sol\":4237:4238  0 */\n      0x00\n        /* \"EVMStorageLayout.sol\":4231:4239  sload(0) */\n      sload\n        /* \"EVMStorageLayout.sol\":4580:4581  1 */\n      0x01\n        /* \"EVMStorageLayout.sol\":4576:4577  1 */\n      dup1\n        /* \"EVMStorageLayout.sol\":4571:4574  128 */\n      0x80\n        /* \"EVMStorageLayout.sol\":4567:4578  shl(128, 1) */\n      shl\n        /* \"EVMStorageLayout.sol\":4563:4582  sub(shl(128, 1), 1) */\n      sub\n        /* \"EVMStorageLayout.sol\":4559:4583  not(sub(shl(128, 1), 1)) */\n      not\n        /* \"EVMStorageLayout.sol\":4653:4659  mask_a */\n      dup1\n        /* \"EVMStorageLayout.sol\":4650:4651  v */\n      dup3\n        /* \"EVMStorageLayout.sol\":4646:4660  and(v, mask_a) */\n      and\n        /* \"EVMStorageLayout.sol\":4641:4660  v := and(v, mask_a) */\n      swap2\n      pop\n        /* \"EVMStorageLayout.sol\":4714:4716  11 */\n      0x0b\n        /* \"EVMStorageLayout.sol\":4711:4712  v */\n      dup3\n        /* \"EVMStorageLayout.sol\":4708:4717  or(v, 11) */\n      or\n        /* \"EVMStorageLayout.sol\":4703:4717  v := or(v, 11) */\n      swap2\n      pop\n        /* \"EVMStorageLayout.sol\":4927:4928  1 */\n      0x01\n        /* \"EVMStorageLayout.sol\":4923:4924  1 */\n      dup1\n        /* \"EVMStorageLayout.sol\":4919:4921  64 */\n      0x40\n        /* \"EVMStorageLayout.sol\":4915:4925  shl(64, 1) */\n      shl\n        /* \"EVMStorageLayout.sol\":4911:4929  sub(shl(64, 1), 1) */\n      sub\n        /* \"EVMStorageLayout.sol\":4906:4909  128 */\n      0x80\n        /* \"EVMStorageLayout.sol\":4902:4930  shl(128, sub(shl(64, 1), 1)) */\n      shl\n        /* \"EVMStorageLayout.sol\":4898:4931  not(shl(128, sub(shl(64, 1), 1))) */\n      not\n        /* \"EVMStorageLayout.sol\":5040:5046  mask_b */\n      dup1\n        /* \"EVMStorageLayout.sol\":5037:5038  v */\n      dup4\n        /* \"EVMStorageLayout.sol\":5033:5047  and(v, mask_b) */\n      and\n        /* \"EVMStorageLayout.sol\":5028:5047  v := and(v, mask_b) */\n      swap3\n      pop\n        /* \"EVMStorageLayout.sol\":5081:5083  22 */\n      0x16\n        /* \"EVMStorageLayout.sol\":5076:5079  128 */\n      0x80\n        /* \"EVMStorageLayout.sol\":5072:5084  shl(128, 22) */\n      shl\n        /* \"EVMStorageLayout.sol\":5069:5070  v */\n      dup4\n        /* \"EVMStorageLayout.sol\":5066:5085  or(v, shl(128, 22)) */\n      or\n        /* \"EVMStorageLayout.sol\":5061:5085  v := or(v, shl(128, 22)) */\n      swap3\n      pop\n        /* \"EVMStorageLayout.sol\":5319:5320  1 */\n      0x01\n        /* \"EVMStorageLayout.sol\":5315:5316  1 */\n      dup1\n        /* \"EVMStorageLayout.sol\":5311:5313  32 */\n      0x20\n        /* \"EVMStorageLayout.sol\":5307:5317  shl(32, 1) */\n      shl\n        /* \"EVMStorageLayout.sol\":5303:5321  sub(shl(32, 1), 1) */\n      sub\n        /* \"EVMStorageLayout.sol\":5298:5301  192 */\n      0xc0\n        /* \"EVMStorageLayout.sol\":5294:5322  shl(192, sub(shl(32, 1), 1)) */\n      shl\n        /* \"EVMStorageLayout.sol\":5290:5323  not(shl(192, sub(shl(32, 1), 1))) */\n      not\n        /* \"EVMStorageLayout.sol\":5432:5438  mask_c */\n      dup1\n        /* \"EVMStorageLayout.sol\":5429:5430  v */\n      dup5\n        /* \"EVMStorageLayout.sol\":5425:5439  and(v, mask_c) */\n      and\n        /* \"EVMStorageLayout.sol\":5420:5439  v := and(v, mask_c) */\n      swap4\n      pop\n        /* \"EVMStorageLayout.sol\":5473:5475  33 */\n      0x21\n        /* \"EVMStorageLayout.sol\":5468:5471  192 */\n      0xc0\n        /* \"EVMStorageLayout.sol\":5464:5476  shl(192, 33) */\n      shl\n        /* \"EVMStorageLayout.sol\":5461:5462  v */\n      dup5\n        /* \"EVMStorageLayout.sol\":5458:5477  or(v, shl(192, 33)) */\n      or\n        /* \"EVMStorageLayout.sol\":5453:5477  v := or(v, shl(192, 33)) */\n      swap4\n      pop\n        /* \"EVMStorageLayout.sol\":5711:5712  1 */\n      0x01\n        /* \"EVMStorageLayout.sol\":5707:5708  1 */\n      dup1\n        /* \"EVMStorageLayout.sol\":5703:5705  32 */\n      0x20\n        /* \"EVMStorageLayout.sol\":5699:5709  shl(32, 1) */\n      shl\n        /* \"EVMStorageLayout.sol\":5695:5713  sub(shl(32, 1), 1) */\n      sub\n        /* \"EVMStorageLayout.sol\":5690:5693  224 */\n      0xe0\n        /* \"EVMStorageLayout.sol\":5686:5714  shl(224, sub(shl(32, 1), 1)) */\n      shl\n        /* \"EVMStorageLayout.sol\":5682:5715  not(shl(224, sub(shl(32, 1), 1))) */\n      not\n        /* \"EVMStorageLayout.sol\":5824:5830  mask_d */\n      dup1\n        /* \"EVMStorageLayout.sol\":5821:5822  v */\n      dup6\n        /* \"EVMStorageLayout.sol\":5817:5831  and(v, mask_d) */\n      and\n        /* \"EVMStorageLayout.sol\":5812:5831  v := and(v, mask_d) */\n      swap5\n      pop\n        /* \"EVMStorageLayout.sol\":5865:5867  44 */\n      0x2c\n        /* \"EVMStorageLayout.sol\":5860:5863  224 */\n      0xe0\n        /* \"EVMStorageLayout.sol\":5856:5868  shl(224, 44) */\n      shl\n        /* \"EVMStorageLayout.sol\":5853:5854  v */\n      dup6\n        /* \"EVMStorageLayout.sol\":5850:5869  or(v, shl(224, 44)) */\n      or\n        /* \"EVMStorageLayout.sol\":5845:5869  v := or(v, shl(224, 44)) */\n      swap5\n      pop\n        /* \"EVMStorageLayout.sol\":5936:5937  v */\n      dup5\n        /* \"EVMStorageLayout.sol\":5933:5934  0 */\n      0x00\n        /* \"EVMStorageLayout.sol\":5926:5938  sstore(0, v) */\n      sstore\n        /* \"EVMStorageLayout.sol\":4166:5949  {... */\n      pop\n      pop\n      pop\n      pop\n      pop\n        /* \"EVMStorageLayout.sol\":4116:5956  function test_sstore() public {... */\n      jump\t// out\n        /* \"EVMStorageLayout.sol\":3955:3972  uint32 public s_d */\n    tag_26:\n      0x00\n      0x1c\n      swap1\n      sload\n      swap1\n      0x0100\n      exp\n      swap1\n      div\n      0xffffffff\n      and\n      dup2\n      jump\t// out\n        /* \"EVMStorageLayout.sol\":4090:4107  uint32 public s_y */\n    tag_30:\n      0x01\n      0x1c\n      swap1\n      sload\n      swap1\n      0x0100\n      exp\n      swap1\n      div\n      0xffffffff\n      and\n      dup2\n      jump\t// out\n        /* \"EVMStorageLayout.sol\":3907:3924  uint64 public s_b */\n    tag_33:\n      0x00\n      0x10\n      swap1\n      sload\n      swap1\n      0x0100\n      exp\n      swap1\n      div\n      0xffffffffffffffff\n      and\n      dup2\n      jump\t// out\n        /* \"EVMStorageLayout.sol\":6557:6930  function test_slot_1_offset()... */\n    tag_37:\n        /* \"EVMStorageLayout.sol\":6635:6654  uint256 addr_offset */\n      0x00\n        /* \"EVMStorageLayout.sol\":6656:6672  uint256 x_offset */\n      dup1\n        /* \"EVMStorageLayout.sol\":6674:6690  uint256 y_offset */\n      0x00\n        /* \"EVMStorageLayout.sol\":6827:6840  s_addr.offset */\n      dup1\n        /* \"EVMStorageLayout.sol\":6812:6840  addr_offset := s_addr.offset */\n      swap3\n      pop\n        /* \"EVMStorageLayout.sol\":6866:6876  s_x.offset */\n      0x14\n        /* \"EVMStorageLayout.sol\":6854:6876  x_offset := s_x.offset */\n      swap2\n      pop\n        /* \"EVMStorageLayout.sol\":6902:6912  s_y.offset */\n      0x1c\n        /* \"EVMStorageLayout.sol\":6890:6912  y_offset := s_y.offset */\n      swap1\n      pop\n        /* \"EVMStorageLayout.sol\":6557:6930  function test_slot_1_offset()... */\n      swap1\n      swap2\n      swap3\n      jump\t// out\n        /* \"EVMStorageLayout.sol\":3882:3900  uint128 public s_a */\n    tag_41:\n      0x00\n      dup1\n      sload\n      swap1\n      0x0100\n      exp\n      swap1\n      div\n      0xffffffffffffffffffffffffffffffff\n      and\n      dup2\n      jump\t// out\n        /* \"EVMStorageLayout.sol\":4066:4083  uint64 public s_x */\n    tag_45:\n      0x01\n      0x14\n      swap1\n      sload\n      swap1\n      0x0100\n      exp\n      swap1\n      div\n      0xffffffffffffffff\n      and\n      dup2\n      jump\t// out\n        /* \"EVMStorageLayout.sol\":6962:9110  function test_sstore_using_offset() public {... */\n    tag_48:\n        /* \"EVMStorageLayout.sol\":7280:7288  s_a.slot */\n      0x00\n        /* \"EVMStorageLayout.sol\":7274:7289  sload(s_a.slot) */\n      sload\n        /* \"EVMStorageLayout.sol\":7631:7632  1 */\n      0x01\n        /* \"EVMStorageLayout.sol\":7627:7628  1 */\n      dup1\n        /* \"EVMStorageLayout.sol\":7622:7625  128 */\n      0x80\n        /* \"EVMStorageLayout.sol\":7618:7629  shl(128, 1) */\n      shl\n        /* \"EVMStorageLayout.sol\":7614:7633  sub(shl(128, 1), 1) */\n      sub\n        /* \"EVMStorageLayout.sol\":7610:7634  not(sub(shl(128, 1), 1)) */\n      not\n        /* \"EVMStorageLayout.sol\":7704:7710  mask_a */\n      dup1\n        /* \"EVMStorageLayout.sol\":7701:7702  v */\n      dup3\n        /* \"EVMStorageLayout.sol\":7697:7711  and(v, mask_a) */\n      and\n        /* \"EVMStorageLayout.sol\":7692:7711  v := and(v, mask_a) */\n      swap2\n      pop\n        /* \"EVMStorageLayout.sol\":7764:7767  111 */\n      0x6f\n        /* \"EVMStorageLayout.sol\":7761:7762  v */\n      dup3\n        /* \"EVMStorageLayout.sol\":7758:7768  or(v, 111) */\n      or\n        /* \"EVMStorageLayout.sol\":7753:7768  v := or(v, 111) */\n      swap2\n      pop\n        /* \"EVMStorageLayout.sol\":7994:7995  1 */\n      0x01\n        /* \"EVMStorageLayout.sol\":7990:7991  1 */\n      dup1\n        /* \"EVMStorageLayout.sol\":7986:7988  64 */\n      0x40\n        /* \"EVMStorageLayout.sol\":7982:7992  shl(64, 1) */\n      shl\n        /* \"EVMStorageLayout.sol\":7978:7996  sub(shl(64, 1), 1) */\n      sub\n        /* \"EVMStorageLayout.sol\":7974:7975  8 */\n      0x08\n        /* \"EVMStorageLayout.sol\":7962:7972  s_b.offset */\n      0x10\n        /* \"EVMStorageLayout.sol\":7958:7976  mul(s_b.offset, 8) */\n      mul\n        /* \"EVMStorageLayout.sol\":7954:7997  shl(mul(s_b.offset, 8), sub(shl(64, 1), 1)) */\n      shl\n        /* \"EVMStorageLayout.sol\":7950:7998  not(shl(mul(s_b.offset, 8), sub(shl(64, 1), 1))) */\n      not\n        /* \"EVMStorageLayout.sol\":8107:8113  mask_b */\n      dup1\n        /* \"EVMStorageLayout.sol\":8104:8105  v */\n      dup4\n        /* \"EVMStorageLayout.sol\":8100:8114  and(v, mask_b) */\n      and\n        /* \"EVMStorageLayout.sol\":8095:8114  v := and(v, mask_b) */\n      swap3\n      pop\n        /* \"EVMStorageLayout.sol\":8163:8166  222 */\n      0xde\n        /* \"EVMStorageLayout.sol\":8159:8160  8 */\n      0x08\n        /* \"EVMStorageLayout.sol\":8147:8157  s_b.offset */\n      0x10\n        /* \"EVMStorageLayout.sol\":8143:8161  mul(s_b.offset, 8) */\n      mul\n        /* \"EVMStorageLayout.sol\":8139:8167  shl(mul(s_b.offset, 8), 222) */\n      shl\n        /* \"EVMStorageLayout.sol\":8136:8137  v */\n      dup4\n        /* \"EVMStorageLayout.sol\":8133:8168  or(v, shl(mul(s_b.offset, 8), 222)) */\n      or\n        /* \"EVMStorageLayout.sol\":8128:8168  v := or(v, shl(mul(s_b.offset, 8), 222)) */\n      swap3\n      pop\n        /* \"EVMStorageLayout.sol\":8418:8419  1 */\n      0x01\n        /* \"EVMStorageLayout.sol\":8414:8415  1 */\n      dup1\n        /* \"EVMStorageLayout.sol\":8410:8412  32 */\n      0x20\n        /* \"EVMStorageLayout.sol\":8406:8416  shl(32, 1) */\n      shl\n        /* \"EVMStorageLayout.sol\":8402:8420  sub(shl(32, 1), 1) */\n      sub\n        /* \"EVMStorageLayout.sol\":8398:8399  8 */\n      0x08\n        /* \"EVMStorageLayout.sol\":8386:8396  s_c.offset */\n      0x18\n        /* \"EVMStorageLayout.sol\":8382:8400  mul(s_c.offset, 8) */\n      mul\n        /* \"EVMStorageLayout.sol\":8378:8421  shl(mul(s_c.offset, 8), sub(shl(32, 1), 1)) */\n      shl\n        /* \"EVMStorageLayout.sol\":8374:8422  not(shl(mul(s_c.offset, 8), sub(shl(32, 1), 1))) */\n      not\n        /* \"EVMStorageLayout.sol\":8531:8537  mask_c */\n      dup1\n        /* \"EVMStorageLayout.sol\":8528:8529  v */\n      dup5\n        /* \"EVMStorageLayout.sol\":8524:8538  and(v, mask_c) */\n      and\n        /* \"EVMStorageLayout.sol\":8519:8538  v := and(v, mask_c) */\n      swap4\n      pop\n        /* \"EVMStorageLayout.sol\":8587:8590  333 */\n      0x014d\n        /* \"EVMStorageLayout.sol\":8583:8584  8 */\n      0x08\n        /* \"EVMStorageLayout.sol\":8571:8581  s_c.offset */\n      0x18\n        /* \"EVMStorageLayout.sol\":8567:8585  mul(s_c.offset, 8) */\n      mul\n        /* \"EVMStorageLayout.sol\":8563:8591  shl(mul(s_c.offset, 8), 333) */\n      shl\n        /* \"EVMStorageLayout.sol\":8560:8561  v */\n      dup5\n        /* \"EVMStorageLayout.sol\":8557:8592  or(v, shl(mul(s_c.offset, 8), 333)) */\n      or\n        /* \"EVMStorageLayout.sol\":8552:8592  v := or(v, shl(mul(s_c.offset, 8), 333)) */\n      swap4\n      pop\n        /* \"EVMStorageLayout.sol\":8842:8843  1 */\n      0x01\n        /* \"EVMStorageLayout.sol\":8838:8839  1 */\n      dup1\n        /* \"EVMStorageLayout.sol\":8834:8836  32 */\n      0x20\n        /* \"EVMStorageLayout.sol\":8830:8840  shl(32, 1) */\n      shl\n        /* \"EVMStorageLayout.sol\":8826:8844  sub(shl(32, 1), 1) */\n      sub\n        /* \"EVMStorageLayout.sol\":8822:8823  8 */\n      0x08\n        /* \"EVMStorageLayout.sol\":8810:8820  s_d.offset */\n      0x1c\n        /* \"EVMStorageLayout.sol\":8806:8824  mul(s_d.offset, 8) */\n      mul\n        /* \"EVMStorageLayout.sol\":8802:8845  shl(mul(s_d.offset, 8), sub(shl(32, 1), 1)) */\n      shl\n        /* \"EVMStorageLayout.sol\":8798:8846  not(shl(mul(s_d.offset, 8), sub(shl(32, 1), 1))) */\n      not\n        /* \"EVMStorageLayout.sol\":8955:8961  mask_d */\n      dup1\n        /* \"EVMStorageLayout.sol\":8952:8953  v */\n      dup6\n        /* \"EVMStorageLayout.sol\":8948:8962  and(v, mask_d) */\n      and\n        /* \"EVMStorageLayout.sol\":8943:8962  v := and(v, mask_d) */\n      swap5\n      pop\n        /* \"EVMStorageLayout.sol\":9011:9014  444 */\n      0x01bc\n        /* \"EVMStorageLayout.sol\":9007:9008  8 */\n      0x08\n        /* \"EVMStorageLayout.sol\":8995:9005  s_d.offset */\n      0x1c\n        /* \"EVMStorageLayout.sol\":8991:9009  mul(s_d.offset, 8) */\n      mul\n        /* \"EVMStorageLayout.sol\":8987:9015  shl(mul(s_d.offset, 8), 444) */\n      shl\n        /* \"EVMStorageLayout.sol\":8984:8985  v */\n      dup6\n        /* \"EVMStorageLayout.sol\":8981:9016  or(v, shl(mul(s_d.offset, 8), 444)) */\n      or\n        /* \"EVMStorageLayout.sol\":8976:9016  v := or(v, shl(mul(s_d.offset, 8), 444)) */\n      swap5\n      pop\n        /* \"EVMStorageLayout.sol\":9090:9091  v */\n      dup5\n        /* \"EVMStorageLayout.sol\":9080:9088  s_a.slot */\n      0x00\n        /* \"EVMStorageLayout.sol\":9073:9092  sstore(s_a.slot, v) */\n      sstore\n        /* \"EVMStorageLayout.sol\":7209:9103  {... */\n      pop\n      pop\n      pop\n      pop\n      pop\n        /* \"EVMStorageLayout.sol\":6962:9110  function test_sstore_using_offset() public {... */\n      jump\t// out\n        /* \"EVMStorageLayout.sol\":3931:3948  uint32 public s_c */\n    tag_50:\n      0x00\n      0x18\n      swap1\n      sload\n      swap1\n      0x0100\n      exp\n      swap1\n      div\n      0xffffffff\n      and\n      dup2\n      jump\t// out\n        /* \"#utility.yul\":7:84   */\n    tag_56:\n        /* \"#utility.yul\":44:51   */\n      0x00\n        /* \"#utility.yul\":73:78   */\n      dup2\n        /* \"#utility.yul\":62:78   */\n      swap1\n      pop\n        /* \"#utility.yul\":7:84   */\n      swap2\n      swap1\n      pop\n      jump\t// out\n        /* \"#utility.yul\":90:208   */\n    tag_57:\n        /* \"#utility.yul\":177:201   */\n      tag_70\n        /* \"#utility.yul\":195:200   */\n      dup2\n        /* \"#utility.yul\":177:201   */\n      tag_56\n      jump\t// in\n    tag_70:\n        /* \"#utility.yul\":172:175   */\n      dup3\n        /* \"#utility.yul\":165:202   */\n      mstore\n        /* \"#utility.yul\":90:208   */\n      pop\n      pop\n      jump\t// out\n        /* \"#utility.yul\":214:767   */\n    tag_18:\n        /* \"#utility.yul\":391:395   */\n      0x00\n        /* \"#utility.yul\":429:432   */\n      0x80\n        /* \"#utility.yul\":418:427   */\n      dup3\n        /* \"#utility.yul\":414:433   */\n      add\n        /* \"#utility.yul\":406:433   */\n      swap1\n      pop\n        /* \"#utility.yul\":443:514   */\n      tag_72\n        /* \"#utility.yul\":511:512   */\n      0x00\n        /* \"#utility.yul\":500:509   */\n      dup4\n        /* \"#utility.yul\":496:513   */\n      add\n        /* \"#utility.yul\":487:493   */\n      dup8\n        /* \"#utility.yul\":443:514   */\n      tag_57\n      jump\t// in\n    tag_72:\n        /* \"#utility.yul\":524:596   */\n      tag_73\n        /* \"#utility.yul\":592:594   */\n      0x20\n        /* \"#utility.yul\":581:590   */\n      dup4\n        /* \"#utility.yul\":577:595   */\n      add\n        /* \"#utility.yul\":568:574   */\n      dup7\n        /* \"#utility.yul\":524:596   */\n      tag_57\n      jump\t// in\n    tag_73:\n        /* \"#utility.yul\":606:678   */\n      tag_74\n        /* \"#utility.yul\":674:676   */\n      0x40\n        /* \"#utility.yul\":663:672   */\n      dup4\n        /* \"#utility.yul\":659:677   */\n      add\n        /* \"#utility.yul\":650:656   */\n      dup6\n        /* \"#utility.yul\":606:678   */\n      tag_57\n      jump\t// in\n    tag_74:\n        /* \"#utility.yul\":688:760   */\n      tag_75\n        /* \"#utility.yul\":756:758   */\n      0x60\n        /* \"#utility.yul\":745:754   */\n      dup4\n        /* \"#utility.yul\":741:759   */\n      add\n        /* \"#utility.yul\":732:738   */\n      dup5\n        /* \"#utility.yul\":688:760   */\n      tag_57\n      jump\t// in\n    tag_75:\n        /* \"#utility.yul\":214:767   */\n      swap6\n      swap5\n      pop\n      pop\n      pop\n      pop\n      pop\n      jump\t// out\n        /* \"#utility.yul\":773:899   */\n    tag_58:\n        /* \"#utility.yul\":810:817   */\n      0x00\n        /* \"#utility.yul\":850:892   */\n      0xffffffffffffffffffffffffffffffffffffffff\n        /* \"#utility.yul\":843:848   */\n      dup3\n        /* \"#utility.yul\":839:893   */\n      and\n        /* \"#utility.yul\":828:893   */\n      swap1\n      pop\n        /* \"#utility.yul\":773:899   */\n      swap2\n      swap1\n      pop\n      jump\t// out\n        /* \"#utility.yul\":905:1001   */\n    tag_59:\n        /* \"#utility.yul\":942:949   */\n      0x00\n        /* \"#utility.yul\":971:995   */\n      tag_78\n        /* \"#utility.yul\":989:994   */\n      dup3\n        /* \"#utility.yul\":971:995   */\n      tag_58\n      jump\t// in\n    tag_78:\n        /* \"#utility.yul\":960:995   */\n      swap1\n      pop\n        /* \"#utility.yul\":905:1001   */\n      swap2\n      swap1\n      pop\n      jump\t// out\n        /* \"#utility.yul\":1007:1125   */\n    tag_60:\n        /* \"#utility.yul\":1094:1118   */\n      tag_80\n        /* \"#utility.yul\":1112:1117   */\n      dup2\n        /* \"#utility.yul\":1094:1118   */\n      tag_59\n      jump\t// in\n    tag_80:\n        /* \"#utility.yul\":1089:1092   */\n      dup3\n        /* \"#utility.yul\":1082:1119   */\n      mstore\n        /* \"#utility.yul\":1007:1125   */\n      pop\n      pop\n      jump\t// out\n        /* \"#utility.yul\":1131:1353   */\n    tag_22:\n        /* \"#utility.yul\":1224:1228   */\n      0x00\n        /* \"#utility.yul\":1262:1264   */\n      0x20\n        /* \"#utility.yul\":1251:1260   */\n      dup3\n        /* \"#utility.yul\":1247:1265   */\n      add\n        /* \"#utility.yul\":1239:1265   */\n      swap1\n      pop\n        /* \"#utility.yul\":1275:1346   */\n      tag_82\n        /* \"#utility.yul\":1343:1344   */\n      0x00\n        /* \"#utility.yul\":1332:1341   */\n      dup4\n        /* \"#utility.yul\":1328:1345   */\n      add\n        /* \"#utility.yul\":1319:1325   */\n      dup5\n        /* \"#utility.yul\":1275:1346   */\n      tag_60\n      jump\t// in\n    tag_82:\n        /* \"#utility.yul\":1131:1353   */\n      swap3\n      swap2\n      pop\n      pop\n      jump\t// out\n        /* \"#utility.yul\":1359:1452   */\n    tag_61:\n        /* \"#utility.yul\":1395:1402   */\n      0x00\n        /* \"#utility.yul\":1435:1445   */\n      0xffffffff\n        /* \"#utility.yul\":1428:1433   */\n      dup3\n        /* \"#utility.yul\":1424:1446   */\n      and\n        /* \"#utility.yul\":1413:1446   */\n      swap1\n      pop\n        /* \"#utility.yul\":1359:1452   */\n      swap2\n      swap1\n      pop\n      jump\t// out\n        /* \"#utility.yul\":1458:1573   */\n    tag_62:\n        /* \"#utility.yul\":1543:1566   */\n      tag_85\n        /* \"#utility.yul\":1560:1565   */\n      dup2\n        /* \"#utility.yul\":1543:1566   */\n      tag_61\n      jump\t// in\n    tag_85:\n        /* \"#utility.yul\":1538:1541   */\n      dup3\n        /* \"#utility.yul\":1531:1567   */\n      mstore\n        /* \"#utility.yul\":1458:1573   */\n      pop\n      pop\n      jump\t// out\n        /* \"#utility.yul\":1579:1797   */\n    tag_28:\n        /* \"#utility.yul\":1670:1674   */\n      0x00\n        /* \"#utility.yul\":1708:1710   */\n      0x20\n        /* \"#utility.yul\":1697:1706   */\n      dup3\n        /* \"#utility.yul\":1693:1711   */\n      add\n        /* \"#utility.yul\":1685:1711   */\n      swap1\n      pop\n        /* \"#utility.yul\":1721:1790   */\n      tag_87\n        /* \"#utility.yul\":1787:1788   */\n      0x00\n        /* \"#utility.yul\":1776:1785   */\n      dup4\n        /* \"#utility.yul\":1772:1789   */\n      add\n        /* \"#utility.yul\":1763:1769   */\n      dup5\n        /* \"#utility.yul\":1721:1790   */\n      tag_62\n      jump\t// in\n    tag_87:\n        /* \"#utility.yul\":1579:1797   */\n      swap3\n      swap2\n      pop\n      pop\n      jump\t// out\n        /* \"#utility.yul\":1803:1904   */\n    tag_63:\n        /* \"#utility.yul\":1839:1846   */\n      0x00\n        /* \"#utility.yul\":1879:1897   */\n      0xffffffffffffffff\n        /* \"#utility.yul\":1872:1877   */\n      dup3\n        /* \"#utility.yul\":1868:1898   */\n      and\n        /* \"#utility.yul\":1857:1898   */\n      swap1\n      pop\n        /* \"#utility.yul\":1803:1904   */\n      swap2\n      swap1\n      pop\n      jump\t// out\n        /* \"#utility.yul\":1910:2025   */\n    tag_64:\n        /* \"#utility.yul\":1995:2018   */\n      tag_90\n        /* \"#utility.yul\":2012:2017   */\n      dup2\n        /* \"#utility.yul\":1995:2018   */\n      tag_63\n      jump\t// in\n    tag_90:\n        /* \"#utility.yul\":1990:1993   */\n      dup3\n        /* \"#utility.yul\":1983:2019   */\n      mstore\n        /* \"#utility.yul\":1910:2025   */\n      pop\n      pop\n      jump\t// out\n        /* \"#utility.yul\":2031:2249   */\n    tag_35:\n        /* \"#utility.yul\":2122:2126   */\n      0x00\n        /* \"#utility.yul\":2160:2162   */\n      0x20\n        /* \"#utility.yul\":2149:2158   */\n      dup3\n        /* \"#utility.yul\":2145:2163   */\n      add\n        /* \"#utility.yul\":2137:2163   */\n      swap1\n      pop\n        /* \"#utility.yul\":2173:2242   */\n      tag_92\n        /* \"#utility.yul\":2239:2240   */\n      0x00\n        /* \"#utility.yul\":2228:2237   */\n      dup4\n        /* \"#utility.yul\":2224:2241   */\n      add\n        /* \"#utility.yul\":2215:2221   */\n      dup5\n        /* \"#utility.yul\":2173:2242   */\n      tag_64\n      jump\t// in\n    tag_92:\n        /* \"#utility.yul\":2031:2249   */\n      swap3\n      swap2\n      pop\n      pop\n      jump\t// out\n        /* \"#utility.yul\":2255:2697   */\n    tag_39:\n        /* \"#utility.yul\":2404:2408   */\n      0x00\n        /* \"#utility.yul\":2442:2444   */\n      0x60\n        /* \"#utility.yul\":2431:2440   */\n      dup3\n        /* \"#utility.yul\":2427:2445   */\n      add\n        /* \"#utility.yul\":2419:2445   */\n      swap1\n      pop\n        /* \"#utility.yul\":2455:2526   */\n      tag_94\n        /* \"#utility.yul\":2523:2524   */\n      0x00\n        /* \"#utility.yul\":2512:2521   */\n      dup4\n        /* \"#utility.yul\":2508:2525   */\n      add\n        /* \"#utility.yul\":2499:2505   */\n      dup7\n        /* \"#utility.yul\":2455:2526   */\n      tag_57\n      jump\t// in\n    tag_94:\n        /* \"#utility.yul\":2536:2608   */\n      tag_95\n        /* \"#utility.yul\":2604:2606   */\n      0x20\n        /* \"#utility.yul\":2593:2602   */\n      dup4\n        /* \"#utility.yul\":2589:2607   */\n      add\n        /* \"#utility.yul\":2580:2586   */\n      dup6\n        /* \"#utility.yul\":2536:2608   */\n      tag_57\n      jump\t// in\n    tag_95:\n        /* \"#utility.yul\":2618:2690   */\n      tag_96\n        /* \"#utility.yul\":2686:2688   */\n      0x40\n        /* \"#utility.yul\":2675:2684   */\n      dup4\n        /* \"#utility.yul\":2671:2689   */\n      add\n        /* \"#utility.yul\":2662:2668   */\n      dup5\n        /* \"#utility.yul\":2618:2690   */\n      tag_57\n      jump\t// in\n    tag_96:\n        /* \"#utility.yul\":2255:2697   */\n      swap5\n      swap4\n      pop\n      pop\n      pop\n      pop\n      jump\t// out\n        /* \"#utility.yul\":2703:2821   */\n    tag_65:\n        /* \"#utility.yul\":2740:2747   */\n      0x00\n        /* \"#utility.yul\":2780:2814   */\n      0xffffffffffffffffffffffffffffffff\n        /* \"#utility.yul\":2773:2778   */\n      dup3\n        /* \"#utility.yul\":2769:2815   */\n      and\n        /* \"#utility.yul\":2758:2815   */\n      swap1\n      pop\n        /* \"#utility.yul\":2703:2821   */\n      swap2\n      swap1\n      pop\n      jump\t// out\n        /* \"#utility.yul\":2827:2945   */\n    tag_66:\n        /* \"#utility.yul\":2914:2938   */\n      tag_99\n        /* \"#utility.yul\":2932:2937   */\n      dup2\n        /* \"#utility.yul\":2914:2938   */\n      tag_65\n      jump\t// in\n    tag_99:\n        /* \"#utility.yul\":2909:2912   */\n      dup3\n        /* \"#utility.yul\":2902:2939   */\n      mstore\n        /* \"#utility.yul\":2827:2945   */\n      pop\n      pop\n      jump\t// out\n        /* \"#utility.yul\":2951:3173   */\n    tag_43:\n        /* \"#utility.yul\":3044:3048   */\n      0x00\n        /* \"#utility.yul\":3082:3084   */\n      0x20\n        /* \"#utility.yul\":3071:3080   */\n      dup3\n        /* \"#utility.yul\":3067:3085   */\n      add\n        /* \"#utility.yul\":3059:3085   */\n      swap1\n      pop\n        /* \"#utility.yul\":3095:3166   */\n      tag_101\n        /* \"#utility.yul\":3163:3164   */\n      0x00\n        /* \"#utility.yul\":3152:3161   */\n      dup4\n        /* \"#utility.yul\":3148:3165   */\n      add\n        /* \"#utility.yul\":3139:3145   */\n      dup5\n        /* \"#utility.yul\":3095:3166   */\n      tag_66\n      jump\t// in\n    tag_101:\n        /* \"#utility.yul\":2951:3173   */\n      swap3\n      swap2\n      pop\n      pop\n      jump\t// out\n\n    auxdata: 0xa2646970667358221220fc59c5bec22dae66d0737b0136f43083612f49e502d0a33669e858df4b6f4ab464736f6c634300081a0033\n}\n",
				"bytecode": {
					"linkReferences": {},
					"object": "6080604052348015600e575f80fd5b506105708061001c5f395ff3fe608060405234801561000f575f80fd5b50600436106100a7575f3560e01c80636c7594ff1161006f5780636c7594ff146101305780637ae697db1461014e5780639ebeb8eb1461016e578063ddc87aa11461018c578063e79aa60a146101aa578063fcc8e5e1146101b4576100a7565b80631dd66ebc146100ab57806322797bb1146100cc5780634f3080a9146100ea57806351a5467e146100f45780635c86ad7814610112575b5f80fd5b6100b36101d2565b6040516100c394939291906103b5565b60405180910390f35b6100d46101eb565b6040516100e19190610437565b60405180910390f35b6100f2610210565b005b6100fc61027a565b604051610109919061046e565b60405180910390f35b61011a61028f565b604051610127919061046e565b60405180910390f35b6101386102a5565b60405161014591906104a9565b60405180910390f35b6101566102be565b604051610165939291906104c2565b60405180910390f35b6101766102d1565b6040516101839190610521565b60405180910390f35b6101946102f0565b6040516101a191906104a9565b60405180910390f35b6101b261030a565b005b6101bc610388565b6040516101c9919061046e565b60405180910390f35b5f805f805f93506010925060189150601c905090919293565b60015f9054906101000a900473ffffffffffffffffffffffffffffffffffffffff1681565b5f5460018060801b03198082169150600b8217915060018060401b0360801b198083169250601660801b8317925060018060201b0360c01b198084169350602160c01b8417935060018060201b0360e01b198085169450602c60e01b85179450845f555050505050565b5f601c9054906101000a900463ffffffff1681565b6001601c9054906101000a900463ffffffff1681565b5f60109054906101000a900467ffffffffffffffff1681565b5f805f80925060149150601c9050909192565b5f8054906101000a90046fffffffffffffffffffffffffffffffff1681565b600160149054906101000a900467ffffffffffffffff1681565b5f5460018060801b03198082169150606f8217915060018060401b0360086010021b19808316925060de60086010021b8317925060018060201b0360086018021b19808416935061014d60086018021b8417935060018060201b036008601c021b1980851694506101bc6008601c021b85179450845f555050505050565b5f60189054906101000a900463ffffffff1681565b5f819050919050565b6103af8161039d565b82525050565b5f6080820190506103c85f8301876103a6565b6103d560208301866103a6565b6103e260408301856103a6565b6103ef60608301846103a6565b95945050505050565b5f73ffffffffffffffffffffffffffffffffffffffff82169050919050565b5f610421826103f8565b9050919050565b61043181610417565b82525050565b5f60208201905061044a5f830184610428565b92915050565b5f63ffffffff82169050919050565b61046881610450565b82525050565b5f6020820190506104815f83018461045f565b92915050565b5f67ffffffffffffffff82169050919050565b6104a381610487565b82525050565b5f6020820190506104bc5f83018461049a565b92915050565b5f6060820190506104d55f8301866103a6565b6104e260208301856103a6565b6104ef60408301846103a6565b949350505050565b5f6fffffffffffffffffffffffffffffffff82169050919050565b61051b816104f7565b82525050565b5f6020820190506105345f830184610512565b9291505056fea2646970667358221220fc59c5bec22dae66d0737b0136f43083612f49e502d0a33669e858df4b6f4ab464736f6c634300081a0033",
					"opcodes": "PUSH1 0x80 PUSH1 0x40 MSTORE CALLVALUE DUP1 ISZERO PUSH1 0xE JUMPI PUSH0 DUP1 REVERT JUMPDEST POP PUSH2 0x570 DUP1 PUSH2 0x1C PUSH0 CODECOPY PUSH0 RETURN INVALID PUSH1 0x80 PUSH1 0x40 MSTORE CALLVALUE DUP1 ISZERO PUSH2 0xF JUMPI PUSH0 DUP1 REVERT JUMPDEST POP PUSH1 0x4 CALLDATASIZE LT PUSH2 0xA7 JUMPI PUSH0 CALLDATALOAD PUSH1 0xE0 SHR DUP1 PUSH4 0x6C7594FF GT PUSH2 0x6F JUMPI DUP1 PUSH4 0x6C7594FF EQ PUSH2 0x130 JUMPI DUP1 PUSH4 0x7AE697DB EQ PUSH2 0x14E JUMPI DUP1 PUSH4 0x9EBEB8EB EQ PUSH2 0x16E JUMPI DUP1 PUSH4 0xDDC87AA1 EQ PUSH2 0x18C JUMPI DUP1 PUSH4 0xE79AA60A EQ PUSH2 0x1AA JUMPI DUP1 PUSH4 0xFCC8E5E1 EQ PUSH2 0x1B4 JUMPI PUSH2 0xA7 JUMP JUMPDEST DUP1 PUSH4 0x1DD66EBC EQ PUSH2 0xAB JUMPI DUP1 PUSH4 0x22797BB1 EQ PUSH2 0xCC JUMPI DUP1 PUSH4 0x4F3080A9 EQ PUSH2 0xEA JUMPI DUP1 PUSH4 0x51A5467E EQ PUSH2 0xF4 JUMPI DUP1 PUSH4 0x5C86AD78 EQ PUSH2 0x112 JUMPI JUMPDEST PUSH0 DUP1 REVERT JUMPDEST PUSH2 0xB3 PUSH2 0x1D2 JUMP JUMPDEST PUSH1 0x40 MLOAD PUSH2 0xC3 SWAP5 SWAP4 SWAP3 SWAP2 SWAP1 PUSH2 0x3B5 JUMP JUMPDEST PUSH1 0x40 MLOAD DUP1 SWAP2 SUB SWAP1 RETURN JUMPDEST PUSH2 0xD4 PUSH2 0x1EB JUMP JUMPDEST PUSH1 0x40 MLOAD PUSH2 0xE1 SWAP2 SWAP1 PUSH2 0x437 JUMP JUMPDEST PUSH1 0x40 MLOAD DUP1 SWAP2 SUB SWAP1 RETURN JUMPDEST PUSH2 0xF2 PUSH2 0x210 JUMP JUMPDEST STOP JUMPDEST PUSH2 0xFC PUSH2 0x27A JUMP JUMPDEST PUSH1 0x40 MLOAD PUSH2 0x109 SWAP2 SWAP1 PUSH2 0x46E JUMP JUMPDEST PUSH1 0x40 MLOAD DUP1 SWAP2 SUB SWAP1 RETURN JUMPDEST PUSH2 0x11A PUSH2 0x28F JUMP JUMPDEST PUSH1 0x40 MLOAD PUSH2 0x127 SWAP2 SWAP1 PUSH2 0x46E JUMP JUMPDEST PUSH1 0x40 MLOAD DUP1 SWAP2 SUB SWAP1 RETURN JUMPDEST PUSH2 0x138 PUSH2 0x2A5 JUMP JUMPDEST PUSH1 0x40 MLOAD PUSH2 0x145 SWAP2 SWAP1 PUSH2 0x4A9 JUMP JUMPDEST PUSH1 0x40 MLOAD DUP1 SWAP2 SUB SWAP1 RETURN JUMPDEST PUSH2 0x156 PUSH2 0x2BE JUMP JUMPDEST PUSH1 0x40 MLOAD PUSH2 0x165 SWAP4 SWAP3 SWAP2 SWAP1 PUSH2 0x4C2 JUMP JUMPDEST PUSH1 0x40 MLOAD DUP1 SWAP2 SUB SWAP1 RETURN JUMPDEST PUSH2 0x176 PUSH2 0x2D1 JUMP JUMPDEST PUSH1 0x40 MLOAD PUSH2 0x183 SWAP2 SWAP1 PUSH2 0x521 JUMP JUMPDEST PUSH1 0x40 MLOAD DUP1 SWAP2 SUB SWAP1 RETURN JUMPDEST PUSH2 0x194 PUSH2 0x2F0 JUMP JUMPDEST PUSH1 0x40 MLOAD PUSH2 0x1A1 SWAP2 SWAP1 PUSH2 0x4A9 JUMP JUMPDEST PUSH1 0x40 MLOAD DUP1 SWAP2 SUB SWAP1 RETURN JUMPDEST PUSH2 0x1B2 PUSH2 0x30A JUMP JUMPDEST STOP JUMPDEST PUSH2 0x1BC PUSH2 0x388 JUMP JUMPDEST PUSH1 0x40 MLOAD PUSH2 0x1C9 SWAP2 SWAP1 PUSH2 0x46E JUMP JUMPDEST PUSH1 0x40 MLOAD DUP1 SWAP2 SUB SWAP1 RETURN JUMPDEST PUSH0 DUP1 PUSH0 DUP1 PUSH0 SWAP4 POP PUSH1 0x10 SWAP3 POP PUSH1 0x18 SWAP2 POP PUSH1 0x1C SWAP1 POP SWAP1 SWAP2 SWAP3 SWAP4 JUMP JUMPDEST PUSH1 0x1 PUSH0 SWAP1 SLOAD SWAP1 PUSH2 0x100 EXP SWAP1 DIV PUSH20 0xFFFFFFFFFFFFFFFFFFFFFFFFFFFFFFFFFFFFFFFF AND DUP2 JUMP JUMPDEST PUSH0 SLOAD PUSH1 0x1 DUP1 PUSH1 0x80 SHL SUB NOT DUP1 DUP3 AND SWAP2 POP PUSH1 0xB DUP3 OR SWAP2 POP PUSH1 0x1 DUP1 PUSH1 0x40 SHL SUB PUSH1 0x80 SHL NOT DUP1 DUP4 AND SWAP3 POP PUSH1 0x16 PUSH1 0x80 SHL DUP4 OR SWAP3 POP PUSH1 0x1 DUP1 PUSH1 0x20 SHL SUB PUSH1 0xC0 SHL NOT DUP1 DUP5 AND SWAP4 POP PUSH1 0x21 PUSH1 0xC0 SHL DUP5 OR SWAP4 POP PUSH1 0x1 DUP1 PUSH1 0x20 SHL SUB PUSH1 0xE0 SHL NOT DUP1 DUP6 AND SWAP5 POP PUSH1 0x2C PUSH1 0xE0 SHL DUP6 OR SWAP5 POP DUP5 PUSH0 SSTORE POP POP POP POP POP JUMP JUMPDEST PUSH0 PUSH1 0x1C SWAP1 SLOAD SWAP1 PUSH2 0x100 EXP SWAP1 DIV PUSH4 0xFFFFFFFF AND DUP2 JUMP JUMPDEST PUSH1 0x1 PUSH1 0x1C SWAP1 SLOAD SWAP1 PUSH2 0x100 EXP SWAP1 DIV PUSH4 0xFFFFFFFF AND DUP2 JUMP JUMPDEST PUSH0 PUSH1 0x10 SWAP1 SLOAD SWAP1 PUSH2 0x100 EXP SWAP1 DIV PUSH8 0xFFFFFFFFFFFFFFFF AND DUP2 JUMP JUMPDEST PUSH0 DUP1 PUSH0 DUP1 SWAP3 POP PUSH1 0x14 SWAP2 POP PUSH1 0x1C SWAP1 POP SWAP1 SWAP2 SWAP3 JUMP JUMPDEST PUSH0 DUP1 SLOAD SWAP1 PUSH2 0x100 EXP SWAP1 DIV PUSH16 0xFFFFFFFFFFFFFFFFFFFFFFFFFFFFFFFF AND DUP2 JUMP JUMPDEST PUSH1 0x1 PUSH1 0x14 SWAP1 SLOAD SWAP1 PUSH2 0x100 EXP SWAP1 DIV PUSH8 0xFFFFFFFFFFFFFFFF AND DUP2 JUMP JUMPDEST PUSH0 SLOAD PUSH1 0x1 DUP1 PUSH1 0x80 SHL SUB NOT DUP1 DUP3 AND SWAP2 POP PUSH1 0x6F DUP3 OR SWAP2 POP PUSH1 0x1 DUP1 PUSH1 0x40 SHL SUB PUSH1 0x8 PUSH1 0x10 MUL SHL NOT DUP1 DUP4 AND SWAP3 POP PUSH1 0xDE PUSH1 0x8 PUSH1 0x10 MUL SHL DUP4 OR SWAP3 POP PUSH1 0x1 DUP1 PUSH1 0x20 SHL SUB PUSH1 0x8 PUSH1 0x18 MUL SHL NOT DUP1 DUP5 AND SWAP4 POP PUSH2 0x14D PUSH1 0x8 PUSH1 0x18 MUL SHL DUP5 OR SWAP4 POP PUSH1 0x1 DUP1 PUSH1 0x20 SHL SUB PUSH1 0x8 PUSH1 0x1C MUL SHL NOT DUP1 DUP6 AND SWAP5 POP PUSH2 0x1BC PUSH1 0x8 PUSH1 0x1C MUL SHL DUP6 OR SWAP5 POP DUP5 PUSH0 SSTORE POP POP POP POP POP JUMP JUMPDEST PUSH0 PUSH1 0x18 SWAP1 SLOAD SWAP1 PUSH2 0x100 EXP SWAP1 DIV PUSH4 0xFFFFFFFF AND DUP2 JUMP JUMPDEST PUSH0 DUP2 SWAP1 POP SWAP2 SWAP1 POP JUMP JUMPDEST PUSH2 0x3AF DUP2 PUSH2 0x39D JUMP JUMPDEST DUP3 MSTORE POP POP JUMP JUMPDEST PUSH0 PUSH1 0x80 DUP3 ADD SWAP1 POP PUSH2 0x3C8 PUSH0 DUP4 ADD DUP8 PUSH2 0x3A6 JUMP JUMPDEST PUSH2 0x3D5 PUSH1 0x20 DUP4 ADD DUP7 PUSH2 0x3A6 JUMP JUMPDEST PUSH2 0x3E2 PUSH1 0x40 DUP4 ADD DUP6 PUSH2 0x3A6 JUMP JUMPDEST PUSH2 0x3EF PUSH1 0x60 DUP4 ADD DUP5 PUSH2 0x3A6 JUMP JUMPDEST SWAP6 SWAP5 POP POP POP POP POP JUMP JUMPDEST PUSH0 PUSH20 0xFFFFFFFFFFFFFFFFFFFFFFFFFFFFFFFFFFFFFFFF DUP3 AND SWAP1 POP SWAP2 SWAP1 POP JUMP JUMPDEST PUSH0 PUSH2 0x421 DUP3 PUSH2 0x3F8 JUMP JUMPDEST SWAP1 POP SWAP2 SWAP1 POP JUMP JUMPDEST PUSH2 0x431 DUP2 PUSH2 0x417 JUMP JUMPDEST DUP3 MSTORE POP POP JUMP JUMPDEST PUSH0 PUSH1 0x20 DUP3 ADD SWAP1 POP PUSH2 0x44A PUSH0 DUP4 ADD DUP5 PUSH2 0x428 JUMP JUMPDEST SWAP3 SWAP2 POP POP JUMP JUMPDEST PUSH0 PUSH4 0xFFFFFFFF DUP3 AND SWAP1 POP SWAP2 SWAP1 POP JUMP JUMPDEST PUSH2 0x468 DUP2 PUSH2 0x450 JUMP JUMPDEST DUP3 MSTORE POP POP JUMP JUMPDEST PUSH0 PUSH1 0x20 DUP3 ADD SWAP1 POP PUSH2 0x481 PUSH0 DUP4 ADD DUP5 PUSH2 0x45F JUMP JUMPDEST SWAP3 SWAP2 POP POP JUMP JUMPDEST PUSH0 PUSH8 0xFFFFFFFFFFFFFFFF DUP3 AND SWAP1 POP SWAP2 SWAP1 POP JUMP JUMPDEST PUSH2 0x4A3 DUP2 PUSH2 0x487 JUMP JUMPDEST DUP3 MSTORE POP POP JUMP JUMPDEST PUSH0 PUSH1 0x20 DUP3 ADD SWAP1 POP PUSH2 0x4BC PUSH0 DUP4 ADD DUP5 PUSH2 0x49A JUMP JUMPDEST SWAP3 SWAP2 POP POP JUMP JUMPDEST PUSH0 PUSH1 0x60 DUP3 ADD SWAP1 POP PUSH2 0x4D5 PUSH0 DUP4 ADD DUP7 PUSH2 0x3A6 JUMP JUMPDEST PUSH2 0x4E2 PUSH1 0x20 DUP4 ADD DUP6 PUSH2 0x3A6 JUMP JUMPDEST PUSH2 0x4EF PUSH1 0x40 DUP4 ADD DUP5 PUSH2 0x3A6 JUMP JUMPDEST SWAP5 SWAP4 POP POP POP POP JUMP JUMPDEST PUSH0 PUSH16 0xFFFFFFFFFFFFFFFFFFFFFFFFFFFFFFFF DUP3 AND SWAP1 POP SWAP2 SWAP1 POP JUMP JUMPDEST PUSH2 0x51B DUP2 PUSH2 0x4F7 JUMP JUMPDEST DUP3 MSTORE POP POP JUMP JUMPDEST PUSH0 PUSH1 0x20 DUP3 ADD SWAP1 POP PUSH2 0x534 PUSH0 DUP4 ADD DUP5 PUSH2 0x512 JUMP JUMPDEST SWAP3 SWAP2 POP POP JUMP INVALID LOG2 PUSH5 0x6970667358 0x22 SLT KECCAK256 0xFC MSIZE 0xC5 0xBE 0xC2 0x2D 0xAE PUSH7 0xD0737B0136F430 DUP4 PUSH2 0x2F49 0xE5 MUL 0xD0 LOG3 CALLDATASIZE PUSH10 0xE858DF4B6F4AB464736F PUSH13 0x634300081A0033000000000000 "
				},
				"gasEstimates": {
					"creation": {
						"codeDepositCost": "278400",
						"executionCost": "316",
						"totalCost": "278716"
					},
					"external": {
						"s_a()": "2507",
						"s_addr()": "2531",
						"s_b()": "2516",
						"s_c()": "2626",
						"s_d()": "2583",
						"s_x()": "2583",
						"s_y()": "2606",
						"test_slot_0_offset()": "infinite",
						"test_slot_1_offset()": "infinite",
						"test_sstore()": "24625",
						"test_sstore_using_offset()": "24716"
					}
				},
				"methodIdentifiers": {
					"s_a()": "9ebeb8eb",
					"s_addr()": "22797bb1",
					"s_b()": "6c7594ff",
					"s_c()": "fcc8e5e1",
					"s_d()": "51a5467e",
					"s_x()": "ddc87aa1",
					"s_y()": "5c86ad78",
					"test_slot_0_offset()": "1dd66ebc",
					"test_slot_1_offset()": "7ae697db",
					"test_sstore()": "4f3080a9",
					"test_sstore_using_offset()": "e79aa60a"
				}
			},
			"storageLayout": {
				"storage": [
					{
						"astId": 118,
						"contract": "EVMStorageLayout.sol:EVMStoragePackedSlot",
						"label": "s_a",
						"offset": 0,
						"slot": "0",
						"type": "t_uint128"
					},
					{
						"astId": 120,
						"contract": "EVMStorageLayout.sol:EVMStoragePackedSlot",
						"label": "s_b",
						"offset": 16,
						"slot": "0",
						"type": "t_uint64"
					},
					{
						"astId": 122,
						"contract": "EVMStorageLayout.sol:EVMStoragePackedSlot",
						"label": "s_c",
						"offset": 24,
						"slot": "0",
						"type": "t_uint32"
					},
					{
						"astId": 124,
						"contract": "EVMStorageLayout.sol:EVMStoragePackedSlot",
						"label": "s_d",
						"offset": 28,
						"slot": "0",
						"type": "t_uint32"
					},
					{
						"astId": 126,
						"contract": "EVMStorageLayout.sol:EVMStoragePackedSlot",
						"label": "s_addr",
						"offset": 0,
						"slot": "1",
						"type": "t_address"
					},
					{
						"astId": 128,
						"contract": "EVMStorageLayout.sol:EVMStoragePackedSlot",
						"label": "s_x",
						"offset": 20,
						"slot": "1",
						"type": "t_uint64"
					},
					{
						"astId": 130,
						"contract": "EVMStorageLayout.sol:EVMStoragePackedSlot",
						"label": "s_y",
						"offset": 28,
						"slot": "1",
						"type": "t_uint32"
					}
				],
				"types": {
					"t_address": {
						"encoding": "inplace",
						"label": "address",
						"numberOfBytes": "20"
					},
					"t_uint128": {
						"encoding": "inplace",
						"label": "uint128",
						"numberOfBytes": "16"
					},
					"t_uint32": {
						"encoding": "inplace",
						"label": "uint32",
						"numberOfBytes": "4"
					},
					"t_uint64": {
						"encoding": "inplace",
						"label": "uint64",
						"numberOfBytes": "8"
					}
				}
			},
			"userdoc": {
				"kind": "user",
				"methods": {},
				"version": 1
			}
		}
	}
}