{
	"EVMStorageLayout.sol": {
		"EVMStorageConstants": {
			"abi": [
				{
					"inputs": [],
					"stateMutability": "nonpayable",
					"type": "constructor"
				},
				{
					"inputs": [],
					"name": "X",
					"outputs": [
						{
							"internalType": "uint256",
							"name": "",
							"type": "uint256"
						}
					],
					"stateMutability": "view",
					"type": "function"
				},
				{
					"inputs": [],
					"name": "owner",
					"outputs": [
						{
							"internalType": "address",
							"name": "",
							"type": "address"
						}
					],
					"stateMutability": "view",
					"type": "function"
				},
				{
					"inputs": [],
					"name": "s0",
					"outputs": [
						{
							"internalType": "uint256",
							"name": "",
							"type": "uint256"
						}
					],
					"stateMutability": "view",
					"type": "function"
				},
				{
					"inputs": [],
					"name": "s1",
					"outputs": [
						{
							"internalType": "uint256",
							"name": "",
							"type": "uint256"
						}
					],
					"stateMutability": "view",
					"type": "function"
				},
				{
					"inputs": [],
					"name": "test_get_slots",
					"outputs": [
						{
							"internalType": "uint256",
							"name": "v0",
							"type": "uint256"
						},
						{
							"internalType": "uint256",
							"name": "v1",
							"type": "uint256"
						}
					],
					"stateMutability": "view",
					"type": "function"
				}
			],
			"devdoc": {
				"kind": "dev",
				"methods": {},
				"version": 1
			},
			"evm": {
				"assembly": "    /* \"EVMStorageLayout.sol\":10095:10573  contract EVMStorageConstants {... */\n  mstore(0x40, 0xa0)\n    /* \"EVMStorageLayout.sol\":10166:10167  1 */\n  0x01\n    /* \"EVMStorageLayout.sol\":10146:10167  uint256 public s0 = 1 */\n  0x00\n  sstore\n    /* \"EVMStorageLayout.sol\":10335:10336  2 */\n  0x02\n    /* \"EVMStorageLayout.sol\":10315:10336  uint256 public s1 = 2 */\n  0x01\n  sstore\n    /* \"EVMStorageLayout.sol\":10345:10396  constructor() {... */\n  callvalue\n  dup1\n  iszero\n  tag_1\n  jumpi\n  0x00\n  dup1\n  revert\ntag_1:\n  pop\n    /* \"EVMStorageLayout.sol\":10378:10388  msg.sender */\n  caller\n    /* \"EVMStorageLayout.sol\":10370:10388  owner = msg.sender */\n  0xffffffffffffffffffffffffffffffffffffffff\n  and\n  0x80\n  dup2\n  0xffffffffffffffffffffffffffffffffffffffff\n  and\n  dup2\n  mstore\n  pop\n  pop\n    /* \"EVMStorageLayout.sol\":10095:10573  contract EVMStorageConstants {... */\n  mload(0x80)\n  codecopy(0x00, dataOffset(sub_0), dataSize(sub_0))\n  0x00\n  assignImmutable(\"0x6be2aa321936c272e905a60cf786322052136e6e0ff4aeb1bdad00f3244d95d9\")\n  return(0x00, dataSize(sub_0))\nstop\n\nsub_0: assembly {\n        /* \"EVMStorageLayout.sol\":10095:10573  contract EVMStorageConstants {... */\n      mstore(0x40, 0x80)\n      callvalue\n      dup1\n      iszero\n      tag_1\n      jumpi\n      0x00\n      dup1\n      revert\n    tag_1:\n      pop\n      jumpi(tag_2, lt(calldatasize, 0x04))\n      shr(0xe0, calldataload(0x00))\n      dup1\n      0x1553a878\n      eq\n      tag_3\n      jumpi\n      dup1\n      0x501e8212\n      eq\n      tag_4\n      jumpi\n      dup1\n      0x6cc014de\n      eq\n      tag_5\n      jumpi\n      dup1\n      0x8da5cb5b\n      eq\n      tag_6\n      jumpi\n      dup1\n      0xc1599bd9\n      eq\n      tag_7\n      jumpi\n    tag_2:\n      0x00\n      dup1\n      revert\n        /* \"EVMStorageLayout.sol\":10404:10570  function test_get_slots() public view returns (uint256 v0, uint256 v1) {... */\n    tag_3:\n      tag_8\n      tag_9\n      jump\t// in\n    tag_8:\n      mload(0x40)\n      tag_10\n      swap3\n      swap2\n      swap1\n      tag_11\n      jump\t// in\n    tag_10:\n      mload(0x40)\n      dup1\n      swap2\n      sub\n      swap1\n      return\n        /* \"EVMStorageLayout.sol\":10146:10167  uint256 public s0 = 1 */\n    tag_4:\n      tag_12\n      tag_13\n      jump\t// in\n    tag_12:\n      mload(0x40)\n      tag_14\n      swap2\n      swap1\n      tag_15\n      jump\t// in\n    tag_14:\n      mload(0x40)\n      dup1\n      swap2\n      sub\n      swap1\n      return\n        /* \"EVMStorageLayout.sol\":10315:10336  uint256 public s1 = 2 */\n    tag_5:\n      tag_16\n      tag_17\n      jump\t// in\n    tag_16:\n      mload(0x40)\n      tag_18\n      swap2\n      swap1\n      tag_15\n      jump\t// in\n    tag_18:\n      mload(0x40)\n      dup1\n      swap2\n      sub\n      swap1\n      return\n        /* \"EVMStorageLayout.sol\":10263:10293  address public immutable owner */\n    tag_6:\n      tag_19\n      tag_20\n      jump\t// in\n    tag_19:\n      mload(0x40)\n      tag_21\n      swap2\n      swap1\n      tag_22\n      jump\t// in\n    tag_21:\n      mload(0x40)\n      dup1\n      swap2\n      sub\n      swap1\n      return\n        /* \"EVMStorageLayout.sol\":10225:10256  uint256 public constant X = 123 */\n    tag_7:\n      tag_23\n      tag_24\n      jump\t// in\n    tag_23:\n      mload(0x40)\n      tag_25\n      swap2\n      swap1\n      tag_15\n      jump\t// in\n    tag_25:\n      mload(0x40)\n      dup1\n      swap2\n      sub\n      swap1\n      return\n        /* \"EVMStorageLayout.sol\":10404:10570  function test_get_slots() public view returns (uint256 v0, uint256 v1) {... */\n    tag_9:\n        /* \"EVMStorageLayout.sol\":10451:10461  uint256 v0 */\n      0x00\n        /* \"EVMStorageLayout.sol\":10463:10473  uint256 v1 */\n      dup1\n        /* \"EVMStorageLayout.sol\":10522:10523  0 */\n      0x00\n        /* \"EVMStorageLayout.sol\":10516:10524  sload(0) */\n      sload\n        /* \"EVMStorageLayout.sol\":10510:10524  v0 := sload(0) */\n      swap2\n      pop\n        /* \"EVMStorageLayout.sol\":10550:10551  1 */\n      0x01\n        /* \"EVMStorageLayout.sol\":10544:10552  sload(1) */\n      sload\n        /* \"EVMStorageLayout.sol\":10538:10552  v1 := sload(1) */\n      swap1\n      pop\n        /* \"EVMStorageLayout.sol\":10404:10570  function test_get_slots() public view returns (uint256 v0, uint256 v1) {... */\n      swap1\n      swap2\n      jump\t// out\n        /* \"EVMStorageLayout.sol\":10146:10167  uint256 public s0 = 1 */\n    tag_13:\n      sload(0x00)\n      dup2\n      jump\t// out\n        /* \"EVMStorageLayout.sol\":10315:10336  uint256 public s1 = 2 */\n    tag_17:\n      sload(0x01)\n      dup2\n      jump\t// out\n        /* \"EVMStorageLayout.sol\":10263:10293  address public immutable owner */\n    tag_20:\n      immutable(\"0x6be2aa321936c272e905a60cf786322052136e6e0ff4aeb1bdad00f3244d95d9\")\n      dup2\n      jump\t// out\n        /* \"EVMStorageLayout.sol\":10225:10256  uint256 public constant X = 123 */\n    tag_24:\n        /* \"EVMStorageLayout.sol\":10253:10256  123 */\n      0x7b\n        /* \"EVMStorageLayout.sol\":10225:10256  uint256 public constant X = 123 */\n      dup2\n      jump\t// out\n        /* \"#utility.yul\":7:84   */\n    tag_27:\n        /* \"#utility.yul\":44:51   */\n      0x00\n        /* \"#utility.yul\":73:78   */\n      dup2\n        /* \"#utility.yul\":62:78   */\n      swap1\n      pop\n        /* \"#utility.yul\":7:84   */\n      swap2\n      swap1\n      pop\n      jump\t// out\n        /* \"#utility.yul\":90:208   */\n    tag_28:\n        /* \"#utility.yul\":177:201   */\n      tag_35\n        /* \"#utility.yul\":195:200   */\n      dup2\n        /* \"#utility.yul\":177:201   */\n      tag_27\n      jump\t// in\n    tag_35:\n        /* \"#utility.yul\":172:175   */\n      dup3\n        /* \"#utility.yul\":165:202   */\n      mstore\n        /* \"#utility.yul\":90:208   */\n      pop\n      pop\n      jump\t// out\n        /* \"#utility.yul\":214:546   */\n    tag_11:\n        /* \"#utility.yul\":335:339   */\n      0x00\n        /* \"#utility.yul\":373:375   */\n      0x40\n        /* \"#utility.yul\":362:371   */\n      dup3\n        /* \"#utility.yul\":358:376   */\n      add\n        /* \"#utility.yul\":350:376   */\n      swap1\n      pop\n        /* \"#utility.yul\":386:457   */\n      tag_37\n        /* \"#utility.yul\":454:455   */\n      0x00\n        /* \"#utility.yul\":443:452   */\n      dup4\n        /* \"#utility.yul\":439:456   */\n      add\n        /* \"#utility.yul\":430:436   */\n      dup6\n        /* \"#utility.yul\":386:457   */\n      tag_28\n      jump\t// in\n    tag_37:\n        /* \"#utility.yul\":467:539   */\n      tag_38\n        /* \"#utility.yul\":535:537   */\n      0x20\n        /* \"#utility.yul\":524:533   */\n      dup4\n        /* \"#utility.yul\":520:538   */\n      add\n        /* \"#utility.yul\":511:517   */\n      dup5\n        /* \"#utility.yul\":467:539   */\n      tag_28\n      jump\t// in\n    tag_38:\n        /* \"#utility.yul\":214:546   */\n      swap4\n      swap3\n      pop\n      pop\n      pop\n      jump\t// out\n        /* \"#utility.yul\":552:774   */\n    tag_15:\n        /* \"#utility.yul\":645:649   */\n      0x00\n        /* \"#utility.yul\":683:685   */\n      0x20\n        /* \"#utility.yul\":672:681   */\n      dup3\n        /* \"#utility.yul\":668:686   */\n      add\n        /* \"#utility.yul\":660:686   */\n      swap1\n      pop\n        /* \"#utility.yul\":696:767   */\n      tag_40\n        /* \"#utility.yul\":764:765   */\n      0x00\n        /* \"#utility.yul\":753:762   */\n      dup4\n        /* \"#utility.yul\":749:766   */\n      add\n        /* \"#utility.yul\":740:746   */\n      dup5\n        /* \"#utility.yul\":696:767   */\n      tag_28\n      jump\t// in\n    tag_40:\n        /* \"#utility.yul\":552:774   */\n      swap3\n      swap2\n      pop\n      pop\n      jump\t// out\n        /* \"#utility.yul\":780:906   */\n    tag_29:\n        /* \"#utility.yul\":817:824   */\n      0x00\n        /* \"#utility.yul\":857:899   */\n      0xffffffffffffffffffffffffffffffffffffffff\n        /* \"#utility.yul\":850:855   */\n      dup3\n        /* \"#utility.yul\":846:900   */\n      and\n        /* \"#utility.yul\":835:900   */\n      swap1\n      pop\n        /* \"#utility.yul\":780:906   */\n      swap2\n      swap1\n      pop\n      jump\t// out\n        /* \"#utility.yul\":912:1008   */\n    tag_30:\n        /* \"#utility.yul\":949:956   */\n      0x00\n        /* \"#utility.yul\":978:1002   */\n      tag_43\n        /* \"#utility.yul\":996:1001   */\n      dup3\n        /* \"#utility.yul\":978:1002   */\n      tag_29\n      jump\t// in\n    tag_43:\n        /* \"#utility.yul\":967:1002   */\n      swap1\n      pop\n        /* \"#utility.yul\":912:1008   */\n      swap2\n      swap1\n      pop\n      jump\t// out\n        /* \"#utility.yul\":1014:1132   */\n    tag_31:\n        /* \"#utility.yul\":1101:1125   */\n      tag_45\n        /* \"#utility.yul\":1119:1124   */\n      dup2\n        /* \"#utility.yul\":1101:1125   */\n      tag_30\n      jump\t// in\n    tag_45:\n        /* \"#utility.yul\":1096:1099   */\n      dup3\n        /* \"#utility.yul\":1089:1126   */\n      mstore\n        /* \"#utility.yul\":1014:1132   */\n      pop\n      pop\n      jump\t// out\n        /* \"#utility.yul\":1138:1360   */\n    tag_22:\n        /* \"#utility.yul\":1231:1235   */\n      0x00\n        /* \"#utility.yul\":1269:1271   */\n      0x20\n        /* \"#utility.yul\":1258:1267   */\n      dup3\n        /* \"#utility.yul\":1254:1272   */\n      add\n        /* \"#utility.yul\":1246:1272   */\n      swap1\n      pop\n        /* \"#utility.yul\":1282:1353   */\n      tag_47\n        /* \"#utility.yul\":1350:1351   */\n      0x00\n        /* \"#utility.yul\":1339:1348   */\n      dup4\n        /* \"#utility.yul\":1335:1352   */\n      add\n        /* \"#utility.yul\":1326:1332   */\n      dup5\n        /* \"#utility.yul\":1282:1353   */\n      tag_31\n      jump\t// in\n    tag_47:\n        /* \"#utility.yul\":1138:1360   */\n      swap3\n      swap2\n      pop\n      pop\n      jump\t// out\n\n    auxdata: 0xa2646970667358221220813330204e8e1836f2a9dd48731b20c65f61c21e64fb9cd4ea726643584b80e264736f6c634300081a0033\n}\n",
				"bytecode": {
					"linkReferences": {},
					"object": "60a060405260015f5560026001553480156017575f80fd5b503373ffffffffffffffffffffffffffffffffffffffff1660808173ffffffffffffffffffffffffffffffffffffffff16815250506080516102196100645f395f61010c01526102195ff3fe608060405234801561000f575f80fd5b5060043610610055575f3560e01c80631553a87814610059578063501e8212146100785780636cc014de146100965780638da5cb5b146100b4578063c1599bd9146100d2575b5f80fd5b6100616100f0565b60405161006f92919061014b565b60405180910390f35b6100806100ff565b60405161008d9190610172565b60405180910390f35b61009e610104565b6040516100ab9190610172565b60405180910390f35b6100bc61010a565b6040516100c991906101ca565b60405180910390f35b6100da61012e565b6040516100e79190610172565b60405180910390f35b5f805f54915060015490509091565b5f5481565b60015481565b7f000000000000000000000000000000000000000000000000000000000000000081565b607b81565b5f819050919050565b61014581610133565b82525050565b5f60408201905061015e5f83018561013c565b61016b602083018461013c565b9392505050565b5f6020820190506101855f83018461013c565b92915050565b5f73ffffffffffffffffffffffffffffffffffffffff82169050919050565b5f6101b48261018b565b9050919050565b6101c4816101aa565b82525050565b5f6020820190506101dd5f8301846101bb565b9291505056fea2646970667358221220813330204e8e1836f2a9dd48731b20c65f61c21e64fb9cd4ea726643584b80e264736f6c634300081a0033",
					"opcodes": "PUSH1 0xA0 PUSH1 0x40 MSTORE PUSH1 0x1 PUSH0 SSTORE PUSH1 0x2 PUSH1 0x1 SSTORE CALLVALUE DUP1 ISZERO PUSH1 0x17 JUMPI PUSH0 DUP1 REVERT JUMPDEST POP CALLER PUSH20 0xFFFFFFFFFFFFFFFFFFFFFFFFFFFFFFFFFFFFFFFF AND PUSH1 0x80 DUP2 PUSH20 0xFFFFFFFFFFFFFFFFFFFFFFFFFFFFFFFFFFFFFFFF AND DUP2 MSTORE POP POP PUSH1 0x80 MLOAD PUSH2 0x219 PUSH2 0x64 PUSH0 CODECOPY PUSH0 PUSH2 0x10C ADD MSTORE PUSH2 0x219 PUSH0 RETURN INVALID PUSH1 0x80 PUSH1 0x40 MSTORE CALLVALUE DUP1 ISZERO PUSH2 0xF JUMPI PUSH0 DUP1 REVERT JUMPDEST POP PUSH1 0x4 CALLDATASIZE LT PUSH2 0x55 JUMPI PUSH0 CALLDATALOAD PUSH1 0xE0 SHR DUP1 PUSH4 0x1553A878 EQ PUSH2 0x59 JUMPI DUP1 PUSH4 0x501E8212 EQ PUSH2 0x78 JUMPI DUP1 PUSH4 0x6CC014DE EQ PUSH2 0x96 JUMPI DUP1 PUSH4 0x8DA5CB5B EQ PUSH2 0xB4 JUMPI DUP1 PUSH4 0xC1599BD9 EQ PUSH2 0xD2 JUMPI JUMPDEST PUSH0 DUP1 REVERT JUMPDEST PUSH2 0x61 PUSH2 0xF0 JUMP JUMPDEST PUSH1 0x40 MLOAD PUSH2 0x6F SWAP3 SWAP2 SWAP1 PUSH2 0x14B JUMP JUMPDEST PUSH1 0x40 MLOAD DUP1 SWAP2 SUB SWAP1 RETURN JUMPDEST PUSH2 0x80 PUSH2 0xFF JUMP JUMPDEST PUSH1 0x40 MLOAD PUSH2 0x8D SWAP2 SWAP1 PUSH2 0x172 JUMP JUMPDEST PUSH1 0x40 MLOAD DUP1 SWAP2 SUB SWAP1 RETURN JUMPDEST PUSH2 0x9E PUSH2 0x104 JUMP JUMPDEST PUSH1 0x40 MLOAD PUSH2 0xAB SWAP2 SWAP1 PUSH2 0x172 JUMP JUMPDEST PUSH1 0x40 MLOAD DUP1 SWAP2 SUB SWAP1 RETURN JUMPDEST PUSH2 0xBC PUSH2 0x10A JUMP JUMPDEST PUSH1 0x40 MLOAD PUSH2 0xC9 SWAP2 SWAP1 PUSH2 0x1CA JUMP JUMPDEST PUSH1 0x40 MLOAD DUP1 SWAP2 SUB SWAP1 RETURN JUMPDEST PUSH2 0xDA PUSH2 0x12E JUMP JUMPDEST PUSH1 0x40 MLOAD PUSH2 0xE7 SWAP2 SWAP1 PUSH2 0x172 JUMP JUMPDEST PUSH1 0x40 MLOAD DUP1 SWAP2 SUB SWAP1 RETURN JUMPDEST PUSH0 DUP1 PUSH0 SLOAD SWAP2 POP PUSH1 0x1 SLOAD SWAP1 POP SWAP1 SWAP2 JUMP JUMPDEST PUSH0 SLOAD DUP2 JUMP JUMPDEST PUSH1 0x1 SLOAD DUP2 JUMP JUMPDEST PUSH32 0x0 DUP2 JUMP JUMPDEST PUSH1 0x7B DUP2 JUMP JUMPDEST PUSH0 DUP2 SWAP1 POP SWAP2 SWAP1 POP JUMP JUMPDEST PUSH2 0x145 DUP2 PUSH2 0x133 JUMP JUMPDEST DUP3 MSTORE POP POP JUMP JUMPDEST PUSH0 PUSH1 0x40 DUP3 ADD SWAP1 POP PUSH2 0x15E PUSH0 DUP4 ADD DUP6 PUSH2 0x13C JUMP JUMPDEST PUSH2 0x16B PUSH1 0x20 DUP4 ADD DUP5 PUSH2 0x13C JUMP JUMPDEST SWAP4 SWAP3 POP POP POP JUMP JUMPDEST PUSH0 PUSH1 0x20 DUP3 ADD SWAP1 POP PUSH2 0x185 PUSH0 DUP4 ADD DUP5 PUSH2 0x13C JUMP JUMPDEST SWAP3 SWAP2 POP POP JUMP JUMPDEST PUSH0 PUSH20 0xFFFFFFFFFFFFFFFFFFFFFFFFFFFFFFFFFFFFFFFF DUP3 AND SWAP1 POP SWAP2 SWAP1 POP JUMP JUMPDEST PUSH0 PUSH2 0x1B4 DUP3 PUSH2 0x18B JUMP JUMPDEST SWAP1 POP SWAP2 SWAP1 POP JUMP JUMPDEST PUSH2 0x1C4 DUP2 PUSH2 0x1AA JUMP JUMPDEST DUP3 MSTORE POP POP JUMP JUMPDEST PUSH0 PUSH1 0x20 DUP3 ADD SWAP1 POP PUSH2 0x1DD PUSH0 DUP4 ADD DUP5 PUSH2 0x1BB JUMP JUMPDEST SWAP3 SWAP2 POP POP JUMP INVALID LOG2 PUSH5 0x6970667358 0x22 SLT KECCAK256 DUP2 CALLER ADDRESS KECCAK256 0x4E DUP15 XOR CALLDATASIZE CALLCODE 0xA9 0xDD BASEFEE PUSH20 0x1B20C65F61C21E64FB9CD4EA726643584B80E264 PUSH20 0x6F6C634300081A00330000000000000000000000 "
				},
				"gasEstimates": {
					"creation": {
						"codeDepositCost": "107400",
						"executionCost": "infinite",
						"totalCost": "infinite"
					},
					"external": {
						"X()": "391",
						"owner()": "infinite",
						"s0()": "2424",
						"s1()": "2447",
						"test_get_slots()": "infinite"
					}
				},
				"methodIdentifiers": {
					"X()": "c1599bd9",
					"owner()": "8da5cb5b",
					"s0()": "501e8212",
					"s1()": "6cc014de",
					"test_get_slots()": "1553a878"
				}
			},
			"storageLayout": {
				"storage": [
					{
						"astId": 221,
						"contract": "EVMStorageLayout.sol:EVMStorageConstants",
						"label": "s0",
						"offset": 0,
						"slot": "0",
						"type": "t_uint256"
					},
					{
						"astId": 229,
						"contract": "EVMStorageLayout.sol:EVMStorageConstants",
						"label": "s1",
						"offset": 0,
						"slot": "1",
						"type": "t_uint256"
					}
				],
				"types": {
					"t_uint256": {
						"encoding": "inplace",
						"label": "uint256",
						"numberOfBytes": "32"
					}
				}
			},
			"userdoc": {
				"kind": "user",
				"methods": {},
				"version": 1
			}
		}
	}
}