{
	"EVMStorageLayout.sol": {
		"EVMStorageSingleSlot": {
			"abi": [
				{
					"inputs": [],
					"name": "s_x",
					"outputs": [
						{
							"internalType": "uint256",
							"name": "",
							"type": "uint256"
						}
					],
					"stateMutability": "view",
					"type": "function"
				},
				{
					"inputs": [],
					"name": "s_y",
					"outputs": [
						{
							"internalType": "uint256",
							"name": "",
							"type": "uint256"
						}
					],
					"stateMutability": "view",
					"type": "function"
				},
				{
					"inputs": [],
					"name": "s_z",
					"outputs": [
						{
							"internalType": "bytes32",
							"name": "",
							"type": "bytes32"
						}
					],
					"stateMutability": "view",
					"type": "function"
				},
				{
					"inputs": [],
					"name": "test_sload",
					"outputs": [
						{
							"internalType": "uint256",
							"name": "x",
							"type": "uint256"
						},
						{
							"internalType": "uint256",
							"name": "y",
							"type": "uint256"
						},
						{
							"internalType": "bytes32",
							"name": "z",
							"type": "bytes32"
						}
					],
					"stateMutability": "view",
					"type": "function"
				},
				{
					"inputs": [],
					"name": "test_sload_again",
					"outputs": [
						{
							"internalType": "uint256",
							"name": "x",
							"type": "uint256"
						},
						{
							"internalType": "uint256",
							"name": "y",
							"type": "uint256"
						},
						{
							"internalType": "bytes32",
							"name": "z",
							"type": "bytes32"
						}
					],
					"stateMutability": "view",
					"type": "function"
				},
				{
					"inputs": [],
					"name": "test_sstore",
					"outputs": [],
					"stateMutability": "nonpayable",
					"type": "function"
				},
				{
					"inputs": [],
					"name": "test_sstore_again",
					"outputs": [],
					"stateMutability": "nonpayable",
					"type": "function"
				}
			],
			"devdoc": {
				"kind": "dev",
				"methods": {},
				"version": 1
			},
			"evm": {
				"assembly": "    /* \"EVMStorageLayout.sol\":855:2241  contract EVMStorageSingleSlot {... */\n  mstore(0x40, 0x80)\n  callvalue\n  dup1\n  iszero\n  tag_1\n  jumpi\n  0x00\n  dup1\n  revert\ntag_1:\n  pop\n  dataSize(sub_0)\n  dup1\n  dataOffset(sub_0)\n  0x00\n  codecopy\n  0x00\n  return\nstop\n\nsub_0: assembly {\n        /* \"EVMStorageLayout.sol\":855:2241  contract EVMStorageSingleSlot {... */\n      mstore(0x40, 0x80)\n      callvalue\n      dup1\n      iszero\n      tag_1\n      jumpi\n      0x00\n      dup1\n      revert\n    tag_1:\n      pop\n      jumpi(tag_2, lt(calldatasize, 0x04))\n      shr(0xe0, calldataload(0x00))\n      dup1\n      0x91367bd8\n      gt\n      tag_10\n      jumpi\n      dup1\n      0x91367bd8\n      eq\n      tag_6\n      jumpi\n      dup1\n      0xd84434ae\n      eq\n      tag_7\n      jumpi\n      dup1\n      0xddc87aa1\n      eq\n      tag_8\n      jumpi\n      dup1\n      0xe27a0ecd\n      eq\n      tag_9\n      jumpi\n      jump(tag_2)\n    tag_10:\n      dup1\n      0x4f3080a9\n      eq\n      tag_3\n      jumpi\n      dup1\n      0x5c86ad78\n      eq\n      tag_4\n      jumpi\n      dup1\n      0x6ff25816\n      eq\n      tag_5\n      jumpi\n    tag_2:\n      0x00\n      dup1\n      revert\n        /* \"EVMStorageLayout.sol\":1358:1516  function test_sstore() public {... */\n    tag_3:\n      tag_11\n      tag_12\n      jump\t// in\n    tag_11:\n      stop\n        /* \"EVMStorageLayout.sol\":1291:1309  uint256 public s_y */\n    tag_4:\n      tag_13\n      tag_14\n      jump\t// in\n    tag_13:\n      mload(0x40)\n      tag_15\n      swap2\n      swap1\n      tag_16\n      jump\t// in\n    tag_15:\n      mload(0x40)\n      dup1\n      swap2\n      sub\n      swap1\n      return\n        /* \"EVMStorageLayout.sol\":1331:1349  bytes32 public s_z */\n    tag_5:\n      tag_17\n      tag_18\n      jump\t// in\n    tag_17:\n      mload(0x40)\n      tag_19\n      swap2\n      swap1\n      tag_20\n      jump\t// in\n    tag_19:\n      mload(0x40)\n      dup1\n      swap2\n      sub\n      swap1\n      return\n        /* \"EVMStorageLayout.sol\":1524:1745  function test_sstore_again() public {... */\n    tag_6:\n      tag_21\n      tag_22\n      jump\t// in\n    tag_21:\n      stop\n        /* \"EVMStorageLayout.sol\":1986:2238  function test_sload_again() public view returns (uint256 x, uint256 y, bytes32 z) {... */\n    tag_7:\n      tag_23\n      tag_24\n      jump\t// in\n    tag_23:\n      mload(0x40)\n      tag_25\n      swap4\n      swap3\n      swap2\n      swap1\n      tag_26\n      jump\t// in\n    tag_25:\n      mload(0x40)\n      dup1\n      swap2\n      sub\n      swap1\n      return\n        /* \"EVMStorageLayout.sol\":1251:1269  uint256 public s_x */\n    tag_8:\n      tag_27\n      tag_28\n      jump\t// in\n    tag_27:\n      mload(0x40)\n      tag_29\n      swap2\n      swap1\n      tag_16\n      jump\t// in\n    tag_29:\n      mload(0x40)\n      dup1\n      swap2\n      sub\n      swap1\n      return\n        /* \"EVMStorageLayout.sol\":1753:1978  function test_sload() public view returns (uint256 x, uint256 y, bytes32 z) {... */\n    tag_9:\n      tag_30\n      tag_31\n      jump\t// in\n    tag_30:\n      mload(0x40)\n      tag_32\n      swap4\n      swap3\n      swap2\n      swap1\n      tag_26\n      jump\t// in\n    tag_32:\n      mload(0x40)\n      dup1\n      swap2\n      sub\n      swap1\n      return\n        /* \"EVMStorageLayout.sol\":1358:1516  function test_sstore() public {... */\n    tag_12:\n        /* \"EVMStorageLayout.sol\":1433:1436  111 */\n      0x6f\n        /* \"EVMStorageLayout.sol\":1430:1431  0 */\n      0x00\n        /* \"EVMStorageLayout.sol\":1423:1437  sstore(0, 111) */\n      sstore\n        /* \"EVMStorageLayout.sol\":1461:1464  222 */\n      0xde\n        /* \"EVMStorageLayout.sol\":1458:1459  1 */\n      0x01\n        /* \"EVMStorageLayout.sol\":1451:1465  sstore(1, 222) */\n      sstore\n        /* \"EVMStorageLayout.sol\":1489:1497  0xababab */\n      0xababab\n        /* \"EVMStorageLayout.sol\":1486:1487  2 */\n      0x02\n        /* \"EVMStorageLayout.sol\":1479:1498  sstore(2, 0xababab) */\n      sstore\n        /* \"EVMStorageLayout.sol\":1358:1516  function test_sstore() public {... */\n      jump\t// out\n        /* \"EVMStorageLayout.sol\":1291:1309  uint256 public s_y */\n    tag_14:\n      sload(0x01)\n      dup2\n      jump\t// out\n        /* \"EVMStorageLayout.sol\":1331:1349  bytes32 public s_z */\n    tag_18:\n      sload(0x02)\n      dup2\n      jump\t// out\n        /* \"EVMStorageLayout.sol\":1524:1745  function test_sstore_again() public {... */\n    tag_22:\n        /* \"EVMStorageLayout.sol\":1648:1651  123 */\n      0x7b\n        /* \"EVMStorageLayout.sol\":1638:1646  s_x.slot */\n      0x00\n        /* \"EVMStorageLayout.sol\":1631:1652  sstore(s_x.slot, 123) */\n      sstore\n        /* \"EVMStorageLayout.sol\":1683:1686  456 */\n      0x01c8\n        /* \"EVMStorageLayout.sol\":1673:1681  s_y.slot */\n      0x01\n        /* \"EVMStorageLayout.sol\":1666:1687  sstore(s_y.slot, 456) */\n      sstore\n        /* \"EVMStorageLayout.sol\":1718:1726  0xcdcdcd */\n      0xcdcdcd\n        /* \"EVMStorageLayout.sol\":1708:1716  s_z.slot */\n      0x02\n        /* \"EVMStorageLayout.sol\":1701:1727  sstore(s_z.slot, 0xcdcdcd) */\n      sstore\n        /* \"EVMStorageLayout.sol\":1524:1745  function test_sstore_again() public {... */\n      jump\t// out\n        /* \"EVMStorageLayout.sol\":1986:2238  function test_sload_again() public view returns (uint256 x, uint256 y, bytes32 z) {... */\n    tag_24:\n        /* \"EVMStorageLayout.sol\":2035:2044  uint256 x */\n      0x00\n        /* \"EVMStorageLayout.sol\":2046:2055  uint256 y */\n      dup1\n        /* \"EVMStorageLayout.sol\":2057:2066  bytes32 z */\n      0x00\n        /* \"EVMStorageLayout.sol\":2114:2122  s_x.slot */\n      dup1\n        /* \"EVMStorageLayout.sol\":2108:2123  sload(s_x.slot) */\n      sload\n        /* \"EVMStorageLayout.sol\":2103:2123  x := sload(s_x.slot) */\n      swap3\n      pop\n        /* \"EVMStorageLayout.sol\":2148:2156  s_y.slot */\n      0x01\n        /* \"EVMStorageLayout.sol\":2142:2157  sload(s_y.slot) */\n      sload\n        /* \"EVMStorageLayout.sol\":2137:2157  y := sload(s_y.slot) */\n      swap2\n      pop\n        /* \"EVMStorageLayout.sol\":2182:2190  s_z.slot */\n      0x02\n        /* \"EVMStorageLayout.sol\":2176:2191  sload(s_z.slot) */\n      sload\n        /* \"EVMStorageLayout.sol\":2171:2191  z := sload(s_z.slot) */\n      swap1\n      pop\n        /* \"EVMStorageLayout.sol\":1986:2238  function test_sload_again() public view returns (uint256 x, uint256 y, bytes32 z) {... */\n      swap1\n      swap2\n      swap3\n      jump\t// out\n        /* \"EVMStorageLayout.sol\":1251:1269  uint256 public s_x */\n    tag_28:\n      sload(0x00)\n      dup2\n      jump\t// out\n        /* \"EVMStorageLayout.sol\":1753:1978  function test_sload() public view returns (uint256 x, uint256 y, bytes32 z) {... */\n    tag_31:\n        /* \"EVMStorageLayout.sol\":1796:1805  uint256 x */\n      0x00\n        /* \"EVMStorageLayout.sol\":1807:1816  uint256 y */\n      dup1\n        /* \"EVMStorageLayout.sol\":1818:1827  bytes32 z */\n      0x00\n        /* \"EVMStorageLayout.sol\":1875:1876  0 */\n      dup1\n        /* \"EVMStorageLayout.sol\":1869:1877  sload(0) */\n      sload\n        /* \"EVMStorageLayout.sol\":1864:1877  x := sload(0) */\n      swap3\n      pop\n        /* \"EVMStorageLayout.sol\":1902:1903  1 */\n      0x01\n        /* \"EVMStorageLayout.sol\":1896:1904  sload(1) */\n      sload\n        /* \"EVMStorageLayout.sol\":1891:1904  y := sload(1) */\n      swap2\n      pop\n        /* \"EVMStorageLayout.sol\":1929:1930  2 */\n      0x02\n        /* \"EVMStorageLayout.sol\":1923:1931  sload(2) */\n      sload\n        /* \"EVMStorageLayout.sol\":1918:1931  z := sload(2) */\n      swap1\n      pop\n        /* \"EVMStorageLayout.sol\":1753:1978  function test_sload() public view returns (uint256 x, uint256 y, bytes32 z) {... */\n      swap1\n      swap2\n      swap3\n      jump\t// out\n        /* \"#utility.yul\":7:84   */\n    tag_37:\n        /* \"#utility.yul\":44:51   */\n      0x00\n        /* \"#utility.yul\":73:78   */\n      dup2\n        /* \"#utility.yul\":62:78   */\n      swap1\n      pop\n        /* \"#utility.yul\":7:84   */\n      swap2\n      swap1\n      pop\n      jump\t// out\n        /* \"#utility.yul\":90:208   */\n    tag_38:\n        /* \"#utility.yul\":177:201   */\n      tag_44\n        /* \"#utility.yul\":195:200   */\n      dup2\n        /* \"#utility.yul\":177:201   */\n      tag_37\n      jump\t// in\n    tag_44:\n        /* \"#utility.yul\":172:175   */\n      dup3\n        /* \"#utility.yul\":165:202   */\n      mstore\n        /* \"#utility.yul\":90:208   */\n      pop\n      pop\n      jump\t// out\n        /* \"#utility.yul\":214:436   */\n    tag_16:\n        /* \"#utility.yul\":307:311   */\n      0x00\n        /* \"#utility.yul\":345:347   */\n      0x20\n        /* \"#utility.yul\":334:343   */\n      dup3\n        /* \"#utility.yul\":330:348   */\n      add\n        /* \"#utility.yul\":322:348   */\n      swap1\n      pop\n        /* \"#utility.yul\":358:429   */\n      tag_46\n        /* \"#utility.yul\":426:427   */\n      0x00\n        /* \"#utility.yul\":415:424   */\n      dup4\n        /* \"#utility.yul\":411:428   */\n      add\n        /* \"#utility.yul\":402:408   */\n      dup5\n        /* \"#utility.yul\":358:429   */\n      tag_38\n      jump\t// in\n    tag_46:\n        /* \"#utility.yul\":214:436   */\n      swap3\n      swap2\n      pop\n      pop\n      jump\t// out\n        /* \"#utility.yul\":442:519   */\n    tag_39:\n        /* \"#utility.yul\":479:486   */\n      0x00\n        /* \"#utility.yul\":508:513   */\n      dup2\n        /* \"#utility.yul\":497:513   */\n      swap1\n      pop\n        /* \"#utility.yul\":442:519   */\n      swap2\n      swap1\n      pop\n      jump\t// out\n        /* \"#utility.yul\":525:643   */\n    tag_40:\n        /* \"#utility.yul\":612:636   */\n      tag_49\n        /* \"#utility.yul\":630:635   */\n      dup2\n        /* \"#utility.yul\":612:636   */\n      tag_39\n      jump\t// in\n    tag_49:\n        /* \"#utility.yul\":607:610   */\n      dup3\n        /* \"#utility.yul\":600:637   */\n      mstore\n        /* \"#utility.yul\":525:643   */\n      pop\n      pop\n      jump\t// out\n        /* \"#utility.yul\":649:871   */\n    tag_20:\n        /* \"#utility.yul\":742:746   */\n      0x00\n        /* \"#utility.yul\":780:782   */\n      0x20\n        /* \"#utility.yul\":769:778   */\n      dup3\n        /* \"#utility.yul\":765:783   */\n      add\n        /* \"#utility.yul\":757:783   */\n      swap1\n      pop\n        /* \"#utility.yul\":793:864   */\n      tag_51\n        /* \"#utility.yul\":861:862   */\n      0x00\n        /* \"#utility.yul\":850:859   */\n      dup4\n        /* \"#utility.yul\":846:863   */\n      add\n        /* \"#utility.yul\":837:843   */\n      dup5\n        /* \"#utility.yul\":793:864   */\n      tag_40\n      jump\t// in\n    tag_51:\n        /* \"#utility.yul\":649:871   */\n      swap3\n      swap2\n      pop\n      pop\n      jump\t// out\n        /* \"#utility.yul\":877:1319   */\n    tag_26:\n        /* \"#utility.yul\":1026:1030   */\n      0x00\n        /* \"#utility.yul\":1064:1066   */\n      0x60\n        /* \"#utility.yul\":1053:1062   */\n      dup3\n        /* \"#utility.yul\":1049:1067   */\n      add\n        /* \"#utility.yul\":1041:1067   */\n      swap1\n      pop\n        /* \"#utility.yul\":1077:1148   */\n      tag_53\n        /* \"#utility.yul\":1145:1146   */\n      0x00\n        /* \"#utility.yul\":1134:1143   */\n      dup4\n        /* \"#utility.yul\":1130:1147   */\n      add\n        /* \"#utility.yul\":1121:1127   */\n      dup7\n        /* \"#utility.yul\":1077:1148   */\n      tag_38\n      jump\t// in\n    tag_53:\n        /* \"#utility.yul\":1158:1230   */\n      tag_54\n        /* \"#utility.yul\":1226:1228   */\n      0x20\n        /* \"#utility.yul\":1215:1224   */\n      dup4\n        /* \"#utility.yul\":1211:1229   */\n      add\n        /* \"#utility.yul\":1202:1208   */\n      dup6\n        /* \"#utility.yul\":1158:1230   */\n      tag_38\n      jump\t// in\n    tag_54:\n        /* \"#utility.yul\":1240:1312   */\n      tag_55\n        /* \"#utility.yul\":1308:1310   */\n      0x40\n        /* \"#utility.yul\":1297:1306   */\n      dup4\n        /* \"#utility.yul\":1293:1311   */\n      add\n        /* \"#utility.yul\":1284:1290   */\n      dup5\n        /* \"#utility.yul\":1240:1312   */\n      tag_40\n      jump\t// in\n    tag_55:\n        /* \"#utility.yul\":877:1319   */\n      swap5\n      swap4\n      pop\n      pop\n      pop\n      pop\n      jump\t// out\n\n    auxdata: 0xa26469706673582212203acc253a37decc4e8ab8738547a4edc5ca8255a0c3dca16d817ed2bbc778f4f664736f6c634300081a0033\n}\n",
				"bytecode": {
					"linkReferences": {},
					"object": "6080604052348015600e575f80fd5b5061025c8061001c5f395ff3fe608060405234801561000f575f80fd5b506004361061007b575f3560e01c806391367bd81161005957806391367bd8146100c5578063d84434ae146100cf578063ddc87aa1146100ef578063e27a0ecd1461010d5761007b565b80634f3080a91461007f5780635c86ad78146100895780636ff25816146100a7575b5f80fd5b61008761012d565b005b61009161013f565b60405161009e91906101a7565b60405180910390f35b6100af610145565b6040516100bc91906101d8565b60405180910390f35b6100cd61014b565b005b6100d761015e565b6040516100e6939291906101f1565b60405180910390f35b6100f7610174565b60405161010491906101a7565b60405180910390f35b610115610179565b604051610124939291906101f1565b60405180910390f35b606f5f5560de60015562ababab600255565b60015481565b60025481565b607b5f556101c860015562cdcdcd600255565b5f805f8054925060015491506002549050909192565b5f5481565b5f805f8054925060015491506002549050909192565b5f819050919050565b6101a18161018f565b82525050565b5f6020820190506101ba5f830184610198565b92915050565b5f819050919050565b6101d2816101c0565b82525050565b5f6020820190506101eb5f8301846101c9565b92915050565b5f6060820190506102045f830186610198565b6102116020830185610198565b61021e60408301846101c9565b94935050505056fea26469706673582212203acc253a37decc4e8ab8738547a4edc5ca8255a0c3dca16d817ed2bbc778f4f664736f6c634300081a0033",
					"opcodes": "PUSH1 0x80 PUSH1 0x40 MSTORE CALLVALUE DUP1 ISZERO PUSH1 0xE JUMPI PUSH0 DUP1 REVERT JUMPDEST POP PUSH2 0x25C DUP1 PUSH2 0x1C PUSH0 CODECOPY PUSH0 RETURN INVALID PUSH1 0x80 PUSH1 0x40 MSTORE CALLVALUE DUP1 ISZERO PUSH2 0xF JUMPI PUSH0 DUP1 REVERT JUMPDEST POP PUSH1 0x4 CALLDATASIZE LT PUSH2 0x7B JUMPI PUSH0 CALLDATALOAD PUSH1 0xE0 SHR DUP1 PUSH4 0x91367BD8 GT PUSH2 0x59 JUMPI DUP1 PUSH4 0x91367BD8 EQ PUSH2 0xC5 JUMPI DUP1 PUSH4 0xD84434AE EQ PUSH2 0xCF JUMPI DUP1 PUSH4 0xDDC87AA1 EQ PUSH2 0xEF JUMPI DUP1 PUSH4 0xE27A0ECD EQ PUSH2 0x10D JUMPI PUSH2 0x7B JUMP JUMPDEST DUP1 PUSH4 0x4F3080A9 EQ PUSH2 0x7F JUMPI DUP1 PUSH4 0x5C86AD78 EQ PUSH2 0x89 JUMPI DUP1 PUSH4 0x6FF25816 EQ PUSH2 0xA7 JUMPI JUMPDEST PUSH0 DUP1 REVERT JUMPDEST PUSH2 0x87 PUSH2 0x12D JUMP JUMPDEST STOP JUMPDEST PUSH2 0x91 PUSH2 0x13F JUMP JUMPDEST PUSH1 0x40 MLOAD PUSH2 0x9E SWAP2 SWAP1 PUSH2 0x1A7 JUMP JUMPDEST PUSH1 0x40 MLOAD DUP1 SWAP2 SUB SWAP1 RETURN JUMPDEST PUSH2 0xAF PUSH2 0x145 JUMP JUMPDEST PUSH1 0x40 MLOAD PUSH2 0xBC SWAP2 SWAP1 PUSH2 0x1D8 JUMP JUMPDEST PUSH1 0x40 MLOAD DUP1 SWAP2 SUB SWAP1 RETURN JUMPDEST PUSH2 0xCD PUSH2 0x14B JUMP JUMPDEST STOP JUMPDEST PUSH2 0xD7 PUSH2 0x15E JUMP JUMPDEST PUSH1 0x40 MLOAD PUSH2 0xE6 SWAP4 SWAP3 SWAP2 SWAP1 PUSH2 0x1F1 JUMP JUMPDEST PUSH1 0x40 MLOAD DUP1 SWAP2 SUB SWAP1 RETURN JUMPDEST PUSH2 0xF7 PUSH2 0x174 JUMP JUMPDEST PUSH1 0x40 MLOAD PUSH2 0x104 SWAP2 SWAP1 PUSH2 0x1A7 JUMP JUMPDEST PUSH1 0x40 MLOAD DUP1 SWAP2 SUB SWAP1 RETURN JUMPDEST PUSH2 0x115 PUSH2 0x179 JUMP JUMPDEST PUSH1 0x40 MLOAD PUSH2 0x124 SWAP4 SWAP3 SWAP2 SWAP1 PUSH2 0x1F1 JUMP JUMPDEST PUSH1 0x40 MLOAD DUP1 SWAP2 SUB SWAP1 RETURN JUMPDEST PUSH1 0x6F PUSH0 SSTORE PUSH1 0xDE PUSH1 0x1 SSTORE PUSH3 0xABABAB PUSH1 0x2 SSTORE JUMP JUMPDEST PUSH1 0x1 SLOAD DUP2 JUMP JUMPDEST PUSH1 0x2 SLOAD DUP2 JUMP JUMPDEST PUSH1 0x7B PUSH0 SSTORE PUSH2 0x1C8 PUSH1 0x1 SSTORE PUSH3 0xCDCDCD PUSH1 0x2 SSTORE JUMP JUMPDEST PUSH0 DUP1 PUSH0 DUP1 SLOAD SWAP3 POP PUSH1 0x1 SLOAD SWAP2 POP PUSH1 0x2 SLOAD SWAP1 POP SWAP1 SWAP2 SWAP3 JUMP JUMPDEST PUSH0 SLOAD DUP2 JUMP JUMPDEST PUSH0 DUP1 PUSH0 DUP1 SLOAD SWAP3 POP PUSH1 0x1 SLOAD SWAP2 POP PUSH1 0x2 SLOAD SWAP1 POP SWAP1 SWAP2 SWAP3 JUMP JUMPDEST PUSH0 DUP2 SWAP1 POP SWAP2 SWAP1 POP JUMP JUMPDEST PUSH2 0x1A1 DUP2 PUSH2 0x18F JUMP JUMPDEST DUP3 MSTORE POP POP JUMP JUMPDEST PUSH0 PUSH1 0x20 DUP3 ADD SWAP1 POP PUSH2 0x1BA PUSH0 DUP4 ADD DUP5 PUSH2 0x198 JUMP JUMPDEST SWAP3 SWAP2 POP POP JUMP JUMPDEST PUSH0 DUP2 SWAP1 POP SWAP2 SWAP1 POP JUMP JUMPDEST PUSH2 0x1D2 DUP2 PUSH2 0x1C0 JUMP JUMPDEST DUP3 MSTORE POP POP JUMP JUMPDEST PUSH0 PUSH1 0x20 DUP3 ADD SWAP1 POP PUSH2 0x1EB PUSH0 DUP4 ADD DUP5 PUSH2 0x1C9 JUMP JUMPDEST SWAP3 SWAP2 POP POP JUMP JUMPDEST PUSH0 PUSH1 0x60 DUP3 ADD SWAP1 POP PUSH2 0x204 PUSH0 DUP4 ADD DUP7 PUSH2 0x198 JUMP JUMPDEST PUSH2 0x211 PUSH1 0x20 DUP4 ADD DUP6 PUSH2 0x198 JUMP JUMPDEST PUSH2 0x21E PUSH1 0x40 DUP4 ADD DUP5 PUSH2 0x1C9 JUMP JUMPDEST SWAP5 SWAP4 POP POP POP POP JUMP INVALID LOG2 PUSH5 0x6970667358 0x22 SLT KECCAK256 GASPRICE 0xCC 0x25 GASPRICE CALLDATACOPY 0xDE 0xCC 0x4E DUP11 0xB8 PUSH20 0x8547A4EDC5CA8255A0C3DCA16D817ED2BBC778F4 0xF6 PUSH5 0x736F6C6343 STOP ADDMOD BYTE STOP CALLER "
				},
				"gasEstimates": {
					"creation": {
						"codeDepositCost": "120800",
						"executionCost": "163",
						"totalCost": "120963"
					},
					"external": {
						"s_x()": "2468",
						"s_y()": "2448",
						"s_z()": "2470",
						"test_sload()": "infinite",
						"test_sload_again()": "infinite",
						"test_sstore()": "66461",
						"test_sstore_again()": "66460"
					}
				},
				"methodIdentifiers": {
					"s_x()": "ddc87aa1",
					"s_y()": "5c86ad78",
					"s_z()": "6ff25816",
					"test_sload()": "e27a0ecd",
					"test_sload_again()": "d84434ae",
					"test_sstore()": "4f3080a9",
					"test_sstore_again()": "91367bd8"
				}
			},
			"storageLayout": {
				"storage": [
					{
						"astId": 33,
						"contract": "EVMStorageLayout.sol:EVMStorageSingleSlot",
						"label": "s_x",
						"offset": 0,
						"slot": "0",
						"type": "t_uint256"
					},
					{
						"astId": 35,
						"contract": "EVMStorageLayout.sol:EVMStorageSingleSlot",
						"label": "s_y",
						"offset": 0,
						"slot": "1",
						"type": "t_uint256"
					},
					{
						"astId": 37,
						"contract": "EVMStorageLayout.sol:EVMStorageSingleSlot",
						"label": "s_z",
						"offset": 0,
						"slot": "2",
						"type": "t_bytes32"
					}
				],
				"types": {
					"t_bytes32": {
						"encoding": "inplace",
						"label": "bytes32",
						"numberOfBytes": "32"
					},
					"t_uint256": {
						"encoding": "inplace",
						"label": "uint256",
						"numberOfBytes": "32"
					}
				}
			},
			"userdoc": {
				"kind": "user",
				"methods": {},
				"version": 1
			}
		}
	}
}