{
	"UserDefinedValueTypes.sol": {
		"Examples": {
			"abi": [
				{
					"inputs": [],
					"name": "example_no_uvdt",
					"outputs": [],
					"stateMutability": "view",
					"type": "function"
				},
				{
					"inputs": [],
					"name": "example_uvdt",
					"outputs": [],
					"stateMutability": "view",
					"type": "function"
				}
			],
			"devdoc": {
				"kind": "dev",
				"methods": {},
				"version": 1
			},
			"evm": {
				"assembly": "    /* \"UserDefinedValueTypes.sol\":1353:2290  contract Examples {... */\n  mstore(0x40, 0x80)\n  callvalue\n  dup1\n  iszero\n  tag_1\n  jumpi\n  0x00\n  dup1\n  revert\ntag_1:\n  pop\n  dataSize(sub_0)\n  dup1\n  dataOffset(sub_0)\n  0x00\n  codecopy\n  0x00\n  return\nstop\n\nsub_0: assembly {\n        /* \"UserDefinedValueTypes.sol\":1353:2290  contract Examples {... */\n      mstore(0x40, 0x80)\n      callvalue\n      dup1\n      iszero\n      tag_1\n      jumpi\n      0x00\n      dup1\n      revert\n    tag_1:\n      pop\n      jumpi(tag_2, lt(calldatasize, 0x04))\n      shr(0xe0, calldataload(0x00))\n      dup1\n      0x645e9edf\n      eq\n      tag_3\n      jumpi\n      dup1\n      0x9848d8e6\n      eq\n      tag_4\n      jumpi\n    tag_2:\n      0x00\n      dup1\n      revert\n        /* \"UserDefinedValueTypes.sol\":1378:1689  function example_no_uvdt() external view {... */\n    tag_3:\n      tag_5\n      tag_6\n      jump\t// in\n    tag_5:\n      stop\n        /* \"UserDefinedValueTypes.sol\":1697:2287  function example_uvdt() external view {... */\n    tag_4:\n      tag_7\n      tag_8\n      jump\t// in\n    tag_7:\n      stop\n        /* \"UserDefinedValueTypes.sol\":1378:1689  function example_no_uvdt() external view {... */\n    tag_6:\n        /* \"UserDefinedValueTypes.sol\":1455:1468  uint128 clock */\n      0x00\n        /* \"UserDefinedValueTypes.sol\":1479:1487  uint64 d */\n      dup1\n        /* \"UserDefinedValueTypes.sol\":1490:1491  1 */\n      0x01\n        /* \"UserDefinedValueTypes.sol\":1479:1491  uint64 d = 1 */\n      swap1\n      pop\n        /* \"UserDefinedValueTypes.sol\":1502:1510  uint64 t */\n      0x00\n        /* \"UserDefinedValueTypes.sol\":1520:1535  block.timestamp */\n      timestamp\n        /* \"UserDefinedValueTypes.sol\":1502:1536  uint64 t = uint64(block.timestamp) */\n      swap1\n      pop\n        /* \"UserDefinedValueTypes.sol\":1555:1579  LibClockBasic.wrap(d, t) */\n      tag_10\n        /* \"UserDefinedValueTypes.sol\":1574:1575  d */\n      dup3\n        /* \"UserDefinedValueTypes.sol\":1577:1578  t */\n      dup3\n        /* \"UserDefinedValueTypes.sol\":1555:1573  LibClockBasic.wrap */\n      tag_11\n        /* \"UserDefinedValueTypes.sol\":1555:1579  LibClockBasic.wrap(d, t) */\n      jump\t// in\n    tag_10:\n        /* \"UserDefinedValueTypes.sol\":1547:1579  clock = LibClockBasic.wrap(d, t) */\n      swap3\n      pop\n        /* \"UserDefinedValueTypes.sol\":1657:1681  LibClockBasic.wrap(t, d) */\n      tag_12\n        /* \"UserDefinedValueTypes.sol\":1676:1677  t */\n      dup2\n        /* \"UserDefinedValueTypes.sol\":1679:1680  d */\n      dup4\n        /* \"UserDefinedValueTypes.sol\":1657:1675  LibClockBasic.wrap */\n      tag_11\n        /* \"UserDefinedValueTypes.sol\":1657:1681  LibClockBasic.wrap(t, d) */\n      jump\t// in\n    tag_12:\n        /* \"UserDefinedValueTypes.sol\":1649:1681  clock = LibClockBasic.wrap(t, d) */\n      swap3\n      pop\n        /* \"UserDefinedValueTypes.sol\":1419:1689  {... */\n      pop\n      pop\n      pop\n        /* \"UserDefinedValueTypes.sol\":1378:1689  function example_no_uvdt() external view {... */\n      jump\t// out\n        /* \"UserDefinedValueTypes.sol\":1697:2287  function example_uvdt() external view {... */\n    tag_8:\n        /* \"UserDefinedValueTypes.sol\":1803:1813  Duration d */\n      0x00\n        /* \"UserDefinedValueTypes.sol\":1830:1831  1 */\n      0x01\n        /* \"UserDefinedValueTypes.sol\":1803:1832  Duration d = Duration.wrap(1) */\n      swap1\n      pop\n        /* \"UserDefinedValueTypes.sol\":1843:1854  Timestamp t */\n      0x00\n        /* \"UserDefinedValueTypes.sol\":1879:1894  block.timestamp */\n      timestamp\n        /* \"UserDefinedValueTypes.sol\":1843:1896  Timestamp t = Timestamp.wrap(uint64(block.timestamp)) */\n      swap1\n      pop\n        /* \"UserDefinedValueTypes.sol\":1979:1991  uint64 d_u64 */\n      0x00\n        /* \"UserDefinedValueTypes.sol\":2010:2011  d */\n      dup3\n        /* \"UserDefinedValueTypes.sol\":1979:2012  uint64 d_u64 = Duration.unwrap(d) */\n      swap1\n      pop\n        /* \"UserDefinedValueTypes.sol\":2023:2035  uint64 t_u64 */\n      0x00\n        /* \"UserDefinedValueTypes.sol\":2055:2056  t */\n      dup3\n        /* \"UserDefinedValueTypes.sol\":2023:2057  uint64 t_u64 = Timestamp.unwrap(t) */\n      swap1\n      pop\n        /* \"UserDefinedValueTypes.sol\":2099:2110  Clock clock */\n      0x00\n        /* \"UserDefinedValueTypes.sol\":2145:2164  LibClock.wrap(d, t) */\n      tag_14\n        /* \"UserDefinedValueTypes.sol\":2159:2160  d */\n      dup6\n        /* \"UserDefinedValueTypes.sol\":2162:2163  t */\n      dup6\n        /* \"UserDefinedValueTypes.sol\":2145:2158  LibClock.wrap */\n      tag_15\n        /* \"UserDefinedValueTypes.sol\":2145:2164  LibClock.wrap(d, t) */\n      jump\t// in\n    tag_14:\n        /* \"UserDefinedValueTypes.sol\":2137:2164  clock = LibClock.wrap(d, t) */\n      swap1\n      pop\n        /* \"UserDefinedValueTypes.sol\":1735:2287  {... */\n      pop\n      pop\n      pop\n      pop\n      pop\n        /* \"UserDefinedValueTypes.sol\":1697:2287  function example_uvdt() external view {... */\n      jump\t// out\n        /* \"UserDefinedValueTypes.sol\":1127:1346  function wrap(uint64 _duration, uint64 _timestamp)... */\n    tag_11:\n        /* \"UserDefinedValueTypes.sol\":1228:1241  uint128 clock */\n      0x00\n        /* \"UserDefinedValueTypes.sol\":1317:1327  _timestamp */\n      dup2\n        /* \"UserDefinedValueTypes.sol\":1305:1314  _duration */\n      dup4\n        /* \"UserDefinedValueTypes.sol\":1299:1303  0x40 */\n      0x40\n        /* \"UserDefinedValueTypes.sol\":1295:1315  shl(0x40, _duration) */\n      shl\n        /* \"UserDefinedValueTypes.sol\":1292:1328  or(shl(0x40, _duration), _timestamp) */\n      or\n        /* \"UserDefinedValueTypes.sol\":1283:1328  clock := or(shl(0x40, _duration), _timestamp) */\n      swap1\n      pop\n        /* \"UserDefinedValueTypes.sol\":1127:1346  function wrap(uint64 _duration, uint64 _timestamp)... */\n      swap3\n      swap2\n      pop\n      pop\n      jump\t// out\n        /* \"UserDefinedValueTypes.sol\":317:630  function wrap(Duration _duration, Timestamp _timestamp)... */\n    tag_15:\n        /* \"UserDefinedValueTypes.sol\":423:435  Clock clock_ */\n      0x00\n        /* \"UserDefinedValueTypes.sol\":601:611  _timestamp */\n      dup2\n        /* \"UserDefinedValueTypes.sol\":589:598  _duration */\n      dup4\n        /* \"UserDefinedValueTypes.sol\":583:587  0x40 */\n      0x40\n        /* \"UserDefinedValueTypes.sol\":579:599  shl(0x40, _duration) */\n      shl\n        /* \"UserDefinedValueTypes.sol\":576:612  or(shl(0x40, _duration), _timestamp) */\n      or\n        /* \"UserDefinedValueTypes.sol\":566:612  clock_ := or(shl(0x40, _duration), _timestamp) */\n      swap1\n      pop\n        /* \"UserDefinedValueTypes.sol\":317:630  function wrap(Duration _duration, Timestamp _timestamp)... */\n      swap3\n      swap2\n      pop\n      pop\n      jump\t// out\n\n    auxdata: 0xa26469706673582212205c7e867a4e9c09a331e9c97cbf2883cf7622a3c64f9519754fd137a41e56a5c264736f6c634300081a0033\n}\n",
				"bytecode": {
					"linkReferences": {},
					"object": "6080604052348015600e575f80fd5b5060de80601a5f395ff3fe6080604052348015600e575f80fd5b50600436106030575f3560e01c8063645e9edf1460345780639848d8e614603c575b5f80fd5b603a6044565b005b60426067565b005b5f80600190505f42905060568282608a565b925060608183608a565b9250505050565b5f600190505f4290505f8290505f8290505f608185856099565b90505050505050565b5f818360401b17905092915050565b5f818360401b1790509291505056fea26469706673582212205c7e867a4e9c09a331e9c97cbf2883cf7622a3c64f9519754fd137a41e56a5c264736f6c634300081a0033",
					"opcodes": "PUSH1 0x80 PUSH1 0x40 MSTORE CALLVALUE DUP1 ISZERO PUSH1 0xE JUMPI PUSH0 DUP1 REVERT JUMPDEST POP PUSH1 0xDE DUP1 PUSH1 0x1A PUSH0 CODECOPY PUSH0 RETURN INVALID PUSH1 0x80 PUSH1 0x40 MSTORE CALLVALUE DUP1 ISZERO PUSH1 0xE JUMPI PUSH0 DUP1 REVERT JUMPDEST POP PUSH1 0x4 CALLDATASIZE LT PUSH1 0x30 JUMPI PUSH0 CALLDATALOAD PUSH1 0xE0 SHR DUP1 PUSH4 0x645E9EDF EQ PUSH1 0x34 JUMPI DUP1 PUSH4 0x9848D8E6 EQ PUSH1 0x3C JUMPI JUMPDEST PUSH0 DUP1 REVERT JUMPDEST PUSH1 0x3A PUSH1 0x44 JUMP JUMPDEST STOP JUMPDEST PUSH1 0x42 PUSH1 0x67 JUMP JUMPDEST STOP JUMPDEST PUSH0 DUP1 PUSH1 0x1 SWAP1 POP PUSH0 TIMESTAMP SWAP1 POP PUSH1 0x56 DUP3 DUP3 PUSH1 0x8A JUMP JUMPDEST SWAP3 POP PUSH1 0x60 DUP2 DUP4 PUSH1 0x8A JUMP JUMPDEST SWAP3 POP POP POP POP JUMP JUMPDEST PUSH0 PUSH1 0x1 SWAP1 POP PUSH0 TIMESTAMP SWAP1 POP PUSH0 DUP3 SWAP1 POP PUSH0 DUP3 SWAP1 POP PUSH0 PUSH1 0x81 DUP6 DUP6 PUSH1 0x99 JUMP JUMPDEST SWAP1 POP POP POP POP POP POP JUMP JUMPDEST PUSH0 DUP2 DUP4 PUSH1 0x40 SHL OR SWAP1 POP SWAP3 SWAP2 POP POP JUMP JUMPDEST PUSH0 DUP2 DUP4 PUSH1 0x40 SHL OR SWAP1 POP SWAP3 SWAP2 POP POP JUMP INVALID LOG2 PUSH5 0x6970667358 0x22 SLT KECCAK256 TLOAD PUSH31 0x867A4E9C09A331E9C97CBF2883CF7622A3C64F9519754FD137A41E56A5C264 PUSH20 0x6F6C634300081A00330000000000000000000000 "
				},
				"gasEstimates": {
					"creation": {
						"codeDepositCost": "44400",
						"executionCost": "91",
						"totalCost": "44491"
					},
					"external": {
						"example_no_uvdt()": "infinite",
						"example_uvdt()": "261"
					}
				},
				"methodIdentifiers": {
					"example_no_uvdt()": "645e9edf",
					"example_uvdt()": "9848d8e6"
				}
			},
			"storageLayout": {
				"storage": [],
				"types": null
			},
			"userdoc": {
				"kind": "user",
				"methods": {},
				"version": 1
			}
		}
	}
}