{
	"HashingWithKeccak256.sol": {
		"HashFunction": {
			"abi": [
				{
					"inputs": [
						{
							"internalType": "string",
							"name": "_text",
							"type": "string"
						},
						{
							"internalType": "string",
							"name": "_anotherText",
							"type": "string"
						}
					],
					"name": "collision",
					"outputs": [
						{
							"internalType": "bytes32",
							"name": "",
							"type": "bytes32"
						}
					],
					"stateMutability": "pure",
					"type": "function"
				},
				{
					"inputs": [
						{
							"internalType": "string",
							"name": "_text",
							"type": "string"
						},
						{
							"internalType": "uint256",
							"name": "_num",
							"type": "uint256"
						},
						{
							"internalType": "address",
							"name": "_addr",
							"type": "address"
						}
					],
					"name": "hash",
					"outputs": [
						{
							"internalType": "bytes32",
							"name": "",
							"type": "bytes32"
						}
					],
					"stateMutability": "pure",
					"type": "function"
				}
			],
			"devdoc": {
				"kind": "dev",
				"methods": {},
				"version": 1
			},
			"evm": {
				"assembly": "    /* \"HashingWithKeccak256.sol\":744:1468  contract HashFunction {... */\n  mstore(0x40, 0x80)\n  callvalue\n  dup1\n  iszero\n  tag_1\n  jumpi\n  0x00\n  dup1\n  revert\ntag_1:\n  pop\n  dataSize(sub_0)\n  dup1\n  dataOffset(sub_0)\n  0x00\n  codecopy\n  0x00\n  return\nstop\n\nsub_0: assembly {\n        /* \"HashingWithKeccak256.sol\":744:1468  contract HashFunction {... */\n      mstore(0x40, 0x80)\n      callvalue\n      dup1\n      iszero\n      tag_1\n      jumpi\n      0x00\n      dup1\n      revert\n    tag_1:\n      pop\n      jumpi(tag_2, lt(calldatasize, 0x04))\n      shr(0xe0, calldataload(0x00))\n      dup1\n      0x5dda416e\n      eq\n      tag_3\n      jumpi\n      dup1\n      0x7b7fb982\n      eq\n      tag_4\n      jumpi\n    tag_2:\n      0x00\n      dup1\n      revert\n        /* \"HashingWithKeccak256.sol\":773:972  function hash(string memory _text, uint256 _num, address _addr)... */\n    tag_3:\n      tag_5\n      0x04\n      dup1\n      calldatasize\n      sub\n      dup2\n      add\n      swap1\n      tag_6\n      swap2\n      swap1\n      tag_7\n      jump\t// in\n    tag_6:\n      tag_8\n      jump\t// in\n    tag_5:\n      mload(0x40)\n      tag_9\n      swap2\n      swap1\n      tag_10\n      jump\t// in\n    tag_9:\n      mload(0x40)\n      dup1\n      swap2\n      sub\n      swap1\n      return\n        /* \"HashingWithKeccak256.sol\":1171:1465  function collision(string memory _text, string memory _anotherText)... */\n    tag_4:\n      tag_11\n      0x04\n      dup1\n      calldatasize\n      sub\n      dup2\n      add\n      swap1\n      tag_12\n      swap2\n      swap1\n      tag_13\n      jump\t// in\n    tag_12:\n      tag_14\n      jump\t// in\n    tag_11:\n      mload(0x40)\n      tag_15\n      swap2\n      swap1\n      tag_10\n      jump\t// in\n    tag_15:\n      mload(0x40)\n      dup1\n      swap2\n      sub\n      swap1\n      return\n        /* \"HashingWithKeccak256.sol\":773:972  function hash(string memory _text, uint256 _num, address _addr)... */\n    tag_8:\n        /* \"HashingWithKeccak256.sol\":885:892  bytes32 */\n      0x00\n        /* \"HashingWithKeccak256.sol\":944:949  _text */\n      dup4\n        /* \"HashingWithKeccak256.sol\":951:955  _num */\n      dup4\n        /* \"HashingWithKeccak256.sol\":957:962  _addr */\n      dup4\n        /* \"HashingWithKeccak256.sol\":927:963  abi.encodePacked(_text, _num, _addr) */\n      add(0x20, mload(0x40))\n      tag_17\n      swap4\n      swap3\n      swap2\n      swap1\n      tag_18\n      jump\t// in\n    tag_17:\n      mload(0x40)\n      0x20\n      dup2\n      dup4\n      sub\n      sub\n      dup2\n      mstore\n      swap1\n      0x40\n      mstore\n        /* \"HashingWithKeccak256.sol\":917:964  keccak256(abi.encodePacked(_text, _num, _addr)) */\n      dup1\n      mload\n      swap1\n      0x20\n      add\n      keccak256\n        /* \"HashingWithKeccak256.sol\":910:964  return keccak256(abi.encodePacked(_text, _num, _addr)) */\n      swap1\n      pop\n        /* \"HashingWithKeccak256.sol\":773:972  function hash(string memory _text, uint256 _num, address _addr)... */\n      swap4\n      swap3\n      pop\n      pop\n      pop\n      jump\t// out\n        /* \"HashingWithKeccak256.sol\":1171:1465  function collision(string memory _text, string memory _anotherText)... */\n    tag_14:\n        /* \"HashingWithKeccak256.sol\":1287:1294  bytes32 */\n      0x00\n        /* \"HashingWithKeccak256.sol\":1436:1441  _text */\n      dup3\n        /* \"HashingWithKeccak256.sol\":1443:1455  _anotherText */\n      dup3\n        /* \"HashingWithKeccak256.sol\":1419:1456  abi.encodePacked(_text, _anotherText) */\n      add(0x20, mload(0x40))\n      tag_20\n      swap3\n      swap2\n      swap1\n      tag_21\n      jump\t// in\n    tag_20:\n      mload(0x40)\n      0x20\n      dup2\n      dup4\n      sub\n      sub\n      dup2\n      mstore\n      swap1\n      0x40\n      mstore\n        /* \"HashingWithKeccak256.sol\":1409:1457  keccak256(abi.encodePacked(_text, _anotherText)) */\n      dup1\n      mload\n      swap1\n      0x20\n      add\n      keccak256\n        /* \"HashingWithKeccak256.sol\":1402:1457  return keccak256(abi.encodePacked(_text, _anotherText)) */\n      swap1\n      pop\n        /* \"HashingWithKeccak256.sol\":1171:1465  function collision(string memory _text, string memory _anotherText)... */\n      swap3\n      swap2\n      pop\n      pop\n      jump\t// out\n        /* \"#utility.yul\":7:82   */\n    tag_22:\n        /* \"#utility.yul\":40:46   */\n      0x00\n        /* \"#utility.yul\":73:75   */\n      0x40\n        /* \"#utility.yul\":67:76   */\n      mload\n        /* \"#utility.yul\":57:76   */\n      swap1\n      pop\n        /* \"#utility.yul\":7:82   */\n      swap1\n      jump\t// out\n        /* \"#utility.yul\":88:205   */\n    tag_23:\n        /* \"#utility.yul\":197:198   */\n      0x00\n        /* \"#utility.yul\":194:195   */\n      dup1\n        /* \"#utility.yul\":187:199   */\n      revert\n        /* \"#utility.yul\":211:328   */\n    tag_24:\n        /* \"#utility.yul\":320:321   */\n      0x00\n        /* \"#utility.yul\":317:318   */\n      dup1\n        /* \"#utility.yul\":310:322   */\n      revert\n        /* \"#utility.yul\":334:451   */\n    tag_25:\n        /* \"#utility.yul\":443:444   */\n      0x00\n        /* \"#utility.yul\":440:441   */\n      dup1\n        /* \"#utility.yul\":433:445   */\n      revert\n        /* \"#utility.yul\":457:574   */\n    tag_26:\n        /* \"#utility.yul\":566:567   */\n      0x00\n        /* \"#utility.yul\":563:564   */\n      dup1\n        /* \"#utility.yul\":556:568   */\n      revert\n        /* \"#utility.yul\":580:682   */\n    tag_27:\n        /* \"#utility.yul\":621:627   */\n      0x00\n        /* \"#utility.yul\":672:674   */\n      0x1f\n        /* \"#utility.yul\":668:675   */\n      not\n        /* \"#utility.yul\":663:665   */\n      0x1f\n        /* \"#utility.yul\":656:661   */\n      dup4\n        /* \"#utility.yul\":652:666   */\n      add\n        /* \"#utility.yul\":648:676   */\n      and\n        /* \"#utility.yul\":638:676   */\n      swap1\n      pop\n        /* \"#utility.yul\":580:682   */\n      swap2\n      swap1\n      pop\n      jump\t// out\n        /* \"#utility.yul\":688:868   */\n    tag_28:\n        /* \"#utility.yul\":736:813   */\n      0x4e487b7100000000000000000000000000000000000000000000000000000000\n        /* \"#utility.yul\":733:734   */\n      0x00\n        /* \"#utility.yul\":726:814   */\n      mstore\n        /* \"#utility.yul\":833:837   */\n      0x41\n        /* \"#utility.yul\":830:831   */\n      0x04\n        /* \"#utility.yul\":823:838   */\n      mstore\n        /* \"#utility.yul\":857:861   */\n      0x24\n        /* \"#utility.yul\":854:855   */\n      0x00\n        /* \"#utility.yul\":847:862   */\n      revert\n        /* \"#utility.yul\":874:1155   */\n    tag_29:\n        /* \"#utility.yul\":957:984   */\n      tag_63\n        /* \"#utility.yul\":979:983   */\n      dup3\n        /* \"#utility.yul\":957:984   */\n      tag_27\n      jump\t// in\n    tag_63:\n        /* \"#utility.yul\":949:955   */\n      dup2\n        /* \"#utility.yul\":945:985   */\n      add\n        /* \"#utility.yul\":1087:1093   */\n      dup2\n        /* \"#utility.yul\":1075:1085   */\n      dup2\n        /* \"#utility.yul\":1072:1094   */\n      lt\n        /* \"#utility.yul\":1051:1069   */\n      0xffffffffffffffff\n        /* \"#utility.yul\":1039:1049   */\n      dup3\n        /* \"#utility.yul\":1036:1070   */\n      gt\n        /* \"#utility.yul\":1033:1095   */\n      or\n        /* \"#utility.yul\":1030:1118   */\n      iszero\n      tag_64\n      jumpi\n        /* \"#utility.yul\":1098:1116   */\n      tag_65\n      tag_28\n      jump\t// in\n    tag_65:\n        /* \"#utility.yul\":1030:1118   */\n    tag_64:\n        /* \"#utility.yul\":1138:1148   */\n      dup1\n        /* \"#utility.yul\":1134:1136   */\n      0x40\n        /* \"#utility.yul\":1127:1149   */\n      mstore\n        /* \"#utility.yul\":917:1155   */\n      pop\n        /* \"#utility.yul\":874:1155   */\n      pop\n      pop\n      jump\t// out\n        /* \"#utility.yul\":1161:1290   */\n    tag_30:\n        /* \"#utility.yul\":1195:1201   */\n      0x00\n        /* \"#utility.yul\":1222:1242   */\n      tag_67\n      tag_22\n      jump\t// in\n    tag_67:\n        /* \"#utility.yul\":1212:1242   */\n      swap1\n      pop\n        /* \"#utility.yul\":1251:1284   */\n      tag_68\n        /* \"#utility.yul\":1279:1283   */\n      dup3\n        /* \"#utility.yul\":1271:1277   */\n      dup3\n        /* \"#utility.yul\":1251:1284   */\n      tag_29\n      jump\t// in\n    tag_68:\n        /* \"#utility.yul\":1161:1290   */\n      swap2\n      swap1\n      pop\n      jump\t// out\n        /* \"#utility.yul\":1296:1604   */\n    tag_31:\n        /* \"#utility.yul\":1358:1362   */\n      0x00\n        /* \"#utility.yul\":1448:1466   */\n      0xffffffffffffffff\n        /* \"#utility.yul\":1440:1446   */\n      dup3\n        /* \"#utility.yul\":1437:1467   */\n      gt\n        /* \"#utility.yul\":1434:1490   */\n      iszero\n      tag_70\n      jumpi\n        /* \"#utility.yul\":1470:1488   */\n      tag_71\n      tag_28\n      jump\t// in\n    tag_71:\n        /* \"#utility.yul\":1434:1490   */\n    tag_70:\n        /* \"#utility.yul\":1508:1537   */\n      tag_72\n        /* \"#utility.yul\":1530:1536   */\n      dup3\n        /* \"#utility.yul\":1508:1537   */\n      tag_27\n      jump\t// in\n    tag_72:\n        /* \"#utility.yul\":1500:1537   */\n      swap1\n      pop\n        /* \"#utility.yul\":1592:1596   */\n      0x20\n        /* \"#utility.yul\":1586:1590   */\n      dup2\n        /* \"#utility.yul\":1582:1597   */\n      add\n        /* \"#utility.yul\":1574:1597   */\n      swap1\n      pop\n        /* \"#utility.yul\":1296:1604   */\n      swap2\n      swap1\n      pop\n      jump\t// out\n        /* \"#utility.yul\":1610:1758   */\n    tag_32:\n        /* \"#utility.yul\":1708:1714   */\n      dup3\n        /* \"#utility.yul\":1703:1706   */\n      dup2\n        /* \"#utility.yul\":1698:1701   */\n      dup4\n        /* \"#utility.yul\":1685:1715   */\n      calldatacopy\n        /* \"#utility.yul\":1749:1750   */\n      0x00\n        /* \"#utility.yul\":1740:1746   */\n      dup4\n        /* \"#utility.yul\":1735:1738   */\n      dup4\n        /* \"#utility.yul\":1731:1747   */\n      add\n        /* \"#utility.yul\":1724:1751   */\n      mstore\n        /* \"#utility.yul\":1610:1758   */\n      pop\n      pop\n      pop\n      jump\t// out\n        /* \"#utility.yul\":1764:2189   */\n    tag_33:\n        /* \"#utility.yul\":1842:1847   */\n      0x00\n        /* \"#utility.yul\":1867:1933   */\n      tag_75\n        /* \"#utility.yul\":1883:1932   */\n      tag_76\n        /* \"#utility.yul\":1925:1931   */\n      dup5\n        /* \"#utility.yul\":1883:1932   */\n      tag_31\n      jump\t// in\n    tag_76:\n        /* \"#utility.yul\":1867:1933   */\n      tag_30\n      jump\t// in\n    tag_75:\n        /* \"#utility.yul\":1858:1933   */\n      swap1\n      pop\n        /* \"#utility.yul\":1956:1962   */\n      dup3\n        /* \"#utility.yul\":1949:1954   */\n      dup2\n        /* \"#utility.yul\":1942:1963   */\n      mstore\n        /* \"#utility.yul\":1994:1998   */\n      0x20\n        /* \"#utility.yul\":1987:1992   */\n      dup2\n        /* \"#utility.yul\":1983:1999   */\n      add\n        /* \"#utility.yul\":2032:2035   */\n      dup5\n        /* \"#utility.yul\":2023:2029   */\n      dup5\n        /* \"#utility.yul\":2018:2021   */\n      dup5\n        /* \"#utility.yul\":2014:2030   */\n      add\n        /* \"#utility.yul\":2011:2036   */\n      gt\n        /* \"#utility.yul\":2008:2120   */\n      iszero\n      tag_77\n      jumpi\n        /* \"#utility.yul\":2039:2118   */\n      tag_78\n      tag_26\n      jump\t// in\n    tag_78:\n        /* \"#utility.yul\":2008:2120   */\n    tag_77:\n        /* \"#utility.yul\":2129:2183   */\n      tag_79\n        /* \"#utility.yul\":2176:2182   */\n      dup5\n        /* \"#utility.yul\":2171:2174   */\n      dup3\n        /* \"#utility.yul\":2166:2169   */\n      dup6\n        /* \"#utility.yul\":2129:2183   */\n      tag_32\n      jump\t// in\n    tag_79:\n        /* \"#utility.yul\":1848:2189   */\n      pop\n        /* \"#utility.yul\":1764:2189   */\n      swap4\n      swap3\n      pop\n      pop\n      pop\n      jump\t// out\n        /* \"#utility.yul\":2209:2549   */\n    tag_34:\n        /* \"#utility.yul\":2265:2270   */\n      0x00\n        /* \"#utility.yul\":2314:2317   */\n      dup3\n        /* \"#utility.yul\":2307:2311   */\n      0x1f\n        /* \"#utility.yul\":2299:2305   */\n      dup4\n        /* \"#utility.yul\":2295:2312   */\n      add\n        /* \"#utility.yul\":2291:2318   */\n      slt\n        /* \"#utility.yul\":2281:2403   */\n      tag_81\n      jumpi\n        /* \"#utility.yul\":2322:2401   */\n      tag_82\n      tag_25\n      jump\t// in\n    tag_82:\n        /* \"#utility.yul\":2281:2403   */\n    tag_81:\n        /* \"#utility.yul\":2439:2445   */\n      dup2\n        /* \"#utility.yul\":2426:2446   */\n      calldataload\n        /* \"#utility.yul\":2464:2543   */\n      tag_83\n        /* \"#utility.yul\":2539:2542   */\n      dup5\n        /* \"#utility.yul\":2531:2537   */\n      dup3\n        /* \"#utility.yul\":2524:2528   */\n      0x20\n        /* \"#utility.yul\":2516:2522   */\n      dup7\n        /* \"#utility.yul\":2512:2529   */\n      add\n        /* \"#utility.yul\":2464:2543   */\n      tag_33\n      jump\t// in\n    tag_83:\n        /* \"#utility.yul\":2455:2543   */\n      swap2\n      pop\n        /* \"#utility.yul\":2271:2549   */\n      pop\n        /* \"#utility.yul\":2209:2549   */\n      swap3\n      swap2\n      pop\n      pop\n      jump\t// out\n        /* \"#utility.yul\":2555:2632   */\n    tag_35:\n        /* \"#utility.yul\":2592:2599   */\n      0x00\n        /* \"#utility.yul\":2621:2626   */\n      dup2\n        /* \"#utility.yul\":2610:2626   */\n      swap1\n      pop\n        /* \"#utility.yul\":2555:2632   */\n      swap2\n      swap1\n      pop\n      jump\t// out\n        /* \"#utility.yul\":2638:2760   */\n    tag_36:\n        /* \"#utility.yul\":2711:2735   */\n      tag_86\n        /* \"#utility.yul\":2729:2734   */\n      dup2\n        /* \"#utility.yul\":2711:2735   */\n      tag_35\n      jump\t// in\n    tag_86:\n        /* \"#utility.yul\":2704:2709   */\n      dup2\n        /* \"#utility.yul\":2701:2736   */\n      eq\n        /* \"#utility.yul\":2691:2754   */\n      tag_87\n      jumpi\n        /* \"#utility.yul\":2750:2751   */\n      0x00\n        /* \"#utility.yul\":2747:2748   */\n      dup1\n        /* \"#utility.yul\":2740:2752   */\n      revert\n        /* \"#utility.yul\":2691:2754   */\n    tag_87:\n        /* \"#utility.yul\":2638:2760   */\n      pop\n      jump\t// out\n        /* \"#utility.yul\":2766:2905   */\n    tag_37:\n        /* \"#utility.yul\":2812:2817   */\n      0x00\n        /* \"#utility.yul\":2850:2856   */\n      dup2\n        /* \"#utility.yul\":2837:2857   */\n      calldataload\n        /* \"#utility.yul\":2828:2857   */\n      swap1\n      pop\n        /* \"#utility.yul\":2866:2899   */\n      tag_89\n        /* \"#utility.yul\":2893:2898   */\n      dup2\n        /* \"#utility.yul\":2866:2899   */\n      tag_36\n      jump\t// in\n    tag_89:\n        /* \"#utility.yul\":2766:2905   */\n      swap3\n      swap2\n      pop\n      pop\n      jump\t// out\n        /* \"#utility.yul\":2911:3037   */\n    tag_38:\n        /* \"#utility.yul\":2948:2955   */\n      0x00\n        /* \"#utility.yul\":2988:3030   */\n      0xffffffffffffffffffffffffffffffffffffffff\n        /* \"#utility.yul\":2981:2986   */\n      dup3\n        /* \"#utility.yul\":2977:3031   */\n      and\n        /* \"#utility.yul\":2966:3031   */\n      swap1\n      pop\n        /* \"#utility.yul\":2911:3037   */\n      swap2\n      swap1\n      pop\n      jump\t// out\n        /* \"#utility.yul\":3043:3139   */\n    tag_39:\n        /* \"#utility.yul\":3080:3087   */\n      0x00\n        /* \"#utility.yul\":3109:3133   */\n      tag_92\n        /* \"#utility.yul\":3127:3132   */\n      dup3\n        /* \"#utility.yul\":3109:3133   */\n      tag_38\n      jump\t// in\n    tag_92:\n        /* \"#utility.yul\":3098:3133   */\n      swap1\n      pop\n        /* \"#utility.yul\":3043:3139   */\n      swap2\n      swap1\n      pop\n      jump\t// out\n        /* \"#utility.yul\":3145:3267   */\n    tag_40:\n        /* \"#utility.yul\":3218:3242   */\n      tag_94\n        /* \"#utility.yul\":3236:3241   */\n      dup2\n        /* \"#utility.yul\":3218:3242   */\n      tag_39\n      jump\t// in\n    tag_94:\n        /* \"#utility.yul\":3211:3216   */\n      dup2\n        /* \"#utility.yul\":3208:3243   */\n      eq\n        /* \"#utility.yul\":3198:3261   */\n      tag_95\n      jumpi\n        /* \"#utility.yul\":3257:3258   */\n      0x00\n        /* \"#utility.yul\":3254:3255   */\n      dup1\n        /* \"#utility.yul\":3247:3259   */\n      revert\n        /* \"#utility.yul\":3198:3261   */\n    tag_95:\n        /* \"#utility.yul\":3145:3267   */\n      pop\n      jump\t// out\n        /* \"#utility.yul\":3273:3412   */\n    tag_41:\n        /* \"#utility.yul\":3319:3324   */\n      0x00\n        /* \"#utility.yul\":3357:3363   */\n      dup2\n        /* \"#utility.yul\":3344:3364   */\n      calldataload\n        /* \"#utility.yul\":3335:3364   */\n      swap1\n      pop\n        /* \"#utility.yul\":3373:3406   */\n      tag_97\n        /* \"#utility.yul\":3400:3405   */\n      dup2\n        /* \"#utility.yul\":3373:3406   */\n      tag_40\n      jump\t// in\n    tag_97:\n        /* \"#utility.yul\":3273:3412   */\n      swap3\n      swap2\n      pop\n      pop\n      jump\t// out\n        /* \"#utility.yul\":3418:4217   */\n    tag_7:\n        /* \"#utility.yul\":3505:3511   */\n      0x00\n        /* \"#utility.yul\":3513:3519   */\n      dup1\n        /* \"#utility.yul\":3521:3527   */\n      0x00\n        /* \"#utility.yul\":3570:3572   */\n      0x60\n        /* \"#utility.yul\":3558:3567   */\n      dup5\n        /* \"#utility.yul\":3549:3556   */\n      dup7\n        /* \"#utility.yul\":3545:3568   */\n      sub\n        /* \"#utility.yul\":3541:3573   */\n      slt\n        /* \"#utility.yul\":3538:3657   */\n      iszero\n      tag_99\n      jumpi\n        /* \"#utility.yul\":3576:3655   */\n      tag_100\n      tag_23\n      jump\t// in\n    tag_100:\n        /* \"#utility.yul\":3538:3657   */\n    tag_99:\n        /* \"#utility.yul\":3724:3725   */\n      0x00\n        /* \"#utility.yul\":3713:3722   */\n      dup5\n        /* \"#utility.yul\":3709:3726   */\n      add\n        /* \"#utility.yul\":3696:3727   */\n      calldataload\n        /* \"#utility.yul\":3754:3772   */\n      0xffffffffffffffff\n        /* \"#utility.yul\":3746:3752   */\n      dup2\n        /* \"#utility.yul\":3743:3773   */\n      gt\n        /* \"#utility.yul\":3740:3857   */\n      iszero\n      tag_101\n      jumpi\n        /* \"#utility.yul\":3776:3855   */\n      tag_102\n      tag_24\n      jump\t// in\n    tag_102:\n        /* \"#utility.yul\":3740:3857   */\n    tag_101:\n        /* \"#utility.yul\":3881:3944   */\n      tag_103\n        /* \"#utility.yul\":3936:3943   */\n      dup7\n        /* \"#utility.yul\":3927:3933   */\n      dup3\n        /* \"#utility.yul\":3916:3925   */\n      dup8\n        /* \"#utility.yul\":3912:3934   */\n      add\n        /* \"#utility.yul\":3881:3944   */\n      tag_34\n      jump\t// in\n    tag_103:\n        /* \"#utility.yul\":3871:3944   */\n      swap4\n      pop\n        /* \"#utility.yul\":3667:3954   */\n      pop\n        /* \"#utility.yul\":3993:3995   */\n      0x20\n        /* \"#utility.yul\":4019:4072   */\n      tag_104\n        /* \"#utility.yul\":4064:4071   */\n      dup7\n        /* \"#utility.yul\":4055:4061   */\n      dup3\n        /* \"#utility.yul\":4044:4053   */\n      dup8\n        /* \"#utility.yul\":4040:4062   */\n      add\n        /* \"#utility.yul\":4019:4072   */\n      tag_37\n      jump\t// in\n    tag_104:\n        /* \"#utility.yul\":4009:4072   */\n      swap3\n      pop\n        /* \"#utility.yul\":3964:4082   */\n      pop\n        /* \"#utility.yul\":4121:4123   */\n      0x40\n        /* \"#utility.yul\":4147:4200   */\n      tag_105\n        /* \"#utility.yul\":4192:4199   */\n      dup7\n        /* \"#utility.yul\":4183:4189   */\n      dup3\n        /* \"#utility.yul\":4172:4181   */\n      dup8\n        /* \"#utility.yul\":4168:4190   */\n      add\n        /* \"#utility.yul\":4147:4200   */\n      tag_41\n      jump\t// in\n    tag_105:\n        /* \"#utility.yul\":4137:4200   */\n      swap2\n      pop\n        /* \"#utility.yul\":4092:4210   */\n      pop\n        /* \"#utility.yul\":3418:4217   */\n      swap3\n      pop\n      swap3\n      pop\n      swap3\n      jump\t// out\n        /* \"#utility.yul\":4223:4300   */\n    tag_42:\n        /* \"#utility.yul\":4260:4267   */\n      0x00\n        /* \"#utility.yul\":4289:4294   */\n      dup2\n        /* \"#utility.yul\":4278:4294   */\n      swap1\n      pop\n        /* \"#utility.yul\":4223:4300   */\n      swap2\n      swap1\n      pop\n      jump\t// out\n        /* \"#utility.yul\":4306:4424   */\n    tag_43:\n        /* \"#utility.yul\":4393:4417   */\n      tag_108\n        /* \"#utility.yul\":4411:4416   */\n      dup2\n        /* \"#utility.yul\":4393:4417   */\n      tag_42\n      jump\t// in\n    tag_108:\n        /* \"#utility.yul\":4388:4391   */\n      dup3\n        /* \"#utility.yul\":4381:4418   */\n      mstore\n        /* \"#utility.yul\":4306:4424   */\n      pop\n      pop\n      jump\t// out\n        /* \"#utility.yul\":4430:4652   */\n    tag_10:\n        /* \"#utility.yul\":4523:4527   */\n      0x00\n        /* \"#utility.yul\":4561:4563   */\n      0x20\n        /* \"#utility.yul\":4550:4559   */\n      dup3\n        /* \"#utility.yul\":4546:4564   */\n      add\n        /* \"#utility.yul\":4538:4564   */\n      swap1\n      pop\n        /* \"#utility.yul\":4574:4645   */\n      tag_110\n        /* \"#utility.yul\":4642:4643   */\n      0x00\n        /* \"#utility.yul\":4631:4640   */\n      dup4\n        /* \"#utility.yul\":4627:4644   */\n      add\n        /* \"#utility.yul\":4618:4624   */\n      dup5\n        /* \"#utility.yul\":4574:4645   */\n      tag_43\n      jump\t// in\n    tag_110:\n        /* \"#utility.yul\":4430:4652   */\n      swap3\n      swap2\n      pop\n      pop\n      jump\t// out\n        /* \"#utility.yul\":4658:5492   */\n    tag_13:\n        /* \"#utility.yul\":4746:4752   */\n      0x00\n        /* \"#utility.yul\":4754:4760   */\n      dup1\n        /* \"#utility.yul\":4803:4805   */\n      0x40\n        /* \"#utility.yul\":4791:4800   */\n      dup4\n        /* \"#utility.yul\":4782:4789   */\n      dup6\n        /* \"#utility.yul\":4778:4801   */\n      sub\n        /* \"#utility.yul\":4774:4806   */\n      slt\n        /* \"#utility.yul\":4771:4890   */\n      iszero\n      tag_112\n      jumpi\n        /* \"#utility.yul\":4809:4888   */\n      tag_113\n      tag_23\n      jump\t// in\n    tag_113:\n        /* \"#utility.yul\":4771:4890   */\n    tag_112:\n        /* \"#utility.yul\":4957:4958   */\n      0x00\n        /* \"#utility.yul\":4946:4955   */\n      dup4\n        /* \"#utility.yul\":4942:4959   */\n      add\n        /* \"#utility.yul\":4929:4960   */\n      calldataload\n        /* \"#utility.yul\":4987:5005   */\n      0xffffffffffffffff\n        /* \"#utility.yul\":4979:4985   */\n      dup2\n        /* \"#utility.yul\":4976:5006   */\n      gt\n        /* \"#utility.yul\":4973:5090   */\n      iszero\n      tag_114\n      jumpi\n        /* \"#utility.yul\":5009:5088   */\n      tag_115\n      tag_24\n      jump\t// in\n    tag_115:\n        /* \"#utility.yul\":4973:5090   */\n    tag_114:\n        /* \"#utility.yul\":5114:5177   */\n      tag_116\n        /* \"#utility.yul\":5169:5176   */\n      dup6\n        /* \"#utility.yul\":5160:5166   */\n      dup3\n        /* \"#utility.yul\":5149:5158   */\n      dup7\n        /* \"#utility.yul\":5145:5167   */\n      add\n        /* \"#utility.yul\":5114:5177   */\n      tag_34\n      jump\t// in\n    tag_116:\n        /* \"#utility.yul\":5104:5177   */\n      swap3\n      pop\n        /* \"#utility.yul\":4900:5187   */\n      pop\n        /* \"#utility.yul\":5254:5256   */\n      0x20\n        /* \"#utility.yul\":5243:5252   */\n      dup4\n        /* \"#utility.yul\":5239:5257   */\n      add\n        /* \"#utility.yul\":5226:5258   */\n      calldataload\n        /* \"#utility.yul\":5285:5303   */\n      0xffffffffffffffff\n        /* \"#utility.yul\":5277:5283   */\n      dup2\n        /* \"#utility.yul\":5274:5304   */\n      gt\n        /* \"#utility.yul\":5271:5388   */\n      iszero\n      tag_117\n      jumpi\n        /* \"#utility.yul\":5307:5386   */\n      tag_118\n      tag_24\n      jump\t// in\n    tag_118:\n        /* \"#utility.yul\":5271:5388   */\n    tag_117:\n        /* \"#utility.yul\":5412:5475   */\n      tag_119\n        /* \"#utility.yul\":5467:5474   */\n      dup6\n        /* \"#utility.yul\":5458:5464   */\n      dup3\n        /* \"#utility.yul\":5447:5456   */\n      dup7\n        /* \"#utility.yul\":5443:5465   */\n      add\n        /* \"#utility.yul\":5412:5475   */\n      tag_34\n      jump\t// in\n    tag_119:\n        /* \"#utility.yul\":5402:5475   */\n      swap2\n      pop\n        /* \"#utility.yul\":5197:5485   */\n      pop\n        /* \"#utility.yul\":4658:5492   */\n      swap3\n      pop\n      swap3\n      swap1\n      pop\n      jump\t// out\n        /* \"#utility.yul\":5498:5597   */\n    tag_44:\n        /* \"#utility.yul\":5550:5556   */\n      0x00\n        /* \"#utility.yul\":5584:5589   */\n      dup2\n        /* \"#utility.yul\":5578:5590   */\n      mload\n        /* \"#utility.yul\":5568:5590   */\n      swap1\n      pop\n        /* \"#utility.yul\":5498:5597   */\n      swap2\n      swap1\n      pop\n      jump\t// out\n        /* \"#utility.yul\":5603:5751   */\n    tag_45:\n        /* \"#utility.yul\":5705:5716   */\n      0x00\n        /* \"#utility.yul\":5742:5745   */\n      dup2\n        /* \"#utility.yul\":5727:5745   */\n      swap1\n      pop\n        /* \"#utility.yul\":5603:5751   */\n      swap3\n      swap2\n      pop\n      pop\n      jump\t// out\n        /* \"#utility.yul\":5757:5896   */\n    tag_46:\n        /* \"#utility.yul\":5846:5852   */\n      dup3\n        /* \"#utility.yul\":5841:5844   */\n      dup2\n        /* \"#utility.yul\":5836:5839   */\n      dup4\n        /* \"#utility.yul\":5830:5853   */\n      mcopy\n        /* \"#utility.yul\":5887:5888   */\n      0x00\n        /* \"#utility.yul\":5878:5884   */\n      dup4\n        /* \"#utility.yul\":5873:5876   */\n      dup4\n        /* \"#utility.yul\":5869:5885   */\n      add\n        /* \"#utility.yul\":5862:5889   */\n      mstore\n        /* \"#utility.yul\":5757:5896   */\n      pop\n      pop\n      pop\n      jump\t// out\n        /* \"#utility.yul\":5902:6292   */\n    tag_47:\n        /* \"#utility.yul\":6008:6011   */\n      0x00\n        /* \"#utility.yul\":6036:6075   */\n      tag_124\n        /* \"#utility.yul\":6069:6074   */\n      dup3\n        /* \"#utility.yul\":6036:6075   */\n      tag_44\n      jump\t// in\n    tag_124:\n        /* \"#utility.yul\":6091:6180   */\n      tag_125\n        /* \"#utility.yul\":6173:6179   */\n      dup2\n        /* \"#utility.yul\":6168:6171   */\n      dup6\n        /* \"#utility.yul\":6091:6180   */\n      tag_45\n      jump\t// in\n    tag_125:\n        /* \"#utility.yul\":6084:6180   */\n      swap4\n      pop\n        /* \"#utility.yul\":6189:6254   */\n      tag_126\n        /* \"#utility.yul\":6247:6253   */\n      dup2\n        /* \"#utility.yul\":6242:6245   */\n      dup6\n        /* \"#utility.yul\":6235:6239   */\n      0x20\n        /* \"#utility.yul\":6228:6233   */\n      dup7\n        /* \"#utility.yul\":6224:6240   */\n      add\n        /* \"#utility.yul\":6189:6254   */\n      tag_46\n      jump\t// in\n    tag_126:\n        /* \"#utility.yul\":6279:6285   */\n      dup1\n        /* \"#utility.yul\":6274:6277   */\n      dup5\n        /* \"#utility.yul\":6270:6286   */\n      add\n        /* \"#utility.yul\":6263:6286   */\n      swap2\n      pop\n        /* \"#utility.yul\":6012:6292   */\n      pop\n        /* \"#utility.yul\":5902:6292   */\n      swap3\n      swap2\n      pop\n      pop\n      jump\t// out\n        /* \"#utility.yul\":6298:6377   */\n    tag_48:\n        /* \"#utility.yul\":6337:6344   */\n      0x00\n        /* \"#utility.yul\":6366:6371   */\n      dup2\n        /* \"#utility.yul\":6355:6371   */\n      swap1\n      pop\n        /* \"#utility.yul\":6298:6377   */\n      swap2\n      swap1\n      pop\n      jump\t// out\n        /* \"#utility.yul\":6383:6540   */\n    tag_49:\n        /* \"#utility.yul\":6488:6533   */\n      tag_129\n        /* \"#utility.yul\":6508:6532   */\n      tag_130\n        /* \"#utility.yul\":6526:6531   */\n      dup3\n        /* \"#utility.yul\":6508:6532   */\n      tag_35\n      jump\t// in\n    tag_130:\n        /* \"#utility.yul\":6488:6533   */\n      tag_48\n      jump\t// in\n    tag_129:\n        /* \"#utility.yul\":6483:6486   */\n      dup3\n        /* \"#utility.yul\":6476:6534   */\n      mstore\n        /* \"#utility.yul\":6383:6540   */\n      pop\n      pop\n      jump\t// out\n        /* \"#utility.yul\":6546:6640   */\n    tag_50:\n        /* \"#utility.yul\":6579:6587   */\n      0x00\n        /* \"#utility.yul\":6627:6632   */\n      dup2\n        /* \"#utility.yul\":6623:6625   */\n      0x60\n        /* \"#utility.yul\":6619:6633   */\n      shl\n        /* \"#utility.yul\":6598:6633   */\n      swap1\n      pop\n        /* \"#utility.yul\":6546:6640   */\n      swap2\n      swap1\n      pop\n      jump\t// out\n        /* \"#utility.yul\":6646:6740   */\n    tag_51:\n        /* \"#utility.yul\":6685:6692   */\n      0x00\n        /* \"#utility.yul\":6714:6734   */\n      tag_133\n        /* \"#utility.yul\":6728:6733   */\n      dup3\n        /* \"#utility.yul\":6714:6734   */\n      tag_50\n      jump\t// in\n    tag_133:\n        /* \"#utility.yul\":6703:6734   */\n      swap1\n      pop\n        /* \"#utility.yul\":6646:6740   */\n      swap2\n      swap1\n      pop\n      jump\t// out\n        /* \"#utility.yul\":6746:6846   */\n    tag_52:\n        /* \"#utility.yul\":6785:6792   */\n      0x00\n        /* \"#utility.yul\":6814:6840   */\n      tag_135\n        /* \"#utility.yul\":6834:6839   */\n      dup3\n        /* \"#utility.yul\":6814:6840   */\n      tag_51\n      jump\t// in\n    tag_135:\n        /* \"#utility.yul\":6803:6840   */\n      swap1\n      pop\n        /* \"#utility.yul\":6746:6846   */\n      swap2\n      swap1\n      pop\n      jump\t// out\n        /* \"#utility.yul\":6852:7009   */\n    tag_53:\n        /* \"#utility.yul\":6957:7002   */\n      tag_137\n        /* \"#utility.yul\":6977:7001   */\n      tag_138\n        /* \"#utility.yul\":6995:7000   */\n      dup3\n        /* \"#utility.yul\":6977:7001   */\n      tag_39\n      jump\t// in\n    tag_138:\n        /* \"#utility.yul\":6957:7002   */\n      tag_52\n      jump\t// in\n    tag_137:\n        /* \"#utility.yul\":6952:6955   */\n      dup3\n        /* \"#utility.yul\":6945:7003   */\n      mstore\n        /* \"#utility.yul\":6852:7009   */\n      pop\n      pop\n      jump\t// out\n        /* \"#utility.yul\":7015:7572   */\n    tag_18:\n        /* \"#utility.yul\":7203:7206   */\n      0x00\n        /* \"#utility.yul\":7225:7320   */\n      tag_140\n        /* \"#utility.yul\":7316:7319   */\n      dup3\n        /* \"#utility.yul\":7307:7313   */\n      dup7\n        /* \"#utility.yul\":7225:7320   */\n      tag_47\n      jump\t// in\n    tag_140:\n        /* \"#utility.yul\":7218:7320   */\n      swap2\n      pop\n        /* \"#utility.yul\":7330:7405   */\n      tag_141\n        /* \"#utility.yul\":7401:7404   */\n      dup3\n        /* \"#utility.yul\":7392:7398   */\n      dup6\n        /* \"#utility.yul\":7330:7405   */\n      tag_49\n      jump\t// in\n    tag_141:\n        /* \"#utility.yul\":7430:7432   */\n      0x20\n        /* \"#utility.yul\":7425:7428   */\n      dup3\n        /* \"#utility.yul\":7421:7433   */\n      add\n        /* \"#utility.yul\":7414:7433   */\n      swap2\n      pop\n        /* \"#utility.yul\":7443:7518   */\n      tag_142\n        /* \"#utility.yul\":7514:7517   */\n      dup3\n        /* \"#utility.yul\":7505:7511   */\n      dup5\n        /* \"#utility.yul\":7443:7518   */\n      tag_53\n      jump\t// in\n    tag_142:\n        /* \"#utility.yul\":7543:7545   */\n      0x14\n        /* \"#utility.yul\":7538:7541   */\n      dup3\n        /* \"#utility.yul\":7534:7546   */\n      add\n        /* \"#utility.yul\":7527:7546   */\n      swap2\n      pop\n        /* \"#utility.yul\":7563:7566   */\n      dup2\n        /* \"#utility.yul\":7556:7566   */\n      swap1\n      pop\n        /* \"#utility.yul\":7015:7572   */\n      swap5\n      swap4\n      pop\n      pop\n      pop\n      pop\n      jump\t// out\n        /* \"#utility.yul\":7578:8013   */\n    tag_21:\n        /* \"#utility.yul\":7758:7761   */\n      0x00\n        /* \"#utility.yul\":7780:7875   */\n      tag_144\n        /* \"#utility.yul\":7871:7874   */\n      dup3\n        /* \"#utility.yul\":7862:7868   */\n      dup6\n        /* \"#utility.yul\":7780:7875   */\n      tag_47\n      jump\t// in\n    tag_144:\n        /* \"#utility.yul\":7773:7875   */\n      swap2\n      pop\n        /* \"#utility.yul\":7892:7987   */\n      tag_145\n        /* \"#utility.yul\":7983:7986   */\n      dup3\n        /* \"#utility.yul\":7974:7980   */\n      dup5\n        /* \"#utility.yul\":7892:7987   */\n      tag_47\n      jump\t// in\n    tag_145:\n        /* \"#utility.yul\":7885:7987   */\n      swap2\n      pop\n        /* \"#utility.yul\":8004:8007   */\n      dup2\n        /* \"#utility.yul\":7997:8007   */\n      swap1\n      pop\n        /* \"#utility.yul\":7578:8013   */\n      swap4\n      swap3\n      pop\n      pop\n      pop\n      jump\t// out\n\n    auxdata: 0xa26469706673582212204def8f0b806610ea138ec205ceaf63a1b43b9739e0a96c94ed52c3add6f225a164736f6c634300081a0033\n}\n",
				"bytecode": {
					"linkReferences": {},
					"object": "6080604052348015600e575f80fd5b506105348061001c5f395ff3fe608060405234801561000f575f80fd5b5060043610610034575f3560e01c80635dda416e146100385780637b7fb98214610068575b5f80fd5b610052600480360381019061004d91906102d9565b610098565b60405161005f919061035d565b60405180910390f35b610082600480360381019061007d9190610376565b6100cd565b60405161008f919061035d565b60405180910390f35b5f8383836040516020016100ae939291906104a3565b6040516020818303038152906040528051906020012090509392505050565b5f82826040516020016100e19291906104db565b60405160208183030381529060405280519060200120905092915050565b5f604051905090565b5f80fd5b5f80fd5b5f80fd5b5f80fd5b5f601f19601f8301169050919050565b7f4e487b71000000000000000000000000000000000000000000000000000000005f52604160045260245ffd5b61015e82610118565b810181811067ffffffffffffffff8211171561017d5761017c610128565b5b80604052505050565b5f61018f6100ff565b905061019b8282610155565b919050565b5f67ffffffffffffffff8211156101ba576101b9610128565b5b6101c382610118565b9050602081019050919050565b828183375f83830152505050565b5f6101f06101eb846101a0565b610186565b90508281526020810184848401111561020c5761020b610114565b5b6102178482856101d0565b509392505050565b5f82601f83011261023357610232610110565b5b81356102438482602086016101de565b91505092915050565b5f819050919050565b61025e8161024c565b8114610268575f80fd5b50565b5f8135905061027981610255565b92915050565b5f73ffffffffffffffffffffffffffffffffffffffff82169050919050565b5f6102a88261027f565b9050919050565b6102b88161029e565b81146102c2575f80fd5b50565b5f813590506102d3816102af565b92915050565b5f805f606084860312156102f0576102ef610108565b5b5f84013567ffffffffffffffff81111561030d5761030c61010c565b5b6103198682870161021f565b935050602061032a8682870161026b565b925050604061033b868287016102c5565b9150509250925092565b5f819050919050565b61035781610345565b82525050565b5f6020820190506103705f83018461034e565b92915050565b5f806040838503121561038c5761038b610108565b5b5f83013567ffffffffffffffff8111156103a9576103a861010c565b5b6103b58582860161021f565b925050602083013567ffffffffffffffff8111156103d6576103d561010c565b5b6103e28582860161021f565b9150509250929050565b5f81519050919050565b5f81905092915050565b8281835e5f83830152505050565b5f610418826103ec565b61042281856103f6565b9350610432818560208601610400565b80840191505092915050565b5f819050919050565b6104586104538261024c565b61043e565b82525050565b5f8160601b9050919050565b5f6104748261045e565b9050919050565b5f6104858261046a565b9050919050565b61049d6104988261029e565b61047b565b82525050565b5f6104ae828661040e565b91506104ba8285610447565b6020820191506104ca828461048c565b601482019150819050949350505050565b5f6104e6828561040e565b91506104f2828461040e565b9150819050939250505056fea26469706673582212204def8f0b806610ea138ec205ceaf63a1b43b9739e0a96c94ed52c3add6f225a164736f6c634300081a0033",
					"opcodes": "PUSH1 0x80 PUSH1 0x40 MSTORE CALLVALUE DUP1 ISZERO PUSH1 0xE JUMPI PUSH0 DUP1 REVERT JUMPDEST POP PUSH2 0x534 DUP1 PUSH2 0x1C PUSH0 CODECOPY PUSH0 RETURN INVALID PUSH1 0x80 PUSH1 0x40 MSTORE CALLVALUE DUP1 ISZERO PUSH2 0xF JUMPI PUSH0 DUP1 REVERT JUMPDEST POP PUSH1 0x4 CALLDATASIZE LT PUSH2 0x34 JUMPI PUSH0 CALLDATALOAD PUSH1 0xE0 SHR DUP1 PUSH4 0x5DDA416E EQ PUSH2 0x38 JUMPI DUP1 PUSH4 0x7B7FB982 EQ PUSH2 0x68 JUMPI JUMPDEST PUSH0 DUP1 REVERT JUMPDEST PUSH2 0x52 PUSH1 0x4 DUP1 CALLDATASIZE SUB DUP2 ADD SWAP1 PUSH2 0x4D SWAP2 SWAP1 PUSH2 0x2D9 JUMP JUMPDEST PUSH2 0x98 JUMP JUMPDEST PUSH1 0x40 MLOAD PUSH2 0x5F SWAP2 SWAP1 PUSH2 0x35D JUMP JUMPDEST PUSH1 0x40 MLOAD DUP1 SWAP2 SUB SWAP1 RETURN JUMPDEST PUSH2 0x82 PUSH1 0x4 DUP1 CALLDATASIZE SUB DUP2 ADD SWAP1 PUSH2 0x7D SWAP2 SWAP1 PUSH2 0x376 JUMP JUMPDEST PUSH2 0xCD JUMP JUMPDEST PUSH1 0x40 MLOAD PUSH2 0x8F SWAP2 SWAP1 PUSH2 0x35D JUMP JUMPDEST PUSH1 0x40 MLOAD DUP1 SWAP2 SUB SWAP1 RETURN JUMPDEST PUSH0 DUP4 DUP4 DUP4 PUSH1 0x40 MLOAD PUSH1 0x20 ADD PUSH2 0xAE SWAP4 SWAP3 SWAP2 SWAP1 PUSH2 0x4A3 JUMP JUMPDEST PUSH1 0x40 MLOAD PUSH1 0x20 DUP2 DUP4 SUB SUB DUP2 MSTORE SWAP1 PUSH1 0x40 MSTORE DUP1 MLOAD SWAP1 PUSH1 0x20 ADD KECCAK256 SWAP1 POP SWAP4 SWAP3 POP POP POP JUMP JUMPDEST PUSH0 DUP3 DUP3 PUSH1 0x40 MLOAD PUSH1 0x20 ADD PUSH2 0xE1 SWAP3 SWAP2 SWAP1 PUSH2 0x4DB JUMP JUMPDEST PUSH1 0x40 MLOAD PUSH1 0x20 DUP2 DUP4 SUB SUB DUP2 MSTORE SWAP1 PUSH1 0x40 MSTORE DUP1 MLOAD SWAP1 PUSH1 0x20 ADD KECCAK256 SWAP1 POP SWAP3 SWAP2 POP POP JUMP JUMPDEST PUSH0 PUSH1 0x40 MLOAD SWAP1 POP SWAP1 JUMP JUMPDEST PUSH0 DUP1 REVERT JUMPDEST PUSH0 DUP1 REVERT JUMPDEST PUSH0 DUP1 REVERT JUMPDEST PUSH0 DUP1 REVERT JUMPDEST PUSH0 PUSH1 0x1F NOT PUSH1 0x1F DUP4 ADD AND SWAP1 POP SWAP2 SWAP1 POP JUMP JUMPDEST PUSH32 0x4E487B7100000000000000000000000000000000000000000000000000000000 PUSH0 MSTORE PUSH1 0x41 PUSH1 0x4 MSTORE PUSH1 0x24 PUSH0 REVERT JUMPDEST PUSH2 0x15E DUP3 PUSH2 0x118 JUMP JUMPDEST DUP2 ADD DUP2 DUP2 LT PUSH8 0xFFFFFFFFFFFFFFFF DUP3 GT OR ISZERO PUSH2 0x17D JUMPI PUSH2 0x17C PUSH2 0x128 JUMP JUMPDEST JUMPDEST DUP1 PUSH1 0x40 MSTORE POP POP POP JUMP JUMPDEST PUSH0 PUSH2 0x18F PUSH2 0xFF JUMP JUMPDEST SWAP1 POP PUSH2 0x19B DUP3 DUP3 PUSH2 0x155 JUMP JUMPDEST SWAP2 SWAP1 POP JUMP JUMPDEST PUSH0 PUSH8 0xFFFFFFFFFFFFFFFF DUP3 GT ISZERO PUSH2 0x1BA JUMPI PUSH2 0x1B9 PUSH2 0x128 JUMP JUMPDEST JUMPDEST PUSH2 0x1C3 DUP3 PUSH2 0x118 JUMP JUMPDEST SWAP1 POP PUSH1 0x20 DUP2 ADD SWAP1 POP SWAP2 SWAP1 POP JUMP JUMPDEST DUP3 DUP2 DUP4 CALLDATACOPY PUSH0 DUP4 DUP4 ADD MSTORE POP POP POP JUMP JUMPDEST PUSH0 PUSH2 0x1F0 PUSH2 0x1EB DUP5 PUSH2 0x1A0 JUMP JUMPDEST PUSH2 0x186 JUMP JUMPDEST SWAP1 POP DUP3 DUP2 MSTORE PUSH1 0x20 DUP2 ADD DUP5 DUP5 DUP5 ADD GT ISZERO PUSH2 0x20C JUMPI PUSH2 0x20B PUSH2 0x114 JUMP JUMPDEST JUMPDEST PUSH2 0x217 DUP5 DUP3 DUP6 PUSH2 0x1D0 JUMP JUMPDEST POP SWAP4 SWAP3 POP POP POP JUMP JUMPDEST PUSH0 DUP3 PUSH1 0x1F DUP4 ADD SLT PUSH2 0x233 JUMPI PUSH2 0x232 PUSH2 0x110 JUMP JUMPDEST JUMPDEST DUP2 CALLDATALOAD PUSH2 0x243 DUP5 DUP3 PUSH1 0x20 DUP7 ADD PUSH2 0x1DE JUMP JUMPDEST SWAP2 POP POP SWAP3 SWAP2 POP POP JUMP JUMPDEST PUSH0 DUP2 SWAP1 POP SWAP2 SWAP1 POP JUMP JUMPDEST PUSH2 0x25E DUP2 PUSH2 0x24C JUMP JUMPDEST DUP2 EQ PUSH2 0x268 JUMPI PUSH0 DUP1 REVERT JUMPDEST POP JUMP JUMPDEST PUSH0 DUP2 CALLDATALOAD SWAP1 POP PUSH2 0x279 DUP2 PUSH2 0x255 JUMP JUMPDEST SWAP3 SWAP2 POP POP JUMP JUMPDEST PUSH0 PUSH20 0xFFFFFFFFFFFFFFFFFFFFFFFFFFFFFFFFFFFFFFFF DUP3 AND SWAP1 POP SWAP2 SWAP1 POP JUMP JUMPDEST PUSH0 PUSH2 0x2A8 DUP3 PUSH2 0x27F JUMP JUMPDEST SWAP1 POP SWAP2 SWAP1 POP JUMP JUMPDEST PUSH2 0x2B8 DUP2 PUSH2 0x29E JUMP JUMPDEST DUP2 EQ PUSH2 0x2C2 JUMPI PUSH0 DUP1 REVERT JUMPDEST POP JUMP JUMPDEST PUSH0 DUP2 CALLDATALOAD SWAP1 POP PUSH2 0x2D3 DUP2 PUSH2 0x2AF JUMP JUMPDEST SWAP3 SWAP2 POP POP JUMP JUMPDEST PUSH0 DUP1 PUSH0 PUSH1 0x60 DUP5 DUP7 SUB SLT ISZERO PUSH2 0x2F0 JUMPI PUSH2 0x2EF PUSH2 0x108 JUMP JUMPDEST JUMPDEST PUSH0 DUP5 ADD CALLDATALOAD PUSH8 0xFFFFFFFFFFFFFFFF DUP2 GT ISZERO PUSH2 0x30D JUMPI PUSH2 0x30C PUSH2 0x10C JUMP JUMPDEST JUMPDEST PUSH2 0x319 DUP7 DUP3 DUP8 ADD PUSH2 0x21F JUMP JUMPDEST SWAP4 POP POP PUSH1 0x20 PUSH2 0x32A DUP7 DUP3 DUP8 ADD PUSH2 0x26B JUMP JUMPDEST SWAP3 POP POP PUSH1 0x40 PUSH2 0x33B DUP7 DUP3 DUP8 ADD PUSH2 0x2C5 JUMP JUMPDEST SWAP2 POP POP SWAP3 POP SWAP3 POP SWAP3 JUMP JUMPDEST PUSH0 DUP2 SWAP1 POP SWAP2 SWAP1 POP JUMP JUMPDEST PUSH2 0x357 DUP2 PUSH2 0x345 JUMP JUMPDEST DUP3 MSTORE POP POP JUMP JUMPDEST PUSH0 PUSH1 0x20 DUP3 ADD SWAP1 POP PUSH2 0x370 PUSH0 DUP4 ADD DUP5 PUSH2 0x34E JUMP JUMPDEST SWAP3 SWAP2 POP POP JUMP JUMPDEST PUSH0 DUP1 PUSH1 0x40 DUP4 DUP6 SUB SLT ISZERO PUSH2 0x38C JUMPI PUSH2 0x38B PUSH2 0x108 JUMP JUMPDEST JUMPDEST PUSH0 DUP4 ADD CALLDATALOAD PUSH8 0xFFFFFFFFFFFFFFFF DUP2 GT ISZERO PUSH2 0x3A9 JUMPI PUSH2 0x3A8 PUSH2 0x10C JUMP JUMPDEST JUMPDEST PUSH2 0x3B5 DUP6 DUP3 DUP7 ADD PUSH2 0x21F JUMP JUMPDEST SWAP3 POP POP PUSH1 0x20 DUP4 ADD CALLDATALOAD PUSH8 0xFFFFFFFFFFFFFFFF DUP2 GT ISZERO PUSH2 0x3D6 JUMPI PUSH2 0x3D5 PUSH2 0x10C JUMP JUMPDEST JUMPDEST PUSH2 0x3E2 DUP6 DUP3 DUP7 ADD PUSH2 0x21F JUMP JUMPDEST SWAP2 POP POP SWAP3 POP SWAP3 SWAP1 POP JUMP JUMPDEST PUSH0 DUP2 MLOAD SWAP1 POP SWAP2 SWAP1 POP JUMP JUMPDEST PUSH0 DUP2 SWAP1 POP SWAP3 SWAP2 POP POP JUMP JUMPDEST DUP3 DUP2 DUP4 MCOPY PUSH0 DUP4 DUP4 ADD MSTORE POP POP POP JUMP JUMPDEST PUSH0 PUSH2 0x418 DUP3 PUSH2 0x3EC JUMP JUMPDEST PUSH2 0x422 DUP2 DUP6 PUSH2 0x3F6 JUMP JUMPDEST SWAP4 POP PUSH2 0x432 DUP2 DUP6 PUSH1 0x20 DUP7 ADD PUSH2 0x400 JUMP JUMPDEST DUP1 DUP5 ADD SWAP2 POP POP SWAP3 SWAP2 POP POP JUMP JUMPDEST PUSH0 DUP2 SWAP1 POP SWAP2 SWAP1 POP JUMP JUMPDEST PUSH2 0x458 PUSH2 0x453 DUP3 PUSH2 0x24C JUMP JUMPDEST PUSH2 0x43E JUMP JUMPDEST DUP3 MSTORE POP POP JUMP JUMPDEST PUSH0 DUP2 PUSH1 0x60 SHL SWAP1 POP SWAP2 SWAP1 POP JUMP JUMPDEST PUSH0 PUSH2 0x474 DUP3 PUSH2 0x45E JUMP JUMPDEST SWAP1 POP SWAP2 SWAP1 POP JUMP JUMPDEST PUSH0 PUSH2 0x485 DUP3 PUSH2 0x46A JUMP JUMPDEST SWAP1 POP SWAP2 SWAP1 POP JUMP JUMPDEST PUSH2 0x49D PUSH2 0x498 DUP3 PUSH2 0x29E JUMP JUMPDEST PUSH2 0x47B JUMP JUMPDEST DUP3 MSTORE POP POP JUMP JUMPDEST PUSH0 PUSH2 0x4AE DUP3 DUP7 PUSH2 0x40E JUMP JUMPDEST SWAP2 POP PUSH2 0x4BA DUP3 DUP6 PUSH2 0x447 JUMP JUMPDEST PUSH1 0x20 DUP3 ADD SWAP2 POP PUSH2 0x4CA DUP3 DUP5 PUSH2 0x48C JUMP JUMPDEST PUSH1 0x14 DUP3 ADD SWAP2 POP DUP2 SWAP1 POP SWAP5 SWAP4 POP POP POP POP JUMP JUMPDEST PUSH0 PUSH2 0x4E6 DUP3 DUP6 PUSH2 0x40E JUMP JUMPDEST SWAP2 POP PUSH2 0x4F2 DUP3 DUP5 PUSH2 0x40E JUMP JUMPDEST SWAP2 POP DUP2 SWAP1 POP SWAP4 SWAP3 POP POP POP JUMP INVALID LOG2 PUSH5 0x6970667358 0x22 SLT KECCAK256 0x4D 0xEF DUP16 SIGNEXTEND DUP1 PUSH7 0x10EA138EC205CE 0xAF PUSH4 0xA1B43B97 CODECOPY 0xE0 0xA9 PUSH13 0x94ED52C3ADD6F225A164736F6C PUSH4 0x4300081A STOP CALLER "
				},
				"gasEstimates": {
					"creation": {
						"codeDepositCost": "266400",
						"executionCost": "304",
						"totalCost": "266704"
					},
					"external": {
						"collision(string,string)": "infinite",
						"hash(string,uint256,address)": "infinite"
					}
				},
				"methodIdentifiers": {
					"collision(string,string)": "7b7fb982",
					"hash(string,uint256,address)": "5dda416e"
				}
			},
			"storageLayout": {
				"storage": [],
				"types": null
			},
			"userdoc": {
				"kind": "user",
				"methods": {},
				"version": 1
			}
		}
	}
}