{
	"DelegateCall.sol": {
		"B": {
			"abi": [
				{
					"inputs": [],
					"name": "num",
					"outputs": [
						{
							"internalType": "uint256",
							"name": "",
							"type": "uint256"
						}
					],
					"stateMutability": "view",
					"type": "function"
				},
				{
					"inputs": [],
					"name": "sender",
					"outputs": [
						{
							"internalType": "address",
							"name": "",
							"type": "address"
						}
					],
					"stateMutability": "view",
					"type": "function"
				},
				{
					"inputs": [
						{
							"internalType": "uint256",
							"name": "_num",
							"type": "uint256"
						}
					],
					"name": "setVars",
					"outputs": [],
					"stateMutability": "payable",
					"type": "function"
				},
				{
					"inputs": [],
					"name": "value",
					"outputs": [
						{
							"internalType": "uint256",
							"name": "",
							"type": "uint256"
						}
					],
					"stateMutability": "view",
					"type": "function"
				}
			],
			"devdoc": {
				"kind": "dev",
				"methods": {},
				"version": 1
			},
			"evm": {
				"assembly": "    /* \"DelegateCall.sol\":297:593  contract B {... */\n  mstore(0x40, 0x80)\n  callvalue\n  dup1\n  iszero\n  tag_1\n  jumpi\n  0x00\n  dup1\n  revert\ntag_1:\n  pop\n  dataSize(sub_0)\n  dup1\n  dataOffset(sub_0)\n  0x00\n  codecopy\n  0x00\n  return\nstop\n\nsub_0: assembly {\n        /* \"DelegateCall.sol\":297:593  contract B {... */\n      mstore(0x40, 0x80)\n      jumpi(tag_1, lt(calldatasize, 0x04))\n      shr(0xe0, calldataload(0x00))\n      dup1\n      0x3fa4f245\n      eq\n      tag_2\n      jumpi\n      dup1\n      0x4e70b1dc\n      eq\n      tag_3\n      jumpi\n      dup1\n      0x6466414b\n      eq\n      tag_4\n      jumpi\n      dup1\n      0x67e404ce\n      eq\n      tag_5\n      jumpi\n    tag_1:\n      0x00\n      dup1\n      revert\n        /* \"DelegateCall.sol\":428:448  uint256 public value */\n    tag_2:\n      callvalue\n      dup1\n      iszero\n      tag_6\n      jumpi\n      0x00\n      dup1\n      revert\n    tag_6:\n      pop\n      tag_7\n      tag_8\n      jump\t// in\n    tag_7:\n      mload(0x40)\n      tag_9\n      swap2\n      swap1\n      tag_10\n      jump\t// in\n    tag_9:\n      mload(0x40)\n      dup1\n      swap2\n      sub\n      swap1\n      return\n        /* \"DelegateCall.sol\":375:393  uint256 public num */\n    tag_3:\n      callvalue\n      dup1\n      iszero\n      tag_11\n      jumpi\n      0x00\n      dup1\n      revert\n    tag_11:\n      pop\n      tag_12\n      tag_13\n      jump\t// in\n    tag_12:\n      mload(0x40)\n      tag_14\n      swap2\n      swap1\n      tag_10\n      jump\t// in\n    tag_14:\n      mload(0x40)\n      dup1\n      swap2\n      sub\n      swap1\n      return\n        /* \"DelegateCall.sol\":457:590  function setVars(uint256 _num) public payable {... */\n    tag_4:\n      tag_15\n      0x04\n      dup1\n      calldatasize\n      sub\n      dup2\n      add\n      swap1\n      tag_16\n      swap2\n      swap1\n      tag_17\n      jump\t// in\n    tag_16:\n      tag_18\n      jump\t// in\n    tag_15:\n      stop\n        /* \"DelegateCall.sol\":400:421  address public sender */\n    tag_5:\n      callvalue\n      dup1\n      iszero\n      tag_19\n      jumpi\n      0x00\n      dup1\n      revert\n    tag_19:\n      pop\n      tag_20\n      tag_21\n      jump\t// in\n    tag_20:\n      mload(0x40)\n      tag_22\n      swap2\n      swap1\n      tag_23\n      jump\t// in\n    tag_22:\n      mload(0x40)\n      dup1\n      swap2\n      sub\n      swap1\n      return\n        /* \"DelegateCall.sol\":428:448  uint256 public value */\n    tag_8:\n      sload(0x02)\n      dup2\n      jump\t// out\n        /* \"DelegateCall.sol\":375:393  uint256 public num */\n    tag_13:\n      sload(0x00)\n      dup2\n      jump\t// out\n        /* \"DelegateCall.sol\":457:590  function setVars(uint256 _num) public payable {... */\n    tag_18:\n        /* \"DelegateCall.sol\":520:524  _num */\n      dup1\n        /* \"DelegateCall.sol\":514:517  num */\n      0x00\n        /* \"DelegateCall.sol\":514:524  num = _num */\n      dup2\n      swap1\n      sstore\n      pop\n        /* \"DelegateCall.sol\":544:554  msg.sender */\n      caller\n        /* \"DelegateCall.sol\":535:541  sender */\n      0x01\n      0x00\n        /* \"DelegateCall.sol\":535:554  sender = msg.sender */\n      0x0100\n      exp\n      dup2\n      sload\n      dup2\n      0xffffffffffffffffffffffffffffffffffffffff\n      mul\n      not\n      and\n      swap1\n      dup4\n      0xffffffffffffffffffffffffffffffffffffffff\n      and\n      mul\n      or\n      swap1\n      sstore\n      pop\n        /* \"DelegateCall.sol\":573:582  msg.value */\n      callvalue\n        /* \"DelegateCall.sol\":565:570  value */\n      0x02\n        /* \"DelegateCall.sol\":565:582  value = msg.value */\n      dup2\n      swap1\n      sstore\n      pop\n        /* \"DelegateCall.sol\":457:590  function setVars(uint256 _num) public payable {... */\n      pop\n      jump\t// out\n        /* \"DelegateCall.sol\":400:421  address public sender */\n    tag_21:\n      0x01\n      0x00\n      swap1\n      sload\n      swap1\n      0x0100\n      exp\n      swap1\n      div\n      0xffffffffffffffffffffffffffffffffffffffff\n      and\n      dup2\n      jump\t// out\n        /* \"#utility.yul\":7:84   */\n    tag_25:\n        /* \"#utility.yul\":44:51   */\n      0x00\n        /* \"#utility.yul\":73:78   */\n      dup2\n        /* \"#utility.yul\":62:78   */\n      swap1\n      pop\n        /* \"#utility.yul\":7:84   */\n      swap2\n      swap1\n      pop\n      jump\t// out\n        /* \"#utility.yul\":90:208   */\n    tag_26:\n        /* \"#utility.yul\":177:201   */\n      tag_38\n        /* \"#utility.yul\":195:200   */\n      dup2\n        /* \"#utility.yul\":177:201   */\n      tag_25\n      jump\t// in\n    tag_38:\n        /* \"#utility.yul\":172:175   */\n      dup3\n        /* \"#utility.yul\":165:202   */\n      mstore\n        /* \"#utility.yul\":90:208   */\n      pop\n      pop\n      jump\t// out\n        /* \"#utility.yul\":214:436   */\n    tag_10:\n        /* \"#utility.yul\":307:311   */\n      0x00\n        /* \"#utility.yul\":345:347   */\n      0x20\n        /* \"#utility.yul\":334:343   */\n      dup3\n        /* \"#utility.yul\":330:348   */\n      add\n        /* \"#utility.yul\":322:348   */\n      swap1\n      pop\n        /* \"#utility.yul\":358:429   */\n      tag_40\n        /* \"#utility.yul\":426:427   */\n      0x00\n        /* \"#utility.yul\":415:424   */\n      dup4\n        /* \"#utility.yul\":411:428   */\n      add\n        /* \"#utility.yul\":402:408   */\n      dup5\n        /* \"#utility.yul\":358:429   */\n      tag_26\n      jump\t// in\n    tag_40:\n        /* \"#utility.yul\":214:436   */\n      swap3\n      swap2\n      pop\n      pop\n      jump\t// out\n        /* \"#utility.yul\":523:640   */\n    tag_28:\n        /* \"#utility.yul\":632:633   */\n      0x00\n        /* \"#utility.yul\":629:630   */\n      dup1\n        /* \"#utility.yul\":622:634   */\n      revert\n        /* \"#utility.yul\":769:891   */\n    tag_30:\n        /* \"#utility.yul\":842:866   */\n      tag_45\n        /* \"#utility.yul\":860:865   */\n      dup2\n        /* \"#utility.yul\":842:866   */\n      tag_25\n      jump\t// in\n    tag_45:\n        /* \"#utility.yul\":835:840   */\n      dup2\n        /* \"#utility.yul\":832:867   */\n      eq\n        /* \"#utility.yul\":822:885   */\n      tag_46\n      jumpi\n        /* \"#utility.yul\":881:882   */\n      0x00\n        /* \"#utility.yul\":878:879   */\n      dup1\n        /* \"#utility.yul\":871:883   */\n      revert\n        /* \"#utility.yul\":822:885   */\n    tag_46:\n        /* \"#utility.yul\":769:891   */\n      pop\n      jump\t// out\n        /* \"#utility.yul\":897:1036   */\n    tag_31:\n        /* \"#utility.yul\":943:948   */\n      0x00\n        /* \"#utility.yul\":981:987   */\n      dup2\n        /* \"#utility.yul\":968:988   */\n      calldataload\n        /* \"#utility.yul\":959:988   */\n      swap1\n      pop\n        /* \"#utility.yul\":997:1030   */\n      tag_48\n        /* \"#utility.yul\":1024:1029   */\n      dup2\n        /* \"#utility.yul\":997:1030   */\n      tag_30\n      jump\t// in\n    tag_48:\n        /* \"#utility.yul\":897:1036   */\n      swap3\n      swap2\n      pop\n      pop\n      jump\t// out\n        /* \"#utility.yul\":1042:1371   */\n    tag_17:\n        /* \"#utility.yul\":1101:1107   */\n      0x00\n        /* \"#utility.yul\":1150:1152   */\n      0x20\n        /* \"#utility.yul\":1138:1147   */\n      dup3\n        /* \"#utility.yul\":1129:1136   */\n      dup5\n        /* \"#utility.yul\":1125:1148   */\n      sub\n        /* \"#utility.yul\":1121:1153   */\n      slt\n        /* \"#utility.yul\":1118:1237   */\n      iszero\n      tag_50\n      jumpi\n        /* \"#utility.yul\":1156:1235   */\n      tag_51\n      tag_28\n      jump\t// in\n    tag_51:\n        /* \"#utility.yul\":1118:1237   */\n    tag_50:\n        /* \"#utility.yul\":1276:1277   */\n      0x00\n        /* \"#utility.yul\":1301:1354   */\n      tag_52\n        /* \"#utility.yul\":1346:1353   */\n      dup5\n        /* \"#utility.yul\":1337:1343   */\n      dup3\n        /* \"#utility.yul\":1326:1335   */\n      dup6\n        /* \"#utility.yul\":1322:1344   */\n      add\n        /* \"#utility.yul\":1301:1354   */\n      tag_31\n      jump\t// in\n    tag_52:\n        /* \"#utility.yul\":1291:1354   */\n      swap2\n      pop\n        /* \"#utility.yul\":1247:1364   */\n      pop\n        /* \"#utility.yul\":1042:1371   */\n      swap3\n      swap2\n      pop\n      pop\n      jump\t// out\n        /* \"#utility.yul\":1377:1503   */\n    tag_32:\n        /* \"#utility.yul\":1414:1421   */\n      0x00\n        /* \"#utility.yul\":1454:1496   */\n      0xffffffffffffffffffffffffffffffffffffffff\n        /* \"#utility.yul\":1447:1452   */\n      dup3\n        /* \"#utility.yul\":1443:1497   */\n      and\n        /* \"#utility.yul\":1432:1497   */\n      swap1\n      pop\n        /* \"#utility.yul\":1377:1503   */\n      swap2\n      swap1\n      pop\n      jump\t// out\n        /* \"#utility.yul\":1509:1605   */\n    tag_33:\n        /* \"#utility.yul\":1546:1553   */\n      0x00\n        /* \"#utility.yul\":1575:1599   */\n      tag_55\n        /* \"#utility.yul\":1593:1598   */\n      dup3\n        /* \"#utility.yul\":1575:1599   */\n      tag_32\n      jump\t// in\n    tag_55:\n        /* \"#utility.yul\":1564:1599   */\n      swap1\n      pop\n        /* \"#utility.yul\":1509:1605   */\n      swap2\n      swap1\n      pop\n      jump\t// out\n        /* \"#utility.yul\":1611:1729   */\n    tag_34:\n        /* \"#utility.yul\":1698:1722   */\n      tag_57\n        /* \"#utility.yul\":1716:1721   */\n      dup2\n        /* \"#utility.yul\":1698:1722   */\n      tag_33\n      jump\t// in\n    tag_57:\n        /* \"#utility.yul\":1693:1696   */\n      dup3\n        /* \"#utility.yul\":1686:1723   */\n      mstore\n        /* \"#utility.yul\":1611:1729   */\n      pop\n      pop\n      jump\t// out\n        /* \"#utility.yul\":1735:1957   */\n    tag_23:\n        /* \"#utility.yul\":1828:1832   */\n      0x00\n        /* \"#utility.yul\":1866:1868   */\n      0x20\n        /* \"#utility.yul\":1855:1864   */\n      dup3\n        /* \"#utility.yul\":1851:1869   */\n      add\n        /* \"#utility.yul\":1843:1869   */\n      swap1\n      pop\n        /* \"#utility.yul\":1879:1950   */\n      tag_59\n        /* \"#utility.yul\":1947:1948   */\n      0x00\n        /* \"#utility.yul\":1936:1945   */\n      dup4\n        /* \"#utility.yul\":1932:1949   */\n      add\n        /* \"#utility.yul\":1923:1929   */\n      dup5\n        /* \"#utility.yul\":1879:1950   */\n      tag_34\n      jump\t// in\n    tag_59:\n        /* \"#utility.yul\":1735:1957   */\n      swap3\n      swap2\n      pop\n      pop\n      jump\t// out\n\n    auxdata: 0xa26469706673582212208943058f39b8d1d8f844f1c63b2cbd202a4dfe5e44bb89cb0dc8f7c4439c62fa64736f6c634300081a0033\n}\n",
				"bytecode": {
					"linkReferences": {},
					"object": "6080604052348015600e575f80fd5b506102748061001c5f395ff3fe60806040526004361061003e575f3560e01c80633fa4f245146100425780634e70b1dc1461006c5780636466414b1461009657806367e404ce146100b2575b5f80fd5b34801561004d575f80fd5b506100566100dc565b6040516100639190610174565b60405180910390f35b348015610077575f80fd5b506100806100e2565b60405161008d9190610174565b60405180910390f35b6100b060048036038101906100ab91906101bb565b6100e7565b005b3480156100bd575f80fd5b506100c6610137565b6040516100d39190610225565b60405180910390f35b60025481565b5f5481565b805f819055503360015f6101000a81548173ffffffffffffffffffffffffffffffffffffffff021916908373ffffffffffffffffffffffffffffffffffffffff1602179055503460028190555050565b60015f9054906101000a900473ffffffffffffffffffffffffffffffffffffffff1681565b5f819050919050565b61016e8161015c565b82525050565b5f6020820190506101875f830184610165565b92915050565b5f80fd5b61019a8161015c565b81146101a4575f80fd5b50565b5f813590506101b581610191565b92915050565b5f602082840312156101d0576101cf61018d565b5b5f6101dd848285016101a7565b91505092915050565b5f73ffffffffffffffffffffffffffffffffffffffff82169050919050565b5f61020f826101e6565b9050919050565b61021f81610205565b82525050565b5f6020820190506102385f830184610216565b9291505056fea26469706673582212208943058f39b8d1d8f844f1c63b2cbd202a4dfe5e44bb89cb0dc8f7c4439c62fa64736f6c634300081a0033",
					"opcodes": "PUSH1 0x80 PUSH1 0x40 MSTORE CALLVALUE DUP1 ISZERO PUSH1 0xE JUMPI PUSH0 DUP1 REVERT JUMPDEST POP PUSH2 0x274 DUP1 PUSH2 0x1C PUSH0 CODECOPY PUSH0 RETURN INVALID PUSH1 0x80 PUSH1 0x40 MSTORE PUSH1 0x4 CALLDATASIZE LT PUSH2 0x3E JUMPI PUSH0 CALLDATALOAD PUSH1 0xE0 SHR DUP1 PUSH4 0x3FA4F245 EQ PUSH2 0x42 JUMPI DUP1 PUSH4 0x4E70B1DC EQ PUSH2 0x6C JUMPI DUP1 PUSH4 0x6466414B EQ PUSH2 0x96 JUMPI DUP1 PUSH4 0x67E404CE EQ PUSH2 0xB2 JUMPI JUMPDEST PUSH0 DUP1 REVERT JUMPDEST CALLVALUE DUP1 ISZERO PUSH2 0x4D JUMPI PUSH0 DUP1 REVERT JUMPDEST POP PUSH2 0x56 PUSH2 0xDC JUMP JUMPDEST PUSH1 0x40 MLOAD PUSH2 0x63 SWAP2 SWAP1 PUSH2 0x174 JUMP JUMPDEST PUSH1 0x40 MLOAD DUP1 SWAP2 SUB SWAP1 RETURN JUMPDEST CALLVALUE DUP1 ISZERO PUSH2 0x77 JUMPI PUSH0 DUP1 REVERT JUMPDEST POP PUSH2 0x80 PUSH2 0xE2 JUMP JUMPDEST PUSH1 0x40 MLOAD PUSH2 0x8D SWAP2 SWAP1 PUSH2 0x174 JUMP JUMPDEST PUSH1 0x40 MLOAD DUP1 SWAP2 SUB SWAP1 RETURN JUMPDEST PUSH2 0xB0 PUSH1 0x4 DUP1 CALLDATASIZE SUB DUP2 ADD SWAP1 PUSH2 0xAB SWAP2 SWAP1 PUSH2 0x1BB JUMP JUMPDEST PUSH2 0xE7 JUMP JUMPDEST STOP JUMPDEST CALLVALUE DUP1 ISZERO PUSH2 0xBD JUMPI PUSH0 DUP1 REVERT JUMPDEST POP PUSH2 0xC6 PUSH2 0x137 JUMP JUMPDEST PUSH1 0x40 MLOAD PUSH2 0xD3 SWAP2 SWAP1 PUSH2 0x225 JUMP JUMPDEST PUSH1 0x40 MLOAD DUP1 SWAP2 SUB SWAP1 RETURN JUMPDEST PUSH1 0x2 SLOAD DUP2 JUMP JUMPDEST PUSH0 SLOAD DUP2 JUMP JUMPDEST DUP1 PUSH0 DUP2 SWAP1 SSTORE POP CALLER PUSH1 0x1 PUSH0 PUSH2 0x100 EXP DUP2 SLOAD DUP2 PUSH20 0xFFFFFFFFFFFFFFFFFFFFFFFFFFFFFFFFFFFFFFFF MUL NOT AND SWAP1 DUP4 PUSH20 0xFFFFFFFFFFFFFFFFFFFFFFFFFFFFFFFFFFFFFFFF AND MUL OR SWAP1 SSTORE POP CALLVALUE PUSH1 0x2 DUP2 SWAP1 SSTORE POP POP JUMP JUMPDEST PUSH1 0x1 PUSH0 SWAP1 SLOAD SWAP1 PUSH2 0x100 EXP SWAP1 DIV PUSH20 0xFFFFFFFFFFFFFFFFFFFFFFFFFFFFFFFFFFFFFFFF AND DUP2 JUMP JUMPDEST PUSH0 DUP2 SWAP1 POP SWAP2 SWAP1 POP JUMP JUMPDEST PUSH2 0x16E DUP2 PUSH2 0x15C JUMP JUMPDEST DUP3 MSTORE POP POP JUMP JUMPDEST PUSH0 PUSH1 0x20 DUP3 ADD SWAP1 POP PUSH2 0x187 PUSH0 DUP4 ADD DUP5 PUSH2 0x165 JUMP JUMPDEST SWAP3 SWAP2 POP POP JUMP JUMPDEST PUSH0 DUP1 REVERT JUMPDEST PUSH2 0x19A DUP2 PUSH2 0x15C JUMP JUMPDEST DUP2 EQ PUSH2 0x1A4 JUMPI PUSH0 DUP1 REVERT JUMPDEST POP JUMP JUMPDEST PUSH0 DUP2 CALLDATALOAD SWAP1 POP PUSH2 0x1B5 DUP2 PUSH2 0x191 JUMP JUMPDEST SWAP3 SWAP2 POP POP JUMP JUMPDEST PUSH0 PUSH1 0x20 DUP3 DUP5 SUB SLT ISZERO PUSH2 0x1D0 JUMPI PUSH2 0x1CF PUSH2 0x18D JUMP JUMPDEST JUMPDEST PUSH0 PUSH2 0x1DD DUP5 DUP3 DUP6 ADD PUSH2 0x1A7 JUMP JUMPDEST SWAP2 POP POP SWAP3 SWAP2 POP POP JUMP JUMPDEST PUSH0 PUSH20 0xFFFFFFFFFFFFFFFFFFFFFFFFFFFFFFFFFFFFFFFF DUP3 AND SWAP1 POP SWAP2 SWAP1 POP JUMP JUMPDEST PUSH0 PUSH2 0x20F DUP3 PUSH2 0x1E6 JUMP JUMPDEST SWAP1 POP SWAP2 SWAP1 POP JUMP JUMPDEST PUSH2 0x21F DUP2 PUSH2 0x205 JUMP JUMPDEST DUP3 MSTORE POP POP JUMP JUMPDEST PUSH0 PUSH1 0x20 DUP3 ADD SWAP1 POP PUSH2 0x238 PUSH0 DUP4 ADD DUP5 PUSH2 0x216 JUMP JUMPDEST SWAP3 SWAP2 POP POP JUMP INVALID LOG2 PUSH5 0x6970667358 0x22 SLT KECCAK256 DUP10 NUMBER SDIV DUP16 CODECOPY 0xB8 0xD1 0xD8 0xF8 PREVRANDAO CALL 0xC6 EXTCODESIZE 0x2C 0xBD KECCAK256 0x2A 0x4D INVALID MCOPY PREVRANDAO 0xBB DUP10 0xCB 0xD 0xC8 0xF7 0xC4 NUMBER SWAP13 PUSH3 0xFA6473 PUSH16 0x6C634300081A00330000000000000000 "
				},
				"gasEstimates": {
					"creation": {
						"codeDepositCost": "125600",
						"executionCost": "169",
						"totalCost": "125769"
					},
					"external": {
						"num()": "2424",
						"sender()": "2552",
						"setVars(uint256)": "68890",
						"value()": "2403"
					}
				},
				"methodIdentifiers": {
					"num()": "4e70b1dc",
					"sender()": "67e404ce",
					"setVars(uint256)": "6466414b",
					"value()": "3fa4f245"
				}
			},
			"storageLayout": {
				"storage": [
					{
						"astId": 3,
						"contract": "DelegateCall.sol:B",
						"label": "num",
						"offset": 0,
						"slot": "0",
						"type": "t_uint256"
					},
					{
						"astId": 5,
						"contract": "DelegateCall.sol:B",
						"label": "sender",
						"offset": 0,
						"slot": "1",
						"type": "t_address"
					},
					{
						"astId": 7,
						"contract": "DelegateCall.sol:B",
						"label": "value",
						"offset": 0,
						"slot": "2",
						"type": "t_uint256"
					}
				],
				"types": {
					"t_address": {
						"encoding": "inplace",
						"label": "address",
						"numberOfBytes": "20"
					},
					"t_uint256": {
						"encoding": "inplace",
						"label": "uint256",
						"numberOfBytes": "32"
					}
				}
			},
			"userdoc": {
				"kind": "user",
				"methods": {},
				"version": 1
			}
		}
	}
}