{
	"EVMMemoryLayout.sol": {
		"MemRevert": {
			"abi": [
				{
					"inputs": [],
					"name": "test_revert",
					"outputs": [],
					"stateMutability": "pure",
					"type": "function"
				},
				{
					"inputs": [],
					"name": "test_revert_with_error_msg",
					"outputs": [],
					"stateMutability": "pure",
					"type": "function"
				}
			],
			"devdoc": {
				"kind": "dev",
				"methods": {},
				"version": 1
			},
			"evm": {
				"assembly": "    /* \"EVMMemoryLayout.sol\":11917:13023  contract MemRevert {... */\n  mstore(0x40, 0x80)\n  callvalue\n  dup1\n  iszero\n  tag_1\n  jumpi\n  0x00\n  dup1\n  revert\ntag_1:\n  pop\n  dataSize(sub_0)\n  dup1\n  dataOffset(sub_0)\n  0x00\n  codecopy\n  0x00\n  return\nstop\n\nsub_0: assembly {\n        /* \"EVMMemoryLayout.sol\":11917:13023  contract MemRevert {... */\n      mstore(0x40, 0x80)\n      callvalue\n      dup1\n      iszero\n      tag_1\n      jumpi\n      0x00\n      dup1\n      revert\n    tag_1:\n      pop\n      jumpi(tag_2, lt(calldatasize, 0x04))\n      shr(0xe0, calldataload(0x00))\n      dup1\n      0x6d3d1416\n      eq\n      tag_3\n      jumpi\n      dup1\n      0xfd64f364\n      eq\n      tag_4\n      jumpi\n    tag_2:\n      0x00\n      dup1\n      revert\n        /* \"EVMMemoryLayout.sol\":11943:12197  function test_revert() public pure {... */\n    tag_3:\n      tag_5\n      tag_6\n      jump\t// in\n    tag_5:\n      stop\n        /* \"EVMMemoryLayout.sol\":12205:13020  function test_revert_with_error_msg() public pure {... */\n    tag_4:\n      tag_7\n      tag_8\n      jump\t// in\n    tag_7:\n      stop\n        /* \"EVMMemoryLayout.sol\":11943:12197  function test_revert() public pure {... */\n    tag_6:\n        /* \"EVMMemoryLayout.sol\":12134:12146  \"ERROR HERE\" */\n      0x4552524f52204845524500000000000000000000000000000000000000000000\n        /* \"EVMMemoryLayout.sol\":12128:12132  0x80 */\n      0x80\n        /* \"EVMMemoryLayout.sol\":12121:12147  mstore(0x80, \"ERROR HERE\") */\n      mstore\n        /* \"EVMMemoryLayout.sol\":12174:12178  0x20 */\n      0x20\n        /* \"EVMMemoryLayout.sol\":12168:12172  0x80 */\n      0x80\n        /* \"EVMMemoryLayout.sol\":12161:12179  revert(0x80, 0x20) */\n      revert\n        /* \"EVMMemoryLayout.sol\":12205:13020  function test_revert_with_error_msg() public pure {... */\n    tag_8:\n        /* \"EVMMemoryLayout.sol\":12305:12309  0x40 */\n      0x40\n        /* \"EVMMemoryLayout.sol\":12299:12310  mload(0x40) */\n      mload\n        /* \"EVMMemoryLayout.sol\":12585:12595  0x08c379a0 */\n      0x08c379a0\n        /* \"EVMMemoryLayout.sol\":12580:12583  224 */\n      0xe0\n        /* \"EVMMemoryLayout.sol\":12576:12596  shl(224, 0x08c379a0) */\n      shl\n        /* \"EVMMemoryLayout.sol\":12573:12574  p */\n      dup2\n        /* \"EVMMemoryLayout.sol\":12566:12597  mstore(p, shl(224, 0x08c379a0)) */\n      mstore\n        /* \"EVMMemoryLayout.sol\":12662:12666  0x20 */\n      0x20\n        /* \"EVMMemoryLayout.sol\":12655:12659  0x04 */\n      0x04\n        /* \"EVMMemoryLayout.sol\":12652:12653  p */\n      dup3\n        /* \"EVMMemoryLayout.sol\":12648:12660  add(p, 0x04) */\n      add\n        /* \"EVMMemoryLayout.sol\":12641:12667  mstore(add(p, 0x04), 0x20) */\n      mstore\n        /* \"EVMMemoryLayout.sol\":12732:12733  5 */\n      0x05\n        /* \"EVMMemoryLayout.sol\":12725:12729  0x24 */\n      0x24\n        /* \"EVMMemoryLayout.sol\":12722:12723  p */\n      dup3\n        /* \"EVMMemoryLayout.sol\":12718:12730  add(p, 0x24) */\n      add\n        /* \"EVMMemoryLayout.sol\":12711:12734  mstore(add(p, 0x24), 5) */\n      mstore\n        /* \"EVMMemoryLayout.sol\":12822:12829  \"ERROR\" */\n      0x4552524f52000000000000000000000000000000000000000000000000000000\n        /* \"EVMMemoryLayout.sol\":12815:12819  0x44 */\n      0x44\n        /* \"EVMMemoryLayout.sol\":12812:12813  p */\n      dup3\n        /* \"EVMMemoryLayout.sol\":12808:12820  add(p, 0x44) */\n      add\n        /* \"EVMMemoryLayout.sol\":12801:12830  mstore(add(p, 0x44), \"ERROR\") */\n      mstore\n        /* \"EVMMemoryLayout.sol\":12997:13001  0x64 */\n      0x64\n        /* \"EVMMemoryLayout.sol\":12994:12995  p */\n      dup2\n        /* \"EVMMemoryLayout.sol\":12987:13002  revert(p, 0x64) */\n      revert\n\n    auxdata: 0xa2646970667358221220b5fae11b713c2f3865f72cefce42789e73cfb8658d34f0289a034ea372b7e15164736f6c634300081a0033\n}\n",
				"bytecode": {
					"linkReferences": {},
					"object": "6080604052348015600e575f80fd5b5060ea8061001b5f395ff3fe6080604052348015600e575f80fd5b50600436106030575f3560e01c80636d3d1416146034578063fd64f36414603c575b5f80fd5b603a6044565b005b6042606e565b005b7f4552524f5220484552450000000000000000000000000000000000000000000060805260206080fd5b6040516308c379a060e01b815260206004820152600560248201527f4552524f520000000000000000000000000000000000000000000000000000006044820152606481fdfea2646970667358221220b5fae11b713c2f3865f72cefce42789e73cfb8658d34f0289a034ea372b7e15164736f6c634300081a0033",
					"opcodes": "PUSH1 0x80 PUSH1 0x40 MSTORE CALLVALUE DUP1 ISZERO PUSH1 0xE JUMPI PUSH0 DUP1 REVERT JUMPDEST POP PUSH1 0xEA DUP1 PUSH2 0x1B PUSH0 CODECOPY PUSH0 RETURN INVALID PUSH1 0x80 PUSH1 0x40 MSTORE CALLVALUE DUP1 ISZERO PUSH1 0xE JUMPI PUSH0 DUP1 REVERT JUMPDEST POP PUSH1 0x4 CALLDATASIZE LT PUSH1 0x30 JUMPI PUSH0 CALLDATALOAD PUSH1 0xE0 SHR DUP1 PUSH4 0x6D3D1416 EQ PUSH1 0x34 JUMPI DUP1 PUSH4 0xFD64F364 EQ PUSH1 0x3C JUMPI JUMPDEST PUSH0 DUP1 REVERT JUMPDEST PUSH1 0x3A PUSH1 0x44 JUMP JUMPDEST STOP JUMPDEST PUSH1 0x42 PUSH1 0x6E JUMP JUMPDEST STOP JUMPDEST PUSH32 0x4552524F52204845524500000000000000000000000000000000000000000000 PUSH1 0x80 MSTORE PUSH1 0x20 PUSH1 0x80 REVERT JUMPDEST PUSH1 0x40 MLOAD PUSH4 0x8C379A0 PUSH1 0xE0 SHL DUP2 MSTORE PUSH1 0x20 PUSH1 0x4 DUP3 ADD MSTORE PUSH1 0x5 PUSH1 0x24 DUP3 ADD MSTORE PUSH32 0x4552524F52000000000000000000000000000000000000000000000000000000 PUSH1 0x44 DUP3 ADD MSTORE PUSH1 0x64 DUP2 REVERT INVALID LOG2 PUSH5 0x6970667358 0x22 SLT KECCAK256 0xB5 STATICCALL 0xE1 SHL PUSH18 0x3C2F3865F72CEFCE42789E73CFB8658D34F0 0x28 SWAP11 SUB 0x4E LOG3 PUSH19 0xB7E15164736F6C634300081A00330000000000 "
				},
				"gasEstimates": {
					"creation": {
						"codeDepositCost": "46800",
						"executionCost": "97",
						"totalCost": "46897"
					},
					"external": {
						"test_revert()": "133",
						"test_revert_with_error_msg()": "221"
					}
				},
				"methodIdentifiers": {
					"test_revert()": "6d3d1416",
					"test_revert_with_error_msg()": "fd64f364"
				}
			},
			"storageLayout": {
				"storage": [],
				"types": null
			},
			"userdoc": {
				"kind": "user",
				"methods": {},
				"version": 1
			}
		}
	}
}