{
	"EVMMemoryLayout.sol": {
		"MemReturn": {
			"abi": [
				{
					"inputs": [],
					"name": "test_return",
					"outputs": [
						{
							"internalType": "uint256",
							"name": "",
							"type": "uint256"
						},
						{
							"internalType": "uint256",
							"name": "",
							"type": "uint256"
						}
					],
					"stateMutability": "pure",
					"type": "function"
				},
				{
					"inputs": [],
					"name": "test_return_dyn_arr",
					"outputs": [
						{
							"internalType": "uint256[]",
							"name": "",
							"type": "uint256[]"
						}
					],
					"stateMutability": "pure",
					"type": "function"
				},
				{
					"inputs": [],
					"name": "test_return_vals",
					"outputs": [
						{
							"internalType": "uint256",
							"name": "",
							"type": "uint256"
						},
						{
							"internalType": "uint256",
							"name": "",
							"type": "uint256"
						}
					],
					"stateMutability": "pure",
					"type": "function"
				}
			],
			"devdoc": {
				"kind": "dev",
				"methods": {},
				"version": 1
			},
			"evm": {
				"assembly": "    /* \"EVMMemoryLayout.sol\":10791:11913  contract MemReturn {... */\n  mstore(0x40, 0x80)\n  callvalue\n  dup1\n  iszero\n  tag_1\n  jumpi\n  0x00\n  dup1\n  revert\ntag_1:\n  pop\n  dataSize(sub_0)\n  dup1\n  dataOffset(sub_0)\n  0x00\n  codecopy\n  0x00\n  return\nstop\n\nsub_0: assembly {\n        /* \"EVMMemoryLayout.sol\":10791:11913  contract MemReturn {... */\n      mstore(0x40, 0x80)\n      callvalue\n      dup1\n      iszero\n      tag_1\n      jumpi\n      0x00\n      dup1\n      revert\n    tag_1:\n      pop\n      jumpi(tag_2, lt(calldatasize, 0x04))\n      shr(0xe0, calldataload(0x00))\n      dup1\n      0x91cd41c2\n      eq\n      tag_3\n      jumpi\n      dup1\n      0xd0825a4d\n      eq\n      tag_4\n      jumpi\n      dup1\n      0xdf9f5ccb\n      eq\n      tag_5\n      jumpi\n    tag_2:\n      0x00\n      dup1\n      revert\n        /* \"EVMMemoryLayout.sol\":11130:11705  function test_return_dyn_arr() public pure returns (uint256[] memory) {... */\n    tag_3:\n      tag_6\n      tag_7\n      jump\t// in\n    tag_6:\n      mload(0x40)\n      tag_8\n      swap2\n      swap1\n      tag_9\n      jump\t// in\n    tag_8:\n      mload(0x40)\n      dup1\n      swap2\n      sub\n      swap1\n      return\n        /* \"EVMMemoryLayout.sol\":10817:11122  function test_return_vals() public pure returns (uint256, uint256) {... */\n    tag_4:\n      tag_10\n      tag_11\n      jump\t// in\n    tag_10:\n      mload(0x40)\n      tag_12\n      swap3\n      swap2\n      swap1\n      tag_13\n      jump\t// in\n    tag_12:\n      mload(0x40)\n      dup1\n      swap2\n      sub\n      swap1\n      return\n        /* \"EVMMemoryLayout.sol\":11713:11910  function test_return() public pure returns (uint256, uint256) {... */\n    tag_5:\n      tag_14\n      tag_15\n      jump\t// in\n    tag_14:\n      mload(0x40)\n      tag_16\n      swap3\n      swap2\n      swap1\n      tag_13\n      jump\t// in\n    tag_16:\n      mload(0x40)\n      dup1\n      swap2\n      sub\n      swap1\n      return\n        /* \"EVMMemoryLayout.sol\":11130:11705  function test_return_dyn_arr() public pure returns (uint256[] memory) {... */\n    tag_7:\n        /* \"EVMMemoryLayout.sol\":11182:11198  uint256[] memory */\n      0x60\n        /* \"EVMMemoryLayout.sol\":11340:11344  0x20 */\n      0x20\n        /* \"EVMMemoryLayout.sol\":11334:11338  0x80 */\n      0x80\n        /* \"EVMMemoryLayout.sol\":11327:11345  mstore(0x80, 0x20) */\n      mstore\n        /* \"EVMMemoryLayout.sol\":11406:11407  3 */\n      0x03\n        /* \"EVMMemoryLayout.sol\":11399:11403  0x20 */\n      0x20\n        /* \"EVMMemoryLayout.sol\":11393:11397  0x80 */\n      0x80\n        /* \"EVMMemoryLayout.sol\":11389:11404  add(0x80, 0x20) */\n      add\n        /* \"EVMMemoryLayout.sol\":11382:11408  mstore(add(0x80, 0x20), 3) */\n      mstore\n        /* \"EVMMemoryLayout.sol\":11477:11479  11 */\n      0x0b\n        /* \"EVMMemoryLayout.sol\":11470:11474  0x40 */\n      0x40\n        /* \"EVMMemoryLayout.sol\":11464:11468  0x80 */\n      0x80\n        /* \"EVMMemoryLayout.sol\":11460:11475  add(0x80, 0x40) */\n      add\n        /* \"EVMMemoryLayout.sol\":11453:11480  mstore(add(0x80, 0x40), 11) */\n      mstore\n        /* \"EVMMemoryLayout.sol\":11518:11520  22 */\n      0x16\n        /* \"EVMMemoryLayout.sol\":11511:11515  0x60 */\n      0x60\n        /* \"EVMMemoryLayout.sol\":11505:11509  0x80 */\n      0x80\n        /* \"EVMMemoryLayout.sol\":11501:11516  add(0x80, 0x60) */\n      add\n        /* \"EVMMemoryLayout.sol\":11494:11521  mstore(add(0x80, 0x60), 22) */\n      mstore\n        /* \"EVMMemoryLayout.sol\":11559:11561  33 */\n      0x21\n        /* \"EVMMemoryLayout.sol\":11552:11556  0x80 */\n      0x80\n        /* \"EVMMemoryLayout.sol\":11546:11550  0x80 */\n      dup1\n        /* \"EVMMemoryLayout.sol\":11542:11557  add(0x80, 0x80) */\n      add\n        /* \"EVMMemoryLayout.sol\":11535:11562  mstore(add(0x80, 0x80), 33) */\n      mstore\n        /* \"EVMMemoryLayout.sol\":11681:11685  0x20 */\n      0x20\n        /* \"EVMMemoryLayout.sol\":11678:11679  5 */\n      0x05\n        /* \"EVMMemoryLayout.sol\":11674:11686  mul(5, 0x20) */\n      mul\n        /* \"EVMMemoryLayout.sol\":11668:11672  0x80 */\n      0x80\n        /* \"EVMMemoryLayout.sol\":11661:11687  return(0x80, mul(5, 0x20)) */\n      return\n        /* \"EVMMemoryLayout.sol\":10817:11122  function test_return_vals() public pure returns (uint256, uint256) {... */\n    tag_11:\n        /* \"EVMMemoryLayout.sol\":10866:10873  uint256 */\n      0x00\n        /* \"EVMMemoryLayout.sol\":10875:10882  uint256 */\n      dup1\n        /* \"EVMMemoryLayout.sol\":11039:11041  11 */\n      0x0b\n        /* \"EVMMemoryLayout.sol\":11033:11037  0x80 */\n      0x80\n        /* \"EVMMemoryLayout.sol\":11026:11042  mstore(0x80, 11) */\n      mstore\n        /* \"EVMMemoryLayout.sol\":11069:11071  22 */\n      0x16\n        /* \"EVMMemoryLayout.sol\":11063:11067  0xa0 */\n      0xa0\n        /* \"EVMMemoryLayout.sol\":11056:11072  mstore(0xa0, 22) */\n      mstore\n        /* \"EVMMemoryLayout.sol\":11099:11103  0x40 */\n      0x40\n        /* \"EVMMemoryLayout.sol\":11093:11097  0x80 */\n      0x80\n        /* \"EVMMemoryLayout.sol\":11086:11104  return(0x80, 0x40) */\n      return\n        /* \"EVMMemoryLayout.sol\":11713:11910  function test_return() public pure returns (uint256, uint256) {... */\n    tag_15:\n        /* \"EVMMemoryLayout.sol\":11757:11764  uint256 */\n      0x00\n        /* \"EVMMemoryLayout.sol\":11766:11773  uint256 */\n      dup1\n        /* \"EVMMemoryLayout.sol\":11815:11833  test_return_vals() */\n      tag_20\n        /* \"EVMMemoryLayout.sol\":11815:11831  test_return_vals */\n      tag_11\n        /* \"EVMMemoryLayout.sol\":11815:11833  test_return_vals() */\n      jump\t// in\n    tag_20:\n      pop\n      pop\n        /* \"EVMMemoryLayout.sol\":11893:11896  333 */\n      0x014d\n        /* \"EVMMemoryLayout.sol\":11898:11901  444 */\n      0x01bc\n        /* \"EVMMemoryLayout.sol\":11885:11902  return (333, 444) */\n      swap2\n      pop\n      swap2\n      pop\n        /* \"EVMMemoryLayout.sol\":11713:11910  function test_return() public pure returns (uint256, uint256) {... */\n      swap1\n      swap2\n      jump\t// out\n        /* \"#utility.yul\":7:121   */\n    tag_21:\n        /* \"#utility.yul\":74:80   */\n      0x00\n        /* \"#utility.yul\":108:113   */\n      dup2\n        /* \"#utility.yul\":102:114   */\n      mload\n        /* \"#utility.yul\":92:114   */\n      swap1\n      pop\n        /* \"#utility.yul\":7:121   */\n      swap2\n      swap1\n      pop\n      jump\t// out\n        /* \"#utility.yul\":127:311   */\n    tag_22:\n        /* \"#utility.yul\":226:237   */\n      0x00\n        /* \"#utility.yul\":260:266   */\n      dup3\n        /* \"#utility.yul\":255:258   */\n      dup3\n        /* \"#utility.yul\":248:267   */\n      mstore\n        /* \"#utility.yul\":300:304   */\n      0x20\n        /* \"#utility.yul\":295:298   */\n      dup3\n        /* \"#utility.yul\":291:305   */\n      add\n        /* \"#utility.yul\":276:305   */\n      swap1\n      pop\n        /* \"#utility.yul\":127:311   */\n      swap3\n      swap2\n      pop\n      pop\n      jump\t// out\n        /* \"#utility.yul\":317:449   */\n    tag_23:\n        /* \"#utility.yul\":384:388   */\n      0x00\n        /* \"#utility.yul\":407:410   */\n      dup2\n        /* \"#utility.yul\":399:410   */\n      swap1\n      pop\n        /* \"#utility.yul\":437:441   */\n      0x20\n        /* \"#utility.yul\":432:435   */\n      dup3\n        /* \"#utility.yul\":428:442   */\n      add\n        /* \"#utility.yul\":420:442   */\n      swap1\n      pop\n        /* \"#utility.yul\":317:449   */\n      swap2\n      swap1\n      pop\n      jump\t// out\n        /* \"#utility.yul\":455:532   */\n    tag_24:\n        /* \"#utility.yul\":492:499   */\n      0x00\n        /* \"#utility.yul\":521:526   */\n      dup2\n        /* \"#utility.yul\":510:526   */\n      swap1\n      pop\n        /* \"#utility.yul\":455:532   */\n      swap2\n      swap1\n      pop\n      jump\t// out\n        /* \"#utility.yul\":538:646   */\n    tag_25:\n        /* \"#utility.yul\":615:639   */\n      tag_36\n        /* \"#utility.yul\":633:638   */\n      dup2\n        /* \"#utility.yul\":615:639   */\n      tag_24\n      jump\t// in\n    tag_36:\n        /* \"#utility.yul\":610:613   */\n      dup3\n        /* \"#utility.yul\":603:640   */\n      mstore\n        /* \"#utility.yul\":538:646   */\n      pop\n      pop\n      jump\t// out\n        /* \"#utility.yul\":652:831   */\n    tag_26:\n        /* \"#utility.yul\":721:731   */\n      0x00\n        /* \"#utility.yul\":742:788   */\n      tag_38\n        /* \"#utility.yul\":784:787   */\n      dup4\n        /* \"#utility.yul\":776:782   */\n      dup4\n        /* \"#utility.yul\":742:788   */\n      tag_25\n      jump\t// in\n    tag_38:\n        /* \"#utility.yul\":820:824   */\n      0x20\n        /* \"#utility.yul\":815:818   */\n      dup4\n        /* \"#utility.yul\":811:825   */\n      add\n        /* \"#utility.yul\":797:825   */\n      swap1\n      pop\n        /* \"#utility.yul\":652:831   */\n      swap3\n      swap2\n      pop\n      pop\n      jump\t// out\n        /* \"#utility.yul\":837:950   */\n    tag_27:\n        /* \"#utility.yul\":907:911   */\n      0x00\n        /* \"#utility.yul\":939:943   */\n      0x20\n        /* \"#utility.yul\":934:937   */\n      dup3\n        /* \"#utility.yul\":930:944   */\n      add\n        /* \"#utility.yul\":922:944   */\n      swap1\n      pop\n        /* \"#utility.yul\":837:950   */\n      swap2\n      swap1\n      pop\n      jump\t// out\n        /* \"#utility.yul\":986:1718   */\n    tag_28:\n        /* \"#utility.yul\":1105:1108   */\n      0x00\n        /* \"#utility.yul\":1134:1188   */\n      tag_41\n        /* \"#utility.yul\":1182:1187   */\n      dup3\n        /* \"#utility.yul\":1134:1188   */\n      tag_21\n      jump\t// in\n    tag_41:\n        /* \"#utility.yul\":1204:1290   */\n      tag_42\n        /* \"#utility.yul\":1283:1289   */\n      dup2\n        /* \"#utility.yul\":1278:1281   */\n      dup6\n        /* \"#utility.yul\":1204:1290   */\n      tag_22\n      jump\t// in\n    tag_42:\n        /* \"#utility.yul\":1197:1290   */\n      swap4\n      pop\n        /* \"#utility.yul\":1314:1370   */\n      tag_43\n        /* \"#utility.yul\":1364:1369   */\n      dup4\n        /* \"#utility.yul\":1314:1370   */\n      tag_23\n      jump\t// in\n    tag_43:\n        /* \"#utility.yul\":1393:1400   */\n      dup1\n        /* \"#utility.yul\":1424:1425   */\n      0x00\n        /* \"#utility.yul\":1409:1693   */\n    tag_44:\n        /* \"#utility.yul\":1434:1440   */\n      dup4\n        /* \"#utility.yul\":1431:1432   */\n      dup2\n        /* \"#utility.yul\":1428:1441   */\n      lt\n        /* \"#utility.yul\":1409:1693   */\n      iszero\n      tag_46\n      jumpi\n        /* \"#utility.yul\":1510:1516   */\n      dup2\n        /* \"#utility.yul\":1504:1517   */\n      mload\n        /* \"#utility.yul\":1537:1600   */\n      tag_47\n        /* \"#utility.yul\":1596:1599   */\n      dup9\n        /* \"#utility.yul\":1581:1594   */\n      dup3\n        /* \"#utility.yul\":1537:1600   */\n      tag_26\n      jump\t// in\n    tag_47:\n        /* \"#utility.yul\":1530:1600   */\n      swap8\n      pop\n        /* \"#utility.yul\":1623:1683   */\n      tag_48\n        /* \"#utility.yul\":1676:1682   */\n      dup4\n        /* \"#utility.yul\":1623:1683   */\n      tag_27\n      jump\t// in\n    tag_48:\n        /* \"#utility.yul\":1613:1683   */\n      swap3\n      pop\n        /* \"#utility.yul\":1469:1693   */\n      pop\n        /* \"#utility.yul\":1456:1457   */\n      0x01\n        /* \"#utility.yul\":1453:1454   */\n      dup2\n        /* \"#utility.yul\":1449:1458   */\n      add\n        /* \"#utility.yul\":1444:1458   */\n      swap1\n      pop\n        /* \"#utility.yul\":1409:1693   */\n      jump(tag_44)\n    tag_46:\n        /* \"#utility.yul\":1413:1427   */\n      pop\n        /* \"#utility.yul\":1709:1712   */\n      dup6\n        /* \"#utility.yul\":1702:1712   */\n      swap4\n      pop\n        /* \"#utility.yul\":1110:1718   */\n      pop\n      pop\n      pop\n        /* \"#utility.yul\":986:1718   */\n      swap3\n      swap2\n      pop\n      pop\n      jump\t// out\n        /* \"#utility.yul\":1724:2097   */\n    tag_9:\n        /* \"#utility.yul\":1867:1871   */\n      0x00\n        /* \"#utility.yul\":1905:1907   */\n      0x20\n        /* \"#utility.yul\":1894:1903   */\n      dup3\n        /* \"#utility.yul\":1890:1908   */\n      add\n        /* \"#utility.yul\":1882:1908   */\n      swap1\n      pop\n        /* \"#utility.yul\":1954:1963   */\n      dup2\n        /* \"#utility.yul\":1948:1952   */\n      dup2\n        /* \"#utility.yul\":1944:1964   */\n      sub\n        /* \"#utility.yul\":1940:1941   */\n      0x00\n        /* \"#utility.yul\":1929:1938   */\n      dup4\n        /* \"#utility.yul\":1925:1942   */\n      add\n        /* \"#utility.yul\":1918:1965   */\n      mstore\n        /* \"#utility.yul\":1982:2090   */\n      tag_50\n        /* \"#utility.yul\":2085:2089   */\n      dup2\n        /* \"#utility.yul\":2076:2082   */\n      dup5\n        /* \"#utility.yul\":1982:2090   */\n      tag_28\n      jump\t// in\n    tag_50:\n        /* \"#utility.yul\":1974:2090   */\n      swap1\n      pop\n        /* \"#utility.yul\":1724:2097   */\n      swap3\n      swap2\n      pop\n      pop\n      jump\t// out\n        /* \"#utility.yul\":2103:2221   */\n    tag_29:\n        /* \"#utility.yul\":2190:2214   */\n      tag_52\n        /* \"#utility.yul\":2208:2213   */\n      dup2\n        /* \"#utility.yul\":2190:2214   */\n      tag_24\n      jump\t// in\n    tag_52:\n        /* \"#utility.yul\":2185:2188   */\n      dup3\n        /* \"#utility.yul\":2178:2215   */\n      mstore\n        /* \"#utility.yul\":2103:2221   */\n      pop\n      pop\n      jump\t// out\n        /* \"#utility.yul\":2227:2559   */\n    tag_13:\n        /* \"#utility.yul\":2348:2352   */\n      0x00\n        /* \"#utility.yul\":2386:2388   */\n      0x40\n        /* \"#utility.yul\":2375:2384   */\n      dup3\n        /* \"#utility.yul\":2371:2389   */\n      add\n        /* \"#utility.yul\":2363:2389   */\n      swap1\n      pop\n        /* \"#utility.yul\":2399:2470   */\n      tag_54\n        /* \"#utility.yul\":2467:2468   */\n      0x00\n        /* \"#utility.yul\":2456:2465   */\n      dup4\n        /* \"#utility.yul\":2452:2469   */\n      add\n        /* \"#utility.yul\":2443:2449   */\n      dup6\n        /* \"#utility.yul\":2399:2470   */\n      tag_29\n      jump\t// in\n    tag_54:\n        /* \"#utility.yul\":2480:2552   */\n      tag_55\n        /* \"#utility.yul\":2548:2550   */\n      0x20\n        /* \"#utility.yul\":2537:2546   */\n      dup4\n        /* \"#utility.yul\":2533:2551   */\n      add\n        /* \"#utility.yul\":2524:2530   */\n      dup5\n        /* \"#utility.yul\":2480:2552   */\n      tag_29\n      jump\t// in\n    tag_55:\n        /* \"#utility.yul\":2227:2559   */\n      swap4\n      swap3\n      pop\n      pop\n      pop\n      jump\t// out\n\n    auxdata: 0xa2646970667358221220a481834fccb29ffd157c10487b1dcfec335c1e503dd333a5763902b77f8b4d5264736f6c634300081a0033\n}\n",
				"bytecode": {
					"linkReferences": {},
					"object": "6080604052348015600e575f80fd5b506102468061001c5f395ff3fe608060405234801561000f575f80fd5b506004361061003f575f3560e01c806391cd41c214610043578063d0825a4d14610061578063df9f5ccb14610080575b5f80fd5b61004b61009f565b60405161005891906101ba565b60405180910390f35b6100696100ce565b6040516100779291906101e9565b60405180910390f35b6100886100e0565b6040516100969291906101e9565b60405180910390f35b606060206080526003602060800152600b60406080015260166060608001526021608080015260206005026080f35b5f80600b608052601660a05260406080f35b5f806100ea6100ce565b505061014d6101bc915091509091565b5f81519050919050565b5f82825260208201905092915050565b5f819050602082019050919050565b5f819050919050565b61013581610123565b82525050565b5f610146838361012c565b60208301905092915050565b5f602082019050919050565b5f610168826100fa565b6101728185610104565b935061017d83610114565b805f5b838110156101ad578151610194888261013b565b975061019f83610152565b925050600181019050610180565b5085935050505092915050565b5f6020820190508181035f8301526101d2818461015e565b905092915050565b6101e381610123565b82525050565b5f6040820190506101fc5f8301856101da565b61020960208301846101da565b939250505056fea2646970667358221220a481834fccb29ffd157c10487b1dcfec335c1e503dd333a5763902b77f8b4d5264736f6c634300081a0033",
					"opcodes": "PUSH1 0x80 PUSH1 0x40 MSTORE CALLVALUE DUP1 ISZERO PUSH1 0xE JUMPI PUSH0 DUP1 REVERT JUMPDEST POP PUSH2 0x246 DUP1 PUSH2 0x1C PUSH0 CODECOPY PUSH0 RETURN INVALID PUSH1 0x80 PUSH1 0x40 MSTORE CALLVALUE DUP1 ISZERO PUSH2 0xF JUMPI PUSH0 DUP1 REVERT JUMPDEST POP PUSH1 0x4 CALLDATASIZE LT PUSH2 0x3F JUMPI PUSH0 CALLDATALOAD PUSH1 0xE0 SHR DUP1 PUSH4 0x91CD41C2 EQ PUSH2 0x43 JUMPI DUP1 PUSH4 0xD0825A4D EQ PUSH2 0x61 JUMPI DUP1 PUSH4 0xDF9F5CCB EQ PUSH2 0x80 JUMPI JUMPDEST PUSH0 DUP1 REVERT JUMPDEST PUSH2 0x4B PUSH2 0x9F JUMP JUMPDEST PUSH1 0x40 MLOAD PUSH2 0x58 SWAP2 SWAP1 PUSH2 0x1BA JUMP JUMPDEST PUSH1 0x40 MLOAD DUP1 SWAP2 SUB SWAP1 RETURN JUMPDEST PUSH2 0x69 PUSH2 0xCE JUMP JUMPDEST PUSH1 0x40 MLOAD PUSH2 0x77 SWAP3 SWAP2 SWAP1 PUSH2 0x1E9 JUMP JUMPDEST PUSH1 0x40 MLOAD DUP1 SWAP2 SUB SWAP1 RETURN JUMPDEST PUSH2 0x88 PUSH2 0xE0 JUMP JUMPDEST PUSH1 0x40 MLOAD PUSH2 0x96 SWAP3 SWAP2 SWAP1 PUSH2 0x1E9 JUMP JUMPDEST PUSH1 0x40 MLOAD DUP1 SWAP2 SUB SWAP1 RETURN JUMPDEST PUSH1 0x60 PUSH1 0x20 PUSH1 0x80 MSTORE PUSH1 0x3 PUSH1 0x20 PUSH1 0x80 ADD MSTORE PUSH1 0xB PUSH1 0x40 PUSH1 0x80 ADD MSTORE PUSH1 0x16 PUSH1 0x60 PUSH1 0x80 ADD MSTORE PUSH1 0x21 PUSH1 0x80 DUP1 ADD MSTORE PUSH1 0x20 PUSH1 0x5 MUL PUSH1 0x80 RETURN JUMPDEST PUSH0 DUP1 PUSH1 0xB PUSH1 0x80 MSTORE PUSH1 0x16 PUSH1 0xA0 MSTORE PUSH1 0x40 PUSH1 0x80 RETURN JUMPDEST PUSH0 DUP1 PUSH2 0xEA PUSH2 0xCE JUMP JUMPDEST POP POP PUSH2 0x14D PUSH2 0x1BC SWAP2 POP SWAP2 POP SWAP1 SWAP2 JUMP JUMPDEST PUSH0 DUP2 MLOAD SWAP1 POP SWAP2 SWAP1 POP JUMP JUMPDEST PUSH0 DUP3 DUP3 MSTORE PUSH1 0x20 DUP3 ADD SWAP1 POP SWAP3 SWAP2 POP POP JUMP JUMPDEST PUSH0 DUP2 SWAP1 POP PUSH1 0x20 DUP3 ADD SWAP1 POP SWAP2 SWAP1 POP JUMP JUMPDEST PUSH0 DUP2 SWAP1 POP SWAP2 SWAP1 POP JUMP JUMPDEST PUSH2 0x135 DUP2 PUSH2 0x123 JUMP JUMPDEST DUP3 MSTORE POP POP JUMP JUMPDEST PUSH0 PUSH2 0x146 DUP4 DUP4 PUSH2 0x12C JUMP JUMPDEST PUSH1 0x20 DUP4 ADD SWAP1 POP SWAP3 SWAP2 POP POP JUMP JUMPDEST PUSH0 PUSH1 0x20 DUP3 ADD SWAP1 POP SWAP2 SWAP1 POP JUMP JUMPDEST PUSH0 PUSH2 0x168 DUP3 PUSH2 0xFA JUMP JUMPDEST PUSH2 0x172 DUP2 DUP6 PUSH2 0x104 JUMP JUMPDEST SWAP4 POP PUSH2 0x17D DUP4 PUSH2 0x114 JUMP JUMPDEST DUP1 PUSH0 JUMPDEST DUP4 DUP2 LT ISZERO PUSH2 0x1AD JUMPI DUP2 MLOAD PUSH2 0x194 DUP9 DUP3 PUSH2 0x13B JUMP JUMPDEST SWAP8 POP PUSH2 0x19F DUP4 PUSH2 0x152 JUMP JUMPDEST SWAP3 POP POP PUSH1 0x1 DUP2 ADD SWAP1 POP PUSH2 0x180 JUMP JUMPDEST POP DUP6 SWAP4 POP POP POP POP SWAP3 SWAP2 POP POP JUMP JUMPDEST PUSH0 PUSH1 0x20 DUP3 ADD SWAP1 POP DUP2 DUP2 SUB PUSH0 DUP4 ADD MSTORE PUSH2 0x1D2 DUP2 DUP5 PUSH2 0x15E JUMP JUMPDEST SWAP1 POP SWAP3 SWAP2 POP POP JUMP JUMPDEST PUSH2 0x1E3 DUP2 PUSH2 0x123 JUMP JUMPDEST DUP3 MSTORE POP POP JUMP JUMPDEST PUSH0 PUSH1 0x40 DUP3 ADD SWAP1 POP PUSH2 0x1FC PUSH0 DUP4 ADD DUP6 PUSH2 0x1DA JUMP JUMPDEST PUSH2 0x209 PUSH1 0x20 DUP4 ADD DUP5 PUSH2 0x1DA JUMP JUMPDEST SWAP4 SWAP3 POP POP POP JUMP INVALID LOG2 PUSH5 0x6970667358 0x22 SLT KECCAK256 LOG4 DUP2 DUP4 0x4F 0xCC 0xB2 SWAP16 REVERT ISZERO PUSH29 0x10487B1DCFEC335C1E503DD333A5763902B77F8B4D5264736F6C634300 ADDMOD BYTE STOP CALLER "
				},
				"gasEstimates": {
					"creation": {
						"codeDepositCost": "116400",
						"executionCost": "163",
						"totalCost": "116563"
					},
					"external": {
						"test_return()": "214",
						"test_return_dyn_arr()": "216",
						"test_return_vals()": "172"
					}
				},
				"methodIdentifiers": {
					"test_return()": "df9f5ccb",
					"test_return_dyn_arr()": "91cd41c2",
					"test_return_vals()": "d0825a4d"
				}
			},
			"storageLayout": {
				"storage": [],
				"types": null
			},
			"userdoc": {
				"kind": "user",
				"methods": {},
				"version": 1
			}
		}
	}
}