{
	"EVMMemoryLayout.sol": {
		"MemInternalFuncReturn": {
			"abi": [
				{
					"inputs": [],
					"name": "test_mem",
					"outputs": [
						{
							"internalType": "uint256",
							"name": "len",
							"type": "uint256"
						},
						{
							"internalType": "bytes32",
							"name": "a0",
							"type": "bytes32"
						},
						{
							"internalType": "bytes32",
							"name": "a1",
							"type": "bytes32"
						},
						{
							"internalType": "bytes32",
							"name": "a2",
							"type": "bytes32"
						}
					],
					"stateMutability": "pure",
					"type": "function"
				},
				{
					"inputs": [],
					"name": "test_val",
					"outputs": [],
					"stateMutability": "pure",
					"type": "function"
				}
			],
			"devdoc": {
				"kind": "dev",
				"methods": {},
				"version": 1
			},
			"evm": {
				"assembly": "    /* \"EVMMemoryLayout.sol\":5646:6779  contract MemInternalFuncReturn {... */\n  mstore(0x40, 0x80)\n  callvalue\n  dup1\n  iszero\n  tag_1\n  jumpi\n  0x00\n  dup1\n  revert\ntag_1:\n  pop\n  dataSize(sub_0)\n  dup1\n  dataOffset(sub_0)\n  0x00\n  codecopy\n  0x00\n  return\nstop\n\nsub_0: assembly {\n        /* \"EVMMemoryLayout.sol\":5646:6779  contract MemInternalFuncReturn {... */\n      mstore(0x40, 0x80)\n      callvalue\n      dup1\n      iszero\n      tag_1\n      jumpi\n      0x00\n      dup1\n      revert\n    tag_1:\n      pop\n      jumpi(tag_2, lt(calldatasize, 0x04))\n      shr(0xe0, calldataload(0x00))\n      dup1\n      0x41b01ba0\n      eq\n      tag_3\n      jumpi\n      dup1\n      0xae8cb796\n      eq\n      tag_4\n      jumpi\n    tag_2:\n      0x00\n      dup1\n      revert\n        /* \"EVMMemoryLayout.sol\":5802:5935  function test_val() public pure {... */\n    tag_3:\n      tag_5\n      tag_6\n      jump\t// in\n    tag_5:\n      stop\n        /* \"EVMMemoryLayout.sol\":6267:6776  function test_mem()... */\n    tag_4:\n      tag_7\n      tag_8\n      jump\t// in\n    tag_7:\n      mload(0x40)\n      tag_9\n      swap5\n      swap4\n      swap3\n      swap2\n      swap1\n      tag_10\n      jump\t// in\n    tag_9:\n      mload(0x40)\n      dup1\n      swap2\n      sub\n      swap1\n      return\n        /* \"EVMMemoryLayout.sol\":5802:5935  function test_val() public pure {... */\n    tag_6:\n        /* \"EVMMemoryLayout.sol\":5901:5927  internal_func_return_val() */\n      tag_12\n        /* \"EVMMemoryLayout.sol\":5901:5925  internal_func_return_val */\n      tag_13\n        /* \"EVMMemoryLayout.sol\":5901:5927  internal_func_return_val() */\n      jump\t// in\n    tag_12:\n      pop\n        /* \"EVMMemoryLayout.sol\":5802:5935  function test_val() public pure {... */\n      jump\t// out\n        /* \"EVMMemoryLayout.sol\":6267:6776  function test_mem()... */\n    tag_8:\n        /* \"EVMMemoryLayout.sol\":6335:6346  uint256 len */\n      0x00\n        /* \"EVMMemoryLayout.sol\":6348:6358  bytes32 a0 */\n      dup1\n        /* \"EVMMemoryLayout.sol\":6360:6370  bytes32 a1 */\n      0x00\n        /* \"EVMMemoryLayout.sol\":6372:6382  bytes32 a2 */\n      dup1\n        /* \"EVMMemoryLayout.sol\":6498:6524  internal_func_return_mem() */\n      tag_15\n        /* \"EVMMemoryLayout.sol\":6498:6522  internal_func_return_mem */\n      tag_16\n        /* \"EVMMemoryLayout.sol\":6498:6524  internal_func_return_mem() */\n      jump\t// in\n    tag_15:\n      pop\n        /* \"EVMMemoryLayout.sol\":6660:6664  0x80 */\n      0x80\n        /* \"EVMMemoryLayout.sol\":6654:6665  mload(0x80) */\n      mload\n        /* \"EVMMemoryLayout.sol\":6647:6665  len := mload(0x80) */\n      swap4\n      pop\n        /* \"EVMMemoryLayout.sol\":6691:6695  0xa0 */\n      0xa0\n        /* \"EVMMemoryLayout.sol\":6685:6696  mload(0xa0) */\n      mload\n        /* \"EVMMemoryLayout.sol\":6679:6696  a0 := mload(0xa0) */\n      swap3\n      pop\n        /* \"EVMMemoryLayout.sol\":6722:6726  0xc0 */\n      0xc0\n        /* \"EVMMemoryLayout.sol\":6716:6727  mload(0xc0) */\n      mload\n        /* \"EVMMemoryLayout.sol\":6710:6727  a1 := mload(0xc0) */\n      swap2\n      pop\n        /* \"EVMMemoryLayout.sol\":6753:6757  0xe0 */\n      0xe0\n        /* \"EVMMemoryLayout.sol\":6747:6758  mload(0xe0) */\n      mload\n        /* \"EVMMemoryLayout.sol\":6741:6758  a2 := mload(0xe0) */\n      swap1\n      pop\n        /* \"EVMMemoryLayout.sol\":6267:6776  function test_mem()... */\n      swap1\n      swap2\n      swap3\n      swap4\n      jump\t// out\n        /* \"EVMMemoryLayout.sol\":5684:5794  function internal_func_return_val() private pure returns (uint256) {... */\n    tag_13:\n        /* \"EVMMemoryLayout.sol\":5742:5749  uint256 */\n      0x00\n        /* \"EVMMemoryLayout.sol\":5777:5785  0xababab */\n      0xababab\n        /* \"EVMMemoryLayout.sol\":5762:5786  return uint256(0xababab) */\n      swap1\n      pop\n        /* \"EVMMemoryLayout.sol\":5684:5794  function internal_func_return_val() private pure returns (uint256) {... */\n      swap1\n      jump\t// out\n        /* \"EVMMemoryLayout.sol\":5943:6259  function internal_func_return_mem()... */\n    tag_16:\n        /* \"EVMMemoryLayout.sol\":6028:6044  bytes32[] memory */\n      0x60\n        /* \"EVMMemoryLayout.sol\":6062:6082  bytes32[] memory arr */\n      0x00\n        /* \"EVMMemoryLayout.sol\":6099:6100  3 */\n      0x03\n        /* \"EVMMemoryLayout.sol\":6085:6101  new bytes32[](3) */\n      0xffffffffffffffff\n      dup2\n      gt\n      iszero\n      tag_19\n      jumpi\n      tag_20\n      tag_21\n      jump\t// in\n    tag_20:\n    tag_19:\n      mload(0x40)\n      swap1\n      dup1\n      dup3\n      mstore\n      dup1\n      0x20\n      mul\n      0x20\n      add\n      dup3\n      add\n      0x40\n      mstore\n      dup1\n      iszero\n      tag_22\n      jumpi\n      dup2\n      0x20\n      add\n      0x20\n      dup3\n      mul\n      dup1\n      calldatasize\n      dup4\n      calldatacopy\n      dup1\n      dup3\n      add\n      swap2\n      pop\n      pop\n      swap1\n      pop\n    tag_22:\n      pop\n        /* \"EVMMemoryLayout.sol\":6062:6101  bytes32[] memory arr = new bytes32[](3) */\n      swap1\n      pop\n        /* \"EVMMemoryLayout.sol\":6137:6142  0xaaa */\n      0x0aaa\n        /* \"EVMMemoryLayout.sol\":6121:6144  bytes32(uint256(0xaaa)) */\n      0x00\n      shl\n        /* \"EVMMemoryLayout.sol\":6112:6115  arr */\n      dup2\n        /* \"EVMMemoryLayout.sol\":6116:6117  0 */\n      0x00\n        /* \"EVMMemoryLayout.sol\":6112:6118  arr[0] */\n      dup2\n      mload\n      dup2\n      lt\n      tag_23\n      jumpi\n      tag_24\n      tag_25\n      jump\t// in\n    tag_24:\n    tag_23:\n      0x20\n      mul\n      0x20\n      add\n      add\n        /* \"EVMMemoryLayout.sol\":6112:6144  arr[0] = bytes32(uint256(0xaaa)) */\n      dup2\n      dup2\n      mstore\n      pop\n      pop\n        /* \"EVMMemoryLayout.sol\":6180:6185  0xbbb */\n      0x0bbb\n        /* \"EVMMemoryLayout.sol\":6164:6187  bytes32(uint256(0xbbb)) */\n      0x00\n      shl\n        /* \"EVMMemoryLayout.sol\":6155:6158  arr */\n      dup2\n        /* \"EVMMemoryLayout.sol\":6159:6160  1 */\n      0x01\n        /* \"EVMMemoryLayout.sol\":6155:6161  arr[1] */\n      dup2\n      mload\n      dup2\n      lt\n      tag_26\n      jumpi\n      tag_27\n      tag_25\n      jump\t// in\n    tag_27:\n    tag_26:\n      0x20\n      mul\n      0x20\n      add\n      add\n        /* \"EVMMemoryLayout.sol\":6155:6187  arr[1] = bytes32(uint256(0xbbb)) */\n      dup2\n      dup2\n      mstore\n      pop\n      pop\n        /* \"EVMMemoryLayout.sol\":6223:6228  0xccc */\n      0x0ccc\n        /* \"EVMMemoryLayout.sol\":6207:6230  bytes32(uint256(0xccc)) */\n      0x00\n      shl\n        /* \"EVMMemoryLayout.sol\":6198:6201  arr */\n      dup2\n        /* \"EVMMemoryLayout.sol\":6202:6203  2 */\n      0x02\n        /* \"EVMMemoryLayout.sol\":6198:6204  arr[2] */\n      dup2\n      mload\n      dup2\n      lt\n      tag_28\n      jumpi\n      tag_29\n      tag_25\n      jump\t// in\n    tag_29:\n    tag_28:\n      0x20\n      mul\n      0x20\n      add\n      add\n        /* \"EVMMemoryLayout.sol\":6198:6230  arr[2] = bytes32(uint256(0xccc)) */\n      dup2\n      dup2\n      mstore\n      pop\n      pop\n        /* \"EVMMemoryLayout.sol\":6248:6251  arr */\n      dup1\n        /* \"EVMMemoryLayout.sol\":6241:6251  return arr */\n      swap2\n      pop\n      pop\n        /* \"EVMMemoryLayout.sol\":5943:6259  function internal_func_return_mem()... */\n      swap1\n      jump\t// out\n        /* \"#utility.yul\":7:84   */\n    tag_30:\n        /* \"#utility.yul\":44:51   */\n      0x00\n        /* \"#utility.yul\":73:78   */\n      dup2\n        /* \"#utility.yul\":62:78   */\n      swap1\n      pop\n        /* \"#utility.yul\":7:84   */\n      swap2\n      swap1\n      pop\n      jump\t// out\n        /* \"#utility.yul\":90:208   */\n    tag_31:\n        /* \"#utility.yul\":177:201   */\n      tag_37\n        /* \"#utility.yul\":195:200   */\n      dup2\n        /* \"#utility.yul\":177:201   */\n      tag_30\n      jump\t// in\n    tag_37:\n        /* \"#utility.yul\":172:175   */\n      dup3\n        /* \"#utility.yul\":165:202   */\n      mstore\n        /* \"#utility.yul\":90:208   */\n      pop\n      pop\n      jump\t// out\n        /* \"#utility.yul\":214:291   */\n    tag_32:\n        /* \"#utility.yul\":251:258   */\n      0x00\n        /* \"#utility.yul\":280:285   */\n      dup2\n        /* \"#utility.yul\":269:285   */\n      swap1\n      pop\n        /* \"#utility.yul\":214:291   */\n      swap2\n      swap1\n      pop\n      jump\t// out\n        /* \"#utility.yul\":297:415   */\n    tag_33:\n        /* \"#utility.yul\":384:408   */\n      tag_40\n        /* \"#utility.yul\":402:407   */\n      dup2\n        /* \"#utility.yul\":384:408   */\n      tag_32\n      jump\t// in\n    tag_40:\n        /* \"#utility.yul\":379:382   */\n      dup3\n        /* \"#utility.yul\":372:409   */\n      mstore\n        /* \"#utility.yul\":297:415   */\n      pop\n      pop\n      jump\t// out\n        /* \"#utility.yul\":421:974   */\n    tag_10:\n        /* \"#utility.yul\":598:602   */\n      0x00\n        /* \"#utility.yul\":636:639   */\n      0x80\n        /* \"#utility.yul\":625:634   */\n      dup3\n        /* \"#utility.yul\":621:640   */\n      add\n        /* \"#utility.yul\":613:640   */\n      swap1\n      pop\n        /* \"#utility.yul\":650:721   */\n      tag_42\n        /* \"#utility.yul\":718:719   */\n      0x00\n        /* \"#utility.yul\":707:716   */\n      dup4\n        /* \"#utility.yul\":703:720   */\n      add\n        /* \"#utility.yul\":694:700   */\n      dup8\n        /* \"#utility.yul\":650:721   */\n      tag_31\n      jump\t// in\n    tag_42:\n        /* \"#utility.yul\":731:803   */\n      tag_43\n        /* \"#utility.yul\":799:801   */\n      0x20\n        /* \"#utility.yul\":788:797   */\n      dup4\n        /* \"#utility.yul\":784:802   */\n      add\n        /* \"#utility.yul\":775:781   */\n      dup7\n        /* \"#utility.yul\":731:803   */\n      tag_33\n      jump\t// in\n    tag_43:\n        /* \"#utility.yul\":813:885   */\n      tag_44\n        /* \"#utility.yul\":881:883   */\n      0x40\n        /* \"#utility.yul\":870:879   */\n      dup4\n        /* \"#utility.yul\":866:884   */\n      add\n        /* \"#utility.yul\":857:863   */\n      dup6\n        /* \"#utility.yul\":813:885   */\n      tag_33\n      jump\t// in\n    tag_44:\n        /* \"#utility.yul\":895:967   */\n      tag_45\n        /* \"#utility.yul\":963:965   */\n      0x60\n        /* \"#utility.yul\":952:961   */\n      dup4\n        /* \"#utility.yul\":948:966   */\n      add\n        /* \"#utility.yul\":939:945   */\n      dup5\n        /* \"#utility.yul\":895:967   */\n      tag_33\n      jump\t// in\n    tag_45:\n        /* \"#utility.yul\":421:974   */\n      swap6\n      swap5\n      pop\n      pop\n      pop\n      pop\n      pop\n      jump\t// out\n        /* \"#utility.yul\":980:1160   */\n    tag_21:\n        /* \"#utility.yul\":1028:1105   */\n      0x4e487b7100000000000000000000000000000000000000000000000000000000\n        /* \"#utility.yul\":1025:1026   */\n      0x00\n        /* \"#utility.yul\":1018:1106   */\n      mstore\n        /* \"#utility.yul\":1125:1129   */\n      0x41\n        /* \"#utility.yul\":1122:1123   */\n      0x04\n        /* \"#utility.yul\":1115:1130   */\n      mstore\n        /* \"#utility.yul\":1149:1153   */\n      0x24\n        /* \"#utility.yul\":1146:1147   */\n      0x00\n        /* \"#utility.yul\":1139:1154   */\n      revert\n        /* \"#utility.yul\":1166:1346   */\n    tag_25:\n        /* \"#utility.yul\":1214:1291   */\n      0x4e487b7100000000000000000000000000000000000000000000000000000000\n        /* \"#utility.yul\":1211:1212   */\n      0x00\n        /* \"#utility.yul\":1204:1292   */\n      mstore\n        /* \"#utility.yul\":1311:1315   */\n      0x32\n        /* \"#utility.yul\":1308:1309   */\n      0x04\n        /* \"#utility.yul\":1301:1316   */\n      mstore\n        /* \"#utility.yul\":1335:1339   */\n      0x24\n        /* \"#utility.yul\":1332:1333   */\n      0x00\n        /* \"#utility.yul\":1325:1340   */\n      revert\n\n    auxdata: 0xa2646970667358221220d96a353834b686c44ac110e8525b9f407581dc364b78ab18ad1085dc446b0f2464736f6c634300081a0033\n}\n",
				"bytecode": {
					"linkReferences": {},
					"object": "6080604052348015600e575f80fd5b506102668061001c5f395ff3fe608060405234801561000f575f80fd5b5060043610610034575f3560e01c806341b01ba014610038578063ae8cb79614610042575b5f80fd5b610040610063565b005b61004a61006e565b60405161005a9493929190610193565b60405180910390f35b61006b610095565b50565b5f805f8061007a61009f565b50608051935060a051925060c051915060e051905090919293565b5f62ababab905090565b60605f600367ffffffffffffffff8111156100bd576100bc6101d6565b5b6040519080825280602002602001820160405280156100eb5781602001602082028036833780820191505090505b509050610aaa5f1b815f8151811061010657610105610203565b5b602002602001018181525050610bbb5f1b8160018151811061012b5761012a610203565b5b602002602001018181525050610ccc5f1b816002815181106101505761014f610203565b5b6020026020010181815250508091505090565b5f819050919050565b61017581610163565b82525050565b5f819050919050565b61018d8161017b565b82525050565b5f6080820190506101a65f83018761016c565b6101b36020830186610184565b6101c06040830185610184565b6101cd6060830184610184565b95945050505050565b7f4e487b71000000000000000000000000000000000000000000000000000000005f52604160045260245ffd5b7f4e487b71000000000000000000000000000000000000000000000000000000005f52603260045260245ffdfea2646970667358221220d96a353834b686c44ac110e8525b9f407581dc364b78ab18ad1085dc446b0f2464736f6c634300081a0033",
					"opcodes": "PUSH1 0x80 PUSH1 0x40 MSTORE CALLVALUE DUP1 ISZERO PUSH1 0xE JUMPI PUSH0 DUP1 REVERT JUMPDEST POP PUSH2 0x266 DUP1 PUSH2 0x1C PUSH0 CODECOPY PUSH0 RETURN INVALID PUSH1 0x80 PUSH1 0x40 MSTORE CALLVALUE DUP1 ISZERO PUSH2 0xF JUMPI PUSH0 DUP1 REVERT JUMPDEST POP PUSH1 0x4 CALLDATASIZE LT PUSH2 0x34 JUMPI PUSH0 CALLDATALOAD PUSH1 0xE0 SHR DUP1 PUSH4 0x41B01BA0 EQ PUSH2 0x38 JUMPI DUP1 PUSH4 0xAE8CB796 EQ PUSH2 0x42 JUMPI JUMPDEST PUSH0 DUP1 REVERT JUMPDEST PUSH2 0x40 PUSH2 0x63 JUMP JUMPDEST STOP JUMPDEST PUSH2 0x4A PUSH2 0x6E JUMP JUMPDEST PUSH1 0x40 MLOAD PUSH2 0x5A SWAP5 SWAP4 SWAP3 SWAP2 SWAP1 PUSH2 0x193 JUMP JUMPDEST PUSH1 0x40 MLOAD DUP1 SWAP2 SUB SWAP1 RETURN JUMPDEST PUSH2 0x6B PUSH2 0x95 JUMP JUMPDEST POP JUMP JUMPDEST PUSH0 DUP1 PUSH0 DUP1 PUSH2 0x7A PUSH2 0x9F JUMP JUMPDEST POP PUSH1 0x80 MLOAD SWAP4 POP PUSH1 0xA0 MLOAD SWAP3 POP PUSH1 0xC0 MLOAD SWAP2 POP PUSH1 0xE0 MLOAD SWAP1 POP SWAP1 SWAP2 SWAP3 SWAP4 JUMP JUMPDEST PUSH0 PUSH3 0xABABAB SWAP1 POP SWAP1 JUMP JUMPDEST PUSH1 0x60 PUSH0 PUSH1 0x3 PUSH8 0xFFFFFFFFFFFFFFFF DUP2 GT ISZERO PUSH2 0xBD JUMPI PUSH2 0xBC PUSH2 0x1D6 JUMP JUMPDEST JUMPDEST PUSH1 0x40 MLOAD SWAP1 DUP1 DUP3 MSTORE DUP1 PUSH1 0x20 MUL PUSH1 0x20 ADD DUP3 ADD PUSH1 0x40 MSTORE DUP1 ISZERO PUSH2 0xEB JUMPI DUP2 PUSH1 0x20 ADD PUSH1 0x20 DUP3 MUL DUP1 CALLDATASIZE DUP4 CALLDATACOPY DUP1 DUP3 ADD SWAP2 POP POP SWAP1 POP JUMPDEST POP SWAP1 POP PUSH2 0xAAA PUSH0 SHL DUP2 PUSH0 DUP2 MLOAD DUP2 LT PUSH2 0x106 JUMPI PUSH2 0x105 PUSH2 0x203 JUMP JUMPDEST JUMPDEST PUSH1 0x20 MUL PUSH1 0x20 ADD ADD DUP2 DUP2 MSTORE POP POP PUSH2 0xBBB PUSH0 SHL DUP2 PUSH1 0x1 DUP2 MLOAD DUP2 LT PUSH2 0x12B JUMPI PUSH2 0x12A PUSH2 0x203 JUMP JUMPDEST JUMPDEST PUSH1 0x20 MUL PUSH1 0x20 ADD ADD DUP2 DUP2 MSTORE POP POP PUSH2 0xCCC PUSH0 SHL DUP2 PUSH1 0x2 DUP2 MLOAD DUP2 LT PUSH2 0x150 JUMPI PUSH2 0x14F PUSH2 0x203 JUMP JUMPDEST JUMPDEST PUSH1 0x20 MUL PUSH1 0x20 ADD ADD DUP2 DUP2 MSTORE POP POP DUP1 SWAP2 POP POP SWAP1 JUMP JUMPDEST PUSH0 DUP2 SWAP1 POP SWAP2 SWAP1 POP JUMP JUMPDEST PUSH2 0x175 DUP2 PUSH2 0x163 JUMP JUMPDEST DUP3 MSTORE POP POP JUMP JUMPDEST PUSH0 DUP2 SWAP1 POP SWAP2 SWAP1 POP JUMP JUMPDEST PUSH2 0x18D DUP2 PUSH2 0x17B JUMP JUMPDEST DUP3 MSTORE POP POP JUMP JUMPDEST PUSH0 PUSH1 0x80 DUP3 ADD SWAP1 POP PUSH2 0x1A6 PUSH0 DUP4 ADD DUP8 PUSH2 0x16C JUMP JUMPDEST PUSH2 0x1B3 PUSH1 0x20 DUP4 ADD DUP7 PUSH2 0x184 JUMP JUMPDEST PUSH2 0x1C0 PUSH1 0x40 DUP4 ADD DUP6 PUSH2 0x184 JUMP JUMPDEST PUSH2 0x1CD PUSH1 0x60 DUP4 ADD DUP5 PUSH2 0x184 JUMP JUMPDEST SWAP6 SWAP5 POP POP POP POP POP JUMP JUMPDEST PUSH32 0x4E487B7100000000000000000000000000000000000000000000000000000000 PUSH0 MSTORE PUSH1 0x41 PUSH1 0x4 MSTORE PUSH1 0x24 PUSH0 REVERT JUMPDEST PUSH32 0x4E487B7100000000000000000000000000000000000000000000000000000000 PUSH0 MSTORE PUSH1 0x32 PUSH1 0x4 MSTORE PUSH1 0x24 PUSH0 REVERT INVALID LOG2 PUSH5 0x6970667358 0x22 SLT KECCAK256 0xD9 PUSH11 0x353834B686C44AC110E852 JUMPDEST SWAP16 BLOCKHASH PUSH22 0x81DC364B78AB18AD1085DC446B0F2464736F6C634300 ADDMOD BYTE STOP CALLER "
				},
				"gasEstimates": {
					"creation": {
						"codeDepositCost": "122800",
						"executionCost": "169",
						"totalCost": "122969"
					},
					"external": {
						"test_mem()": "infinite",
						"test_val()": "160"
					},
					"internal": {
						"internal_func_return_mem()": "infinite",
						"internal_func_return_val()": "22"
					}
				},
				"methodIdentifiers": {
					"test_mem()": "ae8cb796",
					"test_val()": "41b01ba0"
				}
			},
			"storageLayout": {
				"storage": [],
				"types": null
			},
			"userdoc": {
				"kind": "user",
				"methods": {},
				"version": 1
			}
		}
	}
}