{
	"UncheckedMath.sol": {
		"UncheckedMath": {
			"abi": [
				{
					"inputs": [
						{
							"internalType": "uint256",
							"name": "x",
							"type": "uint256"
						},
						{
							"internalType": "uint256",
							"name": "y",
							"type": "uint256"
						}
					],
					"name": "add",
					"outputs": [
						{
							"internalType": "uint256",
							"name": "",
							"type": "uint256"
						}
					],
					"stateMutability": "pure",
					"type": "function"
				},
				{
					"inputs": [
						{
							"internalType": "uint256",
							"name": "x",
							"type": "uint256"
						},
						{
							"internalType": "uint256",
							"name": "y",
							"type": "uint256"
						}
					],
					"name": "sub",
					"outputs": [
						{
							"internalType": "uint256",
							"name": "",
							"type": "uint256"
						}
					],
					"stateMutability": "pure",
					"type": "function"
				},
				{
					"inputs": [
						{
							"internalType": "uint256",
							"name": "x",
							"type": "uint256"
						},
						{
							"internalType": "uint256",
							"name": "y",
							"type": "uint256"
						}
					],
					"name": "sumOfCubes",
					"outputs": [
						{
							"internalType": "uint256",
							"name": "",
							"type": "uint256"
						}
					],
					"stateMutability": "pure",
					"type": "function"
				}
			],
			"devdoc": {
				"kind": "dev",
				"methods": {},
				"version": 1
			},
			"evm": {
				"assembly": "    /* \"UncheckedMath.sol\":228:961  contract UncheckedMath {... */\n  mstore(0x40, 0x80)\n  callvalue\n  dup1\n  iszero\n  tag_1\n  jumpi\n  0x00\n  dup1\n  revert\ntag_1:\n  pop\n  dataSize(sub_0)\n  dup1\n  dataOffset(sub_0)\n  0x00\n  codecopy\n  0x00\n  return\nstop\n\nsub_0: assembly {\n        /* \"UncheckedMath.sol\":228:961  contract UncheckedMath {... */\n      mstore(0x40, 0x80)\n      callvalue\n      dup1\n      iszero\n      tag_1\n      jumpi\n      0x00\n      dup1\n      revert\n    tag_1:\n      pop\n      jumpi(tag_2, lt(calldatasize, 0x04))\n      shr(0xe0, calldataload(0x00))\n      dup1\n      0x771602f7\n      eq\n      tag_3\n      jumpi\n      dup1\n      0xa2138e67\n      eq\n      tag_4\n      jumpi\n      dup1\n      0xb67d77c5\n      eq\n      tag_5\n      jumpi\n    tag_2:\n      0x00\n      dup1\n      revert\n        /* \"UncheckedMath.sol\":258:464  function add(uint256 x, uint256 y) external pure returns (uint256) {... */\n    tag_3:\n      tag_6\n      0x04\n      dup1\n      calldatasize\n      sub\n      dup2\n      add\n      swap1\n      tag_7\n      swap2\n      swap1\n      tag_8\n      jump\t// in\n    tag_7:\n      tag_9\n      jump\t// in\n    tag_6:\n      mload(0x40)\n      tag_10\n      swap2\n      swap1\n      tag_11\n      jump\t// in\n    tag_10:\n      mload(0x40)\n      dup1\n      swap2\n      sub\n      swap1\n      return\n        /* \"UncheckedMath.sol\":686:958  function sumOfCubes(uint256 x, uint256 y) external pure returns (uint256) {... */\n    tag_4:\n      tag_12\n      0x04\n      dup1\n      calldatasize\n      sub\n      dup2\n      add\n      swap1\n      tag_13\n      swap2\n      swap1\n      tag_8\n      jump\t// in\n    tag_13:\n      tag_14\n      jump\t// in\n    tag_12:\n      mload(0x40)\n      tag_15\n      swap2\n      swap1\n      tag_11\n      jump\t// in\n    tag_15:\n      mload(0x40)\n      dup1\n      swap2\n      sub\n      swap1\n      return\n        /* \"UncheckedMath.sol\":472:678  function sub(uint256 x, uint256 y) external pure returns (uint256) {... */\n    tag_5:\n      tag_16\n      0x04\n      dup1\n      calldatasize\n      sub\n      dup2\n      add\n      swap1\n      tag_17\n      swap2\n      swap1\n      tag_8\n      jump\t// in\n    tag_17:\n      tag_18\n      jump\t// in\n    tag_16:\n      mload(0x40)\n      tag_19\n      swap2\n      swap1\n      tag_11\n      jump\t// in\n    tag_19:\n      mload(0x40)\n      dup1\n      swap2\n      sub\n      swap1\n      return\n        /* \"UncheckedMath.sol\":258:464  function add(uint256 x, uint256 y) external pure returns (uint256) {... */\n    tag_9:\n        /* \"UncheckedMath.sol\":316:323  uint256 */\n      0x00\n        /* \"UncheckedMath.sol\":444:445  y */\n      dup2\n        /* \"UncheckedMath.sol\":440:441  x */\n      dup4\n        /* \"UncheckedMath.sol\":440:445  x + y */\n      add\n        /* \"UncheckedMath.sol\":433:445  return x + y */\n      swap1\n      pop\n        /* \"UncheckedMath.sol\":258:464  function add(uint256 x, uint256 y) external pure returns (uint256) {... */\n      swap3\n      swap2\n      pop\n      pop\n      jump\t// out\n        /* \"UncheckedMath.sol\":686:958  function sumOfCubes(uint256 x, uint256 y) external pure returns (uint256) {... */\n    tag_14:\n        /* \"UncheckedMath.sol\":751:758  uint256 */\n      0x00\n        /* \"UncheckedMath.sol\":849:859  uint256 x3 */\n      dup1\n        /* \"UncheckedMath.sol\":870:871  x */\n      dup4\n        /* \"UncheckedMath.sol\":866:867  x */\n      dup5\n        /* \"UncheckedMath.sol\":862:863  x */\n      dup6\n        /* \"UncheckedMath.sol\":862:867  x * x */\n      mul\n        /* \"UncheckedMath.sol\":862:871  x * x * x */\n      mul\n        /* \"UncheckedMath.sol\":849:871  uint256 x3 = x * x * x */\n      swap1\n      pop\n        /* \"UncheckedMath.sol\":886:896  uint256 y3 */\n      0x00\n        /* \"UncheckedMath.sol\":907:908  y */\n      dup4\n        /* \"UncheckedMath.sol\":903:904  y */\n      dup5\n        /* \"UncheckedMath.sol\":899:900  y */\n      dup6\n        /* \"UncheckedMath.sol\":899:904  y * y */\n      mul\n        /* \"UncheckedMath.sol\":899:908  y * y * y */\n      mul\n        /* \"UncheckedMath.sol\":886:908  uint256 y3 = y * y * y */\n      swap1\n      pop\n        /* \"UncheckedMath.sol\":937:939  y3 */\n      dup1\n        /* \"UncheckedMath.sol\":932:934  x3 */\n      dup3\n        /* \"UncheckedMath.sol\":932:939  x3 + y3 */\n      add\n        /* \"UncheckedMath.sol\":925:939  return x3 + y3 */\n      swap3\n      pop\n      pop\n      pop\n        /* \"UncheckedMath.sol\":686:958  function sumOfCubes(uint256 x, uint256 y) external pure returns (uint256) {... */\n      swap3\n      swap2\n      pop\n      pop\n      jump\t// out\n        /* \"UncheckedMath.sol\":472:678  function sub(uint256 x, uint256 y) external pure returns (uint256) {... */\n    tag_18:\n        /* \"UncheckedMath.sol\":530:537  uint256 */\n      0x00\n        /* \"UncheckedMath.sol\":658:659  y */\n      dup2\n        /* \"UncheckedMath.sol\":654:655  x */\n      dup4\n        /* \"UncheckedMath.sol\":654:659  x - y */\n      sub\n        /* \"UncheckedMath.sol\":647:659  return x - y */\n      swap1\n      pop\n        /* \"UncheckedMath.sol\":472:678  function sub(uint256 x, uint256 y) external pure returns (uint256) {... */\n      swap3\n      swap2\n      pop\n      pop\n      jump\t// out\n        /* \"#utility.yul\":88:205   */\n    tag_24:\n        /* \"#utility.yul\":197:198   */\n      0x00\n        /* \"#utility.yul\":194:195   */\n      dup1\n        /* \"#utility.yul\":187:199   */\n      revert\n        /* \"#utility.yul\":334:411   */\n    tag_26:\n        /* \"#utility.yul\":371:378   */\n      0x00\n        /* \"#utility.yul\":400:405   */\n      dup2\n        /* \"#utility.yul\":389:405   */\n      swap1\n      pop\n        /* \"#utility.yul\":334:411   */\n      swap2\n      swap1\n      pop\n      jump\t// out\n        /* \"#utility.yul\":417:539   */\n    tag_27:\n        /* \"#utility.yul\":490:514   */\n      tag_36\n        /* \"#utility.yul\":508:513   */\n      dup2\n        /* \"#utility.yul\":490:514   */\n      tag_26\n      jump\t// in\n    tag_36:\n        /* \"#utility.yul\":483:488   */\n      dup2\n        /* \"#utility.yul\":480:515   */\n      eq\n        /* \"#utility.yul\":470:533   */\n      tag_37\n      jumpi\n        /* \"#utility.yul\":529:530   */\n      0x00\n        /* \"#utility.yul\":526:527   */\n      dup1\n        /* \"#utility.yul\":519:531   */\n      revert\n        /* \"#utility.yul\":470:533   */\n    tag_37:\n        /* \"#utility.yul\":417:539   */\n      pop\n      jump\t// out\n        /* \"#utility.yul\":545:684   */\n    tag_28:\n        /* \"#utility.yul\":591:596   */\n      0x00\n        /* \"#utility.yul\":629:635   */\n      dup2\n        /* \"#utility.yul\":616:636   */\n      calldataload\n        /* \"#utility.yul\":607:636   */\n      swap1\n      pop\n        /* \"#utility.yul\":645:678   */\n      tag_39\n        /* \"#utility.yul\":672:677   */\n      dup2\n        /* \"#utility.yul\":645:678   */\n      tag_27\n      jump\t// in\n    tag_39:\n        /* \"#utility.yul\":545:684   */\n      swap3\n      swap2\n      pop\n      pop\n      jump\t// out\n        /* \"#utility.yul\":690:1164   */\n    tag_8:\n        /* \"#utility.yul\":758:764   */\n      0x00\n        /* \"#utility.yul\":766:772   */\n      dup1\n        /* \"#utility.yul\":815:817   */\n      0x40\n        /* \"#utility.yul\":803:812   */\n      dup4\n        /* \"#utility.yul\":794:801   */\n      dup6\n        /* \"#utility.yul\":790:813   */\n      sub\n        /* \"#utility.yul\":786:818   */\n      slt\n        /* \"#utility.yul\":783:902   */\n      iszero\n      tag_41\n      jumpi\n        /* \"#utility.yul\":821:900   */\n      tag_42\n      tag_24\n      jump\t// in\n    tag_42:\n        /* \"#utility.yul\":783:902   */\n    tag_41:\n        /* \"#utility.yul\":941:942   */\n      0x00\n        /* \"#utility.yul\":966:1019   */\n      tag_43\n        /* \"#utility.yul\":1011:1018   */\n      dup6\n        /* \"#utility.yul\":1002:1008   */\n      dup3\n        /* \"#utility.yul\":991:1000   */\n      dup7\n        /* \"#utility.yul\":987:1009   */\n      add\n        /* \"#utility.yul\":966:1019   */\n      tag_28\n      jump\t// in\n    tag_43:\n        /* \"#utility.yul\":956:1019   */\n      swap3\n      pop\n        /* \"#utility.yul\":912:1029   */\n      pop\n        /* \"#utility.yul\":1068:1070   */\n      0x20\n        /* \"#utility.yul\":1094:1147   */\n      tag_44\n        /* \"#utility.yul\":1139:1146   */\n      dup6\n        /* \"#utility.yul\":1130:1136   */\n      dup3\n        /* \"#utility.yul\":1119:1128   */\n      dup7\n        /* \"#utility.yul\":1115:1137   */\n      add\n        /* \"#utility.yul\":1094:1147   */\n      tag_28\n      jump\t// in\n    tag_44:\n        /* \"#utility.yul\":1084:1147   */\n      swap2\n      pop\n        /* \"#utility.yul\":1039:1157   */\n      pop\n        /* \"#utility.yul\":690:1164   */\n      swap3\n      pop\n      swap3\n      swap1\n      pop\n      jump\t// out\n        /* \"#utility.yul\":1170:1288   */\n    tag_29:\n        /* \"#utility.yul\":1257:1281   */\n      tag_46\n        /* \"#utility.yul\":1275:1280   */\n      dup2\n        /* \"#utility.yul\":1257:1281   */\n      tag_26\n      jump\t// in\n    tag_46:\n        /* \"#utility.yul\":1252:1255   */\n      dup3\n        /* \"#utility.yul\":1245:1282   */\n      mstore\n        /* \"#utility.yul\":1170:1288   */\n      pop\n      pop\n      jump\t// out\n        /* \"#utility.yul\":1294:1516   */\n    tag_11:\n        /* \"#utility.yul\":1387:1391   */\n      0x00\n        /* \"#utility.yul\":1425:1427   */\n      0x20\n        /* \"#utility.yul\":1414:1423   */\n      dup3\n        /* \"#utility.yul\":1410:1428   */\n      add\n        /* \"#utility.yul\":1402:1428   */\n      swap1\n      pop\n        /* \"#utility.yul\":1438:1509   */\n      tag_48\n        /* \"#utility.yul\":1506:1507   */\n      0x00\n        /* \"#utility.yul\":1495:1504   */\n      dup4\n        /* \"#utility.yul\":1491:1508   */\n      add\n        /* \"#utility.yul\":1482:1488   */\n      dup5\n        /* \"#utility.yul\":1438:1509   */\n      tag_29\n      jump\t// in\n    tag_48:\n        /* \"#utility.yul\":1294:1516   */\n      swap3\n      swap2\n      pop\n      pop\n      jump\t// out\n\n    auxdata: 0xa2646970667358221220657ffa07311da362d7d170c34beddfdff95c4e134f5ee7943909155d81604cf264736f6c634300081a0033\n}\n",
				"bytecode": {
					"linkReferences": {},
					"object": "6080604052348015600e575f80fd5b506101dc8061001c5f395ff3fe608060405234801561000f575f80fd5b506004361061003f575f3560e01c8063771602f714610043578063a2138e6714610073578063b67d77c5146100a3575b5f80fd5b61005d60048036038101906100589190610140565b6100d3565b60405161006a919061018d565b60405180910390f35b61008d60048036038101906100889190610140565b6100df565b60405161009a919061018d565b60405180910390f35b6100bd60048036038101906100b89190610140565b6100fd565b6040516100ca919061018d565b60405180910390f35b5f818301905092915050565b5f80838485020290505f838485020290508082019250505092915050565b5f818303905092915050565b5f80fd5b5f819050919050565b61011f8161010d565b8114610129575f80fd5b50565b5f8135905061013a81610116565b92915050565b5f806040838503121561015657610155610109565b5b5f6101638582860161012c565b92505060206101748582860161012c565b9150509250929050565b6101878161010d565b82525050565b5f6020820190506101a05f83018461017e565b9291505056fea2646970667358221220657ffa07311da362d7d170c34beddfdff95c4e134f5ee7943909155d81604cf264736f6c634300081a0033",
					"opcodes": "PUSH1 0x80 PUSH1 0x40 MSTORE CALLVALUE DUP1 ISZERO PUSH1 0xE JUMPI PUSH0 DUP1 REVERT JUMPDEST POP PUSH2 0x1DC DUP1 PUSH2 0x1C PUSH0 CODECOPY PUSH0 RETURN INVALID PUSH1 0x80 PUSH1 0x40 MSTORE CALLVALUE DUP1 ISZERO PUSH2 0xF JUMPI PUSH0 DUP1 REVERT JUMPDEST POP PUSH1 0x4 CALLDATASIZE LT PUSH2 0x3F JUMPI PUSH0 CALLDATALOAD PUSH1 0xE0 SHR DUP1 PUSH4 0x771602F7 EQ PUSH2 0x43 JUMPI DUP1 PUSH4 0xA2138E67 EQ PUSH2 0x73 JUMPI DUP1 PUSH4 0xB67D77C5 EQ PUSH2 0xA3 JUMPI JUMPDEST PUSH0 DUP1 REVERT JUMPDEST PUSH2 0x5D PUSH1 0x4 DUP1 CALLDATASIZE SUB DUP2 ADD SWAP1 PUSH2 0x58 SWAP2 SWAP1 PUSH2 0x140 JUMP JUMPDEST PUSH2 0xD3 JUMP JUMPDEST PUSH1 0x40 MLOAD PUSH2 0x6A SWAP2 SWAP1 PUSH2 0x18D JUMP JUMPDEST PUSH1 0x40 MLOAD DUP1 SWAP2 SUB SWAP1 RETURN JUMPDEST PUSH2 0x8D PUSH1 0x4 DUP1 CALLDATASIZE SUB DUP2 ADD SWAP1 PUSH2 0x88 SWAP2 SWAP1 PUSH2 0x140 JUMP JUMPDEST PUSH2 0xDF JUMP JUMPDEST PUSH1 0x40 MLOAD PUSH2 0x9A SWAP2 SWAP1 PUSH2 0x18D JUMP JUMPDEST PUSH1 0x40 MLOAD DUP1 SWAP2 SUB SWAP1 RETURN JUMPDEST PUSH2 0xBD PUSH1 0x4 DUP1 CALLDATASIZE SUB DUP2 ADD SWAP1 PUSH2 0xB8 SWAP2 SWAP1 PUSH2 0x140 JUMP JUMPDEST PUSH2 0xFD JUMP JUMPDEST PUSH1 0x40 MLOAD PUSH2 0xCA SWAP2 SWAP1 PUSH2 0x18D JUMP JUMPDEST PUSH1 0x40 MLOAD DUP1 SWAP2 SUB SWAP1 RETURN JUMPDEST PUSH0 DUP2 DUP4 ADD SWAP1 POP SWAP3 SWAP2 POP POP JUMP JUMPDEST PUSH0 DUP1 DUP4 DUP5 DUP6 MUL MUL SWAP1 POP PUSH0 DUP4 DUP5 DUP6 MUL MUL SWAP1 POP DUP1 DUP3 ADD SWAP3 POP POP POP SWAP3 SWAP2 POP POP JUMP JUMPDEST PUSH0 DUP2 DUP4 SUB SWAP1 POP SWAP3 SWAP2 POP POP JUMP JUMPDEST PUSH0 DUP1 REVERT JUMPDEST PUSH0 DUP2 SWAP1 POP SWAP2 SWAP1 POP JUMP JUMPDEST PUSH2 0x11F DUP2 PUSH2 0x10D JUMP JUMPDEST DUP2 EQ PUSH2 0x129 JUMPI PUSH0 DUP1 REVERT JUMPDEST POP JUMP JUMPDEST PUSH0 DUP2 CALLDATALOAD SWAP1 POP PUSH2 0x13A DUP2 PUSH2 0x116 JUMP JUMPDEST SWAP3 SWAP2 POP POP JUMP JUMPDEST PUSH0 DUP1 PUSH1 0x40 DUP4 DUP6 SUB SLT ISZERO PUSH2 0x156 JUMPI PUSH2 0x155 PUSH2 0x109 JUMP JUMPDEST JUMPDEST PUSH0 PUSH2 0x163 DUP6 DUP3 DUP7 ADD PUSH2 0x12C JUMP JUMPDEST SWAP3 POP POP PUSH1 0x20 PUSH2 0x174 DUP6 DUP3 DUP7 ADD PUSH2 0x12C JUMP JUMPDEST SWAP2 POP POP SWAP3 POP SWAP3 SWAP1 POP JUMP JUMPDEST PUSH2 0x187 DUP2 PUSH2 0x10D JUMP JUMPDEST DUP3 MSTORE POP POP JUMP JUMPDEST PUSH0 PUSH1 0x20 DUP3 ADD SWAP1 POP PUSH2 0x1A0 PUSH0 DUP4 ADD DUP5 PUSH2 0x17E JUMP JUMPDEST SWAP3 SWAP2 POP POP JUMP INVALID LOG2 PUSH5 0x6970667358 0x22 SLT KECCAK256 PUSH6 0x7FFA07311DA3 PUSH3 0xD7D170 0xC3 0x4B 0xED 0xDF 0xDF 0xF9 TLOAD 0x4E SGT 0x4F MCOPY 0xE7 SWAP5 CODECOPY MULMOD ISZERO TSTORE DUP2 PUSH1 0x4C CALLCODE PUSH5 0x736F6C6343 STOP ADDMOD BYTE STOP CALLER "
				},
				"gasEstimates": {
					"creation": {
						"codeDepositCost": "95200",
						"executionCost": "139",
						"totalCost": "95339"
					},
					"external": {
						"add(uint256,uint256)": "infinite",
						"sub(uint256,uint256)": "infinite",
						"sumOfCubes(uint256,uint256)": "infinite"
					}
				},
				"methodIdentifiers": {
					"add(uint256,uint256)": "771602f7",
					"sub(uint256,uint256)": "b67d77c5",
					"sumOfCubes(uint256,uint256)": "a2138e67"
				}
			},
			"storageLayout": {
				"storage": [],
				"types": null
			},
			"userdoc": {
				"kind": "user",
				"methods": {},
				"version": 1
			}
		}
	}
}