{
	"Hacks/Randomness.sol": {
		"GuessTheRandomNumber": {
			"abi": [
				{
					"inputs": [],
					"stateMutability": "payable",
					"type": "constructor"
				},
				{
					"inputs": [
						{
							"internalType": "uint256",
							"name": "_guess",
							"type": "uint256"
						}
					],
					"name": "guess",
					"outputs": [],
					"stateMutability": "nonpayable",
					"type": "function"
				}
			],
			"devdoc": {
				"kind": "dev",
				"methods": {},
				"version": 1
			},
			"evm": {
				"assembly": "    /* \"Hacks/Randomness.sol\":795:1242  contract GuessTheRandomNumber {... */\n  mstore(0x40, 0x80)\n  dataSize(sub_0)\n  dup1\n  dataOffset(sub_0)\n  0x00\n  codecopy\n  0x00\n  return\nstop\n\nsub_0: assembly {\n        /* \"Hacks/Randomness.sol\":795:1242  contract GuessTheRandomNumber {... */\n      mstore(0x40, 0x80)\n      callvalue\n      dup1\n      iszero\n      tag_1\n      jumpi\n      revert(0x00, 0x00)\n    tag_1:\n      pop\n      jumpi(tag_2, lt(calldatasize, 0x04))\n      shr(0xe0, calldataload(0x00))\n      dup1\n      0x9189fec1\n      eq\n      tag_3\n      jumpi\n    tag_2:\n      revert(0x00, 0x00)\n        /* \"Hacks/Randomness.sol\":864:1239  function guess(uint256 _guess) public {... */\n    tag_3:\n      tag_4\n      0x04\n      dup1\n      calldatasize\n      sub\n      dup2\n      add\n      swap1\n      tag_5\n      swap2\n      swap1\n      tag_6\n      jump\t// in\n    tag_5:\n      tag_7\n      jump\t// in\n    tag_4:\n      stop\n    tag_7:\n        /* \"Hacks/Randomness.sol\":913:927  uint256 answer */\n      0x00\n        /* \"Hacks/Randomness.sol\":1022:1023  1 */\n      0x01\n        /* \"Hacks/Randomness.sol\":1007:1019  block.number */\n      number\n        /* \"Hacks/Randomness.sol\":1007:1023  block.number - 1 */\n      tag_9\n      swap2\n      swap1\n      tag_10\n      jump\t// in\n    tag_9:\n        /* \"Hacks/Randomness.sol\":997:1024  blockhash(block.number - 1) */\n      blockhash\n        /* \"Hacks/Randomness.sol\":1026:1041  block.timestamp */\n      timestamp\n        /* \"Hacks/Randomness.sol\":980:1042  abi.encodePacked(blockhash(block.number - 1), block.timestamp) */\n      add(0x20, mload(0x40))\n      tag_11\n      swap3\n      swap2\n      swap1\n      tag_12\n      jump\t// in\n    tag_11:\n      mload(0x40)\n      0x20\n      dup2\n      dup4\n      sub\n      sub\n      dup2\n      mstore\n      swap1\n      0x40\n      mstore\n        /* \"Hacks/Randomness.sol\":952:1057  keccak256(... */\n      dup1\n      mload\n      swap1\n      0x20\n      add\n      keccak256\n        /* \"Hacks/Randomness.sol\":930:1068  uint256(... */\n      0x00\n      shr\n        /* \"Hacks/Randomness.sol\":913:1068  uint256 answer = uint256(... */\n      swap1\n      pop\n        /* \"Hacks/Randomness.sol\":1094:1100  answer */\n      dup1\n        /* \"Hacks/Randomness.sol\":1084:1090  _guess */\n      dup3\n        /* \"Hacks/Randomness.sol\":1084:1100  _guess == answer */\n      sub\n        /* \"Hacks/Randomness.sol\":1081:1232  if(_guess == answer) {... */\n      tag_13\n      jumpi\n        /* \"Hacks/Randomness.sol\":1118:1127  bool sent */\n      0x00\n        /* \"Hacks/Randomness.sol\":1133:1143  msg.sender */\n      caller\n        /* \"Hacks/Randomness.sol\":1133:1148  msg.sender.call */\n      0xffffffffffffffffffffffffffffffffffffffff\n      and\n        /* \"Hacks/Randomness.sol\":1156:1163  1 ether */\n      0x0de0b6b3a7640000\n        /* \"Hacks/Randomness.sol\":1133:1168  msg.sender.call{value: 1 ether}(\"\") */\n      mload(0x40)\n      tag_14\n      swap1\n      tag_15\n      jump\t// in\n    tag_14:\n      0x00\n      mload(0x40)\n      dup1\n      dup4\n      sub\n      dup2\n      dup6\n      dup8\n      gas\n      call\n      swap3\n      pop\n      pop\n      pop\n      returndatasize\n      dup1\n      0x00\n      dup2\n      eq\n      tag_18\n      jumpi\n      mload(0x40)\n      swap2\n      pop\n      and(add(returndatasize, 0x3f), not(0x1f))\n      dup3\n      add\n      0x40\n      mstore\n      returndatasize\n      dup3\n      mstore\n      returndatasize\n      0x00\n      0x20\n      dup5\n      add\n      returndatacopy\n      jump(tag_17)\n    tag_18:\n      0x60\n      swap2\n      pop\n    tag_17:\n      pop\n        /* \"Hacks/Randomness.sol\":1117:1168  (bool sent, ) = msg.sender.call{value: 1 ether}(\"\") */\n      pop\n      swap1\n      pop\n        /* \"Hacks/Randomness.sol\":1191:1195  sent */\n      dup1\n        /* \"Hacks/Randomness.sol\":1183:1220  require(sent, \"Failed to send ether\") */\n      tag_19\n      jumpi\n      mload(0x40)\n      0x08c379a000000000000000000000000000000000000000000000000000000000\n      dup2\n      mstore\n      0x04\n      add\n      tag_20\n      swap1\n      tag_21\n      jump\t// in\n    tag_20:\n      mload(0x40)\n      dup1\n      swap2\n      sub\n      swap1\n      revert\n    tag_19:\n        /* \"Hacks/Randomness.sol\":1102:1232  {... */\n      pop\n        /* \"Hacks/Randomness.sol\":1081:1232  if(_guess == answer) {... */\n    tag_13:\n        /* \"Hacks/Randomness.sol\":902:1239  {... */\n      pop\n        /* \"Hacks/Randomness.sol\":864:1239  function guess(uint256 _guess) public {... */\n      pop\n      jump\t// out\n        /* \"#utility.yul\":88:205   */\n    tag_23:\n        /* \"#utility.yul\":197:198   */\n      0x00\n        /* \"#utility.yul\":194:195   */\n      0x00\n        /* \"#utility.yul\":187:199   */\n      revert\n        /* \"#utility.yul\":334:411   */\n    tag_25:\n        /* \"#utility.yul\":371:378   */\n      0x00\n        /* \"#utility.yul\":400:405   */\n      dup2\n        /* \"#utility.yul\":389:405   */\n      swap1\n      pop\n        /* \"#utility.yul\":334:411   */\n      swap2\n      swap1\n      pop\n      jump\t// out\n        /* \"#utility.yul\":417:539   */\n    tag_26:\n        /* \"#utility.yul\":490:514   */\n      tag_46\n        /* \"#utility.yul\":508:513   */\n      dup2\n        /* \"#utility.yul\":490:514   */\n      tag_25\n      jump\t// in\n    tag_46:\n        /* \"#utility.yul\":483:488   */\n      dup2\n        /* \"#utility.yul\":480:515   */\n      eq\n        /* \"#utility.yul\":470:533   */\n      tag_47\n      jumpi\n        /* \"#utility.yul\":529:530   */\n      0x00\n        /* \"#utility.yul\":526:527   */\n      0x00\n        /* \"#utility.yul\":519:531   */\n      revert\n        /* \"#utility.yul\":470:533   */\n    tag_47:\n        /* \"#utility.yul\":417:539   */\n      pop\n      jump\t// out\n        /* \"#utility.yul\":545:684   */\n    tag_27:\n        /* \"#utility.yul\":591:596   */\n      0x00\n        /* \"#utility.yul\":629:635   */\n      dup2\n        /* \"#utility.yul\":616:636   */\n      calldataload\n        /* \"#utility.yul\":607:636   */\n      swap1\n      pop\n        /* \"#utility.yul\":645:678   */\n      tag_49\n        /* \"#utility.yul\":672:677   */\n      dup2\n        /* \"#utility.yul\":645:678   */\n      tag_26\n      jump\t// in\n    tag_49:\n        /* \"#utility.yul\":545:684   */\n      swap3\n      swap2\n      pop\n      pop\n      jump\t// out\n        /* \"#utility.yul\":690:1019   */\n    tag_6:\n        /* \"#utility.yul\":749:755   */\n      0x00\n        /* \"#utility.yul\":798:800   */\n      0x20\n        /* \"#utility.yul\":786:795   */\n      dup3\n        /* \"#utility.yul\":777:784   */\n      dup5\n        /* \"#utility.yul\":773:796   */\n      sub\n        /* \"#utility.yul\":769:801   */\n      slt\n        /* \"#utility.yul\":766:885   */\n      iszero\n      tag_51\n      jumpi\n        /* \"#utility.yul\":804:883   */\n      tag_52\n      tag_23\n      jump\t// in\n    tag_52:\n        /* \"#utility.yul\":766:885   */\n    tag_51:\n        /* \"#utility.yul\":924:925   */\n      0x00\n        /* \"#utility.yul\":949:1002   */\n      tag_53\n        /* \"#utility.yul\":994:1001   */\n      dup5\n        /* \"#utility.yul\":985:991   */\n      dup3\n        /* \"#utility.yul\":974:983   */\n      dup6\n        /* \"#utility.yul\":970:992   */\n      add\n        /* \"#utility.yul\":949:1002   */\n      tag_27\n      jump\t// in\n    tag_53:\n        /* \"#utility.yul\":939:1002   */\n      swap2\n      pop\n        /* \"#utility.yul\":895:1012   */\n      pop\n        /* \"#utility.yul\":690:1019   */\n      swap3\n      swap2\n      pop\n      pop\n      jump\t// out\n        /* \"#utility.yul\":1025:1205   */\n    tag_28:\n        /* \"#utility.yul\":1073:1150   */\n      0x4e487b7100000000000000000000000000000000000000000000000000000000\n        /* \"#utility.yul\":1070:1071   */\n      0x00\n        /* \"#utility.yul\":1063:1151   */\n      mstore\n        /* \"#utility.yul\":1170:1174   */\n      0x11\n        /* \"#utility.yul\":1167:1168   */\n      0x04\n        /* \"#utility.yul\":1160:1175   */\n      mstore\n        /* \"#utility.yul\":1194:1198   */\n      0x24\n        /* \"#utility.yul\":1191:1192   */\n      0x00\n        /* \"#utility.yul\":1184:1199   */\n      revert\n        /* \"#utility.yul\":1211:1405   */\n    tag_10:\n        /* \"#utility.yul\":1251:1255   */\n      0x00\n        /* \"#utility.yul\":1271:1291   */\n      tag_56\n        /* \"#utility.yul\":1289:1290   */\n      dup3\n        /* \"#utility.yul\":1271:1291   */\n      tag_25\n      jump\t// in\n    tag_56:\n        /* \"#utility.yul\":1266:1291   */\n      swap2\n      pop\n        /* \"#utility.yul\":1305:1325   */\n      tag_57\n        /* \"#utility.yul\":1323:1324   */\n      dup4\n        /* \"#utility.yul\":1305:1325   */\n      tag_25\n      jump\t// in\n    tag_57:\n        /* \"#utility.yul\":1300:1325   */\n      swap3\n      pop\n        /* \"#utility.yul\":1349:1350   */\n      dup3\n        /* \"#utility.yul\":1346:1347   */\n      dup3\n        /* \"#utility.yul\":1342:1351   */\n      sub\n        /* \"#utility.yul\":1334:1351   */\n      swap1\n      pop\n        /* \"#utility.yul\":1373:1374   */\n      dup2\n        /* \"#utility.yul\":1367:1371   */\n      dup2\n        /* \"#utility.yul\":1364:1375   */\n      gt\n        /* \"#utility.yul\":1361:1398   */\n      iszero\n      tag_58\n      jumpi\n        /* \"#utility.yul\":1378:1396   */\n      tag_59\n      tag_28\n      jump\t// in\n    tag_59:\n        /* \"#utility.yul\":1361:1398   */\n    tag_58:\n        /* \"#utility.yul\":1211:1405   */\n      swap3\n      swap2\n      pop\n      pop\n      jump\t// out\n        /* \"#utility.yul\":1411:1488   */\n    tag_29:\n        /* \"#utility.yul\":1448:1455   */\n      0x00\n        /* \"#utility.yul\":1477:1482   */\n      dup2\n        /* \"#utility.yul\":1466:1482   */\n      swap1\n      pop\n        /* \"#utility.yul\":1411:1488   */\n      swap2\n      swap1\n      pop\n      jump\t// out\n        /* \"#utility.yul\":1494:1573   */\n    tag_30:\n        /* \"#utility.yul\":1533:1540   */\n      0x00\n        /* \"#utility.yul\":1562:1567   */\n      dup2\n        /* \"#utility.yul\":1551:1567   */\n      swap1\n      pop\n        /* \"#utility.yul\":1494:1573   */\n      swap2\n      swap1\n      pop\n      jump\t// out\n        /* \"#utility.yul\":1579:1736   */\n    tag_31:\n        /* \"#utility.yul\":1684:1729   */\n      tag_63\n        /* \"#utility.yul\":1704:1728   */\n      tag_64\n        /* \"#utility.yul\":1722:1727   */\n      dup3\n        /* \"#utility.yul\":1704:1728   */\n      tag_29\n      jump\t// in\n    tag_64:\n        /* \"#utility.yul\":1684:1729   */\n      tag_30\n      jump\t// in\n    tag_63:\n        /* \"#utility.yul\":1679:1682   */\n      dup3\n        /* \"#utility.yul\":1672:1730   */\n      mstore\n        /* \"#utility.yul\":1579:1736   */\n      pop\n      pop\n      jump\t// out\n        /* \"#utility.yul\":1742:1821   */\n    tag_32:\n        /* \"#utility.yul\":1781:1788   */\n      0x00\n        /* \"#utility.yul\":1810:1815   */\n      dup2\n        /* \"#utility.yul\":1799:1815   */\n      swap1\n      pop\n        /* \"#utility.yul\":1742:1821   */\n      swap2\n      swap1\n      pop\n      jump\t// out\n        /* \"#utility.yul\":1827:1984   */\n    tag_33:\n        /* \"#utility.yul\":1932:1977   */\n      tag_67\n        /* \"#utility.yul\":1952:1976   */\n      tag_68\n        /* \"#utility.yul\":1970:1975   */\n      dup3\n        /* \"#utility.yul\":1952:1976   */\n      tag_25\n      jump\t// in\n    tag_68:\n        /* \"#utility.yul\":1932:1977   */\n      tag_32\n      jump\t// in\n    tag_67:\n        /* \"#utility.yul\":1927:1930   */\n      dup3\n        /* \"#utility.yul\":1920:1978   */\n      mstore\n        /* \"#utility.yul\":1827:1984   */\n      pop\n      pop\n      jump\t// out\n        /* \"#utility.yul\":1990:2387   */\n    tag_12:\n        /* \"#utility.yul\":2130:2133   */\n      0x00\n        /* \"#utility.yul\":2145:2220   */\n      tag_70\n        /* \"#utility.yul\":2216:2219   */\n      dup3\n        /* \"#utility.yul\":2207:2213   */\n      dup6\n        /* \"#utility.yul\":2145:2220   */\n      tag_31\n      jump\t// in\n    tag_70:\n        /* \"#utility.yul\":2245:2247   */\n      0x20\n        /* \"#utility.yul\":2240:2243   */\n      dup3\n        /* \"#utility.yul\":2236:2248   */\n      add\n        /* \"#utility.yul\":2229:2248   */\n      swap2\n      pop\n        /* \"#utility.yul\":2258:2333   */\n      tag_71\n        /* \"#utility.yul\":2329:2332   */\n      dup3\n        /* \"#utility.yul\":2320:2326   */\n      dup5\n        /* \"#utility.yul\":2258:2333   */\n      tag_33\n      jump\t// in\n    tag_71:\n        /* \"#utility.yul\":2358:2360   */\n      0x20\n        /* \"#utility.yul\":2353:2356   */\n      dup3\n        /* \"#utility.yul\":2349:2361   */\n      add\n        /* \"#utility.yul\":2342:2361   */\n      swap2\n      pop\n        /* \"#utility.yul\":2378:2381   */\n      dup2\n        /* \"#utility.yul\":2371:2381   */\n      swap1\n      pop\n        /* \"#utility.yul\":1990:2387   */\n      swap4\n      swap3\n      pop\n      pop\n      pop\n      jump\t// out\n        /* \"#utility.yul\":2393:2540   */\n    tag_34:\n        /* \"#utility.yul\":2494:2505   */\n      0x00\n        /* \"#utility.yul\":2531:2534   */\n      dup2\n        /* \"#utility.yul\":2516:2534   */\n      swap1\n      pop\n        /* \"#utility.yul\":2393:2540   */\n      swap3\n      swap2\n      pop\n      pop\n      jump\t// out\n        /* \"#utility.yul\":2546:2660   */\n    tag_35:\n      pop\n      jump\t// out\n        /* \"#utility.yul\":2666:3064   */\n    tag_36:\n        /* \"#utility.yul\":2825:2828   */\n      0x00\n        /* \"#utility.yul\":2846:2929   */\n      tag_75\n        /* \"#utility.yul\":2927:2928   */\n      0x00\n        /* \"#utility.yul\":2922:2925   */\n      dup4\n        /* \"#utility.yul\":2846:2929   */\n      tag_34\n      jump\t// in\n    tag_75:\n        /* \"#utility.yul\":2839:2929   */\n      swap2\n      pop\n        /* \"#utility.yul\":2938:3031   */\n      tag_76\n        /* \"#utility.yul\":3027:3030   */\n      dup3\n        /* \"#utility.yul\":2938:3031   */\n      tag_35\n      jump\t// in\n    tag_76:\n        /* \"#utility.yul\":3056:3057   */\n      0x00\n        /* \"#utility.yul\":3051:3054   */\n      dup3\n        /* \"#utility.yul\":3047:3058   */\n      add\n        /* \"#utility.yul\":3040:3058   */\n      swap1\n      pop\n        /* \"#utility.yul\":2666:3064   */\n      swap2\n      swap1\n      pop\n      jump\t// out\n        /* \"#utility.yul\":3070:3449   */\n    tag_15:\n        /* \"#utility.yul\":3254:3257   */\n      0x00\n        /* \"#utility.yul\":3276:3423   */\n      tag_78\n        /* \"#utility.yul\":3419:3422   */\n      dup3\n        /* \"#utility.yul\":3276:3423   */\n      tag_36\n      jump\t// in\n    tag_78:\n        /* \"#utility.yul\":3269:3423   */\n      swap2\n      pop\n        /* \"#utility.yul\":3440:3443   */\n      dup2\n        /* \"#utility.yul\":3433:3443   */\n      swap1\n      pop\n        /* \"#utility.yul\":3070:3449   */\n      swap2\n      swap1\n      pop\n      jump\t// out\n        /* \"#utility.yul\":3455:3624   */\n    tag_37:\n        /* \"#utility.yul\":3539:3550   */\n      0x00\n        /* \"#utility.yul\":3573:3579   */\n      dup3\n        /* \"#utility.yul\":3568:3571   */\n      dup3\n        /* \"#utility.yul\":3561:3580   */\n      mstore\n        /* \"#utility.yul\":3613:3617   */\n      0x20\n        /* \"#utility.yul\":3608:3611   */\n      dup3\n        /* \"#utility.yul\":3604:3618   */\n      add\n        /* \"#utility.yul\":3589:3618   */\n      swap1\n      pop\n        /* \"#utility.yul\":3455:3624   */\n      swap3\n      swap2\n      pop\n      pop\n      jump\t// out\n        /* \"#utility.yul\":3630:3800   */\n    tag_38:\n        /* \"#utility.yul\":3770:3792   */\n      0x4661696c656420746f2073656e64206574686572000000000000000000000000\n        /* \"#utility.yul\":3766:3767   */\n      0x00\n        /* \"#utility.yul\":3758:3764   */\n      dup3\n        /* \"#utility.yul\":3754:3768   */\n      add\n        /* \"#utility.yul\":3747:3793   */\n      mstore\n        /* \"#utility.yul\":3630:3800   */\n      pop\n      jump\t// out\n        /* \"#utility.yul\":3806:4172   */\n    tag_39:\n        /* \"#utility.yul\":3948:3951   */\n      0x00\n        /* \"#utility.yul\":3969:4036   */\n      tag_82\n        /* \"#utility.yul\":4033:4035   */\n      0x14\n        /* \"#utility.yul\":4028:4031   */\n      dup4\n        /* \"#utility.yul\":3969:4036   */\n      tag_37\n      jump\t// in\n    tag_82:\n        /* \"#utility.yul\":3962:4036   */\n      swap2\n      pop\n        /* \"#utility.yul\":4045:4138   */\n      tag_83\n        /* \"#utility.yul\":4134:4137   */\n      dup3\n        /* \"#utility.yul\":4045:4138   */\n      tag_38\n      jump\t// in\n    tag_83:\n        /* \"#utility.yul\":4163:4165   */\n      0x20\n        /* \"#utility.yul\":4158:4161   */\n      dup3\n        /* \"#utility.yul\":4154:4166   */\n      add\n        /* \"#utility.yul\":4147:4166   */\n      swap1\n      pop\n        /* \"#utility.yul\":3806:4172   */\n      swap2\n      swap1\n      pop\n      jump\t// out\n        /* \"#utility.yul\":4178:4597   */\n    tag_21:\n        /* \"#utility.yul\":4344:4348   */\n      0x00\n        /* \"#utility.yul\":4382:4384   */\n      0x20\n        /* \"#utility.yul\":4371:4380   */\n      dup3\n        /* \"#utility.yul\":4367:4385   */\n      add\n        /* \"#utility.yul\":4359:4385   */\n      swap1\n      pop\n        /* \"#utility.yul\":4431:4440   */\n      dup2\n        /* \"#utility.yul\":4425:4429   */\n      dup2\n        /* \"#utility.yul\":4421:4441   */\n      sub\n        /* \"#utility.yul\":4417:4418   */\n      0x00\n        /* \"#utility.yul\":4406:4415   */\n      dup4\n        /* \"#utility.yul\":4402:4419   */\n      add\n        /* \"#utility.yul\":4395:4442   */\n      mstore\n        /* \"#utility.yul\":4459:4590   */\n      tag_85\n        /* \"#utility.yul\":4585:4589   */\n      dup2\n        /* \"#utility.yul\":4459:4590   */\n      tag_39\n      jump\t// in\n    tag_85:\n        /* \"#utility.yul\":4451:4590   */\n      swap1\n      pop\n        /* \"#utility.yul\":4178:4597   */\n      swap2\n      swap1\n      pop\n      jump\t// out\n\n    auxdata: 0xa26469706673582212209dd7e58f6021adb54aae1e5a78dc88d37bb10b593f70388351d7b980229ae65f64736f6c634300081c0033\n}\n",
				"bytecode": {
					"linkReferences": {},
					"object": "6080604052610366806100115f395ff3fe608060405234801561000f575f5ffd5b5060043610610029575f3560e01c80639189fec11461002d575b5f5ffd5b61004760048036038101906100429190610178565b610049565b005b5f60014361005791906101d0565b404260405160200161006a92919061024c565b604051602081830303815290604052805190602001205f1c905080820361013d575f3373ffffffffffffffffffffffffffffffffffffffff16670de0b6b3a76400006040516100b8906102a4565b5f6040518083038185875af1925050503d805f81146100f2576040519150601f19603f3d011682016040523d82523d5f602084013e6100f7565b606091505b505090508061013b576040517f08c379a000000000000000000000000000000000000000000000000000000000815260040161013290610312565b60405180910390fd5b505b5050565b5f5ffd5b5f819050919050565b61015781610145565b8114610161575f5ffd5b50565b5f813590506101728161014e565b92915050565b5f6020828403121561018d5761018c610141565b5b5f61019a84828501610164565b91505092915050565b7f4e487b71000000000000000000000000000000000000000000000000000000005f52601160045260245ffd5b5f6101da82610145565b91506101e583610145565b92508282039050818111156101fd576101fc6101a3565b5b92915050565b5f819050919050565b5f819050919050565b61022661022182610203565b61020c565b82525050565b5f819050919050565b61024661024182610145565b61022c565b82525050565b5f6102578285610215565b6020820191506102678284610235565b6020820191508190509392505050565b5f81905092915050565b50565b5f61028f5f83610277565b915061029a82610281565b5f82019050919050565b5f6102ae82610284565b9150819050919050565b5f82825260208201905092915050565b7f4661696c656420746f2073656e642065746865720000000000000000000000005f82015250565b5f6102fc6014836102b8565b9150610307826102c8565b602082019050919050565b5f6020820190508181035f830152610329816102f0565b905091905056fea26469706673582212209dd7e58f6021adb54aae1e5a78dc88d37bb10b593f70388351d7b980229ae65f64736f6c634300081c0033",
					"opcodes": "PUSH1 0x80 PUSH1 0x40 MSTORE PUSH2 0x366 DUP1 PUSH2 0x11 PUSH0 CODECOPY PUSH0 RETURN INVALID PUSH1 0x80 PUSH1 0x40 MSTORE CALLVALUE DUP1 ISZERO PUSH2 0xF JUMPI PUSH0 PUSH0 REVERT JUMPDEST POP PUSH1 0x4 CALLDATASIZE LT PUSH2 0x29 JUMPI PUSH0 CALLDATALOAD PUSH1 0xE0 SHR DUP1 PUSH4 0x9189FEC1 EQ PUSH2 0x2D JUMPI JUMPDEST PUSH0 PUSH0 REVERT JUMPDEST PUSH2 0x47 PUSH1 0x4 DUP1 CALLDATASIZE SUB DUP2 ADD SWAP1 PUSH2 0x42 SWAP2 SWAP1 PUSH2 0x178 JUMP JUMPDEST PUSH2 0x49 JUMP JUMPDEST STOP JUMPDEST PUSH0 PUSH1 0x1 NUMBER PUSH2 0x57 SWAP2 SWAP1 PUSH2 0x1D0 JUMP JUMPDEST BLOCKHASH TIMESTAMP PUSH1 0x40 MLOAD PUSH1 0x20 ADD PUSH2 0x6A SWAP3 SWAP2 SWAP1 PUSH2 0x24C JUMP JUMPDEST PUSH1 0x40 MLOAD PUSH1 0x20 DUP2 DUP4 SUB SUB DUP2 MSTORE SWAP1 PUSH1 0x40 MSTORE DUP1 MLOAD SWAP1 PUSH1 0x20 ADD KECCAK256 PUSH0 SHR SWAP1 POP DUP1 DUP3 SUB PUSH2 0x13D JUMPI PUSH0 CALLER PUSH20 0xFFFFFFFFFFFFFFFFFFFFFFFFFFFFFFFFFFFFFFFF AND PUSH8 0xDE0B6B3A7640000 PUSH1 0x40 MLOAD PUSH2 0xB8 SWAP1 PUSH2 0x2A4 JUMP JUMPDEST PUSH0 PUSH1 0x40 MLOAD DUP1 DUP4 SUB DUP2 DUP6 DUP8 GAS CALL SWAP3 POP POP POP RETURNDATASIZE DUP1 PUSH0 DUP2 EQ PUSH2 0xF2 JUMPI PUSH1 0x40 MLOAD SWAP2 POP PUSH1 0x1F NOT PUSH1 0x3F RETURNDATASIZE ADD AND DUP3 ADD PUSH1 0x40 MSTORE RETURNDATASIZE DUP3 MSTORE RETURNDATASIZE PUSH0 PUSH1 0x20 DUP5 ADD RETURNDATACOPY PUSH2 0xF7 JUMP JUMPDEST PUSH1 0x60 SWAP2 POP JUMPDEST POP POP SWAP1 POP DUP1 PUSH2 0x13B JUMPI PUSH1 0x40 MLOAD PUSH32 0x8C379A000000000000000000000000000000000000000000000000000000000 DUP2 MSTORE PUSH1 0x4 ADD PUSH2 0x132 SWAP1 PUSH2 0x312 JUMP JUMPDEST PUSH1 0x40 MLOAD DUP1 SWAP2 SUB SWAP1 REVERT JUMPDEST POP JUMPDEST POP POP JUMP JUMPDEST PUSH0 PUSH0 REVERT JUMPDEST PUSH0 DUP2 SWAP1 POP SWAP2 SWAP1 POP JUMP JUMPDEST PUSH2 0x157 DUP2 PUSH2 0x145 JUMP JUMPDEST DUP2 EQ PUSH2 0x161 JUMPI PUSH0 PUSH0 REVERT JUMPDEST POP JUMP JUMPDEST PUSH0 DUP2 CALLDATALOAD SWAP1 POP PUSH2 0x172 DUP2 PUSH2 0x14E JUMP JUMPDEST SWAP3 SWAP2 POP POP JUMP JUMPDEST PUSH0 PUSH1 0x20 DUP3 DUP5 SUB SLT ISZERO PUSH2 0x18D JUMPI PUSH2 0x18C PUSH2 0x141 JUMP JUMPDEST JUMPDEST PUSH0 PUSH2 0x19A DUP5 DUP3 DUP6 ADD PUSH2 0x164 JUMP JUMPDEST SWAP2 POP POP SWAP3 SWAP2 POP POP JUMP JUMPDEST PUSH32 0x4E487B7100000000000000000000000000000000000000000000000000000000 PUSH0 MSTORE PUSH1 0x11 PUSH1 0x4 MSTORE PUSH1 0x24 PUSH0 REVERT JUMPDEST PUSH0 PUSH2 0x1DA DUP3 PUSH2 0x145 JUMP JUMPDEST SWAP2 POP PUSH2 0x1E5 DUP4 PUSH2 0x145 JUMP JUMPDEST SWAP3 POP DUP3 DUP3 SUB SWAP1 POP DUP2 DUP2 GT ISZERO PUSH2 0x1FD JUMPI PUSH2 0x1FC PUSH2 0x1A3 JUMP JUMPDEST JUMPDEST SWAP3 SWAP2 POP POP JUMP JUMPDEST PUSH0 DUP2 SWAP1 POP SWAP2 SWAP1 POP JUMP JUMPDEST PUSH0 DUP2 SWAP1 POP SWAP2 SWAP1 POP JUMP JUMPDEST PUSH2 0x226 PUSH2 0x221 DUP3 PUSH2 0x203 JUMP JUMPDEST PUSH2 0x20C JUMP JUMPDEST DUP3 MSTORE POP POP JUMP JUMPDEST PUSH0 DUP2 SWAP1 POP SWAP2 SWAP1 POP JUMP JUMPDEST PUSH2 0x246 PUSH2 0x241 DUP3 PUSH2 0x145 JUMP JUMPDEST PUSH2 0x22C JUMP JUMPDEST DUP3 MSTORE POP POP JUMP JUMPDEST PUSH0 PUSH2 0x257 DUP3 DUP6 PUSH2 0x215 JUMP JUMPDEST PUSH1 0x20 DUP3 ADD SWAP2 POP PUSH2 0x267 DUP3 DUP5 PUSH2 0x235 JUMP JUMPDEST PUSH1 0x20 DUP3 ADD SWAP2 POP DUP2 SWAP1 POP SWAP4 SWAP3 POP POP POP JUMP JUMPDEST PUSH0 DUP2 SWAP1 POP SWAP3 SWAP2 POP POP JUMP JUMPDEST POP JUMP JUMPDEST PUSH0 PUSH2 0x28F PUSH0 DUP4 PUSH2 0x277 JUMP JUMPDEST SWAP2 POP PUSH2 0x29A DUP3 PUSH2 0x281 JUMP JUMPDEST PUSH0 DUP3 ADD SWAP1 POP SWAP2 SWAP1 POP JUMP JUMPDEST PUSH0 PUSH2 0x2AE DUP3 PUSH2 0x284 JUMP JUMPDEST SWAP2 POP DUP2 SWAP1 POP SWAP2 SWAP1 POP JUMP JUMPDEST PUSH0 DUP3 DUP3 MSTORE PUSH1 0x20 DUP3 ADD SWAP1 POP SWAP3 SWAP2 POP POP JUMP JUMPDEST PUSH32 0x4661696C656420746F2073656E64206574686572000000000000000000000000 PUSH0 DUP3 ADD MSTORE POP JUMP JUMPDEST PUSH0 PUSH2 0x2FC PUSH1 0x14 DUP4 PUSH2 0x2B8 JUMP JUMPDEST SWAP2 POP PUSH2 0x307 DUP3 PUSH2 0x2C8 JUMP JUMPDEST PUSH1 0x20 DUP3 ADD SWAP1 POP SWAP2 SWAP1 POP JUMP JUMPDEST PUSH0 PUSH1 0x20 DUP3 ADD SWAP1 POP DUP2 DUP2 SUB PUSH0 DUP4 ADD MSTORE PUSH2 0x329 DUP2 PUSH2 0x2F0 JUMP JUMPDEST SWAP1 POP SWAP2 SWAP1 POP JUMP INVALID LOG2 PUSH5 0x6970667358 0x22 SLT KECCAK256 SWAP14 0xD7 0xE5 DUP16 PUSH1 0x21 0xAD 0xB5 BLOBBASEFEE 0xAE 0x1E GAS PUSH25 0xDC88D37BB10B593F70388351D7B980229AE65F64736F6C6343 STOP ADDMOD SHR STOP CALLER "
				},
				"gasEstimates": {
					"creation": {
						"codeDepositCost": "174000",
						"executionCost": "194",
						"totalCost": "174194"
					},
					"external": {
						"guess(uint256)": "infinite"
					}
				},
				"methodIdentifiers": {
					"guess(uint256)": "9189fec1"
				}
			},
			"storageLayout": {
				"storage": [],
				"types": null
			},
			"userdoc": {
				"kind": "user",
				"methods": {},
				"version": 1
			}
		}
	}
}