{
	"Hacks/FrontRunning.sol": {
		"FindThisHash": {
			"abi": [
				{
					"inputs": [],
					"stateMutability": "payable",
					"type": "constructor"
				},
				{
					"inputs": [],
					"name": "hash",
					"outputs": [
						{
							"internalType": "bytes32",
							"name": "",
							"type": "bytes32"
						}
					],
					"stateMutability": "view",
					"type": "function"
				},
				{
					"inputs": [
						{
							"internalType": "string",
							"name": "solution",
							"type": "string"
						}
					],
					"name": "solve",
					"outputs": [],
					"stateMutability": "nonpayable",
					"type": "function"
				}
			],
			"devdoc": {
				"kind": "dev",
				"methods": {},
				"version": 1
			},
			"evm": {
				"assembly": "    /* \"Hacks/FrontRunning.sol\":1378:1832  contract FindThisHash {... */\n  mstore(0x40, 0x80)\n  dataSize(sub_0)\n  dup1\n  dataOffset(sub_0)\n  0x00\n  codecopy\n  0x00\n  return\nstop\n\nsub_0: assembly {\n        /* \"Hacks/FrontRunning.sol\":1378:1832  contract FindThisHash {... */\n      mstore(0x40, 0x80)\n      callvalue\n      dup1\n      iszero\n      tag_1\n      jumpi\n      0x00\n      dup1\n      revert\n    tag_1:\n      pop\n      jumpi(tag_2, lt(calldatasize, 0x04))\n      shr(0xe0, calldataload(0x00))\n      dup1\n      0x09bd5a60\n      eq\n      tag_3\n      jumpi\n      dup1\n      0x76fe1e92\n      eq\n      tag_4\n      jumpi\n    tag_2:\n      0x00\n      dup1\n      revert\n        /* \"Hacks/FrontRunning.sol\":1407:1513  bytes32 public constant hash =... */\n    tag_3:\n      tag_5\n      tag_6\n      jump\t// in\n    tag_5:\n      mload(0x40)\n      tag_7\n      swap2\n      swap1\n      tag_8\n      jump\t// in\n    tag_7:\n      mload(0x40)\n      dup1\n      swap2\n      sub\n      swap1\n      return\n        /* \"Hacks/FrontRunning.sol\":1554:1829  function solve(string memory solution) public {... */\n    tag_4:\n      tag_9\n      0x04\n      dup1\n      calldatasize\n      sub\n      dup2\n      add\n      swap1\n      tag_10\n      swap2\n      swap1\n      tag_11\n      jump\t// in\n    tag_10:\n      tag_12\n      jump\t// in\n    tag_9:\n      stop\n        /* \"Hacks/FrontRunning.sol\":1407:1513  bytes32 public constant hash =... */\n    tag_6:\n        /* \"Hacks/FrontRunning.sol\":1447:1513  0x564ccaf7594d66b1eaaea24fe01f0585bf52ee70852af4eac0cc4b04711cd0e2 */\n      0x564ccaf7594d66b1eaaea24fe01f0585bf52ee70852af4eac0cc4b04711cd0e2\n        /* \"Hacks/FrontRunning.sol\":1407:1513  bytes32 public constant hash =... */\n      0x00\n      shl\n      dup2\n      jump\t// out\n        /* \"Hacks/FrontRunning.sol\":1554:1829  function solve(string memory solution) public {... */\n    tag_12:\n        /* \"Hacks/FrontRunning.sol\":1668:1676  solution */\n      dup1\n        /* \"Hacks/FrontRunning.sol\":1651:1677  abi.encodePacked(solution) */\n      add(0x20, mload(0x40))\n      tag_14\n      swap2\n      swap1\n      tag_15\n      jump\t// in\n    tag_14:\n      mload(0x40)\n      0x20\n      dup2\n      dup4\n      sub\n      sub\n      dup2\n      mstore\n      swap1\n      0x40\n      mstore\n        /* \"Hacks/FrontRunning.sol\":1641:1678  keccak256(abi.encodePacked(solution)) */\n      dup1\n      mload\n      swap1\n      0x20\n      add\n      keccak256\n        /* \"Hacks/FrontRunning.sol\":1447:1513  0x564ccaf7594d66b1eaaea24fe01f0585bf52ee70852af4eac0cc4b04711cd0e2 */\n      0x564ccaf7594d66b1eaaea24fe01f0585bf52ee70852af4eac0cc4b04711cd0e2\n        /* \"Hacks/FrontRunning.sol\":1633:1637  hash */\n      0x00\n      shl\n        /* \"Hacks/FrontRunning.sol\":1633:1678  hash == keccak256(abi.encodePacked(solution)) */\n      eq\n        /* \"Hacks/FrontRunning.sol\":1611:1709  require(... */\n      tag_16\n      jumpi\n      mload(0x40)\n      0x08c379a000000000000000000000000000000000000000000000000000000000\n      dup2\n      mstore\n      0x04\n      add\n      tag_17\n      swap1\n      tag_18\n      jump\t// in\n    tag_17:\n      mload(0x40)\n      dup1\n      swap2\n      sub\n      swap1\n      revert\n    tag_16:\n        /* \"Hacks/FrontRunning.sol\":1723:1732  bool sent */\n      0x00\n        /* \"Hacks/FrontRunning.sol\":1737:1747  msg.sender */\n      caller\n        /* \"Hacks/FrontRunning.sol\":1737:1752  msg.sender.call */\n      0xffffffffffffffffffffffffffffffffffffffff\n      and\n        /* \"Hacks/FrontRunning.sol\":1760:1768  10 ether */\n      0x8ac7230489e80000\n        /* \"Hacks/FrontRunning.sol\":1737:1773  msg.sender.call{value: 10 ether}(\"\") */\n      mload(0x40)\n      tag_19\n      swap1\n      tag_20\n      jump\t// in\n    tag_19:\n      0x00\n      mload(0x40)\n      dup1\n      dup4\n      sub\n      dup2\n      dup6\n      dup8\n      gas\n      call\n      swap3\n      pop\n      pop\n      pop\n      returndatasize\n      dup1\n      0x00\n      dup2\n      eq\n      tag_23\n      jumpi\n      mload(0x40)\n      swap2\n      pop\n      and(add(returndatasize, 0x3f), not(0x1f))\n      dup3\n      add\n      0x40\n      mstore\n      returndatasize\n      dup3\n      mstore\n      returndatasize\n      0x00\n      0x20\n      dup5\n      add\n      returndatacopy\n      jump(tag_22)\n    tag_23:\n      0x60\n      swap2\n      pop\n    tag_22:\n      pop\n        /* \"Hacks/FrontRunning.sol\":1722:1773  (bool sent,) = msg.sender.call{value: 10 ether}(\"\") */\n      pop\n      swap1\n      pop\n        /* \"Hacks/FrontRunning.sol\":1792:1796  sent */\n      dup1\n        /* \"Hacks/FrontRunning.sol\":1784:1821  require(sent, \"Failed to send Ether\") */\n      tag_24\n      jumpi\n      mload(0x40)\n      0x08c379a000000000000000000000000000000000000000000000000000000000\n      dup2\n      mstore\n      0x04\n      add\n      tag_25\n      swap1\n      tag_26\n      jump\t// in\n    tag_25:\n      mload(0x40)\n      dup1\n      swap2\n      sub\n      swap1\n      revert\n    tag_24:\n        /* \"Hacks/FrontRunning.sol\":1600:1829  {... */\n      pop\n        /* \"Hacks/FrontRunning.sol\":1554:1829  function solve(string memory solution) public {... */\n      pop\n      jump\t// out\n        /* \"#utility.yul\":7:84   */\n    tag_27:\n        /* \"#utility.yul\":44:51   */\n      0x00\n        /* \"#utility.yul\":73:78   */\n      dup2\n        /* \"#utility.yul\":62:78   */\n      swap1\n      pop\n        /* \"#utility.yul\":7:84   */\n      swap2\n      swap1\n      pop\n      jump\t// out\n        /* \"#utility.yul\":90:208   */\n    tag_28:\n        /* \"#utility.yul\":177:201   */\n      tag_57\n        /* \"#utility.yul\":195:200   */\n      dup2\n        /* \"#utility.yul\":177:201   */\n      tag_27\n      jump\t// in\n    tag_57:\n        /* \"#utility.yul\":172:175   */\n      dup3\n        /* \"#utility.yul\":165:202   */\n      mstore\n        /* \"#utility.yul\":90:208   */\n      pop\n      pop\n      jump\t// out\n        /* \"#utility.yul\":214:436   */\n    tag_8:\n        /* \"#utility.yul\":307:311   */\n      0x00\n        /* \"#utility.yul\":345:347   */\n      0x20\n        /* \"#utility.yul\":334:343   */\n      dup3\n        /* \"#utility.yul\":330:348   */\n      add\n        /* \"#utility.yul\":322:348   */\n      swap1\n      pop\n        /* \"#utility.yul\":358:429   */\n      tag_59\n        /* \"#utility.yul\":426:427   */\n      0x00\n        /* \"#utility.yul\":415:424   */\n      dup4\n        /* \"#utility.yul\":411:428   */\n      add\n        /* \"#utility.yul\":402:408   */\n      dup5\n        /* \"#utility.yul\":358:429   */\n      tag_28\n      jump\t// in\n    tag_59:\n        /* \"#utility.yul\":214:436   */\n      swap3\n      swap2\n      pop\n      pop\n      jump\t// out\n        /* \"#utility.yul\":442:517   */\n    tag_29:\n        /* \"#utility.yul\":475:481   */\n      0x00\n        /* \"#utility.yul\":508:510   */\n      0x40\n        /* \"#utility.yul\":502:511   */\n      mload\n        /* \"#utility.yul\":492:511   */\n      swap1\n      pop\n        /* \"#utility.yul\":442:517   */\n      swap1\n      jump\t// out\n        /* \"#utility.yul\":523:640   */\n    tag_30:\n        /* \"#utility.yul\":632:633   */\n      0x00\n        /* \"#utility.yul\":629:630   */\n      dup1\n        /* \"#utility.yul\":622:634   */\n      revert\n        /* \"#utility.yul\":646:763   */\n    tag_31:\n        /* \"#utility.yul\":755:756   */\n      0x00\n        /* \"#utility.yul\":752:753   */\n      dup1\n        /* \"#utility.yul\":745:757   */\n      revert\n        /* \"#utility.yul\":769:886   */\n    tag_32:\n        /* \"#utility.yul\":878:879   */\n      0x00\n        /* \"#utility.yul\":875:876   */\n      dup1\n        /* \"#utility.yul\":868:880   */\n      revert\n        /* \"#utility.yul\":892:1009   */\n    tag_33:\n        /* \"#utility.yul\":1001:1002   */\n      0x00\n        /* \"#utility.yul\":998:999   */\n      dup1\n        /* \"#utility.yul\":991:1003   */\n      revert\n        /* \"#utility.yul\":1015:1117   */\n    tag_34:\n        /* \"#utility.yul\":1056:1062   */\n      0x00\n        /* \"#utility.yul\":1107:1109   */\n      0x1f\n        /* \"#utility.yul\":1103:1110   */\n      not\n        /* \"#utility.yul\":1098:1100   */\n      0x1f\n        /* \"#utility.yul\":1091:1096   */\n      dup4\n        /* \"#utility.yul\":1087:1101   */\n      add\n        /* \"#utility.yul\":1083:1111   */\n      and\n        /* \"#utility.yul\":1073:1111   */\n      swap1\n      pop\n        /* \"#utility.yul\":1015:1117   */\n      swap2\n      swap1\n      pop\n      jump\t// out\n        /* \"#utility.yul\":1123:1303   */\n    tag_35:\n        /* \"#utility.yul\":1171:1248   */\n      0x4e487b7100000000000000000000000000000000000000000000000000000000\n        /* \"#utility.yul\":1168:1169   */\n      0x00\n        /* \"#utility.yul\":1161:1249   */\n      mstore\n        /* \"#utility.yul\":1268:1272   */\n      0x41\n        /* \"#utility.yul\":1265:1266   */\n      0x04\n        /* \"#utility.yul\":1258:1273   */\n      mstore\n        /* \"#utility.yul\":1292:1296   */\n      0x24\n        /* \"#utility.yul\":1289:1290   */\n      0x00\n        /* \"#utility.yul\":1282:1297   */\n      revert\n        /* \"#utility.yul\":1309:1590   */\n    tag_36:\n        /* \"#utility.yul\":1392:1419   */\n      tag_68\n        /* \"#utility.yul\":1414:1418   */\n      dup3\n        /* \"#utility.yul\":1392:1419   */\n      tag_34\n      jump\t// in\n    tag_68:\n        /* \"#utility.yul\":1384:1390   */\n      dup2\n        /* \"#utility.yul\":1380:1420   */\n      add\n        /* \"#utility.yul\":1522:1528   */\n      dup2\n        /* \"#utility.yul\":1510:1520   */\n      dup2\n        /* \"#utility.yul\":1507:1529   */\n      lt\n        /* \"#utility.yul\":1486:1504   */\n      0xffffffffffffffff\n        /* \"#utility.yul\":1474:1484   */\n      dup3\n        /* \"#utility.yul\":1471:1505   */\n      gt\n        /* \"#utility.yul\":1468:1530   */\n      or\n        /* \"#utility.yul\":1465:1553   */\n      iszero\n      tag_69\n      jumpi\n        /* \"#utility.yul\":1533:1551   */\n      tag_70\n      tag_35\n      jump\t// in\n    tag_70:\n        /* \"#utility.yul\":1465:1553   */\n    tag_69:\n        /* \"#utility.yul\":1573:1583   */\n      dup1\n        /* \"#utility.yul\":1569:1571   */\n      0x40\n        /* \"#utility.yul\":1562:1584   */\n      mstore\n        /* \"#utility.yul\":1352:1590   */\n      pop\n        /* \"#utility.yul\":1309:1590   */\n      pop\n      pop\n      jump\t// out\n        /* \"#utility.yul\":1596:1725   */\n    tag_37:\n        /* \"#utility.yul\":1630:1636   */\n      0x00\n        /* \"#utility.yul\":1657:1677   */\n      tag_72\n      tag_29\n      jump\t// in\n    tag_72:\n        /* \"#utility.yul\":1647:1677   */\n      swap1\n      pop\n        /* \"#utility.yul\":1686:1719   */\n      tag_73\n        /* \"#utility.yul\":1714:1718   */\n      dup3\n        /* \"#utility.yul\":1706:1712   */\n      dup3\n        /* \"#utility.yul\":1686:1719   */\n      tag_36\n      jump\t// in\n    tag_73:\n        /* \"#utility.yul\":1596:1725   */\n      swap2\n      swap1\n      pop\n      jump\t// out\n        /* \"#utility.yul\":1731:2039   */\n    tag_38:\n        /* \"#utility.yul\":1793:1797   */\n      0x00\n        /* \"#utility.yul\":1883:1901   */\n      0xffffffffffffffff\n        /* \"#utility.yul\":1875:1881   */\n      dup3\n        /* \"#utility.yul\":1872:1902   */\n      gt\n        /* \"#utility.yul\":1869:1925   */\n      iszero\n      tag_75\n      jumpi\n        /* \"#utility.yul\":1905:1923   */\n      tag_76\n      tag_35\n      jump\t// in\n    tag_76:\n        /* \"#utility.yul\":1869:1925   */\n    tag_75:\n        /* \"#utility.yul\":1943:1972   */\n      tag_77\n        /* \"#utility.yul\":1965:1971   */\n      dup3\n        /* \"#utility.yul\":1943:1972   */\n      tag_34\n      jump\t// in\n    tag_77:\n        /* \"#utility.yul\":1935:1972   */\n      swap1\n      pop\n        /* \"#utility.yul\":2027:2031   */\n      0x20\n        /* \"#utility.yul\":2021:2025   */\n      dup2\n        /* \"#utility.yul\":2017:2032   */\n      add\n        /* \"#utility.yul\":2009:2032   */\n      swap1\n      pop\n        /* \"#utility.yul\":1731:2039   */\n      swap2\n      swap1\n      pop\n      jump\t// out\n        /* \"#utility.yul\":2045:2193   */\n    tag_39:\n        /* \"#utility.yul\":2143:2149   */\n      dup3\n        /* \"#utility.yul\":2138:2141   */\n      dup2\n        /* \"#utility.yul\":2133:2136   */\n      dup4\n        /* \"#utility.yul\":2120:2150   */\n      calldatacopy\n        /* \"#utility.yul\":2184:2185   */\n      0x00\n        /* \"#utility.yul\":2175:2181   */\n      dup4\n        /* \"#utility.yul\":2170:2173   */\n      dup4\n        /* \"#utility.yul\":2166:2182   */\n      add\n        /* \"#utility.yul\":2159:2186   */\n      mstore\n        /* \"#utility.yul\":2045:2193   */\n      pop\n      pop\n      pop\n      jump\t// out\n        /* \"#utility.yul\":2199:2624   */\n    tag_40:\n        /* \"#utility.yul\":2277:2282   */\n      0x00\n        /* \"#utility.yul\":2302:2368   */\n      tag_80\n        /* \"#utility.yul\":2318:2367   */\n      tag_81\n        /* \"#utility.yul\":2360:2366   */\n      dup5\n        /* \"#utility.yul\":2318:2367   */\n      tag_38\n      jump\t// in\n    tag_81:\n        /* \"#utility.yul\":2302:2368   */\n      tag_37\n      jump\t// in\n    tag_80:\n        /* \"#utility.yul\":2293:2368   */\n      swap1\n      pop\n        /* \"#utility.yul\":2391:2397   */\n      dup3\n        /* \"#utility.yul\":2384:2389   */\n      dup2\n        /* \"#utility.yul\":2377:2398   */\n      mstore\n        /* \"#utility.yul\":2429:2433   */\n      0x20\n        /* \"#utility.yul\":2422:2427   */\n      dup2\n        /* \"#utility.yul\":2418:2434   */\n      add\n        /* \"#utility.yul\":2467:2470   */\n      dup5\n        /* \"#utility.yul\":2458:2464   */\n      dup5\n        /* \"#utility.yul\":2453:2456   */\n      dup5\n        /* \"#utility.yul\":2449:2465   */\n      add\n        /* \"#utility.yul\":2446:2471   */\n      gt\n        /* \"#utility.yul\":2443:2555   */\n      iszero\n      tag_82\n      jumpi\n        /* \"#utility.yul\":2474:2553   */\n      tag_83\n      tag_33\n      jump\t// in\n    tag_83:\n        /* \"#utility.yul\":2443:2555   */\n    tag_82:\n        /* \"#utility.yul\":2564:2618   */\n      tag_84\n        /* \"#utility.yul\":2611:2617   */\n      dup5\n        /* \"#utility.yul\":2606:2609   */\n      dup3\n        /* \"#utility.yul\":2601:2604   */\n      dup6\n        /* \"#utility.yul\":2564:2618   */\n      tag_39\n      jump\t// in\n    tag_84:\n        /* \"#utility.yul\":2283:2624   */\n      pop\n        /* \"#utility.yul\":2199:2624   */\n      swap4\n      swap3\n      pop\n      pop\n      pop\n      jump\t// out\n        /* \"#utility.yul\":2644:2984   */\n    tag_41:\n        /* \"#utility.yul\":2700:2705   */\n      0x00\n        /* \"#utility.yul\":2749:2752   */\n      dup3\n        /* \"#utility.yul\":2742:2746   */\n      0x1f\n        /* \"#utility.yul\":2734:2740   */\n      dup4\n        /* \"#utility.yul\":2730:2747   */\n      add\n        /* \"#utility.yul\":2726:2753   */\n      slt\n        /* \"#utility.yul\":2716:2838   */\n      tag_86\n      jumpi\n        /* \"#utility.yul\":2757:2836   */\n      tag_87\n      tag_32\n      jump\t// in\n    tag_87:\n        /* \"#utility.yul\":2716:2838   */\n    tag_86:\n        /* \"#utility.yul\":2874:2880   */\n      dup2\n        /* \"#utility.yul\":2861:2881   */\n      calldataload\n        /* \"#utility.yul\":2899:2978   */\n      tag_88\n        /* \"#utility.yul\":2974:2977   */\n      dup5\n        /* \"#utility.yul\":2966:2972   */\n      dup3\n        /* \"#utility.yul\":2959:2963   */\n      0x20\n        /* \"#utility.yul\":2951:2957   */\n      dup7\n        /* \"#utility.yul\":2947:2964   */\n      add\n        /* \"#utility.yul\":2899:2978   */\n      tag_40\n      jump\t// in\n    tag_88:\n        /* \"#utility.yul\":2890:2978   */\n      swap2\n      pop\n        /* \"#utility.yul\":2706:2984   */\n      pop\n        /* \"#utility.yul\":2644:2984   */\n      swap3\n      swap2\n      pop\n      pop\n      jump\t// out\n        /* \"#utility.yul\":2990:3499   */\n    tag_11:\n        /* \"#utility.yul\":3059:3065   */\n      0x00\n        /* \"#utility.yul\":3108:3110   */\n      0x20\n        /* \"#utility.yul\":3096:3105   */\n      dup3\n        /* \"#utility.yul\":3087:3094   */\n      dup5\n        /* \"#utility.yul\":3083:3106   */\n      sub\n        /* \"#utility.yul\":3079:3111   */\n      slt\n        /* \"#utility.yul\":3076:3195   */\n      iszero\n      tag_90\n      jumpi\n        /* \"#utility.yul\":3114:3193   */\n      tag_91\n      tag_30\n      jump\t// in\n    tag_91:\n        /* \"#utility.yul\":3076:3195   */\n    tag_90:\n        /* \"#utility.yul\":3262:3263   */\n      0x00\n        /* \"#utility.yul\":3251:3260   */\n      dup3\n        /* \"#utility.yul\":3247:3264   */\n      add\n        /* \"#utility.yul\":3234:3265   */\n      calldataload\n        /* \"#utility.yul\":3292:3310   */\n      0xffffffffffffffff\n        /* \"#utility.yul\":3284:3290   */\n      dup2\n        /* \"#utility.yul\":3281:3311   */\n      gt\n        /* \"#utility.yul\":3278:3395   */\n      iszero\n      tag_92\n      jumpi\n        /* \"#utility.yul\":3314:3393   */\n      tag_93\n      tag_31\n      jump\t// in\n    tag_93:\n        /* \"#utility.yul\":3278:3395   */\n    tag_92:\n        /* \"#utility.yul\":3419:3482   */\n      tag_94\n        /* \"#utility.yul\":3474:3481   */\n      dup5\n        /* \"#utility.yul\":3465:3471   */\n      dup3\n        /* \"#utility.yul\":3454:3463   */\n      dup6\n        /* \"#utility.yul\":3450:3472   */\n      add\n        /* \"#utility.yul\":3419:3482   */\n      tag_41\n      jump\t// in\n    tag_94:\n        /* \"#utility.yul\":3409:3482   */\n      swap2\n      pop\n        /* \"#utility.yul\":3205:3492   */\n      pop\n        /* \"#utility.yul\":2990:3499   */\n      swap3\n      swap2\n      pop\n      pop\n      jump\t// out\n        /* \"#utility.yul\":3505:3604   */\n    tag_42:\n        /* \"#utility.yul\":3557:3563   */\n      0x00\n        /* \"#utility.yul\":3591:3596   */\n      dup2\n        /* \"#utility.yul\":3585:3597   */\n      mload\n        /* \"#utility.yul\":3575:3597   */\n      swap1\n      pop\n        /* \"#utility.yul\":3505:3604   */\n      swap2\n      swap1\n      pop\n      jump\t// out\n        /* \"#utility.yul\":3610:3758   */\n    tag_43:\n        /* \"#utility.yul\":3712:3723   */\n      0x00\n        /* \"#utility.yul\":3749:3752   */\n      dup2\n        /* \"#utility.yul\":3734:3752   */\n      swap1\n      pop\n        /* \"#utility.yul\":3610:3758   */\n      swap3\n      swap2\n      pop\n      pop\n      jump\t// out\n        /* \"#utility.yul\":3764:3903   */\n    tag_44:\n        /* \"#utility.yul\":3853:3859   */\n      dup3\n        /* \"#utility.yul\":3848:3851   */\n      dup2\n        /* \"#utility.yul\":3843:3846   */\n      dup4\n        /* \"#utility.yul\":3837:3860   */\n      mcopy\n        /* \"#utility.yul\":3894:3895   */\n      0x00\n        /* \"#utility.yul\":3885:3891   */\n      dup4\n        /* \"#utility.yul\":3880:3883   */\n      dup4\n        /* \"#utility.yul\":3876:3892   */\n      add\n        /* \"#utility.yul\":3869:3896   */\n      mstore\n        /* \"#utility.yul\":3764:3903   */\n      pop\n      pop\n      pop\n      jump\t// out\n        /* \"#utility.yul\":3909:4299   */\n    tag_45:\n        /* \"#utility.yul\":4015:4018   */\n      0x00\n        /* \"#utility.yul\":4043:4082   */\n      tag_99\n        /* \"#utility.yul\":4076:4081   */\n      dup3\n        /* \"#utility.yul\":4043:4082   */\n      tag_42\n      jump\t// in\n    tag_99:\n        /* \"#utility.yul\":4098:4187   */\n      tag_100\n        /* \"#utility.yul\":4180:4186   */\n      dup2\n        /* \"#utility.yul\":4175:4178   */\n      dup6\n        /* \"#utility.yul\":4098:4187   */\n      tag_43\n      jump\t// in\n    tag_100:\n        /* \"#utility.yul\":4091:4187   */\n      swap4\n      pop\n        /* \"#utility.yul\":4196:4261   */\n      tag_101\n        /* \"#utility.yul\":4254:4260   */\n      dup2\n        /* \"#utility.yul\":4249:4252   */\n      dup6\n        /* \"#utility.yul\":4242:4246   */\n      0x20\n        /* \"#utility.yul\":4235:4240   */\n      dup7\n        /* \"#utility.yul\":4231:4247   */\n      add\n        /* \"#utility.yul\":4196:4261   */\n      tag_44\n      jump\t// in\n    tag_101:\n        /* \"#utility.yul\":4286:4292   */\n      dup1\n        /* \"#utility.yul\":4281:4284   */\n      dup5\n        /* \"#utility.yul\":4277:4293   */\n      add\n        /* \"#utility.yul\":4270:4293   */\n      swap2\n      pop\n        /* \"#utility.yul\":4019:4299   */\n      pop\n        /* \"#utility.yul\":3909:4299   */\n      swap3\n      swap2\n      pop\n      pop\n      jump\t// out\n        /* \"#utility.yul\":4305:4580   */\n    tag_15:\n        /* \"#utility.yul\":4437:4440   */\n      0x00\n        /* \"#utility.yul\":4459:4554   */\n      tag_103\n        /* \"#utility.yul\":4550:4553   */\n      dup3\n        /* \"#utility.yul\":4541:4547   */\n      dup5\n        /* \"#utility.yul\":4459:4554   */\n      tag_45\n      jump\t// in\n    tag_103:\n        /* \"#utility.yul\":4452:4554   */\n      swap2\n      pop\n        /* \"#utility.yul\":4571:4574   */\n      dup2\n        /* \"#utility.yul\":4564:4574   */\n      swap1\n      pop\n        /* \"#utility.yul\":4305:4580   */\n      swap3\n      swap2\n      pop\n      pop\n      jump\t// out\n        /* \"#utility.yul\":4586:4755   */\n    tag_46:\n        /* \"#utility.yul\":4670:4681   */\n      0x00\n        /* \"#utility.yul\":4704:4710   */\n      dup3\n        /* \"#utility.yul\":4699:4702   */\n      dup3\n        /* \"#utility.yul\":4692:4711   */\n      mstore\n        /* \"#utility.yul\":4744:4748   */\n      0x20\n        /* \"#utility.yul\":4739:4742   */\n      dup3\n        /* \"#utility.yul\":4735:4749   */\n      add\n        /* \"#utility.yul\":4720:4749   */\n      swap1\n      pop\n        /* \"#utility.yul\":4586:4755   */\n      swap3\n      swap2\n      pop\n      pop\n      jump\t// out\n        /* \"#utility.yul\":4761:4927   */\n    tag_47:\n        /* \"#utility.yul\":4901:4919   */\n      0x496e636f727265637420616e7377657200000000000000000000000000000000\n        /* \"#utility.yul\":4897:4898   */\n      0x00\n        /* \"#utility.yul\":4889:4895   */\n      dup3\n        /* \"#utility.yul\":4885:4899   */\n      add\n        /* \"#utility.yul\":4878:4920   */\n      mstore\n        /* \"#utility.yul\":4761:4927   */\n      pop\n      jump\t// out\n        /* \"#utility.yul\":4933:5299   */\n    tag_48:\n        /* \"#utility.yul\":5075:5078   */\n      0x00\n        /* \"#utility.yul\":5096:5163   */\n      tag_107\n        /* \"#utility.yul\":5160:5162   */\n      0x10\n        /* \"#utility.yul\":5155:5158   */\n      dup4\n        /* \"#utility.yul\":5096:5163   */\n      tag_46\n      jump\t// in\n    tag_107:\n        /* \"#utility.yul\":5089:5163   */\n      swap2\n      pop\n        /* \"#utility.yul\":5172:5265   */\n      tag_108\n        /* \"#utility.yul\":5261:5264   */\n      dup3\n        /* \"#utility.yul\":5172:5265   */\n      tag_47\n      jump\t// in\n    tag_108:\n        /* \"#utility.yul\":5290:5292   */\n      0x20\n        /* \"#utility.yul\":5285:5288   */\n      dup3\n        /* \"#utility.yul\":5281:5293   */\n      add\n        /* \"#utility.yul\":5274:5293   */\n      swap1\n      pop\n        /* \"#utility.yul\":4933:5299   */\n      swap2\n      swap1\n      pop\n      jump\t// out\n        /* \"#utility.yul\":5305:5724   */\n    tag_18:\n        /* \"#utility.yul\":5471:5475   */\n      0x00\n        /* \"#utility.yul\":5509:5511   */\n      0x20\n        /* \"#utility.yul\":5498:5507   */\n      dup3\n        /* \"#utility.yul\":5494:5512   */\n      add\n        /* \"#utility.yul\":5486:5512   */\n      swap1\n      pop\n        /* \"#utility.yul\":5558:5567   */\n      dup2\n        /* \"#utility.yul\":5552:5556   */\n      dup2\n        /* \"#utility.yul\":5548:5568   */\n      sub\n        /* \"#utility.yul\":5544:5545   */\n      0x00\n        /* \"#utility.yul\":5533:5542   */\n      dup4\n        /* \"#utility.yul\":5529:5546   */\n      add\n        /* \"#utility.yul\":5522:5569   */\n      mstore\n        /* \"#utility.yul\":5586:5717   */\n      tag_110\n        /* \"#utility.yul\":5712:5716   */\n      dup2\n        /* \"#utility.yul\":5586:5717   */\n      tag_48\n      jump\t// in\n    tag_110:\n        /* \"#utility.yul\":5578:5717   */\n      swap1\n      pop\n        /* \"#utility.yul\":5305:5724   */\n      swap2\n      swap1\n      pop\n      jump\t// out\n        /* \"#utility.yul\":5730:5877   */\n    tag_49:\n        /* \"#utility.yul\":5831:5842   */\n      0x00\n        /* \"#utility.yul\":5868:5871   */\n      dup2\n        /* \"#utility.yul\":5853:5871   */\n      swap1\n      pop\n        /* \"#utility.yul\":5730:5877   */\n      swap3\n      swap2\n      pop\n      pop\n      jump\t// out\n        /* \"#utility.yul\":5883:5997   */\n    tag_50:\n      pop\n      jump\t// out\n        /* \"#utility.yul\":6003:6401   */\n    tag_51:\n        /* \"#utility.yul\":6162:6165   */\n      0x00\n        /* \"#utility.yul\":6183:6266   */\n      tag_114\n        /* \"#utility.yul\":6264:6265   */\n      0x00\n        /* \"#utility.yul\":6259:6262   */\n      dup4\n        /* \"#utility.yul\":6183:6266   */\n      tag_49\n      jump\t// in\n    tag_114:\n        /* \"#utility.yul\":6176:6266   */\n      swap2\n      pop\n        /* \"#utility.yul\":6275:6368   */\n      tag_115\n        /* \"#utility.yul\":6364:6367   */\n      dup3\n        /* \"#utility.yul\":6275:6368   */\n      tag_50\n      jump\t// in\n    tag_115:\n        /* \"#utility.yul\":6393:6394   */\n      0x00\n        /* \"#utility.yul\":6388:6391   */\n      dup3\n        /* \"#utility.yul\":6384:6395   */\n      add\n        /* \"#utility.yul\":6377:6395   */\n      swap1\n      pop\n        /* \"#utility.yul\":6003:6401   */\n      swap2\n      swap1\n      pop\n      jump\t// out\n        /* \"#utility.yul\":6407:6786   */\n    tag_20:\n        /* \"#utility.yul\":6591:6594   */\n      0x00\n        /* \"#utility.yul\":6613:6760   */\n      tag_117\n        /* \"#utility.yul\":6756:6759   */\n      dup3\n        /* \"#utility.yul\":6613:6760   */\n      tag_51\n      jump\t// in\n    tag_117:\n        /* \"#utility.yul\":6606:6760   */\n      swap2\n      pop\n        /* \"#utility.yul\":6777:6780   */\n      dup2\n        /* \"#utility.yul\":6770:6780   */\n      swap1\n      pop\n        /* \"#utility.yul\":6407:6786   */\n      swap2\n      swap1\n      pop\n      jump\t// out\n        /* \"#utility.yul\":6792:6962   */\n    tag_52:\n        /* \"#utility.yul\":6932:6954   */\n      0x4661696c656420746f2073656e64204574686572000000000000000000000000\n        /* \"#utility.yul\":6928:6929   */\n      0x00\n        /* \"#utility.yul\":6920:6926   */\n      dup3\n        /* \"#utility.yul\":6916:6930   */\n      add\n        /* \"#utility.yul\":6909:6955   */\n      mstore\n        /* \"#utility.yul\":6792:6962   */\n      pop\n      jump\t// out\n        /* \"#utility.yul\":6968:7334   */\n    tag_53:\n        /* \"#utility.yul\":7110:7113   */\n      0x00\n        /* \"#utility.yul\":7131:7198   */\n      tag_120\n        /* \"#utility.yul\":7195:7197   */\n      0x14\n        /* \"#utility.yul\":7190:7193   */\n      dup4\n        /* \"#utility.yul\":7131:7198   */\n      tag_46\n      jump\t// in\n    tag_120:\n        /* \"#utility.yul\":7124:7198   */\n      swap2\n      pop\n        /* \"#utility.yul\":7207:7300   */\n      tag_121\n        /* \"#utility.yul\":7296:7299   */\n      dup3\n        /* \"#utility.yul\":7207:7300   */\n      tag_52\n      jump\t// in\n    tag_121:\n        /* \"#utility.yul\":7325:7327   */\n      0x20\n        /* \"#utility.yul\":7320:7323   */\n      dup3\n        /* \"#utility.yul\":7316:7328   */\n      add\n        /* \"#utility.yul\":7309:7328   */\n      swap1\n      pop\n        /* \"#utility.yul\":6968:7334   */\n      swap2\n      swap1\n      pop\n      jump\t// out\n        /* \"#utility.yul\":7340:7759   */\n    tag_26:\n        /* \"#utility.yul\":7506:7510   */\n      0x00\n        /* \"#utility.yul\":7544:7546   */\n      0x20\n        /* \"#utility.yul\":7533:7542   */\n      dup3\n        /* \"#utility.yul\":7529:7547   */\n      add\n        /* \"#utility.yul\":7521:7547   */\n      swap1\n      pop\n        /* \"#utility.yul\":7593:7602   */\n      dup2\n        /* \"#utility.yul\":7587:7591   */\n      dup2\n        /* \"#utility.yul\":7583:7603   */\n      sub\n        /* \"#utility.yul\":7579:7580   */\n      0x00\n        /* \"#utility.yul\":7568:7577   */\n      dup4\n        /* \"#utility.yul\":7564:7581   */\n      add\n        /* \"#utility.yul\":7557:7604   */\n      mstore\n        /* \"#utility.yul\":7621:7752   */\n      tag_123\n        /* \"#utility.yul\":7747:7751   */\n      dup2\n        /* \"#utility.yul\":7621:7752   */\n      tag_53\n      jump\t// in\n    tag_123:\n        /* \"#utility.yul\":7613:7752   */\n      swap1\n      pop\n        /* \"#utility.yul\":7340:7759   */\n      swap2\n      swap1\n      pop\n      jump\t// out\n\n    auxdata: 0xa26469706673582212202055a9f9fc65aec4f6ae0d7d8785902806deb165ba3a6b618739711563bc698b64736f6c634300081a0033\n}\n",
				"bytecode": {
					"linkReferences": {},
					"object": "608060405261055a806100115f395ff3fe608060405234801561000f575f80fd5b5060043610610034575f3560e01c806309bd5a601461003857806376fe1e9214610056575b5f80fd5b610040610072565b60405161004d91906101ee565b60405180910390f35b610070600480360381019061006b9190610354565b610098565b005b7f564ccaf7594d66b1eaaea24fe01f0585bf52ee70852af4eac0cc4b04711cd0e25f1b81565b806040516020016100a991906103ed565b604051602081830303815290604052805190602001207f564ccaf7594d66b1eaaea24fe01f0585bf52ee70852af4eac0cc4b04711cd0e25f1b14610122576040517f08c379a00000000000000000000000000000000000000000000000000000000081526004016101199061045d565b60405180910390fd5b5f3373ffffffffffffffffffffffffffffffffffffffff16678ac7230489e8000060405161014f906104a8565b5f6040518083038185875af1925050503d805f8114610189576040519150601f19603f3d011682016040523d82523d5f602084013e61018e565b606091505b50509050806101d2576040517f08c379a00000000000000000000000000000000000000000000000000000000081526004016101c990610506565b60405180910390fd5b5050565b5f819050919050565b6101e8816101d6565b82525050565b5f6020820190506102015f8301846101df565b92915050565b5f604051905090565b5f80fd5b5f80fd5b5f80fd5b5f80fd5b5f601f19601f8301169050919050565b7f4e487b71000000000000000000000000000000000000000000000000000000005f52604160045260245ffd5b61026682610220565b810181811067ffffffffffffffff8211171561028557610284610230565b5b80604052505050565b5f610297610207565b90506102a3828261025d565b919050565b5f67ffffffffffffffff8211156102c2576102c1610230565b5b6102cb82610220565b9050602081019050919050565b828183375f83830152505050565b5f6102f86102f3846102a8565b61028e565b9050828152602081018484840111156103145761031361021c565b5b61031f8482856102d8565b509392505050565b5f82601f83011261033b5761033a610218565b5b813561034b8482602086016102e6565b91505092915050565b5f6020828403121561036957610368610210565b5b5f82013567ffffffffffffffff81111561038657610385610214565b5b61039284828501610327565b91505092915050565b5f81519050919050565b5f81905092915050565b8281835e5f83830152505050565b5f6103c78261039b565b6103d181856103a5565b93506103e18185602086016103af565b80840191505092915050565b5f6103f882846103bd565b915081905092915050565b5f82825260208201905092915050565b7f496e636f727265637420616e73776572000000000000000000000000000000005f82015250565b5f610447601083610403565b915061045282610413565b602082019050919050565b5f6020820190508181035f8301526104748161043b565b9050919050565b5f81905092915050565b50565b5f6104935f8361047b565b915061049e82610485565b5f82019050919050565b5f6104b282610488565b9150819050919050565b7f4661696c656420746f2073656e642045746865720000000000000000000000005f82015250565b5f6104f0601483610403565b91506104fb826104bc565b602082019050919050565b5f6020820190508181035f83015261051d816104e4565b905091905056fea26469706673582212202055a9f9fc65aec4f6ae0d7d8785902806deb165ba3a6b618739711563bc698b64736f6c634300081a0033",
					"opcodes": "PUSH1 0x80 PUSH1 0x40 MSTORE PUSH2 0x55A DUP1 PUSH2 0x11 PUSH0 CODECOPY PUSH0 RETURN INVALID PUSH1 0x80 PUSH1 0x40 MSTORE CALLVALUE DUP1 ISZERO PUSH2 0xF JUMPI PUSH0 DUP1 REVERT JUMPDEST POP PUSH1 0x4 CALLDATASIZE LT PUSH2 0x34 JUMPI PUSH0 CALLDATALOAD PUSH1 0xE0 SHR DUP1 PUSH4 0x9BD5A60 EQ PUSH2 0x38 JUMPI DUP1 PUSH4 0x76FE1E92 EQ PUSH2 0x56 JUMPI JUMPDEST PUSH0 DUP1 REVERT JUMPDEST PUSH2 0x40 PUSH2 0x72 JUMP JUMPDEST PUSH1 0x40 MLOAD PUSH2 0x4D SWAP2 SWAP1 PUSH2 0x1EE JUMP JUMPDEST PUSH1 0x40 MLOAD DUP1 SWAP2 SUB SWAP1 RETURN JUMPDEST PUSH2 0x70 PUSH1 0x4 DUP1 CALLDATASIZE SUB DUP2 ADD SWAP1 PUSH2 0x6B SWAP2 SWAP1 PUSH2 0x354 JUMP JUMPDEST PUSH2 0x98 JUMP JUMPDEST STOP JUMPDEST PUSH32 0x564CCAF7594D66B1EAAEA24FE01F0585BF52EE70852AF4EAC0CC4B04711CD0E2 PUSH0 SHL DUP2 JUMP JUMPDEST DUP1 PUSH1 0x40 MLOAD PUSH1 0x20 ADD PUSH2 0xA9 SWAP2 SWAP1 PUSH2 0x3ED JUMP JUMPDEST PUSH1 0x40 MLOAD PUSH1 0x20 DUP2 DUP4 SUB SUB DUP2 MSTORE SWAP1 PUSH1 0x40 MSTORE DUP1 MLOAD SWAP1 PUSH1 0x20 ADD KECCAK256 PUSH32 0x564CCAF7594D66B1EAAEA24FE01F0585BF52EE70852AF4EAC0CC4B04711CD0E2 PUSH0 SHL EQ PUSH2 0x122 JUMPI PUSH1 0x40 MLOAD PUSH32 0x8C379A000000000000000000000000000000000000000000000000000000000 DUP2 MSTORE PUSH1 0x4 ADD PUSH2 0x119 SWAP1 PUSH2 0x45D JUMP JUMPDEST PUSH1 0x40 MLOAD DUP1 SWAP2 SUB SWAP1 REVERT JUMPDEST PUSH0 CALLER PUSH20 0xFFFFFFFFFFFFFFFFFFFFFFFFFFFFFFFFFFFFFFFF AND PUSH8 0x8AC7230489E80000 PUSH1 0x40 MLOAD PUSH2 0x14F SWAP1 PUSH2 0x4A8 JUMP JUMPDEST PUSH0 PUSH1 0x40 MLOAD DUP1 DUP4 SUB DUP2 DUP6 DUP8 GAS CALL SWAP3 POP POP POP RETURNDATASIZE DUP1 PUSH0 DUP2 EQ PUSH2 0x189 JUMPI PUSH1 0x40 MLOAD SWAP2 POP PUSH1 0x1F NOT PUSH1 0x3F RETURNDATASIZE ADD AND DUP3 ADD PUSH1 0x40 MSTORE RETURNDATASIZE DUP3 MSTORE RETURNDATASIZE PUSH0 PUSH1 0x20 DUP5 ADD RETURNDATACOPY PUSH2 0x18E JUMP JUMPDEST PUSH1 0x60 SWAP2 POP JUMPDEST POP POP SWAP1 POP DUP1 PUSH2 0x1D2 JUMPI PUSH1 0x40 MLOAD PUSH32 0x8C379A000000000000000000000000000000000000000000000000000000000 DUP2 MSTORE PUSH1 0x4 ADD PUSH2 0x1C9 SWAP1 PUSH2 0x506 JUMP JUMPDEST PUSH1 0x40 MLOAD DUP1 SWAP2 SUB SWAP1 REVERT JUMPDEST POP POP JUMP JUMPDEST PUSH0 DUP2 SWAP1 POP SWAP2 SWAP1 POP JUMP JUMPDEST PUSH2 0x1E8 DUP2 PUSH2 0x1D6 JUMP JUMPDEST DUP3 MSTORE POP POP JUMP JUMPDEST PUSH0 PUSH1 0x20 DUP3 ADD SWAP1 POP PUSH2 0x201 PUSH0 DUP4 ADD DUP5 PUSH2 0x1DF JUMP JUMPDEST SWAP3 SWAP2 POP POP JUMP JUMPDEST PUSH0 PUSH1 0x40 MLOAD SWAP1 POP SWAP1 JUMP JUMPDEST PUSH0 DUP1 REVERT JUMPDEST PUSH0 DUP1 REVERT JUMPDEST PUSH0 DUP1 REVERT JUMPDEST PUSH0 DUP1 REVERT JUMPDEST PUSH0 PUSH1 0x1F NOT PUSH1 0x1F DUP4 ADD AND SWAP1 POP SWAP2 SWAP1 POP JUMP JUMPDEST PUSH32 0x4E487B7100000000000000000000000000000000000000000000000000000000 PUSH0 MSTORE PUSH1 0x41 PUSH1 0x4 MSTORE PUSH1 0x24 PUSH0 REVERT JUMPDEST PUSH2 0x266 DUP3 PUSH2 0x220 JUMP JUMPDEST DUP2 ADD DUP2 DUP2 LT PUSH8 0xFFFFFFFFFFFFFFFF DUP3 GT OR ISZERO PUSH2 0x285 JUMPI PUSH2 0x284 PUSH2 0x230 JUMP JUMPDEST JUMPDEST DUP1 PUSH1 0x40 MSTORE POP POP POP JUMP JUMPDEST PUSH0 PUSH2 0x297 PUSH2 0x207 JUMP JUMPDEST SWAP1 POP PUSH2 0x2A3 DUP3 DUP3 PUSH2 0x25D JUMP JUMPDEST SWAP2 SWAP1 POP JUMP JUMPDEST PUSH0 PUSH8 0xFFFFFFFFFFFFFFFF DUP3 GT ISZERO PUSH2 0x2C2 JUMPI PUSH2 0x2C1 PUSH2 0x230 JUMP JUMPDEST JUMPDEST PUSH2 0x2CB DUP3 PUSH2 0x220 JUMP JUMPDEST SWAP1 POP PUSH1 0x20 DUP2 ADD SWAP1 POP SWAP2 SWAP1 POP JUMP JUMPDEST DUP3 DUP2 DUP4 CALLDATACOPY PUSH0 DUP4 DUP4 ADD MSTORE POP POP POP JUMP JUMPDEST PUSH0 PUSH2 0x2F8 PUSH2 0x2F3 DUP5 PUSH2 0x2A8 JUMP JUMPDEST PUSH2 0x28E JUMP JUMPDEST SWAP1 POP DUP3 DUP2 MSTORE PUSH1 0x20 DUP2 ADD DUP5 DUP5 DUP5 ADD GT ISZERO PUSH2 0x314 JUMPI PUSH2 0x313 PUSH2 0x21C JUMP JUMPDEST JUMPDEST PUSH2 0x31F DUP5 DUP3 DUP6 PUSH2 0x2D8 JUMP JUMPDEST POP SWAP4 SWAP3 POP POP POP JUMP JUMPDEST PUSH0 DUP3 PUSH1 0x1F DUP4 ADD SLT PUSH2 0x33B JUMPI PUSH2 0x33A PUSH2 0x218 JUMP JUMPDEST JUMPDEST DUP2 CALLDATALOAD PUSH2 0x34B DUP5 DUP3 PUSH1 0x20 DUP7 ADD PUSH2 0x2E6 JUMP JUMPDEST SWAP2 POP POP SWAP3 SWAP2 POP POP JUMP JUMPDEST PUSH0 PUSH1 0x20 DUP3 DUP5 SUB SLT ISZERO PUSH2 0x369 JUMPI PUSH2 0x368 PUSH2 0x210 JUMP JUMPDEST JUMPDEST PUSH0 DUP3 ADD CALLDATALOAD PUSH8 0xFFFFFFFFFFFFFFFF DUP2 GT ISZERO PUSH2 0x386 JUMPI PUSH2 0x385 PUSH2 0x214 JUMP JUMPDEST JUMPDEST PUSH2 0x392 DUP5 DUP3 DUP6 ADD PUSH2 0x327 JUMP JUMPDEST SWAP2 POP POP SWAP3 SWAP2 POP POP JUMP JUMPDEST PUSH0 DUP2 MLOAD SWAP1 POP SWAP2 SWAP1 POP JUMP JUMPDEST PUSH0 DUP2 SWAP1 POP SWAP3 SWAP2 POP POP JUMP JUMPDEST DUP3 DUP2 DUP4 MCOPY PUSH0 DUP4 DUP4 ADD MSTORE POP POP POP JUMP JUMPDEST PUSH0 PUSH2 0x3C7 DUP3 PUSH2 0x39B JUMP JUMPDEST PUSH2 0x3D1 DUP2 DUP6 PUSH2 0x3A5 JUMP JUMPDEST SWAP4 POP PUSH2 0x3E1 DUP2 DUP6 PUSH1 0x20 DUP7 ADD PUSH2 0x3AF JUMP JUMPDEST DUP1 DUP5 ADD SWAP2 POP POP SWAP3 SWAP2 POP POP JUMP JUMPDEST PUSH0 PUSH2 0x3F8 DUP3 DUP5 PUSH2 0x3BD JUMP JUMPDEST SWAP2 POP DUP2 SWAP1 POP SWAP3 SWAP2 POP POP JUMP JUMPDEST PUSH0 DUP3 DUP3 MSTORE PUSH1 0x20 DUP3 ADD SWAP1 POP SWAP3 SWAP2 POP POP JUMP JUMPDEST PUSH32 0x496E636F727265637420616E7377657200000000000000000000000000000000 PUSH0 DUP3 ADD MSTORE POP JUMP JUMPDEST PUSH0 PUSH2 0x447 PUSH1 0x10 DUP4 PUSH2 0x403 JUMP JUMPDEST SWAP2 POP PUSH2 0x452 DUP3 PUSH2 0x413 JUMP JUMPDEST PUSH1 0x20 DUP3 ADD SWAP1 POP SWAP2 SWAP1 POP JUMP JUMPDEST PUSH0 PUSH1 0x20 DUP3 ADD SWAP1 POP DUP2 DUP2 SUB PUSH0 DUP4 ADD MSTORE PUSH2 0x474 DUP2 PUSH2 0x43B JUMP JUMPDEST SWAP1 POP SWAP2 SWAP1 POP JUMP JUMPDEST PUSH0 DUP2 SWAP1 POP SWAP3 SWAP2 POP POP JUMP JUMPDEST POP JUMP JUMPDEST PUSH0 PUSH2 0x493 PUSH0 DUP4 PUSH2 0x47B JUMP JUMPDEST SWAP2 POP PUSH2 0x49E DUP3 PUSH2 0x485 JUMP JUMPDEST PUSH0 DUP3 ADD SWAP1 POP SWAP2 SWAP1 POP JUMP JUMPDEST PUSH0 PUSH2 0x4B2 DUP3 PUSH2 0x488 JUMP JUMPDEST SWAP2 POP DUP2 SWAP1 POP SWAP2 SWAP1 POP JUMP JUMPDEST PUSH32 0x4661696C656420746F2073656E64204574686572000000000000000000000000 PUSH0 DUP3 ADD MSTORE POP JUMP JUMPDEST PUSH0 PUSH2 0x4F0 PUSH1 0x14 DUP4 PUSH2 0x403 JUMP JUMPDEST SWAP2 POP PUSH2 0x4FB DUP3 PUSH2 0x4BC JUMP JUMPDEST PUSH1 0x20 DUP3 ADD SWAP1 POP SWAP2 SWAP1 POP JUMP JUMPDEST PUSH0 PUSH1 0x20 DUP3 ADD SWAP1 POP DUP2 DUP2 SUB PUSH0 DUP4 ADD MSTORE PUSH2 0x51D DUP2 PUSH2 0x4E4 JUMP JUMPDEST SWAP1 POP SWAP2 SWAP1 POP JUMP INVALID LOG2 PUSH5 0x6970667358 0x22 SLT KECCAK256 KECCAK256 SSTORE 0xA9 0xF9 0xFC PUSH6 0xAEC4F6AE0D7D DUP8 DUP6 SWAP1 0x28 MOD 0xDE 0xB1 PUSH6 0xBA3A6B618739 PUSH18 0x1563BC698B64736F6C634300081A00330000 "
				},
				"gasEstimates": {
					"creation": {
						"codeDepositCost": "274000",
						"executionCost": "286",
						"totalCost": "274286"
					},
					"external": {
						"hash()": "308",
						"solve(string)": "infinite"
					}
				},
				"methodIdentifiers": {
					"hash()": "09bd5a60",
					"solve(string)": "76fe1e92"
				}
			},
			"storageLayout": {
				"storage": [],
				"types": null
			},
			"userdoc": {
				"kind": "user",
				"methods": {},
				"version": 1
			}
		}
	}
}