{
	"Hacks/DeployDifferentContractAtSameAddress.sol": {
		"Deployer": {
			"abi": [
				{
					"anonymous": false,
					"inputs": [
						{
							"indexed": false,
							"internalType": "address",
							"name": "addr",
							"type": "address"
						}
					],
					"name": "Log",
					"type": "event"
				},
				{
					"inputs": [],
					"name": "deployAttack",
					"outputs": [],
					"stateMutability": "nonpayable",
					"type": "function"
				},
				{
					"inputs": [],
					"name": "deployProposal",
					"outputs": [],
					"stateMutability": "nonpayable",
					"type": "function"
				},
				{
					"inputs": [],
					"name": "kill",
					"outputs": [],
					"stateMutability": "nonpayable",
					"type": "function"
				}
			],
			"devdoc": {
				"kind": "dev",
				"methods": {},
				"version": 1
			},
			"evm": {
				"assembly": "    /* \"Hacks/DeployDifferentContractAtSameAddress.sol\":2688:3071  contract Deployer {... */\n  mstore(0x40, 0x80)\n  callvalue\n  dup1\n  iszero\n  tag_1\n  jumpi\n  0x00\n  dup1\n  revert\ntag_1:\n  pop\n  dataSize(sub_0)\n  dup1\n  dataOffset(sub_0)\n  0x00\n  codecopy\n  0x00\n  return\nstop\n\nsub_0: assembly {\n        /* \"Hacks/DeployDifferentContractAtSameAddress.sol\":2688:3071  contract Deployer {... */\n      mstore(0x40, 0x80)\n      callvalue\n      dup1\n      iszero\n      tag_1\n      jumpi\n      0x00\n      dup1\n      revert\n    tag_1:\n      pop\n      jumpi(tag_2, lt(calldatasize, 0x04))\n      shr(0xe0, calldataload(0x00))\n      dup1\n      0x41c0e1b5\n      eq\n      tag_3\n      jumpi\n      dup1\n      0x7a19ebe6\n      eq\n      tag_4\n      jumpi\n      dup1\n      0xa9cfd2ee\n      eq\n      tag_5\n      jumpi\n    tag_2:\n      0x00\n      dup1\n      revert\n        /* \"Hacks/DeployDifferentContractAtSameAddress.sol\":2991:3068  function kill() external {... */\n    tag_3:\n      tag_6\n      tag_7\n      jump\t// in\n    tag_6:\n      stop\n        /* \"Hacks/DeployDifferentContractAtSameAddress.sol\":2870:2983  function deployAttack() external {... */\n    tag_4:\n      tag_8\n      tag_9\n      jump\t// in\n    tag_8:\n      stop\n        /* \"Hacks/DeployDifferentContractAtSameAddress.sol\":2745:2862  function deployProposal() external {... */\n    tag_5:\n      tag_10\n      tag_11\n      jump\t// in\n    tag_10:\n      stop\n        /* \"Hacks/DeployDifferentContractAtSameAddress.sol\":2991:3068  function kill() external {... */\n    tag_7:\n        /* \"Hacks/DeployDifferentContractAtSameAddress.sol\":3056:3057  0 */\n      0x00\n        /* \"Hacks/DeployDifferentContractAtSameAddress.sol\":3027:3060  selfdestruct(payable(address(0))) */\n      0xffffffffffffffffffffffffffffffffffffffff\n      and\n      selfdestruct\n        /* \"Hacks/DeployDifferentContractAtSameAddress.sol\":2870:2983  function deployAttack() external {... */\n    tag_9:\n        /* \"Hacks/DeployDifferentContractAtSameAddress.sol\":2914:2926  address addr */\n      0x00\n        /* \"Hacks/DeployDifferentContractAtSameAddress.sol\":2937:2949  new Attack() */\n      mload(0x40)\n      tag_14\n      swap1\n      tag_15\n      jump\t// in\n    tag_14:\n      mload(0x40)\n      dup1\n      swap2\n      sub\n      swap1\n      0x00\n      create\n      dup1\n      iszero\n      dup1\n      iszero\n      tag_16\n      jumpi\n      returndatasize\n      0x00\n      dup1\n      returndatacopy\n      revert(0x00, returndatasize)\n    tag_16:\n      pop\n        /* \"Hacks/DeployDifferentContractAtSameAddress.sol\":2914:2950  address addr = address(new Attack()) */\n      swap1\n      pop\n        /* \"Hacks/DeployDifferentContractAtSameAddress.sol\":2966:2975  Log(addr) */\n      0xb8a00d6d8ca1be30bfec34d8f97e55f0f0fd9eeb7fb46e030516363d4cfe1ad6\n        /* \"Hacks/DeployDifferentContractAtSameAddress.sol\":2970:2974  addr */\n      dup2\n        /* \"Hacks/DeployDifferentContractAtSameAddress.sol\":2966:2975  Log(addr) */\n      mload(0x40)\n      tag_17\n      swap2\n      swap1\n      tag_18\n      jump\t// in\n    tag_17:\n      mload(0x40)\n      dup1\n      swap2\n      sub\n      swap1\n      log1\n        /* \"Hacks/DeployDifferentContractAtSameAddress.sol\":2903:2983  {... */\n      pop\n        /* \"Hacks/DeployDifferentContractAtSameAddress.sol\":2870:2983  function deployAttack() external {... */\n      jump\t// out\n        /* \"Hacks/DeployDifferentContractAtSameAddress.sol\":2745:2862  function deployProposal() external {... */\n    tag_11:\n        /* \"Hacks/DeployDifferentContractAtSameAddress.sol\":2791:2803  address addr */\n      0x00\n        /* \"Hacks/DeployDifferentContractAtSameAddress.sol\":2814:2828  new Proposal() */\n      mload(0x40)\n      tag_20\n      swap1\n      tag_21\n      jump\t// in\n    tag_20:\n      mload(0x40)\n      dup1\n      swap2\n      sub\n      swap1\n      0x00\n      create\n      dup1\n      iszero\n      dup1\n      iszero\n      tag_22\n      jumpi\n      returndatasize\n      0x00\n      dup1\n      returndatacopy\n      revert(0x00, returndatasize)\n    tag_22:\n      pop\n        /* \"Hacks/DeployDifferentContractAtSameAddress.sol\":2791:2829  address addr = address(new Proposal()) */\n      swap1\n      pop\n        /* \"Hacks/DeployDifferentContractAtSameAddress.sol\":2845:2854  Log(addr) */\n      0xb8a00d6d8ca1be30bfec34d8f97e55f0f0fd9eeb7fb46e030516363d4cfe1ad6\n        /* \"Hacks/DeployDifferentContractAtSameAddress.sol\":2849:2853  addr */\n      dup2\n        /* \"Hacks/DeployDifferentContractAtSameAddress.sol\":2845:2854  Log(addr) */\n      mload(0x40)\n      tag_23\n      swap2\n      swap1\n      tag_18\n      jump\t// in\n    tag_23:\n      mload(0x40)\n      dup1\n      swap2\n      sub\n      swap1\n      log1\n        /* \"Hacks/DeployDifferentContractAtSameAddress.sol\":2780:2862  {... */\n      pop\n        /* \"Hacks/DeployDifferentContractAtSameAddress.sol\":2745:2862  function deployProposal() external {... */\n      jump\t// out\n    tag_15:\n      dataSize(sub_0)\n      dup1\n      dataOffset(sub_0)\n      dup4\n      codecopy\n      add\n      swap1\n      jump\t// out\n    tag_21:\n      dataSize(sub_1)\n      dup1\n      dataOffset(sub_1)\n      dup4\n      codecopy\n      add\n      swap1\n      jump\t// out\n        /* \"#utility.yul\":7:133   */\n    tag_24:\n        /* \"#utility.yul\":44:51   */\n      0x00\n        /* \"#utility.yul\":84:126   */\n      0xffffffffffffffffffffffffffffffffffffffff\n        /* \"#utility.yul\":77:82   */\n      dup3\n        /* \"#utility.yul\":73:127   */\n      and\n        /* \"#utility.yul\":62:127   */\n      swap1\n      pop\n        /* \"#utility.yul\":7:133   */\n      swap2\n      swap1\n      pop\n      jump\t// out\n        /* \"#utility.yul\":139:235   */\n    tag_25:\n        /* \"#utility.yul\":176:183   */\n      0x00\n        /* \"#utility.yul\":205:229   */\n      tag_30\n        /* \"#utility.yul\":223:228   */\n      dup3\n        /* \"#utility.yul\":205:229   */\n      tag_24\n      jump\t// in\n    tag_30:\n        /* \"#utility.yul\":194:229   */\n      swap1\n      pop\n        /* \"#utility.yul\":139:235   */\n      swap2\n      swap1\n      pop\n      jump\t// out\n        /* \"#utility.yul\":241:359   */\n    tag_26:\n        /* \"#utility.yul\":328:352   */\n      tag_32\n        /* \"#utility.yul\":346:351   */\n      dup2\n        /* \"#utility.yul\":328:352   */\n      tag_25\n      jump\t// in\n    tag_32:\n        /* \"#utility.yul\":323:326   */\n      dup3\n        /* \"#utility.yul\":316:353   */\n      mstore\n        /* \"#utility.yul\":241:359   */\n      pop\n      pop\n      jump\t// out\n        /* \"#utility.yul\":365:587   */\n    tag_18:\n        /* \"#utility.yul\":458:462   */\n      0x00\n        /* \"#utility.yul\":496:498   */\n      0x20\n        /* \"#utility.yul\":485:494   */\n      dup3\n        /* \"#utility.yul\":481:499   */\n      add\n        /* \"#utility.yul\":473:499   */\n      swap1\n      pop\n        /* \"#utility.yul\":509:580   */\n      tag_34\n        /* \"#utility.yul\":577:578   */\n      0x00\n        /* \"#utility.yul\":566:575   */\n      dup4\n        /* \"#utility.yul\":562:579   */\n      add\n        /* \"#utility.yul\":553:559   */\n      dup5\n        /* \"#utility.yul\":509:580   */\n      tag_26\n      jump\t// in\n    tag_34:\n        /* \"#utility.yul\":365:587   */\n      swap3\n      swap2\n      pop\n      pop\n      jump\t// out\n    stop\n\n    sub_0: assembly {\n            /* \"Hacks/DeployDifferentContractAtSameAddress.sol\":2155:2430  contract Attack {... */\n          mstore(0x40, 0x80)\n          callvalue\n          dup1\n          iszero\n          tag_1\n          jumpi\n          0x00\n          dup1\n          revert\n        tag_1:\n          pop\n          dataSize(sub_0)\n          dup1\n          dataOffset(sub_0)\n          0x00\n          codecopy\n          0x00\n          return\n        stop\n\n        sub_0: assembly {\n                /* \"Hacks/DeployDifferentContractAtSameAddress.sol\":2155:2430  contract Attack {... */\n              mstore(0x40, 0x80)\n              callvalue\n              dup1\n              iszero\n              tag_1\n              jumpi\n              0x00\n              dup1\n              revert\n            tag_1:\n              pop\n              jumpi(tag_2, lt(calldatasize, 0x04))\n              shr(0xe0, calldataload(0x00))\n              dup1\n              0x373058b8\n              eq\n              tag_3\n              jumpi\n              dup1\n              0x8da5cb5b\n              eq\n              tag_4\n              jumpi\n            tag_2:\n              0x00\n              dup1\n              revert\n                /* \"Hacks/DeployDifferentContractAtSameAddress.sol\":2241:2427  function executeProposal() external {... */\n            tag_3:\n              tag_5\n              tag_6\n              jump\t// in\n            tag_5:\n              stop\n                /* \"Hacks/DeployDifferentContractAtSameAddress.sol\":2212:2232  address public owner */\n            tag_4:\n              tag_7\n              tag_8\n              jump\t// in\n            tag_7:\n              mload(0x40)\n              tag_9\n              swap2\n              swap1\n              tag_10\n              jump\t// in\n            tag_9:\n              mload(0x40)\n              dup1\n              swap2\n              sub\n              swap1\n              return\n                /* \"Hacks/DeployDifferentContractAtSameAddress.sol\":2241:2427  function executeProposal() external {... */\n            tag_6:\n                /* \"Hacks/DeployDifferentContractAtSameAddress.sol\":2293:2336  Log(\"Executed code not approved by DAO :)\") */\n              0xcf34ef537ac33ee1ac626ca1587a0a7e8e51561e5514f8cb36afa1c5102b3bab\n              mload(0x40)\n              tag_12\n              swap1\n              tag_13\n              jump\t// in\n            tag_12:\n              mload(0x40)\n              dup1\n              swap2\n              sub\n              swap1\n              log1\n                /* \"Hacks/DeployDifferentContractAtSameAddress.sol\":2409:2419  msg.sender */\n              caller\n                /* \"Hacks/DeployDifferentContractAtSameAddress.sol\":2401:2406  owner */\n              0x00\n              dup1\n                /* \"Hacks/DeployDifferentContractAtSameAddress.sol\":2401:2419  owner = msg.sender */\n              0x0100\n              exp\n              dup2\n              sload\n              dup2\n              0xffffffffffffffffffffffffffffffffffffffff\n              mul\n              not\n              and\n              swap1\n              dup4\n              0xffffffffffffffffffffffffffffffffffffffff\n              and\n              mul\n              or\n              swap1\n              sstore\n              pop\n                /* \"Hacks/DeployDifferentContractAtSameAddress.sol\":2241:2427  function executeProposal() external {... */\n              jump\t// out\n                /* \"Hacks/DeployDifferentContractAtSameAddress.sol\":2212:2232  address public owner */\n            tag_8:\n              0x00\n              dup1\n              sload\n              swap1\n              0x0100\n              exp\n              swap1\n              div\n              0xffffffffffffffffffffffffffffffffffffffff\n              and\n              dup2\n              jump\t// out\n                /* \"#utility.yul\":7:133   */\n            tag_14:\n                /* \"#utility.yul\":44:51   */\n              0x00\n                /* \"#utility.yul\":84:126   */\n              0xffffffffffffffffffffffffffffffffffffffff\n                /* \"#utility.yul\":77:82   */\n              dup3\n                /* \"#utility.yul\":73:127   */\n              and\n                /* \"#utility.yul\":62:127   */\n              swap1\n              pop\n                /* \"#utility.yul\":7:133   */\n              swap2\n              swap1\n              pop\n              jump\t// out\n                /* \"#utility.yul\":139:235   */\n            tag_15:\n                /* \"#utility.yul\":176:183   */\n              0x00\n                /* \"#utility.yul\":205:229   */\n              tag_23\n                /* \"#utility.yul\":223:228   */\n              dup3\n                /* \"#utility.yul\":205:229   */\n              tag_14\n              jump\t// in\n            tag_23:\n                /* \"#utility.yul\":194:229   */\n              swap1\n              pop\n                /* \"#utility.yul\":139:235   */\n              swap2\n              swap1\n              pop\n              jump\t// out\n                /* \"#utility.yul\":241:359   */\n            tag_16:\n                /* \"#utility.yul\":328:352   */\n              tag_25\n                /* \"#utility.yul\":346:351   */\n              dup2\n                /* \"#utility.yul\":328:352   */\n              tag_15\n              jump\t// in\n            tag_25:\n                /* \"#utility.yul\":323:326   */\n              dup3\n                /* \"#utility.yul\":316:353   */\n              mstore\n                /* \"#utility.yul\":241:359   */\n              pop\n              pop\n              jump\t// out\n                /* \"#utility.yul\":365:587   */\n            tag_10:\n                /* \"#utility.yul\":458:462   */\n              0x00\n                /* \"#utility.yul\":496:498   */\n              0x20\n                /* \"#utility.yul\":485:494   */\n              dup3\n                /* \"#utility.yul\":481:499   */\n              add\n                /* \"#utility.yul\":473:499   */\n              swap1\n              pop\n                /* \"#utility.yul\":509:580   */\n              tag_27\n                /* \"#utility.yul\":577:578   */\n              0x00\n                /* \"#utility.yul\":566:575   */\n              dup4\n                /* \"#utility.yul\":562:579   */\n              add\n                /* \"#utility.yul\":553:559   */\n              dup5\n                /* \"#utility.yul\":509:580   */\n              tag_16\n              jump\t// in\n            tag_27:\n                /* \"#utility.yul\":365:587   */\n              swap3\n              swap2\n              pop\n              pop\n              jump\t// out\n                /* \"#utility.yul\":593:762   */\n            tag_17:\n                /* \"#utility.yul\":677:688   */\n              0x00\n                /* \"#utility.yul\":711:717   */\n              dup3\n                /* \"#utility.yul\":706:709   */\n              dup3\n                /* \"#utility.yul\":699:718   */\n              mstore\n                /* \"#utility.yul\":751:755   */\n              0x20\n                /* \"#utility.yul\":746:749   */\n              dup3\n                /* \"#utility.yul\":742:756   */\n              add\n                /* \"#utility.yul\":727:756   */\n              swap1\n              pop\n                /* \"#utility.yul\":593:762   */\n              swap3\n              swap2\n              pop\n              pop\n              jump\t// out\n                /* \"#utility.yul\":768:983   */\n            tag_18:\n                /* \"#utility.yul\":908:942   */\n              0x457865637574656420636f6465206e6f7420617070726f766564206279204441\n                /* \"#utility.yul\":904:905   */\n              0x00\n                /* \"#utility.yul\":896:902   */\n              dup3\n                /* \"#utility.yul\":892:906   */\n              add\n                /* \"#utility.yul\":885:943   */\n              mstore\n                /* \"#utility.yul\":973:979   */\n              0x4f203a2900000000000000000000000000000000000000000000000000000000\n                /* \"#utility.yul\":968:970   */\n              0x20\n                /* \"#utility.yul\":960:966   */\n              dup3\n                /* \"#utility.yul\":956:971   */\n              add\n                /* \"#utility.yul\":949:980   */\n              mstore\n                /* \"#utility.yul\":768:983   */\n              pop\n              jump\t// out\n                /* \"#utility.yul\":985:1335   */\n            tag_19:\n                /* \"#utility.yul\":1127:1130   */\n              0x00\n                /* \"#utility.yul\":1144:1211   */\n              tag_31\n                /* \"#utility.yul\":1208:1210   */\n              0x24\n                /* \"#utility.yul\":1203:1206   */\n              dup4\n                /* \"#utility.yul\":1144:1211   */\n              tag_17\n              jump\t// in\n            tag_31:\n                /* \"#utility.yul\":1137:1211   */\n              swap2\n              pop\n                /* \"#utility.yul\":1216:1309   */\n              tag_32\n                /* \"#utility.yul\":1305:1308   */\n              dup3\n                /* \"#utility.yul\":1216:1309   */\n              tag_18\n              jump\t// in\n            tag_32:\n                /* \"#utility.yul\":1330:1332   */\n              0x40\n                /* \"#utility.yul\":1325:1328   */\n              dup3\n                /* \"#utility.yul\":1321:1333   */\n              add\n                /* \"#utility.yul\":1314:1333   */\n              swap1\n              pop\n                /* \"#utility.yul\":985:1335   */\n              swap2\n              swap1\n              pop\n              jump\t// out\n                /* \"#utility.yul\":1337:1740   */\n            tag_13:\n                /* \"#utility.yul\":1503:1507   */\n              0x00\n                /* \"#utility.yul\":1537:1539   */\n              0x20\n                /* \"#utility.yul\":1526:1535   */\n              dup3\n                /* \"#utility.yul\":1522:1540   */\n              add\n                /* \"#utility.yul\":1514:1540   */\n              swap1\n              pop\n                /* \"#utility.yul\":1582:1591   */\n              dup2\n                /* \"#utility.yul\":1576:1580   */\n              dup2\n                /* \"#utility.yul\":1572:1592   */\n              sub\n                /* \"#utility.yul\":1568:1569   */\n              0x00\n                /* \"#utility.yul\":1557:1566   */\n              dup4\n                /* \"#utility.yul\":1553:1570   */\n              add\n                /* \"#utility.yul\":1546:1593   */\n              mstore\n                /* \"#utility.yul\":1606:1737   */\n              tag_34\n                /* \"#utility.yul\":1732:1736   */\n              dup2\n                /* \"#utility.yul\":1606:1737   */\n              tag_19\n              jump\t// in\n            tag_34:\n                /* \"#utility.yul\":1598:1737   */\n              swap1\n              pop\n                /* \"#utility.yul\":1337:1740   */\n              swap2\n              swap1\n              pop\n              jump\t// out\n\n            auxdata: 0xa2646970667358221220891b8d5bfeeee2bd3a09c89b63d293423889272c7150782c6c4831a7fe326fb864736f6c634300081a0033\n        }\n    }\n\n    sub_1: assembly {\n            /* \"Hacks/DeployDifferentContractAtSameAddress.sol\":1899:2151  contract Proposal {... */\n          mstore(0x40, 0x80)\n          callvalue\n          dup1\n          iszero\n          tag_1\n          jumpi\n          0x00\n          dup1\n          revert\n        tag_1:\n          pop\n          dataSize(sub_0)\n          dup1\n          dataOffset(sub_0)\n          0x00\n          codecopy\n          0x00\n          return\n        stop\n\n        sub_0: assembly {\n                /* \"Hacks/DeployDifferentContractAtSameAddress.sol\":1899:2151  contract Proposal {... */\n              mstore(0x40, 0x80)\n              callvalue\n              dup1\n              iszero\n              tag_1\n              jumpi\n              0x00\n              dup1\n              revert\n            tag_1:\n              pop\n              jumpi(tag_2, lt(calldatasize, 0x04))\n              shr(0xe0, calldataload(0x00))\n              dup1\n              0x373058b8\n              eq\n              tag_3\n              jumpi\n              dup1\n              0x63a599a4\n              eq\n              tag_4\n              jumpi\n            tag_2:\n              0x00\n              dup1\n              revert\n                /* \"Hacks/DeployDifferentContractAtSameAddress.sol\":1958:2054  function executeProposal() external {... */\n            tag_3:\n              tag_5\n              tag_6\n              jump\t// in\n            tag_5:\n              stop\n                /* \"Hacks/DeployDifferentContractAtSameAddress.sol\":2062:2148  function emergencyStop() external {... */\n            tag_4:\n              tag_7\n              tag_8\n              jump\t// in\n            tag_7:\n              stop\n                /* \"Hacks/DeployDifferentContractAtSameAddress.sol\":1958:2054  function executeProposal() external {... */\n            tag_6:\n                /* \"Hacks/DeployDifferentContractAtSameAddress.sol\":2010:2046  Log(\"Executed code approved by DAO\") */\n              0xcf34ef537ac33ee1ac626ca1587a0a7e8e51561e5514f8cb36afa1c5102b3bab\n              mload(0x40)\n              tag_10\n              swap1\n              tag_11\n              jump\t// in\n            tag_10:\n              mload(0x40)\n              dup1\n              swap2\n              sub\n              swap1\n              log1\n                /* \"Hacks/DeployDifferentContractAtSameAddress.sol\":1958:2054  function executeProposal() external {... */\n              jump\t// out\n                /* \"Hacks/DeployDifferentContractAtSameAddress.sol\":2062:2148  function emergencyStop() external {... */\n            tag_8:\n                /* \"Hacks/DeployDifferentContractAtSameAddress.sol\":2136:2137  0 */\n              0x00\n                /* \"Hacks/DeployDifferentContractAtSameAddress.sol\":2107:2140  selfdestruct(payable(address(0))) */\n              0xffffffffffffffffffffffffffffffffffffffff\n              and\n              selfdestruct\n                /* \"#utility.yul\":7:176   */\n            tag_13:\n                /* \"#utility.yul\":91:102   */\n              0x00\n                /* \"#utility.yul\":125:131   */\n              dup3\n                /* \"#utility.yul\":120:123   */\n              dup3\n                /* \"#utility.yul\":113:132   */\n              mstore\n                /* \"#utility.yul\":165:169   */\n              0x20\n                /* \"#utility.yul\":160:163   */\n              dup3\n                /* \"#utility.yul\":156:170   */\n              add\n                /* \"#utility.yul\":141:170   */\n              swap1\n              pop\n                /* \"#utility.yul\":7:176   */\n              swap3\n              swap2\n              pop\n              pop\n              jump\t// out\n                /* \"#utility.yul\":182:361   */\n            tag_14:\n                /* \"#utility.yul\":322:353   */\n              0x457865637574656420636f646520617070726f7665642062792044414f000000\n                /* \"#utility.yul\":318:319   */\n              0x00\n                /* \"#utility.yul\":310:316   */\n              dup3\n                /* \"#utility.yul\":306:320   */\n              add\n                /* \"#utility.yul\":299:354   */\n              mstore\n                /* \"#utility.yul\":182:361   */\n              pop\n              jump\t// out\n                /* \"#utility.yul\":367:733   */\n            tag_15:\n                /* \"#utility.yul\":509:512   */\n              0x00\n                /* \"#utility.yul\":530:597   */\n              tag_20\n                /* \"#utility.yul\":594:596   */\n              0x1d\n                /* \"#utility.yul\":589:592   */\n              dup4\n                /* \"#utility.yul\":530:597   */\n              tag_13\n              jump\t// in\n            tag_20:\n                /* \"#utility.yul\":523:597   */\n              swap2\n              pop\n                /* \"#utility.yul\":606:699   */\n              tag_21\n                /* \"#utility.yul\":695:698   */\n              dup3\n                /* \"#utility.yul\":606:699   */\n              tag_14\n              jump\t// in\n            tag_21:\n                /* \"#utility.yul\":724:726   */\n              0x20\n                /* \"#utility.yul\":719:722   */\n              dup3\n                /* \"#utility.yul\":715:727   */\n              add\n                /* \"#utility.yul\":708:727   */\n              swap1\n              pop\n                /* \"#utility.yul\":367:733   */\n              swap2\n              swap1\n              pop\n              jump\t// out\n                /* \"#utility.yul\":739:1158   */\n            tag_11:\n                /* \"#utility.yul\":905:909   */\n              0x00\n                /* \"#utility.yul\":943:945   */\n              0x20\n                /* \"#utility.yul\":932:941   */\n              dup3\n                /* \"#utility.yul\":928:946   */\n              add\n                /* \"#utility.yul\":920:946   */\n              swap1\n              pop\n                /* \"#utility.yul\":992:1001   */\n              dup2\n                /* \"#utility.yul\":986:990   */\n              dup2\n                /* \"#utility.yul\":982:1002   */\n              sub\n                /* \"#utility.yul\":978:979   */\n              0x00\n                /* \"#utility.yul\":967:976   */\n              dup4\n                /* \"#utility.yul\":963:980   */\n              add\n                /* \"#utility.yul\":956:1003   */\n              mstore\n                /* \"#utility.yul\":1020:1151   */\n              tag_23\n                /* \"#utility.yul\":1146:1150   */\n              dup2\n                /* \"#utility.yul\":1020:1151   */\n              tag_15\n              jump\t// in\n            tag_23:\n                /* \"#utility.yul\":1012:1151   */\n              swap1\n              pop\n                /* \"#utility.yul\":739:1158   */\n              swap2\n              swap1\n              pop\n              jump\t// out\n\n            auxdata: 0xa26469706673582212205457e47a8d9f550dfabacd55b4999898f63c5c90664b99144947e56c1103734364736f6c634300081a0033\n        }\n    }\n\n    auxdata: 0xa2646970667358221220335f300f52dbd3df2eaa6a6c1a7ff1824839980d5cc47da9489fb4df941d062d64736f6c634300081a0033\n}\n",
				"bytecode": {
					"linkReferences": {},
					"object": "6080604052348015600e575f80fd5b5061058f8061001c5f395ff3fe608060405234801561000f575f80fd5b506004361061003f575f3560e01c806341c0e1b5146100435780637a19ebe61461004d578063a9cfd2ee14610057575b5f80fd5b61004b610061565b005b61005561007a565b005b61005f6100dd565b005b5f73ffffffffffffffffffffffffffffffffffffffff16ff5b5f60405161008790610140565b604051809103905ff0801580156100a0573d5f803e3d5ffd5b5090507fb8a00d6d8ca1be30bfec34d8f97e55f0f0fd9eeb7fb46e030516363d4cfe1ad6816040516100d29190610199565b60405180910390a150565b5f6040516100ea9061014d565b604051809103905ff080158015610103573d5f803e3d5ffd5b5090507fb8a00d6d8ca1be30bfec34d8f97e55f0f0fd9eeb7fb46e030516363d4cfe1ad6816040516101359190610199565b60405180910390a150565b610241806101b383390190565b610166806103f483390190565b5f73ffffffffffffffffffffffffffffffffffffffff82169050919050565b5f6101838261015a565b9050919050565b61019381610179565b82525050565b5f6020820190506101ac5f83018461018a565b9291505056fe6080604052348015600e575f80fd5b506102258061001c5f395ff3fe608060405234801561000f575f80fd5b5060043610610034575f3560e01c8063373058b8146100385780638da5cb5b14610042575b5f80fd5b610040610060565b005b61004a6100d6565b6040516100579190610138565b60405180910390f35b7fcf34ef537ac33ee1ac626ca1587a0a7e8e51561e5514f8cb36afa1c5102b3bab60405161008d906101d1565b60405180910390a1335f806101000a81548173ffffffffffffffffffffffffffffffffffffffff021916908373ffffffffffffffffffffffffffffffffffffffff160217905550565b5f8054906101000a900473ffffffffffffffffffffffffffffffffffffffff1681565b5f73ffffffffffffffffffffffffffffffffffffffff82169050919050565b5f610122826100f9565b9050919050565b61013281610118565b82525050565b5f60208201905061014b5f830184610129565b92915050565b5f82825260208201905092915050565b7f457865637574656420636f6465206e6f7420617070726f7665642062792044415f8201527f4f203a2900000000000000000000000000000000000000000000000000000000602082015250565b5f6101bb602483610151565b91506101c682610161565b604082019050919050565b5f6020820190508181035f8301526101e8816101af565b905091905056fea2646970667358221220891b8d5bfeeee2bd3a09c89b63d293423889272c7150782c6c4831a7fe326fb864736f6c634300081a00336080604052348015600e575f80fd5b5061014a8061001c5f395ff3fe608060405234801561000f575f80fd5b5060043610610034575f3560e01c8063373058b81461003857806363a599a414610042575b5f80fd5b61004061004c565b005b61004a610083565b005b7fcf34ef537ac33ee1ac626ca1587a0a7e8e51561e5514f8cb36afa1c5102b3bab604051610079906100f6565b60405180910390a1565b5f73ffffffffffffffffffffffffffffffffffffffff16ff5b5f82825260208201905092915050565b7f457865637574656420636f646520617070726f7665642062792044414f0000005f82015250565b5f6100e0601d8361009c565b91506100eb826100ac565b602082019050919050565b5f6020820190508181035f83015261010d816100d4565b905091905056fea26469706673582212205457e47a8d9f550dfabacd55b4999898f63c5c90664b99144947e56c1103734364736f6c634300081a0033a2646970667358221220335f300f52dbd3df2eaa6a6c1a7ff1824839980d5cc47da9489fb4df941d062d64736f6c634300081a0033",
					"opcodes": "PUSH1 0x80 PUSH1 0x40 MSTORE CALLVALUE DUP1 ISZERO PUSH1 0xE JUMPI PUSH0 DUP1 REVERT JUMPDEST POP PUSH2 0x58F DUP1 PUSH2 0x1C PUSH0 CODECOPY PUSH0 RETURN INVALID PUSH1 0x80 PUSH1 0x40 MSTORE CALLVALUE DUP1 ISZERO PUSH2 0xF JUMPI PUSH0 DUP1 REVERT JUMPDEST POP PUSH1 0x4 CALLDATASIZE LT PUSH2 0x3F JUMPI PUSH0 CALLDATALOAD PUSH1 0xE0 SHR DUP1 PUSH4 0x41C0E1B5 EQ PUSH2 0x43 JUMPI DUP1 PUSH4 0x7A19EBE6 EQ PUSH2 0x4D JUMPI DUP1 PUSH4 0xA9CFD2EE EQ PUSH2 0x57 JUMPI JUMPDEST PUSH0 DUP1 REVERT JUMPDEST PUSH2 0x4B PUSH2 0x61 JUMP JUMPDEST STOP JUMPDEST PUSH2 0x55 PUSH2 0x7A JUMP JUMPDEST STOP JUMPDEST PUSH2 0x5F PUSH2 0xDD JUMP JUMPDEST STOP JUMPDEST PUSH0 PUSH20 0xFFFFFFFFFFFFFFFFFFFFFFFFFFFFFFFFFFFFFFFF AND SELFDESTRUCT JUMPDEST PUSH0 PUSH1 0x40 MLOAD PUSH2 0x87 SWAP1 PUSH2 0x140 JUMP JUMPDEST PUSH1 0x40 MLOAD DUP1 SWAP2 SUB SWAP1 PUSH0 CREATE DUP1 ISZERO DUP1 ISZERO PUSH2 0xA0 JUMPI RETURNDATASIZE PUSH0 DUP1 RETURNDATACOPY RETURNDATASIZE PUSH0 REVERT JUMPDEST POP SWAP1 POP PUSH32 0xB8A00D6D8CA1BE30BFEC34D8F97E55F0F0FD9EEB7FB46E030516363D4CFE1AD6 DUP2 PUSH1 0x40 MLOAD PUSH2 0xD2 SWAP2 SWAP1 PUSH2 0x199 JUMP JUMPDEST PUSH1 0x40 MLOAD DUP1 SWAP2 SUB SWAP1 LOG1 POP JUMP JUMPDEST PUSH0 PUSH1 0x40 MLOAD PUSH2 0xEA SWAP1 PUSH2 0x14D JUMP JUMPDEST PUSH1 0x40 MLOAD DUP1 SWAP2 SUB SWAP1 PUSH0 CREATE DUP1 ISZERO DUP1 ISZERO PUSH2 0x103 JUMPI RETURNDATASIZE PUSH0 DUP1 RETURNDATACOPY RETURNDATASIZE PUSH0 REVERT JUMPDEST POP SWAP1 POP PUSH32 0xB8A00D6D8CA1BE30BFEC34D8F97E55F0F0FD9EEB7FB46E030516363D4CFE1AD6 DUP2 PUSH1 0x40 MLOAD PUSH2 0x135 SWAP2 SWAP1 PUSH2 0x199 JUMP JUMPDEST PUSH1 0x40 MLOAD DUP1 SWAP2 SUB SWAP1 LOG1 POP JUMP JUMPDEST PUSH2 0x241 DUP1 PUSH2 0x1B3 DUP4 CODECOPY ADD SWAP1 JUMP JUMPDEST PUSH2 0x166 DUP1 PUSH2 0x3F4 DUP4 CODECOPY ADD SWAP1 JUMP JUMPDEST PUSH0 PUSH20 0xFFFFFFFFFFFFFFFFFFFFFFFFFFFFFFFFFFFFFFFF DUP3 AND SWAP1 POP SWAP2 SWAP1 POP JUMP JUMPDEST PUSH0 PUSH2 0x183 DUP3 PUSH2 0x15A JUMP JUMPDEST SWAP1 POP SWAP2 SWAP1 POP JUMP JUMPDEST PUSH2 0x193 DUP2 PUSH2 0x179 JUMP JUMPDEST DUP3 MSTORE POP POP JUMP JUMPDEST PUSH0 PUSH1 0x20 DUP3 ADD SWAP1 POP PUSH2 0x1AC PUSH0 DUP4 ADD DUP5 PUSH2 0x18A JUMP JUMPDEST SWAP3 SWAP2 POP POP JUMP INVALID PUSH1 0x80 PUSH1 0x40 MSTORE CALLVALUE DUP1 ISZERO PUSH1 0xE JUMPI PUSH0 DUP1 REVERT JUMPDEST POP PUSH2 0x225 DUP1 PUSH2 0x1C PUSH0 CODECOPY PUSH0 RETURN INVALID PUSH1 0x80 PUSH1 0x40 MSTORE CALLVALUE DUP1 ISZERO PUSH2 0xF JUMPI PUSH0 DUP1 REVERT JUMPDEST POP PUSH1 0x4 CALLDATASIZE LT PUSH2 0x34 JUMPI PUSH0 CALLDATALOAD PUSH1 0xE0 SHR DUP1 PUSH4 0x373058B8 EQ PUSH2 0x38 JUMPI DUP1 PUSH4 0x8DA5CB5B EQ PUSH2 0x42 JUMPI JUMPDEST PUSH0 DUP1 REVERT JUMPDEST PUSH2 0x40 PUSH2 0x60 JUMP JUMPDEST STOP JUMPDEST PUSH2 0x4A PUSH2 0xD6 JUMP JUMPDEST PUSH1 0x40 MLOAD PUSH2 0x57 SWAP2 SWAP1 PUSH2 0x138 JUMP JUMPDEST PUSH1 0x40 MLOAD DUP1 SWAP2 SUB SWAP1 RETURN JUMPDEST PUSH32 0xCF34EF537AC33EE1AC626CA1587A0A7E8E51561E5514F8CB36AFA1C5102B3BAB PUSH1 0x40 MLOAD PUSH2 0x8D SWAP1 PUSH2 0x1D1 JUMP JUMPDEST PUSH1 0x40 MLOAD DUP1 SWAP2 SUB SWAP1 LOG1 CALLER PUSH0 DUP1 PUSH2 0x100 EXP DUP2 SLOAD DUP2 PUSH20 0xFFFFFFFFFFFFFFFFFFFFFFFFFFFFFFFFFFFFFFFF MUL NOT AND SWAP1 DUP4 PUSH20 0xFFFFFFFFFFFFFFFFFFFFFFFFFFFFFFFFFFFFFFFF AND MUL OR SWAP1 SSTORE POP JUMP JUMPDEST PUSH0 DUP1 SLOAD SWAP1 PUSH2 0x100 EXP SWAP1 DIV PUSH20 0xFFFFFFFFFFFFFFFFFFFFFFFFFFFFFFFFFFFFFFFF AND DUP2 JUMP JUMPDEST PUSH0 PUSH20 0xFFFFFFFFFFFFFFFFFFFFFFFFFFFFFFFFFFFFFFFF DUP3 AND SWAP1 POP SWAP2 SWAP1 POP JUMP JUMPDEST PUSH0 PUSH2 0x122 DUP3 PUSH2 0xF9 JUMP JUMPDEST SWAP1 POP SWAP2 SWAP1 POP JUMP JUMPDEST PUSH2 0x132 DUP2 PUSH2 0x118 JUMP JUMPDEST DUP3 MSTORE POP POP JUMP JUMPDEST PUSH0 PUSH1 0x20 DUP3 ADD SWAP1 POP PUSH2 0x14B PUSH0 DUP4 ADD DUP5 PUSH2 0x129 JUMP JUMPDEST SWAP3 SWAP2 POP POP JUMP JUMPDEST PUSH0 DUP3 DUP3 MSTORE PUSH1 0x20 DUP3 ADD SWAP1 POP SWAP3 SWAP2 POP POP JUMP JUMPDEST PUSH32 0x457865637574656420636F6465206E6F7420617070726F766564206279204441 PUSH0 DUP3 ADD MSTORE PUSH32 0x4F203A2900000000000000000000000000000000000000000000000000000000 PUSH1 0x20 DUP3 ADD MSTORE POP JUMP JUMPDEST PUSH0 PUSH2 0x1BB PUSH1 0x24 DUP4 PUSH2 0x151 JUMP JUMPDEST SWAP2 POP PUSH2 0x1C6 DUP3 PUSH2 0x161 JUMP JUMPDEST PUSH1 0x40 DUP3 ADD SWAP1 POP SWAP2 SWAP1 POP JUMP JUMPDEST PUSH0 PUSH1 0x20 DUP3 ADD SWAP1 POP DUP2 DUP2 SUB PUSH0 DUP4 ADD MSTORE PUSH2 0x1E8 DUP2 PUSH2 0x1AF JUMP JUMPDEST SWAP1 POP SWAP2 SWAP1 POP JUMP INVALID LOG2 PUSH5 0x6970667358 0x22 SLT KECCAK256 DUP10 SHL DUP14 JUMPDEST INVALID 0xEE 0xE2 0xBD GASPRICE MULMOD 0xC8 SWAP12 PUSH4 0xD2934238 DUP10 0x27 0x2C PUSH18 0x50782C6C4831A7FE326FB864736F6C634300 ADDMOD BYTE STOP CALLER PUSH1 0x80 PUSH1 0x40 MSTORE CALLVALUE DUP1 ISZERO PUSH1 0xE JUMPI PUSH0 DUP1 REVERT JUMPDEST POP PUSH2 0x14A DUP1 PUSH2 0x1C PUSH0 CODECOPY PUSH0 RETURN INVALID PUSH1 0x80 PUSH1 0x40 MSTORE CALLVALUE DUP1 ISZERO PUSH2 0xF JUMPI PUSH0 DUP1 REVERT JUMPDEST POP PUSH1 0x4 CALLDATASIZE LT PUSH2 0x34 JUMPI PUSH0 CALLDATALOAD PUSH1 0xE0 SHR DUP1 PUSH4 0x373058B8 EQ PUSH2 0x38 JUMPI DUP1 PUSH4 0x63A599A4 EQ PUSH2 0x42 JUMPI JUMPDEST PUSH0 DUP1 REVERT JUMPDEST PUSH2 0x40 PUSH2 0x4C JUMP JUMPDEST STOP JUMPDEST PUSH2 0x4A PUSH2 0x83 JUMP JUMPDEST STOP JUMPDEST PUSH32 0xCF34EF537AC33EE1AC626CA1587A0A7E8E51561E5514F8CB36AFA1C5102B3BAB PUSH1 0x40 MLOAD PUSH2 0x79 SWAP1 PUSH2 0xF6 JUMP JUMPDEST PUSH1 0x40 MLOAD DUP1 SWAP2 SUB SWAP1 LOG1 JUMP JUMPDEST PUSH0 PUSH20 0xFFFFFFFFFFFFFFFFFFFFFFFFFFFFFFFFFFFFFFFF AND SELFDESTRUCT JUMPDEST PUSH0 DUP3 DUP3 MSTORE PUSH1 0x20 DUP3 ADD SWAP1 POP SWAP3 SWAP2 POP POP JUMP JUMPDEST PUSH32 0x457865637574656420636F646520617070726F7665642062792044414F000000 PUSH0 DUP3 ADD MSTORE POP JUMP JUMPDEST PUSH0 PUSH2 0xE0 PUSH1 0x1D DUP4 PUSH2 0x9C JUMP JUMPDEST SWAP2 POP PUSH2 0xEB DUP3 PUSH2 0xAC JUMP JUMPDEST PUSH1 0x20 DUP3 ADD SWAP1 POP SWAP2 SWAP1 POP JUMP JUMPDEST PUSH0 PUSH1 0x20 DUP3 ADD SWAP1 POP DUP2 DUP2 SUB PUSH0 DUP4 ADD MSTORE PUSH2 0x10D DUP2 PUSH2 0xD4 JUMP JUMPDEST SWAP1 POP SWAP2 SWAP1 POP JUMP INVALID LOG2 PUSH5 0x6970667358 0x22 SLT KECCAK256 SLOAD JUMPI 0xE4 PUSH27 0x8D9F550DFABACD55B4999898F63C5C90664B99144947E56C110373 NUMBER PUSH5 0x736F6C6343 STOP ADDMOD BYTE STOP CALLER LOG2 PUSH5 0x6970667358 0x22 SLT KECCAK256 CALLER PUSH0 ADDRESS 0xF MSTORE 0xDB 0xD3 0xDF 0x2E 0xAA PUSH11 0x6C1A7FF1824839980D5CC4 PUSH30 0xA9489FB4DF941D062D64736F6C634300081A003300000000000000000000 "
				},
				"gasEstimates": {
					"creation": {
						"codeDepositCost": "284600",
						"executionCost": "322",
						"totalCost": "284922"
					},
					"external": {
						"deployAttack()": "infinite",
						"deployProposal()": "infinite",
						"kill()": "27720"
					}
				},
				"methodIdentifiers": {
					"deployAttack()": "7a19ebe6",
					"deployProposal()": "a9cfd2ee",
					"kill()": "41c0e1b5"
				}
			},
			"storageLayout": {
				"storage": [],
				"types": null
			},
			"userdoc": {
				"kind": "user",
				"methods": {},
				"version": 1
			}
		}
	}
}