{
	"Hacks/SelfDestruct.sol": {
		"PreventEtherGame": {
			"abi": [
				{
					"inputs": [],
					"name": "TARGET_AMOUNT",
					"outputs": [
						{
							"internalType": "uint256",
							"name": "",
							"type": "uint256"
						}
					],
					"stateMutability": "view",
					"type": "function"
				},
				{
					"inputs": [],
					"name": "balance",
					"outputs": [
						{
							"internalType": "uint256",
							"name": "",
							"type": "uint256"
						}
					],
					"stateMutability": "view",
					"type": "function"
				},
				{
					"inputs": [],
					"name": "claimReward",
					"outputs": [],
					"stateMutability": "nonpayable",
					"type": "function"
				},
				{
					"inputs": [],
					"name": "deposit",
					"outputs": [],
					"stateMutability": "payable",
					"type": "function"
				},
				{
					"inputs": [],
					"name": "winner",
					"outputs": [
						{
							"internalType": "address",
							"name": "",
							"type": "address"
						}
					],
					"stateMutability": "view",
					"type": "function"
				}
			],
			"devdoc": {
				"kind": "dev",
				"methods": {},
				"version": 1
			},
			"evm": {
				"assembly": "    /* \"Hacks/SelfDestruct.sol\":2029:2735  contract PreventEtherGame {... */\n  mstore(0x40, 0x80)\n  callvalue\n  dup1\n  iszero\n  tag_1\n  jumpi\n  revert(0x00, 0x00)\ntag_1:\n  pop\n  dataSize(sub_0)\n  dup1\n  dataOffset(sub_0)\n  0x00\n  codecopy\n  0x00\n  return\nstop\n\nsub_0: assembly {\n        /* \"Hacks/SelfDestruct.sol\":2029:2735  contract PreventEtherGame {... */\n      mstore(0x40, 0x80)\n      jumpi(tag_1, lt(calldatasize, 0x04))\n      shr(0xe0, calldataload(0x00))\n      dup1\n      0x30f0dbe0\n      eq\n      tag_2\n      jumpi\n      dup1\n      0xb69ef8a8\n      eq\n      tag_3\n      jumpi\n      dup1\n      0xb88a802f\n      eq\n      tag_4\n      jumpi\n      dup1\n      0xd0e30db0\n      eq\n      tag_5\n      jumpi\n      dup1\n      0xdfbf53ae\n      eq\n      tag_6\n      jumpi\n    tag_1:\n      revert(0x00, 0x00)\n        /* \"Hacks/SelfDestruct.sol\":2062:2109  uint256 public constant TARGET_AMOUNT = 7 ether */\n    tag_2:\n      callvalue\n      dup1\n      iszero\n      tag_7\n      jumpi\n      revert(0x00, 0x00)\n    tag_7:\n      pop\n      tag_8\n      tag_9\n      jump\t// in\n    tag_8:\n      mload(0x40)\n      tag_10\n      swap2\n      swap1\n      tag_11\n      jump\t// in\n    tag_10:\n      mload(0x40)\n      dup1\n      swap2\n      sub\n      swap1\n      return\n        /* \"Hacks/SelfDestruct.sol\":2116:2138  uint256 public balance */\n    tag_3:\n      callvalue\n      dup1\n      iszero\n      tag_12\n      jumpi\n      revert(0x00, 0x00)\n    tag_12:\n      pop\n      tag_13\n      tag_14\n      jump\t// in\n    tag_13:\n      mload(0x40)\n      tag_15\n      swap2\n      swap1\n      tag_11\n      jump\t// in\n    tag_15:\n      mload(0x40)\n      dup1\n      swap2\n      sub\n      swap1\n      return\n        /* \"Hacks/SelfDestruct.sol\":2474:2732  function claimReward() public {... */\n    tag_4:\n      callvalue\n      dup1\n      iszero\n      tag_16\n      jumpi\n      revert(0x00, 0x00)\n    tag_16:\n      pop\n      tag_17\n      tag_18\n      jump\t// in\n    tag_17:\n      stop\n        /* \"Hacks/SelfDestruct.sol\":2175:2466  function deposit() public payable {... */\n    tag_5:\n      tag_19\n      tag_20\n      jump\t// in\n    tag_19:\n      stop\n        /* \"Hacks/SelfDestruct.sol\":2145:2166  address public winner */\n    tag_6:\n      callvalue\n      dup1\n      iszero\n      tag_21\n      jumpi\n      revert(0x00, 0x00)\n    tag_21:\n      pop\n      tag_22\n      tag_23\n      jump\t// in\n    tag_22:\n      mload(0x40)\n      tag_24\n      swap2\n      swap1\n      tag_25\n      jump\t// in\n    tag_24:\n      mload(0x40)\n      dup1\n      swap2\n      sub\n      swap1\n      return\n        /* \"Hacks/SelfDestruct.sol\":2062:2109  uint256 public constant TARGET_AMOUNT = 7 ether */\n    tag_9:\n        /* \"Hacks/SelfDestruct.sol\":2102:2109  7 ether */\n      0x6124fee993bc0000\n        /* \"Hacks/SelfDestruct.sol\":2062:2109  uint256 public constant TARGET_AMOUNT = 7 ether */\n      dup2\n      jump\t// out\n        /* \"Hacks/SelfDestruct.sol\":2116:2138  uint256 public balance */\n    tag_14:\n      sload(0x00)\n      dup2\n      jump\t// out\n        /* \"Hacks/SelfDestruct.sol\":2474:2732  function claimReward() public {... */\n    tag_18:\n        /* \"Hacks/SelfDestruct.sol\":2537:2543  winner */\n      0x01\n      0x00\n      swap1\n      sload\n      swap1\n      0x0100\n      exp\n      swap1\n      div\n      0xffffffffffffffffffffffffffffffffffffffff\n      and\n        /* \"Hacks/SelfDestruct.sol\":2523:2543  msg.sender == winner */\n      0xffffffffffffffffffffffffffffffffffffffff\n      and\n        /* \"Hacks/SelfDestruct.sol\":2523:2533  msg.sender */\n      caller\n        /* \"Hacks/SelfDestruct.sol\":2523:2543  msg.sender == winner */\n      0xffffffffffffffffffffffffffffffffffffffff\n      and\n      eq\n        /* \"Hacks/SelfDestruct.sol\":2515:2558  require(msg.sender == winner, \"Not winner\") */\n      tag_27\n      jumpi\n      mload(0x40)\n      0x08c379a000000000000000000000000000000000000000000000000000000000\n      dup2\n      mstore\n      0x04\n      add\n      tag_28\n      swap1\n      tag_29\n      jump\t// in\n    tag_28:\n      mload(0x40)\n      dup1\n      swap2\n      sub\n      swap1\n      revert\n    tag_27:\n        /* \"Hacks/SelfDestruct.sol\":2569:2583  uint256 amount */\n      0x00\n        /* \"Hacks/SelfDestruct.sol\":2586:2593  balance */\n      sload(0x00)\n        /* \"Hacks/SelfDestruct.sol\":2569:2593  uint256 amount = balance */\n      swap1\n      pop\n        /* \"Hacks/SelfDestruct.sol\":2614:2615  0 */\n      0x00\n        /* \"Hacks/SelfDestruct.sol\":2604:2611  balance */\n      0x00\n        /* \"Hacks/SelfDestruct.sol\":2604:2615  balance = 0 */\n      dup2\n      swap1\n      sstore\n      pop\n        /* \"Hacks/SelfDestruct.sol\":2627:2636  bool sent */\n      0x00\n        /* \"Hacks/SelfDestruct.sol\":2642:2652  msg.sender */\n      caller\n        /* \"Hacks/SelfDestruct.sol\":2642:2657  msg.sender.call */\n      0xffffffffffffffffffffffffffffffffffffffff\n      and\n        /* \"Hacks/SelfDestruct.sol\":2665:2671  amount */\n      dup3\n        /* \"Hacks/SelfDestruct.sol\":2642:2676  msg.sender.call{value: amount}(\"\") */\n      mload(0x40)\n      tag_30\n      swap1\n      tag_31\n      jump\t// in\n    tag_30:\n      0x00\n      mload(0x40)\n      dup1\n      dup4\n      sub\n      dup2\n      dup6\n      dup8\n      gas\n      call\n      swap3\n      pop\n      pop\n      pop\n      returndatasize\n      dup1\n      0x00\n      dup2\n      eq\n      tag_34\n      jumpi\n      mload(0x40)\n      swap2\n      pop\n      and(add(returndatasize, 0x3f), not(0x1f))\n      dup3\n      add\n      0x40\n      mstore\n      returndatasize\n      dup3\n      mstore\n      returndatasize\n      0x00\n      0x20\n      dup5\n      add\n      returndatacopy\n      jump(tag_33)\n    tag_34:\n      0x60\n      swap2\n      pop\n    tag_33:\n      pop\n        /* \"Hacks/SelfDestruct.sol\":2626:2676  (bool sent, ) = msg.sender.call{value: amount}(\"\") */\n      pop\n      swap1\n      pop\n        /* \"Hacks/SelfDestruct.sol\":2695:2699  sent */\n      dup1\n        /* \"Hacks/SelfDestruct.sol\":2687:2724  require(sent, \"Failed to send ether\") */\n      tag_35\n      jumpi\n      mload(0x40)\n      0x08c379a000000000000000000000000000000000000000000000000000000000\n      dup2\n      mstore\n      0x04\n      add\n      tag_36\n      swap1\n      tag_37\n      jump\t// in\n    tag_36:\n      mload(0x40)\n      dup1\n      swap2\n      sub\n      swap1\n      revert\n    tag_35:\n        /* \"Hacks/SelfDestruct.sol\":2504:2732  {... */\n      pop\n      pop\n        /* \"Hacks/SelfDestruct.sol\":2474:2732  function claimReward() public {... */\n      jump\t// out\n        /* \"Hacks/SelfDestruct.sol\":2175:2466  function deposit() public payable {... */\n    tag_20:\n        /* \"Hacks/SelfDestruct.sol\":2241:2248  1 ether */\n      0x0de0b6b3a7640000\n        /* \"Hacks/SelfDestruct.sol\":2228:2237  msg.value */\n      callvalue\n        /* \"Hacks/SelfDestruct.sol\":2228:2248  msg.value == 1 ether */\n      eq\n        /* \"Hacks/SelfDestruct.sol\":2220:2278  require(msg.value == 1 ether, \"You can only send 1 ether\") */\n      tag_39\n      jumpi\n      mload(0x40)\n      0x08c379a000000000000000000000000000000000000000000000000000000000\n      dup2\n      mstore\n      0x04\n      add\n      tag_40\n      swap1\n      tag_41\n      jump\t// in\n    tag_40:\n      mload(0x40)\n      dup1\n      swap2\n      sub\n      swap1\n      revert\n    tag_39:\n        /* \"Hacks/SelfDestruct.sol\":2302:2311  msg.value */\n      callvalue\n        /* \"Hacks/SelfDestruct.sol\":2291:2298  balance */\n      0x00\n      0x00\n        /* \"Hacks/SelfDestruct.sol\":2291:2311  balance += msg.value */\n      dup3\n      dup3\n      sload\n      tag_42\n      swap2\n      swap1\n      tag_43\n      jump\t// in\n    tag_42:\n      swap3\n      pop\n      pop\n      dup2\n      swap1\n      sstore\n      pop\n        /* \"Hacks/SelfDestruct.sol\":2102:2109  7 ether */\n      0x6124fee993bc0000\n        /* \"Hacks/SelfDestruct.sol\":2330:2337  balance */\n      sload(0x00)\n        /* \"Hacks/SelfDestruct.sol\":2330:2354  balance <= TARGET_AMOUNT */\n      gt\n      iszero\n        /* \"Hacks/SelfDestruct.sol\":2322:2371  require(balance <= TARGET_AMOUNT, \"Game is over\") */\n      tag_44\n      jumpi\n      mload(0x40)\n      0x08c379a000000000000000000000000000000000000000000000000000000000\n      dup2\n      mstore\n      0x04\n      add\n      tag_45\n      swap1\n      tag_46\n      jump\t// in\n    tag_45:\n      mload(0x40)\n      dup1\n      swap2\n      sub\n      swap1\n      revert\n    tag_44:\n        /* \"Hacks/SelfDestruct.sol\":2102:2109  7 ether */\n      0x6124fee993bc0000\n        /* \"Hacks/SelfDestruct.sol\":2387:2394  balance */\n      sload(0x00)\n        /* \"Hacks/SelfDestruct.sol\":2387:2411  balance == TARGET_AMOUNT */\n      sub\n        /* \"Hacks/SelfDestruct.sol\":2384:2459  if(balance == TARGET_AMOUNT) {... */\n      tag_47\n      jumpi\n        /* \"Hacks/SelfDestruct.sol\":2437:2447  msg.sender */\n      caller\n        /* \"Hacks/SelfDestruct.sol\":2428:2434  winner */\n      0x01\n      0x00\n        /* \"Hacks/SelfDestruct.sol\":2428:2447  winner = msg.sender */\n      0x0100\n      exp\n      dup2\n      sload\n      dup2\n      0xffffffffffffffffffffffffffffffffffffffff\n      mul\n      not\n      and\n      swap1\n      dup4\n      0xffffffffffffffffffffffffffffffffffffffff\n      and\n      mul\n      or\n      swap1\n      sstore\n      pop\n        /* \"Hacks/SelfDestruct.sol\":2384:2459  if(balance == TARGET_AMOUNT) {... */\n    tag_47:\n        /* \"Hacks/SelfDestruct.sol\":2175:2466  function deposit() public payable {... */\n      jump\t// out\n        /* \"Hacks/SelfDestruct.sol\":2145:2166  address public winner */\n    tag_23:\n      0x01\n      0x00\n      swap1\n      sload\n      swap1\n      0x0100\n      exp\n      swap1\n      div\n      0xffffffffffffffffffffffffffffffffffffffff\n      and\n      dup2\n      jump\t// out\n        /* \"#utility.yul\":7:84   */\n    tag_48:\n        /* \"#utility.yul\":44:51   */\n      0x00\n        /* \"#utility.yul\":73:78   */\n      dup2\n        /* \"#utility.yul\":62:78   */\n      swap1\n      pop\n        /* \"#utility.yul\":7:84   */\n      swap2\n      swap1\n      pop\n      jump\t// out\n        /* \"#utility.yul\":90:208   */\n    tag_49:\n        /* \"#utility.yul\":177:201   */\n      tag_69\n        /* \"#utility.yul\":195:200   */\n      dup2\n        /* \"#utility.yul\":177:201   */\n      tag_48\n      jump\t// in\n    tag_69:\n        /* \"#utility.yul\":172:175   */\n      dup3\n        /* \"#utility.yul\":165:202   */\n      mstore\n        /* \"#utility.yul\":90:208   */\n      pop\n      pop\n      jump\t// out\n        /* \"#utility.yul\":214:436   */\n    tag_11:\n        /* \"#utility.yul\":307:311   */\n      0x00\n        /* \"#utility.yul\":345:347   */\n      0x20\n        /* \"#utility.yul\":334:343   */\n      dup3\n        /* \"#utility.yul\":330:348   */\n      add\n        /* \"#utility.yul\":322:348   */\n      swap1\n      pop\n        /* \"#utility.yul\":358:429   */\n      tag_71\n        /* \"#utility.yul\":426:427   */\n      0x00\n        /* \"#utility.yul\":415:424   */\n      dup4\n        /* \"#utility.yul\":411:428   */\n      add\n        /* \"#utility.yul\":402:408   */\n      dup5\n        /* \"#utility.yul\":358:429   */\n      tag_49\n      jump\t// in\n    tag_71:\n        /* \"#utility.yul\":214:436   */\n      swap3\n      swap2\n      pop\n      pop\n      jump\t// out\n        /* \"#utility.yul\":442:568   */\n    tag_50:\n        /* \"#utility.yul\":479:486   */\n      0x00\n        /* \"#utility.yul\":519:561   */\n      0xffffffffffffffffffffffffffffffffffffffff\n        /* \"#utility.yul\":512:517   */\n      dup3\n        /* \"#utility.yul\":508:562   */\n      and\n        /* \"#utility.yul\":497:562   */\n      swap1\n      pop\n        /* \"#utility.yul\":442:568   */\n      swap2\n      swap1\n      pop\n      jump\t// out\n        /* \"#utility.yul\":574:670   */\n    tag_51:\n        /* \"#utility.yul\":611:618   */\n      0x00\n        /* \"#utility.yul\":640:664   */\n      tag_74\n        /* \"#utility.yul\":658:663   */\n      dup3\n        /* \"#utility.yul\":640:664   */\n      tag_50\n      jump\t// in\n    tag_74:\n        /* \"#utility.yul\":629:664   */\n      swap1\n      pop\n        /* \"#utility.yul\":574:670   */\n      swap2\n      swap1\n      pop\n      jump\t// out\n        /* \"#utility.yul\":676:794   */\n    tag_52:\n        /* \"#utility.yul\":763:787   */\n      tag_76\n        /* \"#utility.yul\":781:786   */\n      dup2\n        /* \"#utility.yul\":763:787   */\n      tag_51\n      jump\t// in\n    tag_76:\n        /* \"#utility.yul\":758:761   */\n      dup3\n        /* \"#utility.yul\":751:788   */\n      mstore\n        /* \"#utility.yul\":676:794   */\n      pop\n      pop\n      jump\t// out\n        /* \"#utility.yul\":800:1022   */\n    tag_25:\n        /* \"#utility.yul\":893:897   */\n      0x00\n        /* \"#utility.yul\":931:933   */\n      0x20\n        /* \"#utility.yul\":920:929   */\n      dup3\n        /* \"#utility.yul\":916:934   */\n      add\n        /* \"#utility.yul\":908:934   */\n      swap1\n      pop\n        /* \"#utility.yul\":944:1015   */\n      tag_78\n        /* \"#utility.yul\":1012:1013   */\n      0x00\n        /* \"#utility.yul\":1001:1010   */\n      dup4\n        /* \"#utility.yul\":997:1014   */\n      add\n        /* \"#utility.yul\":988:994   */\n      dup5\n        /* \"#utility.yul\":944:1015   */\n      tag_52\n      jump\t// in\n    tag_78:\n        /* \"#utility.yul\":800:1022   */\n      swap3\n      swap2\n      pop\n      pop\n      jump\t// out\n        /* \"#utility.yul\":1028:1197   */\n    tag_53:\n        /* \"#utility.yul\":1112:1123   */\n      0x00\n        /* \"#utility.yul\":1146:1152   */\n      dup3\n        /* \"#utility.yul\":1141:1144   */\n      dup3\n        /* \"#utility.yul\":1134:1153   */\n      mstore\n        /* \"#utility.yul\":1186:1190   */\n      0x20\n        /* \"#utility.yul\":1181:1184   */\n      dup3\n        /* \"#utility.yul\":1177:1191   */\n      add\n        /* \"#utility.yul\":1162:1191   */\n      swap1\n      pop\n        /* \"#utility.yul\":1028:1197   */\n      swap3\n      swap2\n      pop\n      pop\n      jump\t// out\n        /* \"#utility.yul\":1203:1363   */\n    tag_54:\n        /* \"#utility.yul\":1343:1355   */\n      0x4e6f742077696e6e657200000000000000000000000000000000000000000000\n        /* \"#utility.yul\":1339:1340   */\n      0x00\n        /* \"#utility.yul\":1331:1337   */\n      dup3\n        /* \"#utility.yul\":1327:1341   */\n      add\n        /* \"#utility.yul\":1320:1356   */\n      mstore\n        /* \"#utility.yul\":1203:1363   */\n      pop\n      jump\t// out\n        /* \"#utility.yul\":1369:1735   */\n    tag_55:\n        /* \"#utility.yul\":1511:1514   */\n      0x00\n        /* \"#utility.yul\":1532:1599   */\n      tag_82\n        /* \"#utility.yul\":1596:1598   */\n      0x0a\n        /* \"#utility.yul\":1591:1594   */\n      dup4\n        /* \"#utility.yul\":1532:1599   */\n      tag_53\n      jump\t// in\n    tag_82:\n        /* \"#utility.yul\":1525:1599   */\n      swap2\n      pop\n        /* \"#utility.yul\":1608:1701   */\n      tag_83\n        /* \"#utility.yul\":1697:1700   */\n      dup3\n        /* \"#utility.yul\":1608:1701   */\n      tag_54\n      jump\t// in\n    tag_83:\n        /* \"#utility.yul\":1726:1728   */\n      0x20\n        /* \"#utility.yul\":1721:1724   */\n      dup3\n        /* \"#utility.yul\":1717:1729   */\n      add\n        /* \"#utility.yul\":1710:1729   */\n      swap1\n      pop\n        /* \"#utility.yul\":1369:1735   */\n      swap2\n      swap1\n      pop\n      jump\t// out\n        /* \"#utility.yul\":1741:2160   */\n    tag_29:\n        /* \"#utility.yul\":1907:1911   */\n      0x00\n        /* \"#utility.yul\":1945:1947   */\n      0x20\n        /* \"#utility.yul\":1934:1943   */\n      dup3\n        /* \"#utility.yul\":1930:1948   */\n      add\n        /* \"#utility.yul\":1922:1948   */\n      swap1\n      pop\n        /* \"#utility.yul\":1994:2003   */\n      dup2\n        /* \"#utility.yul\":1988:1992   */\n      dup2\n        /* \"#utility.yul\":1984:2004   */\n      sub\n        /* \"#utility.yul\":1980:1981   */\n      0x00\n        /* \"#utility.yul\":1969:1978   */\n      dup4\n        /* \"#utility.yul\":1965:1982   */\n      add\n        /* \"#utility.yul\":1958:2005   */\n      mstore\n        /* \"#utility.yul\":2022:2153   */\n      tag_85\n        /* \"#utility.yul\":2148:2152   */\n      dup2\n        /* \"#utility.yul\":2022:2153   */\n      tag_55\n      jump\t// in\n    tag_85:\n        /* \"#utility.yul\":2014:2153   */\n      swap1\n      pop\n        /* \"#utility.yul\":1741:2160   */\n      swap2\n      swap1\n      pop\n      jump\t// out\n        /* \"#utility.yul\":2166:2313   */\n    tag_56:\n        /* \"#utility.yul\":2267:2278   */\n      0x00\n        /* \"#utility.yul\":2304:2307   */\n      dup2\n        /* \"#utility.yul\":2289:2307   */\n      swap1\n      pop\n        /* \"#utility.yul\":2166:2313   */\n      swap3\n      swap2\n      pop\n      pop\n      jump\t// out\n        /* \"#utility.yul\":2319:2433   */\n    tag_57:\n      pop\n      jump\t// out\n        /* \"#utility.yul\":2439:2837   */\n    tag_58:\n        /* \"#utility.yul\":2598:2601   */\n      0x00\n        /* \"#utility.yul\":2619:2702   */\n      tag_89\n        /* \"#utility.yul\":2700:2701   */\n      0x00\n        /* \"#utility.yul\":2695:2698   */\n      dup4\n        /* \"#utility.yul\":2619:2702   */\n      tag_56\n      jump\t// in\n    tag_89:\n        /* \"#utility.yul\":2612:2702   */\n      swap2\n      pop\n        /* \"#utility.yul\":2711:2804   */\n      tag_90\n        /* \"#utility.yul\":2800:2803   */\n      dup3\n        /* \"#utility.yul\":2711:2804   */\n      tag_57\n      jump\t// in\n    tag_90:\n        /* \"#utility.yul\":2829:2830   */\n      0x00\n        /* \"#utility.yul\":2824:2827   */\n      dup3\n        /* \"#utility.yul\":2820:2831   */\n      add\n        /* \"#utility.yul\":2813:2831   */\n      swap1\n      pop\n        /* \"#utility.yul\":2439:2837   */\n      swap2\n      swap1\n      pop\n      jump\t// out\n        /* \"#utility.yul\":2843:3222   */\n    tag_31:\n        /* \"#utility.yul\":3027:3030   */\n      0x00\n        /* \"#utility.yul\":3049:3196   */\n      tag_92\n        /* \"#utility.yul\":3192:3195   */\n      dup3\n        /* \"#utility.yul\":3049:3196   */\n      tag_58\n      jump\t// in\n    tag_92:\n        /* \"#utility.yul\":3042:3196   */\n      swap2\n      pop\n        /* \"#utility.yul\":3213:3216   */\n      dup2\n        /* \"#utility.yul\":3206:3216   */\n      swap1\n      pop\n        /* \"#utility.yul\":2843:3222   */\n      swap2\n      swap1\n      pop\n      jump\t// out\n        /* \"#utility.yul\":3228:3398   */\n    tag_59:\n        /* \"#utility.yul\":3368:3390   */\n      0x4661696c656420746f2073656e64206574686572000000000000000000000000\n        /* \"#utility.yul\":3364:3365   */\n      0x00\n        /* \"#utility.yul\":3356:3362   */\n      dup3\n        /* \"#utility.yul\":3352:3366   */\n      add\n        /* \"#utility.yul\":3345:3391   */\n      mstore\n        /* \"#utility.yul\":3228:3398   */\n      pop\n      jump\t// out\n        /* \"#utility.yul\":3404:3770   */\n    tag_60:\n        /* \"#utility.yul\":3546:3549   */\n      0x00\n        /* \"#utility.yul\":3567:3634   */\n      tag_95\n        /* \"#utility.yul\":3631:3633   */\n      0x14\n        /* \"#utility.yul\":3626:3629   */\n      dup4\n        /* \"#utility.yul\":3567:3634   */\n      tag_53\n      jump\t// in\n    tag_95:\n        /* \"#utility.yul\":3560:3634   */\n      swap2\n      pop\n        /* \"#utility.yul\":3643:3736   */\n      tag_96\n        /* \"#utility.yul\":3732:3735   */\n      dup3\n        /* \"#utility.yul\":3643:3736   */\n      tag_59\n      jump\t// in\n    tag_96:\n        /* \"#utility.yul\":3761:3763   */\n      0x20\n        /* \"#utility.yul\":3756:3759   */\n      dup3\n        /* \"#utility.yul\":3752:3764   */\n      add\n        /* \"#utility.yul\":3745:3764   */\n      swap1\n      pop\n        /* \"#utility.yul\":3404:3770   */\n      swap2\n      swap1\n      pop\n      jump\t// out\n        /* \"#utility.yul\":3776:4195   */\n    tag_37:\n        /* \"#utility.yul\":3942:3946   */\n      0x00\n        /* \"#utility.yul\":3980:3982   */\n      0x20\n        /* \"#utility.yul\":3969:3978   */\n      dup3\n        /* \"#utility.yul\":3965:3983   */\n      add\n        /* \"#utility.yul\":3957:3983   */\n      swap1\n      pop\n        /* \"#utility.yul\":4029:4038   */\n      dup2\n        /* \"#utility.yul\":4023:4027   */\n      dup2\n        /* \"#utility.yul\":4019:4039   */\n      sub\n        /* \"#utility.yul\":4015:4016   */\n      0x00\n        /* \"#utility.yul\":4004:4013   */\n      dup4\n        /* \"#utility.yul\":4000:4017   */\n      add\n        /* \"#utility.yul\":3993:4040   */\n      mstore\n        /* \"#utility.yul\":4057:4188   */\n      tag_98\n        /* \"#utility.yul\":4183:4187   */\n      dup2\n        /* \"#utility.yul\":4057:4188   */\n      tag_60\n      jump\t// in\n    tag_98:\n        /* \"#utility.yul\":4049:4188   */\n      swap1\n      pop\n        /* \"#utility.yul\":3776:4195   */\n      swap2\n      swap1\n      pop\n      jump\t// out\n        /* \"#utility.yul\":4201:4376   */\n    tag_61:\n        /* \"#utility.yul\":4341:4368   */\n      0x596f752063616e206f6e6c792073656e64203120657468657200000000000000\n        /* \"#utility.yul\":4337:4338   */\n      0x00\n        /* \"#utility.yul\":4329:4335   */\n      dup3\n        /* \"#utility.yul\":4325:4339   */\n      add\n        /* \"#utility.yul\":4318:4369   */\n      mstore\n        /* \"#utility.yul\":4201:4376   */\n      pop\n      jump\t// out\n        /* \"#utility.yul\":4382:4748   */\n    tag_62:\n        /* \"#utility.yul\":4524:4527   */\n      0x00\n        /* \"#utility.yul\":4545:4612   */\n      tag_101\n        /* \"#utility.yul\":4609:4611   */\n      0x19\n        /* \"#utility.yul\":4604:4607   */\n      dup4\n        /* \"#utility.yul\":4545:4612   */\n      tag_53\n      jump\t// in\n    tag_101:\n        /* \"#utility.yul\":4538:4612   */\n      swap2\n      pop\n        /* \"#utility.yul\":4621:4714   */\n      tag_102\n        /* \"#utility.yul\":4710:4713   */\n      dup3\n        /* \"#utility.yul\":4621:4714   */\n      tag_61\n      jump\t// in\n    tag_102:\n        /* \"#utility.yul\":4739:4741   */\n      0x20\n        /* \"#utility.yul\":4734:4737   */\n      dup3\n        /* \"#utility.yul\":4730:4742   */\n      add\n        /* \"#utility.yul\":4723:4742   */\n      swap1\n      pop\n        /* \"#utility.yul\":4382:4748   */\n      swap2\n      swap1\n      pop\n      jump\t// out\n        /* \"#utility.yul\":4754:5173   */\n    tag_41:\n        /* \"#utility.yul\":4920:4924   */\n      0x00\n        /* \"#utility.yul\":4958:4960   */\n      0x20\n        /* \"#utility.yul\":4947:4956   */\n      dup3\n        /* \"#utility.yul\":4943:4961   */\n      add\n        /* \"#utility.yul\":4935:4961   */\n      swap1\n      pop\n        /* \"#utility.yul\":5007:5016   */\n      dup2\n        /* \"#utility.yul\":5001:5005   */\n      dup2\n        /* \"#utility.yul\":4997:5017   */\n      sub\n        /* \"#utility.yul\":4993:4994   */\n      0x00\n        /* \"#utility.yul\":4982:4991   */\n      dup4\n        /* \"#utility.yul\":4978:4995   */\n      add\n        /* \"#utility.yul\":4971:5018   */\n      mstore\n        /* \"#utility.yul\":5035:5166   */\n      tag_104\n        /* \"#utility.yul\":5161:5165   */\n      dup2\n        /* \"#utility.yul\":5035:5166   */\n      tag_62\n      jump\t// in\n    tag_104:\n        /* \"#utility.yul\":5027:5166   */\n      swap1\n      pop\n        /* \"#utility.yul\":4754:5173   */\n      swap2\n      swap1\n      pop\n      jump\t// out\n        /* \"#utility.yul\":5179:5359   */\n    tag_63:\n        /* \"#utility.yul\":5227:5304   */\n      0x4e487b7100000000000000000000000000000000000000000000000000000000\n        /* \"#utility.yul\":5224:5225   */\n      0x00\n        /* \"#utility.yul\":5217:5305   */\n      mstore\n        /* \"#utility.yul\":5324:5328   */\n      0x11\n        /* \"#utility.yul\":5321:5322   */\n      0x04\n        /* \"#utility.yul\":5314:5329   */\n      mstore\n        /* \"#utility.yul\":5348:5352   */\n      0x24\n        /* \"#utility.yul\":5345:5346   */\n      0x00\n        /* \"#utility.yul\":5338:5353   */\n      revert\n        /* \"#utility.yul\":5365:5556   */\n    tag_43:\n        /* \"#utility.yul\":5405:5408   */\n      0x00\n        /* \"#utility.yul\":5424:5444   */\n      tag_107\n        /* \"#utility.yul\":5442:5443   */\n      dup3\n        /* \"#utility.yul\":5424:5444   */\n      tag_48\n      jump\t// in\n    tag_107:\n        /* \"#utility.yul\":5419:5444   */\n      swap2\n      pop\n        /* \"#utility.yul\":5458:5478   */\n      tag_108\n        /* \"#utility.yul\":5476:5477   */\n      dup4\n        /* \"#utility.yul\":5458:5478   */\n      tag_48\n      jump\t// in\n    tag_108:\n        /* \"#utility.yul\":5453:5478   */\n      swap3\n      pop\n        /* \"#utility.yul\":5501:5502   */\n      dup3\n        /* \"#utility.yul\":5498:5499   */\n      dup3\n        /* \"#utility.yul\":5494:5503   */\n      add\n        /* \"#utility.yul\":5487:5503   */\n      swap1\n      pop\n        /* \"#utility.yul\":5522:5525   */\n      dup1\n        /* \"#utility.yul\":5519:5520   */\n      dup3\n        /* \"#utility.yul\":5516:5526   */\n      gt\n        /* \"#utility.yul\":5513:5549   */\n      iszero\n      tag_109\n      jumpi\n        /* \"#utility.yul\":5529:5547   */\n      tag_110\n      tag_63\n      jump\t// in\n    tag_110:\n        /* \"#utility.yul\":5513:5549   */\n    tag_109:\n        /* \"#utility.yul\":5365:5556   */\n      swap3\n      swap2\n      pop\n      pop\n      jump\t// out\n        /* \"#utility.yul\":5562:5724   */\n    tag_64:\n        /* \"#utility.yul\":5702:5716   */\n      0x47616d65206973206f7665720000000000000000000000000000000000000000\n        /* \"#utility.yul\":5698:5699   */\n      0x00\n        /* \"#utility.yul\":5690:5696   */\n      dup3\n        /* \"#utility.yul\":5686:5700   */\n      add\n        /* \"#utility.yul\":5679:5717   */\n      mstore\n        /* \"#utility.yul\":5562:5724   */\n      pop\n      jump\t// out\n        /* \"#utility.yul\":5730:6096   */\n    tag_65:\n        /* \"#utility.yul\":5872:5875   */\n      0x00\n        /* \"#utility.yul\":5893:5960   */\n      tag_113\n        /* \"#utility.yul\":5957:5959   */\n      0x0c\n        /* \"#utility.yul\":5952:5955   */\n      dup4\n        /* \"#utility.yul\":5893:5960   */\n      tag_53\n      jump\t// in\n    tag_113:\n        /* \"#utility.yul\":5886:5960   */\n      swap2\n      pop\n        /* \"#utility.yul\":5969:6062   */\n      tag_114\n        /* \"#utility.yul\":6058:6061   */\n      dup3\n        /* \"#utility.yul\":5969:6062   */\n      tag_64\n      jump\t// in\n    tag_114:\n        /* \"#utility.yul\":6087:6089   */\n      0x20\n        /* \"#utility.yul\":6082:6085   */\n      dup3\n        /* \"#utility.yul\":6078:6090   */\n      add\n        /* \"#utility.yul\":6071:6090   */\n      swap1\n      pop\n        /* \"#utility.yul\":5730:6096   */\n      swap2\n      swap1\n      pop\n      jump\t// out\n        /* \"#utility.yul\":6102:6521   */\n    tag_46:\n        /* \"#utility.yul\":6268:6272   */\n      0x00\n        /* \"#utility.yul\":6306:6308   */\n      0x20\n        /* \"#utility.yul\":6295:6304   */\n      dup3\n        /* \"#utility.yul\":6291:6309   */\n      add\n        /* \"#utility.yul\":6283:6309   */\n      swap1\n      pop\n        /* \"#utility.yul\":6355:6364   */\n      dup2\n        /* \"#utility.yul\":6349:6353   */\n      dup2\n        /* \"#utility.yul\":6345:6365   */\n      sub\n        /* \"#utility.yul\":6341:6342   */\n      0x00\n        /* \"#utility.yul\":6330:6339   */\n      dup4\n        /* \"#utility.yul\":6326:6343   */\n      add\n        /* \"#utility.yul\":6319:6366   */\n      mstore\n        /* \"#utility.yul\":6383:6514   */\n      tag_116\n        /* \"#utility.yul\":6509:6513   */\n      dup2\n        /* \"#utility.yul\":6383:6514   */\n      tag_65\n      jump\t// in\n    tag_116:\n        /* \"#utility.yul\":6375:6514   */\n      swap1\n      pop\n        /* \"#utility.yul\":6102:6521   */\n      swap2\n      swap1\n      pop\n      jump\t// out\n\n    auxdata: 0xa264697066735822122079e8fd290bd03b66d14f663bfc37167ebc266903fab0b80d549ee7d2b1354c6064736f6c634300081c0033\n}\n",
				"bytecode": {
					"linkReferences": {},
					"object": "6080604052348015600e575f5ffd5b506106778061001c5f395ff3fe608060405260043610610049575f3560e01c806330f0dbe01461004d578063b69ef8a814610077578063b88a802f146100a1578063d0e30db0146100b7578063dfbf53ae146100c1575b5f5ffd5b348015610058575f5ffd5b506100616100eb565b60405161006e919061037f565b60405180910390f35b348015610082575f5ffd5b5061008b6100f7565b604051610098919061037f565b60405180910390f35b3480156100ac575f5ffd5b506100b56100fc565b005b6100bf610242565b005b3480156100cc575f5ffd5b506100d5610342565b6040516100e291906103d7565b60405180910390f35b676124fee993bc000081565b5f5481565b60015f9054906101000a900473ffffffffffffffffffffffffffffffffffffffff1673ffffffffffffffffffffffffffffffffffffffff163373ffffffffffffffffffffffffffffffffffffffff161461018b576040517f08c379a00000000000000000000000000000000000000000000000000000000081526004016101829061044a565b60405180910390fd5b5f5f5490505f5f819055505f3373ffffffffffffffffffffffffffffffffffffffff16826040516101bb90610495565b5f6040518083038185875af1925050503d805f81146101f5576040519150601f19603f3d011682016040523d82523d5f602084013e6101fa565b606091505b505090508061023e576040517f08c379a0000000000000000000000000000000000000000000000000000000008152600401610235906104f3565b60405180910390fd5b5050565b670de0b6b3a7640000341461028c576040517f08c379a00000000000000000000000000000000000000000000000000000000081526004016102839061055b565b60405180910390fd5b345f5f82825461029c91906105a6565b92505081905550676124fee993bc00005f5411156102ef576040517f08c379a00000000000000000000000000000000000000000000000000000000081526004016102e690610623565b60405180910390fd5b676124fee993bc00005f5403610340573360015f6101000a81548173ffffffffffffffffffffffffffffffffffffffff021916908373ffffffffffffffffffffffffffffffffffffffff1602179055505b565b60015f9054906101000a900473ffffffffffffffffffffffffffffffffffffffff1681565b5f819050919050565b61037981610367565b82525050565b5f6020820190506103925f830184610370565b92915050565b5f73ffffffffffffffffffffffffffffffffffffffff82169050919050565b5f6103c182610398565b9050919050565b6103d1816103b7565b82525050565b5f6020820190506103ea5f8301846103c8565b92915050565b5f82825260208201905092915050565b7f4e6f742077696e6e6572000000000000000000000000000000000000000000005f82015250565b5f610434600a836103f0565b915061043f82610400565b602082019050919050565b5f6020820190508181035f83015261046181610428565b9050919050565b5f81905092915050565b50565b5f6104805f83610468565b915061048b82610472565b5f82019050919050565b5f61049f82610475565b9150819050919050565b7f4661696c656420746f2073656e642065746865720000000000000000000000005f82015250565b5f6104dd6014836103f0565b91506104e8826104a9565b602082019050919050565b5f6020820190508181035f83015261050a816104d1565b9050919050565b7f596f752063616e206f6e6c792073656e642031206574686572000000000000005f82015250565b5f6105456019836103f0565b915061055082610511565b602082019050919050565b5f6020820190508181035f83015261057281610539565b9050919050565b7f4e487b71000000000000000000000000000000000000000000000000000000005f52601160045260245ffd5b5f6105b082610367565b91506105bb83610367565b92508282019050808211156105d3576105d2610579565b5b92915050565b7f47616d65206973206f76657200000000000000000000000000000000000000005f82015250565b5f61060d600c836103f0565b9150610618826105d9565b602082019050919050565b5f6020820190508181035f83015261063a81610601565b905091905056fea264697066735822122079e8fd290bd03b66d14f663bfc37167ebc266903fab0b80d549ee7d2b1354c6064736f6c634300081c0033",
					"opcodes": "PUSH1 0x80 PUSH1 0x40 MSTORE CALLVALUE DUP1 ISZERO PUSH1 0xE JUMPI PUSH0 PUSH0 REVERT JUMPDEST POP PUSH2 0x677 DUP1 PUSH2 0x1C PUSH0 CODECOPY PUSH0 RETURN INVALID PUSH1 0x80 PUSH1 0x40 MSTORE PUSH1 0x4 CALLDATASIZE LT PUSH2 0x49 JUMPI PUSH0 CALLDATALOAD PUSH1 0xE0 SHR DUP1 PUSH4 0x30F0DBE0 EQ PUSH2 0x4D JUMPI DUP1 PUSH4 0xB69EF8A8 EQ PUSH2 0x77 JUMPI DUP1 PUSH4 0xB88A802F EQ PUSH2 0xA1 JUMPI DUP1 PUSH4 0xD0E30DB0 EQ PUSH2 0xB7 JUMPI DUP1 PUSH4 0xDFBF53AE EQ PUSH2 0xC1 JUMPI JUMPDEST PUSH0 PUSH0 REVERT JUMPDEST CALLVALUE DUP1 ISZERO PUSH2 0x58 JUMPI PUSH0 PUSH0 REVERT JUMPDEST POP PUSH2 0x61 PUSH2 0xEB JUMP JUMPDEST PUSH1 0x40 MLOAD PUSH2 0x6E SWAP2 SWAP1 PUSH2 0x37F JUMP JUMPDEST PUSH1 0x40 MLOAD DUP1 SWAP2 SUB SWAP1 RETURN JUMPDEST CALLVALUE DUP1 ISZERO PUSH2 0x82 JUMPI PUSH0 PUSH0 REVERT JUMPDEST POP PUSH2 0x8B PUSH2 0xF7 JUMP JUMPDEST PUSH1 0x40 MLOAD PUSH2 0x98 SWAP2 SWAP1 PUSH2 0x37F JUMP JUMPDEST PUSH1 0x40 MLOAD DUP1 SWAP2 SUB SWAP1 RETURN JUMPDEST CALLVALUE DUP1 ISZERO PUSH2 0xAC JUMPI PUSH0 PUSH0 REVERT JUMPDEST POP PUSH2 0xB5 PUSH2 0xFC JUMP JUMPDEST STOP JUMPDEST PUSH2 0xBF PUSH2 0x242 JUMP JUMPDEST STOP JUMPDEST CALLVALUE DUP1 ISZERO PUSH2 0xCC JUMPI PUSH0 PUSH0 REVERT JUMPDEST POP PUSH2 0xD5 PUSH2 0x342 JUMP JUMPDEST PUSH1 0x40 MLOAD PUSH2 0xE2 SWAP2 SWAP1 PUSH2 0x3D7 JUMP JUMPDEST PUSH1 0x40 MLOAD DUP1 SWAP2 SUB SWAP1 RETURN JUMPDEST PUSH8 0x6124FEE993BC0000 DUP2 JUMP JUMPDEST PUSH0 SLOAD DUP2 JUMP JUMPDEST PUSH1 0x1 PUSH0 SWAP1 SLOAD SWAP1 PUSH2 0x100 EXP SWAP1 DIV PUSH20 0xFFFFFFFFFFFFFFFFFFFFFFFFFFFFFFFFFFFFFFFF AND PUSH20 0xFFFFFFFFFFFFFFFFFFFFFFFFFFFFFFFFFFFFFFFF AND CALLER PUSH20 0xFFFFFFFFFFFFFFFFFFFFFFFFFFFFFFFFFFFFFFFF AND EQ PUSH2 0x18B JUMPI PUSH1 0x40 MLOAD PUSH32 0x8C379A000000000000000000000000000000000000000000000000000000000 DUP2 MSTORE PUSH1 0x4 ADD PUSH2 0x182 SWAP1 PUSH2 0x44A JUMP JUMPDEST PUSH1 0x40 MLOAD DUP1 SWAP2 SUB SWAP1 REVERT JUMPDEST PUSH0 PUSH0 SLOAD SWAP1 POP PUSH0 PUSH0 DUP2 SWAP1 SSTORE POP PUSH0 CALLER PUSH20 0xFFFFFFFFFFFFFFFFFFFFFFFFFFFFFFFFFFFFFFFF AND DUP3 PUSH1 0x40 MLOAD PUSH2 0x1BB SWAP1 PUSH2 0x495 JUMP JUMPDEST PUSH0 PUSH1 0x40 MLOAD DUP1 DUP4 SUB DUP2 DUP6 DUP8 GAS CALL SWAP3 POP POP POP RETURNDATASIZE DUP1 PUSH0 DUP2 EQ PUSH2 0x1F5 JUMPI PUSH1 0x40 MLOAD SWAP2 POP PUSH1 0x1F NOT PUSH1 0x3F RETURNDATASIZE ADD AND DUP3 ADD PUSH1 0x40 MSTORE RETURNDATASIZE DUP3 MSTORE RETURNDATASIZE PUSH0 PUSH1 0x20 DUP5 ADD RETURNDATACOPY PUSH2 0x1FA JUMP JUMPDEST PUSH1 0x60 SWAP2 POP JUMPDEST POP POP SWAP1 POP DUP1 PUSH2 0x23E JUMPI PUSH1 0x40 MLOAD PUSH32 0x8C379A000000000000000000000000000000000000000000000000000000000 DUP2 MSTORE PUSH1 0x4 ADD PUSH2 0x235 SWAP1 PUSH2 0x4F3 JUMP JUMPDEST PUSH1 0x40 MLOAD DUP1 SWAP2 SUB SWAP1 REVERT JUMPDEST POP POP JUMP JUMPDEST PUSH8 0xDE0B6B3A7640000 CALLVALUE EQ PUSH2 0x28C JUMPI PUSH1 0x40 MLOAD PUSH32 0x8C379A000000000000000000000000000000000000000000000000000000000 DUP2 MSTORE PUSH1 0x4 ADD PUSH2 0x283 SWAP1 PUSH2 0x55B JUMP JUMPDEST PUSH1 0x40 MLOAD DUP1 SWAP2 SUB SWAP1 REVERT JUMPDEST CALLVALUE PUSH0 PUSH0 DUP3 DUP3 SLOAD PUSH2 0x29C SWAP2 SWAP1 PUSH2 0x5A6 JUMP JUMPDEST SWAP3 POP POP DUP2 SWAP1 SSTORE POP PUSH8 0x6124FEE993BC0000 PUSH0 SLOAD GT ISZERO PUSH2 0x2EF JUMPI PUSH1 0x40 MLOAD PUSH32 0x8C379A000000000000000000000000000000000000000000000000000000000 DUP2 MSTORE PUSH1 0x4 ADD PUSH2 0x2E6 SWAP1 PUSH2 0x623 JUMP JUMPDEST PUSH1 0x40 MLOAD DUP1 SWAP2 SUB SWAP1 REVERT JUMPDEST PUSH8 0x6124FEE993BC0000 PUSH0 SLOAD SUB PUSH2 0x340 JUMPI CALLER PUSH1 0x1 PUSH0 PUSH2 0x100 EXP DUP2 SLOAD DUP2 PUSH20 0xFFFFFFFFFFFFFFFFFFFFFFFFFFFFFFFFFFFFFFFF MUL NOT AND SWAP1 DUP4 PUSH20 0xFFFFFFFFFFFFFFFFFFFFFFFFFFFFFFFFFFFFFFFF AND MUL OR SWAP1 SSTORE POP JUMPDEST JUMP JUMPDEST PUSH1 0x1 PUSH0 SWAP1 SLOAD SWAP1 PUSH2 0x100 EXP SWAP1 DIV PUSH20 0xFFFFFFFFFFFFFFFFFFFFFFFFFFFFFFFFFFFFFFFF AND DUP2 JUMP JUMPDEST PUSH0 DUP2 SWAP1 POP SWAP2 SWAP1 POP JUMP JUMPDEST PUSH2 0x379 DUP2 PUSH2 0x367 JUMP JUMPDEST DUP3 MSTORE POP POP JUMP JUMPDEST PUSH0 PUSH1 0x20 DUP3 ADD SWAP1 POP PUSH2 0x392 PUSH0 DUP4 ADD DUP5 PUSH2 0x370 JUMP JUMPDEST SWAP3 SWAP2 POP POP JUMP JUMPDEST PUSH0 PUSH20 0xFFFFFFFFFFFFFFFFFFFFFFFFFFFFFFFFFFFFFFFF DUP3 AND SWAP1 POP SWAP2 SWAP1 POP JUMP JUMPDEST PUSH0 PUSH2 0x3C1 DUP3 PUSH2 0x398 JUMP JUMPDEST SWAP1 POP SWAP2 SWAP1 POP JUMP JUMPDEST PUSH2 0x3D1 DUP2 PUSH2 0x3B7 JUMP JUMPDEST DUP3 MSTORE POP POP JUMP JUMPDEST PUSH0 PUSH1 0x20 DUP3 ADD SWAP1 POP PUSH2 0x3EA PUSH0 DUP4 ADD DUP5 PUSH2 0x3C8 JUMP JUMPDEST SWAP3 SWAP2 POP POP JUMP JUMPDEST PUSH0 DUP3 DUP3 MSTORE PUSH1 0x20 DUP3 ADD SWAP1 POP SWAP3 SWAP2 POP POP JUMP JUMPDEST PUSH32 0x4E6F742077696E6E657200000000000000000000000000000000000000000000 PUSH0 DUP3 ADD MSTORE POP JUMP JUMPDEST PUSH0 PUSH2 0x434 PUSH1 0xA DUP4 PUSH2 0x3F0 JUMP JUMPDEST SWAP2 POP PUSH2 0x43F DUP3 PUSH2 0x400 JUMP JUMPDEST PUSH1 0x20 DUP3 ADD SWAP1 POP SWAP2 SWAP1 POP JUMP JUMPDEST PUSH0 PUSH1 0x20 DUP3 ADD SWAP1 POP DUP2 DUP2 SUB PUSH0 DUP4 ADD MSTORE PUSH2 0x461 DUP2 PUSH2 0x428 JUMP JUMPDEST SWAP1 POP SWAP2 SWAP1 POP JUMP JUMPDEST PUSH0 DUP2 SWAP1 POP SWAP3 SWAP2 POP POP JUMP JUMPDEST POP JUMP JUMPDEST PUSH0 PUSH2 0x480 PUSH0 DUP4 PUSH2 0x468 JUMP JUMPDEST SWAP2 POP PUSH2 0x48B DUP3 PUSH2 0x472 JUMP JUMPDEST PUSH0 DUP3 ADD SWAP1 POP SWAP2 SWAP1 POP JUMP JUMPDEST PUSH0 PUSH2 0x49F DUP3 PUSH2 0x475 JUMP JUMPDEST SWAP2 POP DUP2 SWAP1 POP SWAP2 SWAP1 POP JUMP JUMPDEST PUSH32 0x4661696C656420746F2073656E64206574686572000000000000000000000000 PUSH0 DUP3 ADD MSTORE POP JUMP JUMPDEST PUSH0 PUSH2 0x4DD PUSH1 0x14 DUP4 PUSH2 0x3F0 JUMP JUMPDEST SWAP2 POP PUSH2 0x4E8 DUP3 PUSH2 0x4A9 JUMP JUMPDEST PUSH1 0x20 DUP3 ADD SWAP1 POP SWAP2 SWAP1 POP JUMP JUMPDEST PUSH0 PUSH1 0x20 DUP3 ADD SWAP1 POP DUP2 DUP2 SUB PUSH0 DUP4 ADD MSTORE PUSH2 0x50A DUP2 PUSH2 0x4D1 JUMP JUMPDEST SWAP1 POP SWAP2 SWAP1 POP JUMP JUMPDEST PUSH32 0x596F752063616E206F6E6C792073656E64203120657468657200000000000000 PUSH0 DUP3 ADD MSTORE POP JUMP JUMPDEST PUSH0 PUSH2 0x545 PUSH1 0x19 DUP4 PUSH2 0x3F0 JUMP JUMPDEST SWAP2 POP PUSH2 0x550 DUP3 PUSH2 0x511 JUMP JUMPDEST PUSH1 0x20 DUP3 ADD SWAP1 POP SWAP2 SWAP1 POP JUMP JUMPDEST PUSH0 PUSH1 0x20 DUP3 ADD SWAP1 POP DUP2 DUP2 SUB PUSH0 DUP4 ADD MSTORE PUSH2 0x572 DUP2 PUSH2 0x539 JUMP JUMPDEST SWAP1 POP SWAP2 SWAP1 POP JUMP JUMPDEST PUSH32 0x4E487B7100000000000000000000000000000000000000000000000000000000 PUSH0 MSTORE PUSH1 0x11 PUSH1 0x4 MSTORE PUSH1 0x24 PUSH0 REVERT JUMPDEST PUSH0 PUSH2 0x5B0 DUP3 PUSH2 0x367 JUMP JUMPDEST SWAP2 POP PUSH2 0x5BB DUP4 PUSH2 0x367 JUMP JUMPDEST SWAP3 POP DUP3 DUP3 ADD SWAP1 POP DUP1 DUP3 GT ISZERO PUSH2 0x5D3 JUMPI PUSH2 0x5D2 PUSH2 0x579 JUMP JUMPDEST JUMPDEST SWAP3 SWAP2 POP POP JUMP JUMPDEST PUSH32 0x47616D65206973206F7665720000000000000000000000000000000000000000 PUSH0 DUP3 ADD MSTORE POP JUMP JUMPDEST PUSH0 PUSH2 0x60D PUSH1 0xC DUP4 PUSH2 0x3F0 JUMP JUMPDEST SWAP2 POP PUSH2 0x618 DUP3 PUSH2 0x5D9 JUMP JUMPDEST PUSH1 0x20 DUP3 ADD SWAP1 POP SWAP2 SWAP1 POP JUMP JUMPDEST PUSH0 PUSH1 0x20 DUP3 ADD SWAP1 POP DUP2 DUP2 SUB PUSH0 DUP4 ADD MSTORE PUSH2 0x63A DUP2 PUSH2 0x601 JUMP JUMPDEST SWAP1 POP SWAP2 SWAP1 POP JUMP INVALID LOG2 PUSH5 0x6970667358 0x22 SLT KECCAK256 PUSH26 0xE8FD290BD03B66D14F663BFC37167EBC266903FAB0B80D549EE7 0xD2 0xB1 CALLDATALOAD 0x4C PUSH1 0x64 PUSH20 0x6F6C634300081C00330000000000000000000000 "
				},
				"gasEstimates": {
					"creation": {
						"codeDepositCost": "331000",
						"executionCost": "366",
						"totalCost": "331366"
					},
					"external": {
						"TARGET_AMOUNT()": "303",
						"balance()": "2424",
						"claimReward()": "infinite",
						"deposit()": "infinite",
						"winner()": "2574"
					}
				},
				"methodIdentifiers": {
					"TARGET_AMOUNT()": "30f0dbe0",
					"balance()": "b69ef8a8",
					"claimReward()": "b88a802f",
					"deposit()": "d0e30db0",
					"winner()": "dfbf53ae"
				}
			},
			"storageLayout": {
				"storage": [
					{
						"astId": 115,
						"contract": "Hacks/SelfDestruct.sol:PreventEtherGame",
						"label": "balance",
						"offset": 0,
						"slot": "0",
						"type": "t_uint256"
					},
					{
						"astId": 117,
						"contract": "Hacks/SelfDestruct.sol:PreventEtherGame",
						"label": "winner",
						"offset": 0,
						"slot": "1",
						"type": "t_address"
					}
				],
				"types": {
					"t_address": {
						"encoding": "inplace",
						"label": "address",
						"numberOfBytes": "20"
					},
					"t_uint256": {
						"encoding": "inplace",
						"label": "uint256",
						"numberOfBytes": "32"
					}
				}
			},
			"userdoc": {
				"kind": "user",
				"methods": {},
				"version": 1
			}
		}
	}
}