{
	"Hacks/GasRule.sol": {
		"A": {
			"abi": [
				{
					"inputs": [
						{
							"internalType": "address",
							"name": "b",
							"type": "address"
						}
					],
					"name": "f",
					"outputs": [],
					"stateMutability": "nonpayable",
					"type": "function"
				}
			],
			"devdoc": {
				"kind": "dev",
				"methods": {},
				"version": 1
			},
			"evm": {
				"assembly": "    /* \"Hacks/GasRule.sol\":351:498  contract A {... */\n  mstore(0x40, 0x80)\n  callvalue\n  dup1\n  iszero\n  tag_1\n  jumpi\n  0x00\n  dup1\n  revert\ntag_1:\n  pop\n  dataSize(sub_0)\n  dup1\n  dataOffset(sub_0)\n  0x00\n  codecopy\n  0x00\n  return\nstop\n\nsub_0: assembly {\n        /* \"Hacks/GasRule.sol\":351:498  contract A {... */\n      mstore(0x40, 0x80)\n      callvalue\n      dup1\n      iszero\n      tag_1\n      jumpi\n      0x00\n      dup1\n      revert\n    tag_1:\n      pop\n      jumpi(tag_2, lt(calldatasize, 0x04))\n      shr(0xe0, calldataload(0x00))\n      dup1\n      0xfc68521a\n      eq\n      tag_3\n      jumpi\n    tag_2:\n      0x00\n      dup1\n      revert\n        /* \"Hacks/GasRule.sol\":369:495  function f(address b) external {... */\n    tag_3:\n      tag_4\n      0x04\n      dup1\n      calldatasize\n      sub\n      dup2\n      add\n      swap1\n      tag_5\n      swap2\n      swap1\n      tag_6\n      jump\t// in\n    tag_5:\n      tag_7\n      jump\t// in\n    tag_4:\n      stop\n    tag_7:\n        /* \"Hacks/GasRule.sol\":411:427  uint256 gasStart */\n      0x00\n        /* \"Hacks/GasRule.sol\":430:439  gasleft() */\n      gas\n        /* \"Hacks/GasRule.sol\":411:439  uint256 gasStart = gasleft() */\n      swap1\n      pop\n        /* \"Hacks/GasRule.sol\":460:461  b */\n      dup2\n        /* \"Hacks/GasRule.sol\":450:465  B(payable(b)).g */\n      0xffffffffffffffffffffffffffffffffffffffff\n      and\n      0x336895f5\n        /* \"Hacks/GasRule.sol\":466:476  msg.sender */\n      caller\n        /* \"Hacks/GasRule.sol\":478:486  gasStart */\n      dup4\n        /* \"Hacks/GasRule.sol\":450:487  B(payable(b)).g(msg.sender, gasStart) */\n      mload(0x40)\n      dup4\n      0xffffffff\n      and\n      0xe0\n      shl\n      dup2\n      mstore\n      0x04\n      add\n      tag_9\n      swap3\n      swap2\n      swap1\n      tag_10\n      jump\t// in\n    tag_9:\n      0x00\n      mload(0x40)\n      dup1\n      dup4\n      sub\n      dup2\n      0x00\n      dup8\n      dup1\n      extcodesize\n      iszero\n      dup1\n      iszero\n      tag_11\n      jumpi\n      0x00\n      dup1\n      revert\n    tag_11:\n      pop\n      gas\n      call\n      iszero\n      dup1\n      iszero\n      tag_13\n      jumpi\n      returndatasize\n      0x00\n      dup1\n      returndatacopy\n      revert(0x00, returndatasize)\n    tag_13:\n      pop\n      pop\n      pop\n      pop\n        /* \"Hacks/GasRule.sol\":400:495  {... */\n      pop\n        /* \"Hacks/GasRule.sol\":369:495  function f(address b) external {... */\n      pop\n      jump\t// out\n        /* \"#utility.yul\":88:205   */\n    tag_15:\n        /* \"#utility.yul\":197:198   */\n      0x00\n        /* \"#utility.yul\":194:195   */\n      dup1\n        /* \"#utility.yul\":187:199   */\n      revert\n        /* \"#utility.yul\":334:460   */\n    tag_17:\n        /* \"#utility.yul\":371:378   */\n      0x00\n        /* \"#utility.yul\":411:453   */\n      0xffffffffffffffffffffffffffffffffffffffff\n        /* \"#utility.yul\":404:409   */\n      dup3\n        /* \"#utility.yul\":400:454   */\n      and\n        /* \"#utility.yul\":389:454   */\n      swap1\n      pop\n        /* \"#utility.yul\":334:460   */\n      swap2\n      swap1\n      pop\n      jump\t// out\n        /* \"#utility.yul\":466:562   */\n    tag_18:\n        /* \"#utility.yul\":503:510   */\n      0x00\n        /* \"#utility.yul\":532:556   */\n      tag_30\n        /* \"#utility.yul\":550:555   */\n      dup3\n        /* \"#utility.yul\":532:556   */\n      tag_17\n      jump\t// in\n    tag_30:\n        /* \"#utility.yul\":521:556   */\n      swap1\n      pop\n        /* \"#utility.yul\":466:562   */\n      swap2\n      swap1\n      pop\n      jump\t// out\n        /* \"#utility.yul\":568:690   */\n    tag_19:\n        /* \"#utility.yul\":641:665   */\n      tag_32\n        /* \"#utility.yul\":659:664   */\n      dup2\n        /* \"#utility.yul\":641:665   */\n      tag_18\n      jump\t// in\n    tag_32:\n        /* \"#utility.yul\":634:639   */\n      dup2\n        /* \"#utility.yul\":631:666   */\n      eq\n        /* \"#utility.yul\":621:684   */\n      tag_33\n      jumpi\n        /* \"#utility.yul\":680:681   */\n      0x00\n        /* \"#utility.yul\":677:678   */\n      dup1\n        /* \"#utility.yul\":670:682   */\n      revert\n        /* \"#utility.yul\":621:684   */\n    tag_33:\n        /* \"#utility.yul\":568:690   */\n      pop\n      jump\t// out\n        /* \"#utility.yul\":696:835   */\n    tag_20:\n        /* \"#utility.yul\":742:747   */\n      0x00\n        /* \"#utility.yul\":780:786   */\n      dup2\n        /* \"#utility.yul\":767:787   */\n      calldataload\n        /* \"#utility.yul\":758:787   */\n      swap1\n      pop\n        /* \"#utility.yul\":796:829   */\n      tag_35\n        /* \"#utility.yul\":823:828   */\n      dup2\n        /* \"#utility.yul\":796:829   */\n      tag_19\n      jump\t// in\n    tag_35:\n        /* \"#utility.yul\":696:835   */\n      swap3\n      swap2\n      pop\n      pop\n      jump\t// out\n        /* \"#utility.yul\":841:1170   */\n    tag_6:\n        /* \"#utility.yul\":900:906   */\n      0x00\n        /* \"#utility.yul\":949:951   */\n      0x20\n        /* \"#utility.yul\":937:946   */\n      dup3\n        /* \"#utility.yul\":928:935   */\n      dup5\n        /* \"#utility.yul\":924:947   */\n      sub\n        /* \"#utility.yul\":920:952   */\n      slt\n        /* \"#utility.yul\":917:1036   */\n      iszero\n      tag_37\n      jumpi\n        /* \"#utility.yul\":955:1034   */\n      tag_38\n      tag_15\n      jump\t// in\n    tag_38:\n        /* \"#utility.yul\":917:1036   */\n    tag_37:\n        /* \"#utility.yul\":1075:1076   */\n      0x00\n        /* \"#utility.yul\":1100:1153   */\n      tag_39\n        /* \"#utility.yul\":1145:1152   */\n      dup5\n        /* \"#utility.yul\":1136:1142   */\n      dup3\n        /* \"#utility.yul\":1125:1134   */\n      dup6\n        /* \"#utility.yul\":1121:1143   */\n      add\n        /* \"#utility.yul\":1100:1153   */\n      tag_20\n      jump\t// in\n    tag_39:\n        /* \"#utility.yul\":1090:1153   */\n      swap2\n      pop\n        /* \"#utility.yul\":1046:1163   */\n      pop\n        /* \"#utility.yul\":841:1170   */\n      swap3\n      swap2\n      pop\n      pop\n      jump\t// out\n        /* \"#utility.yul\":1176:1294   */\n    tag_21:\n        /* \"#utility.yul\":1263:1287   */\n      tag_41\n        /* \"#utility.yul\":1281:1286   */\n      dup2\n        /* \"#utility.yul\":1263:1287   */\n      tag_18\n      jump\t// in\n    tag_41:\n        /* \"#utility.yul\":1258:1261   */\n      dup3\n        /* \"#utility.yul\":1251:1288   */\n      mstore\n        /* \"#utility.yul\":1176:1294   */\n      pop\n      pop\n      jump\t// out\n        /* \"#utility.yul\":1300:1377   */\n    tag_22:\n        /* \"#utility.yul\":1337:1344   */\n      0x00\n        /* \"#utility.yul\":1366:1371   */\n      dup2\n        /* \"#utility.yul\":1355:1371   */\n      swap1\n      pop\n        /* \"#utility.yul\":1300:1377   */\n      swap2\n      swap1\n      pop\n      jump\t// out\n        /* \"#utility.yul\":1383:1501   */\n    tag_23:\n        /* \"#utility.yul\":1470:1494   */\n      tag_44\n        /* \"#utility.yul\":1488:1493   */\n      dup2\n        /* \"#utility.yul\":1470:1494   */\n      tag_22\n      jump\t// in\n    tag_44:\n        /* \"#utility.yul\":1465:1468   */\n      dup3\n        /* \"#utility.yul\":1458:1495   */\n      mstore\n        /* \"#utility.yul\":1383:1501   */\n      pop\n      pop\n      jump\t// out\n        /* \"#utility.yul\":1507:1839   */\n    tag_10:\n        /* \"#utility.yul\":1628:1632   */\n      0x00\n        /* \"#utility.yul\":1666:1668   */\n      0x40\n        /* \"#utility.yul\":1655:1664   */\n      dup3\n        /* \"#utility.yul\":1651:1669   */\n      add\n        /* \"#utility.yul\":1643:1669   */\n      swap1\n      pop\n        /* \"#utility.yul\":1679:1750   */\n      tag_46\n        /* \"#utility.yul\":1747:1748   */\n      0x00\n        /* \"#utility.yul\":1736:1745   */\n      dup4\n        /* \"#utility.yul\":1732:1749   */\n      add\n        /* \"#utility.yul\":1723:1729   */\n      dup6\n        /* \"#utility.yul\":1679:1750   */\n      tag_21\n      jump\t// in\n    tag_46:\n        /* \"#utility.yul\":1760:1832   */\n      tag_47\n        /* \"#utility.yul\":1828:1830   */\n      0x20\n        /* \"#utility.yul\":1817:1826   */\n      dup4\n        /* \"#utility.yul\":1813:1831   */\n      add\n        /* \"#utility.yul\":1804:1810   */\n      dup5\n        /* \"#utility.yul\":1760:1832   */\n      tag_23\n      jump\t// in\n    tag_47:\n        /* \"#utility.yul\":1507:1839   */\n      swap4\n      swap3\n      pop\n      pop\n      pop\n      jump\t// out\n\n    auxdata: 0xa26469706673582212206ef8d6c3c7a8a0ca84f4b42b5262b87dd64a48d3017e858880245fc044696a3a64736f6c634300081a0033\n}\n",
				"bytecode": {
					"linkReferences": {},
					"object": "6080604052348015600e575f80fd5b506101c68061001c5f395ff3fe608060405234801561000f575f80fd5b5060043610610029575f3560e01c8063fc68521a1461002d575b5f80fd5b61004760048036038101906100429190610117565b610049565b005b5f5a90508173ffffffffffffffffffffffffffffffffffffffff1663336895f533836040518363ffffffff1660e01b8152600401610088929190610169565b5f604051808303815f87803b15801561009f575f80fd5b505af11580156100b1573d5f803e3d5ffd5b505050505050565b5f80fd5b5f73ffffffffffffffffffffffffffffffffffffffff82169050919050565b5f6100e6826100bd565b9050919050565b6100f6816100dc565b8114610100575f80fd5b50565b5f81359050610111816100ed565b92915050565b5f6020828403121561012c5761012b6100b9565b5b5f61013984828501610103565b91505092915050565b61014b816100dc565b82525050565b5f819050919050565b61016381610151565b82525050565b5f60408201905061017c5f830185610142565b610189602083018461015a565b939250505056fea26469706673582212206ef8d6c3c7a8a0ca84f4b42b5262b87dd64a48d3017e858880245fc044696a3a64736f6c634300081a0033",
					"opcodes": "PUSH1 0x80 PUSH1 0x40 MSTORE CALLVALUE DUP1 ISZERO PUSH1 0xE JUMPI PUSH0 DUP1 REVERT JUMPDEST POP PUSH2 0x1C6 DUP1 PUSH2 0x1C PUSH0 CODECOPY PUSH0 RETURN INVALID PUSH1 0x80 PUSH1 0x40 MSTORE CALLVALUE DUP1 ISZERO PUSH2 0xF JUMPI PUSH0 DUP1 REVERT JUMPDEST POP PUSH1 0x4 CALLDATASIZE LT PUSH2 0x29 JUMPI PUSH0 CALLDATALOAD PUSH1 0xE0 SHR DUP1 PUSH4 0xFC68521A EQ PUSH2 0x2D JUMPI JUMPDEST PUSH0 DUP1 REVERT JUMPDEST PUSH2 0x47 PUSH1 0x4 DUP1 CALLDATASIZE SUB DUP2 ADD SWAP1 PUSH2 0x42 SWAP2 SWAP1 PUSH2 0x117 JUMP JUMPDEST PUSH2 0x49 JUMP JUMPDEST STOP JUMPDEST PUSH0 GAS SWAP1 POP DUP2 PUSH20 0xFFFFFFFFFFFFFFFFFFFFFFFFFFFFFFFFFFFFFFFF AND PUSH4 0x336895F5 CALLER DUP4 PUSH1 0x40 MLOAD DUP4 PUSH4 0xFFFFFFFF AND PUSH1 0xE0 SHL DUP2 MSTORE PUSH1 0x4 ADD PUSH2 0x88 SWAP3 SWAP2 SWAP1 PUSH2 0x169 JUMP JUMPDEST PUSH0 PUSH1 0x40 MLOAD DUP1 DUP4 SUB DUP2 PUSH0 DUP8 DUP1 EXTCODESIZE ISZERO DUP1 ISZERO PUSH2 0x9F JUMPI PUSH0 DUP1 REVERT JUMPDEST POP GAS CALL ISZERO DUP1 ISZERO PUSH2 0xB1 JUMPI RETURNDATASIZE PUSH0 DUP1 RETURNDATACOPY RETURNDATASIZE PUSH0 REVERT JUMPDEST POP POP POP POP POP POP JUMP JUMPDEST PUSH0 DUP1 REVERT JUMPDEST PUSH0 PUSH20 0xFFFFFFFFFFFFFFFFFFFFFFFFFFFFFFFFFFFFFFFF DUP3 AND SWAP1 POP SWAP2 SWAP1 POP JUMP JUMPDEST PUSH0 PUSH2 0xE6 DUP3 PUSH2 0xBD JUMP JUMPDEST SWAP1 POP SWAP2 SWAP1 POP JUMP JUMPDEST PUSH2 0xF6 DUP2 PUSH2 0xDC JUMP JUMPDEST DUP2 EQ PUSH2 0x100 JUMPI PUSH0 DUP1 REVERT JUMPDEST POP JUMP JUMPDEST PUSH0 DUP2 CALLDATALOAD SWAP1 POP PUSH2 0x111 DUP2 PUSH2 0xED JUMP JUMPDEST SWAP3 SWAP2 POP POP JUMP JUMPDEST PUSH0 PUSH1 0x20 DUP3 DUP5 SUB SLT ISZERO PUSH2 0x12C JUMPI PUSH2 0x12B PUSH2 0xB9 JUMP JUMPDEST JUMPDEST PUSH0 PUSH2 0x139 DUP5 DUP3 DUP6 ADD PUSH2 0x103 JUMP JUMPDEST SWAP2 POP POP SWAP3 SWAP2 POP POP JUMP JUMPDEST PUSH2 0x14B DUP2 PUSH2 0xDC JUMP JUMPDEST DUP3 MSTORE POP POP JUMP JUMPDEST PUSH0 DUP2 SWAP1 POP SWAP2 SWAP1 POP JUMP JUMPDEST PUSH2 0x163 DUP2 PUSH2 0x151 JUMP JUMPDEST DUP3 MSTORE POP POP JUMP JUMPDEST PUSH0 PUSH1 0x40 DUP3 ADD SWAP1 POP PUSH2 0x17C PUSH0 DUP4 ADD DUP6 PUSH2 0x142 JUMP JUMPDEST PUSH2 0x189 PUSH1 0x20 DUP4 ADD DUP5 PUSH2 0x15A JUMP JUMPDEST SWAP4 SWAP3 POP POP POP JUMP INVALID LOG2 PUSH5 0x6970667358 0x22 SLT KECCAK256 PUSH15 0xF8D6C3C7A8A0CA84F4B42B5262B87D 0xD6 BLOBBASEFEE BASEFEE 0xD3 ADD PUSH31 0x858880245FC044696A3A64736F6C634300081A003300000000000000000000 "
				},
				"gasEstimates": {
					"creation": {
						"codeDepositCost": "90800",
						"executionCost": "139",
						"totalCost": "90939"
					},
					"external": {
						"f(address)": "infinite"
					}
				},
				"methodIdentifiers": {
					"f(address)": "fc68521a"
				}
			},
			"storageLayout": {
				"storage": [],
				"types": null
			},
			"userdoc": {
				"kind": "user",
				"methods": {},
				"version": 1
			}
		}
	}
}