{
	"data": {
		"bytecode": {
			"linkReferences": {},
			"object": "6080604052348015600e575f80fd5b5061055f8061001c5f395ff3fe608060405234801561000f575f80fd5b5060043610610029575f3560e01c80635d21d37b1461002d575b5f80fd5b610047600480360381019061004291906102c7565b610049565b005b8873ffffffffffffffffffffffffffffffffffffffff1663d505accf8930888a61007391906103b8565b888888886040518863ffffffff1660e01b81526004016100999796959493929190610427565b5f604051808303815f87803b1580156100b0575f80fd5b505af11580156100c2573d5f803e3d5ffd5b505050508873ffffffffffffffffffffffffffffffffffffffff166323b872dd8989896040518463ffffffff1660e01b815260040161010393929190610494565b6020604051808303815f875af115801561011f573d5f803e3d5ffd5b505050506040513d601f19601f8201168201806040525081019061014391906104fe565b508873ffffffffffffffffffffffffffffffffffffffff166323b872dd8933886040518463ffffffff1660e01b815260040161018193929190610494565b6020604051808303815f875af115801561019d573d5f803e3d5ffd5b505050506040513d601f19601f820116820180604052508101906101c191906104fe565b50505050505050505050565b5f80fd5b5f73ffffffffffffffffffffffffffffffffffffffff82169050919050565b5f6101fa826101d1565b9050919050565b61020a816101f0565b8114610214575f80fd5b50565b5f8135905061022581610201565b92915050565b5f819050919050565b61023d8161022b565b8114610247575f80fd5b50565b5f8135905061025881610234565b92915050565b5f60ff82169050919050565b6102738161025e565b811461027d575f80fd5b50565b5f8135905061028e8161026a565b92915050565b5f819050919050565b6102a681610294565b81146102b0575f80fd5b50565b5f813590506102c18161029d565b92915050565b5f805f805f805f805f6101208a8c0312156102e5576102e46101cd565b5b5f6102f28c828d01610217565b99505060206103038c828d01610217565b98505060406103148c828d01610217565b97505060606103258c828d0161024a565b96505060806103368c828d0161024a565b95505060a06103478c828d0161024a565b94505060c06103588c828d01610280565b93505060e06103698c828d016102b3565b92505061010061037b8c828d016102b3565b9150509295985092959850929598565b7f4e487b71000000000000000000000000000000000000000000000000000000005f52601160045260245ffd5b5f6103c28261022b565b91506103cd8361022b565b92508282019050808211156103e5576103e461038b565b5b92915050565b6103f4816101f0565b82525050565b6104038161022b565b82525050565b6104128161025e565b82525050565b61042181610294565b82525050565b5f60e08201905061043a5f83018a6103eb565b61044760208301896103eb565b61045460408301886103fa565b61046160608301876103fa565b61046e6080830186610409565b61047b60a0830185610418565b61048860c0830184610418565b98975050505050505050565b5f6060820190506104a75f8301866103eb565b6104b460208301856103eb565b6104c160408301846103fa565b949350505050565b5f8115159050919050565b6104dd816104c9565b81146104e7575f80fd5b50565b5f815190506104f8816104d4565b92915050565b5f60208284031215610513576105126101cd565b5b5f610520848285016104ea565b9150509291505056fea26469706673582212206a055f383a793ebb3a1aa20bf4e1d5d369221f4dc9ea71c08316dacb32f462b664736f6c634300081a0033",
			"opcodes": "PUSH1 0x80 PUSH1 0x40 MSTORE CALLVALUE DUP1 ISZERO PUSH1 0xE JUMPI PUSH0 DUP1 REVERT JUMPDEST POP PUSH2 0x55F DUP1 PUSH2 0x1C PUSH0 CODECOPY PUSH0 RETURN INVALID PUSH1 0x80 PUSH1 0x40 MSTORE CALLVALUE DUP1 ISZERO PUSH2 0xF JUMPI PUSH0 DUP1 REVERT JUMPDEST POP PUSH1 0x4 CALLDATASIZE LT PUSH2 0x29 JUMPI PUSH0 CALLDATALOAD PUSH1 0xE0 SHR DUP1 PUSH4 0x5D21D37B EQ PUSH2 0x2D JUMPI JUMPDEST PUSH0 DUP1 REVERT JUMPDEST PUSH2 0x47 PUSH1 0x4 DUP1 CALLDATASIZE SUB DUP2 ADD SWAP1 PUSH2 0x42 SWAP2 SWAP1 PUSH2 0x2C7 JUMP JUMPDEST PUSH2 0x49 JUMP JUMPDEST STOP JUMPDEST DUP9 PUSH20 0xFFFFFFFFFFFFFFFFFFFFFFFFFFFFFFFFFFFFFFFF AND PUSH4 0xD505ACCF DUP10 ADDRESS DUP9 DUP11 PUSH2 0x73 SWAP2 SWAP1 PUSH2 0x3B8 JUMP JUMPDEST DUP9 DUP9 DUP9 DUP9 PUSH1 0x40 MLOAD DUP9 PUSH4 0xFFFFFFFF AND PUSH1 0xE0 SHL DUP2 MSTORE PUSH1 0x4 ADD PUSH2 0x99 SWAP8 SWAP7 SWAP6 SWAP5 SWAP4 SWAP3 SWAP2 SWAP1 PUSH2 0x427 JUMP JUMPDEST PUSH0 PUSH1 0x40 MLOAD DUP1 DUP4 SUB DUP2 PUSH0 DUP8 DUP1 EXTCODESIZE ISZERO DUP1 ISZERO PUSH2 0xB0 JUMPI PUSH0 DUP1 REVERT JUMPDEST POP GAS CALL ISZERO DUP1 ISZERO PUSH2 0xC2 JUMPI RETURNDATASIZE PUSH0 DUP1 RETURNDATACOPY RETURNDATASIZE PUSH0 REVERT JUMPDEST POP POP POP POP DUP9 PUSH20 0xFFFFFFFFFFFFFFFFFFFFFFFFFFFFFFFFFFFFFFFF AND PUSH4 0x23B872DD DUP10 DUP10 DUP10 PUSH1 0x40 MLOAD DUP5 PUSH4 0xFFFFFFFF AND PUSH1 0xE0 SHL DUP2 MSTORE PUSH1 0x4 ADD PUSH2 0x103 SWAP4 SWAP3 SWAP2 SWAP1 PUSH2 0x494 JUMP JUMPDEST PUSH1 0x20 PUSH1 0x40 MLOAD DUP1 DUP4 SUB DUP2 PUSH0 DUP8 GAS CALL ISZERO DUP1 ISZERO PUSH2 0x11F JUMPI RETURNDATASIZE PUSH0 DUP1 RETURNDATACOPY RETURNDATASIZE PUSH0 REVERT JUMPDEST POP POP POP POP PUSH1 0x40 MLOAD RETURNDATASIZE PUSH1 0x1F NOT PUSH1 0x1F DUP3 ADD AND DUP3 ADD DUP1 PUSH1 0x40 MSTORE POP DUP2 ADD SWAP1 PUSH2 0x143 SWAP2 SWAP1 PUSH2 0x4FE JUMP JUMPDEST POP DUP9 PUSH20 0xFFFFFFFFFFFFFFFFFFFFFFFFFFFFFFFFFFFFFFFF AND PUSH4 0x23B872DD DUP10 CALLER DUP9 PUSH1 0x40 MLOAD DUP5 PUSH4 0xFFFFFFFF AND PUSH1 0xE0 SHL DUP2 MSTORE PUSH1 0x4 ADD PUSH2 0x181 SWAP4 SWAP3 SWAP2 SWAP1 PUSH2 0x494 JUMP JUMPDEST PUSH1 0x20 PUSH1 0x40 MLOAD DUP1 DUP4 SUB DUP2 PUSH0 DUP8 GAS CALL ISZERO DUP1 ISZERO PUSH2 0x19D JUMPI RETURNDATASIZE PUSH0 DUP1 RETURNDATACOPY RETURNDATASIZE PUSH0 REVERT JUMPDEST POP POP POP POP PUSH1 0x40 MLOAD RETURNDATASIZE PUSH1 0x1F NOT PUSH1 0x1F DUP3 ADD AND DUP3 ADD DUP1 PUSH1 0x40 MSTORE POP DUP2 ADD SWAP1 PUSH2 0x1C1 SWAP2 SWAP1 PUSH2 0x4FE JUMP JUMPDEST POP POP POP POP POP POP POP POP POP POP JUMP JUMPDEST PUSH0 DUP1 REVERT JUMPDEST PUSH0 PUSH20 0xFFFFFFFFFFFFFFFFFFFFFFFFFFFFFFFFFFFFFFFF DUP3 AND SWAP1 POP SWAP2 SWAP1 POP JUMP JUMPDEST PUSH0 PUSH2 0x1FA DUP3 PUSH2 0x1D1 JUMP JUMPDEST SWAP1 POP SWAP2 SWAP1 POP JUMP JUMPDEST PUSH2 0x20A DUP2 PUSH2 0x1F0 JUMP JUMPDEST DUP2 EQ PUSH2 0x214 JUMPI PUSH0 DUP1 REVERT JUMPDEST POP JUMP JUMPDEST PUSH0 DUP2 CALLDATALOAD SWAP1 POP PUSH2 0x225 DUP2 PUSH2 0x201 JUMP JUMPDEST SWAP3 SWAP2 POP POP JUMP JUMPDEST PUSH0 DUP2 SWAP1 POP SWAP2 SWAP1 POP JUMP JUMPDEST PUSH2 0x23D DUP2 PUSH2 0x22B JUMP JUMPDEST DUP2 EQ PUSH2 0x247 JUMPI PUSH0 DUP1 REVERT JUMPDEST POP JUMP JUMPDEST PUSH0 DUP2 CALLDATALOAD SWAP1 POP PUSH2 0x258 DUP2 PUSH2 0x234 JUMP JUMPDEST SWAP3 SWAP2 POP POP JUMP JUMPDEST PUSH0 PUSH1 0xFF DUP3 AND SWAP1 POP SWAP2 SWAP1 POP JUMP JUMPDEST PUSH2 0x273 DUP2 PUSH2 0x25E JUMP JUMPDEST DUP2 EQ PUSH2 0x27D JUMPI PUSH0 DUP1 REVERT JUMPDEST POP JUMP JUMPDEST PUSH0 DUP2 CALLDATALOAD SWAP1 POP PUSH2 0x28E DUP2 PUSH2 0x26A JUMP JUMPDEST SWAP3 SWAP2 POP POP JUMP JUMPDEST PUSH0 DUP2 SWAP1 POP SWAP2 SWAP1 POP JUMP JUMPDEST PUSH2 0x2A6 DUP2 PUSH2 0x294 JUMP JUMPDEST DUP2 EQ PUSH2 0x2B0 JUMPI PUSH0 DUP1 REVERT JUMPDEST POP JUMP JUMPDEST PUSH0 DUP2 CALLDATALOAD SWAP1 POP PUSH2 0x2C1 DUP2 PUSH2 0x29D JUMP JUMPDEST SWAP3 SWAP2 POP POP JUMP JUMPDEST PUSH0 DUP1 PUSH0 DUP1 PUSH0 DUP1 PUSH0 DUP1 PUSH0 PUSH2 0x120 DUP11 DUP13 SUB SLT ISZERO PUSH2 0x2E5 JUMPI PUSH2 0x2E4 PUSH2 0x1CD JUMP JUMPDEST JUMPDEST PUSH0 PUSH2 0x2F2 DUP13 DUP3 DUP14 ADD PUSH2 0x217 JUMP JUMPDEST SWAP10 POP POP PUSH1 0x20 PUSH2 0x303 DUP13 DUP3 DUP14 ADD PUSH2 0x217 JUMP JUMPDEST SWAP9 POP POP PUSH1 0x40 PUSH2 0x314 DUP13 DUP3 DUP14 ADD PUSH2 0x217 JUMP JUMPDEST SWAP8 POP POP PUSH1 0x60 PUSH2 0x325 DUP13 DUP3 DUP14 ADD PUSH2 0x24A JUMP JUMPDEST SWAP7 POP POP PUSH1 0x80 PUSH2 0x336 DUP13 DUP3 DUP14 ADD PUSH2 0x24A JUMP JUMPDEST SWAP6 POP POP PUSH1 0xA0 PUSH2 0x347 DUP13 DUP3 DUP14 ADD PUSH2 0x24A JUMP JUMPDEST SWAP5 POP POP PUSH1 0xC0 PUSH2 0x358 DUP13 DUP3 DUP14 ADD PUSH2 0x280 JUMP JUMPDEST SWAP4 POP POP PUSH1 0xE0 PUSH2 0x369 DUP13 DUP3 DUP14 ADD PUSH2 0x2B3 JUMP JUMPDEST SWAP3 POP POP PUSH2 0x100 PUSH2 0x37B DUP13 DUP3 DUP14 ADD PUSH2 0x2B3 JUMP JUMPDEST SWAP2 POP POP SWAP3 SWAP6 SWAP9 POP SWAP3 SWAP6 SWAP9 POP SWAP3 SWAP6 SWAP9 JUMP JUMPDEST PUSH32 0x4E487B7100000000000000000000000000000000000000000000000000000000 PUSH0 MSTORE PUSH1 0x11 PUSH1 0x4 MSTORE PUSH1 0x24 PUSH0 REVERT JUMPDEST PUSH0 PUSH2 0x3C2 DUP3 PUSH2 0x22B JUMP JUMPDEST SWAP2 POP PUSH2 0x3CD DUP4 PUSH2 0x22B JUMP JUMPDEST SWAP3 POP DUP3 DUP3 ADD SWAP1 POP DUP1 DUP3 GT ISZERO PUSH2 0x3E5 JUMPI PUSH2 0x3E4 PUSH2 0x38B JUMP JUMPDEST JUMPDEST SWAP3 SWAP2 POP POP JUMP JUMPDEST PUSH2 0x3F4 DUP2 PUSH2 0x1F0 JUMP JUMPDEST DUP3 MSTORE POP POP JUMP JUMPDEST PUSH2 0x403 DUP2 PUSH2 0x22B JUMP JUMPDEST DUP3 MSTORE POP POP JUMP JUMPDEST PUSH2 0x412 DUP2 PUSH2 0x25E JUMP JUMPDEST DUP3 MSTORE POP POP JUMP JUMPDEST PUSH2 0x421 DUP2 PUSH2 0x294 JUMP JUMPDEST DUP3 MSTORE POP POP JUMP JUMPDEST PUSH0 PUSH1 0xE0 DUP3 ADD SWAP1 POP PUSH2 0x43A PUSH0 DUP4 ADD DUP11 PUSH2 0x3EB JUMP JUMPDEST PUSH2 0x447 PUSH1 0x20 DUP4 ADD DUP10 PUSH2 0x3EB JUMP JUMPDEST PUSH2 0x454 PUSH1 0x40 DUP4 ADD DUP9 PUSH2 0x3FA JUMP JUMPDEST PUSH2 0x461 PUSH1 0x60 DUP4 ADD DUP8 PUSH2 0x3FA JUMP JUMPDEST PUSH2 0x46E PUSH1 0x80 DUP4 ADD DUP7 PUSH2 0x409 JUMP JUMPDEST PUSH2 0x47B PUSH1 0xA0 DUP4 ADD DUP6 PUSH2 0x418 JUMP JUMPDEST PUSH2 0x488 PUSH1 0xC0 DUP4 ADD DUP5 PUSH2 0x418 JUMP JUMPDEST SWAP9 SWAP8 POP POP POP POP POP POP POP POP JUMP JUMPDEST PUSH0 PUSH1 0x60 DUP3 ADD SWAP1 POP PUSH2 0x4A7 PUSH0 DUP4 ADD DUP7 PUSH2 0x3EB JUMP JUMPDEST PUSH2 0x4B4 PUSH1 0x20 DUP4 ADD DUP6 PUSH2 0x3EB JUMP JUMPDEST PUSH2 0x4C1 PUSH1 0x40 DUP4 ADD DUP5 PUSH2 0x3FA JUMP JUMPDEST SWAP5 SWAP4 POP POP POP POP JUMP JUMPDEST PUSH0 DUP2 ISZERO ISZERO SWAP1 POP SWAP2 SWAP1 POP JUMP JUMPDEST PUSH2 0x4DD DUP2 PUSH2 0x4C9 JUMP JUMPDEST DUP2 EQ PUSH2 0x4E7 JUMPI PUSH0 DUP1 REVERT JUMPDEST POP JUMP JUMPDEST PUSH0 DUP2 MLOAD SWAP1 POP PUSH2 0x4F8 DUP2 PUSH2 0x4D4 JUMP JUMPDEST SWAP3 SWAP2 POP POP JUMP JUMPDEST PUSH0 PUSH1 0x20 DUP3 DUP5 SUB SLT ISZERO PUSH2 0x513 JUMPI PUSH2 0x512 PUSH2 0x1CD JUMP JUMPDEST JUMPDEST PUSH0 PUSH2 0x520 DUP5 DUP3 DUP6 ADD PUSH2 0x4EA JUMP JUMPDEST SWAP2 POP POP SWAP3 SWAP2 POP POP JUMP INVALID LOG2 PUSH5 0x6970667358 0x22 SLT KECCAK256 PUSH11 0x55F383A793EBB3A1AA20B DELEGATECALL 0xE1 0xD5 0xD3 PUSH10 0x221F4DC9EA71C08316DA 0xCB ORIGIN DELEGATECALL PUSH3 0xB66473 PUSH16 0x6C634300081A00330000000000000000 "
		},
		"gasEstimates": {
			"creation": {
				"codeDepositCost": "275000",
				"executionCost": "310",
				"totalCost": "275310"
			},
			"external": {
				"send(address,address,address,uint256,uint256,uint256,uint8,bytes32,bytes32)": "infinite"
			}
		},
		"methodIdentifiers": {
			"send(address,address,address,uint256,uint256,uint256,uint8,bytes32,bytes32)": "5d21d37b"
		}
	},
	"abi": [
		{
			"inputs": [
				{
					"internalType": "address",
					"name": "token",
					"type": "address"
				},
				{
					"internalType": "address",
					"name": "sender",
					"type": "address"
				},
				{
					"internalType": "address",
					"name": "receiver",
					"type": "address"
				},
				{
					"internalType": "uint256",
					"name": "amount",
					"type": "uint256"
				},
				{
					"internalType": "uint256",
					"name": "fee",
					"type": "uint256"
				},
				{
					"internalType": "uint256",
					"name": "deadline",
					"type": "uint256"
				},
				{
					"internalType": "uint8",
					"name": "v",
					"type": "uint8"
				},
				{
					"internalType": "bytes32",
					"name": "r",
					"type": "bytes32"
				},
				{
					"internalType": "bytes32",
					"name": "s",
					"type": "bytes32"
				}
			],
			"name": "send",
			"outputs": [],
			"stateMutability": "nonpayable",
			"type": "function"
		}
	]
}