{
	"data": {
		"bytecode": {
			"linkReferences": {
				"Applications/IterableMapping.sol": {
					"IterableMapping": [
						{
							"length": 20,
							"start": 86
						},
						{
							"length": 20,
							"start": 191
						},
						{
							"length": 20,
							"start": 298
						},
						{
							"length": 20,
							"start": 405
						},
						{
							"length": 20,
							"start": 512
						},
						{
							"length": 20,
							"start": 622
						},
						{
							"length": 20,
							"start": 750
						},
						{
							"length": 20,
							"start": 887
						},
						{
							"length": 20,
							"start": 1038
						},
						{
							"length": 20,
							"start": 1144
						},
						{
							"length": 20,
							"start": 1301
						},
						{
							"length": 20,
							"start": 1483
						},
						{
							"length": 20,
							"start": 1666
						}
					]
				}
			},
			"object": "6080604052348015600e575f80fd5b50610bf08061001c5f395ff3fe608060405234801561000f575f80fd5b5060043610610029575f3560e01c8063d230a0d51461002d575b5f80fd5b610035610037565b005b5f73__$7c47a062338ae4b51eca1cf7e9c0c7cfe2$__63bc2b405c90915f806040518463ffffffff1660e01b815260040161007493929190610795565b5f6040518083038186803b15801561008a575f80fd5b505af415801561009c573d5f803e3d5ffd5b505050505f73__$7c47a062338ae4b51eca1cf7e9c0c7cfe2$__63bc2b405c9091600160646040518463ffffffff1660e01b81526004016100df93929190610803565b5f6040518083038186803b1580156100f5575f80fd5b505af4158015610107573d5f803e3d5ffd5b505050505f73__$7c47a062338ae4b51eca1cf7e9c0c7cfe2$__63bc2b405c9091600260c86040518463ffffffff1660e01b815260040161014a93929190610871565b5f6040518083038186803b158015610160575f80fd5b505af4158015610172573d5f803e3d5ffd5b505050505f73__$7c47a062338ae4b51eca1cf7e9c0c7cfe2$__63bc2b405c9091600260c86040518463ffffffff1660e01b81526004016101b593929190610871565b5f6040518083038186803b1580156101cb575f80fd5b505af41580156101dd573d5f803e3d5ffd5b505050505f73__$7c47a062338ae4b51eca1cf7e9c0c7cfe2$__63bc2b405c9091600361012c6040518463ffffffff1660e01b8152600401610221939291906108df565b5f6040518083038186803b158015610237575f80fd5b505af4158015610249573d5f803e3d5ffd5b505050505f5b5f73__$7c47a062338ae4b51eca1cf7e9c0c7cfe2$__63deb3d89690916040518263ffffffff1660e01b81526004016102889190610914565b602060405180830381865af41580156102a3573d5f803e3d5ffd5b505050506040513d601f19601f820116820180604052508101906102c7919061095b565b8110156103ee575f8073__$7c47a062338ae4b51eca1cf7e9c0c7cfe2$__63d1aa9e7e9091846040518363ffffffff1660e01b815260040161030a929190610995565b602060405180830381865af4158015610325573d5f803e3d5ffd5b505050506040513d601f19601f8201168201806040525081019061034991906109e6565b90506064826103589190610a3e565b5f73__$7c47a062338ae4b51eca1cf7e9c0c7cfe2$__63732a2ccf9091846040518363ffffffff1660e01b8152600401610393929190610a7f565b602060405180830381865af41580156103ae573d5f803e3d5ffd5b505050506040513d601f19601f820116820180604052508101906103d2919061095b565b146103e0576103df610aa6565b5b50808060010191505061024f565b505f73__$7c47a062338ae4b51eca1cf7e9c0c7cfe2$__634c60db9c909160016040518363ffffffff1660e01b815260040161042b929190610a7f565b5f6040518083038186803b158015610441575f80fd5b505af4158015610453573d5f803e3d5ffd5b5050505060035f73__$7c47a062338ae4b51eca1cf7e9c0c7cfe2$__63deb3d89690916040518263ffffffff1660e01b81526004016104929190610914565b602060405180830381865af41580156104ad573d5f803e3d5ffd5b505050506040513d601f19601f820116820180604052508101906104d1919061095b565b146104df576104de610aa6565b5b5f73ffffffffffffffffffffffffffffffffffffffff165f73__$7c47a062338ae4b51eca1cf7e9c0c7cfe2$__63d1aa9e7e90915f6040518363ffffffff1660e01b8152600401610531929190610ad3565b602060405180830381865af415801561054c573d5f803e3d5ffd5b505050506040513d601f19601f8201168201806040525081019061057091906109e6565b73ffffffffffffffffffffffffffffffffffffffff161461059457610593610aa6565b5b600373ffffffffffffffffffffffffffffffffffffffff165f73__$7c47a062338ae4b51eca1cf7e9c0c7cfe2$__63d1aa9e7e909160016040518363ffffffff1660e01b81526004016105e8929190610b33565b602060405180830381865af4158015610603573d5f803e3d5ffd5b505050506040513d601f19601f8201168201806040525081019061062791906109e6565b73ffffffffffffffffffffffffffffffffffffffff161461064b5761064a610aa6565b5b600273ffffffffffffffffffffffffffffffffffffffff165f73__$7c47a062338ae4b51eca1cf7e9c0c7cfe2$__63d1aa9e7e909160026040518363ffffffff1660e01b815260040161069f929190610b93565b602060405180830381865af41580156106ba573d5f803e3d5ffd5b505050506040513d601f19601f820116820180604052508101906106de91906109e6565b73ffffffffffffffffffffffffffffffffffffffff161461070257610701610aa6565b5b565b8082525050565b5f73ffffffffffffffffffffffffffffffffffffffff82169050919050565b5f6107348261070b565b9050919050565b6107448161072a565b82525050565b5f819050919050565b5f819050919050565b5f819050919050565b5f61077f61077a6107758461074a565b61075c565b610753565b9050919050565b61078f81610765565b82525050565b5f6060820190506107a85f830186610704565b6107b5602083018561073b565b6107c26040830184610786565b949350505050565b5f819050919050565b5f6107ed6107e86107e3846107ca565b61075c565b610753565b9050919050565b6107fd816107d3565b82525050565b5f6060820190506108165f830186610704565b610823602083018561073b565b61083060408301846107f4565b949350505050565b5f819050919050565b5f61085b61085661085184610838565b61075c565b610753565b9050919050565b61086b81610841565b82525050565b5f6060820190506108845f830186610704565b610891602083018561073b565b61089e6040830184610862565b949350505050565b5f819050919050565b5f6108c96108c46108bf846108a6565b61075c565b610753565b9050919050565b6108d9816108af565b82525050565b5f6060820190506108f25f830186610704565b6108ff602083018561073b565b61090c60408301846108d0565b949350505050565b5f6020820190506109275f830184610704565b92915050565b5f80fd5b61093a81610753565b8114610944575f80fd5b50565b5f8151905061095581610931565b92915050565b5f602082840312156109705761096f61092d565b5b5f61097d84828501610947565b91505092915050565b61098f81610753565b82525050565b5f6040820190506109a85f830185610704565b6109b56020830184610986565b9392505050565b6109c58161072a565b81146109cf575f80fd5b50565b5f815190506109e0816109bc565b92915050565b5f602082840312156109fb576109fa61092d565b5b5f610a08848285016109d2565b91505092915050565b7f4e487b71000000000000000000000000000000000000000000000000000000005f52601160045260245ffd5b5f610a4882610753565b9150610a5383610753565b9250828202610a6181610753565b91508282048414831517610a7857610a77610a11565b5b5092915050565b5f604082019050610a925f830185610704565b610a9f602083018461073b565b9392505050565b7f4e487b71000000000000000000000000000000000000000000000000000000005f52600160045260245ffd5b5f604082019050610ae65f830185610704565b610af36020830184610786565b9392505050565b5f819050919050565b5f610b1d610b18610b1384610afa565b61075c565b610753565b9050919050565b610b2d81610b03565b82525050565b5f604082019050610b465f830185610704565b610b536020830184610b24565b9392505050565b5f819050919050565b5f610b7d610b78610b7384610b5a565b61075c565b610753565b9050919050565b610b8d81610b63565b82525050565b5f604082019050610ba65f830185610704565b610bb36020830184610b84565b939250505056fea264697066735822122061f67b5c190cf9bd769f2145f8812a31a9e7471a2e868dd52d2c2bd63639ced864736f6c634300081a0033",
			"opcodes": "PUSH1 0x80 PUSH1 0x40 MSTORE CALLVALUE DUP1 ISZERO PUSH1 0xE JUMPI PUSH0 DUP1 REVERT JUMPDEST POP PUSH2 0xBF0 DUP1 PUSH2 0x1C PUSH0 CODECOPY PUSH0 RETURN INVALID PUSH1 0x80 PUSH1 0x40 MSTORE CALLVALUE DUP1 ISZERO PUSH2 0xF JUMPI PUSH0 DUP1 REVERT JUMPDEST POP PUSH1 0x4 CALLDATASIZE LT PUSH2 0x29 JUMPI PUSH0 CALLDATALOAD PUSH1 0xE0 SHR DUP1 PUSH4 0xD230A0D5 EQ PUSH2 0x2D JUMPI JUMPDEST PUSH0 DUP1 REVERT JUMPDEST PUSH2 0x35 PUSH2 0x37 JUMP JUMPDEST STOP JUMPDEST PUSH0 PUSH20 0x0 PUSH4 0xBC2B405C SWAP1 SWAP2 PUSH0 DUP1 PUSH1 0x40 MLOAD DUP5 PUSH4 0xFFFFFFFF AND PUSH1 0xE0 SHL DUP2 MSTORE PUSH1 0x4 ADD PUSH2 0x74 SWAP4 SWAP3 SWAP2 SWAP1 PUSH2 0x795 JUMP JUMPDEST PUSH0 PUSH1 0x40 MLOAD DUP1 DUP4 SUB DUP2 DUP7 DUP1 EXTCODESIZE ISZERO DUP1 ISZERO PUSH2 0x8A JUMPI PUSH0 DUP1 REVERT JUMPDEST POP GAS DELEGATECALL ISZERO DUP1 ISZERO PUSH2 0x9C JUMPI RETURNDATASIZE PUSH0 DUP1 RETURNDATACOPY RETURNDATASIZE PUSH0 REVERT JUMPDEST POP POP POP POP PUSH0 PUSH20 0x0 PUSH4 0xBC2B405C SWAP1 SWAP2 PUSH1 0x1 PUSH1 0x64 PUSH1 0x40 MLOAD DUP5 PUSH4 0xFFFFFFFF AND PUSH1 0xE0 SHL DUP2 MSTORE PUSH1 0x4 ADD PUSH2 0xDF SWAP4 SWAP3 SWAP2 SWAP1 PUSH2 0x803 JUMP JUMPDEST PUSH0 PUSH1 0x40 MLOAD DUP1 DUP4 SUB DUP2 DUP7 DUP1 EXTCODESIZE ISZERO DUP1 ISZERO PUSH2 0xF5 JUMPI PUSH0 DUP1 REVERT JUMPDEST POP GAS DELEGATECALL ISZERO DUP1 ISZERO PUSH2 0x107 JUMPI RETURNDATASIZE PUSH0 DUP1 RETURNDATACOPY RETURNDATASIZE PUSH0 REVERT JUMPDEST POP POP POP POP PUSH0 PUSH20 0x0 PUSH4 0xBC2B405C SWAP1 SWAP2 PUSH1 0x2 PUSH1 0xC8 PUSH1 0x40 MLOAD DUP5 PUSH4 0xFFFFFFFF AND PUSH1 0xE0 SHL DUP2 MSTORE PUSH1 0x4 ADD PUSH2 0x14A SWAP4 SWAP3 SWAP2 SWAP1 PUSH2 0x871 JUMP JUMPDEST PUSH0 PUSH1 0x40 MLOAD DUP1 DUP4 SUB DUP2 DUP7 DUP1 EXTCODESIZE ISZERO DUP1 ISZERO PUSH2 0x160 JUMPI PUSH0 DUP1 REVERT JUMPDEST POP GAS DELEGATECALL ISZERO DUP1 ISZERO PUSH2 0x172 JUMPI RETURNDATASIZE PUSH0 DUP1 RETURNDATACOPY RETURNDATASIZE PUSH0 REVERT JUMPDEST POP POP POP POP PUSH0 PUSH20 0x0 PUSH4 0xBC2B405C SWAP1 SWAP2 PUSH1 0x2 PUSH1 0xC8 PUSH1 0x40 MLOAD DUP5 PUSH4 0xFFFFFFFF AND PUSH1 0xE0 SHL DUP2 MSTORE PUSH1 0x4 ADD PUSH2 0x1B5 SWAP4 SWAP3 SWAP2 SWAP1 PUSH2 0x871 JUMP JUMPDEST PUSH0 PUSH1 0x40 MLOAD DUP1 DUP4 SUB DUP2 DUP7 DUP1 EXTCODESIZE ISZERO DUP1 ISZERO PUSH2 0x1CB JUMPI PUSH0 DUP1 REVERT JUMPDEST POP GAS DELEGATECALL ISZERO DUP1 ISZERO PUSH2 0x1DD JUMPI RETURNDATASIZE PUSH0 DUP1 RETURNDATACOPY RETURNDATASIZE PUSH0 REVERT JUMPDEST POP POP POP POP PUSH0 PUSH20 0x0 PUSH4 0xBC2B405C SWAP1 SWAP2 PUSH1 0x3 PUSH2 0x12C PUSH1 0x40 MLOAD DUP5 PUSH4 0xFFFFFFFF AND PUSH1 0xE0 SHL DUP2 MSTORE PUSH1 0x4 ADD PUSH2 0x221 SWAP4 SWAP3 SWAP2 SWAP1 PUSH2 0x8DF JUMP JUMPDEST PUSH0 PUSH1 0x40 MLOAD DUP1 DUP4 SUB DUP2 DUP7 DUP1 EXTCODESIZE ISZERO DUP1 ISZERO PUSH2 0x237 JUMPI PUSH0 DUP1 REVERT JUMPDEST POP GAS DELEGATECALL ISZERO DUP1 ISZERO PUSH2 0x249 JUMPI RETURNDATASIZE PUSH0 DUP1 RETURNDATACOPY RETURNDATASIZE PUSH0 REVERT JUMPDEST POP POP POP POP PUSH0 JUMPDEST PUSH0 PUSH20 0x0 PUSH4 0xDEB3D896 SWAP1 SWAP2 PUSH1 0x40 MLOAD DUP3 PUSH4 0xFFFFFFFF AND PUSH1 0xE0 SHL DUP2 MSTORE PUSH1 0x4 ADD PUSH2 0x288 SWAP2 SWAP1 PUSH2 0x914 JUMP JUMPDEST PUSH1 0x20 PUSH1 0x40 MLOAD DUP1 DUP4 SUB DUP2 DUP7 GAS DELEGATECALL ISZERO DUP1 ISZERO PUSH2 0x2A3 JUMPI RETURNDATASIZE PUSH0 DUP1 RETURNDATACOPY RETURNDATASIZE PUSH0 REVERT JUMPDEST POP POP POP POP PUSH1 0x40 MLOAD RETURNDATASIZE PUSH1 0x1F NOT PUSH1 0x1F DUP3 ADD AND DUP3 ADD DUP1 PUSH1 0x40 MSTORE POP DUP2 ADD SWAP1 PUSH2 0x2C7 SWAP2 SWAP1 PUSH2 0x95B JUMP JUMPDEST DUP2 LT ISZERO PUSH2 0x3EE JUMPI PUSH0 DUP1 PUSH20 0x0 PUSH4 0xD1AA9E7E SWAP1 SWAP2 DUP5 PUSH1 0x40 MLOAD DUP4 PUSH4 0xFFFFFFFF AND PUSH1 0xE0 SHL DUP2 MSTORE PUSH1 0x4 ADD PUSH2 0x30A SWAP3 SWAP2 SWAP1 PUSH2 0x995 JUMP JUMPDEST PUSH1 0x20 PUSH1 0x40 MLOAD DUP1 DUP4 SUB DUP2 DUP7 GAS DELEGATECALL ISZERO DUP1 ISZERO PUSH2 0x325 JUMPI RETURNDATASIZE PUSH0 DUP1 RETURNDATACOPY RETURNDATASIZE PUSH0 REVERT JUMPDEST POP POP POP POP PUSH1 0x40 MLOAD RETURNDATASIZE PUSH1 0x1F NOT PUSH1 0x1F DUP3 ADD AND DUP3 ADD DUP1 PUSH1 0x40 MSTORE POP DUP2 ADD SWAP1 PUSH2 0x349 SWAP2 SWAP1 PUSH2 0x9E6 JUMP JUMPDEST SWAP1 POP PUSH1 0x64 DUP3 PUSH2 0x358 SWAP2 SWAP1 PUSH2 0xA3E JUMP JUMPDEST PUSH0 PUSH20 0x0 PUSH4 0x732A2CCF SWAP1 SWAP2 DUP5 PUSH1 0x40 MLOAD DUP4 PUSH4 0xFFFFFFFF AND PUSH1 0xE0 SHL DUP2 MSTORE PUSH1 0x4 ADD PUSH2 0x393 SWAP3 SWAP2 SWAP1 PUSH2 0xA7F JUMP JUMPDEST PUSH1 0x20 PUSH1 0x40 MLOAD DUP1 DUP4 SUB DUP2 DUP7 GAS DELEGATECALL ISZERO DUP1 ISZERO PUSH2 0x3AE JUMPI RETURNDATASIZE PUSH0 DUP1 RETURNDATACOPY RETURNDATASIZE PUSH0 REVERT JUMPDEST POP POP POP POP PUSH1 0x40 MLOAD RETURNDATASIZE PUSH1 0x1F NOT PUSH1 0x1F DUP3 ADD AND DUP3 ADD DUP1 PUSH1 0x40 MSTORE POP DUP2 ADD SWAP1 PUSH2 0x3D2 SWAP2 SWAP1 PUSH2 0x95B JUMP JUMPDEST EQ PUSH2 0x3E0 JUMPI PUSH2 0x3DF PUSH2 0xAA6 JUMP JUMPDEST JUMPDEST POP DUP1 DUP1 PUSH1 0x1 ADD SWAP2 POP POP PUSH2 0x24F JUMP JUMPDEST POP PUSH0 PUSH20 0x0 PUSH4 0x4C60DB9C SWAP1 SWAP2 PUSH1 0x1 PUSH1 0x40 MLOAD DUP4 PUSH4 0xFFFFFFFF AND PUSH1 0xE0 SHL DUP2 MSTORE PUSH1 0x4 ADD PUSH2 0x42B SWAP3 SWAP2 SWAP1 PUSH2 0xA7F JUMP JUMPDEST PUSH0 PUSH1 0x40 MLOAD DUP1 DUP4 SUB DUP2 DUP7 DUP1 EXTCODESIZE ISZERO DUP1 ISZERO PUSH2 0x441 JUMPI PUSH0 DUP1 REVERT JUMPDEST POP GAS DELEGATECALL ISZERO DUP1 ISZERO PUSH2 0x453 JUMPI RETURNDATASIZE PUSH0 DUP1 RETURNDATACOPY RETURNDATASIZE PUSH0 REVERT JUMPDEST POP POP POP POP PUSH1 0x3 PUSH0 PUSH20 0x0 PUSH4 0xDEB3D896 SWAP1 SWAP2 PUSH1 0x40 MLOAD DUP3 PUSH4 0xFFFFFFFF AND PUSH1 0xE0 SHL DUP2 MSTORE PUSH1 0x4 ADD PUSH2 0x492 SWAP2 SWAP1 PUSH2 0x914 JUMP JUMPDEST PUSH1 0x20 PUSH1 0x40 MLOAD DUP1 DUP4 SUB DUP2 DUP7 GAS DELEGATECALL ISZERO DUP1 ISZERO PUSH2 0x4AD JUMPI RETURNDATASIZE PUSH0 DUP1 RETURNDATACOPY RETURNDATASIZE PUSH0 REVERT JUMPDEST POP POP POP POP PUSH1 0x40 MLOAD RETURNDATASIZE PUSH1 0x1F NOT PUSH1 0x1F DUP3 ADD AND DUP3 ADD DUP1 PUSH1 0x40 MSTORE POP DUP2 ADD SWAP1 PUSH2 0x4D1 SWAP2 SWAP1 PUSH2 0x95B JUMP JUMPDEST EQ PUSH2 0x4DF JUMPI PUSH2 0x4DE PUSH2 0xAA6 JUMP JUMPDEST JUMPDEST PUSH0 PUSH20 0xFFFFFFFFFFFFFFFFFFFFFFFFFFFFFFFFFFFFFFFF AND PUSH0 PUSH20 0x0 PUSH4 0xD1AA9E7E SWAP1 SWAP2 PUSH0 PUSH1 0x40 MLOAD DUP4 PUSH4 0xFFFFFFFF AND PUSH1 0xE0 SHL DUP2 MSTORE PUSH1 0x4 ADD PUSH2 0x531 SWAP3 SWAP2 SWAP1 PUSH2 0xAD3 JUMP JUMPDEST PUSH1 0x20 PUSH1 0x40 MLOAD DUP1 DUP4 SUB DUP2 DUP7 GAS DELEGATECALL ISZERO DUP1 ISZERO PUSH2 0x54C JUMPI RETURNDATASIZE PUSH0 DUP1 RETURNDATACOPY RETURNDATASIZE PUSH0 REVERT JUMPDEST POP POP POP POP PUSH1 0x40 MLOAD RETURNDATASIZE PUSH1 0x1F NOT PUSH1 0x1F DUP3 ADD AND DUP3 ADD DUP1 PUSH1 0x40 MSTORE POP DUP2 ADD SWAP1 PUSH2 0x570 SWAP2 SWAP1 PUSH2 0x9E6 JUMP JUMPDEST PUSH20 0xFFFFFFFFFFFFFFFFFFFFFFFFFFFFFFFFFFFFFFFF AND EQ PUSH2 0x594 JUMPI PUSH2 0x593 PUSH2 0xAA6 JUMP JUMPDEST JUMPDEST PUSH1 0x3 PUSH20 0xFFFFFFFFFFFFFFFFFFFFFFFFFFFFFFFFFFFFFFFF AND PUSH0 PUSH20 0x0 PUSH4 0xD1AA9E7E SWAP1 SWAP2 PUSH1 0x1 PUSH1 0x40 MLOAD DUP4 PUSH4 0xFFFFFFFF AND PUSH1 0xE0 SHL DUP2 MSTORE PUSH1 0x4 ADD PUSH2 0x5E8 SWAP3 SWAP2 SWAP1 PUSH2 0xB33 JUMP JUMPDEST PUSH1 0x20 PUSH1 0x40 MLOAD DUP1 DUP4 SUB DUP2 DUP7 GAS DELEGATECALL ISZERO DUP1 ISZERO PUSH2 0x603 JUMPI RETURNDATASIZE PUSH0 DUP1 RETURNDATACOPY RETURNDATASIZE PUSH0 REVERT JUMPDEST POP POP POP POP PUSH1 0x40 MLOAD RETURNDATASIZE PUSH1 0x1F NOT PUSH1 0x1F DUP3 ADD AND DUP3 ADD DUP1 PUSH1 0x40 MSTORE POP DUP2 ADD SWAP1 PUSH2 0x627 SWAP2 SWAP1 PUSH2 0x9E6 JUMP JUMPDEST PUSH20 0xFFFFFFFFFFFFFFFFFFFFFFFFFFFFFFFFFFFFFFFF AND EQ PUSH2 0x64B JUMPI PUSH2 0x64A PUSH2 0xAA6 JUMP JUMPDEST JUMPDEST PUSH1 0x2 PUSH20 0xFFFFFFFFFFFFFFFFFFFFFFFFFFFFFFFFFFFFFFFF AND PUSH0 PUSH20 0x0 PUSH4 0xD1AA9E7E SWAP1 SWAP2 PUSH1 0x2 PUSH1 0x40 MLOAD DUP4 PUSH4 0xFFFFFFFF AND PUSH1 0xE0 SHL DUP2 MSTORE PUSH1 0x4 ADD PUSH2 0x69F SWAP3 SWAP2 SWAP1 PUSH2 0xB93 JUMP JUMPDEST PUSH1 0x20 PUSH1 0x40 MLOAD DUP1 DUP4 SUB DUP2 DUP7 GAS DELEGATECALL ISZERO DUP1 ISZERO PUSH2 0x6BA JUMPI RETURNDATASIZE PUSH0 DUP1 RETURNDATACOPY RETURNDATASIZE PUSH0 REVERT JUMPDEST POP POP POP POP PUSH1 0x40 MLOAD RETURNDATASIZE PUSH1 0x1F NOT PUSH1 0x1F DUP3 ADD AND DUP3 ADD DUP1 PUSH1 0x40 MSTORE POP DUP2 ADD SWAP1 PUSH2 0x6DE SWAP2 SWAP1 PUSH2 0x9E6 JUMP JUMPDEST PUSH20 0xFFFFFFFFFFFFFFFFFFFFFFFFFFFFFFFFFFFFFFFF AND EQ PUSH2 0x702 JUMPI PUSH2 0x701 PUSH2 0xAA6 JUMP JUMPDEST JUMPDEST JUMP JUMPDEST DUP1 DUP3 MSTORE POP POP JUMP JUMPDEST PUSH0 PUSH20 0xFFFFFFFFFFFFFFFFFFFFFFFFFFFFFFFFFFFFFFFF DUP3 AND SWAP1 POP SWAP2 SWAP1 POP JUMP JUMPDEST PUSH0 PUSH2 0x734 DUP3 PUSH2 0x70B JUMP JUMPDEST SWAP1 POP SWAP2 SWAP1 POP JUMP JUMPDEST PUSH2 0x744 DUP2 PUSH2 0x72A JUMP JUMPDEST DUP3 MSTORE POP POP JUMP JUMPDEST PUSH0 DUP2 SWAP1 POP SWAP2 SWAP1 POP JUMP JUMPDEST PUSH0 DUP2 SWAP1 POP SWAP2 SWAP1 POP JUMP JUMPDEST PUSH0 DUP2 SWAP1 POP SWAP2 SWAP1 POP JUMP JUMPDEST PUSH0 PUSH2 0x77F PUSH2 0x77A PUSH2 0x775 DUP5 PUSH2 0x74A JUMP JUMPDEST PUSH2 0x75C JUMP JUMPDEST PUSH2 0x753 JUMP JUMPDEST SWAP1 POP SWAP2 SWAP1 POP JUMP JUMPDEST PUSH2 0x78F DUP2 PUSH2 0x765 JUMP JUMPDEST DUP3 MSTORE POP POP JUMP JUMPDEST PUSH0 PUSH1 0x60 DUP3 ADD SWAP1 POP PUSH2 0x7A8 PUSH0 DUP4 ADD DUP7 PUSH2 0x704 JUMP JUMPDEST PUSH2 0x7B5 PUSH1 0x20 DUP4 ADD DUP6 PUSH2 0x73B JUMP JUMPDEST PUSH2 0x7C2 PUSH1 0x40 DUP4 ADD DUP5 PUSH2 0x786 JUMP JUMPDEST SWAP5 SWAP4 POP POP POP POP JUMP JUMPDEST PUSH0 DUP2 SWAP1 POP SWAP2 SWAP1 POP JUMP JUMPDEST PUSH0 PUSH2 0x7ED PUSH2 0x7E8 PUSH2 0x7E3 DUP5 PUSH2 0x7CA JUMP JUMPDEST PUSH2 0x75C JUMP JUMPDEST PUSH2 0x753 JUMP JUMPDEST SWAP1 POP SWAP2 SWAP1 POP JUMP JUMPDEST PUSH2 0x7FD DUP2 PUSH2 0x7D3 JUMP JUMPDEST DUP3 MSTORE POP POP JUMP JUMPDEST PUSH0 PUSH1 0x60 DUP3 ADD SWAP1 POP PUSH2 0x816 PUSH0 DUP4 ADD DUP7 PUSH2 0x704 JUMP JUMPDEST PUSH2 0x823 PUSH1 0x20 DUP4 ADD DUP6 PUSH2 0x73B JUMP JUMPDEST PUSH2 0x830 PUSH1 0x40 DUP4 ADD DUP5 PUSH2 0x7F4 JUMP JUMPDEST SWAP5 SWAP4 POP POP POP POP JUMP JUMPDEST PUSH0 DUP2 SWAP1 POP SWAP2 SWAP1 POP JUMP JUMPDEST PUSH0 PUSH2 0x85B PUSH2 0x856 PUSH2 0x851 DUP5 PUSH2 0x838 JUMP JUMPDEST PUSH2 0x75C JUMP JUMPDEST PUSH2 0x753 JUMP JUMPDEST SWAP1 POP SWAP2 SWAP1 POP JUMP JUMPDEST PUSH2 0x86B DUP2 PUSH2 0x841 JUMP JUMPDEST DUP3 MSTORE POP POP JUMP JUMPDEST PUSH0 PUSH1 0x60 DUP3 ADD SWAP1 POP PUSH2 0x884 PUSH0 DUP4 ADD DUP7 PUSH2 0x704 JUMP JUMPDEST PUSH2 0x891 PUSH1 0x20 DUP4 ADD DUP6 PUSH2 0x73B JUMP JUMPDEST PUSH2 0x89E PUSH1 0x40 DUP4 ADD DUP5 PUSH2 0x862 JUMP JUMPDEST SWAP5 SWAP4 POP POP POP POP JUMP JUMPDEST PUSH0 DUP2 SWAP1 POP SWAP2 SWAP1 POP JUMP JUMPDEST PUSH0 PUSH2 0x8C9 PUSH2 0x8C4 PUSH2 0x8BF DUP5 PUSH2 0x8A6 JUMP JUMPDEST PUSH2 0x75C JUMP JUMPDEST PUSH2 0x753 JUMP JUMPDEST SWAP1 POP SWAP2 SWAP1 POP JUMP JUMPDEST PUSH2 0x8D9 DUP2 PUSH2 0x8AF JUMP JUMPDEST DUP3 MSTORE POP POP JUMP JUMPDEST PUSH0 PUSH1 0x60 DUP3 ADD SWAP1 POP PUSH2 0x8F2 PUSH0 DUP4 ADD DUP7 PUSH2 0x704 JUMP JUMPDEST PUSH2 0x8FF PUSH1 0x20 DUP4 ADD DUP6 PUSH2 0x73B JUMP JUMPDEST PUSH2 0x90C PUSH1 0x40 DUP4 ADD DUP5 PUSH2 0x8D0 JUMP JUMPDEST SWAP5 SWAP4 POP POP POP POP JUMP JUMPDEST PUSH0 PUSH1 0x20 DUP3 ADD SWAP1 POP PUSH2 0x927 PUSH0 DUP4 ADD DUP5 PUSH2 0x704 JUMP JUMPDEST SWAP3 SWAP2 POP POP JUMP JUMPDEST PUSH0 DUP1 REVERT JUMPDEST PUSH2 0x93A DUP2 PUSH2 0x753 JUMP JUMPDEST DUP2 EQ PUSH2 0x944 JUMPI PUSH0 DUP1 REVERT JUMPDEST POP JUMP JUMPDEST PUSH0 DUP2 MLOAD SWAP1 POP PUSH2 0x955 DUP2 PUSH2 0x931 JUMP JUMPDEST SWAP3 SWAP2 POP POP JUMP JUMPDEST PUSH0 PUSH1 0x20 DUP3 DUP5 SUB SLT ISZERO PUSH2 0x970 JUMPI PUSH2 0x96F PUSH2 0x92D JUMP JUMPDEST JUMPDEST PUSH0 PUSH2 0x97D DUP5 DUP3 DUP6 ADD PUSH2 0x947 JUMP JUMPDEST SWAP2 POP POP SWAP3 SWAP2 POP POP JUMP JUMPDEST PUSH2 0x98F DUP2 PUSH2 0x753 JUMP JUMPDEST DUP3 MSTORE POP POP JUMP JUMPDEST PUSH0 PUSH1 0x40 DUP3 ADD SWAP1 POP PUSH2 0x9A8 PUSH0 DUP4 ADD DUP6 PUSH2 0x704 JUMP JUMPDEST PUSH2 0x9B5 PUSH1 0x20 DUP4 ADD DUP5 PUSH2 0x986 JUMP JUMPDEST SWAP4 SWAP3 POP POP POP JUMP JUMPDEST PUSH2 0x9C5 DUP2 PUSH2 0x72A JUMP JUMPDEST DUP2 EQ PUSH2 0x9CF JUMPI PUSH0 DUP1 REVERT JUMPDEST POP JUMP JUMPDEST PUSH0 DUP2 MLOAD SWAP1 POP PUSH2 0x9E0 DUP2 PUSH2 0x9BC JUMP JUMPDEST SWAP3 SWAP2 POP POP JUMP JUMPDEST PUSH0 PUSH1 0x20 DUP3 DUP5 SUB SLT ISZERO PUSH2 0x9FB JUMPI PUSH2 0x9FA PUSH2 0x92D JUMP JUMPDEST JUMPDEST PUSH0 PUSH2 0xA08 DUP5 DUP3 DUP6 ADD PUSH2 0x9D2 JUMP JUMPDEST SWAP2 POP POP SWAP3 SWAP2 POP POP JUMP JUMPDEST PUSH32 0x4E487B7100000000000000000000000000000000000000000000000000000000 PUSH0 MSTORE PUSH1 0x11 PUSH1 0x4 MSTORE PUSH1 0x24 PUSH0 REVERT JUMPDEST PUSH0 PUSH2 0xA48 DUP3 PUSH2 0x753 JUMP JUMPDEST SWAP2 POP PUSH2 0xA53 DUP4 PUSH2 0x753 JUMP JUMPDEST SWAP3 POP DUP3 DUP3 MUL PUSH2 0xA61 DUP2 PUSH2 0x753 JUMP JUMPDEST SWAP2 POP DUP3 DUP3 DIV DUP5 EQ DUP4 ISZERO OR PUSH2 0xA78 JUMPI PUSH2 0xA77 PUSH2 0xA11 JUMP JUMPDEST JUMPDEST POP SWAP3 SWAP2 POP POP JUMP JUMPDEST PUSH0 PUSH1 0x40 DUP3 ADD SWAP1 POP PUSH2 0xA92 PUSH0 DUP4 ADD DUP6 PUSH2 0x704 JUMP JUMPDEST PUSH2 0xA9F PUSH1 0x20 DUP4 ADD DUP5 PUSH2 0x73B JUMP JUMPDEST SWAP4 SWAP3 POP POP POP JUMP JUMPDEST PUSH32 0x4E487B7100000000000000000000000000000000000000000000000000000000 PUSH0 MSTORE PUSH1 0x1 PUSH1 0x4 MSTORE PUSH1 0x24 PUSH0 REVERT JUMPDEST PUSH0 PUSH1 0x40 DUP3 ADD SWAP1 POP PUSH2 0xAE6 PUSH0 DUP4 ADD DUP6 PUSH2 0x704 JUMP JUMPDEST PUSH2 0xAF3 PUSH1 0x20 DUP4 ADD DUP5 PUSH2 0x786 JUMP JUMPDEST SWAP4 SWAP3 POP POP POP JUMP JUMPDEST PUSH0 DUP2 SWAP1 POP SWAP2 SWAP1 POP JUMP JUMPDEST PUSH0 PUSH2 0xB1D PUSH2 0xB18 PUSH2 0xB13 DUP5 PUSH2 0xAFA JUMP JUMPDEST PUSH2 0x75C JUMP JUMPDEST PUSH2 0x753 JUMP JUMPDEST SWAP1 POP SWAP2 SWAP1 POP JUMP JUMPDEST PUSH2 0xB2D DUP2 PUSH2 0xB03 JUMP JUMPDEST DUP3 MSTORE POP POP JUMP JUMPDEST PUSH0 PUSH1 0x40 DUP3 ADD SWAP1 POP PUSH2 0xB46 PUSH0 DUP4 ADD DUP6 PUSH2 0x704 JUMP JUMPDEST PUSH2 0xB53 PUSH1 0x20 DUP4 ADD DUP5 PUSH2 0xB24 JUMP JUMPDEST SWAP4 SWAP3 POP POP POP JUMP JUMPDEST PUSH0 DUP2 SWAP1 POP SWAP2 SWAP1 POP JUMP JUMPDEST PUSH0 PUSH2 0xB7D PUSH2 0xB78 PUSH2 0xB73 DUP5 PUSH2 0xB5A JUMP JUMPDEST PUSH2 0x75C JUMP JUMPDEST PUSH2 0x753 JUMP JUMPDEST SWAP1 POP SWAP2 SWAP1 POP JUMP JUMPDEST PUSH2 0xB8D DUP2 PUSH2 0xB63 JUMP JUMPDEST DUP3 MSTORE POP POP JUMP JUMPDEST PUSH0 PUSH1 0x40 DUP3 ADD SWAP1 POP PUSH2 0xBA6 PUSH0 DUP4 ADD DUP6 PUSH2 0x704 JUMP JUMPDEST PUSH2 0xBB3 PUSH1 0x20 DUP4 ADD DUP5 PUSH2 0xB84 JUMP JUMPDEST SWAP4 SWAP3 POP POP POP JUMP INVALID LOG2 PUSH5 0x6970667358 0x22 SLT KECCAK256 PUSH2 0xF67B TLOAD NOT 0xC 0xF9 0xBD PUSH23 0x9F2145F8812A31A9E7471A2E868DD52D2C2BD63639CED8 PUSH5 0x736F6C6343 STOP ADDMOD BYTE STOP CALLER "
		},
		"gasEstimates": {
			"creation": {
				"codeDepositCost": "611200",
				"executionCost": "643",
				"totalCost": "611843"
			},
			"external": {
				"testIterableMap()": "infinite"
			}
		},
		"methodIdentifiers": {
			"testIterableMap()": "d230a0d5"
		}
	},
	"abi": [
		{
			"inputs": [],
			"name": "testIterableMap",
			"outputs": [],
			"stateMutability": "nonpayable",
			"type": "function"
		}
	]
}