{
	"Applications/MultiSigWallet.sol": {
		"MultiSigWallet": {
			"abi": [
				{
					"inputs": [
						{
							"internalType": "address[]",
							"name": "_owners",
							"type": "address[]"
						},
						{
							"internalType": "uint256",
							"name": "_numConfirmationsRequired",
							"type": "uint256"
						}
					],
					"stateMutability": "nonpayable",
					"type": "constructor"
				},
				{
					"anonymous": false,
					"inputs": [
						{
							"indexed": true,
							"internalType": "address",
							"name": "owner",
							"type": "address"
						},
						{
							"indexed": true,
							"internalType": "uint256",
							"name": "txIndex",
							"type": "uint256"
						}
					],
					"name": "ConfirmTransaction",
					"type": "event"
				},
				{
					"anonymous": false,
					"inputs": [
						{
							"indexed": true,
							"internalType": "address",
							"name": "sender",
							"type": "address"
						},
						{
							"indexed": false,
							"internalType": "uint256",
							"name": "amount",
							"type": "uint256"
						},
						{
							"indexed": false,
							"internalType": "uint256",
							"name": "balance",
							"type": "uint256"
						}
					],
					"name": "Deposit",
					"type": "event"
				},
				{
					"anonymous": false,
					"inputs": [
						{
							"indexed": true,
							"internalType": "address",
							"name": "owner",
							"type": "address"
						},
						{
							"indexed": true,
							"internalType": "uint256",
							"name": "txIndex",
							"type": "uint256"
						}
					],
					"name": "ExecuteTransaction",
					"type": "event"
				},
				{
					"anonymous": false,
					"inputs": [
						{
							"indexed": true,
							"internalType": "address",
							"name": "owner",
							"type": "address"
						},
						{
							"indexed": true,
							"internalType": "uint256",
							"name": "txIndex",
							"type": "uint256"
						}
					],
					"name": "RevokeConfirmation",
					"type": "event"
				},
				{
					"anonymous": false,
					"inputs": [
						{
							"indexed": true,
							"internalType": "address",
							"name": "owner",
							"type": "address"
						},
						{
							"indexed": true,
							"internalType": "uint256",
							"name": "txIndex",
							"type": "uint256"
						},
						{
							"indexed": true,
							"internalType": "address",
							"name": "to",
							"type": "address"
						},
						{
							"indexed": false,
							"internalType": "uint256",
							"name": "value",
							"type": "uint256"
						},
						{
							"indexed": false,
							"internalType": "bytes",
							"name": "data",
							"type": "bytes"
						}
					],
					"name": "SubmitTransaction",
					"type": "event"
				},
				{
					"inputs": [
						{
							"internalType": "uint256",
							"name": "_txIndex",
							"type": "uint256"
						}
					],
					"name": "confirmTransaction",
					"outputs": [],
					"stateMutability": "nonpayable",
					"type": "function"
				},
				{
					"inputs": [
						{
							"internalType": "uint256",
							"name": "_txIndex",
							"type": "uint256"
						}
					],
					"name": "executeTransaction",
					"outputs": [],
					"stateMutability": "nonpayable",
					"type": "function"
				},
				{
					"inputs": [],
					"name": "getOwners",
					"outputs": [
						{
							"internalType": "address[]",
							"name": "",
							"type": "address[]"
						}
					],
					"stateMutability": "view",
					"type": "function"
				},
				{
					"inputs": [
						{
							"internalType": "uint256",
							"name": "_txIndex",
							"type": "uint256"
						}
					],
					"name": "getTransaction",
					"outputs": [
						{
							"internalType": "address",
							"name": "to",
							"type": "address"
						},
						{
							"internalType": "uint256",
							"name": "value",
							"type": "uint256"
						},
						{
							"internalType": "bytes",
							"name": "data",
							"type": "bytes"
						},
						{
							"internalType": "bool",
							"name": "executed",
							"type": "bool"
						},
						{
							"internalType": "uint256",
							"name": "numConfirmations",
							"type": "uint256"
						}
					],
					"stateMutability": "view",
					"type": "function"
				},
				{
					"inputs": [],
					"name": "getTransactionCount",
					"outputs": [
						{
							"internalType": "uint256",
							"name": "",
							"type": "uint256"
						}
					],
					"stateMutability": "view",
					"type": "function"
				},
				{
					"inputs": [
						{
							"internalType": "uint256",
							"name": "",
							"type": "uint256"
						},
						{
							"internalType": "address",
							"name": "",
							"type": "address"
						}
					],
					"name": "isConfirmed",
					"outputs": [
						{
							"internalType": "bool",
							"name": "",
							"type": "bool"
						}
					],
					"stateMutability": "view",
					"type": "function"
				},
				{
					"inputs": [
						{
							"internalType": "address",
							"name": "",
							"type": "address"
						}
					],
					"name": "isOwner",
					"outputs": [
						{
							"internalType": "bool",
							"name": "",
							"type": "bool"
						}
					],
					"stateMutability": "view",
					"type": "function"
				},
				{
					"inputs": [],
					"name": "numConfirmationsRequired",
					"outputs": [
						{
							"internalType": "uint256",
							"name": "",
							"type": "uint256"
						}
					],
					"stateMutability": "view",
					"type": "function"
				},
				{
					"inputs": [
						{
							"internalType": "uint256",
							"name": "",
							"type": "uint256"
						}
					],
					"name": "owners",
					"outputs": [
						{
							"internalType": "address",
							"name": "",
							"type": "address"
						}
					],
					"stateMutability": "view",
					"type": "function"
				},
				{
					"inputs": [
						{
							"internalType": "uint256",
							"name": "_txIndex",
							"type": "uint256"
						}
					],
					"name": "revokeTransaction",
					"outputs": [],
					"stateMutability": "nonpayable",
					"type": "function"
				},
				{
					"inputs": [
						{
							"internalType": "address",
							"name": "_to",
							"type": "address"
						},
						{
							"internalType": "uint256",
							"name": "_value",
							"type": "uint256"
						},
						{
							"internalType": "bytes",
							"name": "_data",
							"type": "bytes"
						}
					],
					"name": "submitTransaction",
					"outputs": [],
					"stateMutability": "nonpayable",
					"type": "function"
				},
				{
					"inputs": [
						{
							"internalType": "uint256",
							"name": "",
							"type": "uint256"
						}
					],
					"name": "transactions",
					"outputs": [
						{
							"internalType": "address",
							"name": "to",
							"type": "address"
						},
						{
							"internalType": "uint256",
							"name": "value",
							"type": "uint256"
						},
						{
							"internalType": "bytes",
							"name": "data",
							"type": "bytes"
						},
						{
							"internalType": "bool",
							"name": "executed",
							"type": "bool"
						},
						{
							"internalType": "uint256",
							"name": "numConfirmations",
							"type": "uint256"
						}
					],
					"stateMutability": "view",
					"type": "function"
				},
				{
					"stateMutability": "payable",
					"type": "receive"
				}
			],
			"devdoc": {
				"kind": "dev",
				"methods": {},
				"version": 1
			},
			"evm": {
				"assembly": "    /* \"Applications/MultiSigWallet.sol\":246:5018  contract MultiSigWallet {... */\n  mstore(0x40, 0x80)\n    /* \"Applications/MultiSigWallet.sol\":1740:2432  constructor(address[] memory _owners, uint256 _numConfirmationsRequired) {... */\n  callvalue\n  dup1\n  iszero\n  tag_1\n  jumpi\n  0x00\n  dup1\n  revert\ntag_1:\n  pop\n  mload(0x40)\n  sub(codesize, bytecodeSize)\n  dup1\n  bytecodeSize\n  dup4\n  codecopy\n  dup2\n  dup2\n  add\n  0x40\n  mstore\n  dup2\n  add\n  swap1\n  tag_2\n  swap2\n  swap1\n  tag_3\n  jump\t// in\ntag_2:\n    /* \"Applications/MultiSigWallet.sol\":1849:1850  0 */\n  0x00\n    /* \"Applications/MultiSigWallet.sol\":1832:1839  _owners */\n  dup3\n    /* \"Applications/MultiSigWallet.sol\":1832:1846  _owners.length */\n  mload\n    /* \"Applications/MultiSigWallet.sol\":1832:1850  _owners.length > 0 */\n  gt\n    /* \"Applications/MultiSigWallet.sol\":1824:1870  require(_owners.length > 0, \"owners required\") */\n  tag_6\n  jumpi\n  mload(0x40)\n  0x08c379a000000000000000000000000000000000000000000000000000000000\n  dup2\n  mstore\n  0x04\n  add\n  tag_7\n  swap1\n  tag_8\n  jump\t// in\ntag_7:\n  mload(0x40)\n  dup1\n  swap2\n  sub\n  swap1\n  revert\ntag_6:\n    /* \"Applications/MultiSigWallet.sol\":1931:1932  0 */\n  0x00\n    /* \"Applications/MultiSigWallet.sol\":1903:1928  _numConfirmationsRequired */\n  dup2\n    /* \"Applications/MultiSigWallet.sol\":1903:1932  _numConfirmationsRequired > 0 */\n  gt\n    /* \"Applications/MultiSigWallet.sol\":1903:1992  _numConfirmationsRequired > 0... */\n  dup1\n  iszero\n  tag_9\n  jumpi\n  pop\n    /* \"Applications/MultiSigWallet.sol\":1978:1985  _owners */\n  dup2\n    /* \"Applications/MultiSigWallet.sol\":1978:1992  _owners.length */\n  mload\n    /* \"Applications/MultiSigWallet.sol\":1949:1974  _numConfirmationsRequired */\n  dup2\n    /* \"Applications/MultiSigWallet.sol\":1949:1992  _numConfirmationsRequired <= _owners.length */\n  gt\n  iszero\n    /* \"Applications/MultiSigWallet.sol\":1903:1992  _numConfirmationsRequired > 0... */\ntag_9:\n    /* \"Applications/MultiSigWallet.sol\":1881:2060  require(... */\n  tag_10\n  jumpi\n  mload(0x40)\n  0x08c379a000000000000000000000000000000000000000000000000000000000\n  dup2\n  mstore\n  0x04\n  add\n  tag_11\n  swap1\n  tag_12\n  jump\t// in\ntag_11:\n  mload(0x40)\n  dup1\n  swap2\n  sub\n  swap1\n  revert\ntag_10:\n    /* \"Applications/MultiSigWallet.sol\":2075:2084  uint256 i */\n  0x00\n    /* \"Applications/MultiSigWallet.sol\":2071:2360  for(uint256 i = 0; i < _owners.length; i++) {... */\ntag_13:\n    /* \"Applications/MultiSigWallet.sol\":2094:2101  _owners */\n  dup3\n    /* \"Applications/MultiSigWallet.sol\":2094:2108  _owners.length */\n  mload\n    /* \"Applications/MultiSigWallet.sol\":2090:2091  i */\n  dup2\n    /* \"Applications/MultiSigWallet.sol\":2090:2108  i < _owners.length */\n  lt\n    /* \"Applications/MultiSigWallet.sol\":2071:2360  for(uint256 i = 0; i < _owners.length; i++) {... */\n  iszero\n  tag_14\n  jumpi\n    /* \"Applications/MultiSigWallet.sol\":2130:2143  address owner */\n  0x00\n    /* \"Applications/MultiSigWallet.sol\":2146:2153  _owners */\n  dup4\n    /* \"Applications/MultiSigWallet.sol\":2154:2155  i */\n  dup3\n    /* \"Applications/MultiSigWallet.sol\":2146:2156  _owners[i] */\n  dup2\n  mload\n  dup2\n  lt\n  tag_16\n  jumpi\n  tag_17\n  tag_18\n  jump\t// in\ntag_17:\ntag_16:\n  0x20\n  mul\n  0x20\n  add\n  add\n  mload\n    /* \"Applications/MultiSigWallet.sol\":2130:2156  address owner = _owners[i] */\n  swap1\n  pop\n    /* \"Applications/MultiSigWallet.sol\":2198:2199  0 */\n  0x00\n    /* \"Applications/MultiSigWallet.sol\":2181:2200  owner != address(0) */\n  0xffffffffffffffffffffffffffffffffffffffff\n  and\n    /* \"Applications/MultiSigWallet.sol\":2181:2186  owner */\n  dup2\n    /* \"Applications/MultiSigWallet.sol\":2181:2200  owner != address(0) */\n  0xffffffffffffffffffffffffffffffffffffffff\n  and\n  sub\n    /* \"Applications/MultiSigWallet.sol\":2173:2218  require(owner != address(0), \"invalid owner\") */\n  tag_19\n  jumpi\n  mload(0x40)\n  0x08c379a000000000000000000000000000000000000000000000000000000000\n  dup2\n  mstore\n  0x04\n  add\n  tag_20\n  swap1\n  tag_21\n  jump\t// in\ntag_20:\n  mload(0x40)\n  dup1\n  swap2\n  sub\n  swap1\n  revert\ntag_19:\n    /* \"Applications/MultiSigWallet.sol\":2242:2249  isOwner */\n  0x01\n    /* \"Applications/MultiSigWallet.sol\":2242:2256  isOwner[owner] */\n  0x00\n    /* \"Applications/MultiSigWallet.sol\":2250:2255  owner */\n  dup3\n    /* \"Applications/MultiSigWallet.sol\":2242:2256  isOwner[owner] */\n  0xffffffffffffffffffffffffffffffffffffffff\n  and\n  0xffffffffffffffffffffffffffffffffffffffff\n  and\n  dup2\n  mstore\n  0x20\n  add\n  swap1\n  dup2\n  mstore\n  0x20\n  add\n  0x00\n  keccak256\n  0x00\n  swap1\n  sload\n  swap1\n  0x0100\n  exp\n  swap1\n  div\n  0xff\n  and\n    /* \"Applications/MultiSigWallet.sol\":2241:2256  !isOwner[owner] */\n  iszero\n    /* \"Applications/MultiSigWallet.sol\":2233:2277  require(!isOwner[owner], \"owner not unique\") */\n  tag_22\n  jumpi\n  mload(0x40)\n  0x08c379a000000000000000000000000000000000000000000000000000000000\n  dup2\n  mstore\n  0x04\n  add\n  tag_23\n  swap1\n  tag_24\n  jump\t// in\ntag_23:\n  mload(0x40)\n  dup1\n  swap2\n  sub\n  swap1\n  revert\ntag_22:\n    /* \"Applications/MultiSigWallet.sol\":2311:2315  true */\n  0x01\n    /* \"Applications/MultiSigWallet.sol\":2294:2301  isOwner */\n  dup1\n    /* \"Applications/MultiSigWallet.sol\":2294:2308  isOwner[owner] */\n  0x00\n    /* \"Applications/MultiSigWallet.sol\":2302:2307  owner */\n  dup4\n    /* \"Applications/MultiSigWallet.sol\":2294:2308  isOwner[owner] */\n  0xffffffffffffffffffffffffffffffffffffffff\n  and\n  0xffffffffffffffffffffffffffffffffffffffff\n  and\n  dup2\n  mstore\n  0x20\n  add\n  swap1\n  dup2\n  mstore\n  0x20\n  add\n  0x00\n  keccak256\n  0x00\n    /* \"Applications/MultiSigWallet.sol\":2294:2315  isOwner[owner] = true */\n  0x0100\n  exp\n  dup2\n  sload\n  dup2\n  0xff\n  mul\n  not\n  and\n  swap1\n  dup4\n  iszero\n  iszero\n  mul\n  or\n  swap1\n  sstore\n  pop\n    /* \"Applications/MultiSigWallet.sol\":2330:2336  owners */\n  0x00\n    /* \"Applications/MultiSigWallet.sol\":2342:2347  owner */\n  dup2\n    /* \"Applications/MultiSigWallet.sol\":2330:2348  owners.push(owner) */\n  swap1\n  dup1\n  0x01\n  dup2\n  sload\n  add\n  dup1\n  dup3\n  sstore\n  dup1\n  swap2\n  pop\n  pop\n  0x01\n  swap1\n  sub\n  swap1\n  0x00\n  mstore\n  keccak256(0x00, 0x20)\n  add\n  0x00\n  swap1\n  swap2\n  swap1\n  swap2\n  swap1\n  swap2\n  0x0100\n  exp\n  dup2\n  sload\n  dup2\n  0xffffffffffffffffffffffffffffffffffffffff\n  mul\n  not\n  and\n  swap1\n  dup4\n  0xffffffffffffffffffffffffffffffffffffffff\n  and\n  mul\n  or\n  swap1\n  sstore\n  pop\n    /* \"Applications/MultiSigWallet.sol\":2115:2360  {... */\n  pop\n    /* \"Applications/MultiSigWallet.sol\":2110:2113  i++ */\n  dup1\n  dup1\n  0x01\n  add\n  swap2\n  pop\n  pop\n    /* \"Applications/MultiSigWallet.sol\":2071:2360  for(uint256 i = 0; i < _owners.length; i++) {... */\n  jump(tag_13)\ntag_14:\n  pop\n    /* \"Applications/MultiSigWallet.sol\":2399:2424  _numConfirmationsRequired */\n  dup1\n    /* \"Applications/MultiSigWallet.sol\":2372:2396  numConfirmationsRequired */\n  0x02\n    /* \"Applications/MultiSigWallet.sol\":2372:2424  numConfirmationsRequired = _numConfirmationsRequired */\n  dup2\n  swap1\n  sstore\n  pop\n    /* \"Applications/MultiSigWallet.sol\":1740:2432  constructor(address[] memory _owners, uint256 _numConfirmationsRequired) {... */\n  pop\n  pop\n    /* \"Applications/MultiSigWallet.sol\":246:5018  contract MultiSigWallet {... */\n  jump(tag_26)\n    /* \"#utility.yul\":7:82   */\ntag_27:\n    /* \"#utility.yul\":40:46   */\n  0x00\n    /* \"#utility.yul\":73:75   */\n  0x40\n    /* \"#utility.yul\":67:76   */\n  mload\n    /* \"#utility.yul\":57:76   */\n  swap1\n  pop\n    /* \"#utility.yul\":7:82   */\n  swap1\n  jump\t// out\n    /* \"#utility.yul\":88:205   */\ntag_28:\n    /* \"#utility.yul\":197:198   */\n  0x00\n    /* \"#utility.yul\":194:195   */\n  dup1\n    /* \"#utility.yul\":187:199   */\n  revert\n    /* \"#utility.yul\":211:328   */\ntag_29:\n    /* \"#utility.yul\":320:321   */\n  0x00\n    /* \"#utility.yul\":317:318   */\n  dup1\n    /* \"#utility.yul\":310:322   */\n  revert\n    /* \"#utility.yul\":334:451   */\ntag_30:\n    /* \"#utility.yul\":443:444   */\n  0x00\n    /* \"#utility.yul\":440:441   */\n  dup1\n    /* \"#utility.yul\":433:445   */\n  revert\n    /* \"#utility.yul\":457:559   */\ntag_31:\n    /* \"#utility.yul\":498:504   */\n  0x00\n    /* \"#utility.yul\":549:551   */\n  0x1f\n    /* \"#utility.yul\":545:552   */\n  not\n    /* \"#utility.yul\":540:542   */\n  0x1f\n    /* \"#utility.yul\":533:538   */\n  dup4\n    /* \"#utility.yul\":529:543   */\n  add\n    /* \"#utility.yul\":525:553   */\n  and\n    /* \"#utility.yul\":515:553   */\n  swap1\n  pop\n    /* \"#utility.yul\":457:559   */\n  swap2\n  swap1\n  pop\n  jump\t// out\n    /* \"#utility.yul\":565:745   */\ntag_32:\n    /* \"#utility.yul\":613:690   */\n  0x4e487b7100000000000000000000000000000000000000000000000000000000\n    /* \"#utility.yul\":610:611   */\n  0x00\n    /* \"#utility.yul\":603:691   */\n  mstore\n    /* \"#utility.yul\":710:714   */\n  0x41\n    /* \"#utility.yul\":707:708   */\n  0x04\n    /* \"#utility.yul\":700:715   */\n  mstore\n    /* \"#utility.yul\":734:738   */\n  0x24\n    /* \"#utility.yul\":731:732   */\n  0x00\n    /* \"#utility.yul\":724:739   */\n  revert\n    /* \"#utility.yul\":751:1032   */\ntag_33:\n    /* \"#utility.yul\":834:861   */\n  tag_63\n    /* \"#utility.yul\":856:860   */\n  dup3\n    /* \"#utility.yul\":834:861   */\n  tag_31\n  jump\t// in\ntag_63:\n    /* \"#utility.yul\":826:832   */\n  dup2\n    /* \"#utility.yul\":822:862   */\n  add\n    /* \"#utility.yul\":964:970   */\n  dup2\n    /* \"#utility.yul\":952:962   */\n  dup2\n    /* \"#utility.yul\":949:971   */\n  lt\n    /* \"#utility.yul\":928:946   */\n  0xffffffffffffffff\n    /* \"#utility.yul\":916:926   */\n  dup3\n    /* \"#utility.yul\":913:947   */\n  gt\n    /* \"#utility.yul\":910:972   */\n  or\n    /* \"#utility.yul\":907:995   */\n  iszero\n  tag_64\n  jumpi\n    /* \"#utility.yul\":975:993   */\n  tag_65\n  tag_32\n  jump\t// in\ntag_65:\n    /* \"#utility.yul\":907:995   */\ntag_64:\n    /* \"#utility.yul\":1015:1025   */\n  dup1\n    /* \"#utility.yul\":1011:1013   */\n  0x40\n    /* \"#utility.yul\":1004:1026   */\n  mstore\n    /* \"#utility.yul\":794:1032   */\n  pop\n    /* \"#utility.yul\":751:1032   */\n  pop\n  pop\n  jump\t// out\n    /* \"#utility.yul\":1038:1167   */\ntag_34:\n    /* \"#utility.yul\":1072:1078   */\n  0x00\n    /* \"#utility.yul\":1099:1119   */\n  tag_67\n  tag_27\n  jump\t// in\ntag_67:\n    /* \"#utility.yul\":1089:1119   */\n  swap1\n  pop\n    /* \"#utility.yul\":1128:1161   */\n  tag_68\n    /* \"#utility.yul\":1156:1160   */\n  dup3\n    /* \"#utility.yul\":1148:1154   */\n  dup3\n    /* \"#utility.yul\":1128:1161   */\n  tag_33\n  jump\t// in\ntag_68:\n    /* \"#utility.yul\":1038:1167   */\n  swap2\n  swap1\n  pop\n  jump\t// out\n    /* \"#utility.yul\":1173:1484   */\ntag_35:\n    /* \"#utility.yul\":1250:1254   */\n  0x00\n    /* \"#utility.yul\":1340:1358   */\n  0xffffffffffffffff\n    /* \"#utility.yul\":1332:1338   */\n  dup3\n    /* \"#utility.yul\":1329:1359   */\n  gt\n    /* \"#utility.yul\":1326:1382   */\n  iszero\n  tag_70\n  jumpi\n    /* \"#utility.yul\":1362:1380   */\n  tag_71\n  tag_32\n  jump\t// in\ntag_71:\n    /* \"#utility.yul\":1326:1382   */\ntag_70:\n    /* \"#utility.yul\":1412:1416   */\n  0x20\n    /* \"#utility.yul\":1404:1410   */\n  dup3\n    /* \"#utility.yul\":1400:1417   */\n  mul\n    /* \"#utility.yul\":1392:1417   */\n  swap1\n  pop\n    /* \"#utility.yul\":1472:1476   */\n  0x20\n    /* \"#utility.yul\":1466:1470   */\n  dup2\n    /* \"#utility.yul\":1462:1477   */\n  add\n    /* \"#utility.yul\":1454:1477   */\n  swap1\n  pop\n    /* \"#utility.yul\":1173:1484   */\n  swap2\n  swap1\n  pop\n  jump\t// out\n    /* \"#utility.yul\":1490:1607   */\ntag_36:\n    /* \"#utility.yul\":1599:1600   */\n  0x00\n    /* \"#utility.yul\":1596:1597   */\n  dup1\n    /* \"#utility.yul\":1589:1601   */\n  revert\n    /* \"#utility.yul\":1613:1739   */\ntag_37:\n    /* \"#utility.yul\":1650:1657   */\n  0x00\n    /* \"#utility.yul\":1690:1732   */\n  0xffffffffffffffffffffffffffffffffffffffff\n    /* \"#utility.yul\":1683:1688   */\n  dup3\n    /* \"#utility.yul\":1679:1733   */\n  and\n    /* \"#utility.yul\":1668:1733   */\n  swap1\n  pop\n    /* \"#utility.yul\":1613:1739   */\n  swap2\n  swap1\n  pop\n  jump\t// out\n    /* \"#utility.yul\":1745:1841   */\ntag_38:\n    /* \"#utility.yul\":1782:1789   */\n  0x00\n    /* \"#utility.yul\":1811:1835   */\n  tag_75\n    /* \"#utility.yul\":1829:1834   */\n  dup3\n    /* \"#utility.yul\":1811:1835   */\n  tag_37\n  jump\t// in\ntag_75:\n    /* \"#utility.yul\":1800:1835   */\n  swap1\n  pop\n    /* \"#utility.yul\":1745:1841   */\n  swap2\n  swap1\n  pop\n  jump\t// out\n    /* \"#utility.yul\":1847:1969   */\ntag_39:\n    /* \"#utility.yul\":1920:1944   */\n  tag_77\n    /* \"#utility.yul\":1938:1943   */\n  dup2\n    /* \"#utility.yul\":1920:1944   */\n  tag_38\n  jump\t// in\ntag_77:\n    /* \"#utility.yul\":1913:1918   */\n  dup2\n    /* \"#utility.yul\":1910:1945   */\n  eq\n    /* \"#utility.yul\":1900:1963   */\n  tag_78\n  jumpi\n    /* \"#utility.yul\":1959:1960   */\n  0x00\n    /* \"#utility.yul\":1956:1957   */\n  dup1\n    /* \"#utility.yul\":1949:1961   */\n  revert\n    /* \"#utility.yul\":1900:1963   */\ntag_78:\n    /* \"#utility.yul\":1847:1969   */\n  pop\n  jump\t// out\n    /* \"#utility.yul\":1975:2118   */\ntag_40:\n    /* \"#utility.yul\":2032:2037   */\n  0x00\n    /* \"#utility.yul\":2063:2069   */\n  dup2\n    /* \"#utility.yul\":2057:2070   */\n  mload\n    /* \"#utility.yul\":2048:2070   */\n  swap1\n  pop\n    /* \"#utility.yul\":2079:2112   */\n  tag_80\n    /* \"#utility.yul\":2106:2111   */\n  dup2\n    /* \"#utility.yul\":2079:2112   */\n  tag_39\n  jump\t// in\ntag_80:\n    /* \"#utility.yul\":1975:2118   */\n  swap3\n  swap2\n  pop\n  pop\n  jump\t// out\n    /* \"#utility.yul\":2141:2873   */\ntag_41:\n    /* \"#utility.yul\":2248:2253   */\n  0x00\n    /* \"#utility.yul\":2273:2354   */\n  tag_82\n    /* \"#utility.yul\":2289:2353   */\n  tag_83\n    /* \"#utility.yul\":2346:2352   */\n  dup5\n    /* \"#utility.yul\":2289:2353   */\n  tag_35\n  jump\t// in\ntag_83:\n    /* \"#utility.yul\":2273:2354   */\n  tag_34\n  jump\t// in\ntag_82:\n    /* \"#utility.yul\":2264:2354   */\n  swap1\n  pop\n    /* \"#utility.yul\":2374:2379   */\n  dup1\n    /* \"#utility.yul\":2403:2409   */\n  dup4\n    /* \"#utility.yul\":2396:2401   */\n  dup3\n    /* \"#utility.yul\":2389:2410   */\n  mstore\n    /* \"#utility.yul\":2437:2441   */\n  0x20\n    /* \"#utility.yul\":2430:2435   */\n  dup3\n    /* \"#utility.yul\":2426:2442   */\n  add\n    /* \"#utility.yul\":2419:2442   */\n  swap1\n  pop\n    /* \"#utility.yul\":2490:2494   */\n  0x20\n    /* \"#utility.yul\":2482:2488   */\n  dup5\n    /* \"#utility.yul\":2478:2495   */\n  mul\n    /* \"#utility.yul\":2470:2476   */\n  dup4\n    /* \"#utility.yul\":2466:2496   */\n  add\n    /* \"#utility.yul\":2519:2522   */\n  dup6\n    /* \"#utility.yul\":2511:2517   */\n  dup2\n    /* \"#utility.yul\":2508:2523   */\n  gt\n    /* \"#utility.yul\":2505:2627   */\n  iszero\n  tag_84\n  jumpi\n    /* \"#utility.yul\":2538:2617   */\n  tag_85\n  tag_36\n  jump\t// in\ntag_85:\n    /* \"#utility.yul\":2505:2627   */\ntag_84:\n    /* \"#utility.yul\":2653:2659   */\n  dup4\n    /* \"#utility.yul\":2636:2867   */\ntag_86:\n    /* \"#utility.yul\":2670:2676   */\n  dup2\n    /* \"#utility.yul\":2665:2668   */\n  dup2\n    /* \"#utility.yul\":2662:2677   */\n  lt\n    /* \"#utility.yul\":2636:2867   */\n  iszero\n  tag_88\n  jumpi\n    /* \"#utility.yul\":2745:2748   */\n  dup1\n    /* \"#utility.yul\":2774:2822   */\n  tag_89\n    /* \"#utility.yul\":2818:2821   */\n  dup9\n    /* \"#utility.yul\":2806:2816   */\n  dup3\n    /* \"#utility.yul\":2774:2822   */\n  tag_40\n  jump\t// in\ntag_89:\n    /* \"#utility.yul\":2769:2772   */\n  dup5\n    /* \"#utility.yul\":2762:2823   */\n  mstore\n    /* \"#utility.yul\":2852:2856   */\n  0x20\n    /* \"#utility.yul\":2847:2850   */\n  dup5\n    /* \"#utility.yul\":2843:2857   */\n  add\n    /* \"#utility.yul\":2836:2857   */\n  swap4\n  pop\n    /* \"#utility.yul\":2712:2867   */\n  pop\n    /* \"#utility.yul\":2696:2700   */\n  0x20\n    /* \"#utility.yul\":2691:2694   */\n  dup2\n    /* \"#utility.yul\":2687:2701   */\n  add\n    /* \"#utility.yul\":2680:2701   */\n  swap1\n  pop\n    /* \"#utility.yul\":2636:2867   */\n  jump(tag_86)\ntag_88:\n    /* \"#utility.yul\":2640:2661   */\n  pop\n    /* \"#utility.yul\":2254:2873   */\n  pop\n  pop\n    /* \"#utility.yul\":2141:2873   */\n  swap4\n  swap3\n  pop\n  pop\n  pop\n  jump\t// out\n    /* \"#utility.yul\":2896:3281   */\ntag_42:\n    /* \"#utility.yul\":2978:2983   */\n  0x00\n    /* \"#utility.yul\":3027:3030   */\n  dup3\n    /* \"#utility.yul\":3020:3024   */\n  0x1f\n    /* \"#utility.yul\":3012:3018   */\n  dup4\n    /* \"#utility.yul\":3008:3025   */\n  add\n    /* \"#utility.yul\":3004:3031   */\n  slt\n    /* \"#utility.yul\":2994:3116   */\n  tag_91\n  jumpi\n    /* \"#utility.yul\":3035:3114   */\n  tag_92\n  tag_30\n  jump\t// in\ntag_92:\n    /* \"#utility.yul\":2994:3116   */\ntag_91:\n    /* \"#utility.yul\":3145:3151   */\n  dup2\n    /* \"#utility.yul\":3139:3152   */\n  mload\n    /* \"#utility.yul\":3170:3275   */\n  tag_93\n    /* \"#utility.yul\":3271:3274   */\n  dup5\n    /* \"#utility.yul\":3263:3269   */\n  dup3\n    /* \"#utility.yul\":3256:3260   */\n  0x20\n    /* \"#utility.yul\":3248:3254   */\n  dup7\n    /* \"#utility.yul\":3244:3261   */\n  add\n    /* \"#utility.yul\":3170:3275   */\n  tag_41\n  jump\t// in\ntag_93:\n    /* \"#utility.yul\":3161:3275   */\n  swap2\n  pop\n    /* \"#utility.yul\":2984:3281   */\n  pop\n    /* \"#utility.yul\":2896:3281   */\n  swap3\n  swap2\n  pop\n  pop\n  jump\t// out\n    /* \"#utility.yul\":3287:3364   */\ntag_43:\n    /* \"#utility.yul\":3324:3331   */\n  0x00\n    /* \"#utility.yul\":3353:3358   */\n  dup2\n    /* \"#utility.yul\":3342:3358   */\n  swap1\n  pop\n    /* \"#utility.yul\":3287:3364   */\n  swap2\n  swap1\n  pop\n  jump\t// out\n    /* \"#utility.yul\":3370:3492   */\ntag_44:\n    /* \"#utility.yul\":3443:3467   */\n  tag_96\n    /* \"#utility.yul\":3461:3466   */\n  dup2\n    /* \"#utility.yul\":3443:3467   */\n  tag_43\n  jump\t// in\ntag_96:\n    /* \"#utility.yul\":3436:3441   */\n  dup2\n    /* \"#utility.yul\":3433:3468   */\n  eq\n    /* \"#utility.yul\":3423:3486   */\n  tag_97\n  jumpi\n    /* \"#utility.yul\":3482:3483   */\n  0x00\n    /* \"#utility.yul\":3479:3480   */\n  dup1\n    /* \"#utility.yul\":3472:3484   */\n  revert\n    /* \"#utility.yul\":3423:3486   */\ntag_97:\n    /* \"#utility.yul\":3370:3492   */\n  pop\n  jump\t// out\n    /* \"#utility.yul\":3498:3641   */\ntag_45:\n    /* \"#utility.yul\":3555:3560   */\n  0x00\n    /* \"#utility.yul\":3586:3592   */\n  dup2\n    /* \"#utility.yul\":3580:3593   */\n  mload\n    /* \"#utility.yul\":3571:3593   */\n  swap1\n  pop\n    /* \"#utility.yul\":3602:3635   */\n  tag_99\n    /* \"#utility.yul\":3629:3634   */\n  dup2\n    /* \"#utility.yul\":3602:3635   */\n  tag_44\n  jump\t// in\ntag_99:\n    /* \"#utility.yul\":3498:3641   */\n  swap3\n  swap2\n  pop\n  pop\n  jump\t// out\n    /* \"#utility.yul\":3647:4357   */\ntag_3:\n    /* \"#utility.yul\":3751:3757   */\n  0x00\n    /* \"#utility.yul\":3759:3765   */\n  dup1\n    /* \"#utility.yul\":3808:3810   */\n  0x40\n    /* \"#utility.yul\":3796:3805   */\n  dup4\n    /* \"#utility.yul\":3787:3794   */\n  dup6\n    /* \"#utility.yul\":3783:3806   */\n  sub\n    /* \"#utility.yul\":3779:3811   */\n  slt\n    /* \"#utility.yul\":3776:3895   */\n  iszero\n  tag_101\n  jumpi\n    /* \"#utility.yul\":3814:3893   */\n  tag_102\n  tag_28\n  jump\t// in\ntag_102:\n    /* \"#utility.yul\":3776:3895   */\ntag_101:\n    /* \"#utility.yul\":3955:3956   */\n  0x00\n    /* \"#utility.yul\":3944:3953   */\n  dup4\n    /* \"#utility.yul\":3940:3957   */\n  add\n    /* \"#utility.yul\":3934:3958   */\n  mload\n    /* \"#utility.yul\":3985:4003   */\n  0xffffffffffffffff\n    /* \"#utility.yul\":3977:3983   */\n  dup2\n    /* \"#utility.yul\":3974:4004   */\n  gt\n    /* \"#utility.yul\":3971:4088   */\n  iszero\n  tag_103\n  jumpi\n    /* \"#utility.yul\":4007:4086   */\n  tag_104\n  tag_29\n  jump\t// in\ntag_104:\n    /* \"#utility.yul\":3971:4088   */\ntag_103:\n    /* \"#utility.yul\":4112:4201   */\n  tag_105\n    /* \"#utility.yul\":4193:4200   */\n  dup6\n    /* \"#utility.yul\":4184:4190   */\n  dup3\n    /* \"#utility.yul\":4173:4182   */\n  dup7\n    /* \"#utility.yul\":4169:4191   */\n  add\n    /* \"#utility.yul\":4112:4201   */\n  tag_42\n  jump\t// in\ntag_105:\n    /* \"#utility.yul\":4102:4201   */\n  swap3\n  pop\n    /* \"#utility.yul\":3905:4211   */\n  pop\n    /* \"#utility.yul\":4250:4252   */\n  0x20\n    /* \"#utility.yul\":4276:4340   */\n  tag_106\n    /* \"#utility.yul\":4332:4339   */\n  dup6\n    /* \"#utility.yul\":4323:4329   */\n  dup3\n    /* \"#utility.yul\":4312:4321   */\n  dup7\n    /* \"#utility.yul\":4308:4330   */\n  add\n    /* \"#utility.yul\":4276:4340   */\n  tag_45\n  jump\t// in\ntag_106:\n    /* \"#utility.yul\":4266:4340   */\n  swap2\n  pop\n    /* \"#utility.yul\":4221:4350   */\n  pop\n    /* \"#utility.yul\":3647:4357   */\n  swap3\n  pop\n  swap3\n  swap1\n  pop\n  jump\t// out\n    /* \"#utility.yul\":4363:4532   */\ntag_46:\n    /* \"#utility.yul\":4447:4458   */\n  0x00\n    /* \"#utility.yul\":4481:4487   */\n  dup3\n    /* \"#utility.yul\":4476:4479   */\n  dup3\n    /* \"#utility.yul\":4469:4488   */\n  mstore\n    /* \"#utility.yul\":4521:4525   */\n  0x20\n    /* \"#utility.yul\":4516:4519   */\n  dup3\n    /* \"#utility.yul\":4512:4526   */\n  add\n    /* \"#utility.yul\":4497:4526   */\n  swap1\n  pop\n    /* \"#utility.yul\":4363:4532   */\n  swap3\n  swap2\n  pop\n  pop\n  jump\t// out\n    /* \"#utility.yul\":4538:4703   */\ntag_47:\n    /* \"#utility.yul\":4678:4695   */\n  0x6f776e6572732072657175697265640000000000000000000000000000000000\n    /* \"#utility.yul\":4674:4675   */\n  0x00\n    /* \"#utility.yul\":4666:4672   */\n  dup3\n    /* \"#utility.yul\":4662:4676   */\n  add\n    /* \"#utility.yul\":4655:4696   */\n  mstore\n    /* \"#utility.yul\":4538:4703   */\n  pop\n  jump\t// out\n    /* \"#utility.yul\":4709:5075   */\ntag_48:\n    /* \"#utility.yul\":4851:4854   */\n  0x00\n    /* \"#utility.yul\":4872:4939   */\n  tag_110\n    /* \"#utility.yul\":4936:4938   */\n  0x0f\n    /* \"#utility.yul\":4931:4934   */\n  dup4\n    /* \"#utility.yul\":4872:4939   */\n  tag_46\n  jump\t// in\ntag_110:\n    /* \"#utility.yul\":4865:4939   */\n  swap2\n  pop\n    /* \"#utility.yul\":4948:5041   */\n  tag_111\n    /* \"#utility.yul\":5037:5040   */\n  dup3\n    /* \"#utility.yul\":4948:5041   */\n  tag_47\n  jump\t// in\ntag_111:\n    /* \"#utility.yul\":5066:5068   */\n  0x20\n    /* \"#utility.yul\":5061:5064   */\n  dup3\n    /* \"#utility.yul\":5057:5069   */\n  add\n    /* \"#utility.yul\":5050:5069   */\n  swap1\n  pop\n    /* \"#utility.yul\":4709:5075   */\n  swap2\n  swap1\n  pop\n  jump\t// out\n    /* \"#utility.yul\":5081:5500   */\ntag_8:\n    /* \"#utility.yul\":5247:5251   */\n  0x00\n    /* \"#utility.yul\":5285:5287   */\n  0x20\n    /* \"#utility.yul\":5274:5283   */\n  dup3\n    /* \"#utility.yul\":5270:5288   */\n  add\n    /* \"#utility.yul\":5262:5288   */\n  swap1\n  pop\n    /* \"#utility.yul\":5334:5343   */\n  dup2\n    /* \"#utility.yul\":5328:5332   */\n  dup2\n    /* \"#utility.yul\":5324:5344   */\n  sub\n    /* \"#utility.yul\":5320:5321   */\n  0x00\n    /* \"#utility.yul\":5309:5318   */\n  dup4\n    /* \"#utility.yul\":5305:5322   */\n  add\n    /* \"#utility.yul\":5298:5345   */\n  mstore\n    /* \"#utility.yul\":5362:5493   */\n  tag_113\n    /* \"#utility.yul\":5488:5492   */\n  dup2\n    /* \"#utility.yul\":5362:5493   */\n  tag_48\n  jump\t// in\ntag_113:\n    /* \"#utility.yul\":5354:5493   */\n  swap1\n  pop\n    /* \"#utility.yul\":5081:5500   */\n  swap2\n  swap1\n  pop\n  jump\t// out\n    /* \"#utility.yul\":5506:5733   */\ntag_49:\n    /* \"#utility.yul\":5646:5680   */\n  0x696e76616c6964206e756d626572206f6620726571756972656420636f6e6669\n    /* \"#utility.yul\":5642:5643   */\n  0x00\n    /* \"#utility.yul\":5634:5640   */\n  dup3\n    /* \"#utility.yul\":5630:5644   */\n  add\n    /* \"#utility.yul\":5623:5681   */\n  mstore\n    /* \"#utility.yul\":5715:5725   */\n  0x726d6174696f6e73000000000000000000000000000000000000000000000000\n    /* \"#utility.yul\":5710:5712   */\n  0x20\n    /* \"#utility.yul\":5702:5708   */\n  dup3\n    /* \"#utility.yul\":5698:5713   */\n  add\n    /* \"#utility.yul\":5691:5726   */\n  mstore\n    /* \"#utility.yul\":5506:5733   */\n  pop\n  jump\t// out\n    /* \"#utility.yul\":5739:6105   */\ntag_50:\n    /* \"#utility.yul\":5881:5884   */\n  0x00\n    /* \"#utility.yul\":5902:5969   */\n  tag_116\n    /* \"#utility.yul\":5966:5968   */\n  0x28\n    /* \"#utility.yul\":5961:5964   */\n  dup4\n    /* \"#utility.yul\":5902:5969   */\n  tag_46\n  jump\t// in\ntag_116:\n    /* \"#utility.yul\":5895:5969   */\n  swap2\n  pop\n    /* \"#utility.yul\":5978:6071   */\n  tag_117\n    /* \"#utility.yul\":6067:6070   */\n  dup3\n    /* \"#utility.yul\":5978:6071   */\n  tag_49\n  jump\t// in\ntag_117:\n    /* \"#utility.yul\":6096:6098   */\n  0x40\n    /* \"#utility.yul\":6091:6094   */\n  dup3\n    /* \"#utility.yul\":6087:6099   */\n  add\n    /* \"#utility.yul\":6080:6099   */\n  swap1\n  pop\n    /* \"#utility.yul\":5739:6105   */\n  swap2\n  swap1\n  pop\n  jump\t// out\n    /* \"#utility.yul\":6111:6530   */\ntag_12:\n    /* \"#utility.yul\":6277:6281   */\n  0x00\n    /* \"#utility.yul\":6315:6317   */\n  0x20\n    /* \"#utility.yul\":6304:6313   */\n  dup3\n    /* \"#utility.yul\":6300:6318   */\n  add\n    /* \"#utility.yul\":6292:6318   */\n  swap1\n  pop\n    /* \"#utility.yul\":6364:6373   */\n  dup2\n    /* \"#utility.yul\":6358:6362   */\n  dup2\n    /* \"#utility.yul\":6354:6374   */\n  sub\n    /* \"#utility.yul\":6350:6351   */\n  0x00\n    /* \"#utility.yul\":6339:6348   */\n  dup4\n    /* \"#utility.yul\":6335:6352   */\n  add\n    /* \"#utility.yul\":6328:6375   */\n  mstore\n    /* \"#utility.yul\":6392:6523   */\n  tag_119\n    /* \"#utility.yul\":6518:6522   */\n  dup2\n    /* \"#utility.yul\":6392:6523   */\n  tag_50\n  jump\t// in\ntag_119:\n    /* \"#utility.yul\":6384:6523   */\n  swap1\n  pop\n    /* \"#utility.yul\":6111:6530   */\n  swap2\n  swap1\n  pop\n  jump\t// out\n    /* \"#utility.yul\":6536:6716   */\ntag_18:\n    /* \"#utility.yul\":6584:6661   */\n  0x4e487b7100000000000000000000000000000000000000000000000000000000\n    /* \"#utility.yul\":6581:6582   */\n  0x00\n    /* \"#utility.yul\":6574:6662   */\n  mstore\n    /* \"#utility.yul\":6681:6685   */\n  0x32\n    /* \"#utility.yul\":6678:6679   */\n  0x04\n    /* \"#utility.yul\":6671:6686   */\n  mstore\n    /* \"#utility.yul\":6705:6709   */\n  0x24\n    /* \"#utility.yul\":6702:6703   */\n  0x00\n    /* \"#utility.yul\":6695:6710   */\n  revert\n    /* \"#utility.yul\":6722:6885   */\ntag_51:\n    /* \"#utility.yul\":6862:6877   */\n  0x696e76616c6964206f776e657200000000000000000000000000000000000000\n    /* \"#utility.yul\":6858:6859   */\n  0x00\n    /* \"#utility.yul\":6850:6856   */\n  dup3\n    /* \"#utility.yul\":6846:6860   */\n  add\n    /* \"#utility.yul\":6839:6878   */\n  mstore\n    /* \"#utility.yul\":6722:6885   */\n  pop\n  jump\t// out\n    /* \"#utility.yul\":6891:7257   */\ntag_52:\n    /* \"#utility.yul\":7033:7036   */\n  0x00\n    /* \"#utility.yul\":7054:7121   */\n  tag_123\n    /* \"#utility.yul\":7118:7120   */\n  0x0d\n    /* \"#utility.yul\":7113:7116   */\n  dup4\n    /* \"#utility.yul\":7054:7121   */\n  tag_46\n  jump\t// in\ntag_123:\n    /* \"#utility.yul\":7047:7121   */\n  swap2\n  pop\n    /* \"#utility.yul\":7130:7223   */\n  tag_124\n    /* \"#utility.yul\":7219:7222   */\n  dup3\n    /* \"#utility.yul\":7130:7223   */\n  tag_51\n  jump\t// in\ntag_124:\n    /* \"#utility.yul\":7248:7250   */\n  0x20\n    /* \"#utility.yul\":7243:7246   */\n  dup3\n    /* \"#utility.yul\":7239:7251   */\n  add\n    /* \"#utility.yul\":7232:7251   */\n  swap1\n  pop\n    /* \"#utility.yul\":6891:7257   */\n  swap2\n  swap1\n  pop\n  jump\t// out\n    /* \"#utility.yul\":7263:7682   */\ntag_21:\n    /* \"#utility.yul\":7429:7433   */\n  0x00\n    /* \"#utility.yul\":7467:7469   */\n  0x20\n    /* \"#utility.yul\":7456:7465   */\n  dup3\n    /* \"#utility.yul\":7452:7470   */\n  add\n    /* \"#utility.yul\":7444:7470   */\n  swap1\n  pop\n    /* \"#utility.yul\":7516:7525   */\n  dup2\n    /* \"#utility.yul\":7510:7514   */\n  dup2\n    /* \"#utility.yul\":7506:7526   */\n  sub\n    /* \"#utility.yul\":7502:7503   */\n  0x00\n    /* \"#utility.yul\":7491:7500   */\n  dup4\n    /* \"#utility.yul\":7487:7504   */\n  add\n    /* \"#utility.yul\":7480:7527   */\n  mstore\n    /* \"#utility.yul\":7544:7675   */\n  tag_126\n    /* \"#utility.yul\":7670:7674   */\n  dup2\n    /* \"#utility.yul\":7544:7675   */\n  tag_52\n  jump\t// in\ntag_126:\n    /* \"#utility.yul\":7536:7675   */\n  swap1\n  pop\n    /* \"#utility.yul\":7263:7682   */\n  swap2\n  swap1\n  pop\n  jump\t// out\n    /* \"#utility.yul\":7688:7854   */\ntag_53:\n    /* \"#utility.yul\":7828:7846   */\n  0x6f776e6572206e6f7420756e6971756500000000000000000000000000000000\n    /* \"#utility.yul\":7824:7825   */\n  0x00\n    /* \"#utility.yul\":7816:7822   */\n  dup3\n    /* \"#utility.yul\":7812:7826   */\n  add\n    /* \"#utility.yul\":7805:7847   */\n  mstore\n    /* \"#utility.yul\":7688:7854   */\n  pop\n  jump\t// out\n    /* \"#utility.yul\":7860:8226   */\ntag_54:\n    /* \"#utility.yul\":8002:8005   */\n  0x00\n    /* \"#utility.yul\":8023:8090   */\n  tag_129\n    /* \"#utility.yul\":8087:8089   */\n  0x10\n    /* \"#utility.yul\":8082:8085   */\n  dup4\n    /* \"#utility.yul\":8023:8090   */\n  tag_46\n  jump\t// in\ntag_129:\n    /* \"#utility.yul\":8016:8090   */\n  swap2\n  pop\n    /* \"#utility.yul\":8099:8192   */\n  tag_130\n    /* \"#utility.yul\":8188:8191   */\n  dup3\n    /* \"#utility.yul\":8099:8192   */\n  tag_53\n  jump\t// in\ntag_130:\n    /* \"#utility.yul\":8217:8219   */\n  0x20\n    /* \"#utility.yul\":8212:8215   */\n  dup3\n    /* \"#utility.yul\":8208:8220   */\n  add\n    /* \"#utility.yul\":8201:8220   */\n  swap1\n  pop\n    /* \"#utility.yul\":7860:8226   */\n  swap2\n  swap1\n  pop\n  jump\t// out\n    /* \"#utility.yul\":8232:8651   */\ntag_24:\n    /* \"#utility.yul\":8398:8402   */\n  0x00\n    /* \"#utility.yul\":8436:8438   */\n  0x20\n    /* \"#utility.yul\":8425:8434   */\n  dup3\n    /* \"#utility.yul\":8421:8439   */\n  add\n    /* \"#utility.yul\":8413:8439   */\n  swap1\n  pop\n    /* \"#utility.yul\":8485:8494   */\n  dup2\n    /* \"#utility.yul\":8479:8483   */\n  dup2\n    /* \"#utility.yul\":8475:8495   */\n  sub\n    /* \"#utility.yul\":8471:8472   */\n  0x00\n    /* \"#utility.yul\":8460:8469   */\n  dup4\n    /* \"#utility.yul\":8456:8473   */\n  add\n    /* \"#utility.yul\":8449:8496   */\n  mstore\n    /* \"#utility.yul\":8513:8644   */\n  tag_132\n    /* \"#utility.yul\":8639:8643   */\n  dup2\n    /* \"#utility.yul\":8513:8644   */\n  tag_54\n  jump\t// in\ntag_132:\n    /* \"#utility.yul\":8505:8644   */\n  swap1\n  pop\n    /* \"#utility.yul\":8232:8651   */\n  swap2\n  swap1\n  pop\n  jump\t// out\n    /* \"Applications/MultiSigWallet.sol\":246:5018  contract MultiSigWallet {... */\ntag_26:\n  dataSize(sub_0)\n  dup1\n  dataOffset(sub_0)\n  0x00\n  codecopy\n  0x00\n  return\nstop\n\nsub_0: assembly {\n        /* \"Applications/MultiSigWallet.sol\":246:5018  contract MultiSigWallet {... */\n      mstore(0x40, 0x80)\n      jumpi(tag_1, lt(calldatasize, 0x04))\n      shr(0xe0, calldataload(0x00))\n      dup1\n      0x9ace38c2\n      gt\n      tag_15\n      jumpi\n      dup1\n      0x9ace38c2\n      eq\n      tag_9\n      jumpi\n      dup1\n      0xa0e67e2b\n      eq\n      tag_10\n      jumpi\n      dup1\n      0xc01a8c84\n      eq\n      tag_11\n      jumpi\n      dup1\n      0xc6427474\n      eq\n      tag_12\n      jumpi\n      dup1\n      0xd0549b85\n      eq\n      tag_13\n      jumpi\n      dup1\n      0xee22610b\n      eq\n      tag_14\n      jumpi\n      jump(tag_2)\n    tag_15:\n      dup1\n      0x025e7c27\n      eq\n      tag_3\n      jumpi\n      dup1\n      0x2e7700f0\n      eq\n      tag_4\n      jumpi\n      dup1\n      0x2f54bf6e\n      eq\n      tag_5\n      jumpi\n      dup1\n      0x33ea3dc8\n      eq\n      tag_6\n      jumpi\n      dup1\n      0x735631ad\n      eq\n      tag_7\n      jumpi\n      dup1\n      0x80f59a65\n      eq\n      tag_8\n      jumpi\n      jump(tag_2)\n    tag_1:\n      jumpi(tag_2, calldatasize)\n        /* \"Applications/MultiSigWallet.sol\":2491:2501  msg.sender */\n      caller\n        /* \"Applications/MultiSigWallet.sol\":2483:2536  Deposit(msg.sender, msg.value, address(this).balance) */\n      0xffffffffffffffffffffffffffffffffffffffff\n      and\n      0x90890809c654f11d6e72a28fa60149770a0d11ec6c92319d6ceb2bb0a4ea1a15\n        /* \"Applications/MultiSigWallet.sol\":2503:2512  msg.value */\n      callvalue\n        /* \"Applications/MultiSigWallet.sol\":2514:2535  address(this).balance */\n      selfbalance\n        /* \"Applications/MultiSigWallet.sol\":2483:2536  Deposit(msg.sender, msg.value, address(this).balance) */\n      mload(0x40)\n      tag_18\n      swap3\n      swap2\n      swap1\n      tag_19\n      jump\t// in\n    tag_18:\n      mload(0x40)\n      dup1\n      swap2\n      sub\n      swap1\n      log2\n        /* \"Applications/MultiSigWallet.sol\":246:5018  contract MultiSigWallet {... */\n      stop\n    tag_2:\n      0x00\n      dup1\n      revert\n        /* \"Applications/MultiSigWallet.sol\":770:793  address[] public owners */\n    tag_3:\n      callvalue\n      dup1\n      iszero\n      tag_20\n      jumpi\n      0x00\n      dup1\n      revert\n    tag_20:\n      pop\n      tag_21\n      0x04\n      dup1\n      calldatasize\n      sub\n      dup2\n      add\n      swap1\n      tag_22\n      swap2\n      swap1\n      tag_23\n      jump\t// in\n    tag_22:\n      tag_24\n      jump\t// in\n    tag_21:\n      mload(0x40)\n      tag_25\n      swap2\n      swap1\n      tag_26\n      jump\t// in\n    tag_25:\n      mload(0x40)\n      dup1\n      swap2\n      sub\n      swap1\n      return\n        /* \"Applications/MultiSigWallet.sol\":4475:4581  function getTransactionCount() public view returns (uint256) {... */\n    tag_4:\n      callvalue\n      dup1\n      iszero\n      tag_27\n      jumpi\n      0x00\n      dup1\n      revert\n    tag_27:\n      pop\n      tag_28\n      tag_29\n      jump\t// in\n    tag_28:\n      mload(0x40)\n      tag_30\n      swap2\n      swap1\n      tag_31\n      jump\t// in\n    tag_30:\n      mload(0x40)\n      dup1\n      swap2\n      sub\n      swap1\n      return\n        /* \"Applications/MultiSigWallet.sol\":800:839  mapping(address => bool) public isOwner */\n    tag_5:\n      callvalue\n      dup1\n      iszero\n      tag_32\n      jumpi\n      0x00\n      dup1\n      revert\n    tag_32:\n      pop\n      tag_33\n      0x04\n      dup1\n      calldatasize\n      sub\n      dup2\n      add\n      swap1\n      tag_34\n      swap2\n      swap1\n      tag_35\n      jump\t// in\n    tag_34:\n      tag_36\n      jump\t// in\n    tag_33:\n      mload(0x40)\n      tag_37\n      swap2\n      swap1\n      tag_38\n      jump\t// in\n    tag_37:\n      mload(0x40)\n      dup1\n      swap2\n      sub\n      swap1\n      return\n        /* \"Applications/MultiSigWallet.sol\":4589:5015  function getTransaction(uint256 _txIndex) public view returns (address to, uint256 value, bytes memory data, bool executed, uint256 numConfirmations) {... */\n    tag_6:\n      callvalue\n      dup1\n      iszero\n      tag_39\n      jumpi\n      0x00\n      dup1\n      revert\n    tag_39:\n      pop\n      tag_40\n      0x04\n      dup1\n      calldatasize\n      sub\n      dup2\n      add\n      swap1\n      tag_41\n      swap2\n      swap1\n      tag_23\n      jump\t// in\n    tag_41:\n      tag_42\n      jump\t// in\n    tag_40:\n      mload(0x40)\n      tag_43\n      swap6\n      swap5\n      swap4\n      swap3\n      swap2\n      swap1\n      tag_44\n      jump\t// in\n    tag_43:\n      mload(0x40)\n      dup1\n      swap2\n      sub\n      swap1\n      return\n        /* \"Applications/MultiSigWallet.sol\":3958:4367  function revokeTransaction(uint256 _txIndex) public onlyOwner txExists(_txIndex) notExecuted(_txIndex) {... */\n    tag_7:\n      callvalue\n      dup1\n      iszero\n      tag_45\n      jumpi\n      0x00\n      dup1\n      revert\n    tag_45:\n      pop\n      tag_46\n      0x04\n      dup1\n      calldatasize\n      sub\n      dup2\n      add\n      swap1\n      tag_47\n      swap2\n      swap1\n      tag_23\n      jump\t// in\n    tag_47:\n      tag_48\n      jump\t// in\n    tag_46:\n      stop\n        /* \"Applications/MultiSigWallet.sol\":1100:1163  mapping(uint256 => mapping(address => bool)) public isConfirmed */\n    tag_8:\n      callvalue\n      dup1\n      iszero\n      tag_49\n      jumpi\n      0x00\n      dup1\n      revert\n    tag_49:\n      pop\n      tag_50\n      0x04\n      dup1\n      calldatasize\n      sub\n      dup2\n      add\n      swap1\n      tag_51\n      swap2\n      swap1\n      tag_52\n      jump\t// in\n    tag_51:\n      tag_53\n      jump\t// in\n    tag_50:\n      mload(0x40)\n      tag_54\n      swap2\n      swap1\n      tag_38\n      jump\t// in\n    tag_54:\n      mload(0x40)\n      dup1\n      swap2\n      sub\n      swap1\n      return\n        /* \"Applications/MultiSigWallet.sol\":1172:1205  Transaction[] public transactions */\n    tag_9:\n      callvalue\n      dup1\n      iszero\n      tag_55\n      jumpi\n      0x00\n      dup1\n      revert\n    tag_55:\n      pop\n      tag_56\n      0x04\n      dup1\n      calldatasize\n      sub\n      dup2\n      add\n      swap1\n      tag_57\n      swap2\n      swap1\n      tag_23\n      jump\t// in\n    tag_57:\n      tag_58\n      jump\t// in\n    tag_56:\n      mload(0x40)\n      tag_59\n      swap6\n      swap5\n      swap4\n      swap3\n      swap2\n      swap1\n      tag_44\n      jump\t// in\n    tag_59:\n      mload(0x40)\n      dup1\n      swap2\n      sub\n      swap1\n      return\n        /* \"Applications/MultiSigWallet.sol\":4375:4467  function getOwners() public view returns (address[] memory) {... */\n    tag_10:\n      callvalue\n      dup1\n      iszero\n      tag_60\n      jumpi\n      0x00\n      dup1\n      revert\n    tag_60:\n      pop\n      tag_61\n      tag_62\n      jump\t// in\n    tag_61:\n      mload(0x40)\n      tag_63\n      swap2\n      swap1\n      tag_64\n      jump\t// in\n    tag_63:\n      mload(0x40)\n      dup1\n      swap2\n      sub\n      swap1\n      return\n        /* \"Applications/MultiSigWallet.sol\":3027:3382  function confirmTransaction(uint256 _txIndex) public onlyOwner txExists(_txIndex) notExecuted(_txIndex) notConfirmed(_txIndex) {... */\n    tag_11:\n      callvalue\n      dup1\n      iszero\n      tag_65\n      jumpi\n      0x00\n      dup1\n      revert\n    tag_65:\n      pop\n      tag_66\n      0x04\n      dup1\n      calldatasize\n      sub\n      dup2\n      add\n      swap1\n      tag_67\n      swap2\n      swap1\n      tag_23\n      jump\t// in\n    tag_67:\n      tag_68\n      jump\t// in\n    tag_66:\n      stop\n        /* \"Applications/MultiSigWallet.sol\":2552:3019  function submitTransaction(address _to, uint256 _value, bytes memory _data) public onlyOwner {... */\n    tag_12:\n      callvalue\n      dup1\n      iszero\n      tag_69\n      jumpi\n      0x00\n      dup1\n      revert\n    tag_69:\n      pop\n      tag_70\n      0x04\n      dup1\n      calldatasize\n      sub\n      dup2\n      add\n      swap1\n      tag_71\n      swap2\n      swap1\n      tag_72\n      jump\t// in\n    tag_71:\n      tag_73\n      jump\t// in\n    tag_70:\n      stop\n        /* \"Applications/MultiSigWallet.sol\":846:885  uint256 public numConfirmationsRequired */\n    tag_13:\n      callvalue\n      dup1\n      iszero\n      tag_74\n      jumpi\n      0x00\n      dup1\n      revert\n    tag_74:\n      pop\n      tag_75\n      tag_76\n      jump\t// in\n    tag_75:\n      mload(0x40)\n      tag_77\n      swap2\n      swap1\n      tag_31\n      jump\t// in\n    tag_77:\n      mload(0x40)\n      dup1\n      swap2\n      sub\n      swap1\n      return\n        /* \"Applications/MultiSigWallet.sol\":3390:3950  function executeTransaction(uint256 _txIndex) public onlyOwner txExists(_txIndex) notExecuted(_txIndex) {... */\n    tag_14:\n      callvalue\n      dup1\n      iszero\n      tag_78\n      jumpi\n      0x00\n      dup1\n      revert\n    tag_78:\n      pop\n      tag_79\n      0x04\n      dup1\n      calldatasize\n      sub\n      dup2\n      add\n      swap1\n      tag_80\n      swap2\n      swap1\n      tag_23\n      jump\t// in\n    tag_80:\n      tag_81\n      jump\t// in\n    tag_79:\n      stop\n        /* \"Applications/MultiSigWallet.sol\":770:793  address[] public owners */\n    tag_24:\n      0x00\n      dup2\n      dup2\n      sload\n      dup2\n      lt\n      tag_82\n      jumpi\n      0x00\n      dup1\n      revert\n    tag_82:\n      swap1\n      0x00\n      mstore\n      keccak256(0x00, 0x20)\n      add\n      0x00\n      swap2\n      pop\n      sload\n      swap1\n      0x0100\n      exp\n      swap1\n      div\n      0xffffffffffffffffffffffffffffffffffffffff\n      and\n      dup2\n      jump\t// out\n        /* \"Applications/MultiSigWallet.sol\":4475:4581  function getTransactionCount() public view returns (uint256) {... */\n    tag_29:\n        /* \"Applications/MultiSigWallet.sol\":4527:4534  uint256 */\n      0x00\n        /* \"Applications/MultiSigWallet.sol\":4554:4566  transactions */\n      0x04\n        /* \"Applications/MultiSigWallet.sol\":4554:4573  transactions.length */\n      dup1\n      sload\n      swap1\n      pop\n        /* \"Applications/MultiSigWallet.sol\":4547:4573  return transactions.length */\n      swap1\n      pop\n        /* \"Applications/MultiSigWallet.sol\":4475:4581  function getTransactionCount() public view returns (uint256) {... */\n      swap1\n      jump\t// out\n        /* \"Applications/MultiSigWallet.sol\":800:839  mapping(address => bool) public isOwner */\n    tag_36:\n      mstore(0x20, 0x01)\n      dup1\n      0x00\n      mstore\n      keccak256(0x00, 0x40)\n      0x00\n      swap2\n      pop\n      sload\n      swap1\n      0x0100\n      exp\n      swap1\n      div\n      0xff\n      and\n      dup2\n      jump\t// out\n        /* \"Applications/MultiSigWallet.sol\":4589:5015  function getTransaction(uint256 _txIndex) public view returns (address to, uint256 value, bytes memory data, bool executed, uint256 numConfirmations) {... */\n    tag_42:\n        /* \"Applications/MultiSigWallet.sol\":4652:4662  address to */\n      0x00\n        /* \"Applications/MultiSigWallet.sol\":4664:4677  uint256 value */\n      dup1\n        /* \"Applications/MultiSigWallet.sol\":4679:4696  bytes memory data */\n      0x60\n        /* \"Applications/MultiSigWallet.sol\":4698:4711  bool executed */\n      0x00\n        /* \"Applications/MultiSigWallet.sol\":4713:4737  uint256 numConfirmations */\n      dup1\n        /* \"Applications/MultiSigWallet.sol\":4750:4781  Transaction storage transaction */\n      0x00\n        /* \"Applications/MultiSigWallet.sol\":4784:4796  transactions */\n      0x04\n        /* \"Applications/MultiSigWallet.sol\":4797:4805  _txIndex */\n      dup8\n        /* \"Applications/MultiSigWallet.sol\":4784:4806  transactions[_txIndex] */\n      dup2\n      sload\n      dup2\n      lt\n      tag_86\n      jumpi\n      tag_87\n      tag_88\n      jump\t// in\n    tag_87:\n    tag_86:\n      swap1\n      0x00\n      mstore\n      keccak256(0x00, 0x20)\n      swap1\n      0x05\n      mul\n      add\n        /* \"Applications/MultiSigWallet.sol\":4750:4806  Transaction storage transaction = transactions[_txIndex] */\n      swap1\n      pop\n        /* \"Applications/MultiSigWallet.sol\":4841:4852  transaction */\n      dup1\n        /* \"Applications/MultiSigWallet.sol\":4841:4855  transaction.to */\n      0x00\n      add\n      0x00\n      swap1\n      sload\n      swap1\n      0x0100\n      exp\n      swap1\n      div\n      0xffffffffffffffffffffffffffffffffffffffff\n      and\n        /* \"Applications/MultiSigWallet.sol\":4870:4881  transaction */\n      dup2\n        /* \"Applications/MultiSigWallet.sol\":4870:4887  transaction.value */\n      0x01\n      add\n      sload\n        /* \"Applications/MultiSigWallet.sol\":4902:4913  transaction */\n      dup3\n        /* \"Applications/MultiSigWallet.sol\":4902:4918  transaction.data */\n      0x02\n      add\n        /* \"Applications/MultiSigWallet.sol\":4933:4944  transaction */\n      dup4\n        /* \"Applications/MultiSigWallet.sol\":4933:4953  transaction.executed */\n      0x03\n      add\n      0x00\n      swap1\n      sload\n      swap1\n      0x0100\n      exp\n      swap1\n      div\n      0xff\n      and\n        /* \"Applications/MultiSigWallet.sol\":4968:4979  transaction */\n      dup5\n        /* \"Applications/MultiSigWallet.sol\":4968:4996  transaction.numConfirmations */\n      0x04\n      add\n      sload\n        /* \"Applications/MultiSigWallet.sol\":4819:5007  return (... */\n      dup3\n      dup1\n      sload\n      tag_90\n      swap1\n      tag_91\n      jump\t// in\n    tag_90:\n      dup1\n      0x1f\n      add\n      0x20\n      dup1\n      swap2\n      div\n      mul\n      0x20\n      add\n      mload(0x40)\n      swap1\n      dup2\n      add\n      0x40\n      mstore\n      dup1\n      swap3\n      swap2\n      swap1\n      dup2\n      dup2\n      mstore\n      0x20\n      add\n      dup3\n      dup1\n      sload\n      tag_92\n      swap1\n      tag_91\n      jump\t// in\n    tag_92:\n      dup1\n      iszero\n      tag_93\n      jumpi\n      dup1\n      0x1f\n      lt\n      tag_94\n      jumpi\n      0x0100\n      dup1\n      dup4\n      sload\n      div\n      mul\n      dup4\n      mstore\n      swap2\n      0x20\n      add\n      swap2\n      jump(tag_93)\n    tag_94:\n      dup3\n      add\n      swap2\n      swap1\n      0x00\n      mstore\n      keccak256(0x00, 0x20)\n      swap1\n    tag_95:\n      dup2\n      sload\n      dup2\n      mstore\n      swap1\n      0x01\n      add\n      swap1\n      0x20\n      add\n      dup1\n      dup4\n      gt\n      tag_95\n      jumpi\n      dup3\n      swap1\n      sub\n      0x1f\n      and\n      dup3\n      add\n      swap2\n    tag_93:\n      pop\n      pop\n      pop\n      pop\n      pop\n      swap3\n      pop\n      swap6\n      pop\n      swap6\n      pop\n      swap6\n      pop\n      swap6\n      pop\n      swap6\n      pop\n      pop\n        /* \"Applications/MultiSigWallet.sol\":4589:5015  function getTransaction(uint256 _txIndex) public view returns (address to, uint256 value, bytes memory data, bool executed, uint256 numConfirmations) {... */\n      swap2\n      swap4\n      swap6\n      swap1\n      swap3\n      swap5\n      pop\n      jump\t// out\n        /* \"Applications/MultiSigWallet.sol\":3958:4367  function revokeTransaction(uint256 _txIndex) public onlyOwner txExists(_txIndex) notExecuted(_txIndex) {... */\n    tag_48:\n        /* \"Applications/MultiSigWallet.sol\":1254:1261  isOwner */\n      0x01\n        /* \"Applications/MultiSigWallet.sol\":1254:1273  isOwner[msg.sender] */\n      0x00\n        /* \"Applications/MultiSigWallet.sol\":1262:1272  msg.sender */\n      caller\n        /* \"Applications/MultiSigWallet.sol\":1254:1273  isOwner[msg.sender] */\n      0xffffffffffffffffffffffffffffffffffffffff\n      and\n      0xffffffffffffffffffffffffffffffffffffffff\n      and\n      dup2\n      mstore\n      0x20\n      add\n      swap1\n      dup2\n      mstore\n      0x20\n      add\n      0x00\n      keccak256\n      0x00\n      swap1\n      sload\n      swap1\n      0x0100\n      exp\n      swap1\n      div\n      0xff\n      and\n        /* \"Applications/MultiSigWallet.sol\":1246:1287  require(isOwner[msg.sender], \"not owner\") */\n      tag_97\n      jumpi\n      mload(0x40)\n      0x08c379a000000000000000000000000000000000000000000000000000000000\n      dup2\n      mstore\n      0x04\n      add\n      tag_98\n      swap1\n      tag_99\n      jump\t// in\n    tag_98:\n      mload(0x40)\n      dup1\n      swap2\n      sub\n      swap1\n      revert\n    tag_97:\n        /* \"Applications/MultiSigWallet.sol\":4029:4037  _txIndex */\n      dup1\n        /* \"Applications/MultiSigWallet.sol\":1381:1393  transactions */\n      0x04\n        /* \"Applications/MultiSigWallet.sol\":1381:1400  transactions.length */\n      dup1\n      sload\n      swap1\n      pop\n        /* \"Applications/MultiSigWallet.sol\":1370:1378  _txIndex */\n      dup2\n        /* \"Applications/MultiSigWallet.sol\":1370:1400  _txIndex < transactions.length */\n      lt\n        /* \"Applications/MultiSigWallet.sol\":1362:1423  require(_txIndex < transactions.length, \"tx does not exists\") */\n      tag_101\n      jumpi\n      mload(0x40)\n      0x08c379a000000000000000000000000000000000000000000000000000000000\n      dup2\n      mstore\n      0x04\n      add\n      tag_102\n      swap1\n      tag_103\n      jump\t// in\n    tag_102:\n      mload(0x40)\n      dup1\n      swap2\n      sub\n      swap1\n      revert\n    tag_101:\n        /* \"Applications/MultiSigWallet.sol\":4051:4059  _txIndex */\n      dup2\n        /* \"Applications/MultiSigWallet.sol\":1510:1522  transactions */\n      0x04\n        /* \"Applications/MultiSigWallet.sol\":1523:1531  _txIndex */\n      dup2\n        /* \"Applications/MultiSigWallet.sol\":1510:1532  transactions[_txIndex] */\n      dup2\n      sload\n      dup2\n      lt\n      tag_105\n      jumpi\n      tag_106\n      tag_88\n      jump\t// in\n    tag_106:\n    tag_105:\n      swap1\n      0x00\n      mstore\n      keccak256(0x00, 0x20)\n      swap1\n      0x05\n      mul\n      add\n        /* \"Applications/MultiSigWallet.sol\":1510:1541  transactions[_txIndex].executed */\n      0x03\n      add\n      0x00\n      swap1\n      sload\n      swap1\n      0x0100\n      exp\n      swap1\n      div\n      0xff\n      and\n        /* \"Applications/MultiSigWallet.sol\":1509:1541  !transactions[_txIndex].executed */\n      iszero\n        /* \"Applications/MultiSigWallet.sol\":1501:1566  require(!transactions[_txIndex].executed, \"tx alreeady executed\") */\n      tag_108\n      jumpi\n      mload(0x40)\n      0x08c379a000000000000000000000000000000000000000000000000000000000\n      dup2\n      mstore\n      0x04\n      add\n      tag_109\n      swap1\n      tag_110\n      jump\t// in\n    tag_109:\n      mload(0x40)\n      dup1\n      swap2\n      sub\n      swap1\n      revert\n    tag_108:\n        /* \"Applications/MultiSigWallet.sol\":4072:4103  Transaction storage transaction */\n      0x00\n        /* \"Applications/MultiSigWallet.sol\":4106:4118  transactions */\n      0x04\n        /* \"Applications/MultiSigWallet.sol\":4119:4127  _txIndex */\n      dup5\n        /* \"Applications/MultiSigWallet.sol\":4106:4128  transactions[_txIndex] */\n      dup2\n      sload\n      dup2\n      lt\n      tag_112\n      jumpi\n      tag_113\n      tag_88\n      jump\t// in\n    tag_113:\n    tag_112:\n      swap1\n      0x00\n      mstore\n      keccak256(0x00, 0x20)\n      swap1\n      0x05\n      mul\n      add\n        /* \"Applications/MultiSigWallet.sol\":4072:4128  Transaction storage transaction = transactions[_txIndex] */\n      swap1\n      pop\n        /* \"Applications/MultiSigWallet.sol\":4149:4160  isConfirmed */\n      0x03\n        /* \"Applications/MultiSigWallet.sol\":4149:4170  isConfirmed[_txIndex] */\n      0x00\n        /* \"Applications/MultiSigWallet.sol\":4161:4169  _txIndex */\n      dup6\n        /* \"Applications/MultiSigWallet.sol\":4149:4170  isConfirmed[_txIndex] */\n      dup2\n      mstore\n      0x20\n      add\n      swap1\n      dup2\n      mstore\n      0x20\n      add\n      0x00\n      keccak256\n        /* \"Applications/MultiSigWallet.sol\":4149:4182  isConfirmed[_txIndex][msg.sender] */\n      0x00\n        /* \"Applications/MultiSigWallet.sol\":4171:4181  msg.sender */\n      caller\n        /* \"Applications/MultiSigWallet.sol\":4149:4182  isConfirmed[_txIndex][msg.sender] */\n      0xffffffffffffffffffffffffffffffffffffffff\n      and\n      0xffffffffffffffffffffffffffffffffffffffff\n      and\n      dup2\n      mstore\n      0x20\n      add\n      swap1\n      dup2\n      mstore\n      0x20\n      add\n      0x00\n      keccak256\n      0x00\n      swap1\n      sload\n      swap1\n      0x0100\n      exp\n      swap1\n      div\n      0xff\n      and\n        /* \"Applications/MultiSigWallet.sol\":4141:4203  require(isConfirmed[_txIndex][msg.sender], \"tx not confirmed\") */\n      tag_115\n      jumpi\n      mload(0x40)\n      0x08c379a000000000000000000000000000000000000000000000000000000000\n      dup2\n      mstore\n      0x04\n      add\n      tag_116\n      swap1\n      tag_117\n      jump\t// in\n    tag_116:\n      mload(0x40)\n      dup1\n      swap2\n      sub\n      swap1\n      revert\n    tag_115:\n        /* \"Applications/MultiSigWallet.sol\":4248:4249  1 */\n      0x01\n        /* \"Applications/MultiSigWallet.sol\":4216:4227  transaction */\n      dup2\n        /* \"Applications/MultiSigWallet.sol\":4216:4244  transaction.numConfirmations */\n      0x04\n      add\n      0x00\n        /* \"Applications/MultiSigWallet.sol\":4216:4249  transaction.numConfirmations -= 1 */\n      dup3\n      dup3\n      sload\n      tag_118\n      swap2\n      swap1\n      tag_119\n      jump\t// in\n    tag_118:\n      swap3\n      pop\n      pop\n      dup2\n      swap1\n      sstore\n      pop\n        /* \"Applications/MultiSigWallet.sol\":4296:4301  false */\n      0x00\n        /* \"Applications/MultiSigWallet.sol\":4260:4271  isConfirmed */\n      0x03\n        /* \"Applications/MultiSigWallet.sol\":4260:4281  isConfirmed[_txIndex] */\n      0x00\n        /* \"Applications/MultiSigWallet.sol\":4272:4280  _txIndex */\n      dup7\n        /* \"Applications/MultiSigWallet.sol\":4260:4281  isConfirmed[_txIndex] */\n      dup2\n      mstore\n      0x20\n      add\n      swap1\n      dup2\n      mstore\n      0x20\n      add\n      0x00\n      keccak256\n        /* \"Applications/MultiSigWallet.sol\":4260:4293  isConfirmed[_txIndex][msg.sender] */\n      0x00\n        /* \"Applications/MultiSigWallet.sol\":4282:4292  msg.sender */\n      caller\n        /* \"Applications/MultiSigWallet.sol\":4260:4293  isConfirmed[_txIndex][msg.sender] */\n      0xffffffffffffffffffffffffffffffffffffffff\n      and\n      0xffffffffffffffffffffffffffffffffffffffff\n      and\n      dup2\n      mstore\n      0x20\n      add\n      swap1\n      dup2\n      mstore\n      0x20\n      add\n      0x00\n      keccak256\n      0x00\n        /* \"Applications/MultiSigWallet.sol\":4260:4301  isConfirmed[_txIndex][msg.sender] = false */\n      0x0100\n      exp\n      dup2\n      sload\n      dup2\n      0xff\n      mul\n      not\n      and\n      swap1\n      dup4\n      iszero\n      iszero\n      mul\n      or\n      swap1\n      sstore\n      pop\n        /* \"Applications/MultiSigWallet.sol\":4350:4358  _txIndex */\n      dup4\n        /* \"Applications/MultiSigWallet.sol\":4338:4348  msg.sender */\n      caller\n        /* \"Applications/MultiSigWallet.sol\":4319:4359  RevokeConfirmation(msg.sender, _txIndex) */\n      0xffffffffffffffffffffffffffffffffffffffff\n      and\n      0xf0dca620e2e81f7841d07bcc105e1704fb01475b278a9d4c236e1c62945edd55\n      mload(0x40)\n      mload(0x40)\n      dup1\n      swap2\n      sub\n      swap1\n      log3\n        /* \"Applications/MultiSigWallet.sol\":4061:4367  {... */\n      pop\n        /* \"Applications/MultiSigWallet.sol\":1434:1435  _ */\n      pop\n        /* \"Applications/MultiSigWallet.sol\":1298:1299  _ */\n      pop\n        /* \"Applications/MultiSigWallet.sol\":3958:4367  function revokeTransaction(uint256 _txIndex) public onlyOwner txExists(_txIndex) notExecuted(_txIndex) {... */\n      pop\n      jump\t// out\n        /* \"Applications/MultiSigWallet.sol\":1100:1163  mapping(uint256 => mapping(address => bool)) public isConfirmed */\n    tag_53:\n      mstore(0x20, 0x03)\n      dup2\n      0x00\n      mstore\n      mstore(0x20, keccak256(0x00, 0x40))\n      dup1\n      0x00\n      mstore\n      keccak256(0x00, 0x40)\n      0x00\n      swap2\n      pop\n      swap2\n      pop\n      swap1\n      sload\n      swap1\n      0x0100\n      exp\n      swap1\n      div\n      0xff\n      and\n      dup2\n      jump\t// out\n        /* \"Applications/MultiSigWallet.sol\":1172:1205  Transaction[] public transactions */\n    tag_58:\n      0x04\n      dup2\n      dup2\n      sload\n      dup2\n      lt\n      tag_120\n      jumpi\n      0x00\n      dup1\n      revert\n    tag_120:\n      swap1\n      0x00\n      mstore\n      keccak256(0x00, 0x20)\n      swap1\n      0x05\n      mul\n      add\n      0x00\n      swap2\n      pop\n      swap1\n      pop\n      dup1\n      0x00\n      add\n      0x00\n      swap1\n      sload\n      swap1\n      0x0100\n      exp\n      swap1\n      div\n      0xffffffffffffffffffffffffffffffffffffffff\n      and\n      swap1\n      dup1\n      0x01\n      add\n      sload\n      swap1\n      dup1\n      0x02\n      add\n      dup1\n      sload\n      tag_122\n      swap1\n      tag_91\n      jump\t// in\n    tag_122:\n      dup1\n      0x1f\n      add\n      0x20\n      dup1\n      swap2\n      div\n      mul\n      0x20\n      add\n      mload(0x40)\n      swap1\n      dup2\n      add\n      0x40\n      mstore\n      dup1\n      swap3\n      swap2\n      swap1\n      dup2\n      dup2\n      mstore\n      0x20\n      add\n      dup3\n      dup1\n      sload\n      tag_123\n      swap1\n      tag_91\n      jump\t// in\n    tag_123:\n      dup1\n      iszero\n      tag_124\n      jumpi\n      dup1\n      0x1f\n      lt\n      tag_125\n      jumpi\n      0x0100\n      dup1\n      dup4\n      sload\n      div\n      mul\n      dup4\n      mstore\n      swap2\n      0x20\n      add\n      swap2\n      jump(tag_124)\n    tag_125:\n      dup3\n      add\n      swap2\n      swap1\n      0x00\n      mstore\n      keccak256(0x00, 0x20)\n      swap1\n    tag_126:\n      dup2\n      sload\n      dup2\n      mstore\n      swap1\n      0x01\n      add\n      swap1\n      0x20\n      add\n      dup1\n      dup4\n      gt\n      tag_126\n      jumpi\n      dup3\n      swap1\n      sub\n      0x1f\n      and\n      dup3\n      add\n      swap2\n    tag_124:\n      pop\n      pop\n      pop\n      pop\n      pop\n      swap1\n      dup1\n      0x03\n      add\n      0x00\n      swap1\n      sload\n      swap1\n      0x0100\n      exp\n      swap1\n      div\n      0xff\n      and\n      swap1\n      dup1\n      0x04\n      add\n      sload\n      swap1\n      pop\n      dup6\n      jump\t// out\n        /* \"Applications/MultiSigWallet.sol\":4375:4467  function getOwners() public view returns (address[] memory) {... */\n    tag_62:\n        /* \"Applications/MultiSigWallet.sol\":4417:4433  address[] memory */\n      0x60\n        /* \"Applications/MultiSigWallet.sol\":4453:4459  owners */\n      0x00\n        /* \"Applications/MultiSigWallet.sol\":4446:4459  return owners */\n      dup1\n      sload\n      dup1\n      0x20\n      mul\n      0x20\n      add\n      mload(0x40)\n      swap1\n      dup2\n      add\n      0x40\n      mstore\n      dup1\n      swap3\n      swap2\n      swap1\n      dup2\n      dup2\n      mstore\n      0x20\n      add\n      dup3\n      dup1\n      sload\n      dup1\n      iszero\n      tag_128\n      jumpi\n      0x20\n      mul\n      dup3\n      add\n      swap2\n      swap1\n      0x00\n      mstore\n      keccak256(0x00, 0x20)\n      swap1\n    tag_129:\n      dup2\n      0x00\n      swap1\n      sload\n      swap1\n      0x0100\n      exp\n      swap1\n      div\n      0xffffffffffffffffffffffffffffffffffffffff\n      and\n      0xffffffffffffffffffffffffffffffffffffffff\n      and\n      dup2\n      mstore\n      0x20\n      add\n      swap1\n      0x01\n      add\n      swap1\n      dup1\n      dup4\n      gt\n      tag_129\n      jumpi\n    tag_128:\n      pop\n      pop\n      pop\n      pop\n      pop\n      swap1\n      pop\n        /* \"Applications/MultiSigWallet.sol\":4375:4467  function getOwners() public view returns (address[] memory) {... */\n      swap1\n      jump\t// out\n        /* \"Applications/MultiSigWallet.sol\":3027:3382  function confirmTransaction(uint256 _txIndex) public onlyOwner txExists(_txIndex) notExecuted(_txIndex) notConfirmed(_txIndex) {... */\n    tag_68:\n        /* \"Applications/MultiSigWallet.sol\":1254:1261  isOwner */\n      0x01\n        /* \"Applications/MultiSigWallet.sol\":1254:1273  isOwner[msg.sender] */\n      0x00\n        /* \"Applications/MultiSigWallet.sol\":1262:1272  msg.sender */\n      caller\n        /* \"Applications/MultiSigWallet.sol\":1254:1273  isOwner[msg.sender] */\n      0xffffffffffffffffffffffffffffffffffffffff\n      and\n      0xffffffffffffffffffffffffffffffffffffffff\n      and\n      dup2\n      mstore\n      0x20\n      add\n      swap1\n      dup2\n      mstore\n      0x20\n      add\n      0x00\n      keccak256\n      0x00\n      swap1\n      sload\n      swap1\n      0x0100\n      exp\n      swap1\n      div\n      0xff\n      and\n        /* \"Applications/MultiSigWallet.sol\":1246:1287  require(isOwner[msg.sender], \"not owner\") */\n      tag_131\n      jumpi\n      mload(0x40)\n      0x08c379a000000000000000000000000000000000000000000000000000000000\n      dup2\n      mstore\n      0x04\n      add\n      tag_132\n      swap1\n      tag_99\n      jump\t// in\n    tag_132:\n      mload(0x40)\n      dup1\n      swap2\n      sub\n      swap1\n      revert\n    tag_131:\n        /* \"Applications/MultiSigWallet.sol\":3099:3107  _txIndex */\n      dup1\n        /* \"Applications/MultiSigWallet.sol\":1381:1393  transactions */\n      0x04\n        /* \"Applications/MultiSigWallet.sol\":1381:1400  transactions.length */\n      dup1\n      sload\n      swap1\n      pop\n        /* \"Applications/MultiSigWallet.sol\":1370:1378  _txIndex */\n      dup2\n        /* \"Applications/MultiSigWallet.sol\":1370:1400  _txIndex < transactions.length */\n      lt\n        /* \"Applications/MultiSigWallet.sol\":1362:1423  require(_txIndex < transactions.length, \"tx does not exists\") */\n      tag_134\n      jumpi\n      mload(0x40)\n      0x08c379a000000000000000000000000000000000000000000000000000000000\n      dup2\n      mstore\n      0x04\n      add\n      tag_135\n      swap1\n      tag_103\n      jump\t// in\n    tag_135:\n      mload(0x40)\n      dup1\n      swap2\n      sub\n      swap1\n      revert\n    tag_134:\n        /* \"Applications/MultiSigWallet.sol\":3121:3129  _txIndex */\n      dup2\n        /* \"Applications/MultiSigWallet.sol\":1510:1522  transactions */\n      0x04\n        /* \"Applications/MultiSigWallet.sol\":1523:1531  _txIndex */\n      dup2\n        /* \"Applications/MultiSigWallet.sol\":1510:1532  transactions[_txIndex] */\n      dup2\n      sload\n      dup2\n      lt\n      tag_137\n      jumpi\n      tag_138\n      tag_88\n      jump\t// in\n    tag_138:\n    tag_137:\n      swap1\n      0x00\n      mstore\n      keccak256(0x00, 0x20)\n      swap1\n      0x05\n      mul\n      add\n        /* \"Applications/MultiSigWallet.sol\":1510:1541  transactions[_txIndex].executed */\n      0x03\n      add\n      0x00\n      swap1\n      sload\n      swap1\n      0x0100\n      exp\n      swap1\n      div\n      0xff\n      and\n        /* \"Applications/MultiSigWallet.sol\":1509:1541  !transactions[_txIndex].executed */\n      iszero\n        /* \"Applications/MultiSigWallet.sol\":1501:1566  require(!transactions[_txIndex].executed, \"tx alreeady executed\") */\n      tag_140\n      jumpi\n      mload(0x40)\n      0x08c379a000000000000000000000000000000000000000000000000000000000\n      dup2\n      mstore\n      0x04\n      add\n      tag_141\n      swap1\n      tag_110\n      jump\t// in\n    tag_141:\n      mload(0x40)\n      dup1\n      swap2\n      sub\n      swap1\n      revert\n    tag_140:\n        /* \"Applications/MultiSigWallet.sol\":3144:3152  _txIndex */\n      dup3\n        /* \"Applications/MultiSigWallet.sol\":1654:1665  isConfirmed */\n      0x03\n        /* \"Applications/MultiSigWallet.sol\":1654:1675  isConfirmed[_txIndex] */\n      0x00\n        /* \"Applications/MultiSigWallet.sol\":1666:1674  _txIndex */\n      dup3\n        /* \"Applications/MultiSigWallet.sol\":1654:1675  isConfirmed[_txIndex] */\n      dup2\n      mstore\n      0x20\n      add\n      swap1\n      dup2\n      mstore\n      0x20\n      add\n      0x00\n      keccak256\n        /* \"Applications/MultiSigWallet.sol\":1654:1687  isConfirmed[_txIndex][msg.sender] */\n      0x00\n        /* \"Applications/MultiSigWallet.sol\":1676:1686  msg.sender */\n      caller\n        /* \"Applications/MultiSigWallet.sol\":1654:1687  isConfirmed[_txIndex][msg.sender] */\n      0xffffffffffffffffffffffffffffffffffffffff\n      and\n      0xffffffffffffffffffffffffffffffffffffffff\n      and\n      dup2\n      mstore\n      0x20\n      add\n      swap1\n      dup2\n      mstore\n      0x20\n      add\n      0x00\n      keccak256\n      0x00\n      swap1\n      sload\n      swap1\n      0x0100\n      exp\n      swap1\n      div\n      0xff\n      and\n        /* \"Applications/MultiSigWallet.sol\":1653:1687  !isConfirmed[_txIndex][msg.sender] */\n      iszero\n        /* \"Applications/MultiSigWallet.sol\":1645:1712  require(!isConfirmed[_txIndex][msg.sender], \"tx already confirmed\") */\n      tag_143\n      jumpi\n      mload(0x40)\n      0x08c379a000000000000000000000000000000000000000000000000000000000\n      dup2\n      mstore\n      0x04\n      add\n      tag_144\n      swap1\n      tag_145\n      jump\t// in\n    tag_144:\n      mload(0x40)\n      dup1\n      swap2\n      sub\n      swap1\n      revert\n    tag_143:\n        /* \"Applications/MultiSigWallet.sol\":3165:3196  Transaction storage transaction */\n      0x00\n        /* \"Applications/MultiSigWallet.sol\":3199:3211  transactions */\n      0x04\n        /* \"Applications/MultiSigWallet.sol\":3212:3220  _txIndex */\n      dup6\n        /* \"Applications/MultiSigWallet.sol\":3199:3221  transactions[_txIndex] */\n      dup2\n      sload\n      dup2\n      lt\n      tag_147\n      jumpi\n      tag_148\n      tag_88\n      jump\t// in\n    tag_148:\n    tag_147:\n      swap1\n      0x00\n      mstore\n      keccak256(0x00, 0x20)\n      swap1\n      0x05\n      mul\n      add\n        /* \"Applications/MultiSigWallet.sol\":3165:3221  Transaction storage transaction = transactions[_txIndex] */\n      swap1\n      pop\n        /* \"Applications/MultiSigWallet.sol\":3264:3265  1 */\n      0x01\n        /* \"Applications/MultiSigWallet.sol\":3232:3243  transaction */\n      dup2\n        /* \"Applications/MultiSigWallet.sol\":3232:3260  transaction.numConfirmations */\n      0x04\n      add\n      0x00\n        /* \"Applications/MultiSigWallet.sol\":3232:3265  transaction.numConfirmations += 1 */\n      dup3\n      dup3\n      sload\n      tag_150\n      swap2\n      swap1\n      tag_151\n      jump\t// in\n    tag_150:\n      swap3\n      pop\n      pop\n      dup2\n      swap1\n      sstore\n      pop\n        /* \"Applications/MultiSigWallet.sol\":3312:3316  true */\n      0x01\n        /* \"Applications/MultiSigWallet.sol\":3276:3287  isConfirmed */\n      0x03\n        /* \"Applications/MultiSigWallet.sol\":3276:3297  isConfirmed[_txIndex] */\n      0x00\n        /* \"Applications/MultiSigWallet.sol\":3288:3296  _txIndex */\n      dup8\n        /* \"Applications/MultiSigWallet.sol\":3276:3297  isConfirmed[_txIndex] */\n      dup2\n      mstore\n      0x20\n      add\n      swap1\n      dup2\n      mstore\n      0x20\n      add\n      0x00\n      keccak256\n        /* \"Applications/MultiSigWallet.sol\":3276:3309  isConfirmed[_txIndex][msg.sender] */\n      0x00\n        /* \"Applications/MultiSigWallet.sol\":3298:3308  msg.sender */\n      caller\n        /* \"Applications/MultiSigWallet.sol\":3276:3309  isConfirmed[_txIndex][msg.sender] */\n      0xffffffffffffffffffffffffffffffffffffffff\n      and\n      0xffffffffffffffffffffffffffffffffffffffff\n      and\n      dup2\n      mstore\n      0x20\n      add\n      swap1\n      dup2\n      mstore\n      0x20\n      add\n      0x00\n      keccak256\n      0x00\n        /* \"Applications/MultiSigWallet.sol\":3276:3316  isConfirmed[_txIndex][msg.sender] = true */\n      0x0100\n      exp\n      dup2\n      sload\n      dup2\n      0xff\n      mul\n      not\n      and\n      swap1\n      dup4\n      iszero\n      iszero\n      mul\n      or\n      swap1\n      sstore\n      pop\n        /* \"Applications/MultiSigWallet.sol\":3365:3373  _txIndex */\n      dup5\n        /* \"Applications/MultiSigWallet.sol\":3353:3363  msg.sender */\n      caller\n        /* \"Applications/MultiSigWallet.sol\":3334:3374  ConfirmTransaction(msg.sender, _txIndex) */\n      0xffffffffffffffffffffffffffffffffffffffff\n      and\n      0x5cbe105e36805f7820e291f799d5794ff948af2a5f664e580382defb63390041\n      mload(0x40)\n      mload(0x40)\n      dup1\n      swap2\n      sub\n      swap1\n      log3\n        /* \"Applications/MultiSigWallet.sol\":3154:3382  {... */\n      pop\n        /* \"Applications/MultiSigWallet.sol\":1577:1578  _ */\n      pop\n        /* \"Applications/MultiSigWallet.sol\":1434:1435  _ */\n      pop\n        /* \"Applications/MultiSigWallet.sol\":1298:1299  _ */\n      pop\n        /* \"Applications/MultiSigWallet.sol\":3027:3382  function confirmTransaction(uint256 _txIndex) public onlyOwner txExists(_txIndex) notExecuted(_txIndex) notConfirmed(_txIndex) {... */\n      pop\n      jump\t// out\n        /* \"Applications/MultiSigWallet.sol\":2552:3019  function submitTransaction(address _to, uint256 _value, bytes memory _data) public onlyOwner {... */\n    tag_73:\n        /* \"Applications/MultiSigWallet.sol\":1254:1261  isOwner */\n      0x01\n        /* \"Applications/MultiSigWallet.sol\":1254:1273  isOwner[msg.sender] */\n      0x00\n        /* \"Applications/MultiSigWallet.sol\":1262:1272  msg.sender */\n      caller\n        /* \"Applications/MultiSigWallet.sol\":1254:1273  isOwner[msg.sender] */\n      0xffffffffffffffffffffffffffffffffffffffff\n      and\n      0xffffffffffffffffffffffffffffffffffffffff\n      and\n      dup2\n      mstore\n      0x20\n      add\n      swap1\n      dup2\n      mstore\n      0x20\n      add\n      0x00\n      keccak256\n      0x00\n      swap1\n      sload\n      swap1\n      0x0100\n      exp\n      swap1\n      div\n      0xff\n      and\n        /* \"Applications/MultiSigWallet.sol\":1246:1287  require(isOwner[msg.sender], \"not owner\") */\n      tag_153\n      jumpi\n      mload(0x40)\n      0x08c379a000000000000000000000000000000000000000000000000000000000\n      dup2\n      mstore\n      0x04\n      add\n      tag_154\n      swap1\n      tag_99\n      jump\t// in\n    tag_154:\n      mload(0x40)\n      dup1\n      swap2\n      sub\n      swap1\n      revert\n    tag_153:\n        /* \"Applications/MultiSigWallet.sol\":2656:2671  uint256 txIndex */\n      0x00\n        /* \"Applications/MultiSigWallet.sol\":2674:2686  transactions */\n      0x04\n        /* \"Applications/MultiSigWallet.sol\":2674:2693  transactions.length */\n      dup1\n      sload\n      swap1\n      pop\n        /* \"Applications/MultiSigWallet.sol\":2656:2693  uint256 txIndex = transactions.length */\n      swap1\n      pop\n        /* \"Applications/MultiSigWallet.sol\":2706:2718  transactions */\n      0x04\n        /* \"Applications/MultiSigWallet.sol\":2738:2926  Transaction({... */\n      mload(0x40)\n      dup1\n      0xa0\n      add\n      0x40\n      mstore\n      dup1\n        /* \"Applications/MultiSigWallet.sol\":2773:2776  _to */\n      dup7\n        /* \"Applications/MultiSigWallet.sol\":2738:2926  Transaction({... */\n      0xffffffffffffffffffffffffffffffffffffffff\n      and\n      dup2\n      mstore\n      0x20\n      add\n        /* \"Applications/MultiSigWallet.sol\":2802:2808  _value */\n      dup6\n        /* \"Applications/MultiSigWallet.sol\":2738:2926  Transaction({... */\n      dup2\n      mstore\n      0x20\n      add\n        /* \"Applications/MultiSigWallet.sol\":2833:2838  _data */\n      dup5\n        /* \"Applications/MultiSigWallet.sol\":2738:2926  Transaction({... */\n      dup2\n      mstore\n      0x20\n      add\n        /* \"Applications/MultiSigWallet.sol\":2867:2872  false */\n      0x00\n        /* \"Applications/MultiSigWallet.sol\":2738:2926  Transaction({... */\n      iszero\n      iszero\n      dup2\n      mstore\n      0x20\n      add\n        /* \"Applications/MultiSigWallet.sol\":2909:2910  0 */\n      0x00\n        /* \"Applications/MultiSigWallet.sol\":2738:2926  Transaction({... */\n      dup2\n      mstore\n      pop\n        /* \"Applications/MultiSigWallet.sol\":2706:2937  transactions.push(... */\n      swap1\n      dup1\n      0x01\n      dup2\n      sload\n      add\n      dup1\n      dup3\n      sstore\n      dup1\n      swap2\n      pop\n      pop\n      0x01\n      swap1\n      sub\n      swap1\n      0x00\n      mstore\n      keccak256(0x00, 0x20)\n      swap1\n      0x05\n      mul\n      add\n      0x00\n      swap1\n      swap2\n      swap1\n      swap2\n      swap1\n      swap2\n      pop\n      0x00\n      dup3\n      add\n      mload\n      dup2\n      0x00\n      add\n      exp(0x0100, 0x00)\n      dup2\n      sload\n      dup2\n      0xffffffffffffffffffffffffffffffffffffffff\n      mul\n      not\n      and\n      swap1\n      dup4\n      0xffffffffffffffffffffffffffffffffffffffff\n      and\n      mul\n      or\n      swap1\n      sstore\n      pop\n      0x20\n      dup3\n      add\n      mload\n      dup2\n      0x01\n      add\n      sstore\n      0x40\n      dup3\n      add\n      mload\n      dup2\n      0x02\n      add\n      swap1\n      dup2\n      tag_157\n      swap2\n      swap1\n      tag_158\n      jump\t// in\n    tag_157:\n      pop\n      0x60\n      dup3\n      add\n      mload\n      dup2\n      0x03\n      add\n      exp(0x0100, 0x00)\n      dup2\n      sload\n      dup2\n      0xff\n      mul\n      not\n      and\n      swap1\n      dup4\n      iszero\n      iszero\n      mul\n      or\n      swap1\n      sstore\n      pop\n      0x80\n      dup3\n      add\n      mload\n      dup2\n      0x04\n      add\n      sstore\n      pop\n      pop\n        /* \"Applications/MultiSigWallet.sol\":2992:2995  _to */\n      dup4\n        /* \"Applications/MultiSigWallet.sol\":2953:3011  SubmitTransaction(msg.sender, txIndex, _to, _value, _data) */\n      0xffffffffffffffffffffffffffffffffffffffff\n      and\n        /* \"Applications/MultiSigWallet.sol\":2983:2990  txIndex */\n      dup2\n        /* \"Applications/MultiSigWallet.sol\":2971:2981  msg.sender */\n      caller\n        /* \"Applications/MultiSigWallet.sol\":2953:3011  SubmitTransaction(msg.sender, txIndex, _to, _value, _data) */\n      0xffffffffffffffffffffffffffffffffffffffff\n      and\n      0xd5a05bf70715ad82a09a756320284a1b54c9ff74cd0f8cce6219e79b563fe59d\n        /* \"Applications/MultiSigWallet.sol\":2997:3003  _value */\n      dup7\n        /* \"Applications/MultiSigWallet.sol\":3005:3010  _data */\n      dup7\n        /* \"Applications/MultiSigWallet.sol\":2953:3011  SubmitTransaction(msg.sender, txIndex, _to, _value, _data) */\n      mload(0x40)\n      tag_159\n      swap3\n      swap2\n      swap1\n      tag_160\n      jump\t// in\n    tag_159:\n      mload(0x40)\n      dup1\n      swap2\n      sub\n      swap1\n      log4\n        /* \"Applications/MultiSigWallet.sol\":2645:3019  {... */\n      pop\n        /* \"Applications/MultiSigWallet.sol\":2552:3019  function submitTransaction(address _to, uint256 _value, bytes memory _data) public onlyOwner {... */\n      pop\n      pop\n      pop\n      jump\t// out\n        /* \"Applications/MultiSigWallet.sol\":846:885  uint256 public numConfirmationsRequired */\n    tag_76:\n      sload(0x02)\n      dup2\n      jump\t// out\n        /* \"Applications/MultiSigWallet.sol\":3390:3950  function executeTransaction(uint256 _txIndex) public onlyOwner txExists(_txIndex) notExecuted(_txIndex) {... */\n    tag_81:\n        /* \"Applications/MultiSigWallet.sol\":1254:1261  isOwner */\n      0x01\n        /* \"Applications/MultiSigWallet.sol\":1254:1273  isOwner[msg.sender] */\n      0x00\n        /* \"Applications/MultiSigWallet.sol\":1262:1272  msg.sender */\n      caller\n        /* \"Applications/MultiSigWallet.sol\":1254:1273  isOwner[msg.sender] */\n      0xffffffffffffffffffffffffffffffffffffffff\n      and\n      0xffffffffffffffffffffffffffffffffffffffff\n      and\n      dup2\n      mstore\n      0x20\n      add\n      swap1\n      dup2\n      mstore\n      0x20\n      add\n      0x00\n      keccak256\n      0x00\n      swap1\n      sload\n      swap1\n      0x0100\n      exp\n      swap1\n      div\n      0xff\n      and\n        /* \"Applications/MultiSigWallet.sol\":1246:1287  require(isOwner[msg.sender], \"not owner\") */\n      tag_162\n      jumpi\n      mload(0x40)\n      0x08c379a000000000000000000000000000000000000000000000000000000000\n      dup2\n      mstore\n      0x04\n      add\n      tag_163\n      swap1\n      tag_99\n      jump\t// in\n    tag_163:\n      mload(0x40)\n      dup1\n      swap2\n      sub\n      swap1\n      revert\n    tag_162:\n        /* \"Applications/MultiSigWallet.sol\":3462:3470  _txIndex */\n      dup1\n        /* \"Applications/MultiSigWallet.sol\":1381:1393  transactions */\n      0x04\n        /* \"Applications/MultiSigWallet.sol\":1381:1400  transactions.length */\n      dup1\n      sload\n      swap1\n      pop\n        /* \"Applications/MultiSigWallet.sol\":1370:1378  _txIndex */\n      dup2\n        /* \"Applications/MultiSigWallet.sol\":1370:1400  _txIndex < transactions.length */\n      lt\n        /* \"Applications/MultiSigWallet.sol\":1362:1423  require(_txIndex < transactions.length, \"tx does not exists\") */\n      tag_165\n      jumpi\n      mload(0x40)\n      0x08c379a000000000000000000000000000000000000000000000000000000000\n      dup2\n      mstore\n      0x04\n      add\n      tag_166\n      swap1\n      tag_103\n      jump\t// in\n    tag_166:\n      mload(0x40)\n      dup1\n      swap2\n      sub\n      swap1\n      revert\n    tag_165:\n        /* \"Applications/MultiSigWallet.sol\":3484:3492  _txIndex */\n      dup2\n        /* \"Applications/MultiSigWallet.sol\":1510:1522  transactions */\n      0x04\n        /* \"Applications/MultiSigWallet.sol\":1523:1531  _txIndex */\n      dup2\n        /* \"Applications/MultiSigWallet.sol\":1510:1532  transactions[_txIndex] */\n      dup2\n      sload\n      dup2\n      lt\n      tag_168\n      jumpi\n      tag_169\n      tag_88\n      jump\t// in\n    tag_169:\n    tag_168:\n      swap1\n      0x00\n      mstore\n      keccak256(0x00, 0x20)\n      swap1\n      0x05\n      mul\n      add\n        /* \"Applications/MultiSigWallet.sol\":1510:1541  transactions[_txIndex].executed */\n      0x03\n      add\n      0x00\n      swap1\n      sload\n      swap1\n      0x0100\n      exp\n      swap1\n      div\n      0xff\n      and\n        /* \"Applications/MultiSigWallet.sol\":1509:1541  !transactions[_txIndex].executed */\n      iszero\n        /* \"Applications/MultiSigWallet.sol\":1501:1566  require(!transactions[_txIndex].executed, \"tx alreeady executed\") */\n      tag_171\n      jumpi\n      mload(0x40)\n      0x08c379a000000000000000000000000000000000000000000000000000000000\n      dup2\n      mstore\n      0x04\n      add\n      tag_172\n      swap1\n      tag_110\n      jump\t// in\n    tag_172:\n      mload(0x40)\n      dup1\n      swap2\n      sub\n      swap1\n      revert\n    tag_171:\n        /* \"Applications/MultiSigWallet.sol\":3505:3536  Transaction storage transaction */\n      0x00\n        /* \"Applications/MultiSigWallet.sol\":3539:3551  transactions */\n      0x04\n        /* \"Applications/MultiSigWallet.sol\":3552:3560  _txIndex */\n      dup5\n        /* \"Applications/MultiSigWallet.sol\":3539:3561  transactions[_txIndex] */\n      dup2\n      sload\n      dup2\n      lt\n      tag_174\n      jumpi\n      tag_175\n      tag_88\n      jump\t// in\n    tag_175:\n    tag_174:\n      swap1\n      0x00\n      mstore\n      keccak256(0x00, 0x20)\n      swap1\n      0x05\n      mul\n      add\n        /* \"Applications/MultiSigWallet.sol\":3505:3561  Transaction storage transaction = transactions[_txIndex] */\n      swap1\n      pop\n        /* \"Applications/MultiSigWallet.sol\":3628:3652  numConfirmationsRequired */\n      sload(0x02)\n        /* \"Applications/MultiSigWallet.sol\":3596:3607  transaction */\n      dup2\n        /* \"Applications/MultiSigWallet.sol\":3596:3624  transaction.numConfirmations */\n      0x04\n      add\n      sload\n        /* \"Applications/MultiSigWallet.sol\":3596:3652  transaction.numConfirmations >= numConfirmationsRequired */\n      lt\n      iszero\n        /* \"Applications/MultiSigWallet.sol\":3574:3697  require(... */\n      tag_177\n      jumpi\n      mload(0x40)\n      0x08c379a000000000000000000000000000000000000000000000000000000000\n      dup2\n      mstore\n      0x04\n      add\n      tag_178\n      swap1\n      tag_179\n      jump\t// in\n    tag_178:\n      mload(0x40)\n      dup1\n      swap2\n      sub\n      swap1\n      revert\n    tag_177:\n        /* \"Applications/MultiSigWallet.sol\":3731:3735  true */\n      0x01\n        /* \"Applications/MultiSigWallet.sol\":3708:3719  transaction */\n      dup2\n        /* \"Applications/MultiSigWallet.sol\":3708:3728  transaction.executed */\n      0x03\n      add\n      0x00\n        /* \"Applications/MultiSigWallet.sol\":3708:3735  transaction.executed = true */\n      0x0100\n      exp\n      dup2\n      sload\n      dup2\n      0xff\n      mul\n      not\n      and\n      swap1\n      dup4\n      iszero\n      iszero\n      mul\n      or\n      swap1\n      sstore\n      pop\n        /* \"Applications/MultiSigWallet.sol\":3749:3761  bool success */\n      0x00\n        /* \"Applications/MultiSigWallet.sol\":3781:3792  transaction */\n      dup2\n        /* \"Applications/MultiSigWallet.sol\":3781:3795  transaction.to */\n      0x00\n      add\n      0x00\n      swap1\n      sload\n      swap1\n      0x0100\n      exp\n      swap1\n      div\n      0xffffffffffffffffffffffffffffffffffffffff\n      and\n        /* \"Applications/MultiSigWallet.sol\":3781:3800  transaction.to.call */\n      0xffffffffffffffffffffffffffffffffffffffff\n      and\n        /* \"Applications/MultiSigWallet.sol\":3808:3819  transaction */\n      dup3\n        /* \"Applications/MultiSigWallet.sol\":3808:3825  transaction.value */\n      0x01\n      add\n      sload\n        /* \"Applications/MultiSigWallet.sol\":3827:3838  transaction */\n      dup4\n        /* \"Applications/MultiSigWallet.sol\":3827:3843  transaction.data */\n      0x02\n      add\n        /* \"Applications/MultiSigWallet.sol\":3781:3844  transaction.to.call{value: transaction.value}(transaction.data) */\n      mload(0x40)\n      tag_180\n      swap2\n      swap1\n      tag_181\n      jump\t// in\n    tag_180:\n      0x00\n      mload(0x40)\n      dup1\n      dup4\n      sub\n      dup2\n      dup6\n      dup8\n      gas\n      call\n      swap3\n      pop\n      pop\n      pop\n      returndatasize\n      dup1\n      0x00\n      dup2\n      eq\n      tag_184\n      jumpi\n      mload(0x40)\n      swap2\n      pop\n      and(add(returndatasize, 0x3f), not(0x1f))\n      dup3\n      add\n      0x40\n      mstore\n      returndatasize\n      dup3\n      mstore\n      returndatasize\n      0x00\n      0x20\n      dup5\n      add\n      returndatacopy\n      jump(tag_183)\n    tag_184:\n      0x60\n      swap2\n      pop\n    tag_183:\n      pop\n        /* \"Applications/MultiSigWallet.sol\":3748:3844  (bool success, ) = ... */\n      pop\n      swap1\n      pop\n        /* \"Applications/MultiSigWallet.sol\":3863:3870  success */\n      dup1\n        /* \"Applications/MultiSigWallet.sol\":3855:3884  require(success, \"tx failed\") */\n      tag_185\n      jumpi\n      mload(0x40)\n      0x08c379a000000000000000000000000000000000000000000000000000000000\n      dup2\n      mstore\n      0x04\n      add\n      tag_186\n      swap1\n      tag_187\n      jump\t// in\n    tag_186:\n      mload(0x40)\n      dup1\n      swap2\n      sub\n      swap1\n      revert\n    tag_185:\n        /* \"Applications/MultiSigWallet.sol\":3933:3941  _txIndex */\n      dup5\n        /* \"Applications/MultiSigWallet.sol\":3921:3931  msg.sender */\n      caller\n        /* \"Applications/MultiSigWallet.sol\":3902:3942  ExecuteTransaction(msg.sender, _txIndex) */\n      0xffffffffffffffffffffffffffffffffffffffff\n      and\n      0x5445f318f4f5fcfb66592e68e0cc5822aa15664039bd5f0ffde24c5a8142b1ac\n      mload(0x40)\n      mload(0x40)\n      dup1\n      swap2\n      sub\n      swap1\n      log3\n        /* \"Applications/MultiSigWallet.sol\":3494:3950  {... */\n      pop\n      pop\n        /* \"Applications/MultiSigWallet.sol\":1434:1435  _ */\n      pop\n        /* \"Applications/MultiSigWallet.sol\":1298:1299  _ */\n      pop\n        /* \"Applications/MultiSigWallet.sol\":3390:3950  function executeTransaction(uint256 _txIndex) public onlyOwner txExists(_txIndex) notExecuted(_txIndex) {... */\n      pop\n      jump\t// out\n        /* \"#utility.yul\":7:84   */\n    tag_188:\n        /* \"#utility.yul\":44:51   */\n      0x00\n        /* \"#utility.yul\":73:78   */\n      dup2\n        /* \"#utility.yul\":62:78   */\n      swap1\n      pop\n        /* \"#utility.yul\":7:84   */\n      swap2\n      swap1\n      pop\n      jump\t// out\n        /* \"#utility.yul\":90:208   */\n    tag_189:\n        /* \"#utility.yul\":177:201   */\n      tag_260\n        /* \"#utility.yul\":195:200   */\n      dup2\n        /* \"#utility.yul\":177:201   */\n      tag_188\n      jump\t// in\n    tag_260:\n        /* \"#utility.yul\":172:175   */\n      dup3\n        /* \"#utility.yul\":165:202   */\n      mstore\n        /* \"#utility.yul\":90:208   */\n      pop\n      pop\n      jump\t// out\n        /* \"#utility.yul\":214:546   */\n    tag_19:\n        /* \"#utility.yul\":335:339   */\n      0x00\n        /* \"#utility.yul\":373:375   */\n      0x40\n        /* \"#utility.yul\":362:371   */\n      dup3\n        /* \"#utility.yul\":358:376   */\n      add\n        /* \"#utility.yul\":350:376   */\n      swap1\n      pop\n        /* \"#utility.yul\":386:457   */\n      tag_262\n        /* \"#utility.yul\":454:455   */\n      0x00\n        /* \"#utility.yul\":443:452   */\n      dup4\n        /* \"#utility.yul\":439:456   */\n      add\n        /* \"#utility.yul\":430:436   */\n      dup6\n        /* \"#utility.yul\":386:457   */\n      tag_189\n      jump\t// in\n    tag_262:\n        /* \"#utility.yul\":467:539   */\n      tag_263\n        /* \"#utility.yul\":535:537   */\n      0x20\n        /* \"#utility.yul\":524:533   */\n      dup4\n        /* \"#utility.yul\":520:538   */\n      add\n        /* \"#utility.yul\":511:517   */\n      dup5\n        /* \"#utility.yul\":467:539   */\n      tag_189\n      jump\t// in\n    tag_263:\n        /* \"#utility.yul\":214:546   */\n      swap4\n      swap3\n      pop\n      pop\n      pop\n      jump\t// out\n        /* \"#utility.yul\":552:627   */\n    tag_190:\n        /* \"#utility.yul\":585:591   */\n      0x00\n        /* \"#utility.yul\":618:620   */\n      0x40\n        /* \"#utility.yul\":612:621   */\n      mload\n        /* \"#utility.yul\":602:621   */\n      swap1\n      pop\n        /* \"#utility.yul\":552:627   */\n      swap1\n      jump\t// out\n        /* \"#utility.yul\":633:750   */\n    tag_191:\n        /* \"#utility.yul\":742:743   */\n      0x00\n        /* \"#utility.yul\":739:740   */\n      dup1\n        /* \"#utility.yul\":732:744   */\n      revert\n        /* \"#utility.yul\":756:873   */\n    tag_192:\n        /* \"#utility.yul\":865:866   */\n      0x00\n        /* \"#utility.yul\":862:863   */\n      dup1\n        /* \"#utility.yul\":855:867   */\n      revert\n        /* \"#utility.yul\":879:1001   */\n    tag_193:\n        /* \"#utility.yul\":952:976   */\n      tag_268\n        /* \"#utility.yul\":970:975   */\n      dup2\n        /* \"#utility.yul\":952:976   */\n      tag_188\n      jump\t// in\n    tag_268:\n        /* \"#utility.yul\":945:950   */\n      dup2\n        /* \"#utility.yul\":942:977   */\n      eq\n        /* \"#utility.yul\":932:995   */\n      tag_269\n      jumpi\n        /* \"#utility.yul\":991:992   */\n      0x00\n        /* \"#utility.yul\":988:989   */\n      dup1\n        /* \"#utility.yul\":981:993   */\n      revert\n        /* \"#utility.yul\":932:995   */\n    tag_269:\n        /* \"#utility.yul\":879:1001   */\n      pop\n      jump\t// out\n        /* \"#utility.yul\":1007:1146   */\n    tag_194:\n        /* \"#utility.yul\":1053:1058   */\n      0x00\n        /* \"#utility.yul\":1091:1097   */\n      dup2\n        /* \"#utility.yul\":1078:1098   */\n      calldataload\n        /* \"#utility.yul\":1069:1098   */\n      swap1\n      pop\n        /* \"#utility.yul\":1107:1140   */\n      tag_271\n        /* \"#utility.yul\":1134:1139   */\n      dup2\n        /* \"#utility.yul\":1107:1140   */\n      tag_193\n      jump\t// in\n    tag_271:\n        /* \"#utility.yul\":1007:1146   */\n      swap3\n      swap2\n      pop\n      pop\n      jump\t// out\n        /* \"#utility.yul\":1152:1481   */\n    tag_23:\n        /* \"#utility.yul\":1211:1217   */\n      0x00\n        /* \"#utility.yul\":1260:1262   */\n      0x20\n        /* \"#utility.yul\":1248:1257   */\n      dup3\n        /* \"#utility.yul\":1239:1246   */\n      dup5\n        /* \"#utility.yul\":1235:1258   */\n      sub\n        /* \"#utility.yul\":1231:1263   */\n      slt\n        /* \"#utility.yul\":1228:1347   */\n      iszero\n      tag_273\n      jumpi\n        /* \"#utility.yul\":1266:1345   */\n      tag_274\n      tag_191\n      jump\t// in\n    tag_274:\n        /* \"#utility.yul\":1228:1347   */\n    tag_273:\n        /* \"#utility.yul\":1386:1387   */\n      0x00\n        /* \"#utility.yul\":1411:1464   */\n      tag_275\n        /* \"#utility.yul\":1456:1463   */\n      dup5\n        /* \"#utility.yul\":1447:1453   */\n      dup3\n        /* \"#utility.yul\":1436:1445   */\n      dup6\n        /* \"#utility.yul\":1432:1454   */\n      add\n        /* \"#utility.yul\":1411:1464   */\n      tag_194\n      jump\t// in\n    tag_275:\n        /* \"#utility.yul\":1401:1464   */\n      swap2\n      pop\n        /* \"#utility.yul\":1357:1474   */\n      pop\n        /* \"#utility.yul\":1152:1481   */\n      swap3\n      swap2\n      pop\n      pop\n      jump\t// out\n        /* \"#utility.yul\":1487:1613   */\n    tag_195:\n        /* \"#utility.yul\":1524:1531   */\n      0x00\n        /* \"#utility.yul\":1564:1606   */\n      0xffffffffffffffffffffffffffffffffffffffff\n        /* \"#utility.yul\":1557:1562   */\n      dup3\n        /* \"#utility.yul\":1553:1607   */\n      and\n        /* \"#utility.yul\":1542:1607   */\n      swap1\n      pop\n        /* \"#utility.yul\":1487:1613   */\n      swap2\n      swap1\n      pop\n      jump\t// out\n        /* \"#utility.yul\":1619:1715   */\n    tag_196:\n        /* \"#utility.yul\":1656:1663   */\n      0x00\n        /* \"#utility.yul\":1685:1709   */\n      tag_278\n        /* \"#utility.yul\":1703:1708   */\n      dup3\n        /* \"#utility.yul\":1685:1709   */\n      tag_195\n      jump\t// in\n    tag_278:\n        /* \"#utility.yul\":1674:1709   */\n      swap1\n      pop\n        /* \"#utility.yul\":1619:1715   */\n      swap2\n      swap1\n      pop\n      jump\t// out\n        /* \"#utility.yul\":1721:1839   */\n    tag_197:\n        /* \"#utility.yul\":1808:1832   */\n      tag_280\n        /* \"#utility.yul\":1826:1831   */\n      dup2\n        /* \"#utility.yul\":1808:1832   */\n      tag_196\n      jump\t// in\n    tag_280:\n        /* \"#utility.yul\":1803:1806   */\n      dup3\n        /* \"#utility.yul\":1796:1833   */\n      mstore\n        /* \"#utility.yul\":1721:1839   */\n      pop\n      pop\n      jump\t// out\n        /* \"#utility.yul\":1845:2067   */\n    tag_26:\n        /* \"#utility.yul\":1938:1942   */\n      0x00\n        /* \"#utility.yul\":1976:1978   */\n      0x20\n        /* \"#utility.yul\":1965:1974   */\n      dup3\n        /* \"#utility.yul\":1961:1979   */\n      add\n        /* \"#utility.yul\":1953:1979   */\n      swap1\n      pop\n        /* \"#utility.yul\":1989:2060   */\n      tag_282\n        /* \"#utility.yul\":2057:2058   */\n      0x00\n        /* \"#utility.yul\":2046:2055   */\n      dup4\n        /* \"#utility.yul\":2042:2059   */\n      add\n        /* \"#utility.yul\":2033:2039   */\n      dup5\n        /* \"#utility.yul\":1989:2060   */\n      tag_197\n      jump\t// in\n    tag_282:\n        /* \"#utility.yul\":1845:2067   */\n      swap3\n      swap2\n      pop\n      pop\n      jump\t// out\n        /* \"#utility.yul\":2073:2295   */\n    tag_31:\n        /* \"#utility.yul\":2166:2170   */\n      0x00\n        /* \"#utility.yul\":2204:2206   */\n      0x20\n        /* \"#utility.yul\":2193:2202   */\n      dup3\n        /* \"#utility.yul\":2189:2207   */\n      add\n        /* \"#utility.yul\":2181:2207   */\n      swap1\n      pop\n        /* \"#utility.yul\":2217:2288   */\n      tag_284\n        /* \"#utility.yul\":2285:2286   */\n      0x00\n        /* \"#utility.yul\":2274:2283   */\n      dup4\n        /* \"#utility.yul\":2270:2287   */\n      add\n        /* \"#utility.yul\":2261:2267   */\n      dup5\n        /* \"#utility.yul\":2217:2288   */\n      tag_189\n      jump\t// in\n    tag_284:\n        /* \"#utility.yul\":2073:2295   */\n      swap3\n      swap2\n      pop\n      pop\n      jump\t// out\n        /* \"#utility.yul\":2301:2423   */\n    tag_198:\n        /* \"#utility.yul\":2374:2398   */\n      tag_286\n        /* \"#utility.yul\":2392:2397   */\n      dup2\n        /* \"#utility.yul\":2374:2398   */\n      tag_196\n      jump\t// in\n    tag_286:\n        /* \"#utility.yul\":2367:2372   */\n      dup2\n        /* \"#utility.yul\":2364:2399   */\n      eq\n        /* \"#utility.yul\":2354:2417   */\n      tag_287\n      jumpi\n        /* \"#utility.yul\":2413:2414   */\n      0x00\n        /* \"#utility.yul\":2410:2411   */\n      dup1\n        /* \"#utility.yul\":2403:2415   */\n      revert\n        /* \"#utility.yul\":2354:2417   */\n    tag_287:\n        /* \"#utility.yul\":2301:2423   */\n      pop\n      jump\t// out\n        /* \"#utility.yul\":2429:2568   */\n    tag_199:\n        /* \"#utility.yul\":2475:2480   */\n      0x00\n        /* \"#utility.yul\":2513:2519   */\n      dup2\n        /* \"#utility.yul\":2500:2520   */\n      calldataload\n        /* \"#utility.yul\":2491:2520   */\n      swap1\n      pop\n        /* \"#utility.yul\":2529:2562   */\n      tag_289\n        /* \"#utility.yul\":2556:2561   */\n      dup2\n        /* \"#utility.yul\":2529:2562   */\n      tag_198\n      jump\t// in\n    tag_289:\n        /* \"#utility.yul\":2429:2568   */\n      swap3\n      swap2\n      pop\n      pop\n      jump\t// out\n        /* \"#utility.yul\":2574:2903   */\n    tag_35:\n        /* \"#utility.yul\":2633:2639   */\n      0x00\n        /* \"#utility.yul\":2682:2684   */\n      0x20\n        /* \"#utility.yul\":2670:2679   */\n      dup3\n        /* \"#utility.yul\":2661:2668   */\n      dup5\n        /* \"#utility.yul\":2657:2680   */\n      sub\n        /* \"#utility.yul\":2653:2685   */\n      slt\n        /* \"#utility.yul\":2650:2769   */\n      iszero\n      tag_291\n      jumpi\n        /* \"#utility.yul\":2688:2767   */\n      tag_292\n      tag_191\n      jump\t// in\n    tag_292:\n        /* \"#utility.yul\":2650:2769   */\n    tag_291:\n        /* \"#utility.yul\":2808:2809   */\n      0x00\n        /* \"#utility.yul\":2833:2886   */\n      tag_293\n        /* \"#utility.yul\":2878:2885   */\n      dup5\n        /* \"#utility.yul\":2869:2875   */\n      dup3\n        /* \"#utility.yul\":2858:2867   */\n      dup6\n        /* \"#utility.yul\":2854:2876   */\n      add\n        /* \"#utility.yul\":2833:2886   */\n      tag_199\n      jump\t// in\n    tag_293:\n        /* \"#utility.yul\":2823:2886   */\n      swap2\n      pop\n        /* \"#utility.yul\":2779:2896   */\n      pop\n        /* \"#utility.yul\":2574:2903   */\n      swap3\n      swap2\n      pop\n      pop\n      jump\t// out\n        /* \"#utility.yul\":2909:2999   */\n    tag_200:\n        /* \"#utility.yul\":2943:2950   */\n      0x00\n        /* \"#utility.yul\":2986:2991   */\n      dup2\n        /* \"#utility.yul\":2979:2992   */\n      iszero\n        /* \"#utility.yul\":2972:2993   */\n      iszero\n        /* \"#utility.yul\":2961:2993   */\n      swap1\n      pop\n        /* \"#utility.yul\":2909:2999   */\n      swap2\n      swap1\n      pop\n      jump\t// out\n        /* \"#utility.yul\":3005:3114   */\n    tag_201:\n        /* \"#utility.yul\":3086:3107   */\n      tag_296\n        /* \"#utility.yul\":3101:3106   */\n      dup2\n        /* \"#utility.yul\":3086:3107   */\n      tag_200\n      jump\t// in\n    tag_296:\n        /* \"#utility.yul\":3081:3084   */\n      dup3\n        /* \"#utility.yul\":3074:3108   */\n      mstore\n        /* \"#utility.yul\":3005:3114   */\n      pop\n      pop\n      jump\t// out\n        /* \"#utility.yul\":3120:3330   */\n    tag_38:\n        /* \"#utility.yul\":3207:3211   */\n      0x00\n        /* \"#utility.yul\":3245:3247   */\n      0x20\n        /* \"#utility.yul\":3234:3243   */\n      dup3\n        /* \"#utility.yul\":3230:3248   */\n      add\n        /* \"#utility.yul\":3222:3248   */\n      swap1\n      pop\n        /* \"#utility.yul\":3258:3323   */\n      tag_298\n        /* \"#utility.yul\":3320:3321   */\n      0x00\n        /* \"#utility.yul\":3309:3318   */\n      dup4\n        /* \"#utility.yul\":3305:3322   */\n      add\n        /* \"#utility.yul\":3296:3302   */\n      dup5\n        /* \"#utility.yul\":3258:3323   */\n      tag_201\n      jump\t// in\n    tag_298:\n        /* \"#utility.yul\":3120:3330   */\n      swap3\n      swap2\n      pop\n      pop\n      jump\t// out\n        /* \"#utility.yul\":3336:3434   */\n    tag_202:\n        /* \"#utility.yul\":3387:3393   */\n      0x00\n        /* \"#utility.yul\":3421:3426   */\n      dup2\n        /* \"#utility.yul\":3415:3427   */\n      mload\n        /* \"#utility.yul\":3405:3427   */\n      swap1\n      pop\n        /* \"#utility.yul\":3336:3434   */\n      swap2\n      swap1\n      pop\n      jump\t// out\n        /* \"#utility.yul\":3440:3608   */\n    tag_203:\n        /* \"#utility.yul\":3523:3534   */\n      0x00\n        /* \"#utility.yul\":3557:3563   */\n      dup3\n        /* \"#utility.yul\":3552:3555   */\n      dup3\n        /* \"#utility.yul\":3545:3564   */\n      mstore\n        /* \"#utility.yul\":3597:3601   */\n      0x20\n        /* \"#utility.yul\":3592:3595   */\n      dup3\n        /* \"#utility.yul\":3588:3602   */\n      add\n        /* \"#utility.yul\":3573:3602   */\n      swap1\n      pop\n        /* \"#utility.yul\":3440:3608   */\n      swap3\n      swap2\n      pop\n      pop\n      jump\t// out\n        /* \"#utility.yul\":3614:3753   */\n    tag_204:\n        /* \"#utility.yul\":3703:3709   */\n      dup3\n        /* \"#utility.yul\":3698:3701   */\n      dup2\n        /* \"#utility.yul\":3693:3696   */\n      dup4\n        /* \"#utility.yul\":3687:3710   */\n      mcopy\n        /* \"#utility.yul\":3744:3745   */\n      0x00\n        /* \"#utility.yul\":3735:3741   */\n      dup4\n        /* \"#utility.yul\":3730:3733   */\n      dup4\n        /* \"#utility.yul\":3726:3742   */\n      add\n        /* \"#utility.yul\":3719:3746   */\n      mstore\n        /* \"#utility.yul\":3614:3753   */\n      pop\n      pop\n      pop\n      jump\t// out\n        /* \"#utility.yul\":3759:3861   */\n    tag_205:\n        /* \"#utility.yul\":3800:3806   */\n      0x00\n        /* \"#utility.yul\":3851:3853   */\n      0x1f\n        /* \"#utility.yul\":3847:3854   */\n      not\n        /* \"#utility.yul\":3842:3844   */\n      0x1f\n        /* \"#utility.yul\":3835:3840   */\n      dup4\n        /* \"#utility.yul\":3831:3845   */\n      add\n        /* \"#utility.yul\":3827:3855   */\n      and\n        /* \"#utility.yul\":3817:3855   */\n      swap1\n      pop\n        /* \"#utility.yul\":3759:3861   */\n      swap2\n      swap1\n      pop\n      jump\t// out\n        /* \"#utility.yul\":3867:4240   */\n    tag_206:\n        /* \"#utility.yul\":3953:3956   */\n      0x00\n        /* \"#utility.yul\":3981:4019   */\n      tag_304\n        /* \"#utility.yul\":4013:4018   */\n      dup3\n        /* \"#utility.yul\":3981:4019   */\n      tag_202\n      jump\t// in\n    tag_304:\n        /* \"#utility.yul\":4035:4105   */\n      tag_305\n        /* \"#utility.yul\":4098:4104   */\n      dup2\n        /* \"#utility.yul\":4093:4096   */\n      dup6\n        /* \"#utility.yul\":4035:4105   */\n      tag_203\n      jump\t// in\n    tag_305:\n        /* \"#utility.yul\":4028:4105   */\n      swap4\n      pop\n        /* \"#utility.yul\":4114:4179   */\n      tag_306\n        /* \"#utility.yul\":4172:4178   */\n      dup2\n        /* \"#utility.yul\":4167:4170   */\n      dup6\n        /* \"#utility.yul\":4160:4164   */\n      0x20\n        /* \"#utility.yul\":4153:4158   */\n      dup7\n        /* \"#utility.yul\":4149:4165   */\n      add\n        /* \"#utility.yul\":4114:4179   */\n      tag_204\n      jump\t// in\n    tag_306:\n        /* \"#utility.yul\":4204:4233   */\n      tag_307\n        /* \"#utility.yul\":4226:4232   */\n      dup2\n        /* \"#utility.yul\":4204:4233   */\n      tag_205\n      jump\t// in\n    tag_307:\n        /* \"#utility.yul\":4199:4202   */\n      dup5\n        /* \"#utility.yul\":4195:4234   */\n      add\n        /* \"#utility.yul\":4188:4234   */\n      swap2\n      pop\n        /* \"#utility.yul\":3957:4240   */\n      pop\n        /* \"#utility.yul\":3867:4240   */\n      swap3\n      swap2\n      pop\n      pop\n      jump\t// out\n        /* \"#utility.yul\":4246:4985   */\n    tag_44:\n        /* \"#utility.yul\":4463:4467   */\n      0x00\n        /* \"#utility.yul\":4501:4504   */\n      0xa0\n        /* \"#utility.yul\":4490:4499   */\n      dup3\n        /* \"#utility.yul\":4486:4505   */\n      add\n        /* \"#utility.yul\":4478:4505   */\n      swap1\n      pop\n        /* \"#utility.yul\":4515:4586   */\n      tag_309\n        /* \"#utility.yul\":4583:4584   */\n      0x00\n        /* \"#utility.yul\":4572:4581   */\n      dup4\n        /* \"#utility.yul\":4568:4585   */\n      add\n        /* \"#utility.yul\":4559:4565   */\n      dup9\n        /* \"#utility.yul\":4515:4586   */\n      tag_197\n      jump\t// in\n    tag_309:\n        /* \"#utility.yul\":4596:4668   */\n      tag_310\n        /* \"#utility.yul\":4664:4666   */\n      0x20\n        /* \"#utility.yul\":4653:4662   */\n      dup4\n        /* \"#utility.yul\":4649:4667   */\n      add\n        /* \"#utility.yul\":4640:4646   */\n      dup8\n        /* \"#utility.yul\":4596:4668   */\n      tag_189\n      jump\t// in\n    tag_310:\n        /* \"#utility.yul\":4715:4724   */\n      dup2\n        /* \"#utility.yul\":4709:4713   */\n      dup2\n        /* \"#utility.yul\":4705:4725   */\n      sub\n        /* \"#utility.yul\":4700:4702   */\n      0x40\n        /* \"#utility.yul\":4689:4698   */\n      dup4\n        /* \"#utility.yul\":4685:4703   */\n      add\n        /* \"#utility.yul\":4678:4726   */\n      mstore\n        /* \"#utility.yul\":4743:4819   */\n      tag_311\n        /* \"#utility.yul\":4814:4818   */\n      dup2\n        /* \"#utility.yul\":4805:4811   */\n      dup7\n        /* \"#utility.yul\":4743:4819   */\n      tag_206\n      jump\t// in\n    tag_311:\n        /* \"#utility.yul\":4735:4819   */\n      swap1\n      pop\n        /* \"#utility.yul\":4829:4895   */\n      tag_312\n        /* \"#utility.yul\":4891:4893   */\n      0x60\n        /* \"#utility.yul\":4880:4889   */\n      dup4\n        /* \"#utility.yul\":4876:4894   */\n      add\n        /* \"#utility.yul\":4867:4873   */\n      dup6\n        /* \"#utility.yul\":4829:4895   */\n      tag_201\n      jump\t// in\n    tag_312:\n        /* \"#utility.yul\":4905:4978   */\n      tag_313\n        /* \"#utility.yul\":4973:4976   */\n      0x80\n        /* \"#utility.yul\":4962:4971   */\n      dup4\n        /* \"#utility.yul\":4958:4977   */\n      add\n        /* \"#utility.yul\":4949:4955   */\n      dup5\n        /* \"#utility.yul\":4905:4978   */\n      tag_189\n      jump\t// in\n    tag_313:\n        /* \"#utility.yul\":4246:4985   */\n      swap7\n      swap6\n      pop\n      pop\n      pop\n      pop\n      pop\n      pop\n      jump\t// out\n        /* \"#utility.yul\":4991:5465   */\n    tag_52:\n        /* \"#utility.yul\":5059:5065   */\n      0x00\n        /* \"#utility.yul\":5067:5073   */\n      dup1\n        /* \"#utility.yul\":5116:5118   */\n      0x40\n        /* \"#utility.yul\":5104:5113   */\n      dup4\n        /* \"#utility.yul\":5095:5102   */\n      dup6\n        /* \"#utility.yul\":5091:5114   */\n      sub\n        /* \"#utility.yul\":5087:5119   */\n      slt\n        /* \"#utility.yul\":5084:5203   */\n      iszero\n      tag_315\n      jumpi\n        /* \"#utility.yul\":5122:5201   */\n      tag_316\n      tag_191\n      jump\t// in\n    tag_316:\n        /* \"#utility.yul\":5084:5203   */\n    tag_315:\n        /* \"#utility.yul\":5242:5243   */\n      0x00\n        /* \"#utility.yul\":5267:5320   */\n      tag_317\n        /* \"#utility.yul\":5312:5319   */\n      dup6\n        /* \"#utility.yul\":5303:5309   */\n      dup3\n        /* \"#utility.yul\":5292:5301   */\n      dup7\n        /* \"#utility.yul\":5288:5310   */\n      add\n        /* \"#utility.yul\":5267:5320   */\n      tag_194\n      jump\t// in\n    tag_317:\n        /* \"#utility.yul\":5257:5320   */\n      swap3\n      pop\n        /* \"#utility.yul\":5213:5330   */\n      pop\n        /* \"#utility.yul\":5369:5371   */\n      0x20\n        /* \"#utility.yul\":5395:5448   */\n      tag_318\n        /* \"#utility.yul\":5440:5447   */\n      dup6\n        /* \"#utility.yul\":5431:5437   */\n      dup3\n        /* \"#utility.yul\":5420:5429   */\n      dup7\n        /* \"#utility.yul\":5416:5438   */\n      add\n        /* \"#utility.yul\":5395:5448   */\n      tag_199\n      jump\t// in\n    tag_318:\n        /* \"#utility.yul\":5385:5448   */\n      swap2\n      pop\n        /* \"#utility.yul\":5340:5458   */\n      pop\n        /* \"#utility.yul\":4991:5465   */\n      swap3\n      pop\n      swap3\n      swap1\n      pop\n      jump\t// out\n        /* \"#utility.yul\":5471:5585   */\n    tag_207:\n        /* \"#utility.yul\":5538:5544   */\n      0x00\n        /* \"#utility.yul\":5572:5577   */\n      dup2\n        /* \"#utility.yul\":5566:5578   */\n      mload\n        /* \"#utility.yul\":5556:5578   */\n      swap1\n      pop\n        /* \"#utility.yul\":5471:5585   */\n      swap2\n      swap1\n      pop\n      jump\t// out\n        /* \"#utility.yul\":5591:5775   */\n    tag_208:\n        /* \"#utility.yul\":5690:5701   */\n      0x00\n        /* \"#utility.yul\":5724:5730   */\n      dup3\n        /* \"#utility.yul\":5719:5722   */\n      dup3\n        /* \"#utility.yul\":5712:5731   */\n      mstore\n        /* \"#utility.yul\":5764:5768   */\n      0x20\n        /* \"#utility.yul\":5759:5762   */\n      dup3\n        /* \"#utility.yul\":5755:5769   */\n      add\n        /* \"#utility.yul\":5740:5769   */\n      swap1\n      pop\n        /* \"#utility.yul\":5591:5775   */\n      swap3\n      swap2\n      pop\n      pop\n      jump\t// out\n        /* \"#utility.yul\":5781:5913   */\n    tag_209:\n        /* \"#utility.yul\":5848:5852   */\n      0x00\n        /* \"#utility.yul\":5871:5874   */\n      dup2\n        /* \"#utility.yul\":5863:5874   */\n      swap1\n      pop\n        /* \"#utility.yul\":5901:5905   */\n      0x20\n        /* \"#utility.yul\":5896:5899   */\n      dup3\n        /* \"#utility.yul\":5892:5906   */\n      add\n        /* \"#utility.yul\":5884:5906   */\n      swap1\n      pop\n        /* \"#utility.yul\":5781:5913   */\n      swap2\n      swap1\n      pop\n      jump\t// out\n        /* \"#utility.yul\":5919:6027   */\n    tag_210:\n        /* \"#utility.yul\":5996:6020   */\n      tag_323\n        /* \"#utility.yul\":6014:6019   */\n      dup2\n        /* \"#utility.yul\":5996:6020   */\n      tag_196\n      jump\t// in\n    tag_323:\n        /* \"#utility.yul\":5991:5994   */\n      dup3\n        /* \"#utility.yul\":5984:6021   */\n      mstore\n        /* \"#utility.yul\":5919:6027   */\n      pop\n      pop\n      jump\t// out\n        /* \"#utility.yul\":6033:6212   */\n    tag_211:\n        /* \"#utility.yul\":6102:6112   */\n      0x00\n        /* \"#utility.yul\":6123:6169   */\n      tag_325\n        /* \"#utility.yul\":6165:6168   */\n      dup4\n        /* \"#utility.yul\":6157:6163   */\n      dup4\n        /* \"#utility.yul\":6123:6169   */\n      tag_210\n      jump\t// in\n    tag_325:\n        /* \"#utility.yul\":6201:6205   */\n      0x20\n        /* \"#utility.yul\":6196:6199   */\n      dup4\n        /* \"#utility.yul\":6192:6206   */\n      add\n        /* \"#utility.yul\":6178:6206   */\n      swap1\n      pop\n        /* \"#utility.yul\":6033:6212   */\n      swap3\n      swap2\n      pop\n      pop\n      jump\t// out\n        /* \"#utility.yul\":6218:6331   */\n    tag_212:\n        /* \"#utility.yul\":6288:6292   */\n      0x00\n        /* \"#utility.yul\":6320:6324   */\n      0x20\n        /* \"#utility.yul\":6315:6318   */\n      dup3\n        /* \"#utility.yul\":6311:6325   */\n      add\n        /* \"#utility.yul\":6303:6325   */\n      swap1\n      pop\n        /* \"#utility.yul\":6218:6331   */\n      swap2\n      swap1\n      pop\n      jump\t// out\n        /* \"#utility.yul\":6367:7099   */\n    tag_213:\n        /* \"#utility.yul\":6486:6489   */\n      0x00\n        /* \"#utility.yul\":6515:6569   */\n      tag_328\n        /* \"#utility.yul\":6563:6568   */\n      dup3\n        /* \"#utility.yul\":6515:6569   */\n      tag_207\n      jump\t// in\n    tag_328:\n        /* \"#utility.yul\":6585:6671   */\n      tag_329\n        /* \"#utility.yul\":6664:6670   */\n      dup2\n        /* \"#utility.yul\":6659:6662   */\n      dup6\n        /* \"#utility.yul\":6585:6671   */\n      tag_208\n      jump\t// in\n    tag_329:\n        /* \"#utility.yul\":6578:6671   */\n      swap4\n      pop\n        /* \"#utility.yul\":6695:6751   */\n      tag_330\n        /* \"#utility.yul\":6745:6750   */\n      dup4\n        /* \"#utility.yul\":6695:6751   */\n      tag_209\n      jump\t// in\n    tag_330:\n        /* \"#utility.yul\":6774:6781   */\n      dup1\n        /* \"#utility.yul\":6805:6806   */\n      0x00\n        /* \"#utility.yul\":6790:7074   */\n    tag_331:\n        /* \"#utility.yul\":6815:6821   */\n      dup4\n        /* \"#utility.yul\":6812:6813   */\n      dup2\n        /* \"#utility.yul\":6809:6822   */\n      lt\n        /* \"#utility.yul\":6790:7074   */\n      iszero\n      tag_333\n      jumpi\n        /* \"#utility.yul\":6891:6897   */\n      dup2\n        /* \"#utility.yul\":6885:6898   */\n      mload\n        /* \"#utility.yul\":6918:6981   */\n      tag_334\n        /* \"#utility.yul\":6977:6980   */\n      dup9\n        /* \"#utility.yul\":6962:6975   */\n      dup3\n        /* \"#utility.yul\":6918:6981   */\n      tag_211\n      jump\t// in\n    tag_334:\n        /* \"#utility.yul\":6911:6981   */\n      swap8\n      pop\n        /* \"#utility.yul\":7004:7064   */\n      tag_335\n        /* \"#utility.yul\":7057:7063   */\n      dup4\n        /* \"#utility.yul\":7004:7064   */\n      tag_212\n      jump\t// in\n    tag_335:\n        /* \"#utility.yul\":6994:7064   */\n      swap3\n      pop\n        /* \"#utility.yul\":6850:7074   */\n      pop\n        /* \"#utility.yul\":6837:6838   */\n      0x01\n        /* \"#utility.yul\":6834:6835   */\n      dup2\n        /* \"#utility.yul\":6830:6839   */\n      add\n        /* \"#utility.yul\":6825:6839   */\n      swap1\n      pop\n        /* \"#utility.yul\":6790:7074   */\n      jump(tag_331)\n    tag_333:\n        /* \"#utility.yul\":6794:6808   */\n      pop\n        /* \"#utility.yul\":7090:7093   */\n      dup6\n        /* \"#utility.yul\":7083:7093   */\n      swap4\n      pop\n        /* \"#utility.yul\":6491:7099   */\n      pop\n      pop\n      pop\n        /* \"#utility.yul\":6367:7099   */\n      swap3\n      swap2\n      pop\n      pop\n      jump\t// out\n        /* \"#utility.yul\":7105:7478   */\n    tag_64:\n        /* \"#utility.yul\":7248:7252   */\n      0x00\n        /* \"#utility.yul\":7286:7288   */\n      0x20\n        /* \"#utility.yul\":7275:7284   */\n      dup3\n        /* \"#utility.yul\":7271:7289   */\n      add\n        /* \"#utility.yul\":7263:7289   */\n      swap1\n      pop\n        /* \"#utility.yul\":7335:7344   */\n      dup2\n        /* \"#utility.yul\":7329:7333   */\n      dup2\n        /* \"#utility.yul\":7325:7345   */\n      sub\n        /* \"#utility.yul\":7321:7322   */\n      0x00\n        /* \"#utility.yul\":7310:7319   */\n      dup4\n        /* \"#utility.yul\":7306:7323   */\n      add\n        /* \"#utility.yul\":7299:7346   */\n      mstore\n        /* \"#utility.yul\":7363:7471   */\n      tag_337\n        /* \"#utility.yul\":7466:7470   */\n      dup2\n        /* \"#utility.yul\":7457:7463   */\n      dup5\n        /* \"#utility.yul\":7363:7471   */\n      tag_213\n      jump\t// in\n    tag_337:\n        /* \"#utility.yul\":7355:7471   */\n      swap1\n      pop\n        /* \"#utility.yul\":7105:7478   */\n      swap3\n      swap2\n      pop\n      pop\n      jump\t// out\n        /* \"#utility.yul\":7484:7601   */\n    tag_214:\n        /* \"#utility.yul\":7593:7594   */\n      0x00\n        /* \"#utility.yul\":7590:7591   */\n      dup1\n        /* \"#utility.yul\":7583:7595   */\n      revert\n        /* \"#utility.yul\":7607:7724   */\n    tag_215:\n        /* \"#utility.yul\":7716:7717   */\n      0x00\n        /* \"#utility.yul\":7713:7714   */\n      dup1\n        /* \"#utility.yul\":7706:7718   */\n      revert\n        /* \"#utility.yul\":7730:7910   */\n    tag_216:\n        /* \"#utility.yul\":7778:7855   */\n      0x4e487b7100000000000000000000000000000000000000000000000000000000\n        /* \"#utility.yul\":7775:7776   */\n      0x00\n        /* \"#utility.yul\":7768:7856   */\n      mstore\n        /* \"#utility.yul\":7875:7879   */\n      0x41\n        /* \"#utility.yul\":7872:7873   */\n      0x04\n        /* \"#utility.yul\":7865:7880   */\n      mstore\n        /* \"#utility.yul\":7899:7903   */\n      0x24\n        /* \"#utility.yul\":7896:7897   */\n      0x00\n        /* \"#utility.yul\":7889:7904   */\n      revert\n        /* \"#utility.yul\":7916:8197   */\n    tag_217:\n        /* \"#utility.yul\":7999:8026   */\n      tag_342\n        /* \"#utility.yul\":8021:8025   */\n      dup3\n        /* \"#utility.yul\":7999:8026   */\n      tag_205\n      jump\t// in\n    tag_342:\n        /* \"#utility.yul\":7991:7997   */\n      dup2\n        /* \"#utility.yul\":7987:8027   */\n      add\n        /* \"#utility.yul\":8129:8135   */\n      dup2\n        /* \"#utility.yul\":8117:8127   */\n      dup2\n        /* \"#utility.yul\":8114:8136   */\n      lt\n        /* \"#utility.yul\":8093:8111   */\n      0xffffffffffffffff\n        /* \"#utility.yul\":8081:8091   */\n      dup3\n        /* \"#utility.yul\":8078:8112   */\n      gt\n        /* \"#utility.yul\":8075:8137   */\n      or\n        /* \"#utility.yul\":8072:8160   */\n      iszero\n      tag_343\n      jumpi\n        /* \"#utility.yul\":8140:8158   */\n      tag_344\n      tag_216\n      jump\t// in\n    tag_344:\n        /* \"#utility.yul\":8072:8160   */\n    tag_343:\n        /* \"#utility.yul\":8180:8190   */\n      dup1\n        /* \"#utility.yul\":8176:8178   */\n      0x40\n        /* \"#utility.yul\":8169:8191   */\n      mstore\n        /* \"#utility.yul\":7959:8197   */\n      pop\n        /* \"#utility.yul\":7916:8197   */\n      pop\n      pop\n      jump\t// out\n        /* \"#utility.yul\":8203:8332   */\n    tag_218:\n        /* \"#utility.yul\":8237:8243   */\n      0x00\n        /* \"#utility.yul\":8264:8284   */\n      tag_346\n      tag_190\n      jump\t// in\n    tag_346:\n        /* \"#utility.yul\":8254:8284   */\n      swap1\n      pop\n        /* \"#utility.yul\":8293:8326   */\n      tag_347\n        /* \"#utility.yul\":8321:8325   */\n      dup3\n        /* \"#utility.yul\":8313:8319   */\n      dup3\n        /* \"#utility.yul\":8293:8326   */\n      tag_217\n      jump\t// in\n    tag_347:\n        /* \"#utility.yul\":8203:8332   */\n      swap2\n      swap1\n      pop\n      jump\t// out\n        /* \"#utility.yul\":8338:8645   */\n    tag_219:\n        /* \"#utility.yul\":8399:8403   */\n      0x00\n        /* \"#utility.yul\":8489:8507   */\n      0xffffffffffffffff\n        /* \"#utility.yul\":8481:8487   */\n      dup3\n        /* \"#utility.yul\":8478:8508   */\n      gt\n        /* \"#utility.yul\":8475:8531   */\n      iszero\n      tag_349\n      jumpi\n        /* \"#utility.yul\":8511:8529   */\n      tag_350\n      tag_216\n      jump\t// in\n    tag_350:\n        /* \"#utility.yul\":8475:8531   */\n    tag_349:\n        /* \"#utility.yul\":8549:8578   */\n      tag_351\n        /* \"#utility.yul\":8571:8577   */\n      dup3\n        /* \"#utility.yul\":8549:8578   */\n      tag_205\n      jump\t// in\n    tag_351:\n        /* \"#utility.yul\":8541:8578   */\n      swap1\n      pop\n        /* \"#utility.yul\":8633:8637   */\n      0x20\n        /* \"#utility.yul\":8627:8631   */\n      dup2\n        /* \"#utility.yul\":8623:8638   */\n      add\n        /* \"#utility.yul\":8615:8638   */\n      swap1\n      pop\n        /* \"#utility.yul\":8338:8645   */\n      swap2\n      swap1\n      pop\n      jump\t// out\n        /* \"#utility.yul\":8651:8799   */\n    tag_220:\n        /* \"#utility.yul\":8749:8755   */\n      dup3\n        /* \"#utility.yul\":8744:8747   */\n      dup2\n        /* \"#utility.yul\":8739:8742   */\n      dup4\n        /* \"#utility.yul\":8726:8756   */\n      calldatacopy\n        /* \"#utility.yul\":8790:8791   */\n      0x00\n        /* \"#utility.yul\":8781:8787   */\n      dup4\n        /* \"#utility.yul\":8776:8779   */\n      dup4\n        /* \"#utility.yul\":8772:8788   */\n      add\n        /* \"#utility.yul\":8765:8792   */\n      mstore\n        /* \"#utility.yul\":8651:8799   */\n      pop\n      pop\n      pop\n      jump\t// out\n        /* \"#utility.yul\":8805:9228   */\n    tag_221:\n        /* \"#utility.yul\":8882:8887   */\n      0x00\n        /* \"#utility.yul\":8907:8972   */\n      tag_354\n        /* \"#utility.yul\":8923:8971   */\n      tag_355\n        /* \"#utility.yul\":8964:8970   */\n      dup5\n        /* \"#utility.yul\":8923:8971   */\n      tag_219\n      jump\t// in\n    tag_355:\n        /* \"#utility.yul\":8907:8972   */\n      tag_218\n      jump\t// in\n    tag_354:\n        /* \"#utility.yul\":8898:8972   */\n      swap1\n      pop\n        /* \"#utility.yul\":8995:9001   */\n      dup3\n        /* \"#utility.yul\":8988:8993   */\n      dup2\n        /* \"#utility.yul\":8981:9002   */\n      mstore\n        /* \"#utility.yul\":9033:9037   */\n      0x20\n        /* \"#utility.yul\":9026:9031   */\n      dup2\n        /* \"#utility.yul\":9022:9038   */\n      add\n        /* \"#utility.yul\":9071:9074   */\n      dup5\n        /* \"#utility.yul\":9062:9068   */\n      dup5\n        /* \"#utility.yul\":9057:9060   */\n      dup5\n        /* \"#utility.yul\":9053:9069   */\n      add\n        /* \"#utility.yul\":9050:9075   */\n      gt\n        /* \"#utility.yul\":9047:9159   */\n      iszero\n      tag_356\n      jumpi\n        /* \"#utility.yul\":9078:9157   */\n      tag_357\n      tag_215\n      jump\t// in\n    tag_357:\n        /* \"#utility.yul\":9047:9159   */\n    tag_356:\n        /* \"#utility.yul\":9168:9222   */\n      tag_358\n        /* \"#utility.yul\":9215:9221   */\n      dup5\n        /* \"#utility.yul\":9210:9213   */\n      dup3\n        /* \"#utility.yul\":9205:9208   */\n      dup6\n        /* \"#utility.yul\":9168:9222   */\n      tag_220\n      jump\t// in\n    tag_358:\n        /* \"#utility.yul\":8888:9228   */\n      pop\n        /* \"#utility.yul\":8805:9228   */\n      swap4\n      swap3\n      pop\n      pop\n      pop\n      jump\t// out\n        /* \"#utility.yul\":9247:9585   */\n    tag_222:\n        /* \"#utility.yul\":9302:9307   */\n      0x00\n        /* \"#utility.yul\":9351:9354   */\n      dup3\n        /* \"#utility.yul\":9344:9348   */\n      0x1f\n        /* \"#utility.yul\":9336:9342   */\n      dup4\n        /* \"#utility.yul\":9332:9349   */\n      add\n        /* \"#utility.yul\":9328:9355   */\n      slt\n        /* \"#utility.yul\":9318:9440   */\n      tag_360\n      jumpi\n        /* \"#utility.yul\":9359:9438   */\n      tag_361\n      tag_214\n      jump\t// in\n    tag_361:\n        /* \"#utility.yul\":9318:9440   */\n    tag_360:\n        /* \"#utility.yul\":9476:9482   */\n      dup2\n        /* \"#utility.yul\":9463:9483   */\n      calldataload\n        /* \"#utility.yul\":9501:9579   */\n      tag_362\n        /* \"#utility.yul\":9575:9578   */\n      dup5\n        /* \"#utility.yul\":9567:9573   */\n      dup3\n        /* \"#utility.yul\":9560:9564   */\n      0x20\n        /* \"#utility.yul\":9552:9558   */\n      dup7\n        /* \"#utility.yul\":9548:9565   */\n      add\n        /* \"#utility.yul\":9501:9579   */\n      tag_221\n      jump\t// in\n    tag_362:\n        /* \"#utility.yul\":9492:9579   */\n      swap2\n      pop\n        /* \"#utility.yul\":9308:9585   */\n      pop\n        /* \"#utility.yul\":9247:9585   */\n      swap3\n      swap2\n      pop\n      pop\n      jump\t// out\n        /* \"#utility.yul\":9591:10388   */\n    tag_72:\n        /* \"#utility.yul\":9677:9683   */\n      0x00\n        /* \"#utility.yul\":9685:9691   */\n      dup1\n        /* \"#utility.yul\":9693:9699   */\n      0x00\n        /* \"#utility.yul\":9742:9744   */\n      0x60\n        /* \"#utility.yul\":9730:9739   */\n      dup5\n        /* \"#utility.yul\":9721:9728   */\n      dup7\n        /* \"#utility.yul\":9717:9740   */\n      sub\n        /* \"#utility.yul\":9713:9745   */\n      slt\n        /* \"#utility.yul\":9710:9829   */\n      iszero\n      tag_364\n      jumpi\n        /* \"#utility.yul\":9748:9827   */\n      tag_365\n      tag_191\n      jump\t// in\n    tag_365:\n        /* \"#utility.yul\":9710:9829   */\n    tag_364:\n        /* \"#utility.yul\":9868:9869   */\n      0x00\n        /* \"#utility.yul\":9893:9946   */\n      tag_366\n        /* \"#utility.yul\":9938:9945   */\n      dup7\n        /* \"#utility.yul\":9929:9935   */\n      dup3\n        /* \"#utility.yul\":9918:9927   */\n      dup8\n        /* \"#utility.yul\":9914:9936   */\n      add\n        /* \"#utility.yul\":9893:9946   */\n      tag_199\n      jump\t// in\n    tag_366:\n        /* \"#utility.yul\":9883:9946   */\n      swap4\n      pop\n        /* \"#utility.yul\":9839:9956   */\n      pop\n        /* \"#utility.yul\":9995:9997   */\n      0x20\n        /* \"#utility.yul\":10021:10074   */\n      tag_367\n        /* \"#utility.yul\":10066:10073   */\n      dup7\n        /* \"#utility.yul\":10057:10063   */\n      dup3\n        /* \"#utility.yul\":10046:10055   */\n      dup8\n        /* \"#utility.yul\":10042:10064   */\n      add\n        /* \"#utility.yul\":10021:10074   */\n      tag_194\n      jump\t// in\n    tag_367:\n        /* \"#utility.yul\":10011:10074   */\n      swap3\n      pop\n        /* \"#utility.yul\":9966:10084   */\n      pop\n        /* \"#utility.yul\":10151:10153   */\n      0x40\n        /* \"#utility.yul\":10140:10149   */\n      dup5\n        /* \"#utility.yul\":10136:10154   */\n      add\n        /* \"#utility.yul\":10123:10155   */\n      calldataload\n        /* \"#utility.yul\":10182:10200   */\n      0xffffffffffffffff\n        /* \"#utility.yul\":10174:10180   */\n      dup2\n        /* \"#utility.yul\":10171:10201   */\n      gt\n        /* \"#utility.yul\":10168:10285   */\n      iszero\n      tag_368\n      jumpi\n        /* \"#utility.yul\":10204:10283   */\n      tag_369\n      tag_192\n      jump\t// in\n    tag_369:\n        /* \"#utility.yul\":10168:10285   */\n    tag_368:\n        /* \"#utility.yul\":10309:10371   */\n      tag_370\n        /* \"#utility.yul\":10363:10370   */\n      dup7\n        /* \"#utility.yul\":10354:10360   */\n      dup3\n        /* \"#utility.yul\":10343:10352   */\n      dup8\n        /* \"#utility.yul\":10339:10361   */\n      add\n        /* \"#utility.yul\":10309:10371   */\n      tag_222\n      jump\t// in\n    tag_370:\n        /* \"#utility.yul\":10299:10371   */\n      swap2\n      pop\n        /* \"#utility.yul\":10094:10381   */\n      pop\n        /* \"#utility.yul\":9591:10388   */\n      swap3\n      pop\n      swap3\n      pop\n      swap3\n      jump\t// out\n        /* \"#utility.yul\":10394:10574   */\n    tag_88:\n        /* \"#utility.yul\":10442:10519   */\n      0x4e487b7100000000000000000000000000000000000000000000000000000000\n        /* \"#utility.yul\":10439:10440   */\n      0x00\n        /* \"#utility.yul\":10432:10520   */\n      mstore\n        /* \"#utility.yul\":10539:10543   */\n      0x32\n        /* \"#utility.yul\":10536:10537   */\n      0x04\n        /* \"#utility.yul\":10529:10544   */\n      mstore\n        /* \"#utility.yul\":10563:10567   */\n      0x24\n        /* \"#utility.yul\":10560:10561   */\n      0x00\n        /* \"#utility.yul\":10553:10568   */\n      revert\n        /* \"#utility.yul\":10580:10760   */\n    tag_223:\n        /* \"#utility.yul\":10628:10705   */\n      0x4e487b7100000000000000000000000000000000000000000000000000000000\n        /* \"#utility.yul\":10625:10626   */\n      0x00\n        /* \"#utility.yul\":10618:10706   */\n      mstore\n        /* \"#utility.yul\":10725:10729   */\n      0x22\n        /* \"#utility.yul\":10722:10723   */\n      0x04\n        /* \"#utility.yul\":10715:10730   */\n      mstore\n        /* \"#utility.yul\":10749:10753   */\n      0x24\n        /* \"#utility.yul\":10746:10747   */\n      0x00\n        /* \"#utility.yul\":10739:10754   */\n      revert\n        /* \"#utility.yul\":10766:11086   */\n    tag_91:\n        /* \"#utility.yul\":10810:10816   */\n      0x00\n        /* \"#utility.yul\":10847:10848   */\n      0x02\n        /* \"#utility.yul\":10841:10845   */\n      dup3\n        /* \"#utility.yul\":10837:10849   */\n      div\n        /* \"#utility.yul\":10827:10849   */\n      swap1\n      pop\n        /* \"#utility.yul\":10894:10895   */\n      0x01\n        /* \"#utility.yul\":10888:10892   */\n      dup3\n        /* \"#utility.yul\":10884:10896   */\n      and\n        /* \"#utility.yul\":10915:10933   */\n      dup1\n        /* \"#utility.yul\":10905:10986   */\n      tag_374\n      jumpi\n        /* \"#utility.yul\":10971:10975   */\n      0x7f\n        /* \"#utility.yul\":10963:10969   */\n      dup3\n        /* \"#utility.yul\":10959:10976   */\n      and\n        /* \"#utility.yul\":10949:10976   */\n      swap2\n      pop\n        /* \"#utility.yul\":10905:10986   */\n    tag_374:\n        /* \"#utility.yul\":11033:11035   */\n      0x20\n        /* \"#utility.yul\":11025:11031   */\n      dup3\n        /* \"#utility.yul\":11022:11036   */\n      lt\n        /* \"#utility.yul\":11002:11020   */\n      dup2\n        /* \"#utility.yul\":10999:11037   */\n      sub\n        /* \"#utility.yul\":10996:11080   */\n      tag_375\n      jumpi\n        /* \"#utility.yul\":11052:11070   */\n      tag_376\n      tag_223\n      jump\t// in\n    tag_376:\n        /* \"#utility.yul\":10996:11080   */\n    tag_375:\n        /* \"#utility.yul\":10817:11086   */\n      pop\n        /* \"#utility.yul\":10766:11086   */\n      swap2\n      swap1\n      pop\n      jump\t// out\n        /* \"#utility.yul\":11092:11261   */\n    tag_224:\n        /* \"#utility.yul\":11176:11187   */\n      0x00\n        /* \"#utility.yul\":11210:11216   */\n      dup3\n        /* \"#utility.yul\":11205:11208   */\n      dup3\n        /* \"#utility.yul\":11198:11217   */\n      mstore\n        /* \"#utility.yul\":11250:11254   */\n      0x20\n        /* \"#utility.yul\":11245:11248   */\n      dup3\n        /* \"#utility.yul\":11241:11255   */\n      add\n        /* \"#utility.yul\":11226:11255   */\n      swap1\n      pop\n        /* \"#utility.yul\":11092:11261   */\n      swap3\n      swap2\n      pop\n      pop\n      jump\t// out\n        /* \"#utility.yul\":11267:11426   */\n    tag_225:\n        /* \"#utility.yul\":11407:11418   */\n      0x6e6f74206f776e65720000000000000000000000000000000000000000000000\n        /* \"#utility.yul\":11403:11404   */\n      0x00\n        /* \"#utility.yul\":11395:11401   */\n      dup3\n        /* \"#utility.yul\":11391:11405   */\n      add\n        /* \"#utility.yul\":11384:11419   */\n      mstore\n        /* \"#utility.yul\":11267:11426   */\n      pop\n      jump\t// out\n        /* \"#utility.yul\":11432:11797   */\n    tag_226:\n        /* \"#utility.yul\":11574:11577   */\n      0x00\n        /* \"#utility.yul\":11595:11661   */\n      tag_380\n        /* \"#utility.yul\":11659:11660   */\n      0x09\n        /* \"#utility.yul\":11654:11657   */\n      dup4\n        /* \"#utility.yul\":11595:11661   */\n      tag_224\n      jump\t// in\n    tag_380:\n        /* \"#utility.yul\":11588:11661   */\n      swap2\n      pop\n        /* \"#utility.yul\":11670:11763   */\n      tag_381\n        /* \"#utility.yul\":11759:11762   */\n      dup3\n        /* \"#utility.yul\":11670:11763   */\n      tag_225\n      jump\t// in\n    tag_381:\n        /* \"#utility.yul\":11788:11790   */\n      0x20\n        /* \"#utility.yul\":11783:11786   */\n      dup3\n        /* \"#utility.yul\":11779:11791   */\n      add\n        /* \"#utility.yul\":11772:11791   */\n      swap1\n      pop\n        /* \"#utility.yul\":11432:11797   */\n      swap2\n      swap1\n      pop\n      jump\t// out\n        /* \"#utility.yul\":11803:12222   */\n    tag_99:\n        /* \"#utility.yul\":11969:11973   */\n      0x00\n        /* \"#utility.yul\":12007:12009   */\n      0x20\n        /* \"#utility.yul\":11996:12005   */\n      dup3\n        /* \"#utility.yul\":11992:12010   */\n      add\n        /* \"#utility.yul\":11984:12010   */\n      swap1\n      pop\n        /* \"#utility.yul\":12056:12065   */\n      dup2\n        /* \"#utility.yul\":12050:12054   */\n      dup2\n        /* \"#utility.yul\":12046:12066   */\n      sub\n        /* \"#utility.yul\":12042:12043   */\n      0x00\n        /* \"#utility.yul\":12031:12040   */\n      dup4\n        /* \"#utility.yul\":12027:12044   */\n      add\n        /* \"#utility.yul\":12020:12067   */\n      mstore\n        /* \"#utility.yul\":12084:12215   */\n      tag_383\n        /* \"#utility.yul\":12210:12214   */\n      dup2\n        /* \"#utility.yul\":12084:12215   */\n      tag_226\n      jump\t// in\n    tag_383:\n        /* \"#utility.yul\":12076:12215   */\n      swap1\n      pop\n        /* \"#utility.yul\":11803:12222   */\n      swap2\n      swap1\n      pop\n      jump\t// out\n        /* \"#utility.yul\":12228:12396   */\n    tag_227:\n        /* \"#utility.yul\":12368:12388   */\n      0x747820646f6573206e6f74206578697374730000000000000000000000000000\n        /* \"#utility.yul\":12364:12365   */\n      0x00\n        /* \"#utility.yul\":12356:12362   */\n      dup3\n        /* \"#utility.yul\":12352:12366   */\n      add\n        /* \"#utility.yul\":12345:12389   */\n      mstore\n        /* \"#utility.yul\":12228:12396   */\n      pop\n      jump\t// out\n        /* \"#utility.yul\":12402:12768   */\n    tag_228:\n        /* \"#utility.yul\":12544:12547   */\n      0x00\n        /* \"#utility.yul\":12565:12632   */\n      tag_386\n        /* \"#utility.yul\":12629:12631   */\n      0x12\n        /* \"#utility.yul\":12624:12627   */\n      dup4\n        /* \"#utility.yul\":12565:12632   */\n      tag_224\n      jump\t// in\n    tag_386:\n        /* \"#utility.yul\":12558:12632   */\n      swap2\n      pop\n        /* \"#utility.yul\":12641:12734   */\n      tag_387\n        /* \"#utility.yul\":12730:12733   */\n      dup3\n        /* \"#utility.yul\":12641:12734   */\n      tag_227\n      jump\t// in\n    tag_387:\n        /* \"#utility.yul\":12759:12761   */\n      0x20\n        /* \"#utility.yul\":12754:12757   */\n      dup3\n        /* \"#utility.yul\":12750:12762   */\n      add\n        /* \"#utility.yul\":12743:12762   */\n      swap1\n      pop\n        /* \"#utility.yul\":12402:12768   */\n      swap2\n      swap1\n      pop\n      jump\t// out\n        /* \"#utility.yul\":12774:13193   */\n    tag_103:\n        /* \"#utility.yul\":12940:12944   */\n      0x00\n        /* \"#utility.yul\":12978:12980   */\n      0x20\n        /* \"#utility.yul\":12967:12976   */\n      dup3\n        /* \"#utility.yul\":12963:12981   */\n      add\n        /* \"#utility.yul\":12955:12981   */\n      swap1\n      pop\n        /* \"#utility.yul\":13027:13036   */\n      dup2\n        /* \"#utility.yul\":13021:13025   */\n      dup2\n        /* \"#utility.yul\":13017:13037   */\n      sub\n        /* \"#utility.yul\":13013:13014   */\n      0x00\n        /* \"#utility.yul\":13002:13011   */\n      dup4\n        /* \"#utility.yul\":12998:13015   */\n      add\n        /* \"#utility.yul\":12991:13038   */\n      mstore\n        /* \"#utility.yul\":13055:13186   */\n      tag_389\n        /* \"#utility.yul\":13181:13185   */\n      dup2\n        /* \"#utility.yul\":13055:13186   */\n      tag_228\n      jump\t// in\n    tag_389:\n        /* \"#utility.yul\":13047:13186   */\n      swap1\n      pop\n        /* \"#utility.yul\":12774:13193   */\n      swap2\n      swap1\n      pop\n      jump\t// out\n        /* \"#utility.yul\":13199:13369   */\n    tag_229:\n        /* \"#utility.yul\":13339:13361   */\n      0x747820616c726565616479206578656375746564000000000000000000000000\n        /* \"#utility.yul\":13335:13336   */\n      0x00\n        /* \"#utility.yul\":13327:13333   */\n      dup3\n        /* \"#utility.yul\":13323:13337   */\n      add\n        /* \"#utility.yul\":13316:13362   */\n      mstore\n        /* \"#utility.yul\":13199:13369   */\n      pop\n      jump\t// out\n        /* \"#utility.yul\":13375:13741   */\n    tag_230:\n        /* \"#utility.yul\":13517:13520   */\n      0x00\n        /* \"#utility.yul\":13538:13605   */\n      tag_392\n        /* \"#utility.yul\":13602:13604   */\n      0x14\n        /* \"#utility.yul\":13597:13600   */\n      dup4\n        /* \"#utility.yul\":13538:13605   */\n      tag_224\n      jump\t// in\n    tag_392:\n        /* \"#utility.yul\":13531:13605   */\n      swap2\n      pop\n        /* \"#utility.yul\":13614:13707   */\n      tag_393\n        /* \"#utility.yul\":13703:13706   */\n      dup3\n        /* \"#utility.yul\":13614:13707   */\n      tag_229\n      jump\t// in\n    tag_393:\n        /* \"#utility.yul\":13732:13734   */\n      0x20\n        /* \"#utility.yul\":13727:13730   */\n      dup3\n        /* \"#utility.yul\":13723:13735   */\n      add\n        /* \"#utility.yul\":13716:13735   */\n      swap1\n      pop\n        /* \"#utility.yul\":13375:13741   */\n      swap2\n      swap1\n      pop\n      jump\t// out\n        /* \"#utility.yul\":13747:14166   */\n    tag_110:\n        /* \"#utility.yul\":13913:13917   */\n      0x00\n        /* \"#utility.yul\":13951:13953   */\n      0x20\n        /* \"#utility.yul\":13940:13949   */\n      dup3\n        /* \"#utility.yul\":13936:13954   */\n      add\n        /* \"#utility.yul\":13928:13954   */\n      swap1\n      pop\n        /* \"#utility.yul\":14000:14009   */\n      dup2\n        /* \"#utility.yul\":13994:13998   */\n      dup2\n        /* \"#utility.yul\":13990:14010   */\n      sub\n        /* \"#utility.yul\":13986:13987   */\n      0x00\n        /* \"#utility.yul\":13975:13984   */\n      dup4\n        /* \"#utility.yul\":13971:13988   */\n      add\n        /* \"#utility.yul\":13964:14011   */\n      mstore\n        /* \"#utility.yul\":14028:14159   */\n      tag_395\n        /* \"#utility.yul\":14154:14158   */\n      dup2\n        /* \"#utility.yul\":14028:14159   */\n      tag_230\n      jump\t// in\n    tag_395:\n        /* \"#utility.yul\":14020:14159   */\n      swap1\n      pop\n        /* \"#utility.yul\":13747:14166   */\n      swap2\n      swap1\n      pop\n      jump\t// out\n        /* \"#utility.yul\":14172:14338   */\n    tag_231:\n        /* \"#utility.yul\":14312:14330   */\n      0x7478206e6f7420636f6e6669726d656400000000000000000000000000000000\n        /* \"#utility.yul\":14308:14309   */\n      0x00\n        /* \"#utility.yul\":14300:14306   */\n      dup3\n        /* \"#utility.yul\":14296:14310   */\n      add\n        /* \"#utility.yul\":14289:14331   */\n      mstore\n        /* \"#utility.yul\":14172:14338   */\n      pop\n      jump\t// out\n        /* \"#utility.yul\":14344:14710   */\n    tag_232:\n        /* \"#utility.yul\":14486:14489   */\n      0x00\n        /* \"#utility.yul\":14507:14574   */\n      tag_398\n        /* \"#utility.yul\":14571:14573   */\n      0x10\n        /* \"#utility.yul\":14566:14569   */\n      dup4\n        /* \"#utility.yul\":14507:14574   */\n      tag_224\n      jump\t// in\n    tag_398:\n        /* \"#utility.yul\":14500:14574   */\n      swap2\n      pop\n        /* \"#utility.yul\":14583:14676   */\n      tag_399\n        /* \"#utility.yul\":14672:14675   */\n      dup3\n        /* \"#utility.yul\":14583:14676   */\n      tag_231\n      jump\t// in\n    tag_399:\n        /* \"#utility.yul\":14701:14703   */\n      0x20\n        /* \"#utility.yul\":14696:14699   */\n      dup3\n        /* \"#utility.yul\":14692:14704   */\n      add\n        /* \"#utility.yul\":14685:14704   */\n      swap1\n      pop\n        /* \"#utility.yul\":14344:14710   */\n      swap2\n      swap1\n      pop\n      jump\t// out\n        /* \"#utility.yul\":14716:15135   */\n    tag_117:\n        /* \"#utility.yul\":14882:14886   */\n      0x00\n        /* \"#utility.yul\":14920:14922   */\n      0x20\n        /* \"#utility.yul\":14909:14918   */\n      dup3\n        /* \"#utility.yul\":14905:14923   */\n      add\n        /* \"#utility.yul\":14897:14923   */\n      swap1\n      pop\n        /* \"#utility.yul\":14969:14978   */\n      dup2\n        /* \"#utility.yul\":14963:14967   */\n      dup2\n        /* \"#utility.yul\":14959:14979   */\n      sub\n        /* \"#utility.yul\":14955:14956   */\n      0x00\n        /* \"#utility.yul\":14944:14953   */\n      dup4\n        /* \"#utility.yul\":14940:14957   */\n      add\n        /* \"#utility.yul\":14933:14980   */\n      mstore\n        /* \"#utility.yul\":14997:15128   */\n      tag_401\n        /* \"#utility.yul\":15123:15127   */\n      dup2\n        /* \"#utility.yul\":14997:15128   */\n      tag_232\n      jump\t// in\n    tag_401:\n        /* \"#utility.yul\":14989:15128   */\n      swap1\n      pop\n        /* \"#utility.yul\":14716:15135   */\n      swap2\n      swap1\n      pop\n      jump\t// out\n        /* \"#utility.yul\":15141:15321   */\n    tag_233:\n        /* \"#utility.yul\":15189:15266   */\n      0x4e487b7100000000000000000000000000000000000000000000000000000000\n        /* \"#utility.yul\":15186:15187   */\n      0x00\n        /* \"#utility.yul\":15179:15267   */\n      mstore\n        /* \"#utility.yul\":15286:15290   */\n      0x11\n        /* \"#utility.yul\":15283:15284   */\n      0x04\n        /* \"#utility.yul\":15276:15291   */\n      mstore\n        /* \"#utility.yul\":15310:15314   */\n      0x24\n        /* \"#utility.yul\":15307:15308   */\n      0x00\n        /* \"#utility.yul\":15300:15315   */\n      revert\n        /* \"#utility.yul\":15327:15521   */\n    tag_119:\n        /* \"#utility.yul\":15367:15371   */\n      0x00\n        /* \"#utility.yul\":15387:15407   */\n      tag_404\n        /* \"#utility.yul\":15405:15406   */\n      dup3\n        /* \"#utility.yul\":15387:15407   */\n      tag_188\n      jump\t// in\n    tag_404:\n        /* \"#utility.yul\":15382:15407   */\n      swap2\n      pop\n        /* \"#utility.yul\":15421:15441   */\n      tag_405\n        /* \"#utility.yul\":15439:15440   */\n      dup4\n        /* \"#utility.yul\":15421:15441   */\n      tag_188\n      jump\t// in\n    tag_405:\n        /* \"#utility.yul\":15416:15441   */\n      swap3\n      pop\n        /* \"#utility.yul\":15465:15466   */\n      dup3\n        /* \"#utility.yul\":15462:15463   */\n      dup3\n        /* \"#utility.yul\":15458:15467   */\n      sub\n        /* \"#utility.yul\":15450:15467   */\n      swap1\n      pop\n        /* \"#utility.yul\":15489:15490   */\n      dup2\n        /* \"#utility.yul\":15483:15487   */\n      dup2\n        /* \"#utility.yul\":15480:15491   */\n      gt\n        /* \"#utility.yul\":15477:15514   */\n      iszero\n      tag_406\n      jumpi\n        /* \"#utility.yul\":15494:15512   */\n      tag_407\n      tag_233\n      jump\t// in\n    tag_407:\n        /* \"#utility.yul\":15477:15514   */\n    tag_406:\n        /* \"#utility.yul\":15327:15521   */\n      swap3\n      swap2\n      pop\n      pop\n      jump\t// out\n        /* \"#utility.yul\":15527:15697   */\n    tag_234:\n        /* \"#utility.yul\":15667:15689   */\n      0x747820616c726561647920636f6e6669726d6564000000000000000000000000\n        /* \"#utility.yul\":15663:15664   */\n      0x00\n        /* \"#utility.yul\":15655:15661   */\n      dup3\n        /* \"#utility.yul\":15651:15665   */\n      add\n        /* \"#utility.yul\":15644:15690   */\n      mstore\n        /* \"#utility.yul\":15527:15697   */\n      pop\n      jump\t// out\n        /* \"#utility.yul\":15703:16069   */\n    tag_235:\n        /* \"#utility.yul\":15845:15848   */\n      0x00\n        /* \"#utility.yul\":15866:15933   */\n      tag_410\n        /* \"#utility.yul\":15930:15932   */\n      0x14\n        /* \"#utility.yul\":15925:15928   */\n      dup4\n        /* \"#utility.yul\":15866:15933   */\n      tag_224\n      jump\t// in\n    tag_410:\n        /* \"#utility.yul\":15859:15933   */\n      swap2\n      pop\n        /* \"#utility.yul\":15942:16035   */\n      tag_411\n        /* \"#utility.yul\":16031:16034   */\n      dup3\n        /* \"#utility.yul\":15942:16035   */\n      tag_234\n      jump\t// in\n    tag_411:\n        /* \"#utility.yul\":16060:16062   */\n      0x20\n        /* \"#utility.yul\":16055:16058   */\n      dup3\n        /* \"#utility.yul\":16051:16063   */\n      add\n        /* \"#utility.yul\":16044:16063   */\n      swap1\n      pop\n        /* \"#utility.yul\":15703:16069   */\n      swap2\n      swap1\n      pop\n      jump\t// out\n        /* \"#utility.yul\":16075:16494   */\n    tag_145:\n        /* \"#utility.yul\":16241:16245   */\n      0x00\n        /* \"#utility.yul\":16279:16281   */\n      0x20\n        /* \"#utility.yul\":16268:16277   */\n      dup3\n        /* \"#utility.yul\":16264:16282   */\n      add\n        /* \"#utility.yul\":16256:16282   */\n      swap1\n      pop\n        /* \"#utility.yul\":16328:16337   */\n      dup2\n        /* \"#utility.yul\":16322:16326   */\n      dup2\n        /* \"#utility.yul\":16318:16338   */\n      sub\n        /* \"#utility.yul\":16314:16315   */\n      0x00\n        /* \"#utility.yul\":16303:16312   */\n      dup4\n        /* \"#utility.yul\":16299:16316   */\n      add\n        /* \"#utility.yul\":16292:16339   */\n      mstore\n        /* \"#utility.yul\":16356:16487   */\n      tag_413\n        /* \"#utility.yul\":16482:16486   */\n      dup2\n        /* \"#utility.yul\":16356:16487   */\n      tag_235\n      jump\t// in\n    tag_413:\n        /* \"#utility.yul\":16348:16487   */\n      swap1\n      pop\n        /* \"#utility.yul\":16075:16494   */\n      swap2\n      swap1\n      pop\n      jump\t// out\n        /* \"#utility.yul\":16500:16691   */\n    tag_151:\n        /* \"#utility.yul\":16540:16543   */\n      0x00\n        /* \"#utility.yul\":16559:16579   */\n      tag_415\n        /* \"#utility.yul\":16577:16578   */\n      dup3\n        /* \"#utility.yul\":16559:16579   */\n      tag_188\n      jump\t// in\n    tag_415:\n        /* \"#utility.yul\":16554:16579   */\n      swap2\n      pop\n        /* \"#utility.yul\":16593:16613   */\n      tag_416\n        /* \"#utility.yul\":16611:16612   */\n      dup4\n        /* \"#utility.yul\":16593:16613   */\n      tag_188\n      jump\t// in\n    tag_416:\n        /* \"#utility.yul\":16588:16613   */\n      swap3\n      pop\n        /* \"#utility.yul\":16636:16637   */\n      dup3\n        /* \"#utility.yul\":16633:16634   */\n      dup3\n        /* \"#utility.yul\":16629:16638   */\n      add\n        /* \"#utility.yul\":16622:16638   */\n      swap1\n      pop\n        /* \"#utility.yul\":16657:16660   */\n      dup1\n        /* \"#utility.yul\":16654:16655   */\n      dup3\n        /* \"#utility.yul\":16651:16661   */\n      gt\n        /* \"#utility.yul\":16648:16684   */\n      iszero\n      tag_417\n      jumpi\n        /* \"#utility.yul\":16664:16682   */\n      tag_418\n      tag_233\n      jump\t// in\n    tag_418:\n        /* \"#utility.yul\":16648:16684   */\n    tag_417:\n        /* \"#utility.yul\":16500:16691   */\n      swap3\n      swap2\n      pop\n      pop\n      jump\t// out\n        /* \"#utility.yul\":16697:16837   */\n    tag_236:\n        /* \"#utility.yul\":16745:16749   */\n      0x00\n        /* \"#utility.yul\":16768:16771   */\n      dup2\n        /* \"#utility.yul\":16760:16771   */\n      swap1\n      pop\n        /* \"#utility.yul\":16791:16794   */\n      dup2\n        /* \"#utility.yul\":16788:16789   */\n      0x00\n        /* \"#utility.yul\":16781:16795   */\n      mstore\n        /* \"#utility.yul\":16825:16829   */\n      0x20\n        /* \"#utility.yul\":16822:16823   */\n      0x00\n        /* \"#utility.yul\":16812:16830   */\n      keccak256\n        /* \"#utility.yul\":16804:16830   */\n      swap1\n      pop\n        /* \"#utility.yul\":16697:16837   */\n      swap2\n      swap1\n      pop\n      jump\t// out\n        /* \"#utility.yul\":16843:16936   */\n    tag_237:\n        /* \"#utility.yul\":16880:16886   */\n      0x00\n        /* \"#utility.yul\":16927:16929   */\n      0x20\n        /* \"#utility.yul\":16922:16924   */\n      0x1f\n        /* \"#utility.yul\":16915:16920   */\n      dup4\n        /* \"#utility.yul\":16911:16925   */\n      add\n        /* \"#utility.yul\":16907:16930   */\n      div\n        /* \"#utility.yul\":16897:16930   */\n      swap1\n      pop\n        /* \"#utility.yul\":16843:16936   */\n      swap2\n      swap1\n      pop\n      jump\t// out\n        /* \"#utility.yul\":16942:17049   */\n    tag_238:\n        /* \"#utility.yul\":16986:16994   */\n      0x00\n        /* \"#utility.yul\":17036:17041   */\n      dup3\n        /* \"#utility.yul\":17030:17034   */\n      dup3\n        /* \"#utility.yul\":17026:17042   */\n      shl\n        /* \"#utility.yul\":17005:17042   */\n      swap1\n      pop\n        /* \"#utility.yul\":16942:17049   */\n      swap3\n      swap2\n      pop\n      pop\n      jump\t// out\n        /* \"#utility.yul\":17055:17448   */\n    tag_239:\n        /* \"#utility.yul\":17124:17130   */\n      0x00\n        /* \"#utility.yul\":17174:17175   */\n      0x08\n        /* \"#utility.yul\":17162:17172   */\n      dup4\n        /* \"#utility.yul\":17158:17176   */\n      mul\n        /* \"#utility.yul\":17197:17294   */\n      tag_423\n        /* \"#utility.yul\":17227:17293   */\n      0xffffffffffffffffffffffffffffffffffffffffffffffffffffffffffffffff\n        /* \"#utility.yul\":17216:17225   */\n      dup3\n        /* \"#utility.yul\":17197:17294   */\n      tag_238\n      jump\t// in\n    tag_423:\n        /* \"#utility.yul\":17315:17354   */\n      tag_424\n        /* \"#utility.yul\":17345:17353   */\n      dup7\n        /* \"#utility.yul\":17334:17343   */\n      dup4\n        /* \"#utility.yul\":17315:17354   */\n      tag_238\n      jump\t// in\n    tag_424:\n        /* \"#utility.yul\":17303:17354   */\n      swap6\n      pop\n        /* \"#utility.yul\":17387:17391   */\n      dup1\n        /* \"#utility.yul\":17383:17392   */\n      not\n        /* \"#utility.yul\":17376:17381   */\n      dup5\n        /* \"#utility.yul\":17372:17393   */\n      and\n        /* \"#utility.yul\":17363:17393   */\n      swap4\n      pop\n        /* \"#utility.yul\":17436:17440   */\n      dup1\n        /* \"#utility.yul\":17426:17434   */\n      dup7\n        /* \"#utility.yul\":17422:17441   */\n      and\n        /* \"#utility.yul\":17415:17420   */\n      dup5\n        /* \"#utility.yul\":17412:17442   */\n      or\n        /* \"#utility.yul\":17402:17442   */\n      swap3\n      pop\n        /* \"#utility.yul\":17131:17448   */\n      pop\n      pop\n        /* \"#utility.yul\":17055:17448   */\n      swap4\n      swap3\n      pop\n      pop\n      pop\n      jump\t// out\n        /* \"#utility.yul\":17454:17514   */\n    tag_240:\n        /* \"#utility.yul\":17482:17485   */\n      0x00\n        /* \"#utility.yul\":17503:17508   */\n      dup2\n        /* \"#utility.yul\":17496:17508   */\n      swap1\n      pop\n        /* \"#utility.yul\":17454:17514   */\n      swap2\n      swap1\n      pop\n      jump\t// out\n        /* \"#utility.yul\":17520:17662   */\n    tag_241:\n        /* \"#utility.yul\":17570:17579   */\n      0x00\n        /* \"#utility.yul\":17603:17656   */\n      tag_427\n        /* \"#utility.yul\":17621:17655   */\n      tag_428\n        /* \"#utility.yul\":17630:17654   */\n      tag_429\n        /* \"#utility.yul\":17648:17653   */\n      dup5\n        /* \"#utility.yul\":17630:17654   */\n      tag_188\n      jump\t// in\n    tag_429:\n        /* \"#utility.yul\":17621:17655   */\n      tag_240\n      jump\t// in\n    tag_428:\n        /* \"#utility.yul\":17603:17656   */\n      tag_188\n      jump\t// in\n    tag_427:\n        /* \"#utility.yul\":17590:17656   */\n      swap1\n      pop\n        /* \"#utility.yul\":17520:17662   */\n      swap2\n      swap1\n      pop\n      jump\t// out\n        /* \"#utility.yul\":17668:17743   */\n    tag_242:\n        /* \"#utility.yul\":17711:17714   */\n      0x00\n        /* \"#utility.yul\":17732:17737   */\n      dup2\n        /* \"#utility.yul\":17725:17737   */\n      swap1\n      pop\n        /* \"#utility.yul\":17668:17743   */\n      swap2\n      swap1\n      pop\n      jump\t// out\n        /* \"#utility.yul\":17749:18018   */\n    tag_243:\n        /* \"#utility.yul\":17859:17898   */\n      tag_432\n        /* \"#utility.yul\":17890:17897   */\n      dup4\n        /* \"#utility.yul\":17859:17898   */\n      tag_241\n      jump\t// in\n    tag_432:\n        /* \"#utility.yul\":17920:18011   */\n      tag_433\n        /* \"#utility.yul\":17969:18010   */\n      tag_434\n        /* \"#utility.yul\":17993:18009   */\n      dup3\n        /* \"#utility.yul\":17969:18010   */\n      tag_242\n      jump\t// in\n    tag_434:\n        /* \"#utility.yul\":17961:17967   */\n      dup5\n        /* \"#utility.yul\":17954:17958   */\n      dup5\n        /* \"#utility.yul\":17948:17959   */\n      sload\n        /* \"#utility.yul\":17920:18011   */\n      tag_239\n      jump\t// in\n    tag_433:\n        /* \"#utility.yul\":17914:17918   */\n      dup3\n        /* \"#utility.yul\":17907:18012   */\n      sstore\n        /* \"#utility.yul\":17825:18018   */\n      pop\n        /* \"#utility.yul\":17749:18018   */\n      pop\n      pop\n      pop\n      jump\t// out\n        /* \"#utility.yul\":18024:18097   */\n    tag_244:\n        /* \"#utility.yul\":18069:18072   */\n      0x00\n        /* \"#utility.yul\":18024:18097   */\n      swap1\n      jump\t// out\n        /* \"#utility.yul\":18103:18292   */\n    tag_245:\n        /* \"#utility.yul\":18180:18212   */\n      tag_437\n      tag_244\n      jump\t// in\n    tag_437:\n        /* \"#utility.yul\":18221:18286   */\n      tag_438\n        /* \"#utility.yul\":18279:18285   */\n      dup2\n        /* \"#utility.yul\":18271:18277   */\n      dup5\n        /* \"#utility.yul\":18265:18269   */\n      dup5\n        /* \"#utility.yul\":18221:18286   */\n      tag_243\n      jump\t// in\n    tag_438:\n        /* \"#utility.yul\":18156:18292   */\n      pop\n        /* \"#utility.yul\":18103:18292   */\n      pop\n      pop\n      jump\t// out\n        /* \"#utility.yul\":18298:18484   */\n    tag_246:\n        /* \"#utility.yul\":18358:18478   */\n    tag_440:\n        /* \"#utility.yul\":18375:18378   */\n      dup2\n        /* \"#utility.yul\":18368:18373   */\n      dup2\n        /* \"#utility.yul\":18365:18379   */\n      lt\n        /* \"#utility.yul\":18358:18478   */\n      iszero\n      tag_442\n      jumpi\n        /* \"#utility.yul\":18429:18468   */\n      tag_443\n        /* \"#utility.yul\":18466:18467   */\n      0x00\n        /* \"#utility.yul\":18459:18464   */\n      dup3\n        /* \"#utility.yul\":18429:18468   */\n      tag_245\n      jump\t// in\n    tag_443:\n        /* \"#utility.yul\":18402:18403   */\n      0x01\n        /* \"#utility.yul\":18395:18400   */\n      dup2\n        /* \"#utility.yul\":18391:18404   */\n      add\n        /* \"#utility.yul\":18382:18404   */\n      swap1\n      pop\n        /* \"#utility.yul\":18358:18478   */\n      jump(tag_440)\n    tag_442:\n        /* \"#utility.yul\":18298:18484   */\n      pop\n      pop\n      jump\t// out\n        /* \"#utility.yul\":18490:19031   */\n    tag_247:\n        /* \"#utility.yul\":18590:18592   */\n      0x1f\n        /* \"#utility.yul\":18585:18588   */\n      dup3\n        /* \"#utility.yul\":18582:18593   */\n      gt\n        /* \"#utility.yul\":18579:19024   */\n      iszero\n      tag_445\n      jumpi\n        /* \"#utility.yul\":18624:18661   */\n      tag_446\n        /* \"#utility.yul\":18655:18660   */\n      dup2\n        /* \"#utility.yul\":18624:18661   */\n      tag_236\n      jump\t// in\n    tag_446:\n        /* \"#utility.yul\":18707:18736   */\n      tag_447\n        /* \"#utility.yul\":18725:18735   */\n      dup5\n        /* \"#utility.yul\":18707:18736   */\n      tag_237\n      jump\t// in\n    tag_447:\n        /* \"#utility.yul\":18697:18705   */\n      dup2\n        /* \"#utility.yul\":18693:18737   */\n      add\n        /* \"#utility.yul\":18890:18892   */\n      0x20\n        /* \"#utility.yul\":18878:18888   */\n      dup6\n        /* \"#utility.yul\":18875:18893   */\n      lt\n        /* \"#utility.yul\":18872:18921   */\n      iszero\n      tag_448\n      jumpi\n        /* \"#utility.yul\":18911:18919   */\n      dup2\n        /* \"#utility.yul\":18896:18919   */\n      swap1\n      pop\n        /* \"#utility.yul\":18872:18921   */\n    tag_448:\n        /* \"#utility.yul\":18934:19014   */\n      tag_449\n        /* \"#utility.yul\":18990:19012   */\n      tag_450\n        /* \"#utility.yul\":19008:19011   */\n      dup6\n        /* \"#utility.yul\":18990:19012   */\n      tag_237\n      jump\t// in\n    tag_450:\n        /* \"#utility.yul\":18980:18988   */\n      dup4\n        /* \"#utility.yul\":18976:19013   */\n      add\n        /* \"#utility.yul\":18963:18974   */\n      dup3\n        /* \"#utility.yul\":18934:19014   */\n      tag_246\n      jump\t// in\n    tag_449:\n        /* \"#utility.yul\":18594:19024   */\n      pop\n      pop\n        /* \"#utility.yul\":18579:19024   */\n    tag_445:\n        /* \"#utility.yul\":18490:19031   */\n      pop\n      pop\n      pop\n      jump\t// out\n        /* \"#utility.yul\":19037:19154   */\n    tag_248:\n        /* \"#utility.yul\":19091:19099   */\n      0x00\n        /* \"#utility.yul\":19141:19146   */\n      dup3\n        /* \"#utility.yul\":19135:19139   */\n      dup3\n        /* \"#utility.yul\":19131:19147   */\n      shr\n        /* \"#utility.yul\":19110:19147   */\n      swap1\n      pop\n        /* \"#utility.yul\":19037:19154   */\n      swap3\n      swap2\n      pop\n      pop\n      jump\t// out\n        /* \"#utility.yul\":19160:19329   */\n    tag_249:\n        /* \"#utility.yul\":19204:19210   */\n      0x00\n        /* \"#utility.yul\":19237:19288   */\n      tag_453\n        /* \"#utility.yul\":19285:19286   */\n      0x00\n        /* \"#utility.yul\":19281:19287   */\n      not\n        /* \"#utility.yul\":19273:19278   */\n      dup5\n        /* \"#utility.yul\":19270:19271   */\n      0x08\n        /* \"#utility.yul\":19266:19279   */\n      mul\n        /* \"#utility.yul\":19237:19288   */\n      tag_248\n      jump\t// in\n    tag_453:\n        /* \"#utility.yul\":19233:19289   */\n      not\n        /* \"#utility.yul\":19318:19322   */\n      dup1\n        /* \"#utility.yul\":19312:19316   */\n      dup4\n        /* \"#utility.yul\":19308:19323   */\n      and\n        /* \"#utility.yul\":19298:19323   */\n      swap2\n      pop\n        /* \"#utility.yul\":19211:19329   */\n      pop\n        /* \"#utility.yul\":19160:19329   */\n      swap3\n      swap2\n      pop\n      pop\n      jump\t// out\n        /* \"#utility.yul\":19334:19629   */\n    tag_250:\n        /* \"#utility.yul\":19410:19414   */\n      0x00\n        /* \"#utility.yul\":19556:19585   */\n      tag_455\n        /* \"#utility.yul\":19581:19584   */\n      dup4\n        /* \"#utility.yul\":19575:19579   */\n      dup4\n        /* \"#utility.yul\":19556:19585   */\n      tag_249\n      jump\t// in\n    tag_455:\n        /* \"#utility.yul\":19548:19585   */\n      swap2\n      pop\n        /* \"#utility.yul\":19618:19621   */\n      dup3\n        /* \"#utility.yul\":19615:19616   */\n      0x02\n        /* \"#utility.yul\":19611:19622   */\n      mul\n        /* \"#utility.yul\":19605:19609   */\n      dup3\n        /* \"#utility.yul\":19602:19623   */\n      or\n        /* \"#utility.yul\":19594:19623   */\n      swap1\n      pop\n        /* \"#utility.yul\":19334:19629   */\n      swap3\n      swap2\n      pop\n      pop\n      jump\t// out\n        /* \"#utility.yul\":19634:21024   */\n    tag_158:\n        /* \"#utility.yul\":19749:19785   */\n      tag_457\n        /* \"#utility.yul\":19781:19784   */\n      dup3\n        /* \"#utility.yul\":19749:19785   */\n      tag_202\n      jump\t// in\n    tag_457:\n        /* \"#utility.yul\":19850:19868   */\n      0xffffffffffffffff\n        /* \"#utility.yul\":19842:19848   */\n      dup2\n        /* \"#utility.yul\":19839:19869   */\n      gt\n        /* \"#utility.yul\":19836:19892   */\n      iszero\n      tag_458\n      jumpi\n        /* \"#utility.yul\":19872:19890   */\n      tag_459\n      tag_216\n      jump\t// in\n    tag_459:\n        /* \"#utility.yul\":19836:19892   */\n    tag_458:\n        /* \"#utility.yul\":19916:19954   */\n      tag_460\n        /* \"#utility.yul\":19948:19952   */\n      dup3\n        /* \"#utility.yul\":19942:19953   */\n      sload\n        /* \"#utility.yul\":19916:19954   */\n      tag_91\n      jump\t// in\n    tag_460:\n        /* \"#utility.yul\":20001:20067   */\n      tag_461\n        /* \"#utility.yul\":20060:20066   */\n      dup3\n        /* \"#utility.yul\":20052:20058   */\n      dup3\n        /* \"#utility.yul\":20046:20050   */\n      dup6\n        /* \"#utility.yul\":20001:20067   */\n      tag_247\n      jump\t// in\n    tag_461:\n        /* \"#utility.yul\":20094:20095   */\n      0x00\n        /* \"#utility.yul\":20118:20122   */\n      0x20\n        /* \"#utility.yul\":20105:20122   */\n      swap1\n      pop\n        /* \"#utility.yul\":20150:20152   */\n      0x1f\n        /* \"#utility.yul\":20142:20148   */\n      dup4\n        /* \"#utility.yul\":20139:20153   */\n      gt\n        /* \"#utility.yul\":20167:20168   */\n      0x01\n        /* \"#utility.yul\":20162:20779   */\n      dup2\n      eq\n      tag_463\n      jumpi\n        /* \"#utility.yul\":20823:20824   */\n      0x00\n        /* \"#utility.yul\":20840:20846   */\n      dup5\n        /* \"#utility.yul\":20837:20914   */\n      iszero\n      tag_464\n      jumpi\n        /* \"#utility.yul\":20889:20898   */\n      dup3\n        /* \"#utility.yul\":20884:20887   */\n      dup8\n        /* \"#utility.yul\":20880:20899   */\n      add\n        /* \"#utility.yul\":20874:20900   */\n      mload\n        /* \"#utility.yul\":20865:20900   */\n      swap1\n      pop\n        /* \"#utility.yul\":20837:20914   */\n    tag_464:\n        /* \"#utility.yul\":20940:21007   */\n      tag_465\n        /* \"#utility.yul\":21000:21006   */\n      dup6\n        /* \"#utility.yul\":20993:20998   */\n      dup3\n        /* \"#utility.yul\":20940:21007   */\n      tag_250\n      jump\t// in\n    tag_465:\n        /* \"#utility.yul\":20934:20938   */\n      dup7\n        /* \"#utility.yul\":20927:21008   */\n      sstore\n        /* \"#utility.yul\":20796:21018   */\n      pop\n        /* \"#utility.yul\":20132:21018   */\n      jump(tag_462)\n        /* \"#utility.yul\":20162:20779   */\n    tag_463:\n        /* \"#utility.yul\":20214:20218   */\n      0x1f\n        /* \"#utility.yul\":20210:20219   */\n      not\n        /* \"#utility.yul\":20202:20208   */\n      dup5\n        /* \"#utility.yul\":20198:20220   */\n      and\n        /* \"#utility.yul\":20248:20284   */\n      tag_466\n        /* \"#utility.yul\":20279:20283   */\n      dup7\n        /* \"#utility.yul\":20248:20284   */\n      tag_236\n      jump\t// in\n    tag_466:\n        /* \"#utility.yul\":20306:20307   */\n      0x00\n        /* \"#utility.yul\":20320:20528   */\n    tag_467:\n        /* \"#utility.yul\":20334:20341   */\n      dup3\n        /* \"#utility.yul\":20331:20332   */\n      dup2\n        /* \"#utility.yul\":20328:20342   */\n      lt\n        /* \"#utility.yul\":20320:20528   */\n      iszero\n      tag_469\n      jumpi\n        /* \"#utility.yul\":20413:20422   */\n      dup5\n        /* \"#utility.yul\":20408:20411   */\n      dup10\n        /* \"#utility.yul\":20404:20423   */\n      add\n        /* \"#utility.yul\":20398:20424   */\n      mload\n        /* \"#utility.yul\":20390:20396   */\n      dup3\n        /* \"#utility.yul\":20383:20425   */\n      sstore\n        /* \"#utility.yul\":20464:20465   */\n      0x01\n        /* \"#utility.yul\":20456:20462   */\n      dup3\n        /* \"#utility.yul\":20452:20466   */\n      add\n        /* \"#utility.yul\":20442:20466   */\n      swap2\n      pop\n        /* \"#utility.yul\":20511:20513   */\n      0x20\n        /* \"#utility.yul\":20500:20509   */\n      dup6\n        /* \"#utility.yul\":20496:20514   */\n      add\n        /* \"#utility.yul\":20483:20514   */\n      swap5\n      pop\n        /* \"#utility.yul\":20357:20361   */\n      0x20\n        /* \"#utility.yul\":20354:20355   */\n      dup2\n        /* \"#utility.yul\":20350:20362   */\n      add\n        /* \"#utility.yul\":20345:20362   */\n      swap1\n      pop\n        /* \"#utility.yul\":20320:20528   */\n      jump(tag_467)\n    tag_469:\n        /* \"#utility.yul\":20556:20562   */\n      dup7\n        /* \"#utility.yul\":20547:20554   */\n      dup4\n        /* \"#utility.yul\":20544:20563   */\n      lt\n        /* \"#utility.yul\":20541:20720   */\n      iszero\n      tag_470\n      jumpi\n        /* \"#utility.yul\":20614:20623   */\n      dup5\n        /* \"#utility.yul\":20609:20612   */\n      dup10\n        /* \"#utility.yul\":20605:20624   */\n      add\n        /* \"#utility.yul\":20599:20625   */\n      mload\n        /* \"#utility.yul\":20657:20705   */\n      tag_471\n        /* \"#utility.yul\":20699:20703   */\n      0x1f\n        /* \"#utility.yul\":20691:20697   */\n      dup10\n        /* \"#utility.yul\":20687:20704   */\n      and\n        /* \"#utility.yul\":20676:20685   */\n      dup3\n        /* \"#utility.yul\":20657:20705   */\n      tag_249\n      jump\t// in\n    tag_471:\n        /* \"#utility.yul\":20649:20655   */\n      dup4\n        /* \"#utility.yul\":20642:20706   */\n      sstore\n        /* \"#utility.yul\":20564:20720   */\n      pop\n        /* \"#utility.yul\":20541:20720   */\n    tag_470:\n        /* \"#utility.yul\":20766:20767   */\n      0x01\n        /* \"#utility.yul\":20762:20763   */\n      0x02\n        /* \"#utility.yul\":20754:20760   */\n      dup9\n        /* \"#utility.yul\":20750:20764   */\n      mul\n        /* \"#utility.yul\":20746:20768   */\n      add\n        /* \"#utility.yul\":20740:20744   */\n      dup9\n        /* \"#utility.yul\":20733:20769   */\n      sstore\n        /* \"#utility.yul\":20169:20779   */\n      pop\n      pop\n      pop\n        /* \"#utility.yul\":20132:21018   */\n    tag_462:\n      pop\n        /* \"#utility.yul\":19724:21024   */\n      pop\n      pop\n      pop\n        /* \"#utility.yul\":19634:21024   */\n      pop\n      pop\n      jump\t// out\n        /* \"#utility.yul\":21030:21449   */\n    tag_160:\n        /* \"#utility.yul\":21169:21173   */\n      0x00\n        /* \"#utility.yul\":21207:21209   */\n      0x40\n        /* \"#utility.yul\":21196:21205   */\n      dup3\n        /* \"#utility.yul\":21192:21210   */\n      add\n        /* \"#utility.yul\":21184:21210   */\n      swap1\n      pop\n        /* \"#utility.yul\":21220:21291   */\n      tag_473\n        /* \"#utility.yul\":21288:21289   */\n      0x00\n        /* \"#utility.yul\":21277:21286   */\n      dup4\n        /* \"#utility.yul\":21273:21290   */\n      add\n        /* \"#utility.yul\":21264:21270   */\n      dup6\n        /* \"#utility.yul\":21220:21291   */\n      tag_189\n      jump\t// in\n    tag_473:\n        /* \"#utility.yul\":21338:21347   */\n      dup2\n        /* \"#utility.yul\":21332:21336   */\n      dup2\n        /* \"#utility.yul\":21328:21348   */\n      sub\n        /* \"#utility.yul\":21323:21325   */\n      0x20\n        /* \"#utility.yul\":21312:21321   */\n      dup4\n        /* \"#utility.yul\":21308:21326   */\n      add\n        /* \"#utility.yul\":21301:21349   */\n      mstore\n        /* \"#utility.yul\":21366:21442   */\n      tag_474\n        /* \"#utility.yul\":21437:21441   */\n      dup2\n        /* \"#utility.yul\":21428:21434   */\n      dup5\n        /* \"#utility.yul\":21366:21442   */\n      tag_206\n      jump\t// in\n    tag_474:\n        /* \"#utility.yul\":21358:21442   */\n      swap1\n      pop\n        /* \"#utility.yul\":21030:21449   */\n      swap4\n      swap3\n      pop\n      pop\n      pop\n      jump\t// out\n        /* \"#utility.yul\":21455:21622   */\n    tag_251:\n        /* \"#utility.yul\":21595:21614   */\n      0x63616e6e6f742065786563757465206974000000000000000000000000000000\n        /* \"#utility.yul\":21591:21592   */\n      0x00\n        /* \"#utility.yul\":21583:21589   */\n      dup3\n        /* \"#utility.yul\":21579:21593   */\n      add\n        /* \"#utility.yul\":21572:21615   */\n      mstore\n        /* \"#utility.yul\":21455:21622   */\n      pop\n      jump\t// out\n        /* \"#utility.yul\":21628:21994   */\n    tag_252:\n        /* \"#utility.yul\":21770:21773   */\n      0x00\n        /* \"#utility.yul\":21791:21858   */\n      tag_477\n        /* \"#utility.yul\":21855:21857   */\n      0x11\n        /* \"#utility.yul\":21850:21853   */\n      dup4\n        /* \"#utility.yul\":21791:21858   */\n      tag_224\n      jump\t// in\n    tag_477:\n        /* \"#utility.yul\":21784:21858   */\n      swap2\n      pop\n        /* \"#utility.yul\":21867:21960   */\n      tag_478\n        /* \"#utility.yul\":21956:21959   */\n      dup3\n        /* \"#utility.yul\":21867:21960   */\n      tag_251\n      jump\t// in\n    tag_478:\n        /* \"#utility.yul\":21985:21987   */\n      0x20\n        /* \"#utility.yul\":21980:21983   */\n      dup3\n        /* \"#utility.yul\":21976:21988   */\n      add\n        /* \"#utility.yul\":21969:21988   */\n      swap1\n      pop\n        /* \"#utility.yul\":21628:21994   */\n      swap2\n      swap1\n      pop\n      jump\t// out\n        /* \"#utility.yul\":22000:22419   */\n    tag_179:\n        /* \"#utility.yul\":22166:22170   */\n      0x00\n        /* \"#utility.yul\":22204:22206   */\n      0x20\n        /* \"#utility.yul\":22193:22202   */\n      dup3\n        /* \"#utility.yul\":22189:22207   */\n      add\n        /* \"#utility.yul\":22181:22207   */\n      swap1\n      pop\n        /* \"#utility.yul\":22253:22262   */\n      dup2\n        /* \"#utility.yul\":22247:22251   */\n      dup2\n        /* \"#utility.yul\":22243:22263   */\n      sub\n        /* \"#utility.yul\":22239:22240   */\n      0x00\n        /* \"#utility.yul\":22228:22237   */\n      dup4\n        /* \"#utility.yul\":22224:22241   */\n      add\n        /* \"#utility.yul\":22217:22264   */\n      mstore\n        /* \"#utility.yul\":22281:22412   */\n      tag_480\n        /* \"#utility.yul\":22407:22411   */\n      dup2\n        /* \"#utility.yul\":22281:22412   */\n      tag_252\n      jump\t// in\n    tag_480:\n        /* \"#utility.yul\":22273:22412   */\n      swap1\n      pop\n        /* \"#utility.yul\":22000:22419   */\n      swap2\n      swap1\n      pop\n      jump\t// out\n        /* \"#utility.yul\":22425:22572   */\n    tag_253:\n        /* \"#utility.yul\":22526:22537   */\n      0x00\n        /* \"#utility.yul\":22563:22566   */\n      dup2\n        /* \"#utility.yul\":22548:22566   */\n      swap1\n      pop\n        /* \"#utility.yul\":22425:22572   */\n      swap3\n      swap2\n      pop\n      pop\n      jump\t// out\n        /* \"#utility.yul\":22600:23470   */\n    tag_254:\n        /* \"#utility.yul\":22701:22704   */\n      0x00\n        /* \"#utility.yul\":22738:22743   */\n      dup2\n        /* \"#utility.yul\":22732:22744   */\n      sload\n        /* \"#utility.yul\":22767:22803   */\n      tag_483\n        /* \"#utility.yul\":22793:22802   */\n      dup2\n        /* \"#utility.yul\":22767:22803   */\n      tag_91\n      jump\t// in\n    tag_483:\n        /* \"#utility.yul\":22819:22907   */\n      tag_484\n        /* \"#utility.yul\":22900:22906   */\n      dup2\n        /* \"#utility.yul\":22895:22898   */\n      dup7\n        /* \"#utility.yul\":22819:22907   */\n      tag_253\n      jump\t// in\n    tag_484:\n        /* \"#utility.yul\":22812:22907   */\n      swap5\n      pop\n        /* \"#utility.yul\":22938:22939   */\n      0x01\n        /* \"#utility.yul\":22927:22936   */\n      dup3\n        /* \"#utility.yul\":22923:22940   */\n      and\n        /* \"#utility.yul\":22954:22955   */\n      0x00\n        /* \"#utility.yul\":22949:23115   */\n      dup2\n      eq\n      tag_486\n      jumpi\n        /* \"#utility.yul\":23129:23130   */\n      0x01\n        /* \"#utility.yul\":23124:23464   */\n      dup2\n      eq\n      tag_487\n      jumpi\n        /* \"#utility.yul\":22916:23464   */\n      jump(tag_485)\n        /* \"#utility.yul\":22949:23115   */\n    tag_486:\n        /* \"#utility.yul\":23033:23037   */\n      0xff\n        /* \"#utility.yul\":23029:23038   */\n      not\n        /* \"#utility.yul\":23018:23027   */\n      dup4\n        /* \"#utility.yul\":23014:23039   */\n      and\n        /* \"#utility.yul\":23009:23012   */\n      dup7\n        /* \"#utility.yul\":23002:23040   */\n      mstore\n        /* \"#utility.yul\":23095:23101   */\n      dup2\n        /* \"#utility.yul\":23088:23102   */\n      iszero\n        /* \"#utility.yul\":23081:23103   */\n      iszero\n        /* \"#utility.yul\":23073:23079   */\n      dup3\n        /* \"#utility.yul\":23069:23104   */\n      mul\n        /* \"#utility.yul\":23064:23067   */\n      dup7\n        /* \"#utility.yul\":23060:23105   */\n      add\n        /* \"#utility.yul\":23053:23105   */\n      swap4\n      pop\n        /* \"#utility.yul\":22949:23115   */\n      jump(tag_485)\n        /* \"#utility.yul\":23124:23464   */\n    tag_487:\n        /* \"#utility.yul\":23191:23228   */\n      tag_488\n        /* \"#utility.yul\":23222:23227   */\n      dup6\n        /* \"#utility.yul\":23191:23228   */\n      tag_236\n      jump\t// in\n    tag_488:\n        /* \"#utility.yul\":23250:23251   */\n      0x00\n        /* \"#utility.yul\":23264:23418   */\n    tag_489:\n        /* \"#utility.yul\":23278:23284   */\n      dup4\n        /* \"#utility.yul\":23275:23276   */\n      dup2\n        /* \"#utility.yul\":23272:23285   */\n      lt\n        /* \"#utility.yul\":23264:23418   */\n      iszero\n      tag_491\n      jumpi\n        /* \"#utility.yul\":23352:23359   */\n      dup2\n        /* \"#utility.yul\":23346:23360   */\n      sload\n        /* \"#utility.yul\":23342:23343   */\n      dup2\n        /* \"#utility.yul\":23337:23340   */\n      dup10\n        /* \"#utility.yul\":23333:23344   */\n      add\n        /* \"#utility.yul\":23326:23361   */\n      mstore\n        /* \"#utility.yul\":23402:23403   */\n      0x01\n        /* \"#utility.yul\":23393:23400   */\n      dup3\n        /* \"#utility.yul\":23389:23404   */\n      add\n        /* \"#utility.yul\":23378:23404   */\n      swap2\n      pop\n        /* \"#utility.yul\":23300:23304   */\n      0x20\n        /* \"#utility.yul\":23297:23298   */\n      dup2\n        /* \"#utility.yul\":23293:23305   */\n      add\n        /* \"#utility.yul\":23288:23305   */\n      swap1\n      pop\n        /* \"#utility.yul\":23264:23418   */\n      jump(tag_489)\n    tag_491:\n        /* \"#utility.yul\":23447:23453   */\n      dup4\n        /* \"#utility.yul\":23442:23445   */\n      dup9\n        /* \"#utility.yul\":23438:23454   */\n      add\n        /* \"#utility.yul\":23431:23454   */\n      swap6\n      pop\n        /* \"#utility.yul\":23131:23464   */\n      pop\n      pop\n        /* \"#utility.yul\":22916:23464   */\n    tag_485:\n      pop\n        /* \"#utility.yul\":22705:23470   */\n      pop\n      pop\n        /* \"#utility.yul\":22600:23470   */\n      swap3\n      swap2\n      pop\n      pop\n      jump\t// out\n        /* \"#utility.yul\":23476:23741   */\n    tag_181:\n        /* \"#utility.yul\":23603:23606   */\n      0x00\n        /* \"#utility.yul\":23625:23715   */\n      tag_493\n        /* \"#utility.yul\":23711:23714   */\n      dup3\n        /* \"#utility.yul\":23702:23708   */\n      dup5\n        /* \"#utility.yul\":23625:23715   */\n      tag_254\n      jump\t// in\n    tag_493:\n        /* \"#utility.yul\":23618:23715   */\n      swap2\n      pop\n        /* \"#utility.yul\":23732:23735   */\n      dup2\n        /* \"#utility.yul\":23725:23735   */\n      swap1\n      pop\n        /* \"#utility.yul\":23476:23741   */\n      swap3\n      swap2\n      pop\n      pop\n      jump\t// out\n        /* \"#utility.yul\":23747:23906   */\n    tag_255:\n        /* \"#utility.yul\":23887:23898   */\n      0x7478206661696c65640000000000000000000000000000000000000000000000\n        /* \"#utility.yul\":23883:23884   */\n      0x00\n        /* \"#utility.yul\":23875:23881   */\n      dup3\n        /* \"#utility.yul\":23871:23885   */\n      add\n        /* \"#utility.yul\":23864:23899   */\n      mstore\n        /* \"#utility.yul\":23747:23906   */\n      pop\n      jump\t// out\n        /* \"#utility.yul\":23912:24277   */\n    tag_256:\n        /* \"#utility.yul\":24054:24057   */\n      0x00\n        /* \"#utility.yul\":24075:24141   */\n      tag_496\n        /* \"#utility.yul\":24139:24140   */\n      0x09\n        /* \"#utility.yul\":24134:24137   */\n      dup4\n        /* \"#utility.yul\":24075:24141   */\n      tag_224\n      jump\t// in\n    tag_496:\n        /* \"#utility.yul\":24068:24141   */\n      swap2\n      pop\n        /* \"#utility.yul\":24150:24243   */\n      tag_497\n        /* \"#utility.yul\":24239:24242   */\n      dup3\n        /* \"#utility.yul\":24150:24243   */\n      tag_255\n      jump\t// in\n    tag_497:\n        /* \"#utility.yul\":24268:24270   */\n      0x20\n        /* \"#utility.yul\":24263:24266   */\n      dup3\n        /* \"#utility.yul\":24259:24271   */\n      add\n        /* \"#utility.yul\":24252:24271   */\n      swap1\n      pop\n        /* \"#utility.yul\":23912:24277   */\n      swap2\n      swap1\n      pop\n      jump\t// out\n        /* \"#utility.yul\":24283:24702   */\n    tag_187:\n        /* \"#utility.yul\":24449:24453   */\n      0x00\n        /* \"#utility.yul\":24487:24489   */\n      0x20\n        /* \"#utility.yul\":24476:24485   */\n      dup3\n        /* \"#utility.yul\":24472:24490   */\n      add\n        /* \"#utility.yul\":24464:24490   */\n      swap1\n      pop\n        /* \"#utility.yul\":24536:24545   */\n      dup2\n        /* \"#utility.yul\":24530:24534   */\n      dup2\n        /* \"#utility.yul\":24526:24546   */\n      sub\n        /* \"#utility.yul\":24522:24523   */\n      0x00\n        /* \"#utility.yul\":24511:24520   */\n      dup4\n        /* \"#utility.yul\":24507:24524   */\n      add\n        /* \"#utility.yul\":24500:24547   */\n      mstore\n        /* \"#utility.yul\":24564:24695   */\n      tag_499\n        /* \"#utility.yul\":24690:24694   */\n      dup2\n        /* \"#utility.yul\":24564:24695   */\n      tag_256\n      jump\t// in\n    tag_499:\n        /* \"#utility.yul\":24556:24695   */\n      swap1\n      pop\n        /* \"#utility.yul\":24283:24702   */\n      swap2\n      swap1\n      pop\n      jump\t// out\n\n    auxdata: 0xa264697066735822122010faca653e347e2d1c977785efef69ec9d04f16ec2bf0aa7981f7aad257d20d864736f6c634300081a0033\n}\n",
				"bytecode": {
					"linkReferences": {},
					"object": "608060405234801561000f575f80fd5b5060405161246f38038061246f833981810160405281019061003191906104a2565b5f825111610074576040517f08c379a000000000000000000000000000000000000000000000000000000000815260040161006b90610556565b60405180910390fd5b5f81118015610084575081518111155b6100c3576040517f08c379a00000000000000000000000000000000000000000000000000000000081526004016100ba906105e4565b60405180910390fd5b5f5b82518110156102a5575f8382815181106100e2576100e1610602565b5b602002602001015190505f73ffffffffffffffffffffffffffffffffffffffff168173ffffffffffffffffffffffffffffffffffffffff160361015a576040517f08c379a000000000000000000000000000000000000000000000000000000000815260040161015190610679565b60405180910390fd5b60015f8273ffffffffffffffffffffffffffffffffffffffff1673ffffffffffffffffffffffffffffffffffffffff1681526020019081526020015f205f9054906101000a900460ff16156101e4576040517f08c379a00000000000000000000000000000000000000000000000000000000081526004016101db906106e1565b60405180910390fd5b6001805f8373ffffffffffffffffffffffffffffffffffffffff1673ffffffffffffffffffffffffffffffffffffffff1681526020019081526020015f205f6101000a81548160ff0219169083151502179055505f81908060018154018082558091505060019003905f5260205f20015f9091909190916101000a81548173ffffffffffffffffffffffffffffffffffffffff021916908373ffffffffffffffffffffffffffffffffffffffff1602179055505080806001019150506100c5565b508060028190555050506106ff565b5f604051905090565b5f80fd5b5f80fd5b5f80fd5b5f601f19601f8301169050919050565b7f4e487b71000000000000000000000000000000000000000000000000000000005f52604160045260245ffd5b61030f826102c9565b810181811067ffffffffffffffff8211171561032e5761032d6102d9565b5b80604052505050565b5f6103406102b4565b905061034c8282610306565b919050565b5f67ffffffffffffffff82111561036b5761036a6102d9565b5b602082029050602081019050919050565b5f80fd5b5f73ffffffffffffffffffffffffffffffffffffffff82169050919050565b5f6103a982610380565b9050919050565b6103b98161039f565b81146103c3575f80fd5b50565b5f815190506103d4816103b0565b92915050565b5f6103ec6103e784610351565b610337565b9050808382526020820190506020840283018581111561040f5761040e61037c565b5b835b81811015610438578061042488826103c6565b845260208401935050602081019050610411565b5050509392505050565b5f82601f830112610456576104556102c5565b5b81516104668482602086016103da565b91505092915050565b5f819050919050565b6104818161046f565b811461048b575f80fd5b50565b5f8151905061049c81610478565b92915050565b5f80604083850312156104b8576104b76102bd565b5b5f83015167ffffffffffffffff8111156104d5576104d46102c1565b5b6104e185828601610442565b92505060206104f28582860161048e565b9150509250929050565b5f82825260208201905092915050565b7f6f776e65727320726571756972656400000000000000000000000000000000005f82015250565b5f610540600f836104fc565b915061054b8261050c565b602082019050919050565b5f6020820190508181035f83015261056d81610534565b9050919050565b7f696e76616c6964206e756d626572206f6620726571756972656420636f6e66695f8201527f726d6174696f6e73000000000000000000000000000000000000000000000000602082015250565b5f6105ce6028836104fc565b91506105d982610574565b604082019050919050565b5f6020820190508181035f8301526105fb816105c2565b9050919050565b7f4e487b71000000000000000000000000000000000000000000000000000000005f52603260045260245ffd5b7f696e76616c6964206f776e6572000000000000000000000000000000000000005f82015250565b5f610663600d836104fc565b915061066e8261062f565b602082019050919050565b5f6020820190508181035f83015261069081610657565b9050919050565b7f6f776e6572206e6f7420756e69717565000000000000000000000000000000005f82015250565b5f6106cb6010836104fc565b91506106d682610697565b602082019050919050565b5f6020820190508181035f8301526106f8816106bf565b9050919050565b611d638061070c5f395ff3fe6080604052600436106100aa575f3560e01c80639ace38c2116100635780639ace38c21461024b578063a0e67e2b1461028b578063c01a8c84146102b5578063c6427474146102dd578063d0549b8514610305578063ee22610b1461032f57610101565b8063025e7c27146101055780632e7700f0146101415780632f54bf6e1461016b57806333ea3dc8146101a7578063735631ad146101e757806380f59a651461020f57610101565b36610101573373ffffffffffffffffffffffffffffffffffffffff167f90890809c654f11d6e72a28fa60149770a0d11ec6c92319d6ceb2bb0a4ea1a1534476040516100f79291906110f3565b60405180910390a2005b5f80fd5b348015610110575f80fd5b5061012b60048036038101906101269190611155565b610357565b60405161013891906111bf565b60405180910390f35b34801561014c575f80fd5b50610155610391565b60405161016291906111d8565b60405180910390f35b348015610176575f80fd5b50610191600480360381019061018c919061121b565b61039d565b60405161019e9190611260565b60405180910390f35b3480156101b2575f80fd5b506101cd60048036038101906101c89190611155565b6103ba565b6040516101de9594939291906112e9565b60405180910390f35b3480156101f2575f80fd5b5061020d60048036038101906102089190611155565b6104c3565b005b34801561021a575f80fd5b5061023560048036038101906102309190611341565b610788565b6040516102429190611260565b60405180910390f35b348015610256575f80fd5b50610271600480360381019061026c9190611155565b6107b2565b6040516102829594939291906112e9565b60405180910390f35b348015610296575f80fd5b5061029f6108a4565b6040516102ac9190611436565b60405180910390f35b3480156102c0575f80fd5b506102db60048036038101906102d69190611155565b61092e565b005b3480156102e8575f80fd5b5061030360048036038101906102fe9190611582565b610bf7565b005b348015610310575f80fd5b50610319610ded565b60405161032691906111d8565b60405180910390f35b34801561033a575f80fd5b5061035560048036038101906103509190611155565b610df3565b005b5f8181548110610365575f80fd5b905f5260205f20015f915054906101000a900473ffffffffffffffffffffffffffffffffffffffff1681565b5f600480549050905090565b6001602052805f5260405f205f915054906101000a900460ff1681565b5f8060605f805f600487815481106103d5576103d46115ee565b5b905f5260205f2090600502019050805f015f9054906101000a900473ffffffffffffffffffffffffffffffffffffffff16816001015482600201836003015f9054906101000a900460ff16846004015482805461043190611648565b80601f016020809104026020016040519081016040528092919081815260200182805461045d90611648565b80156104a85780601f1061047f576101008083540402835291602001916104a8565b820191905f5260205f20905b81548152906001019060200180831161048b57829003601f168201915b50505050509250955095509550955095505091939590929450565b60015f3373ffffffffffffffffffffffffffffffffffffffff1673ffffffffffffffffffffffffffffffffffffffff1681526020019081526020015f205f9054906101000a900460ff1661054c576040517f08c379a0000000000000000000000000000000000000000000000000000000008152600401610543906116d2565b60405180910390fd5b806004805490508110610594576040517f08c379a000000000000000000000000000000000000000000000000000000000815260040161058b9061173a565b60405180910390fd5b81600481815481106105a9576105a86115ee565b5b905f5260205f2090600502016003015f9054906101000a900460ff1615610605576040517f08c379a00000000000000000000000000000000000000000000000000000000081526004016105fc906117a2565b60405180910390fd5b5f6004848154811061061a576106196115ee565b5b905f5260205f209060050201905060035f8581526020019081526020015f205f3373ffffffffffffffffffffffffffffffffffffffff1673ffffffffffffffffffffffffffffffffffffffff1681526020019081526020015f205f9054906101000a900460ff166106c0576040517f08c379a00000000000000000000000000000000000000000000000000000000081526004016106b79061180a565b60405180910390fd5b6001816004015f8282546106d49190611855565b925050819055505f60035f8681526020019081526020015f205f3373ffffffffffffffffffffffffffffffffffffffff1673ffffffffffffffffffffffffffffffffffffffff1681526020019081526020015f205f6101000a81548160ff021916908315150217905550833373ffffffffffffffffffffffffffffffffffffffff167ff0dca620e2e81f7841d07bcc105e1704fb01475b278a9d4c236e1c62945edd5560405160405180910390a350505050565b6003602052815f5260405f20602052805f5260405f205f915091509054906101000a900460ff1681565b600481815481106107c1575f80fd5b905f5260205f2090600502015f91509050805f015f9054906101000a900473ffffffffffffffffffffffffffffffffffffffff169080600101549080600201805461080b90611648565b80601f016020809104026020016040519081016040528092919081815260200182805461083790611648565b80156108825780601f1061085957610100808354040283529160200191610882565b820191905f5260205f20905b81548152906001019060200180831161086557829003601f168201915b505050505090806003015f9054906101000a900460ff16908060040154905085565b60605f80548060200260200160405190810160405280929190818152602001828054801561092457602002820191905f5260205f20905b815f9054906101000a900473ffffffffffffffffffffffffffffffffffffffff1673ffffffffffffffffffffffffffffffffffffffff16815260200190600101908083116108db575b5050505050905090565b60015f3373ffffffffffffffffffffffffffffffffffffffff1673ffffffffffffffffffffffffffffffffffffffff1681526020019081526020015f205f9054906101000a900460ff166109b7576040517f08c379a00000000000000000000000000000000000000000000000000000000081526004016109ae906116d2565b60405180910390fd5b8060048054905081106109ff576040517f08c379a00000000000000000000000000000000000000000000000000000000081526004016109f69061173a565b60405180910390fd5b8160048181548110610a1457610a136115ee565b5b905f5260205f2090600502016003015f9054906101000a900460ff1615610a70576040517f08c379a0000000000000000000000000000000000000000000000000000000008152600401610a67906117a2565b60405180910390fd5b8260035f8281526020019081526020015f205f3373ffffffffffffffffffffffffffffffffffffffff1673ffffffffffffffffffffffffffffffffffffffff1681526020019081526020015f205f9054906101000a900460ff1615610b0a576040517f08c379a0000000000000000000000000000000000000000000000000000000008152600401610b01906118d2565b60405180910390fd5b5f60048581548110610b1f57610b1e6115ee565b5b905f5260205f20906005020190506001816004015f828254610b4191906118f0565b92505081905550600160035f8781526020019081526020015f205f3373ffffffffffffffffffffffffffffffffffffffff1673ffffffffffffffffffffffffffffffffffffffff1681526020019081526020015f205f6101000a81548160ff021916908315150217905550843373ffffffffffffffffffffffffffffffffffffffff167f5cbe105e36805f7820e291f799d5794ff948af2a5f664e580382defb6339004160405160405180910390a35050505050565b60015f3373ffffffffffffffffffffffffffffffffffffffff1673ffffffffffffffffffffffffffffffffffffffff1681526020019081526020015f205f9054906101000a900460ff16610c80576040517f08c379a0000000000000000000000000000000000000000000000000000000008152600401610c77906116d2565b60405180910390fd5b5f600480549050905060046040518060a001604052808673ffffffffffffffffffffffffffffffffffffffff1681526020018581526020018481526020015f151581526020015f815250908060018154018082558091505060019003905f5260205f2090600502015f909190919091505f820151815f015f6101000a81548173ffffffffffffffffffffffffffffffffffffffff021916908373ffffffffffffffffffffffffffffffffffffffff160217905550602082015181600101556040820151816002019081610d539190611ac0565b506060820151816003015f6101000a81548160ff0219169083151502179055506080820151816004015550508373ffffffffffffffffffffffffffffffffffffffff16813373ffffffffffffffffffffffffffffffffffffffff167fd5a05bf70715ad82a09a756320284a1b54c9ff74cd0f8cce6219e79b563fe59d8686604051610ddf929190611b8f565b60405180910390a450505050565b60025481565b60015f3373ffffffffffffffffffffffffffffffffffffffff1673ffffffffffffffffffffffffffffffffffffffff1681526020019081526020015f205f9054906101000a900460ff16610e7c576040517f08c379a0000000000000000000000000000000000000000000000000000000008152600401610e73906116d2565b60405180910390fd5b806004805490508110610ec4576040517f08c379a0000000000000000000000000000000000000000000000000000000008152600401610ebb9061173a565b60405180910390fd5b8160048181548110610ed957610ed86115ee565b5b905f5260205f2090600502016003015f9054906101000a900460ff1615610f35576040517f08c379a0000000000000000000000000000000000000000000000000000000008152600401610f2c906117a2565b60405180910390fd5b5f60048481548110610f4a57610f496115ee565b5b905f5260205f209060050201905060025481600401541015610fa1576040517f08c379a0000000000000000000000000000000000000000000000000000000008152600401610f9890611c07565b60405180910390fd5b6001816003015f6101000a81548160ff0219169083151502179055505f815f015f9054906101000a900473ffffffffffffffffffffffffffffffffffffffff1673ffffffffffffffffffffffffffffffffffffffff1682600101548360020160405161100d9190611caf565b5f6040518083038185875af1925050503d805f8114611047576040519150601f19603f3d011682016040523d82523d5f602084013e61104c565b606091505b5050905080611090576040517f08c379a000000000000000000000000000000000000000000000000000000000815260040161108790611d0f565b60405180910390fd5b843373ffffffffffffffffffffffffffffffffffffffff167f5445f318f4f5fcfb66592e68e0cc5822aa15664039bd5f0ffde24c5a8142b1ac60405160405180910390a35050505050565b5f819050919050565b6110ed816110db565b82525050565b5f6040820190506111065f8301856110e4565b61111360208301846110e4565b9392505050565b5f604051905090565b5f80fd5b5f80fd5b611134816110db565b811461113e575f80fd5b50565b5f8135905061114f8161112b565b92915050565b5f6020828403121561116a57611169611123565b5b5f61117784828501611141565b91505092915050565b5f73ffffffffffffffffffffffffffffffffffffffff82169050919050565b5f6111a982611180565b9050919050565b6111b98161119f565b82525050565b5f6020820190506111d25f8301846111b0565b92915050565b5f6020820190506111eb5f8301846110e4565b92915050565b6111fa8161119f565b8114611204575f80fd5b50565b5f81359050611215816111f1565b92915050565b5f602082840312156112305761122f611123565b5b5f61123d84828501611207565b91505092915050565b5f8115159050919050565b61125a81611246565b82525050565b5f6020820190506112735f830184611251565b92915050565b5f81519050919050565b5f82825260208201905092915050565b8281835e5f83830152505050565b5f601f19601f8301169050919050565b5f6112bb82611279565b6112c58185611283565b93506112d5818560208601611293565b6112de816112a1565b840191505092915050565b5f60a0820190506112fc5f8301886111b0565b61130960208301876110e4565b818103604083015261131b81866112b1565b905061132a6060830185611251565b61133760808301846110e4565b9695505050505050565b5f806040838503121561135757611356611123565b5b5f61136485828601611141565b925050602061137585828601611207565b9150509250929050565b5f81519050919050565b5f82825260208201905092915050565b5f819050602082019050919050565b6113b18161119f565b82525050565b5f6113c283836113a8565b60208301905092915050565b5f602082019050919050565b5f6113e48261137f565b6113ee8185611389565b93506113f983611399565b805f5b8381101561142957815161141088826113b7565b975061141b836113ce565b9250506001810190506113fc565b5085935050505092915050565b5f6020820190508181035f83015261144e81846113da565b905092915050565b5f80fd5b5f80fd5b7f4e487b71000000000000000000000000000000000000000000000000000000005f52604160045260245ffd5b611494826112a1565b810181811067ffffffffffffffff821117156114b3576114b261145e565b5b80604052505050565b5f6114c561111a565b90506114d1828261148b565b919050565b5f67ffffffffffffffff8211156114f0576114ef61145e565b5b6114f9826112a1565b9050602081019050919050565b828183375f83830152505050565b5f611526611521846114d6565b6114bc565b9050828152602081018484840111156115425761154161145a565b5b61154d848285611506565b509392505050565b5f82601f83011261156957611568611456565b5b8135611579848260208601611514565b91505092915050565b5f805f6060848603121561159957611598611123565b5b5f6115a686828701611207565b93505060206115b786828701611141565b925050604084013567ffffffffffffffff8111156115d8576115d7611127565b5b6115e486828701611555565b9150509250925092565b7f4e487b71000000000000000000000000000000000000000000000000000000005f52603260045260245ffd5b7f4e487b71000000000000000000000000000000000000000000000000000000005f52602260045260245ffd5b5f600282049050600182168061165f57607f821691505b6020821081036116725761167161161b565b5b50919050565b5f82825260208201905092915050565b7f6e6f74206f776e657200000000000000000000000000000000000000000000005f82015250565b5f6116bc600983611678565b91506116c782611688565b602082019050919050565b5f6020820190508181035f8301526116e9816116b0565b9050919050565b7f747820646f6573206e6f742065786973747300000000000000000000000000005f82015250565b5f611724601283611678565b915061172f826116f0565b602082019050919050565b5f6020820190508181035f83015261175181611718565b9050919050565b7f747820616c7265656164792065786563757465640000000000000000000000005f82015250565b5f61178c601483611678565b915061179782611758565b602082019050919050565b5f6020820190508181035f8301526117b981611780565b9050919050565b7f7478206e6f7420636f6e6669726d6564000000000000000000000000000000005f82015250565b5f6117f4601083611678565b91506117ff826117c0565b602082019050919050565b5f6020820190508181035f830152611821816117e8565b9050919050565b7f4e487b71000000000000000000000000000000000000000000000000000000005f52601160045260245ffd5b5f61185f826110db565b915061186a836110db565b925082820390508181111561188257611881611828565b5b92915050565b7f747820616c726561647920636f6e6669726d65640000000000000000000000005f82015250565b5f6118bc601483611678565b91506118c782611888565b602082019050919050565b5f6020820190508181035f8301526118e9816118b0565b9050919050565b5f6118fa826110db565b9150611905836110db565b925082820190508082111561191d5761191c611828565b5b92915050565b5f819050815f5260205f209050919050565b5f6020601f8301049050919050565b5f82821b905092915050565b5f6008830261197f7fffffffffffffffffffffffffffffffffffffffffffffffffffffffffffffffff82611944565b6119898683611944565b95508019841693508086168417925050509392505050565b5f819050919050565b5f6119c46119bf6119ba846110db565b6119a1565b6110db565b9050919050565b5f819050919050565b6119dd836119aa565b6119f16119e9826119cb565b848454611950565b825550505050565b5f90565b611a056119f9565b611a108184846119d4565b505050565b5b81811015611a3357611a285f826119fd565b600181019050611a16565b5050565b601f821115611a7857611a4981611923565b611a5284611935565b81016020851015611a61578190505b611a75611a6d85611935565b830182611a15565b50505b505050565b5f82821c905092915050565b5f611a985f1984600802611a7d565b1980831691505092915050565b5f611ab08383611a89565b9150826002028217905092915050565b611ac982611279565b67ffffffffffffffff811115611ae257611ae161145e565b5b611aec8254611648565b611af7828285611a37565b5f60209050601f831160018114611b28575f8415611b16578287015190505b611b208582611aa5565b865550611b87565b601f198416611b3686611923565b5f5b82811015611b5d57848901518255600182019150602085019450602081019050611b38565b86831015611b7a5784890151611b76601f891682611a89565b8355505b6001600288020188555050505b505050505050565b5f604082019050611ba25f8301856110e4565b8181036020830152611bb481846112b1565b90509392505050565b7f63616e6e6f7420657865637574652069740000000000000000000000000000005f82015250565b5f611bf1601183611678565b9150611bfc82611bbd565b602082019050919050565b5f6020820190508181035f830152611c1e81611be5565b9050919050565b5f81905092915050565b5f8154611c3b81611648565b611c458186611c25565b9450600182165f8114611c5f5760018114611c7457611ca6565b60ff1983168652811515820286019350611ca6565b611c7d85611923565b5f5b83811015611c9e57815481890152600182019150602081019050611c7f565b838801955050505b50505092915050565b5f611cba8284611c2f565b915081905092915050565b7f7478206661696c656400000000000000000000000000000000000000000000005f82015250565b5f611cf9600983611678565b9150611d0482611cc5565b602082019050919050565b5f6020820190508181035f830152611d2681611ced565b905091905056fea264697066735822122010faca653e347e2d1c977785efef69ec9d04f16ec2bf0aa7981f7aad257d20d864736f6c634300081a0033",
					"opcodes": "PUSH1 0x80 PUSH1 0x40 MSTORE CALLVALUE DUP1 ISZERO PUSH2 0xF JUMPI PUSH0 DUP1 REVERT JUMPDEST POP PUSH1 0x40 MLOAD PUSH2 0x246F CODESIZE SUB DUP1 PUSH2 0x246F DUP4 CODECOPY DUP2 DUP2 ADD PUSH1 0x40 MSTORE DUP2 ADD SWAP1 PUSH2 0x31 SWAP2 SWAP1 PUSH2 0x4A2 JUMP JUMPDEST PUSH0 DUP3 MLOAD GT PUSH2 0x74 JUMPI PUSH1 0x40 MLOAD PUSH32 0x8C379A000000000000000000000000000000000000000000000000000000000 DUP2 MSTORE PUSH1 0x4 ADD PUSH2 0x6B SWAP1 PUSH2 0x556 JUMP JUMPDEST PUSH1 0x40 MLOAD DUP1 SWAP2 SUB SWAP1 REVERT JUMPDEST PUSH0 DUP2 GT DUP1 ISZERO PUSH2 0x84 JUMPI POP DUP2 MLOAD DUP2 GT ISZERO JUMPDEST PUSH2 0xC3 JUMPI PUSH1 0x40 MLOAD PUSH32 0x8C379A000000000000000000000000000000000000000000000000000000000 DUP2 MSTORE PUSH1 0x4 ADD PUSH2 0xBA SWAP1 PUSH2 0x5E4 JUMP JUMPDEST PUSH1 0x40 MLOAD DUP1 SWAP2 SUB SWAP1 REVERT JUMPDEST PUSH0 JUMPDEST DUP3 MLOAD DUP2 LT ISZERO PUSH2 0x2A5 JUMPI PUSH0 DUP4 DUP3 DUP2 MLOAD DUP2 LT PUSH2 0xE2 JUMPI PUSH2 0xE1 PUSH2 0x602 JUMP JUMPDEST JUMPDEST PUSH1 0x20 MUL PUSH1 0x20 ADD ADD MLOAD SWAP1 POP PUSH0 PUSH20 0xFFFFFFFFFFFFFFFFFFFFFFFFFFFFFFFFFFFFFFFF AND DUP2 PUSH20 0xFFFFFFFFFFFFFFFFFFFFFFFFFFFFFFFFFFFFFFFF AND SUB PUSH2 0x15A JUMPI PUSH1 0x40 MLOAD PUSH32 0x8C379A000000000000000000000000000000000000000000000000000000000 DUP2 MSTORE PUSH1 0x4 ADD PUSH2 0x151 SWAP1 PUSH2 0x679 JUMP JUMPDEST PUSH1 0x40 MLOAD DUP1 SWAP2 SUB SWAP1 REVERT JUMPDEST PUSH1 0x1 PUSH0 DUP3 PUSH20 0xFFFFFFFFFFFFFFFFFFFFFFFFFFFFFFFFFFFFFFFF AND PUSH20 0xFFFFFFFFFFFFFFFFFFFFFFFFFFFFFFFFFFFFFFFF AND DUP2 MSTORE PUSH1 0x20 ADD SWAP1 DUP2 MSTORE PUSH1 0x20 ADD PUSH0 KECCAK256 PUSH0 SWAP1 SLOAD SWAP1 PUSH2 0x100 EXP SWAP1 DIV PUSH1 0xFF AND ISZERO PUSH2 0x1E4 JUMPI PUSH1 0x40 MLOAD PUSH32 0x8C379A000000000000000000000000000000000000000000000000000000000 DUP2 MSTORE PUSH1 0x4 ADD PUSH2 0x1DB SWAP1 PUSH2 0x6E1 JUMP JUMPDEST PUSH1 0x40 MLOAD DUP1 SWAP2 SUB SWAP1 REVERT JUMPDEST PUSH1 0x1 DUP1 PUSH0 DUP4 PUSH20 0xFFFFFFFFFFFFFFFFFFFFFFFFFFFFFFFFFFFFFFFF AND PUSH20 0xFFFFFFFFFFFFFFFFFFFFFFFFFFFFFFFFFFFFFFFF AND DUP2 MSTORE PUSH1 0x20 ADD SWAP1 DUP2 MSTORE PUSH1 0x20 ADD PUSH0 KECCAK256 PUSH0 PUSH2 0x100 EXP DUP2 SLOAD DUP2 PUSH1 0xFF MUL NOT AND SWAP1 DUP4 ISZERO ISZERO MUL OR SWAP1 SSTORE POP PUSH0 DUP2 SWAP1 DUP1 PUSH1 0x1 DUP2 SLOAD ADD DUP1 DUP3 SSTORE DUP1 SWAP2 POP POP PUSH1 0x1 SWAP1 SUB SWAP1 PUSH0 MSTORE PUSH1 0x20 PUSH0 KECCAK256 ADD PUSH0 SWAP1 SWAP2 SWAP1 SWAP2 SWAP1 SWAP2 PUSH2 0x100 EXP DUP2 SLOAD DUP2 PUSH20 0xFFFFFFFFFFFFFFFFFFFFFFFFFFFFFFFFFFFFFFFF MUL NOT AND SWAP1 DUP4 PUSH20 0xFFFFFFFFFFFFFFFFFFFFFFFFFFFFFFFFFFFFFFFF AND MUL OR SWAP1 SSTORE POP POP DUP1 DUP1 PUSH1 0x1 ADD SWAP2 POP POP PUSH2 0xC5 JUMP JUMPDEST POP DUP1 PUSH1 0x2 DUP2 SWAP1 SSTORE POP POP POP PUSH2 0x6FF JUMP JUMPDEST PUSH0 PUSH1 0x40 MLOAD SWAP1 POP SWAP1 JUMP JUMPDEST PUSH0 DUP1 REVERT JUMPDEST PUSH0 DUP1 REVERT JUMPDEST PUSH0 DUP1 REVERT JUMPDEST PUSH0 PUSH1 0x1F NOT PUSH1 0x1F DUP4 ADD AND SWAP1 POP SWAP2 SWAP1 POP JUMP JUMPDEST PUSH32 0x4E487B7100000000000000000000000000000000000000000000000000000000 PUSH0 MSTORE PUSH1 0x41 PUSH1 0x4 MSTORE PUSH1 0x24 PUSH0 REVERT JUMPDEST PUSH2 0x30F DUP3 PUSH2 0x2C9 JUMP JUMPDEST DUP2 ADD DUP2 DUP2 LT PUSH8 0xFFFFFFFFFFFFFFFF DUP3 GT OR ISZERO PUSH2 0x32E JUMPI PUSH2 0x32D PUSH2 0x2D9 JUMP JUMPDEST JUMPDEST DUP1 PUSH1 0x40 MSTORE POP POP POP JUMP JUMPDEST PUSH0 PUSH2 0x340 PUSH2 0x2B4 JUMP JUMPDEST SWAP1 POP PUSH2 0x34C DUP3 DUP3 PUSH2 0x306 JUMP JUMPDEST SWAP2 SWAP1 POP JUMP JUMPDEST PUSH0 PUSH8 0xFFFFFFFFFFFFFFFF DUP3 GT ISZERO PUSH2 0x36B JUMPI PUSH2 0x36A PUSH2 0x2D9 JUMP JUMPDEST JUMPDEST PUSH1 0x20 DUP3 MUL SWAP1 POP PUSH1 0x20 DUP2 ADD SWAP1 POP SWAP2 SWAP1 POP JUMP JUMPDEST PUSH0 DUP1 REVERT JUMPDEST PUSH0 PUSH20 0xFFFFFFFFFFFFFFFFFFFFFFFFFFFFFFFFFFFFFFFF DUP3 AND SWAP1 POP SWAP2 SWAP1 POP JUMP JUMPDEST PUSH0 PUSH2 0x3A9 DUP3 PUSH2 0x380 JUMP JUMPDEST SWAP1 POP SWAP2 SWAP1 POP JUMP JUMPDEST PUSH2 0x3B9 DUP2 PUSH2 0x39F JUMP JUMPDEST DUP2 EQ PUSH2 0x3C3 JUMPI PUSH0 DUP1 REVERT JUMPDEST POP JUMP JUMPDEST PUSH0 DUP2 MLOAD SWAP1 POP PUSH2 0x3D4 DUP2 PUSH2 0x3B0 JUMP JUMPDEST SWAP3 SWAP2 POP POP JUMP JUMPDEST PUSH0 PUSH2 0x3EC PUSH2 0x3E7 DUP5 PUSH2 0x351 JUMP JUMPDEST PUSH2 0x337 JUMP JUMPDEST SWAP1 POP DUP1 DUP4 DUP3 MSTORE PUSH1 0x20 DUP3 ADD SWAP1 POP PUSH1 0x20 DUP5 MUL DUP4 ADD DUP6 DUP2 GT ISZERO PUSH2 0x40F JUMPI PUSH2 0x40E PUSH2 0x37C JUMP JUMPDEST JUMPDEST DUP4 JUMPDEST DUP2 DUP2 LT ISZERO PUSH2 0x438 JUMPI DUP1 PUSH2 0x424 DUP9 DUP3 PUSH2 0x3C6 JUMP JUMPDEST DUP5 MSTORE PUSH1 0x20 DUP5 ADD SWAP4 POP POP PUSH1 0x20 DUP2 ADD SWAP1 POP PUSH2 0x411 JUMP JUMPDEST POP POP POP SWAP4 SWAP3 POP POP POP JUMP JUMPDEST PUSH0 DUP3 PUSH1 0x1F DUP4 ADD SLT PUSH2 0x456 JUMPI PUSH2 0x455 PUSH2 0x2C5 JUMP JUMPDEST JUMPDEST DUP2 MLOAD PUSH2 0x466 DUP5 DUP3 PUSH1 0x20 DUP7 ADD PUSH2 0x3DA JUMP JUMPDEST SWAP2 POP POP SWAP3 SWAP2 POP POP JUMP JUMPDEST PUSH0 DUP2 SWAP1 POP SWAP2 SWAP1 POP JUMP JUMPDEST PUSH2 0x481 DUP2 PUSH2 0x46F JUMP JUMPDEST DUP2 EQ PUSH2 0x48B JUMPI PUSH0 DUP1 REVERT JUMPDEST POP JUMP JUMPDEST PUSH0 DUP2 MLOAD SWAP1 POP PUSH2 0x49C DUP2 PUSH2 0x478 JUMP JUMPDEST SWAP3 SWAP2 POP POP JUMP JUMPDEST PUSH0 DUP1 PUSH1 0x40 DUP4 DUP6 SUB SLT ISZERO PUSH2 0x4B8 JUMPI PUSH2 0x4B7 PUSH2 0x2BD JUMP JUMPDEST JUMPDEST PUSH0 DUP4 ADD MLOAD PUSH8 0xFFFFFFFFFFFFFFFF DUP2 GT ISZERO PUSH2 0x4D5 JUMPI PUSH2 0x4D4 PUSH2 0x2C1 JUMP JUMPDEST JUMPDEST PUSH2 0x4E1 DUP6 DUP3 DUP7 ADD PUSH2 0x442 JUMP JUMPDEST SWAP3 POP POP PUSH1 0x20 PUSH2 0x4F2 DUP6 DUP3 DUP7 ADD PUSH2 0x48E JUMP JUMPDEST SWAP2 POP POP SWAP3 POP SWAP3 SWAP1 POP JUMP JUMPDEST PUSH0 DUP3 DUP3 MSTORE PUSH1 0x20 DUP3 ADD SWAP1 POP SWAP3 SWAP2 POP POP JUMP JUMPDEST PUSH32 0x6F776E6572732072657175697265640000000000000000000000000000000000 PUSH0 DUP3 ADD MSTORE POP JUMP JUMPDEST PUSH0 PUSH2 0x540 PUSH1 0xF DUP4 PUSH2 0x4FC JUMP JUMPDEST SWAP2 POP PUSH2 0x54B DUP3 PUSH2 0x50C JUMP JUMPDEST PUSH1 0x20 DUP3 ADD SWAP1 POP SWAP2 SWAP1 POP JUMP JUMPDEST PUSH0 PUSH1 0x20 DUP3 ADD SWAP1 POP DUP2 DUP2 SUB PUSH0 DUP4 ADD MSTORE PUSH2 0x56D DUP2 PUSH2 0x534 JUMP JUMPDEST SWAP1 POP SWAP2 SWAP1 POP JUMP JUMPDEST PUSH32 0x696E76616C6964206E756D626572206F6620726571756972656420636F6E6669 PUSH0 DUP3 ADD MSTORE PUSH32 0x726D6174696F6E73000000000000000000000000000000000000000000000000 PUSH1 0x20 DUP3 ADD MSTORE POP JUMP JUMPDEST PUSH0 PUSH2 0x5CE PUSH1 0x28 DUP4 PUSH2 0x4FC JUMP JUMPDEST SWAP2 POP PUSH2 0x5D9 DUP3 PUSH2 0x574 JUMP JUMPDEST PUSH1 0x40 DUP3 ADD SWAP1 POP SWAP2 SWAP1 POP JUMP JUMPDEST PUSH0 PUSH1 0x20 DUP3 ADD SWAP1 POP DUP2 DUP2 SUB PUSH0 DUP4 ADD MSTORE PUSH2 0x5FB DUP2 PUSH2 0x5C2 JUMP JUMPDEST SWAP1 POP SWAP2 SWAP1 POP JUMP JUMPDEST PUSH32 0x4E487B7100000000000000000000000000000000000000000000000000000000 PUSH0 MSTORE PUSH1 0x32 PUSH1 0x4 MSTORE PUSH1 0x24 PUSH0 REVERT JUMPDEST PUSH32 0x696E76616C6964206F776E657200000000000000000000000000000000000000 PUSH0 DUP3 ADD MSTORE POP JUMP JUMPDEST PUSH0 PUSH2 0x663 PUSH1 0xD DUP4 PUSH2 0x4FC JUMP JUMPDEST SWAP2 POP PUSH2 0x66E DUP3 PUSH2 0x62F JUMP JUMPDEST PUSH1 0x20 DUP3 ADD SWAP1 POP SWAP2 SWAP1 POP JUMP JUMPDEST PUSH0 PUSH1 0x20 DUP3 ADD SWAP1 POP DUP2 DUP2 SUB PUSH0 DUP4 ADD MSTORE PUSH2 0x690 DUP2 PUSH2 0x657 JUMP JUMPDEST SWAP1 POP SWAP2 SWAP1 POP JUMP JUMPDEST PUSH32 0x6F776E6572206E6F7420756E6971756500000000000000000000000000000000 PUSH0 DUP3 ADD MSTORE POP JUMP JUMPDEST PUSH0 PUSH2 0x6CB PUSH1 0x10 DUP4 PUSH2 0x4FC JUMP JUMPDEST SWAP2 POP PUSH2 0x6D6 DUP3 PUSH2 0x697 JUMP JUMPDEST PUSH1 0x20 DUP3 ADD SWAP1 POP SWAP2 SWAP1 POP JUMP JUMPDEST PUSH0 PUSH1 0x20 DUP3 ADD SWAP1 POP DUP2 DUP2 SUB PUSH0 DUP4 ADD MSTORE PUSH2 0x6F8 DUP2 PUSH2 0x6BF JUMP JUMPDEST SWAP1 POP SWAP2 SWAP1 POP JUMP JUMPDEST PUSH2 0x1D63 DUP1 PUSH2 0x70C PUSH0 CODECOPY PUSH0 RETURN INVALID PUSH1 0x80 PUSH1 0x40 MSTORE PUSH1 0x4 CALLDATASIZE LT PUSH2 0xAA JUMPI PUSH0 CALLDATALOAD PUSH1 0xE0 SHR DUP1 PUSH4 0x9ACE38C2 GT PUSH2 0x63 JUMPI DUP1 PUSH4 0x9ACE38C2 EQ PUSH2 0x24B JUMPI DUP1 PUSH4 0xA0E67E2B EQ PUSH2 0x28B JUMPI DUP1 PUSH4 0xC01A8C84 EQ PUSH2 0x2B5 JUMPI DUP1 PUSH4 0xC6427474 EQ PUSH2 0x2DD JUMPI DUP1 PUSH4 0xD0549B85 EQ PUSH2 0x305 JUMPI DUP1 PUSH4 0xEE22610B EQ PUSH2 0x32F JUMPI PUSH2 0x101 JUMP JUMPDEST DUP1 PUSH4 0x25E7C27 EQ PUSH2 0x105 JUMPI DUP1 PUSH4 0x2E7700F0 EQ PUSH2 0x141 JUMPI DUP1 PUSH4 0x2F54BF6E EQ PUSH2 0x16B JUMPI DUP1 PUSH4 0x33EA3DC8 EQ PUSH2 0x1A7 JUMPI DUP1 PUSH4 0x735631AD EQ PUSH2 0x1E7 JUMPI DUP1 PUSH4 0x80F59A65 EQ PUSH2 0x20F JUMPI PUSH2 0x101 JUMP JUMPDEST CALLDATASIZE PUSH2 0x101 JUMPI CALLER PUSH20 0xFFFFFFFFFFFFFFFFFFFFFFFFFFFFFFFFFFFFFFFF AND PUSH32 0x90890809C654F11D6E72A28FA60149770A0D11EC6C92319D6CEB2BB0A4EA1A15 CALLVALUE SELFBALANCE PUSH1 0x40 MLOAD PUSH2 0xF7 SWAP3 SWAP2 SWAP1 PUSH2 0x10F3 JUMP JUMPDEST PUSH1 0x40 MLOAD DUP1 SWAP2 SUB SWAP1 LOG2 STOP JUMPDEST PUSH0 DUP1 REVERT JUMPDEST CALLVALUE DUP1 ISZERO PUSH2 0x110 JUMPI PUSH0 DUP1 REVERT JUMPDEST POP PUSH2 0x12B PUSH1 0x4 DUP1 CALLDATASIZE SUB DUP2 ADD SWAP1 PUSH2 0x126 SWAP2 SWAP1 PUSH2 0x1155 JUMP JUMPDEST PUSH2 0x357 JUMP JUMPDEST PUSH1 0x40 MLOAD PUSH2 0x138 SWAP2 SWAP1 PUSH2 0x11BF JUMP JUMPDEST PUSH1 0x40 MLOAD DUP1 SWAP2 SUB SWAP1 RETURN JUMPDEST CALLVALUE DUP1 ISZERO PUSH2 0x14C JUMPI PUSH0 DUP1 REVERT JUMPDEST POP PUSH2 0x155 PUSH2 0x391 JUMP JUMPDEST PUSH1 0x40 MLOAD PUSH2 0x162 SWAP2 SWAP1 PUSH2 0x11D8 JUMP JUMPDEST PUSH1 0x40 MLOAD DUP1 SWAP2 SUB SWAP1 RETURN JUMPDEST CALLVALUE DUP1 ISZERO PUSH2 0x176 JUMPI PUSH0 DUP1 REVERT JUMPDEST POP PUSH2 0x191 PUSH1 0x4 DUP1 CALLDATASIZE SUB DUP2 ADD SWAP1 PUSH2 0x18C SWAP2 SWAP1 PUSH2 0x121B JUMP JUMPDEST PUSH2 0x39D JUMP JUMPDEST PUSH1 0x40 MLOAD PUSH2 0x19E SWAP2 SWAP1 PUSH2 0x1260 JUMP JUMPDEST PUSH1 0x40 MLOAD DUP1 SWAP2 SUB SWAP1 RETURN JUMPDEST CALLVALUE DUP1 ISZERO PUSH2 0x1B2 JUMPI PUSH0 DUP1 REVERT JUMPDEST POP PUSH2 0x1CD PUSH1 0x4 DUP1 CALLDATASIZE SUB DUP2 ADD SWAP1 PUSH2 0x1C8 SWAP2 SWAP1 PUSH2 0x1155 JUMP JUMPDEST PUSH2 0x3BA JUMP JUMPDEST PUSH1 0x40 MLOAD PUSH2 0x1DE SWAP6 SWAP5 SWAP4 SWAP3 SWAP2 SWAP1 PUSH2 0x12E9 JUMP JUMPDEST PUSH1 0x40 MLOAD DUP1 SWAP2 SUB SWAP1 RETURN JUMPDEST CALLVALUE DUP1 ISZERO PUSH2 0x1F2 JUMPI PUSH0 DUP1 REVERT JUMPDEST POP PUSH2 0x20D PUSH1 0x4 DUP1 CALLDATASIZE SUB DUP2 ADD SWAP1 PUSH2 0x208 SWAP2 SWAP1 PUSH2 0x1155 JUMP JUMPDEST PUSH2 0x4C3 JUMP JUMPDEST STOP JUMPDEST CALLVALUE DUP1 ISZERO PUSH2 0x21A JUMPI PUSH0 DUP1 REVERT JUMPDEST POP PUSH2 0x235 PUSH1 0x4 DUP1 CALLDATASIZE SUB DUP2 ADD SWAP1 PUSH2 0x230 SWAP2 SWAP1 PUSH2 0x1341 JUMP JUMPDEST PUSH2 0x788 JUMP JUMPDEST PUSH1 0x40 MLOAD PUSH2 0x242 SWAP2 SWAP1 PUSH2 0x1260 JUMP JUMPDEST PUSH1 0x40 MLOAD DUP1 SWAP2 SUB SWAP1 RETURN JUMPDEST CALLVALUE DUP1 ISZERO PUSH2 0x256 JUMPI PUSH0 DUP1 REVERT JUMPDEST POP PUSH2 0x271 PUSH1 0x4 DUP1 CALLDATASIZE SUB DUP2 ADD SWAP1 PUSH2 0x26C SWAP2 SWAP1 PUSH2 0x1155 JUMP JUMPDEST PUSH2 0x7B2 JUMP JUMPDEST PUSH1 0x40 MLOAD PUSH2 0x282 SWAP6 SWAP5 SWAP4 SWAP3 SWAP2 SWAP1 PUSH2 0x12E9 JUMP JUMPDEST PUSH1 0x40 MLOAD DUP1 SWAP2 SUB SWAP1 RETURN JUMPDEST CALLVALUE DUP1 ISZERO PUSH2 0x296 JUMPI PUSH0 DUP1 REVERT JUMPDEST POP PUSH2 0x29F PUSH2 0x8A4 JUMP JUMPDEST PUSH1 0x40 MLOAD PUSH2 0x2AC SWAP2 SWAP1 PUSH2 0x1436 JUMP JUMPDEST PUSH1 0x40 MLOAD DUP1 SWAP2 SUB SWAP1 RETURN JUMPDEST CALLVALUE DUP1 ISZERO PUSH2 0x2C0 JUMPI PUSH0 DUP1 REVERT JUMPDEST POP PUSH2 0x2DB PUSH1 0x4 DUP1 CALLDATASIZE SUB DUP2 ADD SWAP1 PUSH2 0x2D6 SWAP2 SWAP1 PUSH2 0x1155 JUMP JUMPDEST PUSH2 0x92E JUMP JUMPDEST STOP JUMPDEST CALLVALUE DUP1 ISZERO PUSH2 0x2E8 JUMPI PUSH0 DUP1 REVERT JUMPDEST POP PUSH2 0x303 PUSH1 0x4 DUP1 CALLDATASIZE SUB DUP2 ADD SWAP1 PUSH2 0x2FE SWAP2 SWAP1 PUSH2 0x1582 JUMP JUMPDEST PUSH2 0xBF7 JUMP JUMPDEST STOP JUMPDEST CALLVALUE DUP1 ISZERO PUSH2 0x310 JUMPI PUSH0 DUP1 REVERT JUMPDEST POP PUSH2 0x319 PUSH2 0xDED JUMP JUMPDEST PUSH1 0x40 MLOAD PUSH2 0x326 SWAP2 SWAP1 PUSH2 0x11D8 JUMP JUMPDEST PUSH1 0x40 MLOAD DUP1 SWAP2 SUB SWAP1 RETURN JUMPDEST CALLVALUE DUP1 ISZERO PUSH2 0x33A JUMPI PUSH0 DUP1 REVERT JUMPDEST POP PUSH2 0x355 PUSH1 0x4 DUP1 CALLDATASIZE SUB DUP2 ADD SWAP1 PUSH2 0x350 SWAP2 SWAP1 PUSH2 0x1155 JUMP JUMPDEST PUSH2 0xDF3 JUMP JUMPDEST STOP JUMPDEST PUSH0 DUP2 DUP2 SLOAD DUP2 LT PUSH2 0x365 JUMPI PUSH0 DUP1 REVERT JUMPDEST SWAP1 PUSH0 MSTORE PUSH1 0x20 PUSH0 KECCAK256 ADD PUSH0 SWAP2 POP SLOAD SWAP1 PUSH2 0x100 EXP SWAP1 DIV PUSH20 0xFFFFFFFFFFFFFFFFFFFFFFFFFFFFFFFFFFFFFFFF AND DUP2 JUMP JUMPDEST PUSH0 PUSH1 0x4 DUP1 SLOAD SWAP1 POP SWAP1 POP SWAP1 JUMP JUMPDEST PUSH1 0x1 PUSH1 0x20 MSTORE DUP1 PUSH0 MSTORE PUSH1 0x40 PUSH0 KECCAK256 PUSH0 SWAP2 POP SLOAD SWAP1 PUSH2 0x100 EXP SWAP1 DIV PUSH1 0xFF AND DUP2 JUMP JUMPDEST PUSH0 DUP1 PUSH1 0x60 PUSH0 DUP1 PUSH0 PUSH1 0x4 DUP8 DUP2 SLOAD DUP2 LT PUSH2 0x3D5 JUMPI PUSH2 0x3D4 PUSH2 0x15EE JUMP JUMPDEST JUMPDEST SWAP1 PUSH0 MSTORE PUSH1 0x20 PUSH0 KECCAK256 SWAP1 PUSH1 0x5 MUL ADD SWAP1 POP DUP1 PUSH0 ADD PUSH0 SWAP1 SLOAD SWAP1 PUSH2 0x100 EXP SWAP1 DIV PUSH20 0xFFFFFFFFFFFFFFFFFFFFFFFFFFFFFFFFFFFFFFFF AND DUP2 PUSH1 0x1 ADD SLOAD DUP3 PUSH1 0x2 ADD DUP4 PUSH1 0x3 ADD PUSH0 SWAP1 SLOAD SWAP1 PUSH2 0x100 EXP SWAP1 DIV PUSH1 0xFF AND DUP5 PUSH1 0x4 ADD SLOAD DUP3 DUP1 SLOAD PUSH2 0x431 SWAP1 PUSH2 0x1648 JUMP JUMPDEST DUP1 PUSH1 0x1F ADD PUSH1 0x20 DUP1 SWAP2 DIV MUL PUSH1 0x20 ADD PUSH1 0x40 MLOAD SWAP1 DUP2 ADD PUSH1 0x40 MSTORE DUP1 SWAP3 SWAP2 SWAP1 DUP2 DUP2 MSTORE PUSH1 0x20 ADD DUP3 DUP1 SLOAD PUSH2 0x45D SWAP1 PUSH2 0x1648 JUMP JUMPDEST DUP1 ISZERO PUSH2 0x4A8 JUMPI DUP1 PUSH1 0x1F LT PUSH2 0x47F JUMPI PUSH2 0x100 DUP1 DUP4 SLOAD DIV MUL DUP4 MSTORE SWAP2 PUSH1 0x20 ADD SWAP2 PUSH2 0x4A8 JUMP JUMPDEST DUP3 ADD SWAP2 SWAP1 PUSH0 MSTORE PUSH1 0x20 PUSH0 KECCAK256 SWAP1 JUMPDEST DUP2 SLOAD DUP2 MSTORE SWAP1 PUSH1 0x1 ADD SWAP1 PUSH1 0x20 ADD DUP1 DUP4 GT PUSH2 0x48B JUMPI DUP3 SWAP1 SUB PUSH1 0x1F AND DUP3 ADD SWAP2 JUMPDEST POP POP POP POP POP SWAP3 POP SWAP6 POP SWAP6 POP SWAP6 POP SWAP6 POP SWAP6 POP POP SWAP2 SWAP4 SWAP6 SWAP1 SWAP3 SWAP5 POP JUMP JUMPDEST PUSH1 0x1 PUSH0 CALLER PUSH20 0xFFFFFFFFFFFFFFFFFFFFFFFFFFFFFFFFFFFFFFFF AND PUSH20 0xFFFFFFFFFFFFFFFFFFFFFFFFFFFFFFFFFFFFFFFF AND DUP2 MSTORE PUSH1 0x20 ADD SWAP1 DUP2 MSTORE PUSH1 0x20 ADD PUSH0 KECCAK256 PUSH0 SWAP1 SLOAD SWAP1 PUSH2 0x100 EXP SWAP1 DIV PUSH1 0xFF AND PUSH2 0x54C JUMPI PUSH1 0x40 MLOAD PUSH32 0x8C379A000000000000000000000000000000000000000000000000000000000 DUP2 MSTORE PUSH1 0x4 ADD PUSH2 0x543 SWAP1 PUSH2 0x16D2 JUMP JUMPDEST PUSH1 0x40 MLOAD DUP1 SWAP2 SUB SWAP1 REVERT JUMPDEST DUP1 PUSH1 0x4 DUP1 SLOAD SWAP1 POP DUP2 LT PUSH2 0x594 JUMPI PUSH1 0x40 MLOAD PUSH32 0x8C379A000000000000000000000000000000000000000000000000000000000 DUP2 MSTORE PUSH1 0x4 ADD PUSH2 0x58B SWAP1 PUSH2 0x173A JUMP JUMPDEST PUSH1 0x40 MLOAD DUP1 SWAP2 SUB SWAP1 REVERT JUMPDEST DUP2 PUSH1 0x4 DUP2 DUP2 SLOAD DUP2 LT PUSH2 0x5A9 JUMPI PUSH2 0x5A8 PUSH2 0x15EE JUMP JUMPDEST JUMPDEST SWAP1 PUSH0 MSTORE PUSH1 0x20 PUSH0 KECCAK256 SWAP1 PUSH1 0x5 MUL ADD PUSH1 0x3 ADD PUSH0 SWAP1 SLOAD SWAP1 PUSH2 0x100 EXP SWAP1 DIV PUSH1 0xFF AND ISZERO PUSH2 0x605 JUMPI PUSH1 0x40 MLOAD PUSH32 0x8C379A000000000000000000000000000000000000000000000000000000000 DUP2 MSTORE PUSH1 0x4 ADD PUSH2 0x5FC SWAP1 PUSH2 0x17A2 JUMP JUMPDEST PUSH1 0x40 MLOAD DUP1 SWAP2 SUB SWAP1 REVERT JUMPDEST PUSH0 PUSH1 0x4 DUP5 DUP2 SLOAD DUP2 LT PUSH2 0x61A JUMPI PUSH2 0x619 PUSH2 0x15EE JUMP JUMPDEST JUMPDEST SWAP1 PUSH0 MSTORE PUSH1 0x20 PUSH0 KECCAK256 SWAP1 PUSH1 0x5 MUL ADD SWAP1 POP PUSH1 0x3 PUSH0 DUP6 DUP2 MSTORE PUSH1 0x20 ADD SWAP1 DUP2 MSTORE PUSH1 0x20 ADD PUSH0 KECCAK256 PUSH0 CALLER PUSH20 0xFFFFFFFFFFFFFFFFFFFFFFFFFFFFFFFFFFFFFFFF AND PUSH20 0xFFFFFFFFFFFFFFFFFFFFFFFFFFFFFFFFFFFFFFFF AND DUP2 MSTORE PUSH1 0x20 ADD SWAP1 DUP2 MSTORE PUSH1 0x20 ADD PUSH0 KECCAK256 PUSH0 SWAP1 SLOAD SWAP1 PUSH2 0x100 EXP SWAP1 DIV PUSH1 0xFF AND PUSH2 0x6C0 JUMPI PUSH1 0x40 MLOAD PUSH32 0x8C379A000000000000000000000000000000000000000000000000000000000 DUP2 MSTORE PUSH1 0x4 ADD PUSH2 0x6B7 SWAP1 PUSH2 0x180A JUMP JUMPDEST PUSH1 0x40 MLOAD DUP1 SWAP2 SUB SWAP1 REVERT JUMPDEST PUSH1 0x1 DUP2 PUSH1 0x4 ADD PUSH0 DUP3 DUP3 SLOAD PUSH2 0x6D4 SWAP2 SWAP1 PUSH2 0x1855 JUMP JUMPDEST SWAP3 POP POP DUP2 SWAP1 SSTORE POP PUSH0 PUSH1 0x3 PUSH0 DUP7 DUP2 MSTORE PUSH1 0x20 ADD SWAP1 DUP2 MSTORE PUSH1 0x20 ADD PUSH0 KECCAK256 PUSH0 CALLER PUSH20 0xFFFFFFFFFFFFFFFFFFFFFFFFFFFFFFFFFFFFFFFF AND PUSH20 0xFFFFFFFFFFFFFFFFFFFFFFFFFFFFFFFFFFFFFFFF AND DUP2 MSTORE PUSH1 0x20 ADD SWAP1 DUP2 MSTORE PUSH1 0x20 ADD PUSH0 KECCAK256 PUSH0 PUSH2 0x100 EXP DUP2 SLOAD DUP2 PUSH1 0xFF MUL NOT AND SWAP1 DUP4 ISZERO ISZERO MUL OR SWAP1 SSTORE POP DUP4 CALLER PUSH20 0xFFFFFFFFFFFFFFFFFFFFFFFFFFFFFFFFFFFFFFFF AND PUSH32 0xF0DCA620E2E81F7841D07BCC105E1704FB01475B278A9D4C236E1C62945EDD55 PUSH1 0x40 MLOAD PUSH1 0x40 MLOAD DUP1 SWAP2 SUB SWAP1 LOG3 POP POP POP POP JUMP JUMPDEST PUSH1 0x3 PUSH1 0x20 MSTORE DUP2 PUSH0 MSTORE PUSH1 0x40 PUSH0 KECCAK256 PUSH1 0x20 MSTORE DUP1 PUSH0 MSTORE PUSH1 0x40 PUSH0 KECCAK256 PUSH0 SWAP2 POP SWAP2 POP SWAP1 SLOAD SWAP1 PUSH2 0x100 EXP SWAP1 DIV PUSH1 0xFF AND DUP2 JUMP JUMPDEST PUSH1 0x4 DUP2 DUP2 SLOAD DUP2 LT PUSH2 0x7C1 JUMPI PUSH0 DUP1 REVERT JUMPDEST SWAP1 PUSH0 MSTORE PUSH1 0x20 PUSH0 KECCAK256 SWAP1 PUSH1 0x5 MUL ADD PUSH0 SWAP2 POP SWAP1 POP DUP1 PUSH0 ADD PUSH0 SWAP1 SLOAD SWAP1 PUSH2 0x100 EXP SWAP1 DIV PUSH20 0xFFFFFFFFFFFFFFFFFFFFFFFFFFFFFFFFFFFFFFFF AND SWAP1 DUP1 PUSH1 0x1 ADD SLOAD SWAP1 DUP1 PUSH1 0x2 ADD DUP1 SLOAD PUSH2 0x80B SWAP1 PUSH2 0x1648 JUMP JUMPDEST DUP1 PUSH1 0x1F ADD PUSH1 0x20 DUP1 SWAP2 DIV MUL PUSH1 0x20 ADD PUSH1 0x40 MLOAD SWAP1 DUP2 ADD PUSH1 0x40 MSTORE DUP1 SWAP3 SWAP2 SWAP1 DUP2 DUP2 MSTORE PUSH1 0x20 ADD DUP3 DUP1 SLOAD PUSH2 0x837 SWAP1 PUSH2 0x1648 JUMP JUMPDEST DUP1 ISZERO PUSH2 0x882 JUMPI DUP1 PUSH1 0x1F LT PUSH2 0x859 JUMPI PUSH2 0x100 DUP1 DUP4 SLOAD DIV MUL DUP4 MSTORE SWAP2 PUSH1 0x20 ADD SWAP2 PUSH2 0x882 JUMP JUMPDEST DUP3 ADD SWAP2 SWAP1 PUSH0 MSTORE PUSH1 0x20 PUSH0 KECCAK256 SWAP1 JUMPDEST DUP2 SLOAD DUP2 MSTORE SWAP1 PUSH1 0x1 ADD SWAP1 PUSH1 0x20 ADD DUP1 DUP4 GT PUSH2 0x865 JUMPI DUP3 SWAP1 SUB PUSH1 0x1F AND DUP3 ADD SWAP2 JUMPDEST POP POP POP POP POP SWAP1 DUP1 PUSH1 0x3 ADD PUSH0 SWAP1 SLOAD SWAP1 PUSH2 0x100 EXP SWAP1 DIV PUSH1 0xFF AND SWAP1 DUP1 PUSH1 0x4 ADD SLOAD SWAP1 POP DUP6 JUMP JUMPDEST PUSH1 0x60 PUSH0 DUP1 SLOAD DUP1 PUSH1 0x20 MUL PUSH1 0x20 ADD PUSH1 0x40 MLOAD SWAP1 DUP2 ADD PUSH1 0x40 MSTORE DUP1 SWAP3 SWAP2 SWAP1 DUP2 DUP2 MSTORE PUSH1 0x20 ADD DUP3 DUP1 SLOAD DUP1 ISZERO PUSH2 0x924 JUMPI PUSH1 0x20 MUL DUP3 ADD SWAP2 SWAP1 PUSH0 MSTORE PUSH1 0x20 PUSH0 KECCAK256 SWAP1 JUMPDEST DUP2 PUSH0 SWAP1 SLOAD SWAP1 PUSH2 0x100 EXP SWAP1 DIV PUSH20 0xFFFFFFFFFFFFFFFFFFFFFFFFFFFFFFFFFFFFFFFF AND PUSH20 0xFFFFFFFFFFFFFFFFFFFFFFFFFFFFFFFFFFFFFFFF AND DUP2 MSTORE PUSH1 0x20 ADD SWAP1 PUSH1 0x1 ADD SWAP1 DUP1 DUP4 GT PUSH2 0x8DB JUMPI JUMPDEST POP POP POP POP POP SWAP1 POP SWAP1 JUMP JUMPDEST PUSH1 0x1 PUSH0 CALLER PUSH20 0xFFFFFFFFFFFFFFFFFFFFFFFFFFFFFFFFFFFFFFFF AND PUSH20 0xFFFFFFFFFFFFFFFFFFFFFFFFFFFFFFFFFFFFFFFF AND DUP2 MSTORE PUSH1 0x20 ADD SWAP1 DUP2 MSTORE PUSH1 0x20 ADD PUSH0 KECCAK256 PUSH0 SWAP1 SLOAD SWAP1 PUSH2 0x100 EXP SWAP1 DIV PUSH1 0xFF AND PUSH2 0x9B7 JUMPI PUSH1 0x40 MLOAD PUSH32 0x8C379A000000000000000000000000000000000000000000000000000000000 DUP2 MSTORE PUSH1 0x4 ADD PUSH2 0x9AE SWAP1 PUSH2 0x16D2 JUMP JUMPDEST PUSH1 0x40 MLOAD DUP1 SWAP2 SUB SWAP1 REVERT JUMPDEST DUP1 PUSH1 0x4 DUP1 SLOAD SWAP1 POP DUP2 LT PUSH2 0x9FF JUMPI PUSH1 0x40 MLOAD PUSH32 0x8C379A000000000000000000000000000000000000000000000000000000000 DUP2 MSTORE PUSH1 0x4 ADD PUSH2 0x9F6 SWAP1 PUSH2 0x173A JUMP JUMPDEST PUSH1 0x40 MLOAD DUP1 SWAP2 SUB SWAP1 REVERT JUMPDEST DUP2 PUSH1 0x4 DUP2 DUP2 SLOAD DUP2 LT PUSH2 0xA14 JUMPI PUSH2 0xA13 PUSH2 0x15EE JUMP JUMPDEST JUMPDEST SWAP1 PUSH0 MSTORE PUSH1 0x20 PUSH0 KECCAK256 SWAP1 PUSH1 0x5 MUL ADD PUSH1 0x3 ADD PUSH0 SWAP1 SLOAD SWAP1 PUSH2 0x100 EXP SWAP1 DIV PUSH1 0xFF AND ISZERO PUSH2 0xA70 JUMPI PUSH1 0x40 MLOAD PUSH32 0x8C379A000000000000000000000000000000000000000000000000000000000 DUP2 MSTORE PUSH1 0x4 ADD PUSH2 0xA67 SWAP1 PUSH2 0x17A2 JUMP JUMPDEST PUSH1 0x40 MLOAD DUP1 SWAP2 SUB SWAP1 REVERT JUMPDEST DUP3 PUSH1 0x3 PUSH0 DUP3 DUP2 MSTORE PUSH1 0x20 ADD SWAP1 DUP2 MSTORE PUSH1 0x20 ADD PUSH0 KECCAK256 PUSH0 CALLER PUSH20 0xFFFFFFFFFFFFFFFFFFFFFFFFFFFFFFFFFFFFFFFF AND PUSH20 0xFFFFFFFFFFFFFFFFFFFFFFFFFFFFFFFFFFFFFFFF AND DUP2 MSTORE PUSH1 0x20 ADD SWAP1 DUP2 MSTORE PUSH1 0x20 ADD PUSH0 KECCAK256 PUSH0 SWAP1 SLOAD SWAP1 PUSH2 0x100 EXP SWAP1 DIV PUSH1 0xFF AND ISZERO PUSH2 0xB0A JUMPI PUSH1 0x40 MLOAD PUSH32 0x8C379A000000000000000000000000000000000000000000000000000000000 DUP2 MSTORE PUSH1 0x4 ADD PUSH2 0xB01 SWAP1 PUSH2 0x18D2 JUMP JUMPDEST PUSH1 0x40 MLOAD DUP1 SWAP2 SUB SWAP1 REVERT JUMPDEST PUSH0 PUSH1 0x4 DUP6 DUP2 SLOAD DUP2 LT PUSH2 0xB1F JUMPI PUSH2 0xB1E PUSH2 0x15EE JUMP JUMPDEST JUMPDEST SWAP1 PUSH0 MSTORE PUSH1 0x20 PUSH0 KECCAK256 SWAP1 PUSH1 0x5 MUL ADD SWAP1 POP PUSH1 0x1 DUP2 PUSH1 0x4 ADD PUSH0 DUP3 DUP3 SLOAD PUSH2 0xB41 SWAP2 SWAP1 PUSH2 0x18F0 JUMP JUMPDEST SWAP3 POP POP DUP2 SWAP1 SSTORE POP PUSH1 0x1 PUSH1 0x3 PUSH0 DUP8 DUP2 MSTORE PUSH1 0x20 ADD SWAP1 DUP2 MSTORE PUSH1 0x20 ADD PUSH0 KECCAK256 PUSH0 CALLER PUSH20 0xFFFFFFFFFFFFFFFFFFFFFFFFFFFFFFFFFFFFFFFF AND PUSH20 0xFFFFFFFFFFFFFFFFFFFFFFFFFFFFFFFFFFFFFFFF AND DUP2 MSTORE PUSH1 0x20 ADD SWAP1 DUP2 MSTORE PUSH1 0x20 ADD PUSH0 KECCAK256 PUSH0 PUSH2 0x100 EXP DUP2 SLOAD DUP2 PUSH1 0xFF MUL NOT AND SWAP1 DUP4 ISZERO ISZERO MUL OR SWAP1 SSTORE POP DUP5 CALLER PUSH20 0xFFFFFFFFFFFFFFFFFFFFFFFFFFFFFFFFFFFFFFFF AND PUSH32 0x5CBE105E36805F7820E291F799D5794FF948AF2A5F664E580382DEFB63390041 PUSH1 0x40 MLOAD PUSH1 0x40 MLOAD DUP1 SWAP2 SUB SWAP1 LOG3 POP POP POP POP POP JUMP JUMPDEST PUSH1 0x1 PUSH0 CALLER PUSH20 0xFFFFFFFFFFFFFFFFFFFFFFFFFFFFFFFFFFFFFFFF AND PUSH20 0xFFFFFFFFFFFFFFFFFFFFFFFFFFFFFFFFFFFFFFFF AND DUP2 MSTORE PUSH1 0x20 ADD SWAP1 DUP2 MSTORE PUSH1 0x20 ADD PUSH0 KECCAK256 PUSH0 SWAP1 SLOAD SWAP1 PUSH2 0x100 EXP SWAP1 DIV PUSH1 0xFF AND PUSH2 0xC80 JUMPI PUSH1 0x40 MLOAD PUSH32 0x8C379A000000000000000000000000000000000000000000000000000000000 DUP2 MSTORE PUSH1 0x4 ADD PUSH2 0xC77 SWAP1 PUSH2 0x16D2 JUMP JUMPDEST PUSH1 0x40 MLOAD DUP1 SWAP2 SUB SWAP1 REVERT JUMPDEST PUSH0 PUSH1 0x4 DUP1 SLOAD SWAP1 POP SWAP1 POP PUSH1 0x4 PUSH1 0x40 MLOAD DUP1 PUSH1 0xA0 ADD PUSH1 0x40 MSTORE DUP1 DUP7 PUSH20 0xFFFFFFFFFFFFFFFFFFFFFFFFFFFFFFFFFFFFFFFF AND DUP2 MSTORE PUSH1 0x20 ADD DUP6 DUP2 MSTORE PUSH1 0x20 ADD DUP5 DUP2 MSTORE PUSH1 0x20 ADD PUSH0 ISZERO ISZERO DUP2 MSTORE PUSH1 0x20 ADD PUSH0 DUP2 MSTORE POP SWAP1 DUP1 PUSH1 0x1 DUP2 SLOAD ADD DUP1 DUP3 SSTORE DUP1 SWAP2 POP POP PUSH1 0x1 SWAP1 SUB SWAP1 PUSH0 MSTORE PUSH1 0x20 PUSH0 KECCAK256 SWAP1 PUSH1 0x5 MUL ADD PUSH0 SWAP1 SWAP2 SWAP1 SWAP2 SWAP1 SWAP2 POP PUSH0 DUP3 ADD MLOAD DUP2 PUSH0 ADD PUSH0 PUSH2 0x100 EXP DUP2 SLOAD DUP2 PUSH20 0xFFFFFFFFFFFFFFFFFFFFFFFFFFFFFFFFFFFFFFFF MUL NOT AND SWAP1 DUP4 PUSH20 0xFFFFFFFFFFFFFFFFFFFFFFFFFFFFFFFFFFFFFFFF AND MUL OR SWAP1 SSTORE POP PUSH1 0x20 DUP3 ADD MLOAD DUP2 PUSH1 0x1 ADD SSTORE PUSH1 0x40 DUP3 ADD MLOAD DUP2 PUSH1 0x2 ADD SWAP1 DUP2 PUSH2 0xD53 SWAP2 SWAP1 PUSH2 0x1AC0 JUMP JUMPDEST POP PUSH1 0x60 DUP3 ADD MLOAD DUP2 PUSH1 0x3 ADD PUSH0 PUSH2 0x100 EXP DUP2 SLOAD DUP2 PUSH1 0xFF MUL NOT AND SWAP1 DUP4 ISZERO ISZERO MUL OR SWAP1 SSTORE POP PUSH1 0x80 DUP3 ADD MLOAD DUP2 PUSH1 0x4 ADD SSTORE POP POP DUP4 PUSH20 0xFFFFFFFFFFFFFFFFFFFFFFFFFFFFFFFFFFFFFFFF AND DUP2 CALLER PUSH20 0xFFFFFFFFFFFFFFFFFFFFFFFFFFFFFFFFFFFFFFFF AND PUSH32 0xD5A05BF70715AD82A09A756320284A1B54C9FF74CD0F8CCE6219E79B563FE59D DUP7 DUP7 PUSH1 0x40 MLOAD PUSH2 0xDDF SWAP3 SWAP2 SWAP1 PUSH2 0x1B8F JUMP JUMPDEST PUSH1 0x40 MLOAD DUP1 SWAP2 SUB SWAP1 LOG4 POP POP POP POP JUMP JUMPDEST PUSH1 0x2 SLOAD DUP2 JUMP JUMPDEST PUSH1 0x1 PUSH0 CALLER PUSH20 0xFFFFFFFFFFFFFFFFFFFFFFFFFFFFFFFFFFFFFFFF AND PUSH20 0xFFFFFFFFFFFFFFFFFFFFFFFFFFFFFFFFFFFFFFFF AND DUP2 MSTORE PUSH1 0x20 ADD SWAP1 DUP2 MSTORE PUSH1 0x20 ADD PUSH0 KECCAK256 PUSH0 SWAP1 SLOAD SWAP1 PUSH2 0x100 EXP SWAP1 DIV PUSH1 0xFF AND PUSH2 0xE7C JUMPI PUSH1 0x40 MLOAD PUSH32 0x8C379A000000000000000000000000000000000000000000000000000000000 DUP2 MSTORE PUSH1 0x4 ADD PUSH2 0xE73 SWAP1 PUSH2 0x16D2 JUMP JUMPDEST PUSH1 0x40 MLOAD DUP1 SWAP2 SUB SWAP1 REVERT JUMPDEST DUP1 PUSH1 0x4 DUP1 SLOAD SWAP1 POP DUP2 LT PUSH2 0xEC4 JUMPI PUSH1 0x40 MLOAD PUSH32 0x8C379A000000000000000000000000000000000000000000000000000000000 DUP2 MSTORE PUSH1 0x4 ADD PUSH2 0xEBB SWAP1 PUSH2 0x173A JUMP JUMPDEST PUSH1 0x40 MLOAD DUP1 SWAP2 SUB SWAP1 REVERT JUMPDEST DUP2 PUSH1 0x4 DUP2 DUP2 SLOAD DUP2 LT PUSH2 0xED9 JUMPI PUSH2 0xED8 PUSH2 0x15EE JUMP JUMPDEST JUMPDEST SWAP1 PUSH0 MSTORE PUSH1 0x20 PUSH0 KECCAK256 SWAP1 PUSH1 0x5 MUL ADD PUSH1 0x3 ADD PUSH0 SWAP1 SLOAD SWAP1 PUSH2 0x100 EXP SWAP1 DIV PUSH1 0xFF AND ISZERO PUSH2 0xF35 JUMPI PUSH1 0x40 MLOAD PUSH32 0x8C379A000000000000000000000000000000000000000000000000000000000 DUP2 MSTORE PUSH1 0x4 ADD PUSH2 0xF2C SWAP1 PUSH2 0x17A2 JUMP JUMPDEST PUSH1 0x40 MLOAD DUP1 SWAP2 SUB SWAP1 REVERT JUMPDEST PUSH0 PUSH1 0x4 DUP5 DUP2 SLOAD DUP2 LT PUSH2 0xF4A JUMPI PUSH2 0xF49 PUSH2 0x15EE JUMP JUMPDEST JUMPDEST SWAP1 PUSH0 MSTORE PUSH1 0x20 PUSH0 KECCAK256 SWAP1 PUSH1 0x5 MUL ADD SWAP1 POP PUSH1 0x2 SLOAD DUP2 PUSH1 0x4 ADD SLOAD LT ISZERO PUSH2 0xFA1 JUMPI PUSH1 0x40 MLOAD PUSH32 0x8C379A000000000000000000000000000000000000000000000000000000000 DUP2 MSTORE PUSH1 0x4 ADD PUSH2 0xF98 SWAP1 PUSH2 0x1C07 JUMP JUMPDEST PUSH1 0x40 MLOAD DUP1 SWAP2 SUB SWAP1 REVERT JUMPDEST PUSH1 0x1 DUP2 PUSH1 0x3 ADD PUSH0 PUSH2 0x100 EXP DUP2 SLOAD DUP2 PUSH1 0xFF MUL NOT AND SWAP1 DUP4 ISZERO ISZERO MUL OR SWAP1 SSTORE POP PUSH0 DUP2 PUSH0 ADD PUSH0 SWAP1 SLOAD SWAP1 PUSH2 0x100 EXP SWAP1 DIV PUSH20 0xFFFFFFFFFFFFFFFFFFFFFFFFFFFFFFFFFFFFFFFF AND PUSH20 0xFFFFFFFFFFFFFFFFFFFFFFFFFFFFFFFFFFFFFFFF AND DUP3 PUSH1 0x1 ADD SLOAD DUP4 PUSH1 0x2 ADD PUSH1 0x40 MLOAD PUSH2 0x100D SWAP2 SWAP1 PUSH2 0x1CAF JUMP JUMPDEST PUSH0 PUSH1 0x40 MLOAD DUP1 DUP4 SUB DUP2 DUP6 DUP8 GAS CALL SWAP3 POP POP POP RETURNDATASIZE DUP1 PUSH0 DUP2 EQ PUSH2 0x1047 JUMPI PUSH1 0x40 MLOAD SWAP2 POP PUSH1 0x1F NOT PUSH1 0x3F RETURNDATASIZE ADD AND DUP3 ADD PUSH1 0x40 MSTORE RETURNDATASIZE DUP3 MSTORE RETURNDATASIZE PUSH0 PUSH1 0x20 DUP5 ADD RETURNDATACOPY PUSH2 0x104C JUMP JUMPDEST PUSH1 0x60 SWAP2 POP JUMPDEST POP POP SWAP1 POP DUP1 PUSH2 0x1090 JUMPI PUSH1 0x40 MLOAD PUSH32 0x8C379A000000000000000000000000000000000000000000000000000000000 DUP2 MSTORE PUSH1 0x4 ADD PUSH2 0x1087 SWAP1 PUSH2 0x1D0F JUMP JUMPDEST PUSH1 0x40 MLOAD DUP1 SWAP2 SUB SWAP1 REVERT JUMPDEST DUP5 CALLER PUSH20 0xFFFFFFFFFFFFFFFFFFFFFFFFFFFFFFFFFFFFFFFF AND PUSH32 0x5445F318F4F5FCFB66592E68E0CC5822AA15664039BD5F0FFDE24C5A8142B1AC PUSH1 0x40 MLOAD PUSH1 0x40 MLOAD DUP1 SWAP2 SUB SWAP1 LOG3 POP POP POP POP POP JUMP JUMPDEST PUSH0 DUP2 SWAP1 POP SWAP2 SWAP1 POP JUMP JUMPDEST PUSH2 0x10ED DUP2 PUSH2 0x10DB JUMP JUMPDEST DUP3 MSTORE POP POP JUMP JUMPDEST PUSH0 PUSH1 0x40 DUP3 ADD SWAP1 POP PUSH2 0x1106 PUSH0 DUP4 ADD DUP6 PUSH2 0x10E4 JUMP JUMPDEST PUSH2 0x1113 PUSH1 0x20 DUP4 ADD DUP5 PUSH2 0x10E4 JUMP JUMPDEST SWAP4 SWAP3 POP POP POP JUMP JUMPDEST PUSH0 PUSH1 0x40 MLOAD SWAP1 POP SWAP1 JUMP JUMPDEST PUSH0 DUP1 REVERT JUMPDEST PUSH0 DUP1 REVERT JUMPDEST PUSH2 0x1134 DUP2 PUSH2 0x10DB JUMP JUMPDEST DUP2 EQ PUSH2 0x113E JUMPI PUSH0 DUP1 REVERT JUMPDEST POP JUMP JUMPDEST PUSH0 DUP2 CALLDATALOAD SWAP1 POP PUSH2 0x114F DUP2 PUSH2 0x112B JUMP JUMPDEST SWAP3 SWAP2 POP POP JUMP JUMPDEST PUSH0 PUSH1 0x20 DUP3 DUP5 SUB SLT ISZERO PUSH2 0x116A JUMPI PUSH2 0x1169 PUSH2 0x1123 JUMP JUMPDEST JUMPDEST PUSH0 PUSH2 0x1177 DUP5 DUP3 DUP6 ADD PUSH2 0x1141 JUMP JUMPDEST SWAP2 POP POP SWAP3 SWAP2 POP POP JUMP JUMPDEST PUSH0 PUSH20 0xFFFFFFFFFFFFFFFFFFFFFFFFFFFFFFFFFFFFFFFF DUP3 AND SWAP1 POP SWAP2 SWAP1 POP JUMP JUMPDEST PUSH0 PUSH2 0x11A9 DUP3 PUSH2 0x1180 JUMP JUMPDEST SWAP1 POP SWAP2 SWAP1 POP JUMP JUMPDEST PUSH2 0x11B9 DUP2 PUSH2 0x119F JUMP JUMPDEST DUP3 MSTORE POP POP JUMP JUMPDEST PUSH0 PUSH1 0x20 DUP3 ADD SWAP1 POP PUSH2 0x11D2 PUSH0 DUP4 ADD DUP5 PUSH2 0x11B0 JUMP JUMPDEST SWAP3 SWAP2 POP POP JUMP JUMPDEST PUSH0 PUSH1 0x20 DUP3 ADD SWAP1 POP PUSH2 0x11EB PUSH0 DUP4 ADD DUP5 PUSH2 0x10E4 JUMP JUMPDEST SWAP3 SWAP2 POP POP JUMP JUMPDEST PUSH2 0x11FA DUP2 PUSH2 0x119F JUMP JUMPDEST DUP2 EQ PUSH2 0x1204 JUMPI PUSH0 DUP1 REVERT JUMPDEST POP JUMP JUMPDEST PUSH0 DUP2 CALLDATALOAD SWAP1 POP PUSH2 0x1215 DUP2 PUSH2 0x11F1 JUMP JUMPDEST SWAP3 SWAP2 POP POP JUMP JUMPDEST PUSH0 PUSH1 0x20 DUP3 DUP5 SUB SLT ISZERO PUSH2 0x1230 JUMPI PUSH2 0x122F PUSH2 0x1123 JUMP JUMPDEST JUMPDEST PUSH0 PUSH2 0x123D DUP5 DUP3 DUP6 ADD PUSH2 0x1207 JUMP JUMPDEST SWAP2 POP POP SWAP3 SWAP2 POP POP JUMP JUMPDEST PUSH0 DUP2 ISZERO ISZERO SWAP1 POP SWAP2 SWAP1 POP JUMP JUMPDEST PUSH2 0x125A DUP2 PUSH2 0x1246 JUMP JUMPDEST DUP3 MSTORE POP POP JUMP JUMPDEST PUSH0 PUSH1 0x20 DUP3 ADD SWAP1 POP PUSH2 0x1273 PUSH0 DUP4 ADD DUP5 PUSH2 0x1251 JUMP JUMPDEST SWAP3 SWAP2 POP POP JUMP JUMPDEST PUSH0 DUP2 MLOAD SWAP1 POP SWAP2 SWAP1 POP JUMP JUMPDEST PUSH0 DUP3 DUP3 MSTORE PUSH1 0x20 DUP3 ADD SWAP1 POP SWAP3 SWAP2 POP POP JUMP JUMPDEST DUP3 DUP2 DUP4 MCOPY PUSH0 DUP4 DUP4 ADD MSTORE POP POP POP JUMP JUMPDEST PUSH0 PUSH1 0x1F NOT PUSH1 0x1F DUP4 ADD AND SWAP1 POP SWAP2 SWAP1 POP JUMP JUMPDEST PUSH0 PUSH2 0x12BB DUP3 PUSH2 0x1279 JUMP JUMPDEST PUSH2 0x12C5 DUP2 DUP6 PUSH2 0x1283 JUMP JUMPDEST SWAP4 POP PUSH2 0x12D5 DUP2 DUP6 PUSH1 0x20 DUP7 ADD PUSH2 0x1293 JUMP JUMPDEST PUSH2 0x12DE DUP2 PUSH2 0x12A1 JUMP JUMPDEST DUP5 ADD SWAP2 POP POP SWAP3 SWAP2 POP POP JUMP JUMPDEST PUSH0 PUSH1 0xA0 DUP3 ADD SWAP1 POP PUSH2 0x12FC PUSH0 DUP4 ADD DUP9 PUSH2 0x11B0 JUMP JUMPDEST PUSH2 0x1309 PUSH1 0x20 DUP4 ADD DUP8 PUSH2 0x10E4 JUMP JUMPDEST DUP2 DUP2 SUB PUSH1 0x40 DUP4 ADD MSTORE PUSH2 0x131B DUP2 DUP7 PUSH2 0x12B1 JUMP JUMPDEST SWAP1 POP PUSH2 0x132A PUSH1 0x60 DUP4 ADD DUP6 PUSH2 0x1251 JUMP JUMPDEST PUSH2 0x1337 PUSH1 0x80 DUP4 ADD DUP5 PUSH2 0x10E4 JUMP JUMPDEST SWAP7 SWAP6 POP POP POP POP POP POP JUMP JUMPDEST PUSH0 DUP1 PUSH1 0x40 DUP4 DUP6 SUB SLT ISZERO PUSH2 0x1357 JUMPI PUSH2 0x1356 PUSH2 0x1123 JUMP JUMPDEST JUMPDEST PUSH0 PUSH2 0x1364 DUP6 DUP3 DUP7 ADD PUSH2 0x1141 JUMP JUMPDEST SWAP3 POP POP PUSH1 0x20 PUSH2 0x1375 DUP6 DUP3 DUP7 ADD PUSH2 0x1207 JUMP JUMPDEST SWAP2 POP POP SWAP3 POP SWAP3 SWAP1 POP JUMP JUMPDEST PUSH0 DUP2 MLOAD SWAP1 POP SWAP2 SWAP1 POP JUMP JUMPDEST PUSH0 DUP3 DUP3 MSTORE PUSH1 0x20 DUP3 ADD SWAP1 POP SWAP3 SWAP2 POP POP JUMP JUMPDEST PUSH0 DUP2 SWAP1 POP PUSH1 0x20 DUP3 ADD SWAP1 POP SWAP2 SWAP1 POP JUMP JUMPDEST PUSH2 0x13B1 DUP2 PUSH2 0x119F JUMP JUMPDEST DUP3 MSTORE POP POP JUMP JUMPDEST PUSH0 PUSH2 0x13C2 DUP4 DUP4 PUSH2 0x13A8 JUMP JUMPDEST PUSH1 0x20 DUP4 ADD SWAP1 POP SWAP3 SWAP2 POP POP JUMP JUMPDEST PUSH0 PUSH1 0x20 DUP3 ADD SWAP1 POP SWAP2 SWAP1 POP JUMP JUMPDEST PUSH0 PUSH2 0x13E4 DUP3 PUSH2 0x137F JUMP JUMPDEST PUSH2 0x13EE DUP2 DUP6 PUSH2 0x1389 JUMP JUMPDEST SWAP4 POP PUSH2 0x13F9 DUP4 PUSH2 0x1399 JUMP JUMPDEST DUP1 PUSH0 JUMPDEST DUP4 DUP2 LT ISZERO PUSH2 0x1429 JUMPI DUP2 MLOAD PUSH2 0x1410 DUP9 DUP3 PUSH2 0x13B7 JUMP JUMPDEST SWAP8 POP PUSH2 0x141B DUP4 PUSH2 0x13CE JUMP JUMPDEST SWAP3 POP POP PUSH1 0x1 DUP2 ADD SWAP1 POP PUSH2 0x13FC JUMP JUMPDEST POP DUP6 SWAP4 POP POP POP POP SWAP3 SWAP2 POP POP JUMP JUMPDEST PUSH0 PUSH1 0x20 DUP3 ADD SWAP1 POP DUP2 DUP2 SUB PUSH0 DUP4 ADD MSTORE PUSH2 0x144E DUP2 DUP5 PUSH2 0x13DA JUMP JUMPDEST SWAP1 POP SWAP3 SWAP2 POP POP JUMP JUMPDEST PUSH0 DUP1 REVERT JUMPDEST PUSH0 DUP1 REVERT JUMPDEST PUSH32 0x4E487B7100000000000000000000000000000000000000000000000000000000 PUSH0 MSTORE PUSH1 0x41 PUSH1 0x4 MSTORE PUSH1 0x24 PUSH0 REVERT JUMPDEST PUSH2 0x1494 DUP3 PUSH2 0x12A1 JUMP JUMPDEST DUP2 ADD DUP2 DUP2 LT PUSH8 0xFFFFFFFFFFFFFFFF DUP3 GT OR ISZERO PUSH2 0x14B3 JUMPI PUSH2 0x14B2 PUSH2 0x145E JUMP JUMPDEST JUMPDEST DUP1 PUSH1 0x40 MSTORE POP POP POP JUMP JUMPDEST PUSH0 PUSH2 0x14C5 PUSH2 0x111A JUMP JUMPDEST SWAP1 POP PUSH2 0x14D1 DUP3 DUP3 PUSH2 0x148B JUMP JUMPDEST SWAP2 SWAP1 POP JUMP JUMPDEST PUSH0 PUSH8 0xFFFFFFFFFFFFFFFF DUP3 GT ISZERO PUSH2 0x14F0 JUMPI PUSH2 0x14EF PUSH2 0x145E JUMP JUMPDEST JUMPDEST PUSH2 0x14F9 DUP3 PUSH2 0x12A1 JUMP JUMPDEST SWAP1 POP PUSH1 0x20 DUP2 ADD SWAP1 POP SWAP2 SWAP1 POP JUMP JUMPDEST DUP3 DUP2 DUP4 CALLDATACOPY PUSH0 DUP4 DUP4 ADD MSTORE POP POP POP JUMP JUMPDEST PUSH0 PUSH2 0x1526 PUSH2 0x1521 DUP5 PUSH2 0x14D6 JUMP JUMPDEST PUSH2 0x14BC JUMP JUMPDEST SWAP1 POP DUP3 DUP2 MSTORE PUSH1 0x20 DUP2 ADD DUP5 DUP5 DUP5 ADD GT ISZERO PUSH2 0x1542 JUMPI PUSH2 0x1541 PUSH2 0x145A JUMP JUMPDEST JUMPDEST PUSH2 0x154D DUP5 DUP3 DUP6 PUSH2 0x1506 JUMP JUMPDEST POP SWAP4 SWAP3 POP POP POP JUMP JUMPDEST PUSH0 DUP3 PUSH1 0x1F DUP4 ADD SLT PUSH2 0x1569 JUMPI PUSH2 0x1568 PUSH2 0x1456 JUMP JUMPDEST JUMPDEST DUP2 CALLDATALOAD PUSH2 0x1579 DUP5 DUP3 PUSH1 0x20 DUP7 ADD PUSH2 0x1514 JUMP JUMPDEST SWAP2 POP POP SWAP3 SWAP2 POP POP JUMP JUMPDEST PUSH0 DUP1 PUSH0 PUSH1 0x60 DUP5 DUP7 SUB SLT ISZERO PUSH2 0x1599 JUMPI PUSH2 0x1598 PUSH2 0x1123 JUMP JUMPDEST JUMPDEST PUSH0 PUSH2 0x15A6 DUP7 DUP3 DUP8 ADD PUSH2 0x1207 JUMP JUMPDEST SWAP4 POP POP PUSH1 0x20 PUSH2 0x15B7 DUP7 DUP3 DUP8 ADD PUSH2 0x1141 JUMP JUMPDEST SWAP3 POP POP PUSH1 0x40 DUP5 ADD CALLDATALOAD PUSH8 0xFFFFFFFFFFFFFFFF DUP2 GT ISZERO PUSH2 0x15D8 JUMPI PUSH2 0x15D7 PUSH2 0x1127 JUMP JUMPDEST JUMPDEST PUSH2 0x15E4 DUP7 DUP3 DUP8 ADD PUSH2 0x1555 JUMP JUMPDEST SWAP2 POP POP SWAP3 POP SWAP3 POP SWAP3 JUMP JUMPDEST PUSH32 0x4E487B7100000000000000000000000000000000000000000000000000000000 PUSH0 MSTORE PUSH1 0x32 PUSH1 0x4 MSTORE PUSH1 0x24 PUSH0 REVERT JUMPDEST PUSH32 0x4E487B7100000000000000000000000000000000000000000000000000000000 PUSH0 MSTORE PUSH1 0x22 PUSH1 0x4 MSTORE PUSH1 0x24 PUSH0 REVERT JUMPDEST PUSH0 PUSH1 0x2 DUP3 DIV SWAP1 POP PUSH1 0x1 DUP3 AND DUP1 PUSH2 0x165F JUMPI PUSH1 0x7F DUP3 AND SWAP2 POP JUMPDEST PUSH1 0x20 DUP3 LT DUP2 SUB PUSH2 0x1672 JUMPI PUSH2 0x1671 PUSH2 0x161B JUMP JUMPDEST JUMPDEST POP SWAP2 SWAP1 POP JUMP JUMPDEST PUSH0 DUP3 DUP3 MSTORE PUSH1 0x20 DUP3 ADD SWAP1 POP SWAP3 SWAP2 POP POP JUMP JUMPDEST PUSH32 0x6E6F74206F776E65720000000000000000000000000000000000000000000000 PUSH0 DUP3 ADD MSTORE POP JUMP JUMPDEST PUSH0 PUSH2 0x16BC PUSH1 0x9 DUP4 PUSH2 0x1678 JUMP JUMPDEST SWAP2 POP PUSH2 0x16C7 DUP3 PUSH2 0x1688 JUMP JUMPDEST PUSH1 0x20 DUP3 ADD SWAP1 POP SWAP2 SWAP1 POP JUMP JUMPDEST PUSH0 PUSH1 0x20 DUP3 ADD SWAP1 POP DUP2 DUP2 SUB PUSH0 DUP4 ADD MSTORE PUSH2 0x16E9 DUP2 PUSH2 0x16B0 JUMP JUMPDEST SWAP1 POP SWAP2 SWAP1 POP JUMP JUMPDEST PUSH32 0x747820646F6573206E6F74206578697374730000000000000000000000000000 PUSH0 DUP3 ADD MSTORE POP JUMP JUMPDEST PUSH0 PUSH2 0x1724 PUSH1 0x12 DUP4 PUSH2 0x1678 JUMP JUMPDEST SWAP2 POP PUSH2 0x172F DUP3 PUSH2 0x16F0 JUMP JUMPDEST PUSH1 0x20 DUP3 ADD SWAP1 POP SWAP2 SWAP1 POP JUMP JUMPDEST PUSH0 PUSH1 0x20 DUP3 ADD SWAP1 POP DUP2 DUP2 SUB PUSH0 DUP4 ADD MSTORE PUSH2 0x1751 DUP2 PUSH2 0x1718 JUMP JUMPDEST SWAP1 POP SWAP2 SWAP1 POP JUMP JUMPDEST PUSH32 0x747820616C726565616479206578656375746564000000000000000000000000 PUSH0 DUP3 ADD MSTORE POP JUMP JUMPDEST PUSH0 PUSH2 0x178C PUSH1 0x14 DUP4 PUSH2 0x1678 JUMP JUMPDEST SWAP2 POP PUSH2 0x1797 DUP3 PUSH2 0x1758 JUMP JUMPDEST PUSH1 0x20 DUP3 ADD SWAP1 POP SWAP2 SWAP1 POP JUMP JUMPDEST PUSH0 PUSH1 0x20 DUP3 ADD SWAP1 POP DUP2 DUP2 SUB PUSH0 DUP4 ADD MSTORE PUSH2 0x17B9 DUP2 PUSH2 0x1780 JUMP JUMPDEST SWAP1 POP SWAP2 SWAP1 POP JUMP JUMPDEST PUSH32 0x7478206E6F7420636F6E6669726D656400000000000000000000000000000000 PUSH0 DUP3 ADD MSTORE POP JUMP JUMPDEST PUSH0 PUSH2 0x17F4 PUSH1 0x10 DUP4 PUSH2 0x1678 JUMP JUMPDEST SWAP2 POP PUSH2 0x17FF DUP3 PUSH2 0x17C0 JUMP JUMPDEST PUSH1 0x20 DUP3 ADD SWAP1 POP SWAP2 SWAP1 POP JUMP JUMPDEST PUSH0 PUSH1 0x20 DUP3 ADD SWAP1 POP DUP2 DUP2 SUB PUSH0 DUP4 ADD MSTORE PUSH2 0x1821 DUP2 PUSH2 0x17E8 JUMP JUMPDEST SWAP1 POP SWAP2 SWAP1 POP JUMP JUMPDEST PUSH32 0x4E487B7100000000000000000000000000000000000000000000000000000000 PUSH0 MSTORE PUSH1 0x11 PUSH1 0x4 MSTORE PUSH1 0x24 PUSH0 REVERT JUMPDEST PUSH0 PUSH2 0x185F DUP3 PUSH2 0x10DB JUMP JUMPDEST SWAP2 POP PUSH2 0x186A DUP4 PUSH2 0x10DB JUMP JUMPDEST SWAP3 POP DUP3 DUP3 SUB SWAP1 POP DUP2 DUP2 GT ISZERO PUSH2 0x1882 JUMPI PUSH2 0x1881 PUSH2 0x1828 JUMP JUMPDEST JUMPDEST SWAP3 SWAP2 POP POP JUMP JUMPDEST PUSH32 0x747820616C726561647920636F6E6669726D6564000000000000000000000000 PUSH0 DUP3 ADD MSTORE POP JUMP JUMPDEST PUSH0 PUSH2 0x18BC PUSH1 0x14 DUP4 PUSH2 0x1678 JUMP JUMPDEST SWAP2 POP PUSH2 0x18C7 DUP3 PUSH2 0x1888 JUMP JUMPDEST PUSH1 0x20 DUP3 ADD SWAP1 POP SWAP2 SWAP1 POP JUMP JUMPDEST PUSH0 PUSH1 0x20 DUP3 ADD SWAP1 POP DUP2 DUP2 SUB PUSH0 DUP4 ADD MSTORE PUSH2 0x18E9 DUP2 PUSH2 0x18B0 JUMP JUMPDEST SWAP1 POP SWAP2 SWAP1 POP JUMP JUMPDEST PUSH0 PUSH2 0x18FA DUP3 PUSH2 0x10DB JUMP JUMPDEST SWAP2 POP PUSH2 0x1905 DUP4 PUSH2 0x10DB JUMP JUMPDEST SWAP3 POP DUP3 DUP3 ADD SWAP1 POP DUP1 DUP3 GT ISZERO PUSH2 0x191D JUMPI PUSH2 0x191C PUSH2 0x1828 JUMP JUMPDEST JUMPDEST SWAP3 SWAP2 POP POP JUMP JUMPDEST PUSH0 DUP2 SWAP1 POP DUP2 PUSH0 MSTORE PUSH1 0x20 PUSH0 KECCAK256 SWAP1 POP SWAP2 SWAP1 POP JUMP JUMPDEST PUSH0 PUSH1 0x20 PUSH1 0x1F DUP4 ADD DIV SWAP1 POP SWAP2 SWAP1 POP JUMP JUMPDEST PUSH0 DUP3 DUP3 SHL SWAP1 POP SWAP3 SWAP2 POP POP JUMP JUMPDEST PUSH0 PUSH1 0x8 DUP4 MUL PUSH2 0x197F PUSH32 0xFFFFFFFFFFFFFFFFFFFFFFFFFFFFFFFFFFFFFFFFFFFFFFFFFFFFFFFFFFFFFFFF DUP3 PUSH2 0x1944 JUMP JUMPDEST PUSH2 0x1989 DUP7 DUP4 PUSH2 0x1944 JUMP JUMPDEST SWAP6 POP DUP1 NOT DUP5 AND SWAP4 POP DUP1 DUP7 AND DUP5 OR SWAP3 POP POP POP SWAP4 SWAP3 POP POP POP JUMP JUMPDEST PUSH0 DUP2 SWAP1 POP SWAP2 SWAP1 POP JUMP JUMPDEST PUSH0 PUSH2 0x19C4 PUSH2 0x19BF PUSH2 0x19BA DUP5 PUSH2 0x10DB JUMP JUMPDEST PUSH2 0x19A1 JUMP JUMPDEST PUSH2 0x10DB JUMP JUMPDEST SWAP1 POP SWAP2 SWAP1 POP JUMP JUMPDEST PUSH0 DUP2 SWAP1 POP SWAP2 SWAP1 POP JUMP JUMPDEST PUSH2 0x19DD DUP4 PUSH2 0x19AA JUMP JUMPDEST PUSH2 0x19F1 PUSH2 0x19E9 DUP3 PUSH2 0x19CB JUMP JUMPDEST DUP5 DUP5 SLOAD PUSH2 0x1950 JUMP JUMPDEST DUP3 SSTORE POP POP POP POP JUMP JUMPDEST PUSH0 SWAP1 JUMP JUMPDEST PUSH2 0x1A05 PUSH2 0x19F9 JUMP JUMPDEST PUSH2 0x1A10 DUP2 DUP5 DUP5 PUSH2 0x19D4 JUMP JUMPDEST POP POP POP JUMP JUMPDEST JUMPDEST DUP2 DUP2 LT ISZERO PUSH2 0x1A33 JUMPI PUSH2 0x1A28 PUSH0 DUP3 PUSH2 0x19FD JUMP JUMPDEST PUSH1 0x1 DUP2 ADD SWAP1 POP PUSH2 0x1A16 JUMP JUMPDEST POP POP JUMP JUMPDEST PUSH1 0x1F DUP3 GT ISZERO PUSH2 0x1A78 JUMPI PUSH2 0x1A49 DUP2 PUSH2 0x1923 JUMP JUMPDEST PUSH2 0x1A52 DUP5 PUSH2 0x1935 JUMP JUMPDEST DUP2 ADD PUSH1 0x20 DUP6 LT ISZERO PUSH2 0x1A61 JUMPI DUP2 SWAP1 POP JUMPDEST PUSH2 0x1A75 PUSH2 0x1A6D DUP6 PUSH2 0x1935 JUMP JUMPDEST DUP4 ADD DUP3 PUSH2 0x1A15 JUMP JUMPDEST POP POP JUMPDEST POP POP POP JUMP JUMPDEST PUSH0 DUP3 DUP3 SHR SWAP1 POP SWAP3 SWAP2 POP POP JUMP JUMPDEST PUSH0 PUSH2 0x1A98 PUSH0 NOT DUP5 PUSH1 0x8 MUL PUSH2 0x1A7D JUMP JUMPDEST NOT DUP1 DUP4 AND SWAP2 POP POP SWAP3 SWAP2 POP POP JUMP JUMPDEST PUSH0 PUSH2 0x1AB0 DUP4 DUP4 PUSH2 0x1A89 JUMP JUMPDEST SWAP2 POP DUP3 PUSH1 0x2 MUL DUP3 OR SWAP1 POP SWAP3 SWAP2 POP POP JUMP JUMPDEST PUSH2 0x1AC9 DUP3 PUSH2 0x1279 JUMP JUMPDEST PUSH8 0xFFFFFFFFFFFFFFFF DUP2 GT ISZERO PUSH2 0x1AE2 JUMPI PUSH2 0x1AE1 PUSH2 0x145E JUMP JUMPDEST JUMPDEST PUSH2 0x1AEC DUP3 SLOAD PUSH2 0x1648 JUMP JUMPDEST PUSH2 0x1AF7 DUP3 DUP3 DUP6 PUSH2 0x1A37 JUMP JUMPDEST PUSH0 PUSH1 0x20 SWAP1 POP PUSH1 0x1F DUP4 GT PUSH1 0x1 DUP2 EQ PUSH2 0x1B28 JUMPI PUSH0 DUP5 ISZERO PUSH2 0x1B16 JUMPI DUP3 DUP8 ADD MLOAD SWAP1 POP JUMPDEST PUSH2 0x1B20 DUP6 DUP3 PUSH2 0x1AA5 JUMP JUMPDEST DUP7 SSTORE POP PUSH2 0x1B87 JUMP JUMPDEST PUSH1 0x1F NOT DUP5 AND PUSH2 0x1B36 DUP7 PUSH2 0x1923 JUMP JUMPDEST PUSH0 JUMPDEST DUP3 DUP2 LT ISZERO PUSH2 0x1B5D JUMPI DUP5 DUP10 ADD MLOAD DUP3 SSTORE PUSH1 0x1 DUP3 ADD SWAP2 POP PUSH1 0x20 DUP6 ADD SWAP5 POP PUSH1 0x20 DUP2 ADD SWAP1 POP PUSH2 0x1B38 JUMP JUMPDEST DUP7 DUP4 LT ISZERO PUSH2 0x1B7A JUMPI DUP5 DUP10 ADD MLOAD PUSH2 0x1B76 PUSH1 0x1F DUP10 AND DUP3 PUSH2 0x1A89 JUMP JUMPDEST DUP4 SSTORE POP JUMPDEST PUSH1 0x1 PUSH1 0x2 DUP9 MUL ADD DUP9 SSTORE POP POP POP JUMPDEST POP POP POP POP POP POP JUMP JUMPDEST PUSH0 PUSH1 0x40 DUP3 ADD SWAP1 POP PUSH2 0x1BA2 PUSH0 DUP4 ADD DUP6 PUSH2 0x10E4 JUMP JUMPDEST DUP2 DUP2 SUB PUSH1 0x20 DUP4 ADD MSTORE PUSH2 0x1BB4 DUP2 DUP5 PUSH2 0x12B1 JUMP JUMPDEST SWAP1 POP SWAP4 SWAP3 POP POP POP JUMP JUMPDEST PUSH32 0x63616E6E6F742065786563757465206974000000000000000000000000000000 PUSH0 DUP3 ADD MSTORE POP JUMP JUMPDEST PUSH0 PUSH2 0x1BF1 PUSH1 0x11 DUP4 PUSH2 0x1678 JUMP JUMPDEST SWAP2 POP PUSH2 0x1BFC DUP3 PUSH2 0x1BBD JUMP JUMPDEST PUSH1 0x20 DUP3 ADD SWAP1 POP SWAP2 SWAP1 POP JUMP JUMPDEST PUSH0 PUSH1 0x20 DUP3 ADD SWAP1 POP DUP2 DUP2 SUB PUSH0 DUP4 ADD MSTORE PUSH2 0x1C1E DUP2 PUSH2 0x1BE5 JUMP JUMPDEST SWAP1 POP SWAP2 SWAP1 POP JUMP JUMPDEST PUSH0 DUP2 SWAP1 POP SWAP3 SWAP2 POP POP JUMP JUMPDEST PUSH0 DUP2 SLOAD PUSH2 0x1C3B DUP2 PUSH2 0x1648 JUMP JUMPDEST PUSH2 0x1C45 DUP2 DUP7 PUSH2 0x1C25 JUMP JUMPDEST SWAP5 POP PUSH1 0x1 DUP3 AND PUSH0 DUP2 EQ PUSH2 0x1C5F JUMPI PUSH1 0x1 DUP2 EQ PUSH2 0x1C74 JUMPI PUSH2 0x1CA6 JUMP JUMPDEST PUSH1 0xFF NOT DUP4 AND DUP7 MSTORE DUP2 ISZERO ISZERO DUP3 MUL DUP7 ADD SWAP4 POP PUSH2 0x1CA6 JUMP JUMPDEST PUSH2 0x1C7D DUP6 PUSH2 0x1923 JUMP JUMPDEST PUSH0 JUMPDEST DUP4 DUP2 LT ISZERO PUSH2 0x1C9E JUMPI DUP2 SLOAD DUP2 DUP10 ADD MSTORE PUSH1 0x1 DUP3 ADD SWAP2 POP PUSH1 0x20 DUP2 ADD SWAP1 POP PUSH2 0x1C7F JUMP JUMPDEST DUP4 DUP9 ADD SWAP6 POP POP POP JUMPDEST POP POP POP SWAP3 SWAP2 POP POP JUMP JUMPDEST PUSH0 PUSH2 0x1CBA DUP3 DUP5 PUSH2 0x1C2F JUMP JUMPDEST SWAP2 POP DUP2 SWAP1 POP SWAP3 SWAP2 POP POP JUMP JUMPDEST PUSH32 0x7478206661696C65640000000000000000000000000000000000000000000000 PUSH0 DUP3 ADD MSTORE POP JUMP JUMPDEST PUSH0 PUSH2 0x1CF9 PUSH1 0x9 DUP4 PUSH2 0x1678 JUMP JUMPDEST SWAP2 POP PUSH2 0x1D04 DUP3 PUSH2 0x1CC5 JUMP JUMPDEST PUSH1 0x20 DUP3 ADD SWAP1 POP SWAP2 SWAP1 POP JUMP JUMPDEST PUSH0 PUSH1 0x20 DUP3 ADD SWAP1 POP DUP2 DUP2 SUB PUSH0 DUP4 ADD MSTORE PUSH2 0x1D26 DUP2 PUSH2 0x1CED JUMP JUMPDEST SWAP1 POP SWAP2 SWAP1 POP JUMP INVALID LOG2 PUSH5 0x6970667358 0x22 SLT KECCAK256 LT STATICCALL 0xCA PUSH6 0x3E347E2D1C97 PUSH24 0x85EFEF69EC9D04F16EC2BF0AA7981F7AAD257D20D864736F PUSH13 0x634300081A0033000000000000 "
				},
				"gasEstimates": {
					"creation": {
						"codeDepositCost": "1504600",
						"executionCost": "infinite",
						"totalCost": "infinite"
					},
					"external": {
						"confirmTransaction(uint256)": "infinite",
						"executeTransaction(uint256)": "infinite",
						"getOwners()": "infinite",
						"getTransaction(uint256)": "infinite",
						"getTransactionCount()": "2463",
						"isConfirmed(uint256,address)": "3182",
						"isOwner(address)": "2878",
						"numConfirmationsRequired()": "2513",
						"owners(uint256)": "4944",
						"revokeTransaction(uint256)": "infinite",
						"submitTransaction(address,uint256,bytes)": "infinite",
						"transactions(uint256)": "infinite"
					}
				},
				"methodIdentifiers": {
					"confirmTransaction(uint256)": "c01a8c84",
					"executeTransaction(uint256)": "ee22610b",
					"getOwners()": "a0e67e2b",
					"getTransaction(uint256)": "33ea3dc8",
					"getTransactionCount()": "2e7700f0",
					"isConfirmed(uint256,address)": "80f59a65",
					"isOwner(address)": "2f54bf6e",
					"numConfirmationsRequired()": "d0549b85",
					"owners(uint256)": "025e7c27",
					"revokeTransaction(uint256)": "735631ad",
					"submitTransaction(address,uint256,bytes)": "c6427474",
					"transactions(uint256)": "9ace38c2"
				}
			},
			"storageLayout": {
				"storage": [
					{
						"astId": 42,
						"contract": "Applications/MultiSigWallet.sol:MultiSigWallet",
						"label": "owners",
						"offset": 0,
						"slot": "0",
						"type": "t_array(t_address)dyn_storage"
					},
					{
						"astId": 46,
						"contract": "Applications/MultiSigWallet.sol:MultiSigWallet",
						"label": "isOwner",
						"offset": 0,
						"slot": "1",
						"type": "t_mapping(t_address,t_bool)"
					},
					{
						"astId": 48,
						"contract": "Applications/MultiSigWallet.sol:MultiSigWallet",
						"label": "numConfirmationsRequired",
						"offset": 0,
						"slot": "2",
						"type": "t_uint256"
					},
					{
						"astId": 65,
						"contract": "Applications/MultiSigWallet.sol:MultiSigWallet",
						"label": "isConfirmed",
						"offset": 0,
						"slot": "3",
						"type": "t_mapping(t_uint256,t_mapping(t_address,t_bool))"
					},
					{
						"astId": 69,
						"contract": "Applications/MultiSigWallet.sol:MultiSigWallet",
						"label": "transactions",
						"offset": 0,
						"slot": "4",
						"type": "t_array(t_struct(Transaction)59_storage)dyn_storage"
					}
				],
				"types": {
					"t_address": {
						"encoding": "inplace",
						"label": "address",
						"numberOfBytes": "20"
					},
					"t_array(t_address)dyn_storage": {
						"base": "t_address",
						"encoding": "dynamic_array",
						"label": "address[]",
						"numberOfBytes": "32"
					},
					"t_array(t_struct(Transaction)59_storage)dyn_storage": {
						"base": "t_struct(Transaction)59_storage",
						"encoding": "dynamic_array",
						"label": "struct MultiSigWallet.Transaction[]",
						"numberOfBytes": "32"
					},
					"t_bool": {
						"encoding": "inplace",
						"label": "bool",
						"numberOfBytes": "1"
					},
					"t_bytes_storage": {
						"encoding": "bytes",
						"label": "bytes",
						"numberOfBytes": "32"
					},
					"t_mapping(t_address,t_bool)": {
						"encoding": "mapping",
						"key": "t_address",
						"label": "mapping(address => bool)",
						"numberOfBytes": "32",
						"value": "t_bool"
					},
					"t_mapping(t_uint256,t_mapping(t_address,t_bool))": {
						"encoding": "mapping",
						"key": "t_uint256",
						"label": "mapping(uint256 => mapping(address => bool))",
						"numberOfBytes": "32",
						"value": "t_mapping(t_address,t_bool)"
					},
					"t_struct(Transaction)59_storage": {
						"encoding": "inplace",
						"label": "struct MultiSigWallet.Transaction",
						"members": [
							{
								"astId": 50,
								"contract": "Applications/MultiSigWallet.sol:MultiSigWallet",
								"label": "to",
								"offset": 0,
								"slot": "0",
								"type": "t_address"
							},
							{
								"astId": 52,
								"contract": "Applications/MultiSigWallet.sol:MultiSigWallet",
								"label": "value",
								"offset": 0,
								"slot": "1",
								"type": "t_uint256"
							},
							{
								"astId": 54,
								"contract": "Applications/MultiSigWallet.sol:MultiSigWallet",
								"label": "data",
								"offset": 0,
								"slot": "2",
								"type": "t_bytes_storage"
							},
							{
								"astId": 56,
								"contract": "Applications/MultiSigWallet.sol:MultiSigWallet",
								"label": "executed",
								"offset": 0,
								"slot": "3",
								"type": "t_bool"
							},
							{
								"astId": 58,
								"contract": "Applications/MultiSigWallet.sol:MultiSigWallet",
								"label": "numConfirmations",
								"offset": 0,
								"slot": "4",
								"type": "t_uint256"
							}
						],
						"numberOfBytes": "160"
					},
					"t_uint256": {
						"encoding": "inplace",
						"label": "uint256",
						"numberOfBytes": "32"
					}
				}
			},
			"userdoc": {
				"kind": "user",
				"methods": {},
				"version": 1
			}
		}
	}
}