{
	"Applications/UniDirectionalPaymentCheck.sol": {
		"UniDirectionalPaymentChannel": {
			"abi": [
				{
					"inputs": [
						{
							"internalType": "address payable",
							"name": "_receiver",
							"type": "address"
						}
					],
					"stateMutability": "payable",
					"type": "constructor"
				},
				{
					"inputs": [],
					"name": "cancel",
					"outputs": [],
					"stateMutability": "nonpayable",
					"type": "function"
				},
				{
					"inputs": [
						{
							"internalType": "uint256",
							"name": "_amount",
							"type": "uint256"
						},
						{
							"internalType": "bytes",
							"name": "_sig",
							"type": "bytes"
						}
					],
					"name": "close",
					"outputs": [],
					"stateMutability": "nonpayable",
					"type": "function"
				},
				{
					"inputs": [],
					"name": "expiresAt",
					"outputs": [
						{
							"internalType": "uint256",
							"name": "",
							"type": "uint256"
						}
					],
					"stateMutability": "view",
					"type": "function"
				},
				{
					"inputs": [
						{
							"internalType": "uint256",
							"name": "_amount",
							"type": "uint256"
						}
					],
					"name": "getEthSignedHash",
					"outputs": [
						{
							"internalType": "bytes32",
							"name": "",
							"type": "bytes32"
						}
					],
					"stateMutability": "view",
					"type": "function"
				},
				{
					"inputs": [
						{
							"internalType": "uint256",
							"name": "_amount",
							"type": "uint256"
						}
					],
					"name": "getHash",
					"outputs": [
						{
							"internalType": "bytes32",
							"name": "",
							"type": "bytes32"
						}
					],
					"stateMutability": "view",
					"type": "function"
				},
				{
					"inputs": [],
					"name": "receiver",
					"outputs": [
						{
							"internalType": "address payable",
							"name": "",
							"type": "address"
						}
					],
					"stateMutability": "view",
					"type": "function"
				},
				{
					"inputs": [],
					"name": "sender",
					"outputs": [
						{
							"internalType": "address payable",
							"name": "",
							"type": "address"
						}
					],
					"stateMutability": "view",
					"type": "function"
				},
				{
					"inputs": [
						{
							"internalType": "uint256",
							"name": "_amount",
							"type": "uint256"
						},
						{
							"internalType": "bytes",
							"name": "_sig",
							"type": "bytes"
						}
					],
					"name": "verify",
					"outputs": [
						{
							"internalType": "bool",
							"name": "",
							"type": "bool"
						}
					],
					"stateMutability": "view",
					"type": "function"
				}
			],
			"devdoc": {
				"kind": "dev",
				"methods": {},
				"version": 1
			},
			"evm": {
				"assembly": "    /* \"Applications/UniDirectionalPaymentCheck.sol\":847:2978  contract UniDirectionalPaymentChannel is ReentrancyGuard {... */\n  mstore(0x40, 0x80)\n    /* \"Applications/UniDirectionalPaymentCheck.sol\":1111:1355  constructor(address payable _receiver) payable {... */\n  mload(0x40)\n  sub(codesize, bytecodeSize)\n  dup1\n  bytecodeSize\n  dup4\n  codecopy\n  dup2\n  dup2\n  add\n  0x40\n  mstore\n  dup2\n  add\n  swap1\n  tag_1\n  swap2\n  swap1\n  tag_2\n  jump\t// in\ntag_1:\n    /* \"Applications/UniDirectionalPaymentCheck.sol\":1198:1199  0 */\n  0x00\n    /* \"Applications/UniDirectionalPaymentCheck.sol\":1177:1200  _receiver != address(0) */\n  0xffffffffffffffffffffffffffffffffffffffff\n  and\n    /* \"Applications/UniDirectionalPaymentCheck.sol\":1177:1186  _receiver */\n  dup2\n    /* \"Applications/UniDirectionalPaymentCheck.sol\":1177:1200  _receiver != address(0) */\n  0xffffffffffffffffffffffffffffffffffffffff\n  and\n  sub\n    /* \"Applications/UniDirectionalPaymentCheck.sol\":1169:1228  require(_receiver != address(0), \"receiver = zero address\") */\n  tag_5\n  jumpi\n  mload(0x40)\n  0x08c379a000000000000000000000000000000000000000000000000000000000\n  dup2\n  mstore\n  0x04\n  add\n  tag_6\n  swap1\n  tag_7\n  jump\t// in\ntag_6:\n  mload(0x40)\n  dup1\n  swap2\n  sub\n  swap1\n  revert\ntag_5:\n    /* \"Applications/UniDirectionalPaymentCheck.sol\":1256:1266  msg.sender */\n  caller\n    /* \"Applications/UniDirectionalPaymentCheck.sol\":1239:1245  sender */\n  0x00\n  0x01\n    /* \"Applications/UniDirectionalPaymentCheck.sol\":1239:1267  sender = payable(msg.sender) */\n  0x0100\n  exp\n  dup2\n  sload\n  dup2\n  0xffffffffffffffffffffffffffffffffffffffff\n  mul\n  not\n  and\n  swap1\n  dup4\n  0xffffffffffffffffffffffffffffffffffffffff\n  and\n  mul\n  or\n  swap1\n  sstore\n  pop\n    /* \"Applications/UniDirectionalPaymentCheck.sol\":1289:1298  _receiver */\n  dup1\n    /* \"Applications/UniDirectionalPaymentCheck.sol\":1278:1286  receiver */\n  0x01\n  0x00\n    /* \"Applications/UniDirectionalPaymentCheck.sol\":1278:1298  receiver = _receiver */\n  0x0100\n  exp\n  dup2\n  sload\n  dup2\n  0xffffffffffffffffffffffffffffffffffffffff\n  mul\n  not\n  and\n  swap1\n  dup4\n  0xffffffffffffffffffffffffffffffffffffffff\n  and\n  mul\n  or\n  swap1\n  sstore\n  pop\n    /* \"Applications/UniDirectionalPaymentCheck.sol\":1055:1071  7 * 24 * 60 * 60 */\n  0x093a80\n    /* \"Applications/UniDirectionalPaymentCheck.sol\":1321:1336  block.timestamp */\n  timestamp\n    /* \"Applications/UniDirectionalPaymentCheck.sol\":1321:1347  block.timestamp + DURATION */\n  tag_8\n  swap2\n  swap1\n  tag_9\n  jump\t// in\ntag_8:\n    /* \"Applications/UniDirectionalPaymentCheck.sol\":1309:1318  expiresAt */\n  0x02\n    /* \"Applications/UniDirectionalPaymentCheck.sol\":1309:1347  expiresAt = block.timestamp + DURATION */\n  dup2\n  swap1\n  sstore\n  pop\n    /* \"Applications/UniDirectionalPaymentCheck.sol\":1111:1355  constructor(address payable _receiver) payable {... */\n  pop\n    /* \"Applications/UniDirectionalPaymentCheck.sol\":847:2978  contract UniDirectionalPaymentChannel is ReentrancyGuard {... */\n  jump(tag_10)\n    /* \"#utility.yul\":88:205   */\ntag_12:\n    /* \"#utility.yul\":197:198   */\n  0x00\n    /* \"#utility.yul\":194:195   */\n  dup1\n    /* \"#utility.yul\":187:199   */\n  revert\n    /* \"#utility.yul\":334:460   */\ntag_14:\n    /* \"#utility.yul\":371:378   */\n  0x00\n    /* \"#utility.yul\":411:453   */\n  0xffffffffffffffffffffffffffffffffffffffff\n    /* \"#utility.yul\":404:409   */\n  dup3\n    /* \"#utility.yul\":400:454   */\n  and\n    /* \"#utility.yul\":389:454   */\n  swap1\n  pop\n    /* \"#utility.yul\":334:460   */\n  swap2\n  swap1\n  pop\n  jump\t// out\n    /* \"#utility.yul\":466:570   */\ntag_15:\n    /* \"#utility.yul\":511:518   */\n  0x00\n    /* \"#utility.yul\":540:564   */\n  tag_29\n    /* \"#utility.yul\":558:563   */\n  dup3\n    /* \"#utility.yul\":540:564   */\n  tag_14\n  jump\t// in\ntag_29:\n    /* \"#utility.yul\":529:564   */\n  swap1\n  pop\n    /* \"#utility.yul\":466:570   */\n  swap2\n  swap1\n  pop\n  jump\t// out\n    /* \"#utility.yul\":576:714   */\ntag_16:\n    /* \"#utility.yul\":657:689   */\n  tag_31\n    /* \"#utility.yul\":683:688   */\n  dup2\n    /* \"#utility.yul\":657:689   */\n  tag_15\n  jump\t// in\ntag_31:\n    /* \"#utility.yul\":650:655   */\n  dup2\n    /* \"#utility.yul\":647:690   */\n  eq\n    /* \"#utility.yul\":637:708   */\n  tag_32\n  jumpi\n    /* \"#utility.yul\":704:705   */\n  0x00\n    /* \"#utility.yul\":701:702   */\n  dup1\n    /* \"#utility.yul\":694:706   */\n  revert\n    /* \"#utility.yul\":637:708   */\ntag_32:\n    /* \"#utility.yul\":576:714   */\n  pop\n  jump\t// out\n    /* \"#utility.yul\":720:879   */\ntag_17:\n    /* \"#utility.yul\":785:790   */\n  0x00\n    /* \"#utility.yul\":816:822   */\n  dup2\n    /* \"#utility.yul\":810:823   */\n  mload\n    /* \"#utility.yul\":801:823   */\n  swap1\n  pop\n    /* \"#utility.yul\":832:873   */\n  tag_34\n    /* \"#utility.yul\":867:872   */\n  dup2\n    /* \"#utility.yul\":832:873   */\n  tag_16\n  jump\t// in\ntag_34:\n    /* \"#utility.yul\":720:879   */\n  swap3\n  swap2\n  pop\n  pop\n  jump\t// out\n    /* \"#utility.yul\":885:1252   */\ntag_2:\n    /* \"#utility.yul\":963:969   */\n  0x00\n    /* \"#utility.yul\":1012:1014   */\n  0x20\n    /* \"#utility.yul\":1000:1009   */\n  dup3\n    /* \"#utility.yul\":991:998   */\n  dup5\n    /* \"#utility.yul\":987:1010   */\n  sub\n    /* \"#utility.yul\":983:1015   */\n  slt\n    /* \"#utility.yul\":980:1099   */\n  iszero\n  tag_36\n  jumpi\n    /* \"#utility.yul\":1018:1097   */\n  tag_37\n  tag_12\n  jump\t// in\ntag_37:\n    /* \"#utility.yul\":980:1099   */\ntag_36:\n    /* \"#utility.yul\":1138:1139   */\n  0x00\n    /* \"#utility.yul\":1163:1235   */\n  tag_38\n    /* \"#utility.yul\":1227:1234   */\n  dup5\n    /* \"#utility.yul\":1218:1224   */\n  dup3\n    /* \"#utility.yul\":1207:1216   */\n  dup6\n    /* \"#utility.yul\":1203:1225   */\n  add\n    /* \"#utility.yul\":1163:1235   */\n  tag_17\n  jump\t// in\ntag_38:\n    /* \"#utility.yul\":1153:1235   */\n  swap2\n  pop\n    /* \"#utility.yul\":1109:1245   */\n  pop\n    /* \"#utility.yul\":885:1252   */\n  swap3\n  swap2\n  pop\n  pop\n  jump\t// out\n    /* \"#utility.yul\":1258:1427   */\ntag_18:\n    /* \"#utility.yul\":1342:1353   */\n  0x00\n    /* \"#utility.yul\":1376:1382   */\n  dup3\n    /* \"#utility.yul\":1371:1374   */\n  dup3\n    /* \"#utility.yul\":1364:1383   */\n  mstore\n    /* \"#utility.yul\":1416:1420   */\n  0x20\n    /* \"#utility.yul\":1411:1414   */\n  dup3\n    /* \"#utility.yul\":1407:1421   */\n  add\n    /* \"#utility.yul\":1392:1421   */\n  swap1\n  pop\n    /* \"#utility.yul\":1258:1427   */\n  swap3\n  swap2\n  pop\n  pop\n  jump\t// out\n    /* \"#utility.yul\":1433:1606   */\ntag_19:\n    /* \"#utility.yul\":1573:1598   */\n  0x7265636569766572203d207a65726f2061646472657373000000000000000000\n    /* \"#utility.yul\":1569:1570   */\n  0x00\n    /* \"#utility.yul\":1561:1567   */\n  dup3\n    /* \"#utility.yul\":1557:1571   */\n  add\n    /* \"#utility.yul\":1550:1599   */\n  mstore\n    /* \"#utility.yul\":1433:1606   */\n  pop\n  jump\t// out\n    /* \"#utility.yul\":1612:1978   */\ntag_20:\n    /* \"#utility.yul\":1754:1757   */\n  0x00\n    /* \"#utility.yul\":1775:1842   */\n  tag_42\n    /* \"#utility.yul\":1839:1841   */\n  0x17\n    /* \"#utility.yul\":1834:1837   */\n  dup4\n    /* \"#utility.yul\":1775:1842   */\n  tag_18\n  jump\t// in\ntag_42:\n    /* \"#utility.yul\":1768:1842   */\n  swap2\n  pop\n    /* \"#utility.yul\":1851:1944   */\n  tag_43\n    /* \"#utility.yul\":1940:1943   */\n  dup3\n    /* \"#utility.yul\":1851:1944   */\n  tag_19\n  jump\t// in\ntag_43:\n    /* \"#utility.yul\":1969:1971   */\n  0x20\n    /* \"#utility.yul\":1964:1967   */\n  dup3\n    /* \"#utility.yul\":1960:1972   */\n  add\n    /* \"#utility.yul\":1953:1972   */\n  swap1\n  pop\n    /* \"#utility.yul\":1612:1978   */\n  swap2\n  swap1\n  pop\n  jump\t// out\n    /* \"#utility.yul\":1984:2403   */\ntag_7:\n    /* \"#utility.yul\":2150:2154   */\n  0x00\n    /* \"#utility.yul\":2188:2190   */\n  0x20\n    /* \"#utility.yul\":2177:2186   */\n  dup3\n    /* \"#utility.yul\":2173:2191   */\n  add\n    /* \"#utility.yul\":2165:2191   */\n  swap1\n  pop\n    /* \"#utility.yul\":2237:2246   */\n  dup2\n    /* \"#utility.yul\":2231:2235   */\n  dup2\n    /* \"#utility.yul\":2227:2247   */\n  sub\n    /* \"#utility.yul\":2223:2224   */\n  0x00\n    /* \"#utility.yul\":2212:2221   */\n  dup4\n    /* \"#utility.yul\":2208:2225   */\n  add\n    /* \"#utility.yul\":2201:2248   */\n  mstore\n    /* \"#utility.yul\":2265:2396   */\n  tag_45\n    /* \"#utility.yul\":2391:2395   */\n  dup2\n    /* \"#utility.yul\":2265:2396   */\n  tag_20\n  jump\t// in\ntag_45:\n    /* \"#utility.yul\":2257:2396   */\n  swap1\n  pop\n    /* \"#utility.yul\":1984:2403   */\n  swap2\n  swap1\n  pop\n  jump\t// out\n    /* \"#utility.yul\":2409:2486   */\ntag_21:\n    /* \"#utility.yul\":2446:2453   */\n  0x00\n    /* \"#utility.yul\":2475:2480   */\n  dup2\n    /* \"#utility.yul\":2464:2480   */\n  swap1\n  pop\n    /* \"#utility.yul\":2409:2486   */\n  swap2\n  swap1\n  pop\n  jump\t// out\n    /* \"#utility.yul\":2492:2672   */\ntag_22:\n    /* \"#utility.yul\":2540:2617   */\n  0x4e487b7100000000000000000000000000000000000000000000000000000000\n    /* \"#utility.yul\":2537:2538   */\n  0x00\n    /* \"#utility.yul\":2530:2618   */\n  mstore\n    /* \"#utility.yul\":2637:2641   */\n  0x11\n    /* \"#utility.yul\":2634:2635   */\n  0x04\n    /* \"#utility.yul\":2627:2642   */\n  mstore\n    /* \"#utility.yul\":2661:2665   */\n  0x24\n    /* \"#utility.yul\":2658:2659   */\n  0x00\n    /* \"#utility.yul\":2651:2666   */\n  revert\n    /* \"#utility.yul\":2678:2869   */\ntag_9:\n    /* \"#utility.yul\":2718:2721   */\n  0x00\n    /* \"#utility.yul\":2737:2757   */\n  tag_49\n    /* \"#utility.yul\":2755:2756   */\n  dup3\n    /* \"#utility.yul\":2737:2757   */\n  tag_21\n  jump\t// in\ntag_49:\n    /* \"#utility.yul\":2732:2757   */\n  swap2\n  pop\n    /* \"#utility.yul\":2771:2791   */\n  tag_50\n    /* \"#utility.yul\":2789:2790   */\n  dup4\n    /* \"#utility.yul\":2771:2791   */\n  tag_21\n  jump\t// in\ntag_50:\n    /* \"#utility.yul\":2766:2791   */\n  swap3\n  pop\n    /* \"#utility.yul\":2814:2815   */\n  dup3\n    /* \"#utility.yul\":2811:2812   */\n  dup3\n    /* \"#utility.yul\":2807:2816   */\n  add\n    /* \"#utility.yul\":2800:2816   */\n  swap1\n  pop\n    /* \"#utility.yul\":2835:2838   */\n  dup1\n    /* \"#utility.yul\":2832:2833   */\n  dup3\n    /* \"#utility.yul\":2829:2839   */\n  gt\n    /* \"#utility.yul\":2826:2862   */\n  iszero\n  tag_51\n  jumpi\n    /* \"#utility.yul\":2842:2860   */\n  tag_52\n  tag_22\n  jump\t// in\ntag_52:\n    /* \"#utility.yul\":2826:2862   */\ntag_51:\n    /* \"#utility.yul\":2678:2869   */\n  swap3\n  swap2\n  pop\n  pop\n  jump\t// out\n    /* \"Applications/UniDirectionalPaymentCheck.sol\":847:2978  contract UniDirectionalPaymentChannel is ReentrancyGuard {... */\ntag_10:\n  dataSize(sub_0)\n  dup1\n  dataOffset(sub_0)\n  0x00\n  codecopy\n  0x00\n  return\nstop\n\nsub_0: assembly {\n        /* \"Applications/UniDirectionalPaymentCheck.sol\":847:2978  contract UniDirectionalPaymentChannel is ReentrancyGuard {... */\n      mstore(0x40, 0x80)\n      callvalue\n      dup1\n      iszero\n      tag_1\n      jumpi\n      0x00\n      dup1\n      revert\n    tag_1:\n      pop\n      jumpi(tag_2, lt(calldatasize, 0x04))\n      shr(0xe0, calldataload(0x00))\n      dup1\n      0x85852ce4\n      gt\n      tag_11\n      jumpi\n      dup1\n      0x85852ce4\n      eq\n      tag_7\n      jumpi\n      dup1\n      0x8622a689\n      eq\n      tag_8\n      jumpi\n      dup1\n      0xea8a1af0\n      eq\n      tag_9\n      jumpi\n      dup1\n      0xf7260d3e\n      eq\n      tag_10\n      jumpi\n      jump(tag_2)\n    tag_11:\n      dup1\n      0x415ffba7\n      eq\n      tag_3\n      jumpi\n      dup1\n      0x552f50b6\n      eq\n      tag_4\n      jumpi\n      dup1\n      0x67e404ce\n      eq\n      tag_5\n      jumpi\n      dup1\n      0x6b2fafa9\n      eq\n      tag_6\n      jumpi\n    tag_2:\n      0x00\n      dup1\n      revert\n        /* \"Applications/UniDirectionalPaymentCheck.sol\":2464:2790  function close(uint256 _amount, bytes memory _sig) external guard {... */\n    tag_3:\n      tag_12\n      0x04\n      dup1\n      calldatasize\n      sub\n      dup2\n      add\n      swap1\n      tag_13\n      swap2\n      swap1\n      tag_14\n      jump\t// in\n    tag_13:\n      tag_15\n      jump\t// in\n    tag_12:\n      stop\n        /* \"Applications/UniDirectionalPaymentCheck.sol\":1931:2090  function getEthSignedHash(uint256 _amount)... */\n    tag_4:\n      tag_16\n      0x04\n      dup1\n      calldatasize\n      sub\n      dup2\n      add\n      swap1\n      tag_17\n      swap2\n      swap1\n      tag_18\n      jump\t// in\n    tag_17:\n      tag_19\n      jump\t// in\n    tag_16:\n      mload(0x40)\n      tag_20\n      swap2\n      swap1\n      tag_21\n      jump\t// in\n    tag_20:\n      mload(0x40)\n      dup1\n      swap2\n      sub\n      swap1\n      return\n        /* \"Applications/UniDirectionalPaymentCheck.sol\":943:972  address payable public sender */\n    tag_5:\n      tag_22\n      tag_23\n      jump\t// in\n    tag_22:\n      mload(0x40)\n      tag_24\n      swap2\n      swap1\n      tag_25\n      jump\t// in\n    tag_24:\n      mload(0x40)\n      dup1\n      swap2\n      sub\n      swap1\n      return\n        /* \"Applications/UniDirectionalPaymentCheck.sol\":1631:1740  function getHash(uint256 _amount) external view returns (bytes32) {... */\n    tag_6:\n      tag_26\n      0x04\n      dup1\n      calldatasize\n      sub\n      dup2\n      add\n      swap1\n      tag_27\n      swap2\n      swap1\n      tag_18\n      jump\t// in\n    tag_27:\n      tag_28\n      jump\t// in\n    tag_26:\n      mload(0x40)\n      tag_29\n      swap2\n      swap1\n      tag_21\n      jump\t// in\n    tag_29:\n      mload(0x40)\n      dup1\n      swap2\n      sub\n      swap1\n      return\n        /* \"Applications/UniDirectionalPaymentCheck.sol\":2295:2456  function verify(uint256 _amount, bytes memory _sig)... */\n    tag_7:\n      tag_30\n      0x04\n      dup1\n      calldatasize\n      sub\n      dup2\n      add\n      swap1\n      tag_31\n      swap2\n      swap1\n      tag_14\n      jump\t// in\n    tag_31:\n      tag_32\n      jump\t// in\n    tag_30:\n      mload(0x40)\n      tag_33\n      swap2\n      swap1\n      tag_34\n      jump\t// in\n    tag_33:\n      mload(0x40)\n      dup1\n      swap2\n      sub\n      swap1\n      return\n        /* \"Applications/UniDirectionalPaymentCheck.sol\":1078:1102  uint256 public expiresAt */\n    tag_8:\n      tag_35\n      tag_36\n      jump\t// in\n    tag_35:\n      mload(0x40)\n      tag_37\n      swap2\n      swap1\n      tag_38\n      jump\t// in\n    tag_37:\n      mload(0x40)\n      dup1\n      swap2\n      sub\n      swap1\n      return\n        /* \"Applications/UniDirectionalPaymentCheck.sol\":2798:2975  function cancel() external {... */\n    tag_9:\n      tag_39\n      tag_40\n      jump\t// in\n    tag_39:\n      stop\n        /* \"Applications/UniDirectionalPaymentCheck.sol\":979:1010  address payable public receiver */\n    tag_10:\n      tag_41\n      tag_42\n      jump\t// in\n    tag_41:\n      mload(0x40)\n      tag_43\n      swap2\n      swap1\n      tag_25\n      jump\t// in\n    tag_43:\n      mload(0x40)\n      dup1\n      swap2\n      sub\n      swap1\n      return\n        /* \"Applications/UniDirectionalPaymentCheck.sol\":2464:2790  function close(uint256 _amount, bytes memory _sig) external guard {... */\n    tag_15:\n        /* \"Applications/UniDirectionalPaymentCheck.sol\":764:770  locked */\n      0x00\n      dup1\n      sload\n      swap1\n      0x0100\n      exp\n      swap1\n      div\n      0xff\n      and\n        /* \"Applications/UniDirectionalPaymentCheck.sol\":763:770  !locked */\n      iszero\n        /* \"Applications/UniDirectionalPaymentCheck.sol\":755:771  require(!locked) */\n      tag_45\n      jumpi\n      0x00\n      dup1\n      revert\n    tag_45:\n        /* \"Applications/UniDirectionalPaymentCheck.sol\":791:795  true */\n      0x01\n        /* \"Applications/UniDirectionalPaymentCheck.sol\":782:788  locked */\n      0x00\n      dup1\n        /* \"Applications/UniDirectionalPaymentCheck.sol\":782:795  locked = true */\n      0x0100\n      exp\n      dup2\n      sload\n      dup2\n      0xff\n      mul\n      not\n      and\n      swap1\n      dup4\n      iszero\n      iszero\n      mul\n      or\n      swap1\n      sstore\n      pop\n        /* \"Applications/UniDirectionalPaymentCheck.sol\":2563:2571  receiver */\n      0x01\n      0x00\n      swap1\n      sload\n      swap1\n      0x0100\n      exp\n      swap1\n      div\n      0xffffffffffffffffffffffffffffffffffffffff\n      and\n        /* \"Applications/UniDirectionalPaymentCheck.sol\":2549:2571  msg.sender == receiver */\n      0xffffffffffffffffffffffffffffffffffffffff\n      and\n        /* \"Applications/UniDirectionalPaymentCheck.sol\":2549:2559  msg.sender */\n      caller\n        /* \"Applications/UniDirectionalPaymentCheck.sol\":2549:2571  msg.sender == receiver */\n      0xffffffffffffffffffffffffffffffffffffffff\n      and\n      eq\n        /* \"Applications/UniDirectionalPaymentCheck.sol\":2541:2585  require(msg.sender == receiver, \"!receiver\") */\n      tag_47\n      jumpi\n      mload(0x40)\n      0x08c379a000000000000000000000000000000000000000000000000000000000\n      dup2\n      mstore\n      0x04\n      add\n      tag_48\n      swap1\n      tag_49\n      jump\t// in\n    tag_48:\n      mload(0x40)\n      dup1\n      swap2\n      sub\n      swap1\n      revert\n    tag_47:\n        /* \"Applications/UniDirectionalPaymentCheck.sol\":2604:2626  _verify(_amount, _sig) */\n      tag_50\n        /* \"Applications/UniDirectionalPaymentCheck.sol\":2612:2619  _amount */\n      dup3\n        /* \"Applications/UniDirectionalPaymentCheck.sol\":2621:2625  _sig */\n      dup3\n        /* \"Applications/UniDirectionalPaymentCheck.sol\":2604:2611  _verify */\n      tag_51\n        /* \"Applications/UniDirectionalPaymentCheck.sol\":2604:2626  _verify(_amount, _sig) */\n      jump\t// in\n    tag_50:\n        /* \"Applications/UniDirectionalPaymentCheck.sol\":2596:2642  require(_verify(_amount, _sig), \"invalid sig\") */\n      tag_52\n      jumpi\n      mload(0x40)\n      0x08c379a000000000000000000000000000000000000000000000000000000000\n      dup2\n      mstore\n      0x04\n      add\n      tag_53\n      swap1\n      tag_54\n      jump\t// in\n    tag_53:\n      mload(0x40)\n      dup1\n      swap2\n      sub\n      swap1\n      revert\n    tag_52:\n        /* \"Applications/UniDirectionalPaymentCheck.sol\":2656:2665  bool sent */\n      0x00\n        /* \"Applications/UniDirectionalPaymentCheck.sol\":2670:2678  receiver */\n      0x01\n      0x00\n      swap1\n      sload\n      swap1\n      0x0100\n      exp\n      swap1\n      div\n      0xffffffffffffffffffffffffffffffffffffffff\n      and\n        /* \"Applications/UniDirectionalPaymentCheck.sol\":2670:2683  receiver.call */\n      0xffffffffffffffffffffffffffffffffffffffff\n      and\n        /* \"Applications/UniDirectionalPaymentCheck.sol\":2691:2698  _amount */\n      dup4\n        /* \"Applications/UniDirectionalPaymentCheck.sol\":2670:2703  receiver.call{value: _amount}(\"\") */\n      mload(0x40)\n      tag_55\n      swap1\n      tag_56\n      jump\t// in\n    tag_55:\n      0x00\n      mload(0x40)\n      dup1\n      dup4\n      sub\n      dup2\n      dup6\n      dup8\n      gas\n      call\n      swap3\n      pop\n      pop\n      pop\n      returndatasize\n      dup1\n      0x00\n      dup2\n      eq\n      tag_59\n      jumpi\n      mload(0x40)\n      swap2\n      pop\n      and(add(returndatasize, 0x3f), not(0x1f))\n      dup3\n      add\n      0x40\n      mstore\n      returndatasize\n      dup3\n      mstore\n      returndatasize\n      0x00\n      0x20\n      dup5\n      add\n      returndatacopy\n      jump(tag_58)\n    tag_59:\n      0x60\n      swap2\n      pop\n    tag_58:\n      pop\n        /* \"Applications/UniDirectionalPaymentCheck.sol\":2655:2703  (bool sent,) = receiver.call{value: _amount}(\"\") */\n      pop\n      swap1\n      pop\n        /* \"Applications/UniDirectionalPaymentCheck.sol\":2722:2726  sent */\n      dup1\n        /* \"Applications/UniDirectionalPaymentCheck.sol\":2714:2751  require(sent, \"Failed to send Ether\") */\n      tag_60\n      jumpi\n      mload(0x40)\n      0x08c379a000000000000000000000000000000000000000000000000000000000\n      dup2\n      mstore\n      0x04\n      add\n      tag_61\n      swap1\n      tag_62\n      jump\t// in\n    tag_61:\n      mload(0x40)\n      dup1\n      swap2\n      sub\n      swap1\n      revert\n    tag_60:\n        /* \"Applications/UniDirectionalPaymentCheck.sol\":2775:2781  sender */\n      0x00\n      0x01\n      swap1\n      sload\n      swap1\n      0x0100\n      exp\n      swap1\n      div\n      0xffffffffffffffffffffffffffffffffffffffff\n      and\n        /* \"Applications/UniDirectionalPaymentCheck.sol\":2762:2782  selfdestruct(sender) */\n      0xffffffffffffffffffffffffffffffffffffffff\n      and\n      selfdestruct\n        /* \"Applications/UniDirectionalPaymentCheck.sol\":1931:2090  function getEthSignedHash(uint256 _amount)... */\n    tag_19:\n        /* \"Applications/UniDirectionalPaymentCheck.sol\":2024:2031  bytes32 */\n      0x00\n        /* \"Applications/UniDirectionalPaymentCheck.sol\":2056:2082  _getEthSignedHash(_amount) */\n      tag_64\n        /* \"Applications/UniDirectionalPaymentCheck.sol\":2074:2081  _amount */\n      dup3\n        /* \"Applications/UniDirectionalPaymentCheck.sol\":2056:2073  _getEthSignedHash */\n      tag_65\n        /* \"Applications/UniDirectionalPaymentCheck.sol\":2056:2082  _getEthSignedHash(_amount) */\n      jump\t// in\n    tag_64:\n        /* \"Applications/UniDirectionalPaymentCheck.sol\":2049:2082  return _getEthSignedHash(_amount) */\n      swap1\n      pop\n        /* \"Applications/UniDirectionalPaymentCheck.sol\":1931:2090  function getEthSignedHash(uint256 _amount)... */\n      swap2\n      swap1\n      pop\n      jump\t// out\n        /* \"Applications/UniDirectionalPaymentCheck.sol\":943:972  address payable public sender */\n    tag_23:\n      0x00\n      0x01\n      swap1\n      sload\n      swap1\n      0x0100\n      exp\n      swap1\n      div\n      0xffffffffffffffffffffffffffffffffffffffff\n      and\n      dup2\n      jump\t// out\n        /* \"Applications/UniDirectionalPaymentCheck.sol\":1631:1740  function getHash(uint256 _amount) external view returns (bytes32) {... */\n    tag_28:\n        /* \"Applications/UniDirectionalPaymentCheck.sol\":1688:1695  bytes32 */\n      0x00\n        /* \"Applications/UniDirectionalPaymentCheck.sol\":1715:1732  _getHash(_amount) */\n      tag_67\n        /* \"Applications/UniDirectionalPaymentCheck.sol\":1724:1731  _amount */\n      dup3\n        /* \"Applications/UniDirectionalPaymentCheck.sol\":1715:1723  _getHash */\n      tag_68\n        /* \"Applications/UniDirectionalPaymentCheck.sol\":1715:1732  _getHash(_amount) */\n      jump\t// in\n    tag_67:\n        /* \"Applications/UniDirectionalPaymentCheck.sol\":1708:1732  return _getHash(_amount) */\n      swap1\n      pop\n        /* \"Applications/UniDirectionalPaymentCheck.sol\":1631:1740  function getHash(uint256 _amount) external view returns (bytes32) {... */\n      swap2\n      swap1\n      pop\n      jump\t// out\n        /* \"Applications/UniDirectionalPaymentCheck.sol\":2295:2456  function verify(uint256 _amount, bytes memory _sig)... */\n    tag_32:\n        /* \"Applications/UniDirectionalPaymentCheck.sol\":2397:2401  bool */\n      0x00\n        /* \"Applications/UniDirectionalPaymentCheck.sol\":2426:2448  _verify(_amount, _sig) */\n      tag_70\n        /* \"Applications/UniDirectionalPaymentCheck.sol\":2434:2441  _amount */\n      dup4\n        /* \"Applications/UniDirectionalPaymentCheck.sol\":2443:2447  _sig */\n      dup4\n        /* \"Applications/UniDirectionalPaymentCheck.sol\":2426:2433  _verify */\n      tag_51\n        /* \"Applications/UniDirectionalPaymentCheck.sol\":2426:2448  _verify(_amount, _sig) */\n      jump\t// in\n    tag_70:\n        /* \"Applications/UniDirectionalPaymentCheck.sol\":2419:2448  return _verify(_amount, _sig) */\n      swap1\n      pop\n        /* \"Applications/UniDirectionalPaymentCheck.sol\":2295:2456  function verify(uint256 _amount, bytes memory _sig)... */\n      swap3\n      swap2\n      pop\n      pop\n      jump\t// out\n        /* \"Applications/UniDirectionalPaymentCheck.sol\":1078:1102  uint256 public expiresAt */\n    tag_36:\n      sload(0x02)\n      dup2\n      jump\t// out\n        /* \"Applications/UniDirectionalPaymentCheck.sol\":2798:2975  function cancel() external {... */\n    tag_40:\n        /* \"Applications/UniDirectionalPaymentCheck.sol\":2858:2864  sender */\n      0x00\n      0x01\n      swap1\n      sload\n      swap1\n      0x0100\n      exp\n      swap1\n      div\n      0xffffffffffffffffffffffffffffffffffffffff\n      and\n        /* \"Applications/UniDirectionalPaymentCheck.sol\":2844:2864  msg.sender == sender */\n      0xffffffffffffffffffffffffffffffffffffffff\n      and\n        /* \"Applications/UniDirectionalPaymentCheck.sol\":2844:2854  msg.sender */\n      caller\n        /* \"Applications/UniDirectionalPaymentCheck.sol\":2844:2864  msg.sender == sender */\n      0xffffffffffffffffffffffffffffffffffffffff\n      and\n      eq\n        /* \"Applications/UniDirectionalPaymentCheck.sol\":2836:2876  require(msg.sender == sender, \"!sender\") */\n      tag_72\n      jumpi\n      mload(0x40)\n      0x08c379a000000000000000000000000000000000000000000000000000000000\n      dup2\n      mstore\n      0x04\n      add\n      tag_73\n      swap1\n      tag_74\n      jump\t// in\n    tag_73:\n      mload(0x40)\n      dup1\n      swap2\n      sub\n      swap1\n      revert\n    tag_72:\n        /* \"Applications/UniDirectionalPaymentCheck.sol\":2914:2923  expiresAt */\n      sload(0x02)\n        /* \"Applications/UniDirectionalPaymentCheck.sol\":2895:2910  block.timestamp */\n      timestamp\n        /* \"Applications/UniDirectionalPaymentCheck.sol\":2895:2923  block.timestamp >= expiresAt */\n      lt\n      iszero\n        /* \"Applications/UniDirectionalPaymentCheck.sol\":2887:2936  require(block.timestamp >= expiresAt, \"!expired\") */\n      tag_75\n      jumpi\n      mload(0x40)\n      0x08c379a000000000000000000000000000000000000000000000000000000000\n      dup2\n      mstore\n      0x04\n      add\n      tag_76\n      swap1\n      tag_77\n      jump\t// in\n    tag_76:\n      mload(0x40)\n      dup1\n      swap2\n      sub\n      swap1\n      revert\n    tag_75:\n        /* \"Applications/UniDirectionalPaymentCheck.sol\":2960:2966  sender */\n      0x00\n      0x01\n      swap1\n      sload\n      swap1\n      0x0100\n      exp\n      swap1\n      div\n      0xffffffffffffffffffffffffffffffffffffffff\n      and\n        /* \"Applications/UniDirectionalPaymentCheck.sol\":2947:2967  selfdestruct(sender) */\n      0xffffffffffffffffffffffffffffffffffffffff\n      and\n      selfdestruct\n        /* \"Applications/UniDirectionalPaymentCheck.sol\":979:1010  address payable public receiver */\n    tag_42:\n      0x01\n      0x00\n      swap1\n      sload\n      swap1\n      0x0100\n      exp\n      swap1\n      div\n      0xffffffffffffffffffffffffffffffffffffffff\n      and\n      dup2\n      jump\t// out\n        /* \"Applications/UniDirectionalPaymentCheck.sol\":2098:2287  function _verify(uint256 _amount, bytes memory _sig)... */\n    tag_51:\n        /* \"Applications/UniDirectionalPaymentCheck.sol\":2200:2204  bool */\n      0x00\n        /* \"Applications/UniDirectionalPaymentCheck.sol\":2273:2279  sender */\n      dup1\n      0x01\n      swap1\n      sload\n      swap1\n      0x0100\n      exp\n      swap1\n      div\n      0xffffffffffffffffffffffffffffffffffffffff\n      and\n        /* \"Applications/UniDirectionalPaymentCheck.sol\":2229:2279  _getEthSignedHash(_amount).recover(_sig) == sender */\n      0xffffffffffffffffffffffffffffffffffffffff\n      and\n        /* \"Applications/UniDirectionalPaymentCheck.sol\":2229:2269  _getEthSignedHash(_amount).recover(_sig) */\n      tag_79\n        /* \"Applications/UniDirectionalPaymentCheck.sol\":2264:2268  _sig */\n      dup4\n        /* \"Applications/UniDirectionalPaymentCheck.sol\":2229:2255  _getEthSignedHash(_amount) */\n      tag_80\n        /* \"Applications/UniDirectionalPaymentCheck.sol\":2247:2254  _amount */\n      dup7\n        /* \"Applications/UniDirectionalPaymentCheck.sol\":2229:2246  _getEthSignedHash */\n      tag_65\n        /* \"Applications/UniDirectionalPaymentCheck.sol\":2229:2255  _getEthSignedHash(_amount) */\n      jump\t// in\n    tag_80:\n        /* \"Applications/UniDirectionalPaymentCheck.sol\":2229:2263  _getEthSignedHash(_amount).recover */\n      tag_81\n      swap1\n        /* \"Applications/UniDirectionalPaymentCheck.sol\":2229:2269  _getEthSignedHash(_amount).recover(_sig) */\n      swap2\n      swap1\n      0xffffffff\n      and\n      jump\t// in\n    tag_79:\n        /* \"Applications/UniDirectionalPaymentCheck.sol\":2229:2279  _getEthSignedHash(_amount).recover(_sig) == sender */\n      0xffffffffffffffffffffffffffffffffffffffff\n      and\n      eq\n        /* \"Applications/UniDirectionalPaymentCheck.sol\":2222:2279  return _getEthSignedHash(_amount).recover(_sig) == sender */\n      swap1\n      pop\n        /* \"Applications/UniDirectionalPaymentCheck.sol\":2098:2287  function _verify(uint256 _amount, bytes memory _sig)... */\n      swap3\n      swap2\n      pop\n      pop\n      jump\t// out\n        /* \"Applications/UniDirectionalPaymentCheck.sol\":1748:1923  function _getEthSignedHash(uint256 _amount)... */\n    tag_65:\n        /* \"Applications/UniDirectionalPaymentCheck.sol\":1841:1848  bytes32 */\n      0x00\n        /* \"Applications/UniDirectionalPaymentCheck.sol\":1873:1915  _getHash(_amount).toEthSignedMessageHash() */\n      tag_83\n        /* \"Applications/UniDirectionalPaymentCheck.sol\":1873:1890  _getHash(_amount) */\n      tag_84\n        /* \"Applications/UniDirectionalPaymentCheck.sol\":1882:1889  _amount */\n      dup4\n        /* \"Applications/UniDirectionalPaymentCheck.sol\":1873:1881  _getHash */\n      tag_68\n        /* \"Applications/UniDirectionalPaymentCheck.sol\":1873:1890  _getHash(_amount) */\n      jump\t// in\n    tag_84:\n        /* \"Applications/UniDirectionalPaymentCheck.sol\":1873:1913  _getHash(_amount).toEthSignedMessageHash */\n      tag_85\n        /* \"Applications/UniDirectionalPaymentCheck.sol\":1873:1915  _getHash(_amount).toEthSignedMessageHash() */\n      jump\t// in\n    tag_83:\n        /* \"Applications/UniDirectionalPaymentCheck.sol\":1866:1915  return _getHash(_amount).toEthSignedMessageHash() */\n      swap1\n      pop\n        /* \"Applications/UniDirectionalPaymentCheck.sol\":1748:1923  function _getEthSignedHash(uint256 _amount)... */\n      swap2\n      swap1\n      pop\n      jump\t// out\n        /* \"Applications/UniDirectionalPaymentCheck.sol\":1363:1623  function _getHash(uint256 _amount) private view returns (bytes32) {... */\n    tag_68:\n        /* \"Applications/UniDirectionalPaymentCheck.sol\":1420:1427  bytes32 */\n      0x00\n        /* \"Applications/UniDirectionalPaymentCheck.sol\":1599:1603  this */\n      address\n        /* \"Applications/UniDirectionalPaymentCheck.sol\":1606:1613  _amount */\n      dup3\n        /* \"Applications/UniDirectionalPaymentCheck.sol\":1574:1614  abi.encodePacked(address(this), _amount) */\n      add(0x20, mload(0x40))\n      tag_87\n      swap3\n      swap2\n      swap1\n      tag_88\n      jump\t// in\n    tag_87:\n      mload(0x40)\n      0x20\n      dup2\n      dup4\n      sub\n      sub\n      dup2\n      mstore\n      swap1\n      0x40\n      mstore\n        /* \"Applications/UniDirectionalPaymentCheck.sol\":1564:1615  keccak256(abi.encodePacked(address(this), _amount)) */\n      dup1\n      mload\n      swap1\n      0x20\n      add\n      keccak256\n        /* \"Applications/UniDirectionalPaymentCheck.sol\":1557:1615  return keccak256(abi.encodePacked(address(this), _amount)) */\n      swap1\n      pop\n        /* \"Applications/UniDirectionalPaymentCheck.sol\":1363:1623  function _getHash(uint256 _amount) private view returns (bytes32) {... */\n      swap2\n      swap1\n      pop\n      jump\t// out\n        /* \"Applications/ECDSA.sol\":2330:2593  function recover(bytes32 hash, bytes memory signature)... */\n    tag_81:\n        /* \"Applications/ECDSA.sol\":2435:2442  address */\n      0x00\n        /* \"Applications/ECDSA.sol\":2461:2478  address recovered */\n      dup1\n        /* \"Applications/ECDSA.sol\":2480:2498  RecoverError error */\n      0x00\n        /* \"Applications/ECDSA.sol\":2502:2529  tryRecover(hash, signature) */\n      tag_90\n        /* \"Applications/ECDSA.sol\":2513:2517  hash */\n      dup6\n        /* \"Applications/ECDSA.sol\":2519:2528  signature */\n      dup6\n        /* \"Applications/ECDSA.sol\":2502:2512  tryRecover */\n      tag_91\n        /* \"Applications/ECDSA.sol\":2502:2529  tryRecover(hash, signature) */\n      jump\t// in\n    tag_90:\n        /* \"Applications/ECDSA.sol\":2460:2529  (address recovered, RecoverError error) = tryRecover(hash, signature) */\n      swap2\n      pop\n      swap2\n      pop\n        /* \"Applications/ECDSA.sol\":2540:2558  _throwError(error) */\n      tag_92\n        /* \"Applications/ECDSA.sol\":2552:2557  error */\n      dup2\n        /* \"Applications/ECDSA.sol\":2540:2551  _throwError */\n      tag_93\n        /* \"Applications/ECDSA.sol\":2540:2558  _throwError(error) */\n      jump\t// in\n    tag_92:\n        /* \"Applications/ECDSA.sol\":2576:2585  recovered */\n      dup2\n        /* \"Applications/ECDSA.sol\":2569:2585  return recovered */\n      swap3\n      pop\n      pop\n      pop\n        /* \"Applications/ECDSA.sol\":2330:2593  function recover(bytes32 hash, bytes memory signature)... */\n      swap3\n      swap2\n      pop\n      pop\n      jump\t// out\n        /* \"Applications/ECDSA.sol\":5208:5533  function toEthSignedMessageHash(bytes32 hash)... */\n    tag_85:\n        /* \"Applications/ECDSA.sol\":5304:5311  bytes32 */\n      0x00\n        /* \"Applications/ECDSA.sol\":5509:5513  hash */\n      dup2\n        /* \"Applications/ECDSA.sol\":5456:5514  abi.encodePacked(\"\\x19Ethereum Signed Message:\\n32\", hash) */\n      add(0x20, mload(0x40))\n      tag_95\n      swap2\n      swap1\n      tag_96\n      jump\t// in\n    tag_95:\n      mload(0x40)\n      0x20\n      dup2\n      dup4\n      sub\n      sub\n      dup2\n      mstore\n      swap1\n      0x40\n      mstore\n        /* \"Applications/ECDSA.sol\":5432:5525  keccak256(... */\n      dup1\n      mload\n      swap1\n      0x20\n      add\n      keccak256\n        /* \"Applications/ECDSA.sol\":5425:5525  return keccak256(... */\n      swap1\n      pop\n        /* \"Applications/ECDSA.sol\":5208:5533  function toEthSignedMessageHash(bytes32 hash)... */\n      swap2\n      swap1\n      pop\n      jump\t// out\n        /* \"Applications/ECDSA.sol\":982:2322  function tryRecover(bytes32 hash, bytes memory signature)... */\n    tag_91:\n        /* \"Applications/ECDSA.sol\":1090:1097  address */\n      0x00\n        /* \"Applications/ECDSA.sol\":1099:1111  RecoverError */\n      dup1\n        /* \"Applications/ECDSA.sol\":1349:1351  65 */\n      0x41\n        /* \"Applications/ECDSA.sol\":1329:1338  signature */\n      dup4\n        /* \"Applications/ECDSA.sol\":1329:1345  signature.length */\n      mload\n        /* \"Applications/ECDSA.sol\":1329:1351  signature.length == 65 */\n      sub\n        /* \"Applications/ECDSA.sol\":1325:2315  if (signature.length == 65) {... */\n      tag_98\n      jumpi\n        /* \"Applications/ECDSA.sol\":1368:1377  bytes32 r */\n      0x00\n        /* \"Applications/ECDSA.sol\":1392:1401  bytes32 s */\n      dup1\n        /* \"Applications/ECDSA.sol\":1416:1423  uint8 v */\n      0x00\n        /* \"Applications/ECDSA.sol\":1625:1629  0x20 */\n      0x20\n        /* \"Applications/ECDSA.sol\":1614:1623  signature */\n      dup7\n        /* \"Applications/ECDSA.sol\":1610:1630  add(signature, 0x20) */\n      add\n        /* \"Applications/ECDSA.sol\":1604:1631  mload(add(signature, 0x20)) */\n      mload\n        /* \"Applications/ECDSA.sol\":1599:1631  r := mload(add(signature, 0x20)) */\n      swap3\n      pop\n        /* \"Applications/ECDSA.sol\":1675:1679  0x40 */\n      0x40\n        /* \"Applications/ECDSA.sol\":1664:1673  signature */\n      dup7\n        /* \"Applications/ECDSA.sol\":1660:1680  add(signature, 0x40) */\n      add\n        /* \"Applications/ECDSA.sol\":1654:1681  mload(add(signature, 0x40)) */\n      mload\n        /* \"Applications/ECDSA.sol\":1649:1681  s := mload(add(signature, 0x40)) */\n      swap2\n      pop\n        /* \"Applications/ECDSA.sol\":1733:1737  0x60 */\n      0x60\n        /* \"Applications/ECDSA.sol\":1722:1731  signature */\n      dup7\n        /* \"Applications/ECDSA.sol\":1718:1738  add(signature, 0x60) */\n      add\n        /* \"Applications/ECDSA.sol\":1712:1739  mload(add(signature, 0x60)) */\n      mload\n        /* \"Applications/ECDSA.sol\":1709:1710  0 */\n      0x00\n        /* \"Applications/ECDSA.sol\":1704:1740  byte(0, mload(add(signature, 0x60))) */\n      byte\n        /* \"Applications/ECDSA.sol\":1699:1740  v := byte(0, mload(add(signature, 0x60))) */\n      swap1\n      pop\n        /* \"Applications/ECDSA.sol\":1776:1801  tryRecover(hash, v, r, s) */\n      tag_99\n        /* \"Applications/ECDSA.sol\":1787:1791  hash */\n      dup8\n        /* \"Applications/ECDSA.sol\":1793:1794  v */\n      dup3\n        /* \"Applications/ECDSA.sol\":1796:1797  r */\n      dup6\n        /* \"Applications/ECDSA.sol\":1799:1800  s */\n      dup6\n        /* \"Applications/ECDSA.sol\":1776:1786  tryRecover */\n      tag_100\n        /* \"Applications/ECDSA.sol\":1776:1801  tryRecover(hash, v, r, s) */\n      jump\t// in\n    tag_99:\n        /* \"Applications/ECDSA.sol\":1769:1801  return tryRecover(hash, v, r, s) */\n      swap5\n      pop\n      swap5\n      pop\n      pop\n      pop\n      pop\n      jump(tag_97)\n        /* \"Applications/ECDSA.sol\":1325:2315  if (signature.length == 65) {... */\n    tag_98:\n        /* \"Applications/ECDSA.sol\":1843:1845  64 */\n      0x40\n        /* \"Applications/ECDSA.sol\":1823:1832  signature */\n      dup4\n        /* \"Applications/ECDSA.sol\":1823:1839  signature.length */\n      mload\n        /* \"Applications/ECDSA.sol\":1823:1845  signature.length == 64 */\n      sub\n        /* \"Applications/ECDSA.sol\":1819:2315  if (signature.length == 64) {... */\n      tag_102\n      jumpi\n        /* \"Applications/ECDSA.sol\":1862:1871  bytes32 r */\n      0x00\n        /* \"Applications/ECDSA.sol\":1886:1896  bytes32 vs */\n      dup1\n        /* \"Applications/ECDSA.sol\":2098:2102  0x20 */\n      0x20\n        /* \"Applications/ECDSA.sol\":2087:2096  signature */\n      dup6\n        /* \"Applications/ECDSA.sol\":2083:2103  add(signature, 0x20) */\n      add\n        /* \"Applications/ECDSA.sol\":2077:2104  mload(add(signature, 0x20)) */\n      mload\n        /* \"Applications/ECDSA.sol\":2072:2104  r := mload(add(signature, 0x20)) */\n      swap2\n      pop\n        /* \"Applications/ECDSA.sol\":2149:2153  0x40 */\n      0x40\n        /* \"Applications/ECDSA.sol\":2138:2147  signature */\n      dup6\n        /* \"Applications/ECDSA.sol\":2134:2154  add(signature, 0x40) */\n      add\n        /* \"Applications/ECDSA.sol\":2128:2155  mload(add(signature, 0x40)) */\n      mload\n        /* \"Applications/ECDSA.sol\":2122:2155  vs := mload(add(signature, 0x40)) */\n      swap1\n      pop\n        /* \"Applications/ECDSA.sol\":2191:2214  tryRecover(hash, r, vs) */\n      tag_103\n        /* \"Applications/ECDSA.sol\":2202:2206  hash */\n      dup7\n        /* \"Applications/ECDSA.sol\":2208:2209  r */\n      dup4\n        /* \"Applications/ECDSA.sol\":2211:2213  vs */\n      dup4\n        /* \"Applications/ECDSA.sol\":2191:2201  tryRecover */\n      tag_104\n        /* \"Applications/ECDSA.sol\":2191:2214  tryRecover(hash, r, vs) */\n      jump\t// in\n    tag_103:\n        /* \"Applications/ECDSA.sol\":2184:2214  return tryRecover(hash, r, vs) */\n      swap4\n      pop\n      swap4\n      pop\n      pop\n      pop\n      jump(tag_97)\n        /* \"Applications/ECDSA.sol\":1819:2315  if (signature.length == 64) {... */\n    tag_102:\n        /* \"Applications/ECDSA.sol\":2263:2264  0 */\n      0x00\n        /* \"Applications/ECDSA.sol\":2267:2302  RecoverError.InvalidSignatureLength */\n      0x02\n        /* \"Applications/ECDSA.sol\":2247:2303  return (address(0), RecoverError.InvalidSignatureLength) */\n      swap2\n      pop\n      swap2\n      pop\n        /* \"Applications/ECDSA.sol\":982:2322  function tryRecover(bytes32 hash, bytes memory signature)... */\n    tag_97:\n      swap3\n      pop\n      swap3\n      swap1\n      pop\n      jump\t// out\n        /* \"Applications/ECDSA.sol\":331:974  function _throwError(RecoverError error) private pure {... */\n    tag_93:\n        /* \"Applications/ECDSA.sol\":409:429  RecoverError.NoError */\n      0x00\n        /* \"Applications/ECDSA.sol\":400:429  error == RecoverError.NoError */\n      0x04\n      dup2\n      gt\n      iszero\n      tag_107\n      jumpi\n      tag_108\n      tag_109\n      jump\t// in\n    tag_108:\n    tag_107:\n        /* \"Applications/ECDSA.sol\":400:405  error */\n      dup2\n        /* \"Applications/ECDSA.sol\":400:429  error == RecoverError.NoError */\n      0x04\n      dup2\n      gt\n      iszero\n      tag_110\n      jumpi\n      tag_111\n      tag_109\n      jump\t// in\n    tag_111:\n    tag_110:\n      sub\n        /* \"Applications/ECDSA.sol\":396:967  if (error == RecoverError.NoError) {... */\n      iszero\n        /* \"Applications/ECDSA.sol\":446:453  return; */\n      tag_106\n        /* \"Applications/ECDSA.sol\":396:967  if (error == RecoverError.NoError) {... */\n      jumpi\n        /* \"Applications/ECDSA.sol\":507:536  RecoverError.InvalidSignature */\n      0x01\n        /* \"Applications/ECDSA.sol\":498:536  error == RecoverError.InvalidSignature */\n      0x04\n      dup2\n      gt\n      iszero\n      tag_114\n      jumpi\n      tag_115\n      tag_109\n      jump\t// in\n    tag_115:\n    tag_114:\n        /* \"Applications/ECDSA.sol\":498:503  error */\n      dup2\n        /* \"Applications/ECDSA.sol\":498:536  error == RecoverError.InvalidSignature */\n      0x04\n      dup2\n      gt\n      iszero\n      tag_116\n      jumpi\n      tag_117\n      tag_109\n      jump\t// in\n    tag_117:\n    tag_116:\n      sub\n        /* \"Applications/ECDSA.sol\":494:967  if (error == RecoverError.InvalidSignature) {... */\n      tag_118\n      jumpi\n        /* \"Applications/ECDSA.sol\":553:587  revert(\"ECDSA: invalid signature\") */\n      mload(0x40)\n      0x08c379a000000000000000000000000000000000000000000000000000000000\n      dup2\n      mstore\n      0x04\n      add\n      tag_119\n      swap1\n      tag_120\n      jump\t// in\n    tag_119:\n      mload(0x40)\n      dup1\n      swap2\n      sub\n      swap1\n      revert\n        /* \"Applications/ECDSA.sol\":494:967  if (error == RecoverError.InvalidSignature) {... */\n    tag_118:\n        /* \"Applications/ECDSA.sol\":618:653  RecoverError.InvalidSignatureLength */\n      0x02\n        /* \"Applications/ECDSA.sol\":609:653  error == RecoverError.InvalidSignatureLength */\n      0x04\n      dup2\n      gt\n      iszero\n      tag_122\n      jumpi\n      tag_123\n      tag_109\n      jump\t// in\n    tag_123:\n    tag_122:\n        /* \"Applications/ECDSA.sol\":609:614  error */\n      dup2\n        /* \"Applications/ECDSA.sol\":609:653  error == RecoverError.InvalidSignatureLength */\n      0x04\n      dup2\n      gt\n      iszero\n      tag_124\n      jumpi\n      tag_125\n      tag_109\n      jump\t// in\n    tag_125:\n    tag_124:\n      sub\n        /* \"Applications/ECDSA.sol\":605:967  if (error == RecoverError.InvalidSignatureLength) {... */\n      tag_126\n      jumpi\n        /* \"Applications/ECDSA.sol\":670:711  revert(\"ECDSA: invalid signature length\") */\n      mload(0x40)\n      0x08c379a000000000000000000000000000000000000000000000000000000000\n      dup2\n      mstore\n      0x04\n      add\n      tag_127\n      swap1\n      tag_128\n      jump\t// in\n    tag_127:\n      mload(0x40)\n      dup1\n      swap2\n      sub\n      swap1\n      revert\n        /* \"Applications/ECDSA.sol\":605:967  if (error == RecoverError.InvalidSignatureLength) {... */\n    tag_126:\n        /* \"Applications/ECDSA.sol\":742:772  RecoverError.InvalidSignatureS */\n      0x03\n        /* \"Applications/ECDSA.sol\":733:772  error == RecoverError.InvalidSignatureS */\n      0x04\n      dup2\n      gt\n      iszero\n      tag_130\n      jumpi\n      tag_131\n      tag_109\n      jump\t// in\n    tag_131:\n    tag_130:\n        /* \"Applications/ECDSA.sol\":733:738  error */\n      dup2\n        /* \"Applications/ECDSA.sol\":733:772  error == RecoverError.InvalidSignatureS */\n      0x04\n      dup2\n      gt\n      iszero\n      tag_132\n      jumpi\n      tag_133\n      tag_109\n      jump\t// in\n    tag_133:\n    tag_132:\n      sub\n        /* \"Applications/ECDSA.sol\":729:967  if (error == RecoverError.InvalidSignatureS) {... */\n      tag_134\n      jumpi\n        /* \"Applications/ECDSA.sol\":789:833  revert(\"ECDSA: invalid signature 's' value\") */\n      mload(0x40)\n      0x08c379a000000000000000000000000000000000000000000000000000000000\n      dup2\n      mstore\n      0x04\n      add\n      tag_135\n      swap1\n      tag_136\n      jump\t// in\n    tag_135:\n      mload(0x40)\n      dup1\n      swap2\n      sub\n      swap1\n      revert\n        /* \"Applications/ECDSA.sol\":729:967  if (error == RecoverError.InvalidSignatureS) {... */\n    tag_134:\n        /* \"Applications/ECDSA.sol\":864:894  RecoverError.InvalidSignatureV */\n      0x04\n        /* \"Applications/ECDSA.sol\":855:894  error == RecoverError.InvalidSignatureV */\n      dup1\n      dup2\n      gt\n      iszero\n      tag_138\n      jumpi\n      tag_139\n      tag_109\n      jump\t// in\n    tag_139:\n    tag_138:\n        /* \"Applications/ECDSA.sol\":855:860  error */\n      dup2\n        /* \"Applications/ECDSA.sol\":855:894  error == RecoverError.InvalidSignatureV */\n      0x04\n      dup2\n      gt\n      iszero\n      tag_140\n      jumpi\n      tag_141\n      tag_109\n      jump\t// in\n    tag_141:\n    tag_140:\n      sub\n        /* \"Applications/ECDSA.sol\":851:967  if (error == RecoverError.InvalidSignatureV) {... */\n      tag_142\n      jumpi\n        /* \"Applications/ECDSA.sol\":911:955  revert(\"ECDSA: invalid signature 'v' value\") */\n      mload(0x40)\n      0x08c379a000000000000000000000000000000000000000000000000000000000\n      dup2\n      mstore\n      0x04\n      add\n      tag_143\n      swap1\n      tag_144\n      jump\t// in\n    tag_143:\n      mload(0x40)\n      dup1\n      swap2\n      sub\n      swap1\n      revert\n        /* \"Applications/ECDSA.sol\":851:967  if (error == RecoverError.InvalidSignatureV) {... */\n    tag_142:\n        /* \"Applications/ECDSA.sol\":331:974  function _throwError(RecoverError error) private pure {... */\n    tag_106:\n      pop\n      jump\t// out\n        /* \"Applications/ECDSA.sol\":3262:4924  function tryRecover(bytes32 hash, uint8 v, bytes32 r, bytes32 s)... */\n    tag_100:\n        /* \"Applications/ECDSA.sol\":3377:3384  address */\n      0x00\n        /* \"Applications/ECDSA.sol\":3386:3398  RecoverError */\n      dup1\n        /* \"Applications/ECDSA.sol\":4347:4413  0x7FFFFFFFFFFFFFFFFFFFFFFFFFFFFFFF5D576E7357A4501DDFE92F46681B20A0 */\n      0x7fffffffffffffffffffffffffffffff5d576e7357a4501ddfe92f46681b20a0\n        /* \"Applications/ECDSA.sol\":4325:4326  s */\n      dup4\n        /* \"Applications/ECDSA.sol\":4317:4327  uint256(s) */\n      0x00\n      shr\n        /* \"Applications/ECDSA.sol\":4317:4413  uint256(s)... */\n      gt\n        /* \"Applications/ECDSA.sol\":4299:4503  if (... */\n      iszero\n      tag_146\n      jumpi\n        /* \"Applications/ECDSA.sol\":4456:4457  0 */\n      0x00\n        /* \"Applications/ECDSA.sol\":4460:4490  RecoverError.InvalidSignatureS */\n      0x03\n        /* \"Applications/ECDSA.sol\":4440:4491  return (address(0), RecoverError.InvalidSignatureS) */\n      swap2\n      pop\n      swap2\n      pop\n      jump(tag_145)\n        /* \"Applications/ECDSA.sol\":4299:4503  if (... */\n    tag_146:\n        /* \"Applications/ECDSA.sol\":4522:4524  27 */\n      0x1b\n        /* \"Applications/ECDSA.sol\":4517:4518  v */\n      dup6\n        /* \"Applications/ECDSA.sol\":4517:4524  v != 27 */\n      0xff\n      and\n      eq\n      iszero\n        /* \"Applications/ECDSA.sol\":4517:4535  v != 27 && v != 28 */\n      dup1\n      iszero\n      tag_147\n      jumpi\n      pop\n        /* \"Applications/ECDSA.sol\":4533:4535  28 */\n      0x1c\n        /* \"Applications/ECDSA.sol\":4528:4529  v */\n      dup6\n        /* \"Applications/ECDSA.sol\":4528:4535  v != 28 */\n      0xff\n      and\n      eq\n      iszero\n        /* \"Applications/ECDSA.sol\":4517:4535  v != 27 && v != 28 */\n    tag_147:\n        /* \"Applications/ECDSA.sol\":4513:4615  if (v != 27 && v != 28) {... */\n      iszero\n      tag_148\n      jumpi\n        /* \"Applications/ECDSA.sol\":4568:4569  0 */\n      0x00\n        /* \"Applications/ECDSA.sol\":4572:4602  RecoverError.InvalidSignatureV */\n      0x04\n        /* \"Applications/ECDSA.sol\":4552:4603  return (address(0), RecoverError.InvalidSignatureV) */\n      swap2\n      pop\n      swap2\n      pop\n      jump(tag_145)\n        /* \"Applications/ECDSA.sol\":4513:4615  if (v != 27 && v != 28) {... */\n    tag_148:\n        /* \"Applications/ECDSA.sol\":4712:4726  address signer */\n      0x00\n        /* \"Applications/ECDSA.sol\":4729:4753  ecrecover(hash, v, r, s) */\n      0x01\n        /* \"Applications/ECDSA.sol\":4739:4743  hash */\n      dup8\n        /* \"Applications/ECDSA.sol\":4745:4746  v */\n      dup8\n        /* \"Applications/ECDSA.sol\":4748:4749  r */\n      dup8\n        /* \"Applications/ECDSA.sol\":4751:4752  s */\n      dup8\n        /* \"Applications/ECDSA.sol\":4729:4753  ecrecover(hash, v, r, s) */\n      mload(0x40)\n      0x00\n      dup2\n      mstore\n      0x20\n      add\n      0x40\n      mstore\n      mload(0x40)\n      tag_149\n      swap5\n      swap4\n      swap3\n      swap2\n      swap1\n      tag_150\n      jump\t// in\n    tag_149:\n      0x20\n      mload(0x40)\n      0x20\n      dup2\n      sub\n      swap1\n      dup1\n      dup5\n      sub\n      swap1\n      dup6\n      gas\n      staticcall\n      iszero\n      dup1\n      iszero\n      tag_152\n      jumpi\n      returndatasize\n      0x00\n      dup1\n      returndatacopy\n      revert(0x00, returndatasize)\n    tag_152:\n      pop\n      pop\n      pop\n      mload(sub(mload(0x40), 0x20))\n        /* \"Applications/ECDSA.sol\":4712:4753  address signer = ecrecover(hash, v, r, s) */\n      swap1\n      pop\n        /* \"Applications/ECDSA.sol\":4786:4787  0 */\n      0x00\n        /* \"Applications/ECDSA.sol\":4768:4788  signer == address(0) */\n      0xffffffffffffffffffffffffffffffffffffffff\n      and\n        /* \"Applications/ECDSA.sol\":4768:4774  signer */\n      dup2\n        /* \"Applications/ECDSA.sol\":4768:4788  signer == address(0) */\n      0xffffffffffffffffffffffffffffffffffffffff\n      and\n      sub\n        /* \"Applications/ECDSA.sol\":4764:4867  if (signer == address(0)) {... */\n      tag_153\n      jumpi\n        /* \"Applications/ECDSA.sol\":4821:4822  0 */\n      0x00\n        /* \"Applications/ECDSA.sol\":4825:4854  RecoverError.InvalidSignature */\n      0x01\n        /* \"Applications/ECDSA.sol\":4805:4855  return (address(0), RecoverError.InvalidSignature) */\n      swap3\n      pop\n      swap3\n      pop\n      pop\n      jump(tag_145)\n        /* \"Applications/ECDSA.sol\":4764:4867  if (signer == address(0)) {... */\n    tag_153:\n        /* \"Applications/ECDSA.sol\":4887:4893  signer */\n      dup1\n        /* \"Applications/ECDSA.sol\":4895:4915  RecoverError.NoError */\n      0x00\n        /* \"Applications/ECDSA.sol\":4879:4916  return (signer, RecoverError.NoError) */\n      swap3\n      pop\n      swap3\n      pop\n      pop\n        /* \"Applications/ECDSA.sol\":3262:4924  function tryRecover(bytes32 hash, uint8 v, bytes32 r, bytes32 s)... */\n    tag_145:\n      swap5\n      pop\n      swap5\n      swap3\n      pop\n      pop\n      pop\n      jump\t// out\n        /* \"Applications/ECDSA.sol\":2601:2988  function tryRecover(bytes32 hash, bytes32 r, bytes32 vs)... */\n    tag_104:\n        /* \"Applications/ECDSA.sol\":2708:2715  address */\n      0x00\n        /* \"Applications/ECDSA.sol\":2717:2729  RecoverError */\n      dup1\n        /* \"Applications/ECDSA.sol\":2747:2756  bytes32 s */\n      0x00\n        /* \"Applications/ECDSA.sol\":2803:2869  0x7fffffffffffffffffffffffffffffffffffffffffffffffffffffffffffffff */\n      0x7fffffffffffffffffffffffffffffffffffffffffffffffffffffffffffffff\n        /* \"Applications/ECDSA.sol\":2777:2884  bytes32(... */\n      0x00\n      shl\n        /* \"Applications/ECDSA.sol\":2759:2761  vs */\n      dup5\n        /* \"Applications/ECDSA.sol\":2759:2884  vs... */\n      and\n        /* \"Applications/ECDSA.sol\":2747:2884  bytes32 s = vs... */\n      swap1\n      pop\n        /* \"Applications/ECDSA.sol\":2895:2902  uint8 v */\n      0x00\n        /* \"Applications/ECDSA.sol\":2934:2936  27 */\n      0x1b\n        /* \"Applications/ECDSA.sol\":2927:2930  255 */\n      0xff\n        /* \"Applications/ECDSA.sol\":2920:2922  vs */\n      dup7\n        /* \"Applications/ECDSA.sol\":2912:2923  uint256(vs) */\n      0x00\n      shr\n        /* \"Applications/ECDSA.sol\":2912:2930  uint256(vs) >> 255 */\n      swap1\n      shr\n        /* \"Applications/ECDSA.sol\":2911:2936  (uint256(vs) >> 255) + 27 */\n      tag_155\n      swap2\n      swap1\n      tag_156\n      jump\t// in\n    tag_155:\n        /* \"Applications/ECDSA.sol\":2895:2937  uint8 v = uint8((uint256(vs) >> 255) + 27) */\n      swap1\n      pop\n        /* \"Applications/ECDSA.sol\":2955:2980  tryRecover(hash, v, r, s) */\n      tag_157\n        /* \"Applications/ECDSA.sol\":2966:2970  hash */\n      dup8\n        /* \"Applications/ECDSA.sol\":2972:2973  v */\n      dup3\n        /* \"Applications/ECDSA.sol\":2975:2976  r */\n      dup9\n        /* \"Applications/ECDSA.sol\":2978:2979  s */\n      dup6\n        /* \"Applications/ECDSA.sol\":2955:2965  tryRecover */\n      tag_100\n        /* \"Applications/ECDSA.sol\":2955:2980  tryRecover(hash, v, r, s) */\n      jump\t// in\n    tag_157:\n        /* \"Applications/ECDSA.sol\":2948:2980  return tryRecover(hash, v, r, s) */\n      swap4\n      pop\n      swap4\n      pop\n      pop\n      pop\n        /* \"Applications/ECDSA.sol\":2601:2988  function tryRecover(bytes32 hash, bytes32 r, bytes32 vs)... */\n      swap4\n      pop\n      swap4\n      swap2\n      pop\n      pop\n      jump\t// out\n        /* \"#utility.yul\":7:82   */\n    tag_158:\n        /* \"#utility.yul\":40:46   */\n      0x00\n        /* \"#utility.yul\":73:75   */\n      0x40\n        /* \"#utility.yul\":67:76   */\n      mload\n        /* \"#utility.yul\":57:76   */\n      swap1\n      pop\n        /* \"#utility.yul\":7:82   */\n      swap1\n      jump\t// out\n        /* \"#utility.yul\":88:205   */\n    tag_159:\n        /* \"#utility.yul\":197:198   */\n      0x00\n        /* \"#utility.yul\":194:195   */\n      dup1\n        /* \"#utility.yul\":187:199   */\n      revert\n        /* \"#utility.yul\":211:328   */\n    tag_160:\n        /* \"#utility.yul\":320:321   */\n      0x00\n        /* \"#utility.yul\":317:318   */\n      dup1\n        /* \"#utility.yul\":310:322   */\n      revert\n        /* \"#utility.yul\":334:411   */\n    tag_161:\n        /* \"#utility.yul\":371:378   */\n      0x00\n        /* \"#utility.yul\":400:405   */\n      dup2\n        /* \"#utility.yul\":389:405   */\n      swap1\n      pop\n        /* \"#utility.yul\":334:411   */\n      swap2\n      swap1\n      pop\n      jump\t// out\n        /* \"#utility.yul\":417:539   */\n    tag_162:\n        /* \"#utility.yul\":490:514   */\n      tag_225\n        /* \"#utility.yul\":508:513   */\n      dup2\n        /* \"#utility.yul\":490:514   */\n      tag_161\n      jump\t// in\n    tag_225:\n        /* \"#utility.yul\":483:488   */\n      dup2\n        /* \"#utility.yul\":480:515   */\n      eq\n        /* \"#utility.yul\":470:533   */\n      tag_226\n      jumpi\n        /* \"#utility.yul\":529:530   */\n      0x00\n        /* \"#utility.yul\":526:527   */\n      dup1\n        /* \"#utility.yul\":519:531   */\n      revert\n        /* \"#utility.yul\":470:533   */\n    tag_226:\n        /* \"#utility.yul\":417:539   */\n      pop\n      jump\t// out\n        /* \"#utility.yul\":545:684   */\n    tag_163:\n        /* \"#utility.yul\":591:596   */\n      0x00\n        /* \"#utility.yul\":629:635   */\n      dup2\n        /* \"#utility.yul\":616:636   */\n      calldataload\n        /* \"#utility.yul\":607:636   */\n      swap1\n      pop\n        /* \"#utility.yul\":645:678   */\n      tag_228\n        /* \"#utility.yul\":672:677   */\n      dup2\n        /* \"#utility.yul\":645:678   */\n      tag_162\n      jump\t// in\n    tag_228:\n        /* \"#utility.yul\":545:684   */\n      swap3\n      swap2\n      pop\n      pop\n      jump\t// out\n        /* \"#utility.yul\":690:807   */\n    tag_164:\n        /* \"#utility.yul\":799:800   */\n      0x00\n        /* \"#utility.yul\":796:797   */\n      dup1\n        /* \"#utility.yul\":789:801   */\n      revert\n        /* \"#utility.yul\":813:930   */\n    tag_165:\n        /* \"#utility.yul\":922:923   */\n      0x00\n        /* \"#utility.yul\":919:920   */\n      dup1\n        /* \"#utility.yul\":912:924   */\n      revert\n        /* \"#utility.yul\":936:1038   */\n    tag_166:\n        /* \"#utility.yul\":977:983   */\n      0x00\n        /* \"#utility.yul\":1028:1030   */\n      0x1f\n        /* \"#utility.yul\":1024:1031   */\n      not\n        /* \"#utility.yul\":1019:1021   */\n      0x1f\n        /* \"#utility.yul\":1012:1017   */\n      dup4\n        /* \"#utility.yul\":1008:1022   */\n      add\n        /* \"#utility.yul\":1004:1032   */\n      and\n        /* \"#utility.yul\":994:1032   */\n      swap1\n      pop\n        /* \"#utility.yul\":936:1038   */\n      swap2\n      swap1\n      pop\n      jump\t// out\n        /* \"#utility.yul\":1044:1224   */\n    tag_167:\n        /* \"#utility.yul\":1092:1169   */\n      0x4e487b7100000000000000000000000000000000000000000000000000000000\n        /* \"#utility.yul\":1089:1090   */\n      0x00\n        /* \"#utility.yul\":1082:1170   */\n      mstore\n        /* \"#utility.yul\":1189:1193   */\n      0x41\n        /* \"#utility.yul\":1186:1187   */\n      0x04\n        /* \"#utility.yul\":1179:1194   */\n      mstore\n        /* \"#utility.yul\":1213:1217   */\n      0x24\n        /* \"#utility.yul\":1210:1211   */\n      0x00\n        /* \"#utility.yul\":1203:1218   */\n      revert\n        /* \"#utility.yul\":1230:1511   */\n    tag_168:\n        /* \"#utility.yul\":1313:1340   */\n      tag_234\n        /* \"#utility.yul\":1335:1339   */\n      dup3\n        /* \"#utility.yul\":1313:1340   */\n      tag_166\n      jump\t// in\n    tag_234:\n        /* \"#utility.yul\":1305:1311   */\n      dup2\n        /* \"#utility.yul\":1301:1341   */\n      add\n        /* \"#utility.yul\":1443:1449   */\n      dup2\n        /* \"#utility.yul\":1431:1441   */\n      dup2\n        /* \"#utility.yul\":1428:1450   */\n      lt\n        /* \"#utility.yul\":1407:1425   */\n      0xffffffffffffffff\n        /* \"#utility.yul\":1395:1405   */\n      dup3\n        /* \"#utility.yul\":1392:1426   */\n      gt\n        /* \"#utility.yul\":1389:1451   */\n      or\n        /* \"#utility.yul\":1386:1474   */\n      iszero\n      tag_235\n      jumpi\n        /* \"#utility.yul\":1454:1472   */\n      tag_236\n      tag_167\n      jump\t// in\n    tag_236:\n        /* \"#utility.yul\":1386:1474   */\n    tag_235:\n        /* \"#utility.yul\":1494:1504   */\n      dup1\n        /* \"#utility.yul\":1490:1492   */\n      0x40\n        /* \"#utility.yul\":1483:1505   */\n      mstore\n        /* \"#utility.yul\":1273:1511   */\n      pop\n        /* \"#utility.yul\":1230:1511   */\n      pop\n      pop\n      jump\t// out\n        /* \"#utility.yul\":1517:1646   */\n    tag_169:\n        /* \"#utility.yul\":1551:1557   */\n      0x00\n        /* \"#utility.yul\":1578:1598   */\n      tag_238\n      tag_158\n      jump\t// in\n    tag_238:\n        /* \"#utility.yul\":1568:1598   */\n      swap1\n      pop\n        /* \"#utility.yul\":1607:1640   */\n      tag_239\n        /* \"#utility.yul\":1635:1639   */\n      dup3\n        /* \"#utility.yul\":1627:1633   */\n      dup3\n        /* \"#utility.yul\":1607:1640   */\n      tag_168\n      jump\t// in\n    tag_239:\n        /* \"#utility.yul\":1517:1646   */\n      swap2\n      swap1\n      pop\n      jump\t// out\n        /* \"#utility.yul\":1652:1959   */\n    tag_170:\n        /* \"#utility.yul\":1713:1717   */\n      0x00\n        /* \"#utility.yul\":1803:1821   */\n      0xffffffffffffffff\n        /* \"#utility.yul\":1795:1801   */\n      dup3\n        /* \"#utility.yul\":1792:1822   */\n      gt\n        /* \"#utility.yul\":1789:1845   */\n      iszero\n      tag_241\n      jumpi\n        /* \"#utility.yul\":1825:1843   */\n      tag_242\n      tag_167\n      jump\t// in\n    tag_242:\n        /* \"#utility.yul\":1789:1845   */\n    tag_241:\n        /* \"#utility.yul\":1863:1892   */\n      tag_243\n        /* \"#utility.yul\":1885:1891   */\n      dup3\n        /* \"#utility.yul\":1863:1892   */\n      tag_166\n      jump\t// in\n    tag_243:\n        /* \"#utility.yul\":1855:1892   */\n      swap1\n      pop\n        /* \"#utility.yul\":1947:1951   */\n      0x20\n        /* \"#utility.yul\":1941:1945   */\n      dup2\n        /* \"#utility.yul\":1937:1952   */\n      add\n        /* \"#utility.yul\":1929:1952   */\n      swap1\n      pop\n        /* \"#utility.yul\":1652:1959   */\n      swap2\n      swap1\n      pop\n      jump\t// out\n        /* \"#utility.yul\":1965:2113   */\n    tag_171:\n        /* \"#utility.yul\":2063:2069   */\n      dup3\n        /* \"#utility.yul\":2058:2061   */\n      dup2\n        /* \"#utility.yul\":2053:2056   */\n      dup4\n        /* \"#utility.yul\":2040:2070   */\n      calldatacopy\n        /* \"#utility.yul\":2104:2105   */\n      0x00\n        /* \"#utility.yul\":2095:2101   */\n      dup4\n        /* \"#utility.yul\":2090:2093   */\n      dup4\n        /* \"#utility.yul\":2086:2102   */\n      add\n        /* \"#utility.yul\":2079:2106   */\n      mstore\n        /* \"#utility.yul\":1965:2113   */\n      pop\n      pop\n      pop\n      jump\t// out\n        /* \"#utility.yul\":2119:2542   */\n    tag_172:\n        /* \"#utility.yul\":2196:2201   */\n      0x00\n        /* \"#utility.yul\":2221:2286   */\n      tag_246\n        /* \"#utility.yul\":2237:2285   */\n      tag_247\n        /* \"#utility.yul\":2278:2284   */\n      dup5\n        /* \"#utility.yul\":2237:2285   */\n      tag_170\n      jump\t// in\n    tag_247:\n        /* \"#utility.yul\":2221:2286   */\n      tag_169\n      jump\t// in\n    tag_246:\n        /* \"#utility.yul\":2212:2286   */\n      swap1\n      pop\n        /* \"#utility.yul\":2309:2315   */\n      dup3\n        /* \"#utility.yul\":2302:2307   */\n      dup2\n        /* \"#utility.yul\":2295:2316   */\n      mstore\n        /* \"#utility.yul\":2347:2351   */\n      0x20\n        /* \"#utility.yul\":2340:2345   */\n      dup2\n        /* \"#utility.yul\":2336:2352   */\n      add\n        /* \"#utility.yul\":2385:2388   */\n      dup5\n        /* \"#utility.yul\":2376:2382   */\n      dup5\n        /* \"#utility.yul\":2371:2374   */\n      dup5\n        /* \"#utility.yul\":2367:2383   */\n      add\n        /* \"#utility.yul\":2364:2389   */\n      gt\n        /* \"#utility.yul\":2361:2473   */\n      iszero\n      tag_248\n      jumpi\n        /* \"#utility.yul\":2392:2471   */\n      tag_249\n      tag_165\n      jump\t// in\n    tag_249:\n        /* \"#utility.yul\":2361:2473   */\n    tag_248:\n        /* \"#utility.yul\":2482:2536   */\n      tag_250\n        /* \"#utility.yul\":2529:2535   */\n      dup5\n        /* \"#utility.yul\":2524:2527   */\n      dup3\n        /* \"#utility.yul\":2519:2522   */\n      dup6\n        /* \"#utility.yul\":2482:2536   */\n      tag_171\n      jump\t// in\n    tag_250:\n        /* \"#utility.yul\":2202:2542   */\n      pop\n        /* \"#utility.yul\":2119:2542   */\n      swap4\n      swap3\n      pop\n      pop\n      pop\n      jump\t// out\n        /* \"#utility.yul\":2561:2899   */\n    tag_173:\n        /* \"#utility.yul\":2616:2621   */\n      0x00\n        /* \"#utility.yul\":2665:2668   */\n      dup3\n        /* \"#utility.yul\":2658:2662   */\n      0x1f\n        /* \"#utility.yul\":2650:2656   */\n      dup4\n        /* \"#utility.yul\":2646:2663   */\n      add\n        /* \"#utility.yul\":2642:2669   */\n      slt\n        /* \"#utility.yul\":2632:2754   */\n      tag_252\n      jumpi\n        /* \"#utility.yul\":2673:2752   */\n      tag_253\n      tag_164\n      jump\t// in\n    tag_253:\n        /* \"#utility.yul\":2632:2754   */\n    tag_252:\n        /* \"#utility.yul\":2790:2796   */\n      dup2\n        /* \"#utility.yul\":2777:2797   */\n      calldataload\n        /* \"#utility.yul\":2815:2893   */\n      tag_254\n        /* \"#utility.yul\":2889:2892   */\n      dup5\n        /* \"#utility.yul\":2881:2887   */\n      dup3\n        /* \"#utility.yul\":2874:2878   */\n      0x20\n        /* \"#utility.yul\":2866:2872   */\n      dup7\n        /* \"#utility.yul\":2862:2879   */\n      add\n        /* \"#utility.yul\":2815:2893   */\n      tag_172\n      jump\t// in\n    tag_254:\n        /* \"#utility.yul\":2806:2893   */\n      swap2\n      pop\n        /* \"#utility.yul\":2622:2899   */\n      pop\n        /* \"#utility.yul\":2561:2899   */\n      swap3\n      swap2\n      pop\n      pop\n      jump\t// out\n        /* \"#utility.yul\":2905:3557   */\n    tag_14:\n        /* \"#utility.yul\":2982:2988   */\n      0x00\n        /* \"#utility.yul\":2990:2996   */\n      dup1\n        /* \"#utility.yul\":3039:3041   */\n      0x40\n        /* \"#utility.yul\":3027:3036   */\n      dup4\n        /* \"#utility.yul\":3018:3025   */\n      dup6\n        /* \"#utility.yul\":3014:3037   */\n      sub\n        /* \"#utility.yul\":3010:3042   */\n      slt\n        /* \"#utility.yul\":3007:3126   */\n      iszero\n      tag_256\n      jumpi\n        /* \"#utility.yul\":3045:3124   */\n      tag_257\n      tag_159\n      jump\t// in\n    tag_257:\n        /* \"#utility.yul\":3007:3126   */\n    tag_256:\n        /* \"#utility.yul\":3165:3166   */\n      0x00\n        /* \"#utility.yul\":3190:3243   */\n      tag_258\n        /* \"#utility.yul\":3235:3242   */\n      dup6\n        /* \"#utility.yul\":3226:3232   */\n      dup3\n        /* \"#utility.yul\":3215:3224   */\n      dup7\n        /* \"#utility.yul\":3211:3233   */\n      add\n        /* \"#utility.yul\":3190:3243   */\n      tag_163\n      jump\t// in\n    tag_258:\n        /* \"#utility.yul\":3180:3243   */\n      swap3\n      pop\n        /* \"#utility.yul\":3136:3253   */\n      pop\n        /* \"#utility.yul\":3320:3322   */\n      0x20\n        /* \"#utility.yul\":3309:3318   */\n      dup4\n        /* \"#utility.yul\":3305:3323   */\n      add\n        /* \"#utility.yul\":3292:3324   */\n      calldataload\n        /* \"#utility.yul\":3351:3369   */\n      0xffffffffffffffff\n        /* \"#utility.yul\":3343:3349   */\n      dup2\n        /* \"#utility.yul\":3340:3370   */\n      gt\n        /* \"#utility.yul\":3337:3454   */\n      iszero\n      tag_259\n      jumpi\n        /* \"#utility.yul\":3373:3452   */\n      tag_260\n      tag_160\n      jump\t// in\n    tag_260:\n        /* \"#utility.yul\":3337:3454   */\n    tag_259:\n        /* \"#utility.yul\":3478:3540   */\n      tag_261\n        /* \"#utility.yul\":3532:3539   */\n      dup6\n        /* \"#utility.yul\":3523:3529   */\n      dup3\n        /* \"#utility.yul\":3512:3521   */\n      dup7\n        /* \"#utility.yul\":3508:3530   */\n      add\n        /* \"#utility.yul\":3478:3540   */\n      tag_173\n      jump\t// in\n    tag_261:\n        /* \"#utility.yul\":3468:3540   */\n      swap2\n      pop\n        /* \"#utility.yul\":3263:3550   */\n      pop\n        /* \"#utility.yul\":2905:3557   */\n      swap3\n      pop\n      swap3\n      swap1\n      pop\n      jump\t// out\n        /* \"#utility.yul\":3563:3892   */\n    tag_18:\n        /* \"#utility.yul\":3622:3628   */\n      0x00\n        /* \"#utility.yul\":3671:3673   */\n      0x20\n        /* \"#utility.yul\":3659:3668   */\n      dup3\n        /* \"#utility.yul\":3650:3657   */\n      dup5\n        /* \"#utility.yul\":3646:3669   */\n      sub\n        /* \"#utility.yul\":3642:3674   */\n      slt\n        /* \"#utility.yul\":3639:3758   */\n      iszero\n      tag_263\n      jumpi\n        /* \"#utility.yul\":3677:3756   */\n      tag_264\n      tag_159\n      jump\t// in\n    tag_264:\n        /* \"#utility.yul\":3639:3758   */\n    tag_263:\n        /* \"#utility.yul\":3797:3798   */\n      0x00\n        /* \"#utility.yul\":3822:3875   */\n      tag_265\n        /* \"#utility.yul\":3867:3874   */\n      dup5\n        /* \"#utility.yul\":3858:3864   */\n      dup3\n        /* \"#utility.yul\":3847:3856   */\n      dup6\n        /* \"#utility.yul\":3843:3865   */\n      add\n        /* \"#utility.yul\":3822:3875   */\n      tag_163\n      jump\t// in\n    tag_265:\n        /* \"#utility.yul\":3812:3875   */\n      swap2\n      pop\n        /* \"#utility.yul\":3768:3885   */\n      pop\n        /* \"#utility.yul\":3563:3892   */\n      swap3\n      swap2\n      pop\n      pop\n      jump\t// out\n        /* \"#utility.yul\":3898:3975   */\n    tag_174:\n        /* \"#utility.yul\":3935:3942   */\n      0x00\n        /* \"#utility.yul\":3964:3969   */\n      dup2\n        /* \"#utility.yul\":3953:3969   */\n      swap1\n      pop\n        /* \"#utility.yul\":3898:3975   */\n      swap2\n      swap1\n      pop\n      jump\t// out\n        /* \"#utility.yul\":3981:4099   */\n    tag_175:\n        /* \"#utility.yul\":4068:4092   */\n      tag_268\n        /* \"#utility.yul\":4086:4091   */\n      dup2\n        /* \"#utility.yul\":4068:4092   */\n      tag_174\n      jump\t// in\n    tag_268:\n        /* \"#utility.yul\":4063:4066   */\n      dup3\n        /* \"#utility.yul\":4056:4093   */\n      mstore\n        /* \"#utility.yul\":3981:4099   */\n      pop\n      pop\n      jump\t// out\n        /* \"#utility.yul\":4105:4327   */\n    tag_21:\n        /* \"#utility.yul\":4198:4202   */\n      0x00\n        /* \"#utility.yul\":4236:4238   */\n      0x20\n        /* \"#utility.yul\":4225:4234   */\n      dup3\n        /* \"#utility.yul\":4221:4239   */\n      add\n        /* \"#utility.yul\":4213:4239   */\n      swap1\n      pop\n        /* \"#utility.yul\":4249:4320   */\n      tag_270\n        /* \"#utility.yul\":4317:4318   */\n      0x00\n        /* \"#utility.yul\":4306:4315   */\n      dup4\n        /* \"#utility.yul\":4302:4319   */\n      add\n        /* \"#utility.yul\":4293:4299   */\n      dup5\n        /* \"#utility.yul\":4249:4320   */\n      tag_175\n      jump\t// in\n    tag_270:\n        /* \"#utility.yul\":4105:4327   */\n      swap3\n      swap2\n      pop\n      pop\n      jump\t// out\n        /* \"#utility.yul\":4333:4459   */\n    tag_176:\n        /* \"#utility.yul\":4370:4377   */\n      0x00\n        /* \"#utility.yul\":4410:4452   */\n      0xffffffffffffffffffffffffffffffffffffffff\n        /* \"#utility.yul\":4403:4408   */\n      dup3\n        /* \"#utility.yul\":4399:4453   */\n      and\n        /* \"#utility.yul\":4388:4453   */\n      swap1\n      pop\n        /* \"#utility.yul\":4333:4459   */\n      swap2\n      swap1\n      pop\n      jump\t// out\n        /* \"#utility.yul\":4465:4569   */\n    tag_177:\n        /* \"#utility.yul\":4510:4517   */\n      0x00\n        /* \"#utility.yul\":4539:4563   */\n      tag_273\n        /* \"#utility.yul\":4557:4562   */\n      dup3\n        /* \"#utility.yul\":4539:4563   */\n      tag_176\n      jump\t// in\n    tag_273:\n        /* \"#utility.yul\":4528:4563   */\n      swap1\n      pop\n        /* \"#utility.yul\":4465:4569   */\n      swap2\n      swap1\n      pop\n      jump\t// out\n        /* \"#utility.yul\":4575:4717   */\n    tag_178:\n        /* \"#utility.yul\":4678:4710   */\n      tag_275\n        /* \"#utility.yul\":4704:4709   */\n      dup2\n        /* \"#utility.yul\":4678:4710   */\n      tag_177\n      jump\t// in\n    tag_275:\n        /* \"#utility.yul\":4673:4676   */\n      dup3\n        /* \"#utility.yul\":4666:4711   */\n      mstore\n        /* \"#utility.yul\":4575:4717   */\n      pop\n      pop\n      jump\t// out\n        /* \"#utility.yul\":4723:4977   */\n    tag_25:\n        /* \"#utility.yul\":4832:4836   */\n      0x00\n        /* \"#utility.yul\":4870:4872   */\n      0x20\n        /* \"#utility.yul\":4859:4868   */\n      dup3\n        /* \"#utility.yul\":4855:4873   */\n      add\n        /* \"#utility.yul\":4847:4873   */\n      swap1\n      pop\n        /* \"#utility.yul\":4883:4970   */\n      tag_277\n        /* \"#utility.yul\":4967:4968   */\n      0x00\n        /* \"#utility.yul\":4956:4965   */\n      dup4\n        /* \"#utility.yul\":4952:4969   */\n      add\n        /* \"#utility.yul\":4943:4949   */\n      dup5\n        /* \"#utility.yul\":4883:4970   */\n      tag_178\n      jump\t// in\n    tag_277:\n        /* \"#utility.yul\":4723:4977   */\n      swap3\n      swap2\n      pop\n      pop\n      jump\t// out\n        /* \"#utility.yul\":4983:5073   */\n    tag_179:\n        /* \"#utility.yul\":5017:5024   */\n      0x00\n        /* \"#utility.yul\":5060:5065   */\n      dup2\n        /* \"#utility.yul\":5053:5066   */\n      iszero\n        /* \"#utility.yul\":5046:5067   */\n      iszero\n        /* \"#utility.yul\":5035:5067   */\n      swap1\n      pop\n        /* \"#utility.yul\":4983:5073   */\n      swap2\n      swap1\n      pop\n      jump\t// out\n        /* \"#utility.yul\":5079:5188   */\n    tag_180:\n        /* \"#utility.yul\":5160:5181   */\n      tag_280\n        /* \"#utility.yul\":5175:5180   */\n      dup2\n        /* \"#utility.yul\":5160:5181   */\n      tag_179\n      jump\t// in\n    tag_280:\n        /* \"#utility.yul\":5155:5158   */\n      dup3\n        /* \"#utility.yul\":5148:5182   */\n      mstore\n        /* \"#utility.yul\":5079:5188   */\n      pop\n      pop\n      jump\t// out\n        /* \"#utility.yul\":5194:5404   */\n    tag_34:\n        /* \"#utility.yul\":5281:5285   */\n      0x00\n        /* \"#utility.yul\":5319:5321   */\n      0x20\n        /* \"#utility.yul\":5308:5317   */\n      dup3\n        /* \"#utility.yul\":5304:5322   */\n      add\n        /* \"#utility.yul\":5296:5322   */\n      swap1\n      pop\n        /* \"#utility.yul\":5332:5397   */\n      tag_282\n        /* \"#utility.yul\":5394:5395   */\n      0x00\n        /* \"#utility.yul\":5383:5392   */\n      dup4\n        /* \"#utility.yul\":5379:5396   */\n      add\n        /* \"#utility.yul\":5370:5376   */\n      dup5\n        /* \"#utility.yul\":5332:5397   */\n      tag_180\n      jump\t// in\n    tag_282:\n        /* \"#utility.yul\":5194:5404   */\n      swap3\n      swap2\n      pop\n      pop\n      jump\t// out\n        /* \"#utility.yul\":5410:5528   */\n    tag_181:\n        /* \"#utility.yul\":5497:5521   */\n      tag_284\n        /* \"#utility.yul\":5515:5520   */\n      dup2\n        /* \"#utility.yul\":5497:5521   */\n      tag_161\n      jump\t// in\n    tag_284:\n        /* \"#utility.yul\":5492:5495   */\n      dup3\n        /* \"#utility.yul\":5485:5522   */\n      mstore\n        /* \"#utility.yul\":5410:5528   */\n      pop\n      pop\n      jump\t// out\n        /* \"#utility.yul\":5534:5756   */\n    tag_38:\n        /* \"#utility.yul\":5627:5631   */\n      0x00\n        /* \"#utility.yul\":5665:5667   */\n      0x20\n        /* \"#utility.yul\":5654:5663   */\n      dup3\n        /* \"#utility.yul\":5650:5668   */\n      add\n        /* \"#utility.yul\":5642:5668   */\n      swap1\n      pop\n        /* \"#utility.yul\":5678:5749   */\n      tag_286\n        /* \"#utility.yul\":5746:5747   */\n      0x00\n        /* \"#utility.yul\":5735:5744   */\n      dup4\n        /* \"#utility.yul\":5731:5748   */\n      add\n        /* \"#utility.yul\":5722:5728   */\n      dup5\n        /* \"#utility.yul\":5678:5749   */\n      tag_181\n      jump\t// in\n    tag_286:\n        /* \"#utility.yul\":5534:5756   */\n      swap3\n      swap2\n      pop\n      pop\n      jump\t// out\n        /* \"#utility.yul\":5762:5931   */\n    tag_182:\n        /* \"#utility.yul\":5846:5857   */\n      0x00\n        /* \"#utility.yul\":5880:5886   */\n      dup3\n        /* \"#utility.yul\":5875:5878   */\n      dup3\n        /* \"#utility.yul\":5868:5887   */\n      mstore\n        /* \"#utility.yul\":5920:5924   */\n      0x20\n        /* \"#utility.yul\":5915:5918   */\n      dup3\n        /* \"#utility.yul\":5911:5925   */\n      add\n        /* \"#utility.yul\":5896:5925   */\n      swap1\n      pop\n        /* \"#utility.yul\":5762:5931   */\n      swap3\n      swap2\n      pop\n      pop\n      jump\t// out\n        /* \"#utility.yul\":5937:6096   */\n    tag_183:\n        /* \"#utility.yul\":6077:6088   */\n      0x2172656365697665720000000000000000000000000000000000000000000000\n        /* \"#utility.yul\":6073:6074   */\n      0x00\n        /* \"#utility.yul\":6065:6071   */\n      dup3\n        /* \"#utility.yul\":6061:6075   */\n      add\n        /* \"#utility.yul\":6054:6089   */\n      mstore\n        /* \"#utility.yul\":5937:6096   */\n      pop\n      jump\t// out\n        /* \"#utility.yul\":6102:6467   */\n    tag_184:\n        /* \"#utility.yul\":6244:6247   */\n      0x00\n        /* \"#utility.yul\":6265:6331   */\n      tag_290\n        /* \"#utility.yul\":6329:6330   */\n      0x09\n        /* \"#utility.yul\":6324:6327   */\n      dup4\n        /* \"#utility.yul\":6265:6331   */\n      tag_182\n      jump\t// in\n    tag_290:\n        /* \"#utility.yul\":6258:6331   */\n      swap2\n      pop\n        /* \"#utility.yul\":6340:6433   */\n      tag_291\n        /* \"#utility.yul\":6429:6432   */\n      dup3\n        /* \"#utility.yul\":6340:6433   */\n      tag_183\n      jump\t// in\n    tag_291:\n        /* \"#utility.yul\":6458:6460   */\n      0x20\n        /* \"#utility.yul\":6453:6456   */\n      dup3\n        /* \"#utility.yul\":6449:6461   */\n      add\n        /* \"#utility.yul\":6442:6461   */\n      swap1\n      pop\n        /* \"#utility.yul\":6102:6467   */\n      swap2\n      swap1\n      pop\n      jump\t// out\n        /* \"#utility.yul\":6473:6892   */\n    tag_49:\n        /* \"#utility.yul\":6639:6643   */\n      0x00\n        /* \"#utility.yul\":6677:6679   */\n      0x20\n        /* \"#utility.yul\":6666:6675   */\n      dup3\n        /* \"#utility.yul\":6662:6680   */\n      add\n        /* \"#utility.yul\":6654:6680   */\n      swap1\n      pop\n        /* \"#utility.yul\":6726:6735   */\n      dup2\n        /* \"#utility.yul\":6720:6724   */\n      dup2\n        /* \"#utility.yul\":6716:6736   */\n      sub\n        /* \"#utility.yul\":6712:6713   */\n      0x00\n        /* \"#utility.yul\":6701:6710   */\n      dup4\n        /* \"#utility.yul\":6697:6714   */\n      add\n        /* \"#utility.yul\":6690:6737   */\n      mstore\n        /* \"#utility.yul\":6754:6885   */\n      tag_293\n        /* \"#utility.yul\":6880:6884   */\n      dup2\n        /* \"#utility.yul\":6754:6885   */\n      tag_184\n      jump\t// in\n    tag_293:\n        /* \"#utility.yul\":6746:6885   */\n      swap1\n      pop\n        /* \"#utility.yul\":6473:6892   */\n      swap2\n      swap1\n      pop\n      jump\t// out\n        /* \"#utility.yul\":6898:7059   */\n    tag_185:\n        /* \"#utility.yul\":7038:7051   */\n      0x696e76616c696420736967000000000000000000000000000000000000000000\n        /* \"#utility.yul\":7034:7035   */\n      0x00\n        /* \"#utility.yul\":7026:7032   */\n      dup3\n        /* \"#utility.yul\":7022:7036   */\n      add\n        /* \"#utility.yul\":7015:7052   */\n      mstore\n        /* \"#utility.yul\":6898:7059   */\n      pop\n      jump\t// out\n        /* \"#utility.yul\":7065:7431   */\n    tag_186:\n        /* \"#utility.yul\":7207:7210   */\n      0x00\n        /* \"#utility.yul\":7228:7295   */\n      tag_296\n        /* \"#utility.yul\":7292:7294   */\n      0x0b\n        /* \"#utility.yul\":7287:7290   */\n      dup4\n        /* \"#utility.yul\":7228:7295   */\n      tag_182\n      jump\t// in\n    tag_296:\n        /* \"#utility.yul\":7221:7295   */\n      swap2\n      pop\n        /* \"#utility.yul\":7304:7397   */\n      tag_297\n        /* \"#utility.yul\":7393:7396   */\n      dup3\n        /* \"#utility.yul\":7304:7397   */\n      tag_185\n      jump\t// in\n    tag_297:\n        /* \"#utility.yul\":7422:7424   */\n      0x20\n        /* \"#utility.yul\":7417:7420   */\n      dup3\n        /* \"#utility.yul\":7413:7425   */\n      add\n        /* \"#utility.yul\":7406:7425   */\n      swap1\n      pop\n        /* \"#utility.yul\":7065:7431   */\n      swap2\n      swap1\n      pop\n      jump\t// out\n        /* \"#utility.yul\":7437:7856   */\n    tag_54:\n        /* \"#utility.yul\":7603:7607   */\n      0x00\n        /* \"#utility.yul\":7641:7643   */\n      0x20\n        /* \"#utility.yul\":7630:7639   */\n      dup3\n        /* \"#utility.yul\":7626:7644   */\n      add\n        /* \"#utility.yul\":7618:7644   */\n      swap1\n      pop\n        /* \"#utility.yul\":7690:7699   */\n      dup2\n        /* \"#utility.yul\":7684:7688   */\n      dup2\n        /* \"#utility.yul\":7680:7700   */\n      sub\n        /* \"#utility.yul\":7676:7677   */\n      0x00\n        /* \"#utility.yul\":7665:7674   */\n      dup4\n        /* \"#utility.yul\":7661:7678   */\n      add\n        /* \"#utility.yul\":7654:7701   */\n      mstore\n        /* \"#utility.yul\":7718:7849   */\n      tag_299\n        /* \"#utility.yul\":7844:7848   */\n      dup2\n        /* \"#utility.yul\":7718:7849   */\n      tag_186\n      jump\t// in\n    tag_299:\n        /* \"#utility.yul\":7710:7849   */\n      swap1\n      pop\n        /* \"#utility.yul\":7437:7856   */\n      swap2\n      swap1\n      pop\n      jump\t// out\n        /* \"#utility.yul\":7862:8009   */\n    tag_187:\n        /* \"#utility.yul\":7963:7974   */\n      0x00\n        /* \"#utility.yul\":8000:8003   */\n      dup2\n        /* \"#utility.yul\":7985:8003   */\n      swap1\n      pop\n        /* \"#utility.yul\":7862:8009   */\n      swap3\n      swap2\n      pop\n      pop\n      jump\t// out\n        /* \"#utility.yul\":8015:8129   */\n    tag_188:\n      pop\n      jump\t// out\n        /* \"#utility.yul\":8135:8533   */\n    tag_189:\n        /* \"#utility.yul\":8294:8297   */\n      0x00\n        /* \"#utility.yul\":8315:8398   */\n      tag_303\n        /* \"#utility.yul\":8396:8397   */\n      0x00\n        /* \"#utility.yul\":8391:8394   */\n      dup4\n        /* \"#utility.yul\":8315:8398   */\n      tag_187\n      jump\t// in\n    tag_303:\n        /* \"#utility.yul\":8308:8398   */\n      swap2\n      pop\n        /* \"#utility.yul\":8407:8500   */\n      tag_304\n        /* \"#utility.yul\":8496:8499   */\n      dup3\n        /* \"#utility.yul\":8407:8500   */\n      tag_188\n      jump\t// in\n    tag_304:\n        /* \"#utility.yul\":8525:8526   */\n      0x00\n        /* \"#utility.yul\":8520:8523   */\n      dup3\n        /* \"#utility.yul\":8516:8527   */\n      add\n        /* \"#utility.yul\":8509:8527   */\n      swap1\n      pop\n        /* \"#utility.yul\":8135:8533   */\n      swap2\n      swap1\n      pop\n      jump\t// out\n        /* \"#utility.yul\":8539:8918   */\n    tag_56:\n        /* \"#utility.yul\":8723:8726   */\n      0x00\n        /* \"#utility.yul\":8745:8892   */\n      tag_306\n        /* \"#utility.yul\":8888:8891   */\n      dup3\n        /* \"#utility.yul\":8745:8892   */\n      tag_189\n      jump\t// in\n    tag_306:\n        /* \"#utility.yul\":8738:8892   */\n      swap2\n      pop\n        /* \"#utility.yul\":8909:8912   */\n      dup2\n        /* \"#utility.yul\":8902:8912   */\n      swap1\n      pop\n        /* \"#utility.yul\":8539:8918   */\n      swap2\n      swap1\n      pop\n      jump\t// out\n        /* \"#utility.yul\":8924:9094   */\n    tag_190:\n        /* \"#utility.yul\":9064:9086   */\n      0x4661696c656420746f2073656e64204574686572000000000000000000000000\n        /* \"#utility.yul\":9060:9061   */\n      0x00\n        /* \"#utility.yul\":9052:9058   */\n      dup3\n        /* \"#utility.yul\":9048:9062   */\n      add\n        /* \"#utility.yul\":9041:9087   */\n      mstore\n        /* \"#utility.yul\":8924:9094   */\n      pop\n      jump\t// out\n        /* \"#utility.yul\":9100:9466   */\n    tag_191:\n        /* \"#utility.yul\":9242:9245   */\n      0x00\n        /* \"#utility.yul\":9263:9330   */\n      tag_309\n        /* \"#utility.yul\":9327:9329   */\n      0x14\n        /* \"#utility.yul\":9322:9325   */\n      dup4\n        /* \"#utility.yul\":9263:9330   */\n      tag_182\n      jump\t// in\n    tag_309:\n        /* \"#utility.yul\":9256:9330   */\n      swap2\n      pop\n        /* \"#utility.yul\":9339:9432   */\n      tag_310\n        /* \"#utility.yul\":9428:9431   */\n      dup3\n        /* \"#utility.yul\":9339:9432   */\n      tag_190\n      jump\t// in\n    tag_310:\n        /* \"#utility.yul\":9457:9459   */\n      0x20\n        /* \"#utility.yul\":9452:9455   */\n      dup3\n        /* \"#utility.yul\":9448:9460   */\n      add\n        /* \"#utility.yul\":9441:9460   */\n      swap1\n      pop\n        /* \"#utility.yul\":9100:9466   */\n      swap2\n      swap1\n      pop\n      jump\t// out\n        /* \"#utility.yul\":9472:9891   */\n    tag_62:\n        /* \"#utility.yul\":9638:9642   */\n      0x00\n        /* \"#utility.yul\":9676:9678   */\n      0x20\n        /* \"#utility.yul\":9665:9674   */\n      dup3\n        /* \"#utility.yul\":9661:9679   */\n      add\n        /* \"#utility.yul\":9653:9679   */\n      swap1\n      pop\n        /* \"#utility.yul\":9725:9734   */\n      dup2\n        /* \"#utility.yul\":9719:9723   */\n      dup2\n        /* \"#utility.yul\":9715:9735   */\n      sub\n        /* \"#utility.yul\":9711:9712   */\n      0x00\n        /* \"#utility.yul\":9700:9709   */\n      dup4\n        /* \"#utility.yul\":9696:9713   */\n      add\n        /* \"#utility.yul\":9689:9736   */\n      mstore\n        /* \"#utility.yul\":9753:9884   */\n      tag_312\n        /* \"#utility.yul\":9879:9883   */\n      dup2\n        /* \"#utility.yul\":9753:9884   */\n      tag_191\n      jump\t// in\n    tag_312:\n        /* \"#utility.yul\":9745:9884   */\n      swap1\n      pop\n        /* \"#utility.yul\":9472:9891   */\n      swap2\n      swap1\n      pop\n      jump\t// out\n        /* \"#utility.yul\":9897:10054   */\n    tag_192:\n        /* \"#utility.yul\":10037:10046   */\n      0x2173656e64657200000000000000000000000000000000000000000000000000\n        /* \"#utility.yul\":10033:10034   */\n      0x00\n        /* \"#utility.yul\":10025:10031   */\n      dup3\n        /* \"#utility.yul\":10021:10035   */\n      add\n        /* \"#utility.yul\":10014:10047   */\n      mstore\n        /* \"#utility.yul\":9897:10054   */\n      pop\n      jump\t// out\n        /* \"#utility.yul\":10060:10425   */\n    tag_193:\n        /* \"#utility.yul\":10202:10205   */\n      0x00\n        /* \"#utility.yul\":10223:10289   */\n      tag_315\n        /* \"#utility.yul\":10287:10288   */\n      0x07\n        /* \"#utility.yul\":10282:10285   */\n      dup4\n        /* \"#utility.yul\":10223:10289   */\n      tag_182\n      jump\t// in\n    tag_315:\n        /* \"#utility.yul\":10216:10289   */\n      swap2\n      pop\n        /* \"#utility.yul\":10298:10391   */\n      tag_316\n        /* \"#utility.yul\":10387:10390   */\n      dup3\n        /* \"#utility.yul\":10298:10391   */\n      tag_192\n      jump\t// in\n    tag_316:\n        /* \"#utility.yul\":10416:10418   */\n      0x20\n        /* \"#utility.yul\":10411:10414   */\n      dup3\n        /* \"#utility.yul\":10407:10419   */\n      add\n        /* \"#utility.yul\":10400:10419   */\n      swap1\n      pop\n        /* \"#utility.yul\":10060:10425   */\n      swap2\n      swap1\n      pop\n      jump\t// out\n        /* \"#utility.yul\":10431:10850   */\n    tag_74:\n        /* \"#utility.yul\":10597:10601   */\n      0x00\n        /* \"#utility.yul\":10635:10637   */\n      0x20\n        /* \"#utility.yul\":10624:10633   */\n      dup3\n        /* \"#utility.yul\":10620:10638   */\n      add\n        /* \"#utility.yul\":10612:10638   */\n      swap1\n      pop\n        /* \"#utility.yul\":10684:10693   */\n      dup2\n        /* \"#utility.yul\":10678:10682   */\n      dup2\n        /* \"#utility.yul\":10674:10694   */\n      sub\n        /* \"#utility.yul\":10670:10671   */\n      0x00\n        /* \"#utility.yul\":10659:10668   */\n      dup4\n        /* \"#utility.yul\":10655:10672   */\n      add\n        /* \"#utility.yul\":10648:10695   */\n      mstore\n        /* \"#utility.yul\":10712:10843   */\n      tag_318\n        /* \"#utility.yul\":10838:10842   */\n      dup2\n        /* \"#utility.yul\":10712:10843   */\n      tag_193\n      jump\t// in\n    tag_318:\n        /* \"#utility.yul\":10704:10843   */\n      swap1\n      pop\n        /* \"#utility.yul\":10431:10850   */\n      swap2\n      swap1\n      pop\n      jump\t// out\n        /* \"#utility.yul\":10856:11014   */\n    tag_194:\n        /* \"#utility.yul\":10996:11006   */\n      0x2165787069726564000000000000000000000000000000000000000000000000\n        /* \"#utility.yul\":10992:10993   */\n      0x00\n        /* \"#utility.yul\":10984:10990   */\n      dup3\n        /* \"#utility.yul\":10980:10994   */\n      add\n        /* \"#utility.yul\":10973:11007   */\n      mstore\n        /* \"#utility.yul\":10856:11014   */\n      pop\n      jump\t// out\n        /* \"#utility.yul\":11020:11385   */\n    tag_195:\n        /* \"#utility.yul\":11162:11165   */\n      0x00\n        /* \"#utility.yul\":11183:11249   */\n      tag_321\n        /* \"#utility.yul\":11247:11248   */\n      0x08\n        /* \"#utility.yul\":11242:11245   */\n      dup4\n        /* \"#utility.yul\":11183:11249   */\n      tag_182\n      jump\t// in\n    tag_321:\n        /* \"#utility.yul\":11176:11249   */\n      swap2\n      pop\n        /* \"#utility.yul\":11258:11351   */\n      tag_322\n        /* \"#utility.yul\":11347:11350   */\n      dup3\n        /* \"#utility.yul\":11258:11351   */\n      tag_194\n      jump\t// in\n    tag_322:\n        /* \"#utility.yul\":11376:11378   */\n      0x20\n        /* \"#utility.yul\":11371:11374   */\n      dup3\n        /* \"#utility.yul\":11367:11379   */\n      add\n        /* \"#utility.yul\":11360:11379   */\n      swap1\n      pop\n        /* \"#utility.yul\":11020:11385   */\n      swap2\n      swap1\n      pop\n      jump\t// out\n        /* \"#utility.yul\":11391:11810   */\n    tag_77:\n        /* \"#utility.yul\":11557:11561   */\n      0x00\n        /* \"#utility.yul\":11595:11597   */\n      0x20\n        /* \"#utility.yul\":11584:11593   */\n      dup3\n        /* \"#utility.yul\":11580:11598   */\n      add\n        /* \"#utility.yul\":11572:11598   */\n      swap1\n      pop\n        /* \"#utility.yul\":11644:11653   */\n      dup2\n        /* \"#utility.yul\":11638:11642   */\n      dup2\n        /* \"#utility.yul\":11634:11654   */\n      sub\n        /* \"#utility.yul\":11630:11631   */\n      0x00\n        /* \"#utility.yul\":11619:11628   */\n      dup4\n        /* \"#utility.yul\":11615:11632   */\n      add\n        /* \"#utility.yul\":11608:11655   */\n      mstore\n        /* \"#utility.yul\":11672:11803   */\n      tag_324\n        /* \"#utility.yul\":11798:11802   */\n      dup2\n        /* \"#utility.yul\":11672:11803   */\n      tag_195\n      jump\t// in\n    tag_324:\n        /* \"#utility.yul\":11664:11803   */\n      swap1\n      pop\n        /* \"#utility.yul\":11391:11810   */\n      swap2\n      swap1\n      pop\n      jump\t// out\n        /* \"#utility.yul\":11816:11912   */\n    tag_196:\n        /* \"#utility.yul\":11853:11860   */\n      0x00\n        /* \"#utility.yul\":11882:11906   */\n      tag_326\n        /* \"#utility.yul\":11900:11905   */\n      dup3\n        /* \"#utility.yul\":11882:11906   */\n      tag_176\n      jump\t// in\n    tag_326:\n        /* \"#utility.yul\":11871:11906   */\n      swap1\n      pop\n        /* \"#utility.yul\":11816:11912   */\n      swap2\n      swap1\n      pop\n      jump\t// out\n        /* \"#utility.yul\":11918:12012   */\n    tag_197:\n        /* \"#utility.yul\":11951:11959   */\n      0x00\n        /* \"#utility.yul\":11999:12004   */\n      dup2\n        /* \"#utility.yul\":11995:11997   */\n      0x60\n        /* \"#utility.yul\":11991:12005   */\n      shl\n        /* \"#utility.yul\":11970:12005   */\n      swap1\n      pop\n        /* \"#utility.yul\":11918:12012   */\n      swap2\n      swap1\n      pop\n      jump\t// out\n        /* \"#utility.yul\":12018:12112   */\n    tag_198:\n        /* \"#utility.yul\":12057:12064   */\n      0x00\n        /* \"#utility.yul\":12086:12106   */\n      tag_329\n        /* \"#utility.yul\":12100:12105   */\n      dup3\n        /* \"#utility.yul\":12086:12106   */\n      tag_197\n      jump\t// in\n    tag_329:\n        /* \"#utility.yul\":12075:12106   */\n      swap1\n      pop\n        /* \"#utility.yul\":12018:12112   */\n      swap2\n      swap1\n      pop\n      jump\t// out\n        /* \"#utility.yul\":12118:12218   */\n    tag_199:\n        /* \"#utility.yul\":12157:12164   */\n      0x00\n        /* \"#utility.yul\":12186:12212   */\n      tag_331\n        /* \"#utility.yul\":12206:12211   */\n      dup3\n        /* \"#utility.yul\":12186:12212   */\n      tag_198\n      jump\t// in\n    tag_331:\n        /* \"#utility.yul\":12175:12212   */\n      swap1\n      pop\n        /* \"#utility.yul\":12118:12218   */\n      swap2\n      swap1\n      pop\n      jump\t// out\n        /* \"#utility.yul\":12224:12381   */\n    tag_200:\n        /* \"#utility.yul\":12329:12374   */\n      tag_333\n        /* \"#utility.yul\":12349:12373   */\n      tag_334\n        /* \"#utility.yul\":12367:12372   */\n      dup3\n        /* \"#utility.yul\":12349:12373   */\n      tag_196\n      jump\t// in\n    tag_334:\n        /* \"#utility.yul\":12329:12374   */\n      tag_199\n      jump\t// in\n    tag_333:\n        /* \"#utility.yul\":12324:12327   */\n      dup3\n        /* \"#utility.yul\":12317:12375   */\n      mstore\n        /* \"#utility.yul\":12224:12381   */\n      pop\n      pop\n      jump\t// out\n        /* \"#utility.yul\":12387:12466   */\n    tag_201:\n        /* \"#utility.yul\":12426:12433   */\n      0x00\n        /* \"#utility.yul\":12455:12460   */\n      dup2\n        /* \"#utility.yul\":12444:12460   */\n      swap1\n      pop\n        /* \"#utility.yul\":12387:12466   */\n      swap2\n      swap1\n      pop\n      jump\t// out\n        /* \"#utility.yul\":12472:12629   */\n    tag_202:\n        /* \"#utility.yul\":12577:12622   */\n      tag_337\n        /* \"#utility.yul\":12597:12621   */\n      tag_338\n        /* \"#utility.yul\":12615:12620   */\n      dup3\n        /* \"#utility.yul\":12597:12621   */\n      tag_161\n      jump\t// in\n    tag_338:\n        /* \"#utility.yul\":12577:12622   */\n      tag_201\n      jump\t// in\n    tag_337:\n        /* \"#utility.yul\":12572:12575   */\n      dup3\n        /* \"#utility.yul\":12565:12623   */\n      mstore\n        /* \"#utility.yul\":12472:12629   */\n      pop\n      pop\n      jump\t// out\n        /* \"#utility.yul\":12635:13032   */\n    tag_88:\n        /* \"#utility.yul\":12775:12778   */\n      0x00\n        /* \"#utility.yul\":12790:12865   */\n      tag_340\n        /* \"#utility.yul\":12861:12864   */\n      dup3\n        /* \"#utility.yul\":12852:12858   */\n      dup6\n        /* \"#utility.yul\":12790:12865   */\n      tag_200\n      jump\t// in\n    tag_340:\n        /* \"#utility.yul\":12890:12892   */\n      0x14\n        /* \"#utility.yul\":12885:12888   */\n      dup3\n        /* \"#utility.yul\":12881:12893   */\n      add\n        /* \"#utility.yul\":12874:12893   */\n      swap2\n      pop\n        /* \"#utility.yul\":12903:12978   */\n      tag_341\n        /* \"#utility.yul\":12974:12977   */\n      dup3\n        /* \"#utility.yul\":12965:12971   */\n      dup5\n        /* \"#utility.yul\":12903:12978   */\n      tag_202\n      jump\t// in\n    tag_341:\n        /* \"#utility.yul\":13003:13005   */\n      0x20\n        /* \"#utility.yul\":12998:13001   */\n      dup3\n        /* \"#utility.yul\":12994:13006   */\n      add\n        /* \"#utility.yul\":12987:13006   */\n      swap2\n      pop\n        /* \"#utility.yul\":13023:13026   */\n      dup2\n        /* \"#utility.yul\":13016:13026   */\n      swap1\n      pop\n        /* \"#utility.yul\":12635:13032   */\n      swap4\n      swap3\n      pop\n      pop\n      pop\n      jump\t// out\n        /* \"#utility.yul\":13038:13186   */\n    tag_203:\n        /* \"#utility.yul\":13140:13151   */\n      0x00\n        /* \"#utility.yul\":13177:13180   */\n      dup2\n        /* \"#utility.yul\":13162:13180   */\n      swap1\n      pop\n        /* \"#utility.yul\":13038:13186   */\n      swap3\n      swap2\n      pop\n      pop\n      jump\t// out\n        /* \"#utility.yul\":13192:13406   */\n    tag_204:\n        /* \"#utility.yul\":13332:13398   */\n      0x19457468657265756d205369676e6564204d6573736167653a0a333200000000\n        /* \"#utility.yul\":13328:13329   */\n      0x00\n        /* \"#utility.yul\":13320:13326   */\n      dup3\n        /* \"#utility.yul\":13316:13330   */\n      add\n        /* \"#utility.yul\":13309:13399   */\n      mstore\n        /* \"#utility.yul\":13192:13406   */\n      pop\n      jump\t// out\n        /* \"#utility.yul\":13412:13814   */\n    tag_205:\n        /* \"#utility.yul\":13572:13575   */\n      0x00\n        /* \"#utility.yul\":13593:13678   */\n      tag_345\n        /* \"#utility.yul\":13675:13677   */\n      0x1c\n        /* \"#utility.yul\":13670:13673   */\n      dup4\n        /* \"#utility.yul\":13593:13678   */\n      tag_203\n      jump\t// in\n    tag_345:\n        /* \"#utility.yul\":13586:13678   */\n      swap2\n      pop\n        /* \"#utility.yul\":13687:13780   */\n      tag_346\n        /* \"#utility.yul\":13776:13779   */\n      dup3\n        /* \"#utility.yul\":13687:13780   */\n      tag_204\n      jump\t// in\n    tag_346:\n        /* \"#utility.yul\":13805:13807   */\n      0x1c\n        /* \"#utility.yul\":13800:13803   */\n      dup3\n        /* \"#utility.yul\":13796:13808   */\n      add\n        /* \"#utility.yul\":13789:13808   */\n      swap1\n      pop\n        /* \"#utility.yul\":13412:13814   */\n      swap2\n      swap1\n      pop\n      jump\t// out\n        /* \"#utility.yul\":13820:13899   */\n    tag_206:\n        /* \"#utility.yul\":13859:13866   */\n      0x00\n        /* \"#utility.yul\":13888:13893   */\n      dup2\n        /* \"#utility.yul\":13877:13893   */\n      swap1\n      pop\n        /* \"#utility.yul\":13820:13899   */\n      swap2\n      swap1\n      pop\n      jump\t// out\n        /* \"#utility.yul\":13905:14062   */\n    tag_207:\n        /* \"#utility.yul\":14010:14055   */\n      tag_349\n        /* \"#utility.yul\":14030:14054   */\n      tag_350\n        /* \"#utility.yul\":14048:14053   */\n      dup3\n        /* \"#utility.yul\":14030:14054   */\n      tag_174\n      jump\t// in\n    tag_350:\n        /* \"#utility.yul\":14010:14055   */\n      tag_206\n      jump\t// in\n    tag_349:\n        /* \"#utility.yul\":14005:14008   */\n      dup3\n        /* \"#utility.yul\":13998:14056   */\n      mstore\n        /* \"#utility.yul\":13905:14062   */\n      pop\n      pop\n      jump\t// out\n        /* \"#utility.yul\":14068:14590   */\n    tag_96:\n        /* \"#utility.yul\":14281:14284   */\n      0x00\n        /* \"#utility.yul\":14303:14451   */\n      tag_352\n        /* \"#utility.yul\":14447:14450   */\n      dup3\n        /* \"#utility.yul\":14303:14451   */\n      tag_205\n      jump\t// in\n    tag_352:\n        /* \"#utility.yul\":14296:14451   */\n      swap2\n      pop\n        /* \"#utility.yul\":14461:14536   */\n      tag_353\n        /* \"#utility.yul\":14532:14535   */\n      dup3\n        /* \"#utility.yul\":14523:14529   */\n      dup5\n        /* \"#utility.yul\":14461:14536   */\n      tag_207\n      jump\t// in\n    tag_353:\n        /* \"#utility.yul\":14561:14563   */\n      0x20\n        /* \"#utility.yul\":14556:14559   */\n      dup3\n        /* \"#utility.yul\":14552:14564   */\n      add\n        /* \"#utility.yul\":14545:14564   */\n      swap2\n      pop\n        /* \"#utility.yul\":14581:14584   */\n      dup2\n        /* \"#utility.yul\":14574:14584   */\n      swap1\n      pop\n        /* \"#utility.yul\":14068:14590   */\n      swap3\n      swap2\n      pop\n      pop\n      jump\t// out\n        /* \"#utility.yul\":14596:14776   */\n    tag_109:\n        /* \"#utility.yul\":14644:14721   */\n      0x4e487b7100000000000000000000000000000000000000000000000000000000\n        /* \"#utility.yul\":14641:14642   */\n      0x00\n        /* \"#utility.yul\":14634:14722   */\n      mstore\n        /* \"#utility.yul\":14741:14745   */\n      0x21\n        /* \"#utility.yul\":14738:14739   */\n      0x04\n        /* \"#utility.yul\":14731:14746   */\n      mstore\n        /* \"#utility.yul\":14765:14769   */\n      0x24\n        /* \"#utility.yul\":14762:14763   */\n      0x00\n        /* \"#utility.yul\":14755:14770   */\n      revert\n        /* \"#utility.yul\":14782:14956   */\n    tag_208:\n        /* \"#utility.yul\":14922:14948   */\n      0x45434453413a20696e76616c6964207369676e61747572650000000000000000\n        /* \"#utility.yul\":14918:14919   */\n      0x00\n        /* \"#utility.yul\":14910:14916   */\n      dup3\n        /* \"#utility.yul\":14906:14920   */\n      add\n        /* \"#utility.yul\":14899:14949   */\n      mstore\n        /* \"#utility.yul\":14782:14956   */\n      pop\n      jump\t// out\n        /* \"#utility.yul\":14962:15328   */\n    tag_209:\n        /* \"#utility.yul\":15104:15107   */\n      0x00\n        /* \"#utility.yul\":15125:15192   */\n      tag_357\n        /* \"#utility.yul\":15189:15191   */\n      0x18\n        /* \"#utility.yul\":15184:15187   */\n      dup4\n        /* \"#utility.yul\":15125:15192   */\n      tag_182\n      jump\t// in\n    tag_357:\n        /* \"#utility.yul\":15118:15192   */\n      swap2\n      pop\n        /* \"#utility.yul\":15201:15294   */\n      tag_358\n        /* \"#utility.yul\":15290:15293   */\n      dup3\n        /* \"#utility.yul\":15201:15294   */\n      tag_208\n      jump\t// in\n    tag_358:\n        /* \"#utility.yul\":15319:15321   */\n      0x20\n        /* \"#utility.yul\":15314:15317   */\n      dup3\n        /* \"#utility.yul\":15310:15322   */\n      add\n        /* \"#utility.yul\":15303:15322   */\n      swap1\n      pop\n        /* \"#utility.yul\":14962:15328   */\n      swap2\n      swap1\n      pop\n      jump\t// out\n        /* \"#utility.yul\":15334:15753   */\n    tag_120:\n        /* \"#utility.yul\":15500:15504   */\n      0x00\n        /* \"#utility.yul\":15538:15540   */\n      0x20\n        /* \"#utility.yul\":15527:15536   */\n      dup3\n        /* \"#utility.yul\":15523:15541   */\n      add\n        /* \"#utility.yul\":15515:15541   */\n      swap1\n      pop\n        /* \"#utility.yul\":15587:15596   */\n      dup2\n        /* \"#utility.yul\":15581:15585   */\n      dup2\n        /* \"#utility.yul\":15577:15597   */\n      sub\n        /* \"#utility.yul\":15573:15574   */\n      0x00\n        /* \"#utility.yul\":15562:15571   */\n      dup4\n        /* \"#utility.yul\":15558:15575   */\n      add\n        /* \"#utility.yul\":15551:15598   */\n      mstore\n        /* \"#utility.yul\":15615:15746   */\n      tag_360\n        /* \"#utility.yul\":15741:15745   */\n      dup2\n        /* \"#utility.yul\":15615:15746   */\n      tag_209\n      jump\t// in\n    tag_360:\n        /* \"#utility.yul\":15607:15746   */\n      swap1\n      pop\n        /* \"#utility.yul\":15334:15753   */\n      swap2\n      swap1\n      pop\n      jump\t// out\n        /* \"#utility.yul\":15759:15940   */\n    tag_210:\n        /* \"#utility.yul\":15899:15932   */\n      0x45434453413a20696e76616c6964207369676e6174757265206c656e67746800\n        /* \"#utility.yul\":15895:15896   */\n      0x00\n        /* \"#utility.yul\":15887:15893   */\n      dup3\n        /* \"#utility.yul\":15883:15897   */\n      add\n        /* \"#utility.yul\":15876:15933   */\n      mstore\n        /* \"#utility.yul\":15759:15940   */\n      pop\n      jump\t// out\n        /* \"#utility.yul\":15946:16312   */\n    tag_211:\n        /* \"#utility.yul\":16088:16091   */\n      0x00\n        /* \"#utility.yul\":16109:16176   */\n      tag_363\n        /* \"#utility.yul\":16173:16175   */\n      0x1f\n        /* \"#utility.yul\":16168:16171   */\n      dup4\n        /* \"#utility.yul\":16109:16176   */\n      tag_182\n      jump\t// in\n    tag_363:\n        /* \"#utility.yul\":16102:16176   */\n      swap2\n      pop\n        /* \"#utility.yul\":16185:16278   */\n      tag_364\n        /* \"#utility.yul\":16274:16277   */\n      dup3\n        /* \"#utility.yul\":16185:16278   */\n      tag_210\n      jump\t// in\n    tag_364:\n        /* \"#utility.yul\":16303:16305   */\n      0x20\n        /* \"#utility.yul\":16298:16301   */\n      dup3\n        /* \"#utility.yul\":16294:16306   */\n      add\n        /* \"#utility.yul\":16287:16306   */\n      swap1\n      pop\n        /* \"#utility.yul\":15946:16312   */\n      swap2\n      swap1\n      pop\n      jump\t// out\n        /* \"#utility.yul\":16318:16737   */\n    tag_128:\n        /* \"#utility.yul\":16484:16488   */\n      0x00\n        /* \"#utility.yul\":16522:16524   */\n      0x20\n        /* \"#utility.yul\":16511:16520   */\n      dup3\n        /* \"#utility.yul\":16507:16525   */\n      add\n        /* \"#utility.yul\":16499:16525   */\n      swap1\n      pop\n        /* \"#utility.yul\":16571:16580   */\n      dup2\n        /* \"#utility.yul\":16565:16569   */\n      dup2\n        /* \"#utility.yul\":16561:16581   */\n      sub\n        /* \"#utility.yul\":16557:16558   */\n      0x00\n        /* \"#utility.yul\":16546:16555   */\n      dup4\n        /* \"#utility.yul\":16542:16559   */\n      add\n        /* \"#utility.yul\":16535:16582   */\n      mstore\n        /* \"#utility.yul\":16599:16730   */\n      tag_366\n        /* \"#utility.yul\":16725:16729   */\n      dup2\n        /* \"#utility.yul\":16599:16730   */\n      tag_211\n      jump\t// in\n    tag_366:\n        /* \"#utility.yul\":16591:16730   */\n      swap1\n      pop\n        /* \"#utility.yul\":16318:16737   */\n      swap2\n      swap1\n      pop\n      jump\t// out\n        /* \"#utility.yul\":16743:16964   */\n    tag_212:\n        /* \"#utility.yul\":16883:16917   */\n      0x45434453413a20696e76616c6964207369676e6174757265202773272076616c\n        /* \"#utility.yul\":16879:16880   */\n      0x00\n        /* \"#utility.yul\":16871:16877   */\n      dup3\n        /* \"#utility.yul\":16867:16881   */\n      add\n        /* \"#utility.yul\":16860:16918   */\n      mstore\n        /* \"#utility.yul\":16952:16956   */\n      0x7565000000000000000000000000000000000000000000000000000000000000\n        /* \"#utility.yul\":16947:16949   */\n      0x20\n        /* \"#utility.yul\":16939:16945   */\n      dup3\n        /* \"#utility.yul\":16935:16950   */\n      add\n        /* \"#utility.yul\":16928:16957   */\n      mstore\n        /* \"#utility.yul\":16743:16964   */\n      pop\n      jump\t// out\n        /* \"#utility.yul\":16970:17336   */\n    tag_213:\n        /* \"#utility.yul\":17112:17115   */\n      0x00\n        /* \"#utility.yul\":17133:17200   */\n      tag_369\n        /* \"#utility.yul\":17197:17199   */\n      0x22\n        /* \"#utility.yul\":17192:17195   */\n      dup4\n        /* \"#utility.yul\":17133:17200   */\n      tag_182\n      jump\t// in\n    tag_369:\n        /* \"#utility.yul\":17126:17200   */\n      swap2\n      pop\n        /* \"#utility.yul\":17209:17302   */\n      tag_370\n        /* \"#utility.yul\":17298:17301   */\n      dup3\n        /* \"#utility.yul\":17209:17302   */\n      tag_212\n      jump\t// in\n    tag_370:\n        /* \"#utility.yul\":17327:17329   */\n      0x40\n        /* \"#utility.yul\":17322:17325   */\n      dup3\n        /* \"#utility.yul\":17318:17330   */\n      add\n        /* \"#utility.yul\":17311:17330   */\n      swap1\n      pop\n        /* \"#utility.yul\":16970:17336   */\n      swap2\n      swap1\n      pop\n      jump\t// out\n        /* \"#utility.yul\":17342:17761   */\n    tag_136:\n        /* \"#utility.yul\":17508:17512   */\n      0x00\n        /* \"#utility.yul\":17546:17548   */\n      0x20\n        /* \"#utility.yul\":17535:17544   */\n      dup3\n        /* \"#utility.yul\":17531:17549   */\n      add\n        /* \"#utility.yul\":17523:17549   */\n      swap1\n      pop\n        /* \"#utility.yul\":17595:17604   */\n      dup2\n        /* \"#utility.yul\":17589:17593   */\n      dup2\n        /* \"#utility.yul\":17585:17605   */\n      sub\n        /* \"#utility.yul\":17581:17582   */\n      0x00\n        /* \"#utility.yul\":17570:17579   */\n      dup4\n        /* \"#utility.yul\":17566:17583   */\n      add\n        /* \"#utility.yul\":17559:17606   */\n      mstore\n        /* \"#utility.yul\":17623:17754   */\n      tag_372\n        /* \"#utility.yul\":17749:17753   */\n      dup2\n        /* \"#utility.yul\":17623:17754   */\n      tag_213\n      jump\t// in\n    tag_372:\n        /* \"#utility.yul\":17615:17754   */\n      swap1\n      pop\n        /* \"#utility.yul\":17342:17761   */\n      swap2\n      swap1\n      pop\n      jump\t// out\n        /* \"#utility.yul\":17767:17988   */\n    tag_214:\n        /* \"#utility.yul\":17907:17941   */\n      0x45434453413a20696e76616c6964207369676e6174757265202776272076616c\n        /* \"#utility.yul\":17903:17904   */\n      0x00\n        /* \"#utility.yul\":17895:17901   */\n      dup3\n        /* \"#utility.yul\":17891:17905   */\n      add\n        /* \"#utility.yul\":17884:17942   */\n      mstore\n        /* \"#utility.yul\":17976:17980   */\n      0x7565000000000000000000000000000000000000000000000000000000000000\n        /* \"#utility.yul\":17971:17973   */\n      0x20\n        /* \"#utility.yul\":17963:17969   */\n      dup3\n        /* \"#utility.yul\":17959:17974   */\n      add\n        /* \"#utility.yul\":17952:17981   */\n      mstore\n        /* \"#utility.yul\":17767:17988   */\n      pop\n      jump\t// out\n        /* \"#utility.yul\":17994:18360   */\n    tag_215:\n        /* \"#utility.yul\":18136:18139   */\n      0x00\n        /* \"#utility.yul\":18157:18224   */\n      tag_375\n        /* \"#utility.yul\":18221:18223   */\n      0x22\n        /* \"#utility.yul\":18216:18219   */\n      dup4\n        /* \"#utility.yul\":18157:18224   */\n      tag_182\n      jump\t// in\n    tag_375:\n        /* \"#utility.yul\":18150:18224   */\n      swap2\n      pop\n        /* \"#utility.yul\":18233:18326   */\n      tag_376\n        /* \"#utility.yul\":18322:18325   */\n      dup3\n        /* \"#utility.yul\":18233:18326   */\n      tag_214\n      jump\t// in\n    tag_376:\n        /* \"#utility.yul\":18351:18353   */\n      0x40\n        /* \"#utility.yul\":18346:18349   */\n      dup3\n        /* \"#utility.yul\":18342:18354   */\n      add\n        /* \"#utility.yul\":18335:18354   */\n      swap1\n      pop\n        /* \"#utility.yul\":17994:18360   */\n      swap2\n      swap1\n      pop\n      jump\t// out\n        /* \"#utility.yul\":18366:18785   */\n    tag_144:\n        /* \"#utility.yul\":18532:18536   */\n      0x00\n        /* \"#utility.yul\":18570:18572   */\n      0x20\n        /* \"#utility.yul\":18559:18568   */\n      dup3\n        /* \"#utility.yul\":18555:18573   */\n      add\n        /* \"#utility.yul\":18547:18573   */\n      swap1\n      pop\n        /* \"#utility.yul\":18619:18628   */\n      dup2\n        /* \"#utility.yul\":18613:18617   */\n      dup2\n        /* \"#utility.yul\":18609:18629   */\n      sub\n        /* \"#utility.yul\":18605:18606   */\n      0x00\n        /* \"#utility.yul\":18594:18603   */\n      dup4\n        /* \"#utility.yul\":18590:18607   */\n      add\n        /* \"#utility.yul\":18583:18630   */\n      mstore\n        /* \"#utility.yul\":18647:18778   */\n      tag_378\n        /* \"#utility.yul\":18773:18777   */\n      dup2\n        /* \"#utility.yul\":18647:18778   */\n      tag_215\n      jump\t// in\n    tag_378:\n        /* \"#utility.yul\":18639:18778   */\n      swap1\n      pop\n        /* \"#utility.yul\":18366:18785   */\n      swap2\n      swap1\n      pop\n      jump\t// out\n        /* \"#utility.yul\":18791:18877   */\n    tag_216:\n        /* \"#utility.yul\":18826:18833   */\n      0x00\n        /* \"#utility.yul\":18866:18870   */\n      0xff\n        /* \"#utility.yul\":18859:18864   */\n      dup3\n        /* \"#utility.yul\":18855:18871   */\n      and\n        /* \"#utility.yul\":18844:18871   */\n      swap1\n      pop\n        /* \"#utility.yul\":18791:18877   */\n      swap2\n      swap1\n      pop\n      jump\t// out\n        /* \"#utility.yul\":18883:18995   */\n    tag_217:\n        /* \"#utility.yul\":18966:18988   */\n      tag_381\n        /* \"#utility.yul\":18982:18987   */\n      dup2\n        /* \"#utility.yul\":18966:18988   */\n      tag_216\n      jump\t// in\n    tag_381:\n        /* \"#utility.yul\":18961:18964   */\n      dup3\n        /* \"#utility.yul\":18954:18989   */\n      mstore\n        /* \"#utility.yul\":18883:18995   */\n      pop\n      pop\n      jump\t// out\n        /* \"#utility.yul\":19001:19546   */\n    tag_150:\n        /* \"#utility.yul\":19174:19178   */\n      0x00\n        /* \"#utility.yul\":19212:19215   */\n      0x80\n        /* \"#utility.yul\":19201:19210   */\n      dup3\n        /* \"#utility.yul\":19197:19216   */\n      add\n        /* \"#utility.yul\":19189:19216   */\n      swap1\n      pop\n        /* \"#utility.yul\":19226:19297   */\n      tag_383\n        /* \"#utility.yul\":19294:19295   */\n      0x00\n        /* \"#utility.yul\":19283:19292   */\n      dup4\n        /* \"#utility.yul\":19279:19296   */\n      add\n        /* \"#utility.yul\":19270:19276   */\n      dup8\n        /* \"#utility.yul\":19226:19297   */\n      tag_175\n      jump\t// in\n    tag_383:\n        /* \"#utility.yul\":19307:19375   */\n      tag_384\n        /* \"#utility.yul\":19371:19373   */\n      0x20\n        /* \"#utility.yul\":19360:19369   */\n      dup4\n        /* \"#utility.yul\":19356:19374   */\n      add\n        /* \"#utility.yul\":19347:19353   */\n      dup7\n        /* \"#utility.yul\":19307:19375   */\n      tag_217\n      jump\t// in\n    tag_384:\n        /* \"#utility.yul\":19385:19457   */\n      tag_385\n        /* \"#utility.yul\":19453:19455   */\n      0x40\n        /* \"#utility.yul\":19442:19451   */\n      dup4\n        /* \"#utility.yul\":19438:19456   */\n      add\n        /* \"#utility.yul\":19429:19435   */\n      dup6\n        /* \"#utility.yul\":19385:19457   */\n      tag_175\n      jump\t// in\n    tag_385:\n        /* \"#utility.yul\":19467:19539   */\n      tag_386\n        /* \"#utility.yul\":19535:19537   */\n      0x60\n        /* \"#utility.yul\":19524:19533   */\n      dup4\n        /* \"#utility.yul\":19520:19538   */\n      add\n        /* \"#utility.yul\":19511:19517   */\n      dup5\n        /* \"#utility.yul\":19467:19539   */\n      tag_175\n      jump\t// in\n    tag_386:\n        /* \"#utility.yul\":19001:19546   */\n      swap6\n      swap5\n      pop\n      pop\n      pop\n      pop\n      pop\n      jump\t// out\n        /* \"#utility.yul\":19552:19732   */\n    tag_218:\n        /* \"#utility.yul\":19600:19677   */\n      0x4e487b7100000000000000000000000000000000000000000000000000000000\n        /* \"#utility.yul\":19597:19598   */\n      0x00\n        /* \"#utility.yul\":19590:19678   */\n      mstore\n        /* \"#utility.yul\":19697:19701   */\n      0x11\n        /* \"#utility.yul\":19694:19695   */\n      0x04\n        /* \"#utility.yul\":19687:19702   */\n      mstore\n        /* \"#utility.yul\":19721:19725   */\n      0x24\n        /* \"#utility.yul\":19718:19719   */\n      0x00\n        /* \"#utility.yul\":19711:19726   */\n      revert\n        /* \"#utility.yul\":19738:19929   */\n    tag_156:\n        /* \"#utility.yul\":19778:19781   */\n      0x00\n        /* \"#utility.yul\":19797:19817   */\n      tag_389\n        /* \"#utility.yul\":19815:19816   */\n      dup3\n        /* \"#utility.yul\":19797:19817   */\n      tag_161\n      jump\t// in\n    tag_389:\n        /* \"#utility.yul\":19792:19817   */\n      swap2\n      pop\n        /* \"#utility.yul\":19831:19851   */\n      tag_390\n        /* \"#utility.yul\":19849:19850   */\n      dup4\n        /* \"#utility.yul\":19831:19851   */\n      tag_161\n      jump\t// in\n    tag_390:\n        /* \"#utility.yul\":19826:19851   */\n      swap3\n      pop\n        /* \"#utility.yul\":19874:19875   */\n      dup3\n        /* \"#utility.yul\":19871:19872   */\n      dup3\n        /* \"#utility.yul\":19867:19876   */\n      add\n        /* \"#utility.yul\":19860:19876   */\n      swap1\n      pop\n        /* \"#utility.yul\":19895:19898   */\n      dup1\n        /* \"#utility.yul\":19892:19893   */\n      dup3\n        /* \"#utility.yul\":19889:19899   */\n      gt\n        /* \"#utility.yul\":19886:19922   */\n      iszero\n      tag_391\n      jumpi\n        /* \"#utility.yul\":19902:19920   */\n      tag_392\n      tag_218\n      jump\t// in\n    tag_392:\n        /* \"#utility.yul\":19886:19922   */\n    tag_391:\n        /* \"#utility.yul\":19738:19929   */\n      swap3\n      swap2\n      pop\n      pop\n      jump\t// out\n\n    auxdata: 0xa26469706673582212208831a78b8b55d65315d8288e75a3e91b3f9117052b7e9e999f869ef3a8e7a58e64736f6c634300081a0033\n}\n",
				"bytecode": {
					"linkReferences": {},
					"object": "60806040526040516116173803806116178339818101604052810190610025919061018c565b5f73ffffffffffffffffffffffffffffffffffffffff168173ffffffffffffffffffffffffffffffffffffffff1603610093576040517f08c379a000000000000000000000000000000000000000000000000000000000815260040161008a90610211565b60405180910390fd5b335f60016101000a81548173ffffffffffffffffffffffffffffffffffffffff021916908373ffffffffffffffffffffffffffffffffffffffff1602179055508060015f6101000a81548173ffffffffffffffffffffffffffffffffffffffff021916908373ffffffffffffffffffffffffffffffffffffffff16021790555062093a80426101229190610265565b60028190555050610298565b5f80fd5b5f73ffffffffffffffffffffffffffffffffffffffff82169050919050565b5f61015b82610132565b9050919050565b61016b81610151565b8114610175575f80fd5b50565b5f8151905061018681610162565b92915050565b5f602082840312156101a1576101a061012e565b5b5f6101ae84828501610178565b91505092915050565b5f82825260208201905092915050565b7f7265636569766572203d207a65726f20616464726573730000000000000000005f82015250565b5f6101fb6017836101b7565b9150610206826101c7565b602082019050919050565b5f6020820190508181035f830152610228816101ef565b9050919050565b5f819050919050565b7f4e487b71000000000000000000000000000000000000000000000000000000005f52601160045260245ffd5b5f61026f8261022f565b915061027a8361022f565b925082820190508082111561029257610291610238565b5b92915050565b611372806102a55f395ff3fe608060405234801561000f575f80fd5b5060043610610086575f3560e01c806385852ce41161005957806385852ce4146101245780638622a68914610154578063ea8a1af014610172578063f7260d3e1461017c57610086565b8063415ffba71461008a578063552f50b6146100a657806367e404ce146100d65780636b2fafa9146100f4575b5f80fd5b6100a4600480360381019061009f9190610b69565b61019a565b005b6100c060048036038101906100bb9190610bc3565b6103a4565b6040516100cd9190610c06565b60405180910390f35b6100de6103b5565b6040516100eb9190610c5e565b60405180910390f35b61010e60048036038101906101099190610bc3565b6103da565b60405161011b9190610c06565b60405180910390f35b61013e60048036038101906101399190610b69565b6103eb565b60405161014b9190610c91565b60405180910390f35b61015c6103fe565b6040516101699190610cb9565b60405180910390f35b61017a610404565b005b610184610512565b6040516101919190610c5e565b60405180910390f35b5f8054906101000a900460ff16156101b0575f80fd5b60015f806101000a81548160ff02191690831515021790555060015f9054906101000a900473ffffffffffffffffffffffffffffffffffffffff1673ffffffffffffffffffffffffffffffffffffffff163373ffffffffffffffffffffffffffffffffffffffff1614610258576040517f08c379a000000000000000000000000000000000000000000000000000000000815260040161024f90610d2c565b60405180910390fd5b6102628282610537565b6102a1576040517f08c379a000000000000000000000000000000000000000000000000000000000815260040161029890610d94565b60405180910390fd5b5f60015f9054906101000a900473ffffffffffffffffffffffffffffffffffffffff1673ffffffffffffffffffffffffffffffffffffffff16836040516102e790610ddf565b5f6040518083038185875af1925050503d805f8114610321576040519150601f19603f3d011682016040523d82523d5f602084013e610326565b606091505b505090508061036a576040517f08c379a000000000000000000000000000000000000000000000000000000000815260040161036190610e3d565b60405180910390fd5b5f60019054906101000a900473ffffffffffffffffffffffffffffffffffffffff1673ffffffffffffffffffffffffffffffffffffffff16ff5b5f6103ae826105aa565b9050919050565b5f60019054906101000a900473ffffffffffffffffffffffffffffffffffffffff1681565b5f6103e4826105c3565b9050919050565b5f6103f68383610537565b905092915050565b60025481565b5f60019054906101000a900473ffffffffffffffffffffffffffffffffffffffff1673ffffffffffffffffffffffffffffffffffffffff163373ffffffffffffffffffffffffffffffffffffffff1614610493576040517f08c379a000000000000000000000000000000000000000000000000000000000815260040161048a90610ea5565b60405180910390fd5b6002544210156104d8576040517f08c379a00000000000000000000000000000000000000000000000000000000081526004016104cf90610f0d565b60405180910390fd5b5f60019054906101000a900473ffffffffffffffffffffffffffffffffffffffff1673ffffffffffffffffffffffffffffffffffffffff16ff5b60015f9054906101000a900473ffffffffffffffffffffffffffffffffffffffff1681565b5f8060019054906101000a900473ffffffffffffffffffffffffffffffffffffffff1673ffffffffffffffffffffffffffffffffffffffff1661058b8361057d866105aa565b6105f490919063ffffffff16565b73ffffffffffffffffffffffffffffffffffffffff1614905092915050565b5f6105bc6105b7836105c3565b610619565b9050919050565b5f30826040516020016105d7929190610fa1565b604051602081830303815290604052805190602001209050919050565b5f805f6106018585610648565b9150915061060e816106c3565b819250505092915050565b5f8160405160200161062b9190611040565b604051602081830303815290604052805190602001209050919050565b5f806041835103610685575f805f602086015192506040860151915060608601515f1a90506106798782858561088e565b945094505050506106bc565b60408351036106b4575f8060208501519150604085015190506106a986838361098f565b9350935050506106bc565b5f6002915091505b9250929050565b5f60048111156106d6576106d5611065565b5b8160048111156106e9576106e8611065565b5b031561088b576001600481111561070357610702611065565b5b81600481111561071657610715611065565b5b03610756576040517f08c379a000000000000000000000000000000000000000000000000000000000815260040161074d906110dc565b60405180910390fd5b6002600481111561076a57610769611065565b5b81600481111561077d5761077c611065565b5b036107bd576040517f08c379a00000000000000000000000000000000000000000000000000000000081526004016107b490611144565b60405180910390fd5b600360048111156107d1576107d0611065565b5b8160048111156107e4576107e3611065565b5b03610824576040517f08c379a000000000000000000000000000000000000000000000000000000000815260040161081b906111d2565b60405180910390fd5b60048081111561083757610836611065565b5b81600481111561084a57610849611065565b5b0361088a576040517f08c379a000000000000000000000000000000000000000000000000000000000815260040161088190611260565b60405180910390fd5b5b50565b5f807f7fffffffffffffffffffffffffffffff5d576e7357a4501ddfe92f46681b20a0835f1c11156108c6575f600391509150610986565b601b8560ff16141580156108de5750601c8560ff1614155b156108ef575f600491509150610986565b5f6001878787876040515f81526020016040526040516109129493929190611299565b6020604051602081039080840390855afa158015610932573d5f803e3d5ffd5b5050506020604051035190505f73ffffffffffffffffffffffffffffffffffffffff168173ffffffffffffffffffffffffffffffffffffffff160361097e575f60019250925050610986565b805f92509250505b94509492505050565b5f805f7f7fffffffffffffffffffffffffffffffffffffffffffffffffffffffffffffff5f1b841690505f601b60ff865f1c901c6109cd9190611309565b90506109db8782888561088e565b935093505050935093915050565b5f604051905090565b5f80fd5b5f80fd5b5f819050919050565b610a0c816109fa565b8114610a16575f80fd5b50565b5f81359050610a2781610a03565b92915050565b5f80fd5b5f80fd5b5f601f19601f8301169050919050565b7f4e487b71000000000000000000000000000000000000000000000000000000005f52604160045260245ffd5b610a7b82610a35565b810181811067ffffffffffffffff82111715610a9a57610a99610a45565b5b80604052505050565b5f610aac6109e9565b9050610ab88282610a72565b919050565b5f67ffffffffffffffff821115610ad757610ad6610a45565b5b610ae082610a35565b9050602081019050919050565b828183375f83830152505050565b5f610b0d610b0884610abd565b610aa3565b905082815260208101848484011115610b2957610b28610a31565b5b610b34848285610aed565b509392505050565b5f82601f830112610b5057610b4f610a2d565b5b8135610b60848260208601610afb565b91505092915050565b5f8060408385031215610b7f57610b7e6109f2565b5b5f610b8c85828601610a19565b925050602083013567ffffffffffffffff811115610bad57610bac6109f6565b5b610bb985828601610b3c565b9150509250929050565b5f60208284031215610bd857610bd76109f2565b5b5f610be584828501610a19565b91505092915050565b5f819050919050565b610c0081610bee565b82525050565b5f602082019050610c195f830184610bf7565b92915050565b5f73ffffffffffffffffffffffffffffffffffffffff82169050919050565b5f610c4882610c1f565b9050919050565b610c5881610c3e565b82525050565b5f602082019050610c715f830184610c4f565b92915050565b5f8115159050919050565b610c8b81610c77565b82525050565b5f602082019050610ca45f830184610c82565b92915050565b610cb3816109fa565b82525050565b5f602082019050610ccc5f830184610caa565b92915050565b5f82825260208201905092915050565b7f21726563656976657200000000000000000000000000000000000000000000005f82015250565b5f610d16600983610cd2565b9150610d2182610ce2565b602082019050919050565b5f6020820190508181035f830152610d4381610d0a565b9050919050565b7f696e76616c6964207369670000000000000000000000000000000000000000005f82015250565b5f610d7e600b83610cd2565b9150610d8982610d4a565b602082019050919050565b5f6020820190508181035f830152610dab81610d72565b9050919050565b5f81905092915050565b50565b5f610dca5f83610db2565b9150610dd582610dbc565b5f82019050919050565b5f610de982610dbf565b9150819050919050565b7f4661696c656420746f2073656e642045746865720000000000000000000000005f82015250565b5f610e27601483610cd2565b9150610e3282610df3565b602082019050919050565b5f6020820190508181035f830152610e5481610e1b565b9050919050565b7f2173656e646572000000000000000000000000000000000000000000000000005f82015250565b5f610e8f600783610cd2565b9150610e9a82610e5b565b602082019050919050565b5f6020820190508181035f830152610ebc81610e83565b9050919050565b7f21657870697265640000000000000000000000000000000000000000000000005f82015250565b5f610ef7600883610cd2565b9150610f0282610ec3565b602082019050919050565b5f6020820190508181035f830152610f2481610eeb565b9050919050565b5f610f3582610c1f565b9050919050565b5f8160601b9050919050565b5f610f5282610f3c565b9050919050565b5f610f6382610f48565b9050919050565b610f7b610f7682610f2b565b610f59565b82525050565b5f819050919050565b610f9b610f96826109fa565b610f81565b82525050565b5f610fac8285610f6a565b601482019150610fbc8284610f8a565b6020820191508190509392505050565b5f81905092915050565b7f19457468657265756d205369676e6564204d6573736167653a0a3332000000005f82015250565b5f61100a601c83610fcc565b915061101582610fd6565b601c82019050919050565b5f819050919050565b61103a61103582610bee565b611020565b82525050565b5f61104a82610ffe565b91506110568284611029565b60208201915081905092915050565b7f4e487b71000000000000000000000000000000000000000000000000000000005f52602160045260245ffd5b7f45434453413a20696e76616c6964207369676e617475726500000000000000005f82015250565b5f6110c6601883610cd2565b91506110d182611092565b602082019050919050565b5f6020820190508181035f8301526110f3816110ba565b9050919050565b7f45434453413a20696e76616c6964207369676e6174757265206c656e677468005f82015250565b5f61112e601f83610cd2565b9150611139826110fa565b602082019050919050565b5f6020820190508181035f83015261115b81611122565b9050919050565b7f45434453413a20696e76616c6964207369676e6174757265202773272076616c5f8201527f7565000000000000000000000000000000000000000000000000000000000000602082015250565b5f6111bc602283610cd2565b91506111c782611162565b604082019050919050565b5f6020820190508181035f8301526111e9816111b0565b9050919050565b7f45434453413a20696e76616c6964207369676e6174757265202776272076616c5f8201527f7565000000000000000000000000000000000000000000000000000000000000602082015250565b5f61124a602283610cd2565b9150611255826111f0565b604082019050919050565b5f6020820190508181035f8301526112778161123e565b9050919050565b5f60ff82169050919050565b6112938161127e565b82525050565b5f6080820190506112ac5f830187610bf7565b6112b9602083018661128a565b6112c66040830185610bf7565b6112d36060830184610bf7565b95945050505050565b7f4e487b71000000000000000000000000000000000000000000000000000000005f52601160045260245ffd5b5f611313826109fa565b915061131e836109fa565b9250828201905080821115611336576113356112dc565b5b9291505056fea26469706673582212208831a78b8b55d65315d8288e75a3e91b3f9117052b7e9e999f869ef3a8e7a58e64736f6c634300081a0033",
					"opcodes": "PUSH1 0x80 PUSH1 0x40 MSTORE PUSH1 0x40 MLOAD PUSH2 0x1617 CODESIZE SUB DUP1 PUSH2 0x1617 DUP4 CODECOPY DUP2 DUP2 ADD PUSH1 0x40 MSTORE DUP2 ADD SWAP1 PUSH2 0x25 SWAP2 SWAP1 PUSH2 0x18C JUMP JUMPDEST PUSH0 PUSH20 0xFFFFFFFFFFFFFFFFFFFFFFFFFFFFFFFFFFFFFFFF AND DUP2 PUSH20 0xFFFFFFFFFFFFFFFFFFFFFFFFFFFFFFFFFFFFFFFF AND SUB PUSH2 0x93 JUMPI PUSH1 0x40 MLOAD PUSH32 0x8C379A000000000000000000000000000000000000000000000000000000000 DUP2 MSTORE PUSH1 0x4 ADD PUSH2 0x8A SWAP1 PUSH2 0x211 JUMP JUMPDEST PUSH1 0x40 MLOAD DUP1 SWAP2 SUB SWAP1 REVERT JUMPDEST CALLER PUSH0 PUSH1 0x1 PUSH2 0x100 EXP DUP2 SLOAD DUP2 PUSH20 0xFFFFFFFFFFFFFFFFFFFFFFFFFFFFFFFFFFFFFFFF MUL NOT AND SWAP1 DUP4 PUSH20 0xFFFFFFFFFFFFFFFFFFFFFFFFFFFFFFFFFFFFFFFF AND MUL OR SWAP1 SSTORE POP DUP1 PUSH1 0x1 PUSH0 PUSH2 0x100 EXP DUP2 SLOAD DUP2 PUSH20 0xFFFFFFFFFFFFFFFFFFFFFFFFFFFFFFFFFFFFFFFF MUL NOT AND SWAP1 DUP4 PUSH20 0xFFFFFFFFFFFFFFFFFFFFFFFFFFFFFFFFFFFFFFFF AND MUL OR SWAP1 SSTORE POP PUSH3 0x93A80 TIMESTAMP PUSH2 0x122 SWAP2 SWAP1 PUSH2 0x265 JUMP JUMPDEST PUSH1 0x2 DUP2 SWAP1 SSTORE POP POP PUSH2 0x298 JUMP JUMPDEST PUSH0 DUP1 REVERT JUMPDEST PUSH0 PUSH20 0xFFFFFFFFFFFFFFFFFFFFFFFFFFFFFFFFFFFFFFFF DUP3 AND SWAP1 POP SWAP2 SWAP1 POP JUMP JUMPDEST PUSH0 PUSH2 0x15B DUP3 PUSH2 0x132 JUMP JUMPDEST SWAP1 POP SWAP2 SWAP1 POP JUMP JUMPDEST PUSH2 0x16B DUP2 PUSH2 0x151 JUMP JUMPDEST DUP2 EQ PUSH2 0x175 JUMPI PUSH0 DUP1 REVERT JUMPDEST POP JUMP JUMPDEST PUSH0 DUP2 MLOAD SWAP1 POP PUSH2 0x186 DUP2 PUSH2 0x162 JUMP JUMPDEST SWAP3 SWAP2 POP POP JUMP JUMPDEST PUSH0 PUSH1 0x20 DUP3 DUP5 SUB SLT ISZERO PUSH2 0x1A1 JUMPI PUSH2 0x1A0 PUSH2 0x12E JUMP JUMPDEST JUMPDEST PUSH0 PUSH2 0x1AE DUP5 DUP3 DUP6 ADD PUSH2 0x178 JUMP JUMPDEST SWAP2 POP POP SWAP3 SWAP2 POP POP JUMP JUMPDEST PUSH0 DUP3 DUP3 MSTORE PUSH1 0x20 DUP3 ADD SWAP1 POP SWAP3 SWAP2 POP POP JUMP JUMPDEST PUSH32 0x7265636569766572203D207A65726F2061646472657373000000000000000000 PUSH0 DUP3 ADD MSTORE POP JUMP JUMPDEST PUSH0 PUSH2 0x1FB PUSH1 0x17 DUP4 PUSH2 0x1B7 JUMP JUMPDEST SWAP2 POP PUSH2 0x206 DUP3 PUSH2 0x1C7 JUMP JUMPDEST PUSH1 0x20 DUP3 ADD SWAP1 POP SWAP2 SWAP1 POP JUMP JUMPDEST PUSH0 PUSH1 0x20 DUP3 ADD SWAP1 POP DUP2 DUP2 SUB PUSH0 DUP4 ADD MSTORE PUSH2 0x228 DUP2 PUSH2 0x1EF JUMP JUMPDEST SWAP1 POP SWAP2 SWAP1 POP JUMP JUMPDEST PUSH0 DUP2 SWAP1 POP SWAP2 SWAP1 POP JUMP JUMPDEST PUSH32 0x4E487B7100000000000000000000000000000000000000000000000000000000 PUSH0 MSTORE PUSH1 0x11 PUSH1 0x4 MSTORE PUSH1 0x24 PUSH0 REVERT JUMPDEST PUSH0 PUSH2 0x26F DUP3 PUSH2 0x22F JUMP JUMPDEST SWAP2 POP PUSH2 0x27A DUP4 PUSH2 0x22F JUMP JUMPDEST SWAP3 POP DUP3 DUP3 ADD SWAP1 POP DUP1 DUP3 GT ISZERO PUSH2 0x292 JUMPI PUSH2 0x291 PUSH2 0x238 JUMP JUMPDEST JUMPDEST SWAP3 SWAP2 POP POP JUMP JUMPDEST PUSH2 0x1372 DUP1 PUSH2 0x2A5 PUSH0 CODECOPY PUSH0 RETURN INVALID PUSH1 0x80 PUSH1 0x40 MSTORE CALLVALUE DUP1 ISZERO PUSH2 0xF JUMPI PUSH0 DUP1 REVERT JUMPDEST POP PUSH1 0x4 CALLDATASIZE LT PUSH2 0x86 JUMPI PUSH0 CALLDATALOAD PUSH1 0xE0 SHR DUP1 PUSH4 0x85852CE4 GT PUSH2 0x59 JUMPI DUP1 PUSH4 0x85852CE4 EQ PUSH2 0x124 JUMPI DUP1 PUSH4 0x8622A689 EQ PUSH2 0x154 JUMPI DUP1 PUSH4 0xEA8A1AF0 EQ PUSH2 0x172 JUMPI DUP1 PUSH4 0xF7260D3E EQ PUSH2 0x17C JUMPI PUSH2 0x86 JUMP JUMPDEST DUP1 PUSH4 0x415FFBA7 EQ PUSH2 0x8A JUMPI DUP1 PUSH4 0x552F50B6 EQ PUSH2 0xA6 JUMPI DUP1 PUSH4 0x67E404CE EQ PUSH2 0xD6 JUMPI DUP1 PUSH4 0x6B2FAFA9 EQ PUSH2 0xF4 JUMPI JUMPDEST PUSH0 DUP1 REVERT JUMPDEST PUSH2 0xA4 PUSH1 0x4 DUP1 CALLDATASIZE SUB DUP2 ADD SWAP1 PUSH2 0x9F SWAP2 SWAP1 PUSH2 0xB69 JUMP JUMPDEST PUSH2 0x19A JUMP JUMPDEST STOP JUMPDEST PUSH2 0xC0 PUSH1 0x4 DUP1 CALLDATASIZE SUB DUP2 ADD SWAP1 PUSH2 0xBB SWAP2 SWAP1 PUSH2 0xBC3 JUMP JUMPDEST PUSH2 0x3A4 JUMP JUMPDEST PUSH1 0x40 MLOAD PUSH2 0xCD SWAP2 SWAP1 PUSH2 0xC06 JUMP JUMPDEST PUSH1 0x40 MLOAD DUP1 SWAP2 SUB SWAP1 RETURN JUMPDEST PUSH2 0xDE PUSH2 0x3B5 JUMP JUMPDEST PUSH1 0x40 MLOAD PUSH2 0xEB SWAP2 SWAP1 PUSH2 0xC5E JUMP JUMPDEST PUSH1 0x40 MLOAD DUP1 SWAP2 SUB SWAP1 RETURN JUMPDEST PUSH2 0x10E PUSH1 0x4 DUP1 CALLDATASIZE SUB DUP2 ADD SWAP1 PUSH2 0x109 SWAP2 SWAP1 PUSH2 0xBC3 JUMP JUMPDEST PUSH2 0x3DA JUMP JUMPDEST PUSH1 0x40 MLOAD PUSH2 0x11B SWAP2 SWAP1 PUSH2 0xC06 JUMP JUMPDEST PUSH1 0x40 MLOAD DUP1 SWAP2 SUB SWAP1 RETURN JUMPDEST PUSH2 0x13E PUSH1 0x4 DUP1 CALLDATASIZE SUB DUP2 ADD SWAP1 PUSH2 0x139 SWAP2 SWAP1 PUSH2 0xB69 JUMP JUMPDEST PUSH2 0x3EB JUMP JUMPDEST PUSH1 0x40 MLOAD PUSH2 0x14B SWAP2 SWAP1 PUSH2 0xC91 JUMP JUMPDEST PUSH1 0x40 MLOAD DUP1 SWAP2 SUB SWAP1 RETURN JUMPDEST PUSH2 0x15C PUSH2 0x3FE JUMP JUMPDEST PUSH1 0x40 MLOAD PUSH2 0x169 SWAP2 SWAP1 PUSH2 0xCB9 JUMP JUMPDEST PUSH1 0x40 MLOAD DUP1 SWAP2 SUB SWAP1 RETURN JUMPDEST PUSH2 0x17A PUSH2 0x404 JUMP JUMPDEST STOP JUMPDEST PUSH2 0x184 PUSH2 0x512 JUMP JUMPDEST PUSH1 0x40 MLOAD PUSH2 0x191 SWAP2 SWAP1 PUSH2 0xC5E JUMP JUMPDEST PUSH1 0x40 MLOAD DUP1 SWAP2 SUB SWAP1 RETURN JUMPDEST PUSH0 DUP1 SLOAD SWAP1 PUSH2 0x100 EXP SWAP1 DIV PUSH1 0xFF AND ISZERO PUSH2 0x1B0 JUMPI PUSH0 DUP1 REVERT JUMPDEST PUSH1 0x1 PUSH0 DUP1 PUSH2 0x100 EXP DUP2 SLOAD DUP2 PUSH1 0xFF MUL NOT AND SWAP1 DUP4 ISZERO ISZERO MUL OR SWAP1 SSTORE POP PUSH1 0x1 PUSH0 SWAP1 SLOAD SWAP1 PUSH2 0x100 EXP SWAP1 DIV PUSH20 0xFFFFFFFFFFFFFFFFFFFFFFFFFFFFFFFFFFFFFFFF AND PUSH20 0xFFFFFFFFFFFFFFFFFFFFFFFFFFFFFFFFFFFFFFFF AND CALLER PUSH20 0xFFFFFFFFFFFFFFFFFFFFFFFFFFFFFFFFFFFFFFFF AND EQ PUSH2 0x258 JUMPI PUSH1 0x40 MLOAD PUSH32 0x8C379A000000000000000000000000000000000000000000000000000000000 DUP2 MSTORE PUSH1 0x4 ADD PUSH2 0x24F SWAP1 PUSH2 0xD2C JUMP JUMPDEST PUSH1 0x40 MLOAD DUP1 SWAP2 SUB SWAP1 REVERT JUMPDEST PUSH2 0x262 DUP3 DUP3 PUSH2 0x537 JUMP JUMPDEST PUSH2 0x2A1 JUMPI PUSH1 0x40 MLOAD PUSH32 0x8C379A000000000000000000000000000000000000000000000000000000000 DUP2 MSTORE PUSH1 0x4 ADD PUSH2 0x298 SWAP1 PUSH2 0xD94 JUMP JUMPDEST PUSH1 0x40 MLOAD DUP1 SWAP2 SUB SWAP1 REVERT JUMPDEST PUSH0 PUSH1 0x1 PUSH0 SWAP1 SLOAD SWAP1 PUSH2 0x100 EXP SWAP1 DIV PUSH20 0xFFFFFFFFFFFFFFFFFFFFFFFFFFFFFFFFFFFFFFFF AND PUSH20 0xFFFFFFFFFFFFFFFFFFFFFFFFFFFFFFFFFFFFFFFF AND DUP4 PUSH1 0x40 MLOAD PUSH2 0x2E7 SWAP1 PUSH2 0xDDF JUMP JUMPDEST PUSH0 PUSH1 0x40 MLOAD DUP1 DUP4 SUB DUP2 DUP6 DUP8 GAS CALL SWAP3 POP POP POP RETURNDATASIZE DUP1 PUSH0 DUP2 EQ PUSH2 0x321 JUMPI PUSH1 0x40 MLOAD SWAP2 POP PUSH1 0x1F NOT PUSH1 0x3F RETURNDATASIZE ADD AND DUP3 ADD PUSH1 0x40 MSTORE RETURNDATASIZE DUP3 MSTORE RETURNDATASIZE PUSH0 PUSH1 0x20 DUP5 ADD RETURNDATACOPY PUSH2 0x326 JUMP JUMPDEST PUSH1 0x60 SWAP2 POP JUMPDEST POP POP SWAP1 POP DUP1 PUSH2 0x36A JUMPI PUSH1 0x40 MLOAD PUSH32 0x8C379A000000000000000000000000000000000000000000000000000000000 DUP2 MSTORE PUSH1 0x4 ADD PUSH2 0x361 SWAP1 PUSH2 0xE3D JUMP JUMPDEST PUSH1 0x40 MLOAD DUP1 SWAP2 SUB SWAP1 REVERT JUMPDEST PUSH0 PUSH1 0x1 SWAP1 SLOAD SWAP1 PUSH2 0x100 EXP SWAP1 DIV PUSH20 0xFFFFFFFFFFFFFFFFFFFFFFFFFFFFFFFFFFFFFFFF AND PUSH20 0xFFFFFFFFFFFFFFFFFFFFFFFFFFFFFFFFFFFFFFFF AND SELFDESTRUCT JUMPDEST PUSH0 PUSH2 0x3AE DUP3 PUSH2 0x5AA JUMP JUMPDEST SWAP1 POP SWAP2 SWAP1 POP JUMP JUMPDEST PUSH0 PUSH1 0x1 SWAP1 SLOAD SWAP1 PUSH2 0x100 EXP SWAP1 DIV PUSH20 0xFFFFFFFFFFFFFFFFFFFFFFFFFFFFFFFFFFFFFFFF AND DUP2 JUMP JUMPDEST PUSH0 PUSH2 0x3E4 DUP3 PUSH2 0x5C3 JUMP JUMPDEST SWAP1 POP SWAP2 SWAP1 POP JUMP JUMPDEST PUSH0 PUSH2 0x3F6 DUP4 DUP4 PUSH2 0x537 JUMP JUMPDEST SWAP1 POP SWAP3 SWAP2 POP POP JUMP JUMPDEST PUSH1 0x2 SLOAD DUP2 JUMP JUMPDEST PUSH0 PUSH1 0x1 SWAP1 SLOAD SWAP1 PUSH2 0x100 EXP SWAP1 DIV PUSH20 0xFFFFFFFFFFFFFFFFFFFFFFFFFFFFFFFFFFFFFFFF AND PUSH20 0xFFFFFFFFFFFFFFFFFFFFFFFFFFFFFFFFFFFFFFFF AND CALLER PUSH20 0xFFFFFFFFFFFFFFFFFFFFFFFFFFFFFFFFFFFFFFFF AND EQ PUSH2 0x493 JUMPI PUSH1 0x40 MLOAD PUSH32 0x8C379A000000000000000000000000000000000000000000000000000000000 DUP2 MSTORE PUSH1 0x4 ADD PUSH2 0x48A SWAP1 PUSH2 0xEA5 JUMP JUMPDEST PUSH1 0x40 MLOAD DUP1 SWAP2 SUB SWAP1 REVERT JUMPDEST PUSH1 0x2 SLOAD TIMESTAMP LT ISZERO PUSH2 0x4D8 JUMPI PUSH1 0x40 MLOAD PUSH32 0x8C379A000000000000000000000000000000000000000000000000000000000 DUP2 MSTORE PUSH1 0x4 ADD PUSH2 0x4CF SWAP1 PUSH2 0xF0D JUMP JUMPDEST PUSH1 0x40 MLOAD DUP1 SWAP2 SUB SWAP1 REVERT JUMPDEST PUSH0 PUSH1 0x1 SWAP1 SLOAD SWAP1 PUSH2 0x100 EXP SWAP1 DIV PUSH20 0xFFFFFFFFFFFFFFFFFFFFFFFFFFFFFFFFFFFFFFFF AND PUSH20 0xFFFFFFFFFFFFFFFFFFFFFFFFFFFFFFFFFFFFFFFF AND SELFDESTRUCT JUMPDEST PUSH1 0x1 PUSH0 SWAP1 SLOAD SWAP1 PUSH2 0x100 EXP SWAP1 DIV PUSH20 0xFFFFFFFFFFFFFFFFFFFFFFFFFFFFFFFFFFFFFFFF AND DUP2 JUMP JUMPDEST PUSH0 DUP1 PUSH1 0x1 SWAP1 SLOAD SWAP1 PUSH2 0x100 EXP SWAP1 DIV PUSH20 0xFFFFFFFFFFFFFFFFFFFFFFFFFFFFFFFFFFFFFFFF AND PUSH20 0xFFFFFFFFFFFFFFFFFFFFFFFFFFFFFFFFFFFFFFFF AND PUSH2 0x58B DUP4 PUSH2 0x57D DUP7 PUSH2 0x5AA JUMP JUMPDEST PUSH2 0x5F4 SWAP1 SWAP2 SWAP1 PUSH4 0xFFFFFFFF AND JUMP JUMPDEST PUSH20 0xFFFFFFFFFFFFFFFFFFFFFFFFFFFFFFFFFFFFFFFF AND EQ SWAP1 POP SWAP3 SWAP2 POP POP JUMP JUMPDEST PUSH0 PUSH2 0x5BC PUSH2 0x5B7 DUP4 PUSH2 0x5C3 JUMP JUMPDEST PUSH2 0x619 JUMP JUMPDEST SWAP1 POP SWAP2 SWAP1 POP JUMP JUMPDEST PUSH0 ADDRESS DUP3 PUSH1 0x40 MLOAD PUSH1 0x20 ADD PUSH2 0x5D7 SWAP3 SWAP2 SWAP1 PUSH2 0xFA1 JUMP JUMPDEST PUSH1 0x40 MLOAD PUSH1 0x20 DUP2 DUP4 SUB SUB DUP2 MSTORE SWAP1 PUSH1 0x40 MSTORE DUP1 MLOAD SWAP1 PUSH1 0x20 ADD KECCAK256 SWAP1 POP SWAP2 SWAP1 POP JUMP JUMPDEST PUSH0 DUP1 PUSH0 PUSH2 0x601 DUP6 DUP6 PUSH2 0x648 JUMP JUMPDEST SWAP2 POP SWAP2 POP PUSH2 0x60E DUP2 PUSH2 0x6C3 JUMP JUMPDEST DUP2 SWAP3 POP POP POP SWAP3 SWAP2 POP POP JUMP JUMPDEST PUSH0 DUP2 PUSH1 0x40 MLOAD PUSH1 0x20 ADD PUSH2 0x62B SWAP2 SWAP1 PUSH2 0x1040 JUMP JUMPDEST PUSH1 0x40 MLOAD PUSH1 0x20 DUP2 DUP4 SUB SUB DUP2 MSTORE SWAP1 PUSH1 0x40 MSTORE DUP1 MLOAD SWAP1 PUSH1 0x20 ADD KECCAK256 SWAP1 POP SWAP2 SWAP1 POP JUMP JUMPDEST PUSH0 DUP1 PUSH1 0x41 DUP4 MLOAD SUB PUSH2 0x685 JUMPI PUSH0 DUP1 PUSH0 PUSH1 0x20 DUP7 ADD MLOAD SWAP3 POP PUSH1 0x40 DUP7 ADD MLOAD SWAP2 POP PUSH1 0x60 DUP7 ADD MLOAD PUSH0 BYTE SWAP1 POP PUSH2 0x679 DUP8 DUP3 DUP6 DUP6 PUSH2 0x88E JUMP JUMPDEST SWAP5 POP SWAP5 POP POP POP POP PUSH2 0x6BC JUMP JUMPDEST PUSH1 0x40 DUP4 MLOAD SUB PUSH2 0x6B4 JUMPI PUSH0 DUP1 PUSH1 0x20 DUP6 ADD MLOAD SWAP2 POP PUSH1 0x40 DUP6 ADD MLOAD SWAP1 POP PUSH2 0x6A9 DUP7 DUP4 DUP4 PUSH2 0x98F JUMP JUMPDEST SWAP4 POP SWAP4 POP POP POP PUSH2 0x6BC JUMP JUMPDEST PUSH0 PUSH1 0x2 SWAP2 POP SWAP2 POP JUMPDEST SWAP3 POP SWAP3 SWAP1 POP JUMP JUMPDEST PUSH0 PUSH1 0x4 DUP2 GT ISZERO PUSH2 0x6D6 JUMPI PUSH2 0x6D5 PUSH2 0x1065 JUMP JUMPDEST JUMPDEST DUP2 PUSH1 0x4 DUP2 GT ISZERO PUSH2 0x6E9 JUMPI PUSH2 0x6E8 PUSH2 0x1065 JUMP JUMPDEST JUMPDEST SUB ISZERO PUSH2 0x88B JUMPI PUSH1 0x1 PUSH1 0x4 DUP2 GT ISZERO PUSH2 0x703 JUMPI PUSH2 0x702 PUSH2 0x1065 JUMP JUMPDEST JUMPDEST DUP2 PUSH1 0x4 DUP2 GT ISZERO PUSH2 0x716 JUMPI PUSH2 0x715 PUSH2 0x1065 JUMP JUMPDEST JUMPDEST SUB PUSH2 0x756 JUMPI PUSH1 0x40 MLOAD PUSH32 0x8C379A000000000000000000000000000000000000000000000000000000000 DUP2 MSTORE PUSH1 0x4 ADD PUSH2 0x74D SWAP1 PUSH2 0x10DC JUMP JUMPDEST PUSH1 0x40 MLOAD DUP1 SWAP2 SUB SWAP1 REVERT JUMPDEST PUSH1 0x2 PUSH1 0x4 DUP2 GT ISZERO PUSH2 0x76A JUMPI PUSH2 0x769 PUSH2 0x1065 JUMP JUMPDEST JUMPDEST DUP2 PUSH1 0x4 DUP2 GT ISZERO PUSH2 0x77D JUMPI PUSH2 0x77C PUSH2 0x1065 JUMP JUMPDEST JUMPDEST SUB PUSH2 0x7BD JUMPI PUSH1 0x40 MLOAD PUSH32 0x8C379A000000000000000000000000000000000000000000000000000000000 DUP2 MSTORE PUSH1 0x4 ADD PUSH2 0x7B4 SWAP1 PUSH2 0x1144 JUMP JUMPDEST PUSH1 0x40 MLOAD DUP1 SWAP2 SUB SWAP1 REVERT JUMPDEST PUSH1 0x3 PUSH1 0x4 DUP2 GT ISZERO PUSH2 0x7D1 JUMPI PUSH2 0x7D0 PUSH2 0x1065 JUMP JUMPDEST JUMPDEST DUP2 PUSH1 0x4 DUP2 GT ISZERO PUSH2 0x7E4 JUMPI PUSH2 0x7E3 PUSH2 0x1065 JUMP JUMPDEST JUMPDEST SUB PUSH2 0x824 JUMPI PUSH1 0x40 MLOAD PUSH32 0x8C379A000000000000000000000000000000000000000000000000000000000 DUP2 MSTORE PUSH1 0x4 ADD PUSH2 0x81B SWAP1 PUSH2 0x11D2 JUMP JUMPDEST PUSH1 0x40 MLOAD DUP1 SWAP2 SUB SWAP1 REVERT JUMPDEST PUSH1 0x4 DUP1 DUP2 GT ISZERO PUSH2 0x837 JUMPI PUSH2 0x836 PUSH2 0x1065 JUMP JUMPDEST JUMPDEST DUP2 PUSH1 0x4 DUP2 GT ISZERO PUSH2 0x84A JUMPI PUSH2 0x849 PUSH2 0x1065 JUMP JUMPDEST JUMPDEST SUB PUSH2 0x88A JUMPI PUSH1 0x40 MLOAD PUSH32 0x8C379A000000000000000000000000000000000000000000000000000000000 DUP2 MSTORE PUSH1 0x4 ADD PUSH2 0x881 SWAP1 PUSH2 0x1260 JUMP JUMPDEST PUSH1 0x40 MLOAD DUP1 SWAP2 SUB SWAP1 REVERT JUMPDEST JUMPDEST POP JUMP JUMPDEST PUSH0 DUP1 PUSH32 0x7FFFFFFFFFFFFFFFFFFFFFFFFFFFFFFF5D576E7357A4501DDFE92F46681B20A0 DUP4 PUSH0 SHR GT ISZERO PUSH2 0x8C6 JUMPI PUSH0 PUSH1 0x3 SWAP2 POP SWAP2 POP PUSH2 0x986 JUMP JUMPDEST PUSH1 0x1B DUP6 PUSH1 0xFF AND EQ ISZERO DUP1 ISZERO PUSH2 0x8DE JUMPI POP PUSH1 0x1C DUP6 PUSH1 0xFF AND EQ ISZERO JUMPDEST ISZERO PUSH2 0x8EF JUMPI PUSH0 PUSH1 0x4 SWAP2 POP SWAP2 POP PUSH2 0x986 JUMP JUMPDEST PUSH0 PUSH1 0x1 DUP8 DUP8 DUP8 DUP8 PUSH1 0x40 MLOAD PUSH0 DUP2 MSTORE PUSH1 0x20 ADD PUSH1 0x40 MSTORE PUSH1 0x40 MLOAD PUSH2 0x912 SWAP5 SWAP4 SWAP3 SWAP2 SWAP1 PUSH2 0x1299 JUMP JUMPDEST PUSH1 0x20 PUSH1 0x40 MLOAD PUSH1 0x20 DUP2 SUB SWAP1 DUP1 DUP5 SUB SWAP1 DUP6 GAS STATICCALL ISZERO DUP1 ISZERO PUSH2 0x932 JUMPI RETURNDATASIZE PUSH0 DUP1 RETURNDATACOPY RETURNDATASIZE PUSH0 REVERT JUMPDEST POP POP POP PUSH1 0x20 PUSH1 0x40 MLOAD SUB MLOAD SWAP1 POP PUSH0 PUSH20 0xFFFFFFFFFFFFFFFFFFFFFFFFFFFFFFFFFFFFFFFF AND DUP2 PUSH20 0xFFFFFFFFFFFFFFFFFFFFFFFFFFFFFFFFFFFFFFFF AND SUB PUSH2 0x97E JUMPI PUSH0 PUSH1 0x1 SWAP3 POP SWAP3 POP POP PUSH2 0x986 JUMP JUMPDEST DUP1 PUSH0 SWAP3 POP SWAP3 POP POP JUMPDEST SWAP5 POP SWAP5 SWAP3 POP POP POP JUMP JUMPDEST PUSH0 DUP1 PUSH0 PUSH32 0x7FFFFFFFFFFFFFFFFFFFFFFFFFFFFFFFFFFFFFFFFFFFFFFFFFFFFFFFFFFFFFFF PUSH0 SHL DUP5 AND SWAP1 POP PUSH0 PUSH1 0x1B PUSH1 0xFF DUP7 PUSH0 SHR SWAP1 SHR PUSH2 0x9CD SWAP2 SWAP1 PUSH2 0x1309 JUMP JUMPDEST SWAP1 POP PUSH2 0x9DB DUP8 DUP3 DUP9 DUP6 PUSH2 0x88E JUMP JUMPDEST SWAP4 POP SWAP4 POP POP POP SWAP4 POP SWAP4 SWAP2 POP POP JUMP JUMPDEST PUSH0 PUSH1 0x40 MLOAD SWAP1 POP SWAP1 JUMP JUMPDEST PUSH0 DUP1 REVERT JUMPDEST PUSH0 DUP1 REVERT JUMPDEST PUSH0 DUP2 SWAP1 POP SWAP2 SWAP1 POP JUMP JUMPDEST PUSH2 0xA0C DUP2 PUSH2 0x9FA JUMP JUMPDEST DUP2 EQ PUSH2 0xA16 JUMPI PUSH0 DUP1 REVERT JUMPDEST POP JUMP JUMPDEST PUSH0 DUP2 CALLDATALOAD SWAP1 POP PUSH2 0xA27 DUP2 PUSH2 0xA03 JUMP JUMPDEST SWAP3 SWAP2 POP POP JUMP JUMPDEST PUSH0 DUP1 REVERT JUMPDEST PUSH0 DUP1 REVERT JUMPDEST PUSH0 PUSH1 0x1F NOT PUSH1 0x1F DUP4 ADD AND SWAP1 POP SWAP2 SWAP1 POP JUMP JUMPDEST PUSH32 0x4E487B7100000000000000000000000000000000000000000000000000000000 PUSH0 MSTORE PUSH1 0x41 PUSH1 0x4 MSTORE PUSH1 0x24 PUSH0 REVERT JUMPDEST PUSH2 0xA7B DUP3 PUSH2 0xA35 JUMP JUMPDEST DUP2 ADD DUP2 DUP2 LT PUSH8 0xFFFFFFFFFFFFFFFF DUP3 GT OR ISZERO PUSH2 0xA9A JUMPI PUSH2 0xA99 PUSH2 0xA45 JUMP JUMPDEST JUMPDEST DUP1 PUSH1 0x40 MSTORE POP POP POP JUMP JUMPDEST PUSH0 PUSH2 0xAAC PUSH2 0x9E9 JUMP JUMPDEST SWAP1 POP PUSH2 0xAB8 DUP3 DUP3 PUSH2 0xA72 JUMP JUMPDEST SWAP2 SWAP1 POP JUMP JUMPDEST PUSH0 PUSH8 0xFFFFFFFFFFFFFFFF DUP3 GT ISZERO PUSH2 0xAD7 JUMPI PUSH2 0xAD6 PUSH2 0xA45 JUMP JUMPDEST JUMPDEST PUSH2 0xAE0 DUP3 PUSH2 0xA35 JUMP JUMPDEST SWAP1 POP PUSH1 0x20 DUP2 ADD SWAP1 POP SWAP2 SWAP1 POP JUMP JUMPDEST DUP3 DUP2 DUP4 CALLDATACOPY PUSH0 DUP4 DUP4 ADD MSTORE POP POP POP JUMP JUMPDEST PUSH0 PUSH2 0xB0D PUSH2 0xB08 DUP5 PUSH2 0xABD JUMP JUMPDEST PUSH2 0xAA3 JUMP JUMPDEST SWAP1 POP DUP3 DUP2 MSTORE PUSH1 0x20 DUP2 ADD DUP5 DUP5 DUP5 ADD GT ISZERO PUSH2 0xB29 JUMPI PUSH2 0xB28 PUSH2 0xA31 JUMP JUMPDEST JUMPDEST PUSH2 0xB34 DUP5 DUP3 DUP6 PUSH2 0xAED JUMP JUMPDEST POP SWAP4 SWAP3 POP POP POP JUMP JUMPDEST PUSH0 DUP3 PUSH1 0x1F DUP4 ADD SLT PUSH2 0xB50 JUMPI PUSH2 0xB4F PUSH2 0xA2D JUMP JUMPDEST JUMPDEST DUP2 CALLDATALOAD PUSH2 0xB60 DUP5 DUP3 PUSH1 0x20 DUP7 ADD PUSH2 0xAFB JUMP JUMPDEST SWAP2 POP POP SWAP3 SWAP2 POP POP JUMP JUMPDEST PUSH0 DUP1 PUSH1 0x40 DUP4 DUP6 SUB SLT ISZERO PUSH2 0xB7F JUMPI PUSH2 0xB7E PUSH2 0x9F2 JUMP JUMPDEST JUMPDEST PUSH0 PUSH2 0xB8C DUP6 DUP3 DUP7 ADD PUSH2 0xA19 JUMP JUMPDEST SWAP3 POP POP PUSH1 0x20 DUP4 ADD CALLDATALOAD PUSH8 0xFFFFFFFFFFFFFFFF DUP2 GT ISZERO PUSH2 0xBAD JUMPI PUSH2 0xBAC PUSH2 0x9F6 JUMP JUMPDEST JUMPDEST PUSH2 0xBB9 DUP6 DUP3 DUP7 ADD PUSH2 0xB3C JUMP JUMPDEST SWAP2 POP POP SWAP3 POP SWAP3 SWAP1 POP JUMP JUMPDEST PUSH0 PUSH1 0x20 DUP3 DUP5 SUB SLT ISZERO PUSH2 0xBD8 JUMPI PUSH2 0xBD7 PUSH2 0x9F2 JUMP JUMPDEST JUMPDEST PUSH0 PUSH2 0xBE5 DUP5 DUP3 DUP6 ADD PUSH2 0xA19 JUMP JUMPDEST SWAP2 POP POP SWAP3 SWAP2 POP POP JUMP JUMPDEST PUSH0 DUP2 SWAP1 POP SWAP2 SWAP1 POP JUMP JUMPDEST PUSH2 0xC00 DUP2 PUSH2 0xBEE JUMP JUMPDEST DUP3 MSTORE POP POP JUMP JUMPDEST PUSH0 PUSH1 0x20 DUP3 ADD SWAP1 POP PUSH2 0xC19 PUSH0 DUP4 ADD DUP5 PUSH2 0xBF7 JUMP JUMPDEST SWAP3 SWAP2 POP POP JUMP JUMPDEST PUSH0 PUSH20 0xFFFFFFFFFFFFFFFFFFFFFFFFFFFFFFFFFFFFFFFF DUP3 AND SWAP1 POP SWAP2 SWAP1 POP JUMP JUMPDEST PUSH0 PUSH2 0xC48 DUP3 PUSH2 0xC1F JUMP JUMPDEST SWAP1 POP SWAP2 SWAP1 POP JUMP JUMPDEST PUSH2 0xC58 DUP2 PUSH2 0xC3E JUMP JUMPDEST DUP3 MSTORE POP POP JUMP JUMPDEST PUSH0 PUSH1 0x20 DUP3 ADD SWAP1 POP PUSH2 0xC71 PUSH0 DUP4 ADD DUP5 PUSH2 0xC4F JUMP JUMPDEST SWAP3 SWAP2 POP POP JUMP JUMPDEST PUSH0 DUP2 ISZERO ISZERO SWAP1 POP SWAP2 SWAP1 POP JUMP JUMPDEST PUSH2 0xC8B DUP2 PUSH2 0xC77 JUMP JUMPDEST DUP3 MSTORE POP POP JUMP JUMPDEST PUSH0 PUSH1 0x20 DUP3 ADD SWAP1 POP PUSH2 0xCA4 PUSH0 DUP4 ADD DUP5 PUSH2 0xC82 JUMP JUMPDEST SWAP3 SWAP2 POP POP JUMP JUMPDEST PUSH2 0xCB3 DUP2 PUSH2 0x9FA JUMP JUMPDEST DUP3 MSTORE POP POP JUMP JUMPDEST PUSH0 PUSH1 0x20 DUP3 ADD SWAP1 POP PUSH2 0xCCC PUSH0 DUP4 ADD DUP5 PUSH2 0xCAA JUMP JUMPDEST SWAP3 SWAP2 POP POP JUMP JUMPDEST PUSH0 DUP3 DUP3 MSTORE PUSH1 0x20 DUP3 ADD SWAP1 POP SWAP3 SWAP2 POP POP JUMP JUMPDEST PUSH32 0x2172656365697665720000000000000000000000000000000000000000000000 PUSH0 DUP3 ADD MSTORE POP JUMP JUMPDEST PUSH0 PUSH2 0xD16 PUSH1 0x9 DUP4 PUSH2 0xCD2 JUMP JUMPDEST SWAP2 POP PUSH2 0xD21 DUP3 PUSH2 0xCE2 JUMP JUMPDEST PUSH1 0x20 DUP3 ADD SWAP1 POP SWAP2 SWAP1 POP JUMP JUMPDEST PUSH0 PUSH1 0x20 DUP3 ADD SWAP1 POP DUP2 DUP2 SUB PUSH0 DUP4 ADD MSTORE PUSH2 0xD43 DUP2 PUSH2 0xD0A JUMP JUMPDEST SWAP1 POP SWAP2 SWAP1 POP JUMP JUMPDEST PUSH32 0x696E76616C696420736967000000000000000000000000000000000000000000 PUSH0 DUP3 ADD MSTORE POP JUMP JUMPDEST PUSH0 PUSH2 0xD7E PUSH1 0xB DUP4 PUSH2 0xCD2 JUMP JUMPDEST SWAP2 POP PUSH2 0xD89 DUP3 PUSH2 0xD4A JUMP JUMPDEST PUSH1 0x20 DUP3 ADD SWAP1 POP SWAP2 SWAP1 POP JUMP JUMPDEST PUSH0 PUSH1 0x20 DUP3 ADD SWAP1 POP DUP2 DUP2 SUB PUSH0 DUP4 ADD MSTORE PUSH2 0xDAB DUP2 PUSH2 0xD72 JUMP JUMPDEST SWAP1 POP SWAP2 SWAP1 POP JUMP JUMPDEST PUSH0 DUP2 SWAP1 POP SWAP3 SWAP2 POP POP JUMP JUMPDEST POP JUMP JUMPDEST PUSH0 PUSH2 0xDCA PUSH0 DUP4 PUSH2 0xDB2 JUMP JUMPDEST SWAP2 POP PUSH2 0xDD5 DUP3 PUSH2 0xDBC JUMP JUMPDEST PUSH0 DUP3 ADD SWAP1 POP SWAP2 SWAP1 POP JUMP JUMPDEST PUSH0 PUSH2 0xDE9 DUP3 PUSH2 0xDBF JUMP JUMPDEST SWAP2 POP DUP2 SWAP1 POP SWAP2 SWAP1 POP JUMP JUMPDEST PUSH32 0x4661696C656420746F2073656E64204574686572000000000000000000000000 PUSH0 DUP3 ADD MSTORE POP JUMP JUMPDEST PUSH0 PUSH2 0xE27 PUSH1 0x14 DUP4 PUSH2 0xCD2 JUMP JUMPDEST SWAP2 POP PUSH2 0xE32 DUP3 PUSH2 0xDF3 JUMP JUMPDEST PUSH1 0x20 DUP3 ADD SWAP1 POP SWAP2 SWAP1 POP JUMP JUMPDEST PUSH0 PUSH1 0x20 DUP3 ADD SWAP1 POP DUP2 DUP2 SUB PUSH0 DUP4 ADD MSTORE PUSH2 0xE54 DUP2 PUSH2 0xE1B JUMP JUMPDEST SWAP1 POP SWAP2 SWAP1 POP JUMP JUMPDEST PUSH32 0x2173656E64657200000000000000000000000000000000000000000000000000 PUSH0 DUP3 ADD MSTORE POP JUMP JUMPDEST PUSH0 PUSH2 0xE8F PUSH1 0x7 DUP4 PUSH2 0xCD2 JUMP JUMPDEST SWAP2 POP PUSH2 0xE9A DUP3 PUSH2 0xE5B JUMP JUMPDEST PUSH1 0x20 DUP3 ADD SWAP1 POP SWAP2 SWAP1 POP JUMP JUMPDEST PUSH0 PUSH1 0x20 DUP3 ADD SWAP1 POP DUP2 DUP2 SUB PUSH0 DUP4 ADD MSTORE PUSH2 0xEBC DUP2 PUSH2 0xE83 JUMP JUMPDEST SWAP1 POP SWAP2 SWAP1 POP JUMP JUMPDEST PUSH32 0x2165787069726564000000000000000000000000000000000000000000000000 PUSH0 DUP3 ADD MSTORE POP JUMP JUMPDEST PUSH0 PUSH2 0xEF7 PUSH1 0x8 DUP4 PUSH2 0xCD2 JUMP JUMPDEST SWAP2 POP PUSH2 0xF02 DUP3 PUSH2 0xEC3 JUMP JUMPDEST PUSH1 0x20 DUP3 ADD SWAP1 POP SWAP2 SWAP1 POP JUMP JUMPDEST PUSH0 PUSH1 0x20 DUP3 ADD SWAP1 POP DUP2 DUP2 SUB PUSH0 DUP4 ADD MSTORE PUSH2 0xF24 DUP2 PUSH2 0xEEB JUMP JUMPDEST SWAP1 POP SWAP2 SWAP1 POP JUMP JUMPDEST PUSH0 PUSH2 0xF35 DUP3 PUSH2 0xC1F JUMP JUMPDEST SWAP1 POP SWAP2 SWAP1 POP JUMP JUMPDEST PUSH0 DUP2 PUSH1 0x60 SHL SWAP1 POP SWAP2 SWAP1 POP JUMP JUMPDEST PUSH0 PUSH2 0xF52 DUP3 PUSH2 0xF3C JUMP JUMPDEST SWAP1 POP SWAP2 SWAP1 POP JUMP JUMPDEST PUSH0 PUSH2 0xF63 DUP3 PUSH2 0xF48 JUMP JUMPDEST SWAP1 POP SWAP2 SWAP1 POP JUMP JUMPDEST PUSH2 0xF7B PUSH2 0xF76 DUP3 PUSH2 0xF2B JUMP JUMPDEST PUSH2 0xF59 JUMP JUMPDEST DUP3 MSTORE POP POP JUMP JUMPDEST PUSH0 DUP2 SWAP1 POP SWAP2 SWAP1 POP JUMP JUMPDEST PUSH2 0xF9B PUSH2 0xF96 DUP3 PUSH2 0x9FA JUMP JUMPDEST PUSH2 0xF81 JUMP JUMPDEST DUP3 MSTORE POP POP JUMP JUMPDEST PUSH0 PUSH2 0xFAC DUP3 DUP6 PUSH2 0xF6A JUMP JUMPDEST PUSH1 0x14 DUP3 ADD SWAP2 POP PUSH2 0xFBC DUP3 DUP5 PUSH2 0xF8A JUMP JUMPDEST PUSH1 0x20 DUP3 ADD SWAP2 POP DUP2 SWAP1 POP SWAP4 SWAP3 POP POP POP JUMP JUMPDEST PUSH0 DUP2 SWAP1 POP SWAP3 SWAP2 POP POP JUMP JUMPDEST PUSH32 0x19457468657265756D205369676E6564204D6573736167653A0A333200000000 PUSH0 DUP3 ADD MSTORE POP JUMP JUMPDEST PUSH0 PUSH2 0x100A PUSH1 0x1C DUP4 PUSH2 0xFCC JUMP JUMPDEST SWAP2 POP PUSH2 0x1015 DUP3 PUSH2 0xFD6 JUMP JUMPDEST PUSH1 0x1C DUP3 ADD SWAP1 POP SWAP2 SWAP1 POP JUMP JUMPDEST PUSH0 DUP2 SWAP1 POP SWAP2 SWAP1 POP JUMP JUMPDEST PUSH2 0x103A PUSH2 0x1035 DUP3 PUSH2 0xBEE JUMP JUMPDEST PUSH2 0x1020 JUMP JUMPDEST DUP3 MSTORE POP POP JUMP JUMPDEST PUSH0 PUSH2 0x104A DUP3 PUSH2 0xFFE JUMP JUMPDEST SWAP2 POP PUSH2 0x1056 DUP3 DUP5 PUSH2 0x1029 JUMP JUMPDEST PUSH1 0x20 DUP3 ADD SWAP2 POP DUP2 SWAP1 POP SWAP3 SWAP2 POP POP JUMP JUMPDEST PUSH32 0x4E487B7100000000000000000000000000000000000000000000000000000000 PUSH0 MSTORE PUSH1 0x21 PUSH1 0x4 MSTORE PUSH1 0x24 PUSH0 REVERT JUMPDEST PUSH32 0x45434453413A20696E76616C6964207369676E61747572650000000000000000 PUSH0 DUP3 ADD MSTORE POP JUMP JUMPDEST PUSH0 PUSH2 0x10C6 PUSH1 0x18 DUP4 PUSH2 0xCD2 JUMP JUMPDEST SWAP2 POP PUSH2 0x10D1 DUP3 PUSH2 0x1092 JUMP JUMPDEST PUSH1 0x20 DUP3 ADD SWAP1 POP SWAP2 SWAP1 POP JUMP JUMPDEST PUSH0 PUSH1 0x20 DUP3 ADD SWAP1 POP DUP2 DUP2 SUB PUSH0 DUP4 ADD MSTORE PUSH2 0x10F3 DUP2 PUSH2 0x10BA JUMP JUMPDEST SWAP1 POP SWAP2 SWAP1 POP JUMP JUMPDEST PUSH32 0x45434453413A20696E76616C6964207369676E6174757265206C656E67746800 PUSH0 DUP3 ADD MSTORE POP JUMP JUMPDEST PUSH0 PUSH2 0x112E PUSH1 0x1F DUP4 PUSH2 0xCD2 JUMP JUMPDEST SWAP2 POP PUSH2 0x1139 DUP3 PUSH2 0x10FA JUMP JUMPDEST PUSH1 0x20 DUP3 ADD SWAP1 POP SWAP2 SWAP1 POP JUMP JUMPDEST PUSH0 PUSH1 0x20 DUP3 ADD SWAP1 POP DUP2 DUP2 SUB PUSH0 DUP4 ADD MSTORE PUSH2 0x115B DUP2 PUSH2 0x1122 JUMP JUMPDEST SWAP1 POP SWAP2 SWAP1 POP JUMP JUMPDEST PUSH32 0x45434453413A20696E76616C6964207369676E6174757265202773272076616C PUSH0 DUP3 ADD MSTORE PUSH32 0x7565000000000000000000000000000000000000000000000000000000000000 PUSH1 0x20 DUP3 ADD MSTORE POP JUMP JUMPDEST PUSH0 PUSH2 0x11BC PUSH1 0x22 DUP4 PUSH2 0xCD2 JUMP JUMPDEST SWAP2 POP PUSH2 0x11C7 DUP3 PUSH2 0x1162 JUMP JUMPDEST PUSH1 0x40 DUP3 ADD SWAP1 POP SWAP2 SWAP1 POP JUMP JUMPDEST PUSH0 PUSH1 0x20 DUP3 ADD SWAP1 POP DUP2 DUP2 SUB PUSH0 DUP4 ADD MSTORE PUSH2 0x11E9 DUP2 PUSH2 0x11B0 JUMP JUMPDEST SWAP1 POP SWAP2 SWAP1 POP JUMP JUMPDEST PUSH32 0x45434453413A20696E76616C6964207369676E6174757265202776272076616C PUSH0 DUP3 ADD MSTORE PUSH32 0x7565000000000000000000000000000000000000000000000000000000000000 PUSH1 0x20 DUP3 ADD MSTORE POP JUMP JUMPDEST PUSH0 PUSH2 0x124A PUSH1 0x22 DUP4 PUSH2 0xCD2 JUMP JUMPDEST SWAP2 POP PUSH2 0x1255 DUP3 PUSH2 0x11F0 JUMP JUMPDEST PUSH1 0x40 DUP3 ADD SWAP1 POP SWAP2 SWAP1 POP JUMP JUMPDEST PUSH0 PUSH1 0x20 DUP3 ADD SWAP1 POP DUP2 DUP2 SUB PUSH0 DUP4 ADD MSTORE PUSH2 0x1277 DUP2 PUSH2 0x123E JUMP JUMPDEST SWAP1 POP SWAP2 SWAP1 POP JUMP JUMPDEST PUSH0 PUSH1 0xFF DUP3 AND SWAP1 POP SWAP2 SWAP1 POP JUMP JUMPDEST PUSH2 0x1293 DUP2 PUSH2 0x127E JUMP JUMPDEST DUP3 MSTORE POP POP JUMP JUMPDEST PUSH0 PUSH1 0x80 DUP3 ADD SWAP1 POP PUSH2 0x12AC PUSH0 DUP4 ADD DUP8 PUSH2 0xBF7 JUMP JUMPDEST PUSH2 0x12B9 PUSH1 0x20 DUP4 ADD DUP7 PUSH2 0x128A JUMP JUMPDEST PUSH2 0x12C6 PUSH1 0x40 DUP4 ADD DUP6 PUSH2 0xBF7 JUMP JUMPDEST PUSH2 0x12D3 PUSH1 0x60 DUP4 ADD DUP5 PUSH2 0xBF7 JUMP JUMPDEST SWAP6 SWAP5 POP POP POP POP POP JUMP JUMPDEST PUSH32 0x4E487B7100000000000000000000000000000000000000000000000000000000 PUSH0 MSTORE PUSH1 0x11 PUSH1 0x4 MSTORE PUSH1 0x24 PUSH0 REVERT JUMPDEST PUSH0 PUSH2 0x1313 DUP3 PUSH2 0x9FA JUMP JUMPDEST SWAP2 POP PUSH2 0x131E DUP4 PUSH2 0x9FA JUMP JUMPDEST SWAP3 POP DUP3 DUP3 ADD SWAP1 POP DUP1 DUP3 GT ISZERO PUSH2 0x1336 JUMPI PUSH2 0x1335 PUSH2 0x12DC JUMP JUMPDEST JUMPDEST SWAP3 SWAP2 POP POP JUMP INVALID LOG2 PUSH5 0x6970667358 0x22 SLT KECCAK256 DUP9 BALANCE 0xA7 DUP12 DUP12 SSTORE 0xD6 MSTORE8 ISZERO 0xD8 0x28 DUP15 PUSH22 0xA3E91B3F9117052B7E9E999F869EF3A8E7A58E64736F PUSH13 0x634300081A0033000000000000 "
				},
				"gasEstimates": {
					"creation": {
						"codeDepositCost": "995600",
						"executionCost": "infinite",
						"totalCost": "infinite"
					},
					"external": {
						"cancel()": "34316",
						"close(uint256,bytes)": "infinite",
						"expiresAt()": "2447",
						"getEthSignedHash(uint256)": "infinite",
						"getHash(uint256)": "infinite",
						"receiver()": "2574",
						"sender()": "2603",
						"verify(uint256,bytes)": "infinite"
					},
					"internal": {
						"_getEthSignedHash(uint256)": "infinite",
						"_getHash(uint256)": "infinite",
						"_verify(uint256,bytes memory)": "infinite"
					}
				},
				"methodIdentifiers": {
					"cancel()": "ea8a1af0",
					"close(uint256,bytes)": "415ffba7",
					"expiresAt()": "8622a689",
					"getEthSignedHash(uint256)": "552f50b6",
					"getHash(uint256)": "6b2fafa9",
					"receiver()": "f7260d3e",
					"sender()": "67e404ce",
					"verify(uint256,bytes)": "85852ce4"
				}
			},
			"storageLayout": {
				"storage": [
					{
						"astId": 360,
						"contract": "Applications/UniDirectionalPaymentCheck.sol:UniDirectionalPaymentChannel",
						"label": "locked",
						"offset": 0,
						"slot": "0",
						"type": "t_bool"
					},
					{
						"astId": 385,
						"contract": "Applications/UniDirectionalPaymentCheck.sol:UniDirectionalPaymentChannel",
						"label": "sender",
						"offset": 1,
						"slot": "0",
						"type": "t_address_payable"
					},
					{
						"astId": 387,
						"contract": "Applications/UniDirectionalPaymentCheck.sol:UniDirectionalPaymentChannel",
						"label": "receiver",
						"offset": 0,
						"slot": "1",
						"type": "t_address_payable"
					},
					{
						"astId": 398,
						"contract": "Applications/UniDirectionalPaymentCheck.sol:UniDirectionalPaymentChannel",
						"label": "expiresAt",
						"offset": 0,
						"slot": "2",
						"type": "t_uint256"
					}
				],
				"types": {
					"t_address_payable": {
						"encoding": "inplace",
						"label": "address payable",
						"numberOfBytes": "20"
					},
					"t_bool": {
						"encoding": "inplace",
						"label": "bool",
						"numberOfBytes": "1"
					},
					"t_uint256": {
						"encoding": "inplace",
						"label": "uint256",
						"numberOfBytes": "32"
					}
				}
			},
			"userdoc": {
				"kind": "user",
				"methods": {},
				"version": 1
			}
		}
	}
}