{
	"data": {
		"bytecode": {
			"linkReferences": {},
			"object": "60806040526102c6806100115f395ff3fe608060405260043610610028575f3560e01c806358d02b091461002c578063f0acd7d514610056575b5f80fd5b348015610037575f80fd5b50610040610060565b60405161004d9190610161565b60405180910390f35b61005e610065565b005b5f5481565b678ac7230489e800003414610078575f80fd5b5f544203610084575f80fd5b425f819055505f600f4261009891906101a7565b03610147575f3373ffffffffffffffffffffffffffffffffffffffff16476040516100c290610204565b5f6040518083038185875af1925050503d805f81146100fc576040519150601f19603f3d011682016040523d82523d5f602084013e610101565b606091505b5050905080610145576040517f08c379a000000000000000000000000000000000000000000000000000000000815260040161013c90610272565b60405180910390fd5b505b565b5f819050919050565b61015b81610149565b82525050565b5f6020820190506101745f830184610152565b92915050565b7f4e487b71000000000000000000000000000000000000000000000000000000005f52601260045260245ffd5b5f6101b182610149565b91506101bc83610149565b9250826101cc576101cb61017a565b5b828206905092915050565b5f81905092915050565b50565b5f6101ef5f836101d7565b91506101fa826101e1565b5f82019050919050565b5f61020e826101e4565b9150819050919050565b5f82825260208201905092915050565b7f4661696c656420746f2073656e642065746865720000000000000000000000005f82015250565b5f61025c601483610218565b915061026782610228565b602082019050919050565b5f6020820190508181035f83015261028981610250565b905091905056fea26469706673582212200d07d6274745762065e4429f1dfe1b947b36ed5db2336005e293060b8d368cb964736f6c634300081a0033",
			"opcodes": "PUSH1 0x80 PUSH1 0x40 MSTORE PUSH2 0x2C6 DUP1 PUSH2 0x11 PUSH0 CODECOPY PUSH0 RETURN INVALID PUSH1 0x80 PUSH1 0x40 MSTORE PUSH1 0x4 CALLDATASIZE LT PUSH2 0x28 JUMPI PUSH0 CALLDATALOAD PUSH1 0xE0 SHR DUP1 PUSH4 0x58D02B09 EQ PUSH2 0x2C JUMPI DUP1 PUSH4 0xF0ACD7D5 EQ PUSH2 0x56 JUMPI JUMPDEST PUSH0 DUP1 REVERT JUMPDEST CALLVALUE DUP1 ISZERO PUSH2 0x37 JUMPI PUSH0 DUP1 REVERT JUMPDEST POP PUSH2 0x40 PUSH2 0x60 JUMP JUMPDEST PUSH1 0x40 MLOAD PUSH2 0x4D SWAP2 SWAP1 PUSH2 0x161 JUMP JUMPDEST PUSH1 0x40 MLOAD DUP1 SWAP2 SUB SWAP1 RETURN JUMPDEST PUSH2 0x5E PUSH2 0x65 JUMP JUMPDEST STOP JUMPDEST PUSH0 SLOAD DUP2 JUMP JUMPDEST PUSH8 0x8AC7230489E80000 CALLVALUE EQ PUSH2 0x78 JUMPI PUSH0 DUP1 REVERT JUMPDEST PUSH0 SLOAD TIMESTAMP SUB PUSH2 0x84 JUMPI PUSH0 DUP1 REVERT JUMPDEST TIMESTAMP PUSH0 DUP2 SWAP1 SSTORE POP PUSH0 PUSH1 0xF TIMESTAMP PUSH2 0x98 SWAP2 SWAP1 PUSH2 0x1A7 JUMP JUMPDEST SUB PUSH2 0x147 JUMPI PUSH0 CALLER PUSH20 0xFFFFFFFFFFFFFFFFFFFFFFFFFFFFFFFFFFFFFFFF AND SELFBALANCE PUSH1 0x40 MLOAD PUSH2 0xC2 SWAP1 PUSH2 0x204 JUMP JUMPDEST PUSH0 PUSH1 0x40 MLOAD DUP1 DUP4 SUB DUP2 DUP6 DUP8 GAS CALL SWAP3 POP POP POP RETURNDATASIZE DUP1 PUSH0 DUP2 EQ PUSH2 0xFC JUMPI PUSH1 0x40 MLOAD SWAP2 POP PUSH1 0x1F NOT PUSH1 0x3F RETURNDATASIZE ADD AND DUP3 ADD PUSH1 0x40 MSTORE RETURNDATASIZE DUP3 MSTORE RETURNDATASIZE PUSH0 PUSH1 0x20 DUP5 ADD RETURNDATACOPY PUSH2 0x101 JUMP JUMPDEST PUSH1 0x60 SWAP2 POP JUMPDEST POP POP SWAP1 POP DUP1 PUSH2 0x145 JUMPI PUSH1 0x40 MLOAD PUSH32 0x8C379A000000000000000000000000000000000000000000000000000000000 DUP2 MSTORE PUSH1 0x4 ADD PUSH2 0x13C SWAP1 PUSH2 0x272 JUMP JUMPDEST PUSH1 0x40 MLOAD DUP1 SWAP2 SUB SWAP1 REVERT JUMPDEST POP JUMPDEST JUMP JUMPDEST PUSH0 DUP2 SWAP1 POP SWAP2 SWAP1 POP JUMP JUMPDEST PUSH2 0x15B DUP2 PUSH2 0x149 JUMP JUMPDEST DUP3 MSTORE POP POP JUMP JUMPDEST PUSH0 PUSH1 0x20 DUP3 ADD SWAP1 POP PUSH2 0x174 PUSH0 DUP4 ADD DUP5 PUSH2 0x152 JUMP JUMPDEST SWAP3 SWAP2 POP POP JUMP JUMPDEST PUSH32 0x4E487B7100000000000000000000000000000000000000000000000000000000 PUSH0 MSTORE PUSH1 0x12 PUSH1 0x4 MSTORE PUSH1 0x24 PUSH0 REVERT JUMPDEST PUSH0 PUSH2 0x1B1 DUP3 PUSH2 0x149 JUMP JUMPDEST SWAP2 POP PUSH2 0x1BC DUP4 PUSH2 0x149 JUMP JUMPDEST SWAP3 POP DUP3 PUSH2 0x1CC JUMPI PUSH2 0x1CB PUSH2 0x17A JUMP JUMPDEST JUMPDEST DUP3 DUP3 MOD SWAP1 POP SWAP3 SWAP2 POP POP JUMP JUMPDEST PUSH0 DUP2 SWAP1 POP SWAP3 SWAP2 POP POP JUMP JUMPDEST POP JUMP JUMPDEST PUSH0 PUSH2 0x1EF PUSH0 DUP4 PUSH2 0x1D7 JUMP JUMPDEST SWAP2 POP PUSH2 0x1FA DUP3 PUSH2 0x1E1 JUMP JUMPDEST PUSH0 DUP3 ADD SWAP1 POP SWAP2 SWAP1 POP JUMP JUMPDEST PUSH0 PUSH2 0x20E DUP3 PUSH2 0x1E4 JUMP JUMPDEST SWAP2 POP DUP2 SWAP1 POP SWAP2 SWAP1 POP JUMP JUMPDEST PUSH0 DUP3 DUP3 MSTORE PUSH1 0x20 DUP3 ADD SWAP1 POP SWAP3 SWAP2 POP POP JUMP JUMPDEST PUSH32 0x4661696C656420746F2073656E64206574686572000000000000000000000000 PUSH0 DUP3 ADD MSTORE POP JUMP JUMPDEST PUSH0 PUSH2 0x25C PUSH1 0x14 DUP4 PUSH2 0x218 JUMP JUMPDEST SWAP2 POP PUSH2 0x267 DUP3 PUSH2 0x228 JUMP JUMPDEST PUSH1 0x20 DUP3 ADD SWAP1 POP SWAP2 SWAP1 POP JUMP JUMPDEST PUSH0 PUSH1 0x20 DUP3 ADD SWAP1 POP DUP2 DUP2 SUB PUSH0 DUP4 ADD MSTORE PUSH2 0x289 DUP2 PUSH2 0x250 JUMP JUMPDEST SWAP1 POP SWAP2 SWAP1 POP JUMP INVALID LOG2 PUSH5 0x6970667358 0x22 SLT KECCAK256 0xD SMOD 0xD6 0x27 SELFBALANCE GASLIMIT PUSH23 0x2065E4429F1DFE1B947B36ED5DB2336005E293060B8D36 DUP13 0xB9 PUSH5 0x736F6C6343 STOP ADDMOD BYTE STOP CALLER "
		},
		"gasEstimates": {
			"creation": {
				"codeDepositCost": "142000",
				"executionCost": "164",
				"totalCost": "142164"
			},
			"external": {
				"pastBlockTime()": "2402",
				"spin()": "infinite"
			}
		},
		"methodIdentifiers": {
			"pastBlockTime()": "58d02b09",
			"spin()": "f0acd7d5"
		}
	},
	"abi": [
		{
			"inputs": [],
			"stateMutability": "payable",
			"type": "constructor"
		},
		{
			"inputs": [],
			"name": "pastBlockTime",
			"outputs": [
				{
					"internalType": "uint256",
					"name": "",
					"type": "uint256"
				}
			],
			"stateMutability": "view",
			"type": "function"
		},
		{
			"inputs": [],
			"name": "spin",
			"outputs": [],
			"stateMutability": "payable",
			"type": "function"
		}
	]
}