{
	"data": {
		"bytecode": {
			"linkReferences": {},
			"object": "60806040527f564ccaf7594d66b1eaaea24fe01f0585bf52ee70852af4eac0cc4b04711cd0e25f1b5f5534600281905550610f228061003d5f395ff3fe608060405234801561000f575f80fd5b506004361061007b575f3560e01c8063228cb73311610059578063228cb733146100d75780634218400f146100f55780636a8e7a6b14610115578063dfbf53ae146101315761007b565b806306a193841461007f57806309bd5a601461009b57806312fa6feb146100b9575b5f80fd5b61009960048036038101906100949190610784565b61014f565b005b6100a3610254565b6040516100b091906107be565b60405180910390f35b6100c1610259565b6040516100ce91906107f1565b60405180910390f35b6100df61026b565b6040516100ec9190610822565b60405180910390f35b6100fd610271565b60405161010c9392919061083b565b60405180910390f35b61012f600480360381019061012a91906109ac565b61036f565b005b61013961071b565b6040516101469190610a61565b60405180910390f35b60035f9054906101000a900460ff161561019e576040517f08c379a000000000000000000000000000000000000000000000000000000000815260040161019590610ad4565b60405180910390fd5b5f60045f3373ffffffffffffffffffffffffffffffffffffffff1673ffffffffffffffffffffffffffffffffffffffff1681526020019081526020015f2090505f816001015414610224576040517f08c379a000000000000000000000000000000000000000000000000000000000815260040161021b90610b3c565b60405180910390fd5b81815f01819055504281600101819055505f816002015f6101000a81548160ff0219169083151502179055505050565b5f5481565b60035f9054906101000a900460ff1681565b60025481565b5f805f60035f9054906101000a900460ff16156102c3576040517f08c379a00000000000000000000000000000000000000000000000000000000081526004016102ba90610ad4565b60405180910390fd5b5f60045f3373ffffffffffffffffffffffffffffffffffffffff1673ffffffffffffffffffffffffffffffffffffffff1681526020019081526020015f2090505f816001015403610349576040517f08c379a000000000000000000000000000000000000000000000000000000000815260040161034090610ba4565b60405180910390fd5b805f01548160010154826002015f9054906101000a900460ff1693509350935050909192565b60035f9054906101000a900460ff16156103be576040517f08c379a00000000000000000000000000000000000000000000000000000000081526004016103b590610ad4565b60405180910390fd5b5f60045f3373ffffffffffffffffffffffffffffffffffffffff1673ffffffffffffffffffffffffffffffffffffffff1681526020019081526020015f2090505f816001015403610444576040517f08c379a000000000000000000000000000000000000000000000000000000000815260040161043b90610ba4565b60405180910390fd5b4281600101541061048a576040517f08c379a000000000000000000000000000000000000000000000000000000000815260040161048190610c0c565b60405180910390fd5b806002015f9054906101000a900460ff16156104db576040517f08c379a00000000000000000000000000000000000000000000000000000000081526004016104d290610c74565b60405180910390fd5b5f3384846040516020016104f193929190610d29565b604051602081830303815290604052805190602001209050815f0154811461054e576040517f08c379a000000000000000000000000000000000000000000000000000000000815260040161054590610da7565b60405180910390fd5b5f54846040516020016105619190610dc5565b60405160208183030381529060405280519060200120146105b7576040517f08c379a00000000000000000000000000000000000000000000000000000000081526004016105ae90610e25565b60405180910390fd5b3360015f6101000a81548173ffffffffffffffffffffffffffffffffffffffff021916908373ffffffffffffffffffffffffffffffffffffffff160217905550600160035f6101000a81548160ff0219169083151502179055505f3373ffffffffffffffffffffffffffffffffffffffff1660025460405161063890610e70565b5f6040518083038185875af1925050503d805f8114610672576040519150601f19603f3d011682016040523d82523d5f602084013e610677565b606091505b5050905080610714575f60015f6101000a81548173ffffffffffffffffffffffffffffffffffffffff021916908373ffffffffffffffffffffffffffffffffffffffff1602179055505f60035f6101000a81548160ff0219169083151502179055506040517f08c379a000000000000000000000000000000000000000000000000000000000815260040161070b90610ece565b60405180910390fd5b5050505050565b60015f9054906101000a900473ffffffffffffffffffffffffffffffffffffffff1681565b5f604051905090565b5f80fd5b5f80fd5b5f819050919050565b61076381610751565b811461076d575f80fd5b50565b5f8135905061077e8161075a565b92915050565b5f6020828403121561079957610798610749565b5b5f6107a684828501610770565b91505092915050565b6107b881610751565b82525050565b5f6020820190506107d15f8301846107af565b92915050565b5f8115159050919050565b6107eb816107d7565b82525050565b5f6020820190506108045f8301846107e2565b92915050565b5f819050919050565b61081c8161080a565b82525050565b5f6020820190506108355f830184610813565b92915050565b5f60608201905061084e5f8301866107af565b61085b6020830185610813565b61086860408301846107e2565b949350505050565b5f80fd5b5f80fd5b5f601f19601f8301169050919050565b7f4e487b71000000000000000000000000000000000000000000000000000000005f52604160045260245ffd5b6108be82610878565b810181811067ffffffffffffffff821117156108dd576108dc610888565b5b80604052505050565b5f6108ef610740565b90506108fb82826108b5565b919050565b5f67ffffffffffffffff82111561091a57610919610888565b5b61092382610878565b9050602081019050919050565b828183375f83830152505050565b5f61095061094b84610900565b6108e6565b90508281526020810184848401111561096c5761096b610874565b5b610977848285610930565b509392505050565b5f82601f83011261099357610992610870565b5b81356109a384826020860161093e565b91505092915050565b5f80604083850312156109c2576109c1610749565b5b5f83013567ffffffffffffffff8111156109df576109de61074d565b5b6109eb8582860161097f565b925050602083013567ffffffffffffffff811115610a0c57610a0b61074d565b5b610a188582860161097f565b9150509250929050565b5f73ffffffffffffffffffffffffffffffffffffffff82169050919050565b5f610a4b82610a22565b9050919050565b610a5b81610a41565b82525050565b5f602082019050610a745f830184610a52565b92915050565b5f82825260208201905092915050565b7f416c726561647920656e646564000000000000000000000000000000000000005f82015250565b5f610abe600d83610a7a565b9150610ac982610a8a565b602082019050919050565b5f6020820190508181035f830152610aeb81610ab2565b9050919050565b7f416c726561647920636f6d6d69747465640000000000000000000000000000005f82015250565b5f610b26601183610a7a565b9150610b3182610af2565b602082019050919050565b5f6020820190508181035f830152610b5381610b1a565b9050919050565b7f4e6f7420636f6d6d6974746564207965740000000000000000000000000000005f82015250565b5f610b8e601183610a7a565b9150610b9982610b5a565b602082019050919050565b5f6020820190508181035f830152610bbb81610b82565b9050919050565b7f43616e6e6f742072657665616c20696e207468652073616d6520626c6f636b005f82015250565b5f610bf6601f83610a7a565b9150610c0182610bc2565b602082019050919050565b5f6020820190508181035f830152610c2381610bea565b9050919050565b7f416c726561647920636f6d6d697474656420616e642072657665616c656400005f82015250565b5f610c5e601e83610a7a565b9150610c6982610c2a565b602082019050919050565b5f6020820190508181035f830152610c8b81610c52565b9050919050565b5f8160601b9050919050565b5f610ca882610c92565b9050919050565b5f610cb982610c9e565b9050919050565b610cd1610ccc82610a41565b610caf565b82525050565b5f81519050919050565b5f81905092915050565b8281835e5f83830152505050565b5f610d0382610cd7565b610d0d8185610ce1565b9350610d1d818560208601610ceb565b80840191505092915050565b5f610d348286610cc0565b601482019150610d448285610cf9565b9150610d508284610cf9565b9150819050949350505050565b7f4861736820646f65736e2774206d6174636800000000000000000000000000005f82015250565b5f610d91601283610a7a565b9150610d9c82610d5d565b602082019050919050565b5f6020820190508181035f830152610dbe81610d85565b9050919050565b5f610dd08284610cf9565b915081905092915050565b7f496e636f727265637420616e73776572000000000000000000000000000000005f82015250565b5f610e0f601083610a7a565b9150610e1a82610ddb565b602082019050919050565b5f6020820190508181035f830152610e3c81610e03565b9050919050565b5f81905092915050565b50565b5f610e5b5f83610e43565b9150610e6682610e4d565b5f82019050919050565b5f610e7a82610e50565b9150819050919050565b7f4661696c656420746f2073656e642065746865722e00000000000000000000005f82015250565b5f610eb8601583610a7a565b9150610ec382610e84565b602082019050919050565b5f6020820190508181035f830152610ee581610eac565b905091905056fea2646970667358221220af141cc15d316d9e673753d8327431ce0e818d4aa0e08fa70fc1a1d0dc7f09c364736f6c634300081a0033",
			"opcodes": "PUSH1 0x80 PUSH1 0x40 MSTORE PUSH32 0x564CCAF7594D66B1EAAEA24FE01F0585BF52EE70852AF4EAC0CC4B04711CD0E2 PUSH0 SHL PUSH0 SSTORE CALLVALUE PUSH1 0x2 DUP2 SWAP1 SSTORE POP PUSH2 0xF22 DUP1 PUSH2 0x3D PUSH0 CODECOPY PUSH0 RETURN INVALID PUSH1 0x80 PUSH1 0x40 MSTORE CALLVALUE DUP1 ISZERO PUSH2 0xF JUMPI PUSH0 DUP1 REVERT JUMPDEST POP PUSH1 0x4 CALLDATASIZE LT PUSH2 0x7B JUMPI PUSH0 CALLDATALOAD PUSH1 0xE0 SHR DUP1 PUSH4 0x228CB733 GT PUSH2 0x59 JUMPI DUP1 PUSH4 0x228CB733 EQ PUSH2 0xD7 JUMPI DUP1 PUSH4 0x4218400F EQ PUSH2 0xF5 JUMPI DUP1 PUSH4 0x6A8E7A6B EQ PUSH2 0x115 JUMPI DUP1 PUSH4 0xDFBF53AE EQ PUSH2 0x131 JUMPI PUSH2 0x7B JUMP JUMPDEST DUP1 PUSH4 0x6A19384 EQ PUSH2 0x7F JUMPI DUP1 PUSH4 0x9BD5A60 EQ PUSH2 0x9B JUMPI DUP1 PUSH4 0x12FA6FEB EQ PUSH2 0xB9 JUMPI JUMPDEST PUSH0 DUP1 REVERT JUMPDEST PUSH2 0x99 PUSH1 0x4 DUP1 CALLDATASIZE SUB DUP2 ADD SWAP1 PUSH2 0x94 SWAP2 SWAP1 PUSH2 0x784 JUMP JUMPDEST PUSH2 0x14F JUMP JUMPDEST STOP JUMPDEST PUSH2 0xA3 PUSH2 0x254 JUMP JUMPDEST PUSH1 0x40 MLOAD PUSH2 0xB0 SWAP2 SWAP1 PUSH2 0x7BE JUMP JUMPDEST PUSH1 0x40 MLOAD DUP1 SWAP2 SUB SWAP1 RETURN JUMPDEST PUSH2 0xC1 PUSH2 0x259 JUMP JUMPDEST PUSH1 0x40 MLOAD PUSH2 0xCE SWAP2 SWAP1 PUSH2 0x7F1 JUMP JUMPDEST PUSH1 0x40 MLOAD DUP1 SWAP2 SUB SWAP1 RETURN JUMPDEST PUSH2 0xDF PUSH2 0x26B JUMP JUMPDEST PUSH1 0x40 MLOAD PUSH2 0xEC SWAP2 SWAP1 PUSH2 0x822 JUMP JUMPDEST PUSH1 0x40 MLOAD DUP1 SWAP2 SUB SWAP1 RETURN JUMPDEST PUSH2 0xFD PUSH2 0x271 JUMP JUMPDEST PUSH1 0x40 MLOAD PUSH2 0x10C SWAP4 SWAP3 SWAP2 SWAP1 PUSH2 0x83B JUMP JUMPDEST PUSH1 0x40 MLOAD DUP1 SWAP2 SUB SWAP1 RETURN JUMPDEST PUSH2 0x12F PUSH1 0x4 DUP1 CALLDATASIZE SUB DUP2 ADD SWAP1 PUSH2 0x12A SWAP2 SWAP1 PUSH2 0x9AC JUMP JUMPDEST PUSH2 0x36F JUMP JUMPDEST STOP JUMPDEST PUSH2 0x139 PUSH2 0x71B JUMP JUMPDEST PUSH1 0x40 MLOAD PUSH2 0x146 SWAP2 SWAP1 PUSH2 0xA61 JUMP JUMPDEST PUSH1 0x40 MLOAD DUP1 SWAP2 SUB SWAP1 RETURN JUMPDEST PUSH1 0x3 PUSH0 SWAP1 SLOAD SWAP1 PUSH2 0x100 EXP SWAP1 DIV PUSH1 0xFF AND ISZERO PUSH2 0x19E JUMPI PUSH1 0x40 MLOAD PUSH32 0x8C379A000000000000000000000000000000000000000000000000000000000 DUP2 MSTORE PUSH1 0x4 ADD PUSH2 0x195 SWAP1 PUSH2 0xAD4 JUMP JUMPDEST PUSH1 0x40 MLOAD DUP1 SWAP2 SUB SWAP1 REVERT JUMPDEST PUSH0 PUSH1 0x4 PUSH0 CALLER PUSH20 0xFFFFFFFFFFFFFFFFFFFFFFFFFFFFFFFFFFFFFFFF AND PUSH20 0xFFFFFFFFFFFFFFFFFFFFFFFFFFFFFFFFFFFFFFFF AND DUP2 MSTORE PUSH1 0x20 ADD SWAP1 DUP2 MSTORE PUSH1 0x20 ADD PUSH0 KECCAK256 SWAP1 POP PUSH0 DUP2 PUSH1 0x1 ADD SLOAD EQ PUSH2 0x224 JUMPI PUSH1 0x40 MLOAD PUSH32 0x8C379A000000000000000000000000000000000000000000000000000000000 DUP2 MSTORE PUSH1 0x4 ADD PUSH2 0x21B SWAP1 PUSH2 0xB3C JUMP JUMPDEST PUSH1 0x40 MLOAD DUP1 SWAP2 SUB SWAP1 REVERT JUMPDEST DUP2 DUP2 PUSH0 ADD DUP2 SWAP1 SSTORE POP TIMESTAMP DUP2 PUSH1 0x1 ADD DUP2 SWAP1 SSTORE POP PUSH0 DUP2 PUSH1 0x2 ADD PUSH0 PUSH2 0x100 EXP DUP2 SLOAD DUP2 PUSH1 0xFF MUL NOT AND SWAP1 DUP4 ISZERO ISZERO MUL OR SWAP1 SSTORE POP POP POP JUMP JUMPDEST PUSH0 SLOAD DUP2 JUMP JUMPDEST PUSH1 0x3 PUSH0 SWAP1 SLOAD SWAP1 PUSH2 0x100 EXP SWAP1 DIV PUSH1 0xFF AND DUP2 JUMP JUMPDEST PUSH1 0x2 SLOAD DUP2 JUMP JUMPDEST PUSH0 DUP1 PUSH0 PUSH1 0x3 PUSH0 SWAP1 SLOAD SWAP1 PUSH2 0x100 EXP SWAP1 DIV PUSH1 0xFF AND ISZERO PUSH2 0x2C3 JUMPI PUSH1 0x40 MLOAD PUSH32 0x8C379A000000000000000000000000000000000000000000000000000000000 DUP2 MSTORE PUSH1 0x4 ADD PUSH2 0x2BA SWAP1 PUSH2 0xAD4 JUMP JUMPDEST PUSH1 0x40 MLOAD DUP1 SWAP2 SUB SWAP1 REVERT JUMPDEST PUSH0 PUSH1 0x4 PUSH0 CALLER PUSH20 0xFFFFFFFFFFFFFFFFFFFFFFFFFFFFFFFFFFFFFFFF AND PUSH20 0xFFFFFFFFFFFFFFFFFFFFFFFFFFFFFFFFFFFFFFFF AND DUP2 MSTORE PUSH1 0x20 ADD SWAP1 DUP2 MSTORE PUSH1 0x20 ADD PUSH0 KECCAK256 SWAP1 POP PUSH0 DUP2 PUSH1 0x1 ADD SLOAD SUB PUSH2 0x349 JUMPI PUSH1 0x40 MLOAD PUSH32 0x8C379A000000000000000000000000000000000000000000000000000000000 DUP2 MSTORE PUSH1 0x4 ADD PUSH2 0x340 SWAP1 PUSH2 0xBA4 JUMP JUMPDEST PUSH1 0x40 MLOAD DUP1 SWAP2 SUB SWAP1 REVERT JUMPDEST DUP1 PUSH0 ADD SLOAD DUP2 PUSH1 0x1 ADD SLOAD DUP3 PUSH1 0x2 ADD PUSH0 SWAP1 SLOAD SWAP1 PUSH2 0x100 EXP SWAP1 DIV PUSH1 0xFF AND SWAP4 POP SWAP4 POP SWAP4 POP POP SWAP1 SWAP2 SWAP3 JUMP JUMPDEST PUSH1 0x3 PUSH0 SWAP1 SLOAD SWAP1 PUSH2 0x100 EXP SWAP1 DIV PUSH1 0xFF AND ISZERO PUSH2 0x3BE JUMPI PUSH1 0x40 MLOAD PUSH32 0x8C379A000000000000000000000000000000000000000000000000000000000 DUP2 MSTORE PUSH1 0x4 ADD PUSH2 0x3B5 SWAP1 PUSH2 0xAD4 JUMP JUMPDEST PUSH1 0x40 MLOAD DUP1 SWAP2 SUB SWAP1 REVERT JUMPDEST PUSH0 PUSH1 0x4 PUSH0 CALLER PUSH20 0xFFFFFFFFFFFFFFFFFFFFFFFFFFFFFFFFFFFFFFFF AND PUSH20 0xFFFFFFFFFFFFFFFFFFFFFFFFFFFFFFFFFFFFFFFF AND DUP2 MSTORE PUSH1 0x20 ADD SWAP1 DUP2 MSTORE PUSH1 0x20 ADD PUSH0 KECCAK256 SWAP1 POP PUSH0 DUP2 PUSH1 0x1 ADD SLOAD SUB PUSH2 0x444 JUMPI PUSH1 0x40 MLOAD PUSH32 0x8C379A000000000000000000000000000000000000000000000000000000000 DUP2 MSTORE PUSH1 0x4 ADD PUSH2 0x43B SWAP1 PUSH2 0xBA4 JUMP JUMPDEST PUSH1 0x40 MLOAD DUP1 SWAP2 SUB SWAP1 REVERT JUMPDEST TIMESTAMP DUP2 PUSH1 0x1 ADD SLOAD LT PUSH2 0x48A JUMPI PUSH1 0x40 MLOAD PUSH32 0x8C379A000000000000000000000000000000000000000000000000000000000 DUP2 MSTORE PUSH1 0x4 ADD PUSH2 0x481 SWAP1 PUSH2 0xC0C JUMP JUMPDEST PUSH1 0x40 MLOAD DUP1 SWAP2 SUB SWAP1 REVERT JUMPDEST DUP1 PUSH1 0x2 ADD PUSH0 SWAP1 SLOAD SWAP1 PUSH2 0x100 EXP SWAP1 DIV PUSH1 0xFF AND ISZERO PUSH2 0x4DB JUMPI PUSH1 0x40 MLOAD PUSH32 0x8C379A000000000000000000000000000000000000000000000000000000000 DUP2 MSTORE PUSH1 0x4 ADD PUSH2 0x4D2 SWAP1 PUSH2 0xC74 JUMP JUMPDEST PUSH1 0x40 MLOAD DUP1 SWAP2 SUB SWAP1 REVERT JUMPDEST PUSH0 CALLER DUP5 DUP5 PUSH1 0x40 MLOAD PUSH1 0x20 ADD PUSH2 0x4F1 SWAP4 SWAP3 SWAP2 SWAP1 PUSH2 0xD29 JUMP JUMPDEST PUSH1 0x40 MLOAD PUSH1 0x20 DUP2 DUP4 SUB SUB DUP2 MSTORE SWAP1 PUSH1 0x40 MSTORE DUP1 MLOAD SWAP1 PUSH1 0x20 ADD KECCAK256 SWAP1 POP DUP2 PUSH0 ADD SLOAD DUP2 EQ PUSH2 0x54E JUMPI PUSH1 0x40 MLOAD PUSH32 0x8C379A000000000000000000000000000000000000000000000000000000000 DUP2 MSTORE PUSH1 0x4 ADD PUSH2 0x545 SWAP1 PUSH2 0xDA7 JUMP JUMPDEST PUSH1 0x40 MLOAD DUP1 SWAP2 SUB SWAP1 REVERT JUMPDEST PUSH0 SLOAD DUP5 PUSH1 0x40 MLOAD PUSH1 0x20 ADD PUSH2 0x561 SWAP2 SWAP1 PUSH2 0xDC5 JUMP JUMPDEST PUSH1 0x40 MLOAD PUSH1 0x20 DUP2 DUP4 SUB SUB DUP2 MSTORE SWAP1 PUSH1 0x40 MSTORE DUP1 MLOAD SWAP1 PUSH1 0x20 ADD KECCAK256 EQ PUSH2 0x5B7 JUMPI PUSH1 0x40 MLOAD PUSH32 0x8C379A000000000000000000000000000000000000000000000000000000000 DUP2 MSTORE PUSH1 0x4 ADD PUSH2 0x5AE SWAP1 PUSH2 0xE25 JUMP JUMPDEST PUSH1 0x40 MLOAD DUP1 SWAP2 SUB SWAP1 REVERT JUMPDEST CALLER PUSH1 0x1 PUSH0 PUSH2 0x100 EXP DUP2 SLOAD DUP2 PUSH20 0xFFFFFFFFFFFFFFFFFFFFFFFFFFFFFFFFFFFFFFFF MUL NOT AND SWAP1 DUP4 PUSH20 0xFFFFFFFFFFFFFFFFFFFFFFFFFFFFFFFFFFFFFFFF AND MUL OR SWAP1 SSTORE POP PUSH1 0x1 PUSH1 0x3 PUSH0 PUSH2 0x100 EXP DUP2 SLOAD DUP2 PUSH1 0xFF MUL NOT AND SWAP1 DUP4 ISZERO ISZERO MUL OR SWAP1 SSTORE POP PUSH0 CALLER PUSH20 0xFFFFFFFFFFFFFFFFFFFFFFFFFFFFFFFFFFFFFFFF AND PUSH1 0x2 SLOAD PUSH1 0x40 MLOAD PUSH2 0x638 SWAP1 PUSH2 0xE70 JUMP JUMPDEST PUSH0 PUSH1 0x40 MLOAD DUP1 DUP4 SUB DUP2 DUP6 DUP8 GAS CALL SWAP3 POP POP POP RETURNDATASIZE DUP1 PUSH0 DUP2 EQ PUSH2 0x672 JUMPI PUSH1 0x40 MLOAD SWAP2 POP PUSH1 0x1F NOT PUSH1 0x3F RETURNDATASIZE ADD AND DUP3 ADD PUSH1 0x40 MSTORE RETURNDATASIZE DUP3 MSTORE RETURNDATASIZE PUSH0 PUSH1 0x20 DUP5 ADD RETURNDATACOPY PUSH2 0x677 JUMP JUMPDEST PUSH1 0x60 SWAP2 POP JUMPDEST POP POP SWAP1 POP DUP1 PUSH2 0x714 JUMPI PUSH0 PUSH1 0x1 PUSH0 PUSH2 0x100 EXP DUP2 SLOAD DUP2 PUSH20 0xFFFFFFFFFFFFFFFFFFFFFFFFFFFFFFFFFFFFFFFF MUL NOT AND SWAP1 DUP4 PUSH20 0xFFFFFFFFFFFFFFFFFFFFFFFFFFFFFFFFFFFFFFFF AND MUL OR SWAP1 SSTORE POP PUSH0 PUSH1 0x3 PUSH0 PUSH2 0x100 EXP DUP2 SLOAD DUP2 PUSH1 0xFF MUL NOT AND SWAP1 DUP4 ISZERO ISZERO MUL OR SWAP1 SSTORE POP PUSH1 0x40 MLOAD PUSH32 0x8C379A000000000000000000000000000000000000000000000000000000000 DUP2 MSTORE PUSH1 0x4 ADD PUSH2 0x70B SWAP1 PUSH2 0xECE JUMP JUMPDEST PUSH1 0x40 MLOAD DUP1 SWAP2 SUB SWAP1 REVERT JUMPDEST POP POP POP POP POP JUMP JUMPDEST PUSH1 0x1 PUSH0 SWAP1 SLOAD SWAP1 PUSH2 0x100 EXP SWAP1 DIV PUSH20 0xFFFFFFFFFFFFFFFFFFFFFFFFFFFFFFFFFFFFFFFF AND DUP2 JUMP JUMPDEST PUSH0 PUSH1 0x40 MLOAD SWAP1 POP SWAP1 JUMP JUMPDEST PUSH0 DUP1 REVERT JUMPDEST PUSH0 DUP1 REVERT JUMPDEST PUSH0 DUP2 SWAP1 POP SWAP2 SWAP1 POP JUMP JUMPDEST PUSH2 0x763 DUP2 PUSH2 0x751 JUMP JUMPDEST DUP2 EQ PUSH2 0x76D JUMPI PUSH0 DUP1 REVERT JUMPDEST POP JUMP JUMPDEST PUSH0 DUP2 CALLDATALOAD SWAP1 POP PUSH2 0x77E DUP2 PUSH2 0x75A JUMP JUMPDEST SWAP3 SWAP2 POP POP JUMP JUMPDEST PUSH0 PUSH1 0x20 DUP3 DUP5 SUB SLT ISZERO PUSH2 0x799 JUMPI PUSH2 0x798 PUSH2 0x749 JUMP JUMPDEST JUMPDEST PUSH0 PUSH2 0x7A6 DUP5 DUP3 DUP6 ADD PUSH2 0x770 JUMP JUMPDEST SWAP2 POP POP SWAP3 SWAP2 POP POP JUMP JUMPDEST PUSH2 0x7B8 DUP2 PUSH2 0x751 JUMP JUMPDEST DUP3 MSTORE POP POP JUMP JUMPDEST PUSH0 PUSH1 0x20 DUP3 ADD SWAP1 POP PUSH2 0x7D1 PUSH0 DUP4 ADD DUP5 PUSH2 0x7AF JUMP JUMPDEST SWAP3 SWAP2 POP POP JUMP JUMPDEST PUSH0 DUP2 ISZERO ISZERO SWAP1 POP SWAP2 SWAP1 POP JUMP JUMPDEST PUSH2 0x7EB DUP2 PUSH2 0x7D7 JUMP JUMPDEST DUP3 MSTORE POP POP JUMP JUMPDEST PUSH0 PUSH1 0x20 DUP3 ADD SWAP1 POP PUSH2 0x804 PUSH0 DUP4 ADD DUP5 PUSH2 0x7E2 JUMP JUMPDEST SWAP3 SWAP2 POP POP JUMP JUMPDEST PUSH0 DUP2 SWAP1 POP SWAP2 SWAP1 POP JUMP JUMPDEST PUSH2 0x81C DUP2 PUSH2 0x80A JUMP JUMPDEST DUP3 MSTORE POP POP JUMP JUMPDEST PUSH0 PUSH1 0x20 DUP3 ADD SWAP1 POP PUSH2 0x835 PUSH0 DUP4 ADD DUP5 PUSH2 0x813 JUMP JUMPDEST SWAP3 SWAP2 POP POP JUMP JUMPDEST PUSH0 PUSH1 0x60 DUP3 ADD SWAP1 POP PUSH2 0x84E PUSH0 DUP4 ADD DUP7 PUSH2 0x7AF JUMP JUMPDEST PUSH2 0x85B PUSH1 0x20 DUP4 ADD DUP6 PUSH2 0x813 JUMP JUMPDEST PUSH2 0x868 PUSH1 0x40 DUP4 ADD DUP5 PUSH2 0x7E2 JUMP JUMPDEST SWAP5 SWAP4 POP POP POP POP JUMP JUMPDEST PUSH0 DUP1 REVERT JUMPDEST PUSH0 DUP1 REVERT JUMPDEST PUSH0 PUSH1 0x1F NOT PUSH1 0x1F DUP4 ADD AND SWAP1 POP SWAP2 SWAP1 POP JUMP JUMPDEST PUSH32 0x4E487B7100000000000000000000000000000000000000000000000000000000 PUSH0 MSTORE PUSH1 0x41 PUSH1 0x4 MSTORE PUSH1 0x24 PUSH0 REVERT JUMPDEST PUSH2 0x8BE DUP3 PUSH2 0x878 JUMP JUMPDEST DUP2 ADD DUP2 DUP2 LT PUSH8 0xFFFFFFFFFFFFFFFF DUP3 GT OR ISZERO PUSH2 0x8DD JUMPI PUSH2 0x8DC PUSH2 0x888 JUMP JUMPDEST JUMPDEST DUP1 PUSH1 0x40 MSTORE POP POP POP JUMP JUMPDEST PUSH0 PUSH2 0x8EF PUSH2 0x740 JUMP JUMPDEST SWAP1 POP PUSH2 0x8FB DUP3 DUP3 PUSH2 0x8B5 JUMP JUMPDEST SWAP2 SWAP1 POP JUMP JUMPDEST PUSH0 PUSH8 0xFFFFFFFFFFFFFFFF DUP3 GT ISZERO PUSH2 0x91A JUMPI PUSH2 0x919 PUSH2 0x888 JUMP JUMPDEST JUMPDEST PUSH2 0x923 DUP3 PUSH2 0x878 JUMP JUMPDEST SWAP1 POP PUSH1 0x20 DUP2 ADD SWAP1 POP SWAP2 SWAP1 POP JUMP JUMPDEST DUP3 DUP2 DUP4 CALLDATACOPY PUSH0 DUP4 DUP4 ADD MSTORE POP POP POP JUMP JUMPDEST PUSH0 PUSH2 0x950 PUSH2 0x94B DUP5 PUSH2 0x900 JUMP JUMPDEST PUSH2 0x8E6 JUMP JUMPDEST SWAP1 POP DUP3 DUP2 MSTORE PUSH1 0x20 DUP2 ADD DUP5 DUP5 DUP5 ADD GT ISZERO PUSH2 0x96C JUMPI PUSH2 0x96B PUSH2 0x874 JUMP JUMPDEST JUMPDEST PUSH2 0x977 DUP5 DUP3 DUP6 PUSH2 0x930 JUMP JUMPDEST POP SWAP4 SWAP3 POP POP POP JUMP JUMPDEST PUSH0 DUP3 PUSH1 0x1F DUP4 ADD SLT PUSH2 0x993 JUMPI PUSH2 0x992 PUSH2 0x870 JUMP JUMPDEST JUMPDEST DUP2 CALLDATALOAD PUSH2 0x9A3 DUP5 DUP3 PUSH1 0x20 DUP7 ADD PUSH2 0x93E JUMP JUMPDEST SWAP2 POP POP SWAP3 SWAP2 POP POP JUMP JUMPDEST PUSH0 DUP1 PUSH1 0x40 DUP4 DUP6 SUB SLT ISZERO PUSH2 0x9C2 JUMPI PUSH2 0x9C1 PUSH2 0x749 JUMP JUMPDEST JUMPDEST PUSH0 DUP4 ADD CALLDATALOAD PUSH8 0xFFFFFFFFFFFFFFFF DUP2 GT ISZERO PUSH2 0x9DF JUMPI PUSH2 0x9DE PUSH2 0x74D JUMP JUMPDEST JUMPDEST PUSH2 0x9EB DUP6 DUP3 DUP7 ADD PUSH2 0x97F JUMP JUMPDEST SWAP3 POP POP PUSH1 0x20 DUP4 ADD CALLDATALOAD PUSH8 0xFFFFFFFFFFFFFFFF DUP2 GT ISZERO PUSH2 0xA0C JUMPI PUSH2 0xA0B PUSH2 0x74D JUMP JUMPDEST JUMPDEST PUSH2 0xA18 DUP6 DUP3 DUP7 ADD PUSH2 0x97F JUMP JUMPDEST SWAP2 POP POP SWAP3 POP SWAP3 SWAP1 POP JUMP JUMPDEST PUSH0 PUSH20 0xFFFFFFFFFFFFFFFFFFFFFFFFFFFFFFFFFFFFFFFF DUP3 AND SWAP1 POP SWAP2 SWAP1 POP JUMP JUMPDEST PUSH0 PUSH2 0xA4B DUP3 PUSH2 0xA22 JUMP JUMPDEST SWAP1 POP SWAP2 SWAP1 POP JUMP JUMPDEST PUSH2 0xA5B DUP2 PUSH2 0xA41 JUMP JUMPDEST DUP3 MSTORE POP POP JUMP JUMPDEST PUSH0 PUSH1 0x20 DUP3 ADD SWAP1 POP PUSH2 0xA74 PUSH0 DUP4 ADD DUP5 PUSH2 0xA52 JUMP JUMPDEST SWAP3 SWAP2 POP POP JUMP JUMPDEST PUSH0 DUP3 DUP3 MSTORE PUSH1 0x20 DUP3 ADD SWAP1 POP SWAP3 SWAP2 POP POP JUMP JUMPDEST PUSH32 0x416C726561647920656E64656400000000000000000000000000000000000000 PUSH0 DUP3 ADD MSTORE POP JUMP JUMPDEST PUSH0 PUSH2 0xABE PUSH1 0xD DUP4 PUSH2 0xA7A JUMP JUMPDEST SWAP2 POP PUSH2 0xAC9 DUP3 PUSH2 0xA8A JUMP JUMPDEST PUSH1 0x20 DUP3 ADD SWAP1 POP SWAP2 SWAP1 POP JUMP JUMPDEST PUSH0 PUSH1 0x20 DUP3 ADD SWAP1 POP DUP2 DUP2 SUB PUSH0 DUP4 ADD MSTORE PUSH2 0xAEB DUP2 PUSH2 0xAB2 JUMP JUMPDEST SWAP1 POP SWAP2 SWAP1 POP JUMP JUMPDEST PUSH32 0x416C726561647920636F6D6D6974746564000000000000000000000000000000 PUSH0 DUP3 ADD MSTORE POP JUMP JUMPDEST PUSH0 PUSH2 0xB26 PUSH1 0x11 DUP4 PUSH2 0xA7A JUMP JUMPDEST SWAP2 POP PUSH2 0xB31 DUP3 PUSH2 0xAF2 JUMP JUMPDEST PUSH1 0x20 DUP3 ADD SWAP1 POP SWAP2 SWAP1 POP JUMP JUMPDEST PUSH0 PUSH1 0x20 DUP3 ADD SWAP1 POP DUP2 DUP2 SUB PUSH0 DUP4 ADD MSTORE PUSH2 0xB53 DUP2 PUSH2 0xB1A JUMP JUMPDEST SWAP1 POP SWAP2 SWAP1 POP JUMP JUMPDEST PUSH32 0x4E6F7420636F6D6D697474656420796574000000000000000000000000000000 PUSH0 DUP3 ADD MSTORE POP JUMP JUMPDEST PUSH0 PUSH2 0xB8E PUSH1 0x11 DUP4 PUSH2 0xA7A JUMP JUMPDEST SWAP2 POP PUSH2 0xB99 DUP3 PUSH2 0xB5A JUMP JUMPDEST PUSH1 0x20 DUP3 ADD SWAP1 POP SWAP2 SWAP1 POP JUMP JUMPDEST PUSH0 PUSH1 0x20 DUP3 ADD SWAP1 POP DUP2 DUP2 SUB PUSH0 DUP4 ADD MSTORE PUSH2 0xBBB DUP2 PUSH2 0xB82 JUMP JUMPDEST SWAP1 POP SWAP2 SWAP1 POP JUMP JUMPDEST PUSH32 0x43616E6E6F742072657665616C20696E207468652073616D6520626C6F636B00 PUSH0 DUP3 ADD MSTORE POP JUMP JUMPDEST PUSH0 PUSH2 0xBF6 PUSH1 0x1F DUP4 PUSH2 0xA7A JUMP JUMPDEST SWAP2 POP PUSH2 0xC01 DUP3 PUSH2 0xBC2 JUMP JUMPDEST PUSH1 0x20 DUP3 ADD SWAP1 POP SWAP2 SWAP1 POP JUMP JUMPDEST PUSH0 PUSH1 0x20 DUP3 ADD SWAP1 POP DUP2 DUP2 SUB PUSH0 DUP4 ADD MSTORE PUSH2 0xC23 DUP2 PUSH2 0xBEA JUMP JUMPDEST SWAP1 POP SWAP2 SWAP1 POP JUMP JUMPDEST PUSH32 0x416C726561647920636F6D6D697474656420616E642072657665616C65640000 PUSH0 DUP3 ADD MSTORE POP JUMP JUMPDEST PUSH0 PUSH2 0xC5E PUSH1 0x1E DUP4 PUSH2 0xA7A JUMP JUMPDEST SWAP2 POP PUSH2 0xC69 DUP3 PUSH2 0xC2A JUMP JUMPDEST PUSH1 0x20 DUP3 ADD SWAP1 POP SWAP2 SWAP1 POP JUMP JUMPDEST PUSH0 PUSH1 0x20 DUP3 ADD SWAP1 POP DUP2 DUP2 SUB PUSH0 DUP4 ADD MSTORE PUSH2 0xC8B DUP2 PUSH2 0xC52 JUMP JUMPDEST SWAP1 POP SWAP2 SWAP1 POP JUMP JUMPDEST PUSH0 DUP2 PUSH1 0x60 SHL SWAP1 POP SWAP2 SWAP1 POP JUMP JUMPDEST PUSH0 PUSH2 0xCA8 DUP3 PUSH2 0xC92 JUMP JUMPDEST SWAP1 POP SWAP2 SWAP1 POP JUMP JUMPDEST PUSH0 PUSH2 0xCB9 DUP3 PUSH2 0xC9E JUMP JUMPDEST SWAP1 POP SWAP2 SWAP1 POP JUMP JUMPDEST PUSH2 0xCD1 PUSH2 0xCCC DUP3 PUSH2 0xA41 JUMP JUMPDEST PUSH2 0xCAF JUMP JUMPDEST DUP3 MSTORE POP POP JUMP JUMPDEST PUSH0 DUP2 MLOAD SWAP1 POP SWAP2 SWAP1 POP JUMP JUMPDEST PUSH0 DUP2 SWAP1 POP SWAP3 SWAP2 POP POP JUMP JUMPDEST DUP3 DUP2 DUP4 MCOPY PUSH0 DUP4 DUP4 ADD MSTORE POP POP POP JUMP JUMPDEST PUSH0 PUSH2 0xD03 DUP3 PUSH2 0xCD7 JUMP JUMPDEST PUSH2 0xD0D DUP2 DUP6 PUSH2 0xCE1 JUMP JUMPDEST SWAP4 POP PUSH2 0xD1D DUP2 DUP6 PUSH1 0x20 DUP7 ADD PUSH2 0xCEB JUMP JUMPDEST DUP1 DUP5 ADD SWAP2 POP POP SWAP3 SWAP2 POP POP JUMP JUMPDEST PUSH0 PUSH2 0xD34 DUP3 DUP7 PUSH2 0xCC0 JUMP JUMPDEST PUSH1 0x14 DUP3 ADD SWAP2 POP PUSH2 0xD44 DUP3 DUP6 PUSH2 0xCF9 JUMP JUMPDEST SWAP2 POP PUSH2 0xD50 DUP3 DUP5 PUSH2 0xCF9 JUMP JUMPDEST SWAP2 POP DUP2 SWAP1 POP SWAP5 SWAP4 POP POP POP POP JUMP JUMPDEST PUSH32 0x4861736820646F65736E2774206D617463680000000000000000000000000000 PUSH0 DUP3 ADD MSTORE POP JUMP JUMPDEST PUSH0 PUSH2 0xD91 PUSH1 0x12 DUP4 PUSH2 0xA7A JUMP JUMPDEST SWAP2 POP PUSH2 0xD9C DUP3 PUSH2 0xD5D JUMP JUMPDEST PUSH1 0x20 DUP3 ADD SWAP1 POP SWAP2 SWAP1 POP JUMP JUMPDEST PUSH0 PUSH1 0x20 DUP3 ADD SWAP1 POP DUP2 DUP2 SUB PUSH0 DUP4 ADD MSTORE PUSH2 0xDBE DUP2 PUSH2 0xD85 JUMP JUMPDEST SWAP1 POP SWAP2 SWAP1 POP JUMP JUMPDEST PUSH0 PUSH2 0xDD0 DUP3 DUP5 PUSH2 0xCF9 JUMP JUMPDEST SWAP2 POP DUP2 SWAP1 POP SWAP3 SWAP2 POP POP JUMP JUMPDEST PUSH32 0x496E636F727265637420616E7377657200000000000000000000000000000000 PUSH0 DUP3 ADD MSTORE POP JUMP JUMPDEST PUSH0 PUSH2 0xE0F PUSH1 0x10 DUP4 PUSH2 0xA7A JUMP JUMPDEST SWAP2 POP PUSH2 0xE1A DUP3 PUSH2 0xDDB JUMP JUMPDEST PUSH1 0x20 DUP3 ADD SWAP1 POP SWAP2 SWAP1 POP JUMP JUMPDEST PUSH0 PUSH1 0x20 DUP3 ADD SWAP1 POP DUP2 DUP2 SUB PUSH0 DUP4 ADD MSTORE PUSH2 0xE3C DUP2 PUSH2 0xE03 JUMP JUMPDEST SWAP1 POP SWAP2 SWAP1 POP JUMP JUMPDEST PUSH0 DUP2 SWAP1 POP SWAP3 SWAP2 POP POP JUMP JUMPDEST POP JUMP JUMPDEST PUSH0 PUSH2 0xE5B PUSH0 DUP4 PUSH2 0xE43 JUMP JUMPDEST SWAP2 POP PUSH2 0xE66 DUP3 PUSH2 0xE4D JUMP JUMPDEST PUSH0 DUP3 ADD SWAP1 POP SWAP2 SWAP1 POP JUMP JUMPDEST PUSH0 PUSH2 0xE7A DUP3 PUSH2 0xE50 JUMP JUMPDEST SWAP2 POP DUP2 SWAP1 POP SWAP2 SWAP1 POP JUMP JUMPDEST PUSH32 0x4661696C656420746F2073656E642065746865722E0000000000000000000000 PUSH0 DUP3 ADD MSTORE POP JUMP JUMPDEST PUSH0 PUSH2 0xEB8 PUSH1 0x15 DUP4 PUSH2 0xA7A JUMP JUMPDEST SWAP2 POP PUSH2 0xEC3 DUP3 PUSH2 0xE84 JUMP JUMPDEST PUSH1 0x20 DUP3 ADD SWAP1 POP SWAP2 SWAP1 POP JUMP JUMPDEST PUSH0 PUSH1 0x20 DUP3 ADD SWAP1 POP DUP2 DUP2 SUB PUSH0 DUP4 ADD MSTORE PUSH2 0xEE5 DUP2 PUSH2 0xEAC JUMP JUMPDEST SWAP1 POP SWAP2 SWAP1 POP JUMP INVALID LOG2 PUSH5 0x6970667358 0x22 SLT KECCAK256 0xAF EQ SHR 0xC1 TSTORE BALANCE PUSH14 0x9E673753D8327431CE0E818D4AA0 0xE0 DUP16 0xA7 0xF 0xC1 LOG1 0xD0 0xDC PUSH32 0x9C364736F6C634300081A003300000000000000000000000000000000000000 "
		},
		"gasEstimates": {
			"creation": {
				"codeDepositCost": "774800",
				"executionCost": "45009",
				"totalCost": "819809"
			},
			"external": {
				"commitSolution(bytes32)": "73293",
				"ended()": "2511",
				"getMySolution()": "11319",
				"hash()": "2447",
				"revealSolution(string,string)": "infinite",
				"reward()": "2425",
				"winner()": "2574"
			}
		},
		"methodIdentifiers": {
			"commitSolution(bytes32)": "06a19384",
			"ended()": "12fa6feb",
			"getMySolution()": "4218400f",
			"hash()": "09bd5a60",
			"revealSolution(string,string)": "6a8e7a6b",
			"reward()": "228cb733",
			"winner()": "dfbf53ae"
		}
	},
	"abi": [
		{
			"inputs": [],
			"stateMutability": "payable",
			"type": "constructor"
		},
		{
			"inputs": [
				{
					"internalType": "bytes32",
					"name": "_solutionHash",
					"type": "bytes32"
				}
			],
			"name": "commitSolution",
			"outputs": [],
			"stateMutability": "nonpayable",
			"type": "function"
		},
		{
			"inputs": [],
			"name": "ended",
			"outputs": [
				{
					"internalType": "bool",
					"name": "",
					"type": "bool"
				}
			],
			"stateMutability": "view",
			"type": "function"
		},
		{
			"inputs": [],
			"name": "getMySolution",
			"outputs": [
				{
					"internalType": "bytes32",
					"name": "",
					"type": "bytes32"
				},
				{
					"internalType": "uint256",
					"name": "",
					"type": "uint256"
				},
				{
					"internalType": "bool",
					"name": "",
					"type": "bool"
				}
			],
			"stateMutability": "view",
			"type": "function"
		},
		{
			"inputs": [],
			"name": "hash",
			"outputs": [
				{
					"internalType": "bytes32",
					"name": "",
					"type": "bytes32"
				}
			],
			"stateMutability": "view",
			"type": "function"
		},
		{
			"inputs": [
				{
					"internalType": "string",
					"name": "_solution",
					"type": "string"
				},
				{
					"internalType": "string",
					"name": "_secret",
					"type": "string"
				}
			],
			"name": "revealSolution",
			"outputs": [],
			"stateMutability": "nonpayable",
			"type": "function"
		},
		{
			"inputs": [],
			"name": "reward",
			"outputs": [
				{
					"internalType": "uint256",
					"name": "",
					"type": "uint256"
				}
			],
			"stateMutability": "view",
			"type": "function"
		},
		{
			"inputs": [],
			"name": "winner",
			"outputs": [
				{
					"internalType": "address",
					"name": "",
					"type": "address"
				}
			],
			"stateMutability": "view",
			"type": "function"
		}
	]
}