{
	"data": {
		"bytecode": {
			"linkReferences": {},
			"object": "6080604052607b5f553360015f6101000a81548173ffffffffffffffffffffffffffffffffffffffff021916908373ffffffffffffffffffffffffffffffffffffffff16021790555060018060146101000a81548160ff021916908315150217905550601f600160156101000a81548161ffff021916908361ffff16021790555034801561008b575f5ffd5b5060405161080d38038061080d83398181016040528101906100ad91906100f1565b806002819055505061011c565b5f5ffd5b5f819050919050565b6100d0816100be565b81146100da575f5ffd5b50565b5f815190506100eb816100c7565b92915050565b5f60208284031215610106576101056100ba565b5b5f610113848285016100dd565b91505092915050565b6106e4806101295f395ff3fe608060405234801561000f575f5ffd5b5060043610610090575f3560e01c8063881374d711610064578063881374d71461010c5780638da5cb5b1461013c5780638faf850d1461015a578063992ddc6f14610176578063f0ba8440146101a657610090565b806274530a1461009457806306661abd146100b25780630a6b4e06146100d057806359d168b6146100ee575b5f5ffd5b61009c6101d6565b6040516100a99190610364565b60405180910390f35b6100ba6101e9565b6040516100c79190610395565b60405180910390f35b6100d86101ee565b6040516100e591906103ca565b60405180910390f35b6100f6610202565b6040516101039190610395565b60405180910390f35b61012660048036038101906101219190610411565b610207565b6040516101339190610395565b60405180910390f35b61014461023b565b604051610151919061048e565b60405180910390f35b610174600480360381019061016f91906104da565b610260565b005b610190600480360381019061018b9190610505565b6102e8565b60405161019d9190610395565b60405180910390f35b6101c060048036038101906101bb9190610555565b610331565b6040516101cd919061058f565b60405180910390f35b600160149054906101000a900460ff1681565b5f5481565b600160159054906101000a900461ffff1681565b607b81565b5f818360405160200161021b9291906105c8565b604051602081830303815290604052805190602001205f1c905092915050565b60015f9054906101000a900473ffffffffffffffffffffffffffffffffffffffff1681565b5f60405180604001604052806006805490508152602001838152509050600681908060018154018082558091505060019003905f5260205f2090600202015f909190919091505f820151815f01556020820151816001015550508060075f835f015181526020019081526020015f205f820151815f0155602082015181600101559050505050565b5f81836102f59190610620565b846040516020016103069190610661565b604051602081830303815290604052805190602001205f1c610328919061067b565b90509392505050565b60038160038110610340575f80fd5b015f915090505481565b5f8115159050919050565b61035e8161034a565b82525050565b5f6020820190506103775f830184610355565b92915050565b5f819050919050565b61038f8161037d565b82525050565b5f6020820190506103a85f830184610386565b92915050565b5f61ffff82169050919050565b6103c4816103ae565b82525050565b5f6020820190506103dd5f8301846103bb565b92915050565b5f5ffd5b6103f08161037d565b81146103fa575f5ffd5b50565b5f8135905061040b816103e7565b92915050565b5f5f60408385031215610427576104266103e3565b5b5f610434858286016103fd565b9250506020610445858286016103fd565b9150509250929050565b5f73ffffffffffffffffffffffffffffffffffffffff82169050919050565b5f6104788261044f565b9050919050565b6104888161046e565b82525050565b5f6020820190506104a15f83018461047f565b92915050565b5f819050919050565b6104b9816104a7565b81146104c3575f5ffd5b50565b5f813590506104d4816104b0565b92915050565b5f602082840312156104ef576104ee6103e3565b5b5f6104fc848285016104c6565b91505092915050565b5f5f5f6060848603121561051c5761051b6103e3565b5b5f610529868287016103fd565b935050602061053a868287016103fd565b925050604061054b868287016103fd565b9150509250925092565b5f6020828403121561056a576105696103e3565b5b5f610577848285016103fd565b91505092915050565b610589816104a7565b82525050565b5f6020820190506105a25f830184610580565b92915050565b5f819050919050565b6105c26105bd8261037d565b6105a8565b82525050565b5f6105d382856105b1565b6020820191506105e382846105b1565b6020820191508190509392505050565b7f4e487b71000000000000000000000000000000000000000000000000000000005f52601160045260245ffd5b5f61062a8261037d565b91506106358361037d565b92508282026106438161037d565b9150828204841483151761065a576106596105f3565b5b5092915050565b5f61066c82846105b1565b60208201915081905092915050565b5f6106858261037d565b91506106908361037d565b92508282019050808211156106a8576106a76105f3565b5b9291505056fea2646970667358221220760aa539935594a8a555377cd9c502ccdfd832e1b0f0e3fcb2fa591bd1c2d0ca64736f6c634300081c0033",
			"opcodes": "PUSH1 0x80 PUSH1 0x40 MSTORE PUSH1 0x7B PUSH0 SSTORE CALLER PUSH1 0x1 PUSH0 PUSH2 0x100 EXP DUP2 SLOAD DUP2 PUSH20 0xFFFFFFFFFFFFFFFFFFFFFFFFFFFFFFFFFFFFFFFF MUL NOT AND SWAP1 DUP4 PUSH20 0xFFFFFFFFFFFFFFFFFFFFFFFFFFFFFFFFFFFFFFFF AND MUL OR SWAP1 SSTORE POP PUSH1 0x1 DUP1 PUSH1 0x14 PUSH2 0x100 EXP DUP2 SLOAD DUP2 PUSH1 0xFF MUL NOT AND SWAP1 DUP4 ISZERO ISZERO MUL OR SWAP1 SSTORE POP PUSH1 0x1F PUSH1 0x1 PUSH1 0x15 PUSH2 0x100 EXP DUP2 SLOAD DUP2 PUSH2 0xFFFF MUL NOT AND SWAP1 DUP4 PUSH2 0xFFFF AND MUL OR SWAP1 SSTORE POP CALLVALUE DUP1 ISZERO PUSH2 0x8B JUMPI PUSH0 PUSH0 REVERT JUMPDEST POP PUSH1 0x40 MLOAD PUSH2 0x80D CODESIZE SUB DUP1 PUSH2 0x80D DUP4 CODECOPY DUP2 DUP2 ADD PUSH1 0x40 MSTORE DUP2 ADD SWAP1 PUSH2 0xAD SWAP2 SWAP1 PUSH2 0xF1 JUMP JUMPDEST DUP1 PUSH1 0x2 DUP2 SWAP1 SSTORE POP POP PUSH2 0x11C JUMP JUMPDEST PUSH0 PUSH0 REVERT JUMPDEST PUSH0 DUP2 SWAP1 POP SWAP2 SWAP1 POP JUMP JUMPDEST PUSH2 0xD0 DUP2 PUSH2 0xBE JUMP JUMPDEST DUP2 EQ PUSH2 0xDA JUMPI PUSH0 PUSH0 REVERT JUMPDEST POP JUMP JUMPDEST PUSH0 DUP2 MLOAD SWAP1 POP PUSH2 0xEB DUP2 PUSH2 0xC7 JUMP JUMPDEST SWAP3 SWAP2 POP POP JUMP JUMPDEST PUSH0 PUSH1 0x20 DUP3 DUP5 SUB SLT ISZERO PUSH2 0x106 JUMPI PUSH2 0x105 PUSH2 0xBA JUMP JUMPDEST JUMPDEST PUSH0 PUSH2 0x113 DUP5 DUP3 DUP6 ADD PUSH2 0xDD JUMP JUMPDEST SWAP2 POP POP SWAP3 SWAP2 POP POP JUMP JUMPDEST PUSH2 0x6E4 DUP1 PUSH2 0x129 PUSH0 CODECOPY PUSH0 RETURN INVALID PUSH1 0x80 PUSH1 0x40 MSTORE CALLVALUE DUP1 ISZERO PUSH2 0xF JUMPI PUSH0 PUSH0 REVERT JUMPDEST POP PUSH1 0x4 CALLDATASIZE LT PUSH2 0x90 JUMPI PUSH0 CALLDATALOAD PUSH1 0xE0 SHR DUP1 PUSH4 0x881374D7 GT PUSH2 0x64 JUMPI DUP1 PUSH4 0x881374D7 EQ PUSH2 0x10C JUMPI DUP1 PUSH4 0x8DA5CB5B EQ PUSH2 0x13C JUMPI DUP1 PUSH4 0x8FAF850D EQ PUSH2 0x15A JUMPI DUP1 PUSH4 0x992DDC6F EQ PUSH2 0x176 JUMPI DUP1 PUSH4 0xF0BA8440 EQ PUSH2 0x1A6 JUMPI PUSH2 0x90 JUMP JUMPDEST DUP1 PUSH3 0x74530A EQ PUSH2 0x94 JUMPI DUP1 PUSH4 0x6661ABD EQ PUSH2 0xB2 JUMPI DUP1 PUSH4 0xA6B4E06 EQ PUSH2 0xD0 JUMPI DUP1 PUSH4 0x59D168B6 EQ PUSH2 0xEE JUMPI JUMPDEST PUSH0 PUSH0 REVERT JUMPDEST PUSH2 0x9C PUSH2 0x1D6 JUMP JUMPDEST PUSH1 0x40 MLOAD PUSH2 0xA9 SWAP2 SWAP1 PUSH2 0x364 JUMP JUMPDEST PUSH1 0x40 MLOAD DUP1 SWAP2 SUB SWAP1 RETURN JUMPDEST PUSH2 0xBA PUSH2 0x1E9 JUMP JUMPDEST PUSH1 0x40 MLOAD PUSH2 0xC7 SWAP2 SWAP1 PUSH2 0x395 JUMP JUMPDEST PUSH1 0x40 MLOAD DUP1 SWAP2 SUB SWAP1 RETURN JUMPDEST PUSH2 0xD8 PUSH2 0x1EE JUMP JUMPDEST PUSH1 0x40 MLOAD PUSH2 0xE5 SWAP2 SWAP1 PUSH2 0x3CA JUMP JUMPDEST PUSH1 0x40 MLOAD DUP1 SWAP2 SUB SWAP1 RETURN JUMPDEST PUSH2 0xF6 PUSH2 0x202 JUMP JUMPDEST PUSH1 0x40 MLOAD PUSH2 0x103 SWAP2 SWAP1 PUSH2 0x395 JUMP JUMPDEST PUSH1 0x40 MLOAD DUP1 SWAP2 SUB SWAP1 RETURN JUMPDEST PUSH2 0x126 PUSH1 0x4 DUP1 CALLDATASIZE SUB DUP2 ADD SWAP1 PUSH2 0x121 SWAP2 SWAP1 PUSH2 0x411 JUMP JUMPDEST PUSH2 0x207 JUMP JUMPDEST PUSH1 0x40 MLOAD PUSH2 0x133 SWAP2 SWAP1 PUSH2 0x395 JUMP JUMPDEST PUSH1 0x40 MLOAD DUP1 SWAP2 SUB SWAP1 RETURN JUMPDEST PUSH2 0x144 PUSH2 0x23B JUMP JUMPDEST PUSH1 0x40 MLOAD PUSH2 0x151 SWAP2 SWAP1 PUSH2 0x48E JUMP JUMPDEST PUSH1 0x40 MLOAD DUP1 SWAP2 SUB SWAP1 RETURN JUMPDEST PUSH2 0x174 PUSH1 0x4 DUP1 CALLDATASIZE SUB DUP2 ADD SWAP1 PUSH2 0x16F SWAP2 SWAP1 PUSH2 0x4DA JUMP JUMPDEST PUSH2 0x260 JUMP JUMPDEST STOP JUMPDEST PUSH2 0x190 PUSH1 0x4 DUP1 CALLDATASIZE SUB DUP2 ADD SWAP1 PUSH2 0x18B SWAP2 SWAP1 PUSH2 0x505 JUMP JUMPDEST PUSH2 0x2E8 JUMP JUMPDEST PUSH1 0x40 MLOAD PUSH2 0x19D SWAP2 SWAP1 PUSH2 0x395 JUMP JUMPDEST PUSH1 0x40 MLOAD DUP1 SWAP2 SUB SWAP1 RETURN JUMPDEST PUSH2 0x1C0 PUSH1 0x4 DUP1 CALLDATASIZE SUB DUP2 ADD SWAP1 PUSH2 0x1BB SWAP2 SWAP1 PUSH2 0x555 JUMP JUMPDEST PUSH2 0x331 JUMP JUMPDEST PUSH1 0x40 MLOAD PUSH2 0x1CD SWAP2 SWAP1 PUSH2 0x58F JUMP JUMPDEST PUSH1 0x40 MLOAD DUP1 SWAP2 SUB SWAP1 RETURN JUMPDEST PUSH1 0x1 PUSH1 0x14 SWAP1 SLOAD SWAP1 PUSH2 0x100 EXP SWAP1 DIV PUSH1 0xFF AND DUP2 JUMP JUMPDEST PUSH0 SLOAD DUP2 JUMP JUMPDEST PUSH1 0x1 PUSH1 0x15 SWAP1 SLOAD SWAP1 PUSH2 0x100 EXP SWAP1 DIV PUSH2 0xFFFF AND DUP2 JUMP JUMPDEST PUSH1 0x7B DUP2 JUMP JUMPDEST PUSH0 DUP2 DUP4 PUSH1 0x40 MLOAD PUSH1 0x20 ADD PUSH2 0x21B SWAP3 SWAP2 SWAP1 PUSH2 0x5C8 JUMP JUMPDEST PUSH1 0x40 MLOAD PUSH1 0x20 DUP2 DUP4 SUB SUB DUP2 MSTORE SWAP1 PUSH1 0x40 MSTORE DUP1 MLOAD SWAP1 PUSH1 0x20 ADD KECCAK256 PUSH0 SHR SWAP1 POP SWAP3 SWAP2 POP POP JUMP JUMPDEST PUSH1 0x1 PUSH0 SWAP1 SLOAD SWAP1 PUSH2 0x100 EXP SWAP1 DIV PUSH20 0xFFFFFFFFFFFFFFFFFFFFFFFFFFFFFFFFFFFFFFFF AND DUP2 JUMP JUMPDEST PUSH0 PUSH1 0x40 MLOAD DUP1 PUSH1 0x40 ADD PUSH1 0x40 MSTORE DUP1 PUSH1 0x6 DUP1 SLOAD SWAP1 POP DUP2 MSTORE PUSH1 0x20 ADD DUP4 DUP2 MSTORE POP SWAP1 POP PUSH1 0x6 DUP2 SWAP1 DUP1 PUSH1 0x1 DUP2 SLOAD ADD DUP1 DUP3 SSTORE DUP1 SWAP2 POP POP PUSH1 0x1 SWAP1 SUB SWAP1 PUSH0 MSTORE PUSH1 0x20 PUSH0 KECCAK256 SWAP1 PUSH1 0x2 MUL ADD PUSH0 SWAP1 SWAP2 SWAP1 SWAP2 SWAP1 SWAP2 POP PUSH0 DUP3 ADD MLOAD DUP2 PUSH0 ADD SSTORE PUSH1 0x20 DUP3 ADD MLOAD DUP2 PUSH1 0x1 ADD SSTORE POP POP DUP1 PUSH1 0x7 PUSH0 DUP4 PUSH0 ADD MLOAD DUP2 MSTORE PUSH1 0x20 ADD SWAP1 DUP2 MSTORE PUSH1 0x20 ADD PUSH0 KECCAK256 PUSH0 DUP3 ADD MLOAD DUP2 PUSH0 ADD SSTORE PUSH1 0x20 DUP3 ADD MLOAD DUP2 PUSH1 0x1 ADD SSTORE SWAP1 POP POP POP POP JUMP JUMPDEST PUSH0 DUP2 DUP4 PUSH2 0x2F5 SWAP2 SWAP1 PUSH2 0x620 JUMP JUMPDEST DUP5 PUSH1 0x40 MLOAD PUSH1 0x20 ADD PUSH2 0x306 SWAP2 SWAP1 PUSH2 0x661 JUMP JUMPDEST PUSH1 0x40 MLOAD PUSH1 0x20 DUP2 DUP4 SUB SUB DUP2 MSTORE SWAP1 PUSH1 0x40 MSTORE DUP1 MLOAD SWAP1 PUSH1 0x20 ADD KECCAK256 PUSH0 SHR PUSH2 0x328 SWAP2 SWAP1 PUSH2 0x67B JUMP JUMPDEST SWAP1 POP SWAP4 SWAP3 POP POP POP JUMP JUMPDEST PUSH1 0x3 DUP2 PUSH1 0x3 DUP2 LT PUSH2 0x340 JUMPI PUSH0 DUP1 REVERT JUMPDEST ADD PUSH0 SWAP2 POP SWAP1 POP SLOAD DUP2 JUMP JUMPDEST PUSH0 DUP2 ISZERO ISZERO SWAP1 POP SWAP2 SWAP1 POP JUMP JUMPDEST PUSH2 0x35E DUP2 PUSH2 0x34A JUMP JUMPDEST DUP3 MSTORE POP POP JUMP JUMPDEST PUSH0 PUSH1 0x20 DUP3 ADD SWAP1 POP PUSH2 0x377 PUSH0 DUP4 ADD DUP5 PUSH2 0x355 JUMP JUMPDEST SWAP3 SWAP2 POP POP JUMP JUMPDEST PUSH0 DUP2 SWAP1 POP SWAP2 SWAP1 POP JUMP JUMPDEST PUSH2 0x38F DUP2 PUSH2 0x37D JUMP JUMPDEST DUP3 MSTORE POP POP JUMP JUMPDEST PUSH0 PUSH1 0x20 DUP3 ADD SWAP1 POP PUSH2 0x3A8 PUSH0 DUP4 ADD DUP5 PUSH2 0x386 JUMP JUMPDEST SWAP3 SWAP2 POP POP JUMP JUMPDEST PUSH0 PUSH2 0xFFFF DUP3 AND SWAP1 POP SWAP2 SWAP1 POP JUMP JUMPDEST PUSH2 0x3C4 DUP2 PUSH2 0x3AE JUMP JUMPDEST DUP3 MSTORE POP POP JUMP JUMPDEST PUSH0 PUSH1 0x20 DUP3 ADD SWAP1 POP PUSH2 0x3DD PUSH0 DUP4 ADD DUP5 PUSH2 0x3BB JUMP JUMPDEST SWAP3 SWAP2 POP POP JUMP JUMPDEST PUSH0 PUSH0 REVERT JUMPDEST PUSH2 0x3F0 DUP2 PUSH2 0x37D JUMP JUMPDEST DUP2 EQ PUSH2 0x3FA JUMPI PUSH0 PUSH0 REVERT JUMPDEST POP JUMP JUMPDEST PUSH0 DUP2 CALLDATALOAD SWAP1 POP PUSH2 0x40B DUP2 PUSH2 0x3E7 JUMP JUMPDEST SWAP3 SWAP2 POP POP JUMP JUMPDEST PUSH0 PUSH0 PUSH1 0x40 DUP4 DUP6 SUB SLT ISZERO PUSH2 0x427 JUMPI PUSH2 0x426 PUSH2 0x3E3 JUMP JUMPDEST JUMPDEST PUSH0 PUSH2 0x434 DUP6 DUP3 DUP7 ADD PUSH2 0x3FD JUMP JUMPDEST SWAP3 POP POP PUSH1 0x20 PUSH2 0x445 DUP6 DUP3 DUP7 ADD PUSH2 0x3FD JUMP JUMPDEST SWAP2 POP POP SWAP3 POP SWAP3 SWAP1 POP JUMP JUMPDEST PUSH0 PUSH20 0xFFFFFFFFFFFFFFFFFFFFFFFFFFFFFFFFFFFFFFFF DUP3 AND SWAP1 POP SWAP2 SWAP1 POP JUMP JUMPDEST PUSH0 PUSH2 0x478 DUP3 PUSH2 0x44F JUMP JUMPDEST SWAP1 POP SWAP2 SWAP1 POP JUMP JUMPDEST PUSH2 0x488 DUP2 PUSH2 0x46E JUMP JUMPDEST DUP3 MSTORE POP POP JUMP JUMPDEST PUSH0 PUSH1 0x20 DUP3 ADD SWAP1 POP PUSH2 0x4A1 PUSH0 DUP4 ADD DUP5 PUSH2 0x47F JUMP JUMPDEST SWAP3 SWAP2 POP POP JUMP JUMPDEST PUSH0 DUP2 SWAP1 POP SWAP2 SWAP1 POP JUMP JUMPDEST PUSH2 0x4B9 DUP2 PUSH2 0x4A7 JUMP JUMPDEST DUP2 EQ PUSH2 0x4C3 JUMPI PUSH0 PUSH0 REVERT JUMPDEST POP JUMP JUMPDEST PUSH0 DUP2 CALLDATALOAD SWAP1 POP PUSH2 0x4D4 DUP2 PUSH2 0x4B0 JUMP JUMPDEST SWAP3 SWAP2 POP POP JUMP JUMPDEST PUSH0 PUSH1 0x20 DUP3 DUP5 SUB SLT ISZERO PUSH2 0x4EF JUMPI PUSH2 0x4EE PUSH2 0x3E3 JUMP JUMPDEST JUMPDEST PUSH0 PUSH2 0x4FC DUP5 DUP3 DUP6 ADD PUSH2 0x4C6 JUMP JUMPDEST SWAP2 POP POP SWAP3 SWAP2 POP POP JUMP JUMPDEST PUSH0 PUSH0 PUSH0 PUSH1 0x60 DUP5 DUP7 SUB SLT ISZERO PUSH2 0x51C JUMPI PUSH2 0x51B PUSH2 0x3E3 JUMP JUMPDEST JUMPDEST PUSH0 PUSH2 0x529 DUP7 DUP3 DUP8 ADD PUSH2 0x3FD JUMP JUMPDEST SWAP4 POP POP PUSH1 0x20 PUSH2 0x53A DUP7 DUP3 DUP8 ADD PUSH2 0x3FD JUMP JUMPDEST SWAP3 POP POP PUSH1 0x40 PUSH2 0x54B DUP7 DUP3 DUP8 ADD PUSH2 0x3FD JUMP JUMPDEST SWAP2 POP POP SWAP3 POP SWAP3 POP SWAP3 JUMP JUMPDEST PUSH0 PUSH1 0x20 DUP3 DUP5 SUB SLT ISZERO PUSH2 0x56A JUMPI PUSH2 0x569 PUSH2 0x3E3 JUMP JUMPDEST JUMPDEST PUSH0 PUSH2 0x577 DUP5 DUP3 DUP6 ADD PUSH2 0x3FD JUMP JUMPDEST SWAP2 POP POP SWAP3 SWAP2 POP POP JUMP JUMPDEST PUSH2 0x589 DUP2 PUSH2 0x4A7 JUMP JUMPDEST DUP3 MSTORE POP POP JUMP JUMPDEST PUSH0 PUSH1 0x20 DUP3 ADD SWAP1 POP PUSH2 0x5A2 PUSH0 DUP4 ADD DUP5 PUSH2 0x580 JUMP JUMPDEST SWAP3 SWAP2 POP POP JUMP JUMPDEST PUSH0 DUP2 SWAP1 POP SWAP2 SWAP1 POP JUMP JUMPDEST PUSH2 0x5C2 PUSH2 0x5BD DUP3 PUSH2 0x37D JUMP JUMPDEST PUSH2 0x5A8 JUMP JUMPDEST DUP3 MSTORE POP POP JUMP JUMPDEST PUSH0 PUSH2 0x5D3 DUP3 DUP6 PUSH2 0x5B1 JUMP JUMPDEST PUSH1 0x20 DUP3 ADD SWAP2 POP PUSH2 0x5E3 DUP3 DUP5 PUSH2 0x5B1 JUMP JUMPDEST PUSH1 0x20 DUP3 ADD SWAP2 POP DUP2 SWAP1 POP SWAP4 SWAP3 POP POP POP JUMP JUMPDEST PUSH32 0x4E487B7100000000000000000000000000000000000000000000000000000000 PUSH0 MSTORE PUSH1 0x11 PUSH1 0x4 MSTORE PUSH1 0x24 PUSH0 REVERT JUMPDEST PUSH0 PUSH2 0x62A DUP3 PUSH2 0x37D JUMP JUMPDEST SWAP2 POP PUSH2 0x635 DUP4 PUSH2 0x37D JUMP JUMPDEST SWAP3 POP DUP3 DUP3 MUL PUSH2 0x643 DUP2 PUSH2 0x37D JUMP JUMPDEST SWAP2 POP DUP3 DUP3 DIV DUP5 EQ DUP4 ISZERO OR PUSH2 0x65A JUMPI PUSH2 0x659 PUSH2 0x5F3 JUMP JUMPDEST JUMPDEST POP SWAP3 SWAP2 POP POP JUMP JUMPDEST PUSH0 PUSH2 0x66C DUP3 DUP5 PUSH2 0x5B1 JUMP JUMPDEST PUSH1 0x20 DUP3 ADD SWAP2 POP DUP2 SWAP1 POP SWAP3 SWAP2 POP POP JUMP JUMPDEST PUSH0 PUSH2 0x685 DUP3 PUSH2 0x37D JUMP JUMPDEST SWAP2 POP PUSH2 0x690 DUP4 PUSH2 0x37D JUMP JUMPDEST SWAP3 POP DUP3 DUP3 ADD SWAP1 POP DUP1 DUP3 GT ISZERO PUSH2 0x6A8 JUMPI PUSH2 0x6A7 PUSH2 0x5F3 JUMP JUMPDEST JUMPDEST SWAP3 SWAP2 POP POP JUMP INVALID LOG2 PUSH5 0x6970667358 0x22 SLT KECCAK256 PUSH23 0xAA539935594A8A555377CD9C502CCDFD832E1B0F0E3FC 0xB2 STATICCALL MSIZE SHL 0xD1 0xC2 0xD0 0xCA PUSH5 0x736F6C6343 STOP ADDMOD SHR STOP CALLER "
		},
		"gasEstimates": {
			"creation": {
				"codeDepositCost": "352800",
				"executionCost": "infinite",
				"totalCost": "infinite"
			},
			"external": {
				"addUser(bytes32)": "115533",
				"count()": "2447",
				"data(uint256)": "2810",
				"getArrayLocation(uint256,uint256,uint256)": "infinite",
				"getMapLocation(uint256,uint256)": "infinite",
				"isTrue()": "2518",
				"owner()": "2530",
				"someConst()": "392",
				"u16()": "2562"
			}
		},
		"methodIdentifiers": {
			"addUser(bytes32)": "8faf850d",
			"count()": "06661abd",
			"data(uint256)": "f0ba8440",
			"getArrayLocation(uint256,uint256,uint256)": "992ddc6f",
			"getMapLocation(uint256,uint256)": "881374d7",
			"isTrue()": "0074530a",
			"owner()": "8da5cb5b",
			"someConst()": "59d168b6",
			"u16()": "0a6b4e06"
		}
	},
	"abi": [
		{
			"inputs": [
				{
					"internalType": "bytes32",
					"name": "_password",
					"type": "bytes32"
				}
			],
			"stateMutability": "nonpayable",
			"type": "constructor"
		},
		{
			"inputs": [
				{
					"internalType": "bytes32",
					"name": "_password",
					"type": "bytes32"
				}
			],
			"name": "addUser",
			"outputs": [],
			"stateMutability": "nonpayable",
			"type": "function"
		},
		{
			"inputs": [],
			"name": "count",
			"outputs": [
				{
					"internalType": "uint256",
					"name": "",
					"type": "uint256"
				}
			],
			"stateMutability": "view",
			"type": "function"
		},
		{
			"inputs": [
				{
					"internalType": "uint256",
					"name": "",
					"type": "uint256"
				}
			],
			"name": "data",
			"outputs": [
				{
					"internalType": "bytes32",
					"name": "",
					"type": "bytes32"
				}
			],
			"stateMutability": "view",
			"type": "function"
		},
		{
			"inputs": [
				{
					"internalType": "uint256",
					"name": "slot",
					"type": "uint256"
				},
				{
					"internalType": "uint256",
					"name": "index",
					"type": "uint256"
				},
				{
					"internalType": "uint256",
					"name": "elementSize",
					"type": "uint256"
				}
			],
			"name": "getArrayLocation",
			"outputs": [
				{
					"internalType": "uint256",
					"name": "",
					"type": "uint256"
				}
			],
			"stateMutability": "pure",
			"type": "function"
		},
		{
			"inputs": [
				{
					"internalType": "uint256",
					"name": "slot",
					"type": "uint256"
				},
				{
					"internalType": "uint256",
					"name": "key",
					"type": "uint256"
				}
			],
			"name": "getMapLocation",
			"outputs": [
				{
					"internalType": "uint256",
					"name": "",
					"type": "uint256"
				}
			],
			"stateMutability": "pure",
			"type": "function"
		},
		{
			"inputs": [],
			"name": "isTrue",
			"outputs": [
				{
					"internalType": "bool",
					"name": "",
					"type": "bool"
				}
			],
			"stateMutability": "view",
			"type": "function"
		},
		{
			"inputs": [],
			"name": "owner",
			"outputs": [
				{
					"internalType": "address",
					"name": "",
					"type": "address"
				}
			],
			"stateMutability": "view",
			"type": "function"
		},
		{
			"inputs": [],
			"name": "someConst",
			"outputs": [
				{
					"internalType": "uint256",
					"name": "",
					"type": "uint256"
				}
			],
			"stateMutability": "view",
			"type": "function"
		},
		{
			"inputs": [],
			"name": "u16",
			"outputs": [
				{
					"internalType": "uint16",
					"name": "",
					"type": "uint16"
				}
			],
			"stateMutability": "view",
			"type": "function"
		}
	]
}