{
	"data": {
		"bytecode": {
			"linkReferences": {},
			"object": "6080604052348015600e575f80fd5b506101098061001c5f395ff3fe6080604052348015600e575f80fd5b50600436106030575f3560e01c80631f377a29146034578063d22b585014604e575b5f80fd5b603a6068565b6040516045919060bc565b60405180910390f35b60546087565b604051605f919060bc565b60405180910390f35b5f805b6005811015608357600181019050600182019150606b565b5090565b5f805b600a81101560a257600182019150600181019050608a565b5090565b5f819050919050565b60b68160a6565b82525050565b5f60208201905060cd5f83018460af565b9291505056fea264697066735822122097624fce1bc8567ff08d3c0e56fc402504bf8cea9326326d6235cbdd5ab4021264736f6c634300081a0033",
			"opcodes": "PUSH1 0x80 PUSH1 0x40 MSTORE CALLVALUE DUP1 ISZERO PUSH1 0xE JUMPI PUSH0 DUP1 REVERT JUMPDEST POP PUSH2 0x109 DUP1 PUSH2 0x1C PUSH0 CODECOPY PUSH0 RETURN INVALID PUSH1 0x80 PUSH1 0x40 MSTORE CALLVALUE DUP1 ISZERO PUSH1 0xE JUMPI PUSH0 DUP1 REVERT JUMPDEST POP PUSH1 0x4 CALLDATASIZE LT PUSH1 0x30 JUMPI PUSH0 CALLDATALOAD PUSH1 0xE0 SHR DUP1 PUSH4 0x1F377A29 EQ PUSH1 0x34 JUMPI DUP1 PUSH4 0xD22B5850 EQ PUSH1 0x4E JUMPI JUMPDEST PUSH0 DUP1 REVERT JUMPDEST PUSH1 0x3A PUSH1 0x68 JUMP JUMPDEST PUSH1 0x40 MLOAD PUSH1 0x45 SWAP2 SWAP1 PUSH1 0xBC JUMP JUMPDEST PUSH1 0x40 MLOAD DUP1 SWAP2 SUB SWAP1 RETURN JUMPDEST PUSH1 0x54 PUSH1 0x87 JUMP JUMPDEST PUSH1 0x40 MLOAD PUSH1 0x5F SWAP2 SWAP1 PUSH1 0xBC JUMP JUMPDEST PUSH1 0x40 MLOAD DUP1 SWAP2 SUB SWAP1 RETURN JUMPDEST PUSH0 DUP1 JUMPDEST PUSH1 0x5 DUP2 LT ISZERO PUSH1 0x83 JUMPI PUSH1 0x1 DUP2 ADD SWAP1 POP PUSH1 0x1 DUP3 ADD SWAP2 POP PUSH1 0x6B JUMP JUMPDEST POP SWAP1 JUMP JUMPDEST PUSH0 DUP1 JUMPDEST PUSH1 0xA DUP2 LT ISZERO PUSH1 0xA2 JUMPI PUSH1 0x1 DUP3 ADD SWAP2 POP PUSH1 0x1 DUP2 ADD SWAP1 POP PUSH1 0x8A JUMP JUMPDEST POP SWAP1 JUMP JUMPDEST PUSH0 DUP2 SWAP1 POP SWAP2 SWAP1 POP JUMP JUMPDEST PUSH1 0xB6 DUP2 PUSH1 0xA6 JUMP JUMPDEST DUP3 MSTORE POP POP JUMP JUMPDEST PUSH0 PUSH1 0x20 DUP3 ADD SWAP1 POP PUSH1 0xCD PUSH0 DUP4 ADD DUP5 PUSH1 0xAF JUMP JUMPDEST SWAP3 SWAP2 POP POP JUMP INVALID LOG2 PUSH5 0x6970667358 0x22 SLT KECCAK256 SWAP8 PUSH3 0x4FCE1B 0xC8 JUMP PUSH32 0xF08D3C0E56FC402504BF8CEA9326326D6235CBDD5AB4021264736F6C63430008 BYTE STOP CALLER "
		},
		"gasEstimates": {
			"creation": {
				"codeDepositCost": "53000",
				"executionCost": "103",
				"totalCost": "53103"
			},
			"external": {
				"yul_for_loop()": "infinite",
				"yul_white_loop()": "infinite"
			}
		},
		"methodIdentifiers": {
			"yul_for_loop()": "d22b5850",
			"yul_white_loop()": "1f377a29"
		}
	},
	"abi": [
		{
			"inputs": [],
			"name": "yul_for_loop",
			"outputs": [
				{
					"internalType": "uint256",
					"name": "z",
					"type": "uint256"
				}
			],
			"stateMutability": "pure",
			"type": "function"
		},
		{
			"inputs": [],
			"name": "yul_white_loop",
			"outputs": [
				{
					"internalType": "uint256",
					"name": "z",
					"type": "uint256"
				}
			],
			"stateMutability": "pure",
			"type": "function"
		}
	]
}