{
	"data": {
		"bytecode": {
			"linkReferences": {},
			"object": "6080604052348015600e575f80fd5b5061011d8061001c5f395ff3fe6080604052348015600e575f80fd5b5060043610603a575f3560e01c8063746e148214603e578063a06d2dce146058578063e13794cb146072575b5f80fd5b6044608c565b604051604f919060d0565b60405180910390f35b605e609c565b6040516069919060d0565b60405180910390f35b607860ad565b6040516083919060d0565b60405180910390f35b5f60018060101b0360201b905090565b5f60018060101b0360201b19905090565b5f60018060101b03905090565b5f819050919050565b60ca8160ba565b82525050565b5f60208201905060e15f83018460c3565b9291505056fea264697066735822122082124f183313d051cbe582a54e5c943ba360e588e17d27a9b6e7d2b7d6c07b1b64736f6c634300081a0033",
			"opcodes": "PUSH1 0x80 PUSH1 0x40 MSTORE CALLVALUE DUP1 ISZERO PUSH1 0xE JUMPI PUSH0 DUP1 REVERT JUMPDEST POP PUSH2 0x11D DUP1 PUSH2 0x1C PUSH0 CODECOPY PUSH0 RETURN INVALID PUSH1 0x80 PUSH1 0x40 MSTORE CALLVALUE DUP1 ISZERO PUSH1 0xE JUMPI PUSH0 DUP1 REVERT JUMPDEST POP PUSH1 0x4 CALLDATASIZE LT PUSH1 0x3A JUMPI PUSH0 CALLDATALOAD PUSH1 0xE0 SHR DUP1 PUSH4 0x746E1482 EQ PUSH1 0x3E JUMPI DUP1 PUSH4 0xA06D2DCE EQ PUSH1 0x58 JUMPI DUP1 PUSH4 0xE13794CB EQ PUSH1 0x72 JUMPI JUMPDEST PUSH0 DUP1 REVERT JUMPDEST PUSH1 0x44 PUSH1 0x8C JUMP JUMPDEST PUSH1 0x40 MLOAD PUSH1 0x4F SWAP2 SWAP1 PUSH1 0xD0 JUMP JUMPDEST PUSH1 0x40 MLOAD DUP1 SWAP2 SUB SWAP1 RETURN JUMPDEST PUSH1 0x5E PUSH1 0x9C JUMP JUMPDEST PUSH1 0x40 MLOAD PUSH1 0x69 SWAP2 SWAP1 PUSH1 0xD0 JUMP JUMPDEST PUSH1 0x40 MLOAD DUP1 SWAP2 SUB SWAP1 RETURN JUMPDEST PUSH1 0x78 PUSH1 0xAD JUMP JUMPDEST PUSH1 0x40 MLOAD PUSH1 0x83 SWAP2 SWAP1 PUSH1 0xD0 JUMP JUMPDEST PUSH1 0x40 MLOAD DUP1 SWAP2 SUB SWAP1 RETURN JUMPDEST PUSH0 PUSH1 0x1 DUP1 PUSH1 0x10 SHL SUB PUSH1 0x20 SHL SWAP1 POP SWAP1 JUMP JUMPDEST PUSH0 PUSH1 0x1 DUP1 PUSH1 0x10 SHL SUB PUSH1 0x20 SHL NOT SWAP1 POP SWAP1 JUMP JUMPDEST PUSH0 PUSH1 0x1 DUP1 PUSH1 0x10 SHL SUB SWAP1 POP SWAP1 JUMP JUMPDEST PUSH0 DUP2 SWAP1 POP SWAP2 SWAP1 POP JUMP JUMPDEST PUSH1 0xCA DUP2 PUSH1 0xBA JUMP JUMPDEST DUP3 MSTORE POP POP JUMP JUMPDEST PUSH0 PUSH1 0x20 DUP3 ADD SWAP1 POP PUSH1 0xE1 PUSH0 DUP4 ADD DUP5 PUSH1 0xC3 JUMP JUMPDEST SWAP3 SWAP2 POP POP JUMP INVALID LOG2 PUSH5 0x6970667358 0x22 SLT KECCAK256 DUP3 SLT 0x4F XOR CALLER SGT 0xD0 MLOAD 0xCB 0xE5 DUP3 0xA5 0x4E TLOAD SWAP5 EXTCODESIZE LOG3 PUSH1 0xE5 DUP9 0xE1 PUSH30 0x27A9B6E7D2B7D6C07B1B64736F6C634300081A0033000000000000000000 "
		},
		"gasEstimates": {
			"creation": {
				"codeDepositCost": "57000",
				"executionCost": "103",
				"totalCost": "57103"
			},
			"external": {
				"test_mask()": "366",
				"test_not_mask()": "353",
				"test_shift_mask()": "328"
			}
		},
		"methodIdentifiers": {
			"test_mask()": "e13794cb",
			"test_not_mask()": "a06d2dce",
			"test_shift_mask()": "746e1482"
		}
	},
	"abi": [
		{
			"inputs": [],
			"name": "test_mask",
			"outputs": [
				{
					"internalType": "bytes32",
					"name": "mask",
					"type": "bytes32"
				}
			],
			"stateMutability": "pure",
			"type": "function"
		},
		{
			"inputs": [],
			"name": "test_not_mask",
			"outputs": [
				{
					"internalType": "bytes32",
					"name": "mask",
					"type": "bytes32"
				}
			],
			"stateMutability": "pure",
			"type": "function"
		},
		{
			"inputs": [],
			"name": "test_shift_mask",
			"outputs": [
				{
					"internalType": "bytes32",
					"name": "mask",
					"type": "bytes32"
				}
			],
			"stateMutability": "pure",
			"type": "function"
		}
	]
}