{
	"data": {
		"bytecode": {
			"linkReferences": {},
			"object": "60806040526040518060600160405280600b60ff168152602001601660ff168152602001602160ff168152505f90600361003a929190610084565b506040518060600160405280600160ff168152602001600260ff168152602001600360ff1681525060019060036100729291906100d4565b5034801561007e575f80fd5b506101b1565b828054828255905f5260205f209081019282156100c3579160200282015b828111156100c2578251829060ff169055916020019190600101906100a2565b5b5090506100d09190610196565b5090565b828054828255905f5260205f2090600101600290048101928215610185579160200282015f5b8382111561014757835183826101000a8154816fffffffffffffffffffffffffffffffff021916908360ff1602179055509260200192601001602081600f010492830192600103026100fa565b80156101835782816101000a8154906fffffffffffffffffffffffffffffffff0219169055601001602081600f01049283019260010302610147565b505b5090506101929190610196565b5090565b5b808211156101ad575f815f905550600101610197565b5090565b6101c1806101be5f395ff3fe608060405234801561000f575f80fd5b5060043610610029575f3560e01c8063610d0e961461002d575b5f80fd5b610047600480360381019061004291906100d8565b61005f565b6040516100569392919061013d565b60405180910390f35b5f805f80856040516020016100749190610172565b60405160208183030381529060405280519060200120905085549150848101549350839250509250925092565b5f80fd5b5f819050919050565b6100b7816100a5565b81146100c1575f80fd5b50565b5f813590506100d2816100ae565b92915050565b5f80604083850312156100ee576100ed6100a1565b5b5f6100fb858286016100c4565b925050602061010c858286016100c4565b9150509250929050565b61011f816100a5565b82525050565b5f819050919050565b61013781610125565b82525050565b5f6060820190506101505f830186610116565b61015d602083018561012e565b61016a6040830184610116565b949350505050565b5f6020820190506101855f830184610116565b9291505056fea2646970667358221220eb21f58f870ce61a600a793d49c4db5266e010d51a41ec09bb00edc0765e383264736f6c634300081a0033",
			"opcodes": "PUSH1 0x80 PUSH1 0x40 MSTORE PUSH1 0x40 MLOAD DUP1 PUSH1 0x60 ADD PUSH1 0x40 MSTORE DUP1 PUSH1 0xB PUSH1 0xFF AND DUP2 MSTORE PUSH1 0x20 ADD PUSH1 0x16 PUSH1 0xFF AND DUP2 MSTORE PUSH1 0x20 ADD PUSH1 0x21 PUSH1 0xFF AND DUP2 MSTORE POP PUSH0 SWAP1 PUSH1 0x3 PUSH2 0x3A SWAP3 SWAP2 SWAP1 PUSH2 0x84 JUMP JUMPDEST POP PUSH1 0x40 MLOAD DUP1 PUSH1 0x60 ADD PUSH1 0x40 MSTORE DUP1 PUSH1 0x1 PUSH1 0xFF AND DUP2 MSTORE PUSH1 0x20 ADD PUSH1 0x2 PUSH1 0xFF AND DUP2 MSTORE PUSH1 0x20 ADD PUSH1 0x3 PUSH1 0xFF AND DUP2 MSTORE POP PUSH1 0x1 SWAP1 PUSH1 0x3 PUSH2 0x72 SWAP3 SWAP2 SWAP1 PUSH2 0xD4 JUMP JUMPDEST POP CALLVALUE DUP1 ISZERO PUSH2 0x7E JUMPI PUSH0 DUP1 REVERT JUMPDEST POP PUSH2 0x1B1 JUMP JUMPDEST DUP3 DUP1 SLOAD DUP3 DUP3 SSTORE SWAP1 PUSH0 MSTORE PUSH1 0x20 PUSH0 KECCAK256 SWAP1 DUP2 ADD SWAP3 DUP3 ISZERO PUSH2 0xC3 JUMPI SWAP2 PUSH1 0x20 MUL DUP3 ADD JUMPDEST DUP3 DUP2 GT ISZERO PUSH2 0xC2 JUMPI DUP3 MLOAD DUP3 SWAP1 PUSH1 0xFF AND SWAP1 SSTORE SWAP2 PUSH1 0x20 ADD SWAP2 SWAP1 PUSH1 0x1 ADD SWAP1 PUSH2 0xA2 JUMP JUMPDEST JUMPDEST POP SWAP1 POP PUSH2 0xD0 SWAP2 SWAP1 PUSH2 0x196 JUMP JUMPDEST POP SWAP1 JUMP JUMPDEST DUP3 DUP1 SLOAD DUP3 DUP3 SSTORE SWAP1 PUSH0 MSTORE PUSH1 0x20 PUSH0 KECCAK256 SWAP1 PUSH1 0x1 ADD PUSH1 0x2 SWAP1 DIV DUP2 ADD SWAP3 DUP3 ISZERO PUSH2 0x185 JUMPI SWAP2 PUSH1 0x20 MUL DUP3 ADD PUSH0 JUMPDEST DUP4 DUP3 GT ISZERO PUSH2 0x147 JUMPI DUP4 MLOAD DUP4 DUP3 PUSH2 0x100 EXP DUP2 SLOAD DUP2 PUSH16 0xFFFFFFFFFFFFFFFFFFFFFFFFFFFFFFFF MUL NOT AND SWAP1 DUP4 PUSH1 0xFF AND MUL OR SWAP1 SSTORE POP SWAP3 PUSH1 0x20 ADD SWAP3 PUSH1 0x10 ADD PUSH1 0x20 DUP2 PUSH1 0xF ADD DIV SWAP3 DUP4 ADD SWAP3 PUSH1 0x1 SUB MUL PUSH2 0xFA JUMP JUMPDEST DUP1 ISZERO PUSH2 0x183 JUMPI DUP3 DUP2 PUSH2 0x100 EXP DUP2 SLOAD SWAP1 PUSH16 0xFFFFFFFFFFFFFFFFFFFFFFFFFFFFFFFF MUL NOT AND SWAP1 SSTORE PUSH1 0x10 ADD PUSH1 0x20 DUP2 PUSH1 0xF ADD DIV SWAP3 DUP4 ADD SWAP3 PUSH1 0x1 SUB MUL PUSH2 0x147 JUMP JUMPDEST POP JUMPDEST POP SWAP1 POP PUSH2 0x192 SWAP2 SWAP1 PUSH2 0x196 JUMP JUMPDEST POP SWAP1 JUMP JUMPDEST JUMPDEST DUP1 DUP3 GT ISZERO PUSH2 0x1AD JUMPI PUSH0 DUP2 PUSH0 SWAP1 SSTORE POP PUSH1 0x1 ADD PUSH2 0x197 JUMP JUMPDEST POP SWAP1 JUMP JUMPDEST PUSH2 0x1C1 DUP1 PUSH2 0x1BE PUSH0 CODECOPY PUSH0 RETURN INVALID PUSH1 0x80 PUSH1 0x40 MSTORE CALLVALUE DUP1 ISZERO PUSH2 0xF JUMPI PUSH0 DUP1 REVERT JUMPDEST POP PUSH1 0x4 CALLDATASIZE LT PUSH2 0x29 JUMPI PUSH0 CALLDATALOAD PUSH1 0xE0 SHR DUP1 PUSH4 0x610D0E96 EQ PUSH2 0x2D JUMPI JUMPDEST PUSH0 DUP1 REVERT JUMPDEST PUSH2 0x47 PUSH1 0x4 DUP1 CALLDATASIZE SUB DUP2 ADD SWAP1 PUSH2 0x42 SWAP2 SWAP1 PUSH2 0xD8 JUMP JUMPDEST PUSH2 0x5F JUMP JUMPDEST PUSH1 0x40 MLOAD PUSH2 0x56 SWAP4 SWAP3 SWAP2 SWAP1 PUSH2 0x13D JUMP JUMPDEST PUSH1 0x40 MLOAD DUP1 SWAP2 SUB SWAP1 RETURN JUMPDEST PUSH0 DUP1 PUSH0 DUP1 DUP6 PUSH1 0x40 MLOAD PUSH1 0x20 ADD PUSH2 0x74 SWAP2 SWAP1 PUSH2 0x172 JUMP JUMPDEST PUSH1 0x40 MLOAD PUSH1 0x20 DUP2 DUP4 SUB SUB DUP2 MSTORE SWAP1 PUSH1 0x40 MSTORE DUP1 MLOAD SWAP1 PUSH1 0x20 ADD KECCAK256 SWAP1 POP DUP6 SLOAD SWAP2 POP DUP5 DUP2 ADD SLOAD SWAP4 POP DUP4 SWAP3 POP POP SWAP3 POP SWAP3 POP SWAP3 JUMP JUMPDEST PUSH0 DUP1 REVERT JUMPDEST PUSH0 DUP2 SWAP1 POP SWAP2 SWAP1 POP JUMP JUMPDEST PUSH2 0xB7 DUP2 PUSH2 0xA5 JUMP JUMPDEST DUP2 EQ PUSH2 0xC1 JUMPI PUSH0 DUP1 REVERT JUMPDEST POP JUMP JUMPDEST PUSH0 DUP2 CALLDATALOAD SWAP1 POP PUSH2 0xD2 DUP2 PUSH2 0xAE JUMP JUMPDEST SWAP3 SWAP2 POP POP JUMP JUMPDEST PUSH0 DUP1 PUSH1 0x40 DUP4 DUP6 SUB SLT ISZERO PUSH2 0xEE JUMPI PUSH2 0xED PUSH2 0xA1 JUMP JUMPDEST JUMPDEST PUSH0 PUSH2 0xFB DUP6 DUP3 DUP7 ADD PUSH2 0xC4 JUMP JUMPDEST SWAP3 POP POP PUSH1 0x20 PUSH2 0x10C DUP6 DUP3 DUP7 ADD PUSH2 0xC4 JUMP JUMPDEST SWAP2 POP POP SWAP3 POP SWAP3 SWAP1 POP JUMP JUMPDEST PUSH2 0x11F DUP2 PUSH2 0xA5 JUMP JUMPDEST DUP3 MSTORE POP POP JUMP JUMPDEST PUSH0 DUP2 SWAP1 POP SWAP2 SWAP1 POP JUMP JUMPDEST PUSH2 0x137 DUP2 PUSH2 0x125 JUMP JUMPDEST DUP3 MSTORE POP POP JUMP JUMPDEST PUSH0 PUSH1 0x60 DUP3 ADD SWAP1 POP PUSH2 0x150 PUSH0 DUP4 ADD DUP7 PUSH2 0x116 JUMP JUMPDEST PUSH2 0x15D PUSH1 0x20 DUP4 ADD DUP6 PUSH2 0x12E JUMP JUMPDEST PUSH2 0x16A PUSH1 0x40 DUP4 ADD DUP5 PUSH2 0x116 JUMP JUMPDEST SWAP5 SWAP4 POP POP POP POP JUMP JUMPDEST PUSH0 PUSH1 0x20 DUP3 ADD SWAP1 POP PUSH2 0x185 PUSH0 DUP4 ADD DUP5 PUSH2 0x116 JUMP JUMPDEST SWAP3 SWAP2 POP POP JUMP INVALID LOG2 PUSH5 0x6970667358 0x22 SLT KECCAK256 0xEB 0x21 CREATE2 DUP16 DUP8 0xC 0xE6 BYTE PUSH1 0xA PUSH26 0x3D49C4DB5266E010D51A41EC09BB00EDC0765E383264736F6C63 NUMBER STOP ADDMOD BYTE STOP CALLER "
		},
		"gasEstimates": {
			"creation": {
				"codeDepositCost": "89800",
				"executionCost": "infinite",
				"totalCost": "infinite"
			},
			"external": {
				"test_arr(uint256,uint256)": "infinite"
			}
		},
		"methodIdentifiers": {
			"test_arr(uint256,uint256)": "610d0e96"
		}
	},
	"abi": [
		{
			"inputs": [
				{
					"internalType": "uint256",
					"name": "slot",
					"type": "uint256"
				},
				{
					"internalType": "uint256",
					"name": "i",
					"type": "uint256"
				}
			],
			"name": "test_arr",
			"outputs": [
				{
					"internalType": "uint256",
					"name": "v",
					"type": "uint256"
				},
				{
					"internalType": "bytes32",
					"name": "b32",
					"type": "bytes32"
				},
				{
					"internalType": "uint256",
					"name": "len",
					"type": "uint256"
				}
			],
			"stateMutability": "view",
			"type": "function"
		}
	]
}