{
	"data": {
		"bytecode": {
			"linkReferences": {},
			"object": "6080604052348015600e575f80fd5b506105708061001c5f395ff3fe608060405234801561000f575f80fd5b50600436106100a7575f3560e01c80636c7594ff1161006f5780636c7594ff146101305780637ae697db1461014e5780639ebeb8eb1461016e578063ddc87aa11461018c578063e79aa60a146101aa578063fcc8e5e1146101b4576100a7565b80631dd66ebc146100ab57806322797bb1146100cc5780634f3080a9146100ea57806351a5467e146100f45780635c86ad7814610112575b5f80fd5b6100b36101d2565b6040516100c394939291906103b5565b60405180910390f35b6100d46101eb565b6040516100e19190610437565b60405180910390f35b6100f2610210565b005b6100fc61027a565b604051610109919061046e565b60405180910390f35b61011a61028f565b604051610127919061046e565b60405180910390f35b6101386102a5565b60405161014591906104a9565b60405180910390f35b6101566102be565b604051610165939291906104c2565b60405180910390f35b6101766102d1565b6040516101839190610521565b60405180910390f35b6101946102f0565b6040516101a191906104a9565b60405180910390f35b6101b261030a565b005b6101bc610388565b6040516101c9919061046e565b60405180910390f35b5f805f805f93506010925060189150601c905090919293565b60015f9054906101000a900473ffffffffffffffffffffffffffffffffffffffff1681565b5f5460018060801b03198082169150600b8217915060018060401b0360801b198083169250601660801b8317925060018060201b0360c01b198084169350602160c01b8417935060018060201b0360e01b198085169450602c60e01b85179450845f555050505050565b5f601c9054906101000a900463ffffffff1681565b6001601c9054906101000a900463ffffffff1681565b5f60109054906101000a900467ffffffffffffffff1681565b5f805f80925060149150601c9050909192565b5f8054906101000a90046fffffffffffffffffffffffffffffffff1681565b600160149054906101000a900467ffffffffffffffff1681565b5f5460018060801b03198082169150606f8217915060018060401b0360086010021b19808316925060de60086010021b8317925060018060201b0360086018021b19808416935061014d60086018021b8417935060018060201b036008601c021b1980851694506101bc6008601c021b85179450845f555050505050565b5f60189054906101000a900463ffffffff1681565b5f819050919050565b6103af8161039d565b82525050565b5f6080820190506103c85f8301876103a6565b6103d560208301866103a6565b6103e260408301856103a6565b6103ef60608301846103a6565b95945050505050565b5f73ffffffffffffffffffffffffffffffffffffffff82169050919050565b5f610421826103f8565b9050919050565b61043181610417565b82525050565b5f60208201905061044a5f830184610428565b92915050565b5f63ffffffff82169050919050565b61046881610450565b82525050565b5f6020820190506104815f83018461045f565b92915050565b5f67ffffffffffffffff82169050919050565b6104a381610487565b82525050565b5f6020820190506104bc5f83018461049a565b92915050565b5f6060820190506104d55f8301866103a6565b6104e260208301856103a6565b6104ef60408301846103a6565b949350505050565b5f6fffffffffffffffffffffffffffffffff82169050919050565b61051b816104f7565b82525050565b5f6020820190506105345f830184610512565b9291505056fea2646970667358221220fc59c5bec22dae66d0737b0136f43083612f49e502d0a33669e858df4b6f4ab464736f6c634300081a0033",
			"opcodes": "PUSH1 0x80 PUSH1 0x40 MSTORE CALLVALUE DUP1 ISZERO PUSH1 0xE JUMPI PUSH0 DUP1 REVERT JUMPDEST POP PUSH2 0x570 DUP1 PUSH2 0x1C PUSH0 CODECOPY PUSH0 RETURN INVALID PUSH1 0x80 PUSH1 0x40 MSTORE CALLVALUE DUP1 ISZERO PUSH2 0xF JUMPI PUSH0 DUP1 REVERT JUMPDEST POP PUSH1 0x4 CALLDATASIZE LT PUSH2 0xA7 JUMPI PUSH0 CALLDATALOAD PUSH1 0xE0 SHR DUP1 PUSH4 0x6C7594FF GT PUSH2 0x6F JUMPI DUP1 PUSH4 0x6C7594FF EQ PUSH2 0x130 JUMPI DUP1 PUSH4 0x7AE697DB EQ PUSH2 0x14E JUMPI DUP1 PUSH4 0x9EBEB8EB EQ PUSH2 0x16E JUMPI DUP1 PUSH4 0xDDC87AA1 EQ PUSH2 0x18C JUMPI DUP1 PUSH4 0xE79AA60A EQ PUSH2 0x1AA JUMPI DUP1 PUSH4 0xFCC8E5E1 EQ PUSH2 0x1B4 JUMPI PUSH2 0xA7 JUMP JUMPDEST DUP1 PUSH4 0x1DD66EBC EQ PUSH2 0xAB JUMPI DUP1 PUSH4 0x22797BB1 EQ PUSH2 0xCC JUMPI DUP1 PUSH4 0x4F3080A9 EQ PUSH2 0xEA JUMPI DUP1 PUSH4 0x51A5467E EQ PUSH2 0xF4 JUMPI DUP1 PUSH4 0x5C86AD78 EQ PUSH2 0x112 JUMPI JUMPDEST PUSH0 DUP1 REVERT JUMPDEST PUSH2 0xB3 PUSH2 0x1D2 JUMP JUMPDEST PUSH1 0x40 MLOAD PUSH2 0xC3 SWAP5 SWAP4 SWAP3 SWAP2 SWAP1 PUSH2 0x3B5 JUMP JUMPDEST PUSH1 0x40 MLOAD DUP1 SWAP2 SUB SWAP1 RETURN JUMPDEST PUSH2 0xD4 PUSH2 0x1EB JUMP JUMPDEST PUSH1 0x40 MLOAD PUSH2 0xE1 SWAP2 SWAP1 PUSH2 0x437 JUMP JUMPDEST PUSH1 0x40 MLOAD DUP1 SWAP2 SUB SWAP1 RETURN JUMPDEST PUSH2 0xF2 PUSH2 0x210 JUMP JUMPDEST STOP JUMPDEST PUSH2 0xFC PUSH2 0x27A JUMP JUMPDEST PUSH1 0x40 MLOAD PUSH2 0x109 SWAP2 SWAP1 PUSH2 0x46E JUMP JUMPDEST PUSH1 0x40 MLOAD DUP1 SWAP2 SUB SWAP1 RETURN JUMPDEST PUSH2 0x11A PUSH2 0x28F JUMP JUMPDEST PUSH1 0x40 MLOAD PUSH2 0x127 SWAP2 SWAP1 PUSH2 0x46E JUMP JUMPDEST PUSH1 0x40 MLOAD DUP1 SWAP2 SUB SWAP1 RETURN JUMPDEST PUSH2 0x138 PUSH2 0x2A5 JUMP JUMPDEST PUSH1 0x40 MLOAD PUSH2 0x145 SWAP2 SWAP1 PUSH2 0x4A9 JUMP JUMPDEST PUSH1 0x40 MLOAD DUP1 SWAP2 SUB SWAP1 RETURN JUMPDEST PUSH2 0x156 PUSH2 0x2BE JUMP JUMPDEST PUSH1 0x40 MLOAD PUSH2 0x165 SWAP4 SWAP3 SWAP2 SWAP1 PUSH2 0x4C2 JUMP JUMPDEST PUSH1 0x40 MLOAD DUP1 SWAP2 SUB SWAP1 RETURN JUMPDEST PUSH2 0x176 PUSH2 0x2D1 JUMP JUMPDEST PUSH1 0x40 MLOAD PUSH2 0x183 SWAP2 SWAP1 PUSH2 0x521 JUMP JUMPDEST PUSH1 0x40 MLOAD DUP1 SWAP2 SUB SWAP1 RETURN JUMPDEST PUSH2 0x194 PUSH2 0x2F0 JUMP JUMPDEST PUSH1 0x40 MLOAD PUSH2 0x1A1 SWAP2 SWAP1 PUSH2 0x4A9 JUMP JUMPDEST PUSH1 0x40 MLOAD DUP1 SWAP2 SUB SWAP1 RETURN JUMPDEST PUSH2 0x1B2 PUSH2 0x30A JUMP JUMPDEST STOP JUMPDEST PUSH2 0x1BC PUSH2 0x388 JUMP JUMPDEST PUSH1 0x40 MLOAD PUSH2 0x1C9 SWAP2 SWAP1 PUSH2 0x46E JUMP JUMPDEST PUSH1 0x40 MLOAD DUP1 SWAP2 SUB SWAP1 RETURN JUMPDEST PUSH0 DUP1 PUSH0 DUP1 PUSH0 SWAP4 POP PUSH1 0x10 SWAP3 POP PUSH1 0x18 SWAP2 POP PUSH1 0x1C SWAP1 POP SWAP1 SWAP2 SWAP3 SWAP4 JUMP JUMPDEST PUSH1 0x1 PUSH0 SWAP1 SLOAD SWAP1 PUSH2 0x100 EXP SWAP1 DIV PUSH20 0xFFFFFFFFFFFFFFFFFFFFFFFFFFFFFFFFFFFFFFFF AND DUP2 JUMP JUMPDEST PUSH0 SLOAD PUSH1 0x1 DUP1 PUSH1 0x80 SHL SUB NOT DUP1 DUP3 AND SWAP2 POP PUSH1 0xB DUP3 OR SWAP2 POP PUSH1 0x1 DUP1 PUSH1 0x40 SHL SUB PUSH1 0x80 SHL NOT DUP1 DUP4 AND SWAP3 POP PUSH1 0x16 PUSH1 0x80 SHL DUP4 OR SWAP3 POP PUSH1 0x1 DUP1 PUSH1 0x20 SHL SUB PUSH1 0xC0 SHL NOT DUP1 DUP5 AND SWAP4 POP PUSH1 0x21 PUSH1 0xC0 SHL DUP5 OR SWAP4 POP PUSH1 0x1 DUP1 PUSH1 0x20 SHL SUB PUSH1 0xE0 SHL NOT DUP1 DUP6 AND SWAP5 POP PUSH1 0x2C PUSH1 0xE0 SHL DUP6 OR SWAP5 POP DUP5 PUSH0 SSTORE POP POP POP POP POP JUMP JUMPDEST PUSH0 PUSH1 0x1C SWAP1 SLOAD SWAP1 PUSH2 0x100 EXP SWAP1 DIV PUSH4 0xFFFFFFFF AND DUP2 JUMP JUMPDEST PUSH1 0x1 PUSH1 0x1C SWAP1 SLOAD SWAP1 PUSH2 0x100 EXP SWAP1 DIV PUSH4 0xFFFFFFFF AND DUP2 JUMP JUMPDEST PUSH0 PUSH1 0x10 SWAP1 SLOAD SWAP1 PUSH2 0x100 EXP SWAP1 DIV PUSH8 0xFFFFFFFFFFFFFFFF AND DUP2 JUMP JUMPDEST PUSH0 DUP1 PUSH0 DUP1 SWAP3 POP PUSH1 0x14 SWAP2 POP PUSH1 0x1C SWAP1 POP SWAP1 SWAP2 SWAP3 JUMP JUMPDEST PUSH0 DUP1 SLOAD SWAP1 PUSH2 0x100 EXP SWAP1 DIV PUSH16 0xFFFFFFFFFFFFFFFFFFFFFFFFFFFFFFFF AND DUP2 JUMP JUMPDEST PUSH1 0x1 PUSH1 0x14 SWAP1 SLOAD SWAP1 PUSH2 0x100 EXP SWAP1 DIV PUSH8 0xFFFFFFFFFFFFFFFF AND DUP2 JUMP JUMPDEST PUSH0 SLOAD PUSH1 0x1 DUP1 PUSH1 0x80 SHL SUB NOT DUP1 DUP3 AND SWAP2 POP PUSH1 0x6F DUP3 OR SWAP2 POP PUSH1 0x1 DUP1 PUSH1 0x40 SHL SUB PUSH1 0x8 PUSH1 0x10 MUL SHL NOT DUP1 DUP4 AND SWAP3 POP PUSH1 0xDE PUSH1 0x8 PUSH1 0x10 MUL SHL DUP4 OR SWAP3 POP PUSH1 0x1 DUP1 PUSH1 0x20 SHL SUB PUSH1 0x8 PUSH1 0x18 MUL SHL NOT DUP1 DUP5 AND SWAP4 POP PUSH2 0x14D PUSH1 0x8 PUSH1 0x18 MUL SHL DUP5 OR SWAP4 POP PUSH1 0x1 DUP1 PUSH1 0x20 SHL SUB PUSH1 0x8 PUSH1 0x1C MUL SHL NOT DUP1 DUP6 AND SWAP5 POP PUSH2 0x1BC PUSH1 0x8 PUSH1 0x1C MUL SHL DUP6 OR SWAP5 POP DUP5 PUSH0 SSTORE POP POP POP POP POP JUMP JUMPDEST PUSH0 PUSH1 0x18 SWAP1 SLOAD SWAP1 PUSH2 0x100 EXP SWAP1 DIV PUSH4 0xFFFFFFFF AND DUP2 JUMP JUMPDEST PUSH0 DUP2 SWAP1 POP SWAP2 SWAP1 POP JUMP JUMPDEST PUSH2 0x3AF DUP2 PUSH2 0x39D JUMP JUMPDEST DUP3 MSTORE POP POP JUMP JUMPDEST PUSH0 PUSH1 0x80 DUP3 ADD SWAP1 POP PUSH2 0x3C8 PUSH0 DUP4 ADD DUP8 PUSH2 0x3A6 JUMP JUMPDEST PUSH2 0x3D5 PUSH1 0x20 DUP4 ADD DUP7 PUSH2 0x3A6 JUMP JUMPDEST PUSH2 0x3E2 PUSH1 0x40 DUP4 ADD DUP6 PUSH2 0x3A6 JUMP JUMPDEST PUSH2 0x3EF PUSH1 0x60 DUP4 ADD DUP5 PUSH2 0x3A6 JUMP JUMPDEST SWAP6 SWAP5 POP POP POP POP POP JUMP JUMPDEST PUSH0 PUSH20 0xFFFFFFFFFFFFFFFFFFFFFFFFFFFFFFFFFFFFFFFF DUP3 AND SWAP1 POP SWAP2 SWAP1 POP JUMP JUMPDEST PUSH0 PUSH2 0x421 DUP3 PUSH2 0x3F8 JUMP JUMPDEST SWAP1 POP SWAP2 SWAP1 POP JUMP JUMPDEST PUSH2 0x431 DUP2 PUSH2 0x417 JUMP JUMPDEST DUP3 MSTORE POP POP JUMP JUMPDEST PUSH0 PUSH1 0x20 DUP3 ADD SWAP1 POP PUSH2 0x44A PUSH0 DUP4 ADD DUP5 PUSH2 0x428 JUMP JUMPDEST SWAP3 SWAP2 POP POP JUMP JUMPDEST PUSH0 PUSH4 0xFFFFFFFF DUP3 AND SWAP1 POP SWAP2 SWAP1 POP JUMP JUMPDEST PUSH2 0x468 DUP2 PUSH2 0x450 JUMP JUMPDEST DUP3 MSTORE POP POP JUMP JUMPDEST PUSH0 PUSH1 0x20 DUP3 ADD SWAP1 POP PUSH2 0x481 PUSH0 DUP4 ADD DUP5 PUSH2 0x45F JUMP JUMPDEST SWAP3 SWAP2 POP POP JUMP JUMPDEST PUSH0 PUSH8 0xFFFFFFFFFFFFFFFF DUP3 AND SWAP1 POP SWAP2 SWAP1 POP JUMP JUMPDEST PUSH2 0x4A3 DUP2 PUSH2 0x487 JUMP JUMPDEST DUP3 MSTORE POP POP JUMP JUMPDEST PUSH0 PUSH1 0x20 DUP3 ADD SWAP1 POP PUSH2 0x4BC PUSH0 DUP4 ADD DUP5 PUSH2 0x49A JUMP JUMPDEST SWAP3 SWAP2 POP POP JUMP JUMPDEST PUSH0 PUSH1 0x60 DUP3 ADD SWAP1 POP PUSH2 0x4D5 PUSH0 DUP4 ADD DUP7 PUSH2 0x3A6 JUMP JUMPDEST PUSH2 0x4E2 PUSH1 0x20 DUP4 ADD DUP6 PUSH2 0x3A6 JUMP JUMPDEST PUSH2 0x4EF PUSH1 0x40 DUP4 ADD DUP5 PUSH2 0x3A6 JUMP JUMPDEST SWAP5 SWAP4 POP POP POP POP JUMP JUMPDEST PUSH0 PUSH16 0xFFFFFFFFFFFFFFFFFFFFFFFFFFFFFFFF DUP3 AND SWAP1 POP SWAP2 SWAP1 POP JUMP JUMPDEST PUSH2 0x51B DUP2 PUSH2 0x4F7 JUMP JUMPDEST DUP3 MSTORE POP POP JUMP JUMPDEST PUSH0 PUSH1 0x20 DUP3 ADD SWAP1 POP PUSH2 0x534 PUSH0 DUP4 ADD DUP5 PUSH2 0x512 JUMP JUMPDEST SWAP3 SWAP2 POP POP JUMP INVALID LOG2 PUSH5 0x6970667358 0x22 SLT KECCAK256 0xFC MSIZE 0xC5 0xBE 0xC2 0x2D 0xAE PUSH7 0xD0737B0136F430 DUP4 PUSH2 0x2F49 0xE5 MUL 0xD0 LOG3 CALLDATASIZE PUSH10 0xE858DF4B6F4AB464736F PUSH13 0x634300081A0033000000000000 "
		},
		"gasEstimates": {
			"creation": {
				"codeDepositCost": "278400",
				"executionCost": "316",
				"totalCost": "278716"
			},
			"external": {
				"s_a()": "2507",
				"s_addr()": "2531",
				"s_b()": "2516",
				"s_c()": "2626",
				"s_d()": "2583",
				"s_x()": "2583",
				"s_y()": "2606",
				"test_slot_0_offset()": "infinite",
				"test_slot_1_offset()": "infinite",
				"test_sstore()": "24625",
				"test_sstore_using_offset()": "24716"
			}
		},
		"methodIdentifiers": {
			"s_a()": "9ebeb8eb",
			"s_addr()": "22797bb1",
			"s_b()": "6c7594ff",
			"s_c()": "fcc8e5e1",
			"s_d()": "51a5467e",
			"s_x()": "ddc87aa1",
			"s_y()": "5c86ad78",
			"test_slot_0_offset()": "1dd66ebc",
			"test_slot_1_offset()": "7ae697db",
			"test_sstore()": "4f3080a9",
			"test_sstore_using_offset()": "e79aa60a"
		}
	},
	"abi": [
		{
			"inputs": [],
			"name": "s_a",
			"outputs": [
				{
					"internalType": "uint128",
					"name": "",
					"type": "uint128"
				}
			],
			"stateMutability": "view",
			"type": "function"
		},
		{
			"inputs": [],
			"name": "s_addr",
			"outputs": [
				{
					"internalType": "address",
					"name": "",
					"type": "address"
				}
			],
			"stateMutability": "view",
			"type": "function"
		},
		{
			"inputs": [],
			"name": "s_b",
			"outputs": [
				{
					"internalType": "uint64",
					"name": "",
					"type": "uint64"
				}
			],
			"stateMutability": "view",
			"type": "function"
		},
		{
			"inputs": [],
			"name": "s_c",
			"outputs": [
				{
					"internalType": "uint32",
					"name": "",
					"type": "uint32"
				}
			],
			"stateMutability": "view",
			"type": "function"
		},
		{
			"inputs": [],
			"name": "s_d",
			"outputs": [
				{
					"internalType": "uint32",
					"name": "",
					"type": "uint32"
				}
			],
			"stateMutability": "view",
			"type": "function"
		},
		{
			"inputs": [],
			"name": "s_x",
			"outputs": [
				{
					"internalType": "uint64",
					"name": "",
					"type": "uint64"
				}
			],
			"stateMutability": "view",
			"type": "function"
		},
		{
			"inputs": [],
			"name": "s_y",
			"outputs": [
				{
					"internalType": "uint32",
					"name": "",
					"type": "uint32"
				}
			],
			"stateMutability": "view",
			"type": "function"
		},
		{
			"inputs": [],
			"name": "test_slot_0_offset",
			"outputs": [
				{
					"internalType": "uint256",
					"name": "a_offset",
					"type": "uint256"
				},
				{
					"internalType": "uint256",
					"name": "b_offset",
					"type": "uint256"
				},
				{
					"internalType": "uint256",
					"name": "c_offset",
					"type": "uint256"
				},
				{
					"internalType": "uint256",
					"name": "d_offset",
					"type": "uint256"
				}
			],
			"stateMutability": "pure",
			"type": "function"
		},
		{
			"inputs": [],
			"name": "test_slot_1_offset",
			"outputs": [
				{
					"internalType": "uint256",
					"name": "addr_offset",
					"type": "uint256"
				},
				{
					"internalType": "uint256",
					"name": "x_offset",
					"type": "uint256"
				},
				{
					"internalType": "uint256",
					"name": "y_offset",
					"type": "uint256"
				}
			],
			"stateMutability": "pure",
			"type": "function"
		},
		{
			"inputs": [],
			"name": "test_sstore",
			"outputs": [],
			"stateMutability": "nonpayable",
			"type": "function"
		},
		{
			"inputs": [],
			"name": "test_sstore_using_offset",
			"outputs": [],
			"stateMutability": "nonpayable",
			"type": "function"
		}
	]
}