{
	"data": {
		"bytecode": {
			"linkReferences": {},
			"object": "6080604052604051806060016040528060016fffffffffffffffffffffffffffffffff168152602001600267ffffffffffffffff168152602001600367ffffffffffffffff168152505f80820151815f015f6101000a8154816fffffffffffffffffffffffffffffffff02191690836fffffffffffffffffffffffffffffffff1602179055506020820151815f0160106101000a81548167ffffffffffffffff021916908367ffffffffffffffff1602179055506040820151815f0160186101000a81548167ffffffffffffffff021916908367ffffffffffffffff16021790555050506040518060600160405280600b815260200160168152602001602181525060015f820151815f01556020820151816001015560408201518160020155505034801561012c575f80fd5b506102718061013a5f395ff3fe608060405234801561000f575f80fd5b506004361061004a575f3560e01c80631b8f5d501461004e5780634b031a991461006e578063ae0e621c1461008e578063de3e828e146100ae575b5f80fd5b6100566100ce565b60405161006593929190610185565b60405180910390f35b6100766100e5565b60405161008593929190610185565b60405180910390f35b6100966100fc565b6040516100a593929190610206565b60405180910390f35b6100b6610116565b6040516100c593929190610206565b60405180910390f35b6001805f0154908060010154908060020154905083565b5f805f600154925060025491506003549050909192565b5f805f80548093508060801c92508060c01c915050909192565b5f805f015f9054906101000a90046fffffffffffffffffffffffffffffffff1690805f0160109054906101000a900467ffffffffffffffff1690805f0160189054906101000a900467ffffffffffffffff16905083565b5f819050919050565b61017f8161016d565b82525050565b5f6060820190506101985f830186610176565b6101a56020830185610176565b6101b26040830184610176565b949350505050565b5f6fffffffffffffffffffffffffffffffff82169050919050565b6101de816101ba565b82525050565b5f67ffffffffffffffff82169050919050565b610200816101e4565b82525050565b5f6060820190506102195f8301866101d5565b61022660208301856101f7565b61023360408301846101f7565b94935050505056fea26469706673582212209b04414a43a3bdfb88a9e1f847bbcd35db6bcd689087238e2dd016aae78ef17864736f6c634300081a0033",
			"opcodes": "PUSH1 0x80 PUSH1 0x40 MSTORE PUSH1 0x40 MLOAD DUP1 PUSH1 0x60 ADD PUSH1 0x40 MSTORE DUP1 PUSH1 0x1 PUSH16 0xFFFFFFFFFFFFFFFFFFFFFFFFFFFFFFFF AND DUP2 MSTORE PUSH1 0x20 ADD PUSH1 0x2 PUSH8 0xFFFFFFFFFFFFFFFF AND DUP2 MSTORE PUSH1 0x20 ADD PUSH1 0x3 PUSH8 0xFFFFFFFFFFFFFFFF AND DUP2 MSTORE POP PUSH0 DUP1 DUP3 ADD MLOAD DUP2 PUSH0 ADD PUSH0 PUSH2 0x100 EXP DUP2 SLOAD DUP2 PUSH16 0xFFFFFFFFFFFFFFFFFFFFFFFFFFFFFFFF MUL NOT AND SWAP1 DUP4 PUSH16 0xFFFFFFFFFFFFFFFFFFFFFFFFFFFFFFFF AND MUL OR SWAP1 SSTORE POP PUSH1 0x20 DUP3 ADD MLOAD DUP2 PUSH0 ADD PUSH1 0x10 PUSH2 0x100 EXP DUP2 SLOAD DUP2 PUSH8 0xFFFFFFFFFFFFFFFF MUL NOT AND SWAP1 DUP4 PUSH8 0xFFFFFFFFFFFFFFFF AND MUL OR SWAP1 SSTORE POP PUSH1 0x40 DUP3 ADD MLOAD DUP2 PUSH0 ADD PUSH1 0x18 PUSH2 0x100 EXP DUP2 SLOAD DUP2 PUSH8 0xFFFFFFFFFFFFFFFF MUL NOT AND SWAP1 DUP4 PUSH8 0xFFFFFFFFFFFFFFFF AND MUL OR SWAP1 SSTORE POP POP POP PUSH1 0x40 MLOAD DUP1 PUSH1 0x60 ADD PUSH1 0x40 MSTORE DUP1 PUSH1 0xB DUP2 MSTORE PUSH1 0x20 ADD PUSH1 0x16 DUP2 MSTORE PUSH1 0x20 ADD PUSH1 0x21 DUP2 MSTORE POP PUSH1 0x1 PUSH0 DUP3 ADD MLOAD DUP2 PUSH0 ADD SSTORE PUSH1 0x20 DUP3 ADD MLOAD DUP2 PUSH1 0x1 ADD SSTORE PUSH1 0x40 DUP3 ADD MLOAD DUP2 PUSH1 0x2 ADD SSTORE POP POP CALLVALUE DUP1 ISZERO PUSH2 0x12C JUMPI PUSH0 DUP1 REVERT JUMPDEST POP PUSH2 0x271 DUP1 PUSH2 0x13A PUSH0 CODECOPY PUSH0 RETURN INVALID PUSH1 0x80 PUSH1 0x40 MSTORE CALLVALUE DUP1 ISZERO PUSH2 0xF JUMPI PUSH0 DUP1 REVERT JUMPDEST POP PUSH1 0x4 CALLDATASIZE LT PUSH2 0x4A JUMPI PUSH0 CALLDATALOAD PUSH1 0xE0 SHR DUP1 PUSH4 0x1B8F5D50 EQ PUSH2 0x4E JUMPI DUP1 PUSH4 0x4B031A99 EQ PUSH2 0x6E JUMPI DUP1 PUSH4 0xAE0E621C EQ PUSH2 0x8E JUMPI DUP1 PUSH4 0xDE3E828E EQ PUSH2 0xAE JUMPI JUMPDEST PUSH0 DUP1 REVERT JUMPDEST PUSH2 0x56 PUSH2 0xCE JUMP JUMPDEST PUSH1 0x40 MLOAD PUSH2 0x65 SWAP4 SWAP3 SWAP2 SWAP1 PUSH2 0x185 JUMP JUMPDEST PUSH1 0x40 MLOAD DUP1 SWAP2 SUB SWAP1 RETURN JUMPDEST PUSH2 0x76 PUSH2 0xE5 JUMP JUMPDEST PUSH1 0x40 MLOAD PUSH2 0x85 SWAP4 SWAP3 SWAP2 SWAP1 PUSH2 0x185 JUMP JUMPDEST PUSH1 0x40 MLOAD DUP1 SWAP2 SUB SWAP1 RETURN JUMPDEST PUSH2 0x96 PUSH2 0xFC JUMP JUMPDEST PUSH1 0x40 MLOAD PUSH2 0xA5 SWAP4 SWAP3 SWAP2 SWAP1 PUSH2 0x206 JUMP JUMPDEST PUSH1 0x40 MLOAD DUP1 SWAP2 SUB SWAP1 RETURN JUMPDEST PUSH2 0xB6 PUSH2 0x116 JUMP JUMPDEST PUSH1 0x40 MLOAD PUSH2 0xC5 SWAP4 SWAP3 SWAP2 SWAP1 PUSH2 0x206 JUMP JUMPDEST PUSH1 0x40 MLOAD DUP1 SWAP2 SUB SWAP1 RETURN JUMPDEST PUSH1 0x1 DUP1 PUSH0 ADD SLOAD SWAP1 DUP1 PUSH1 0x1 ADD SLOAD SWAP1 DUP1 PUSH1 0x2 ADD SLOAD SWAP1 POP DUP4 JUMP JUMPDEST PUSH0 DUP1 PUSH0 PUSH1 0x1 SLOAD SWAP3 POP PUSH1 0x2 SLOAD SWAP2 POP PUSH1 0x3 SLOAD SWAP1 POP SWAP1 SWAP2 SWAP3 JUMP JUMPDEST PUSH0 DUP1 PUSH0 DUP1 SLOAD DUP1 SWAP4 POP DUP1 PUSH1 0x80 SHR SWAP3 POP DUP1 PUSH1 0xC0 SHR SWAP2 POP POP SWAP1 SWAP2 SWAP3 JUMP JUMPDEST PUSH0 DUP1 PUSH0 ADD PUSH0 SWAP1 SLOAD SWAP1 PUSH2 0x100 EXP SWAP1 DIV PUSH16 0xFFFFFFFFFFFFFFFFFFFFFFFFFFFFFFFF AND SWAP1 DUP1 PUSH0 ADD PUSH1 0x10 SWAP1 SLOAD SWAP1 PUSH2 0x100 EXP SWAP1 DIV PUSH8 0xFFFFFFFFFFFFFFFF AND SWAP1 DUP1 PUSH0 ADD PUSH1 0x18 SWAP1 SLOAD SWAP1 PUSH2 0x100 EXP SWAP1 DIV PUSH8 0xFFFFFFFFFFFFFFFF AND SWAP1 POP DUP4 JUMP JUMPDEST PUSH0 DUP2 SWAP1 POP SWAP2 SWAP1 POP JUMP JUMPDEST PUSH2 0x17F DUP2 PUSH2 0x16D JUMP JUMPDEST DUP3 MSTORE POP POP JUMP JUMPDEST PUSH0 PUSH1 0x60 DUP3 ADD SWAP1 POP PUSH2 0x198 PUSH0 DUP4 ADD DUP7 PUSH2 0x176 JUMP JUMPDEST PUSH2 0x1A5 PUSH1 0x20 DUP4 ADD DUP6 PUSH2 0x176 JUMP JUMPDEST PUSH2 0x1B2 PUSH1 0x40 DUP4 ADD DUP5 PUSH2 0x176 JUMP JUMPDEST SWAP5 SWAP4 POP POP POP POP JUMP JUMPDEST PUSH0 PUSH16 0xFFFFFFFFFFFFFFFFFFFFFFFFFFFFFFFF DUP3 AND SWAP1 POP SWAP2 SWAP1 POP JUMP JUMPDEST PUSH2 0x1DE DUP2 PUSH2 0x1BA JUMP JUMPDEST DUP3 MSTORE POP POP JUMP JUMPDEST PUSH0 PUSH8 0xFFFFFFFFFFFFFFFF DUP3 AND SWAP1 POP SWAP2 SWAP1 POP JUMP JUMPDEST PUSH2 0x200 DUP2 PUSH2 0x1E4 JUMP JUMPDEST DUP3 MSTORE POP POP JUMP JUMPDEST PUSH0 PUSH1 0x60 DUP3 ADD SWAP1 POP PUSH2 0x219 PUSH0 DUP4 ADD DUP7 PUSH2 0x1D5 JUMP JUMPDEST PUSH2 0x226 PUSH1 0x20 DUP4 ADD DUP6 PUSH2 0x1F7 JUMP JUMPDEST PUSH2 0x233 PUSH1 0x40 DUP4 ADD DUP5 PUSH2 0x1F7 JUMP JUMPDEST SWAP5 SWAP4 POP POP POP POP JUMP INVALID LOG2 PUSH5 0x6970667358 0x22 SLT KECCAK256 SWAP12 DIV COINBASE BLOBBASEFEE NUMBER LOG3 0xBD 0xFB DUP9 0xA9 0xE1 0xF8 SELFBALANCE 0xBB 0xCD CALLDATALOAD 0xDB PUSH12 0xCD689087238E2DD016AAE78E CALL PUSH25 0x64736F6C634300081A00330000000000000000000000000000 "
		},
		"gasEstimates": {
			"creation": {
				"codeDepositCost": "125000",
				"executionCost": "139633",
				"totalCost": "264633"
			},
			"external": {
				"multi()": "infinite",
				"single()": "infinite",
				"test_get_multiple_slot_structs()": "infinite",
				"test_get_single_slot_struct()": "infinite"
			}
		},
		"methodIdentifiers": {
			"multi()": "1b8f5d50",
			"single()": "de3e828e",
			"test_get_multiple_slot_structs()": "4b031a99",
			"test_get_single_slot_struct()": "ae0e621c"
		}
	},
	"abi": [
		{
			"inputs": [],
			"name": "multi",
			"outputs": [
				{
					"internalType": "uint256",
					"name": "a",
					"type": "uint256"
				},
				{
					"internalType": "uint256",
					"name": "b",
					"type": "uint256"
				},
				{
					"internalType": "uint256",
					"name": "c",
					"type": "uint256"
				}
			],
			"stateMutability": "view",
			"type": "function"
		},
		{
			"inputs": [],
			"name": "single",
			"outputs": [
				{
					"internalType": "uint128",
					"name": "x",
					"type": "uint128"
				},
				{
					"internalType": "uint64",
					"name": "y",
					"type": "uint64"
				},
				{
					"internalType": "uint64",
					"name": "z",
					"type": "uint64"
				}
			],
			"stateMutability": "view",
			"type": "function"
		},
		{
			"inputs": [],
			"name": "test_get_multiple_slot_structs",
			"outputs": [
				{
					"internalType": "uint256",
					"name": "a",
					"type": "uint256"
				},
				{
					"internalType": "uint256",
					"name": "b",
					"type": "uint256"
				},
				{
					"internalType": "uint256",
					"name": "c",
					"type": "uint256"
				}
			],
			"stateMutability": "view",
			"type": "function"
		},
		{
			"inputs": [],
			"name": "test_get_single_slot_struct",
			"outputs": [
				{
					"internalType": "uint128",
					"name": "x",
					"type": "uint128"
				},
				{
					"internalType": "uint64",
					"name": "y",
					"type": "uint64"
				},
				{
					"internalType": "uint64",
					"name": "z",
					"type": "uint64"
				}
			],
			"stateMutability": "view",
			"type": "function"
		}
	]
}