{
	"data": {
		"bytecode": {
			"linkReferences": {},
			"object": "6080604052348015600e575f80fd5b5060e08061001b5f395ff3fe6080604052348015600e575f80fd5b50600436106030575f3560e01c8063663bc990146034578063899eb49c14604e575b5f80fd5b603a6056565b604051604591906093565b60405180910390f35b60546068565b005b5f60405162ababab8152805191505090565b60115f52602260015260336002526044600352565b5f819050919050565b608d81607d565b82525050565b5f60208201905060a45f8301846086565b9291505056fea2646970667358221220ef955c474ff1daaba6ada4025ba3b1ef010ba14d264f520e0ba3086f53e4329164736f6c634300081a0033",
			"opcodes": "PUSH1 0x80 PUSH1 0x40 MSTORE CALLVALUE DUP1 ISZERO PUSH1 0xE JUMPI PUSH0 DUP1 REVERT JUMPDEST POP PUSH1 0xE0 DUP1 PUSH2 0x1B PUSH0 CODECOPY PUSH0 RETURN INVALID PUSH1 0x80 PUSH1 0x40 MSTORE CALLVALUE DUP1 ISZERO PUSH1 0xE JUMPI PUSH0 DUP1 REVERT JUMPDEST POP PUSH1 0x4 CALLDATASIZE LT PUSH1 0x30 JUMPI PUSH0 CALLDATALOAD PUSH1 0xE0 SHR DUP1 PUSH4 0x663BC990 EQ PUSH1 0x34 JUMPI DUP1 PUSH4 0x899EB49C EQ PUSH1 0x4E JUMPI JUMPDEST PUSH0 DUP1 REVERT JUMPDEST PUSH1 0x3A PUSH1 0x56 JUMP JUMPDEST PUSH1 0x40 MLOAD PUSH1 0x45 SWAP2 SWAP1 PUSH1 0x93 JUMP JUMPDEST PUSH1 0x40 MLOAD DUP1 SWAP2 SUB SWAP1 RETURN JUMPDEST PUSH1 0x54 PUSH1 0x68 JUMP JUMPDEST STOP JUMPDEST PUSH0 PUSH1 0x40 MLOAD PUSH3 0xABABAB DUP2 MSTORE DUP1 MLOAD SWAP2 POP POP SWAP1 JUMP JUMPDEST PUSH1 0x11 PUSH0 MSTORE PUSH1 0x22 PUSH1 0x1 MSTORE PUSH1 0x33 PUSH1 0x2 MSTORE PUSH1 0x44 PUSH1 0x3 MSTORE JUMP JUMPDEST PUSH0 DUP2 SWAP1 POP SWAP2 SWAP1 POP JUMP JUMPDEST PUSH1 0x8D DUP2 PUSH1 0x7D JUMP JUMPDEST DUP3 MSTORE POP POP JUMP JUMPDEST PUSH0 PUSH1 0x20 DUP3 ADD SWAP1 POP PUSH1 0xA4 PUSH0 DUP4 ADD DUP5 PUSH1 0x86 JUMP JUMPDEST SWAP3 SWAP2 POP POP JUMP INVALID LOG2 PUSH5 0x6970667358 0x22 SLT KECCAK256 0xEF SWAP6 TLOAD SELFBALANCE 0x4F CALL 0xDA 0xAB 0xA6 0xAD LOG4 MUL JUMPDEST LOG3 0xB1 0xEF ADD SIGNEXTEND LOG1 0x4D 0x26 0x4F MSTORE 0xE SIGNEXTEND LOG3 ADDMOD PUSH16 0x53E4329164736F6C634300081A003300 "
		},
		"gasEstimates": {
			"creation": {
				"codeDepositCost": "44800",
				"executionCost": "91",
				"totalCost": "44891"
			},
			"external": {
				"test_1()": "330",
				"test_2()": "178"
			}
		},
		"methodIdentifiers": {
			"test_1()": "663bc990",
			"test_2()": "899eb49c"
		}
	},
	"abi": [
		{
			"inputs": [],
			"name": "test_1",
			"outputs": [
				{
					"internalType": "bytes32",
					"name": "b32",
					"type": "bytes32"
				}
			],
			"stateMutability": "pure",
			"type": "function"
		},
		{
			"inputs": [],
			"name": "test_2",
			"outputs": [],
			"stateMutability": "pure",
			"type": "function"
		}
	]
}