{
	"data": {
		"bytecode": {
			"linkReferences": {},
			"object": "6080604052348015600e575f80fd5b5061040b8061001c5f395ff3fe608060405234801561000f575f80fd5b5060043610610034575f3560e01c8063831d520d14610038578063c74bf03d1461005a575b5f80fd5b610040610079565b604051610051959493929190610245565b60405180910390f35b610062610198565b60405161007092919061034d565b60405180910390f35b5f805f805f80600567ffffffffffffffff81111561009a5761009961037b565b5b6040519080825280602002602001820160405280156100c85781602001602082028036833780820191505090505b509050600b815f815181106100e0576100df6103a8565b5b602002602001018181525050601681600181518110610102576101016103a8565b5b602002602001018181525050602181600281518110610124576101236103a8565b5b602002602001018181525050602c81600381518110610146576101456103a8565b5b602002602001018181525050603781600481518110610168576101676103a8565b5b60200260200101818152505080955080519450602081015193506040810151925060608101519150509091929394565b5f60605f8067ffffffffffffffff8111156101b6576101b561037b565b5b6040519080825280602002602001820160405280156101e45781602001602082028036833780820191505090505b50905080925060038152600b6020820152601660408201526021606082015260808101604052828192509250509091565b5f819050919050565b61022781610215565b82525050565b5f819050919050565b61023f8161022d565b82525050565b5f60a0820190506102585f83018861021e565b6102656020830187610236565b6102726040830186610236565b61027f6060830185610236565b61028c6080830184610236565b9695505050505050565b5f81519050919050565b5f82825260208201905092915050565b5f819050602082019050919050565b6102c88161022d565b82525050565b5f6102d983836102bf565b60208301905092915050565b5f602082019050919050565b5f6102fb82610296565b61030581856102a0565b9350610310836102b0565b805f5b8381101561034057815161032788826102ce565b9750610332836102e5565b925050600181019050610313565b5085935050505092915050565b5f6040820190506103605f83018561021e565b818103602083015261037281846102f1565b90509392505050565b7f4e487b71000000000000000000000000000000000000000000000000000000005f52604160045260245ffd5b7f4e487b71000000000000000000000000000000000000000000000000000000005f52603260045260245ffdfea2646970667358221220f1038517f75ce41991cc45edeb00c0371ccf4b2526ce5124a8c3fd0d1232b71564736f6c634300081a0033",
			"opcodes": "PUSH1 0x80 PUSH1 0x40 MSTORE CALLVALUE DUP1 ISZERO PUSH1 0xE JUMPI PUSH0 DUP1 REVERT JUMPDEST POP PUSH2 0x40B DUP1 PUSH2 0x1C PUSH0 CODECOPY PUSH0 RETURN INVALID PUSH1 0x80 PUSH1 0x40 MSTORE CALLVALUE DUP1 ISZERO PUSH2 0xF JUMPI PUSH0 DUP1 REVERT JUMPDEST POP PUSH1 0x4 CALLDATASIZE LT PUSH2 0x34 JUMPI PUSH0 CALLDATALOAD PUSH1 0xE0 SHR DUP1 PUSH4 0x831D520D EQ PUSH2 0x38 JUMPI DUP1 PUSH4 0xC74BF03D EQ PUSH2 0x5A JUMPI JUMPDEST PUSH0 DUP1 REVERT JUMPDEST PUSH2 0x40 PUSH2 0x79 JUMP JUMPDEST PUSH1 0x40 MLOAD PUSH2 0x51 SWAP6 SWAP5 SWAP4 SWAP3 SWAP2 SWAP1 PUSH2 0x245 JUMP JUMPDEST PUSH1 0x40 MLOAD DUP1 SWAP2 SUB SWAP1 RETURN JUMPDEST PUSH2 0x62 PUSH2 0x198 JUMP JUMPDEST PUSH1 0x40 MLOAD PUSH2 0x70 SWAP3 SWAP2 SWAP1 PUSH2 0x34D JUMP JUMPDEST PUSH1 0x40 MLOAD DUP1 SWAP2 SUB SWAP1 RETURN JUMPDEST PUSH0 DUP1 PUSH0 DUP1 PUSH0 DUP1 PUSH1 0x5 PUSH8 0xFFFFFFFFFFFFFFFF DUP2 GT ISZERO PUSH2 0x9A JUMPI PUSH2 0x99 PUSH2 0x37B JUMP JUMPDEST JUMPDEST PUSH1 0x40 MLOAD SWAP1 DUP1 DUP3 MSTORE DUP1 PUSH1 0x20 MUL PUSH1 0x20 ADD DUP3 ADD PUSH1 0x40 MSTORE DUP1 ISZERO PUSH2 0xC8 JUMPI DUP2 PUSH1 0x20 ADD PUSH1 0x20 DUP3 MUL DUP1 CALLDATASIZE DUP4 CALLDATACOPY DUP1 DUP3 ADD SWAP2 POP POP SWAP1 POP JUMPDEST POP SWAP1 POP PUSH1 0xB DUP2 PUSH0 DUP2 MLOAD DUP2 LT PUSH2 0xE0 JUMPI PUSH2 0xDF PUSH2 0x3A8 JUMP JUMPDEST JUMPDEST PUSH1 0x20 MUL PUSH1 0x20 ADD ADD DUP2 DUP2 MSTORE POP POP PUSH1 0x16 DUP2 PUSH1 0x1 DUP2 MLOAD DUP2 LT PUSH2 0x102 JUMPI PUSH2 0x101 PUSH2 0x3A8 JUMP JUMPDEST JUMPDEST PUSH1 0x20 MUL PUSH1 0x20 ADD ADD DUP2 DUP2 MSTORE POP POP PUSH1 0x21 DUP2 PUSH1 0x2 DUP2 MLOAD DUP2 LT PUSH2 0x124 JUMPI PUSH2 0x123 PUSH2 0x3A8 JUMP JUMPDEST JUMPDEST PUSH1 0x20 MUL PUSH1 0x20 ADD ADD DUP2 DUP2 MSTORE POP POP PUSH1 0x2C DUP2 PUSH1 0x3 DUP2 MLOAD DUP2 LT PUSH2 0x146 JUMPI PUSH2 0x145 PUSH2 0x3A8 JUMP JUMPDEST JUMPDEST PUSH1 0x20 MUL PUSH1 0x20 ADD ADD DUP2 DUP2 MSTORE POP POP PUSH1 0x37 DUP2 PUSH1 0x4 DUP2 MLOAD DUP2 LT PUSH2 0x168 JUMPI PUSH2 0x167 PUSH2 0x3A8 JUMP JUMPDEST JUMPDEST PUSH1 0x20 MUL PUSH1 0x20 ADD ADD DUP2 DUP2 MSTORE POP POP DUP1 SWAP6 POP DUP1 MLOAD SWAP5 POP PUSH1 0x20 DUP2 ADD MLOAD SWAP4 POP PUSH1 0x40 DUP2 ADD MLOAD SWAP3 POP PUSH1 0x60 DUP2 ADD MLOAD SWAP2 POP POP SWAP1 SWAP2 SWAP3 SWAP4 SWAP5 JUMP JUMPDEST PUSH0 PUSH1 0x60 PUSH0 DUP1 PUSH8 0xFFFFFFFFFFFFFFFF DUP2 GT ISZERO PUSH2 0x1B6 JUMPI PUSH2 0x1B5 PUSH2 0x37B JUMP JUMPDEST JUMPDEST PUSH1 0x40 MLOAD SWAP1 DUP1 DUP3 MSTORE DUP1 PUSH1 0x20 MUL PUSH1 0x20 ADD DUP3 ADD PUSH1 0x40 MSTORE DUP1 ISZERO PUSH2 0x1E4 JUMPI DUP2 PUSH1 0x20 ADD PUSH1 0x20 DUP3 MUL DUP1 CALLDATASIZE DUP4 CALLDATACOPY DUP1 DUP3 ADD SWAP2 POP POP SWAP1 POP JUMPDEST POP SWAP1 POP DUP1 SWAP3 POP PUSH1 0x3 DUP2 MSTORE PUSH1 0xB PUSH1 0x20 DUP3 ADD MSTORE PUSH1 0x16 PUSH1 0x40 DUP3 ADD MSTORE PUSH1 0x21 PUSH1 0x60 DUP3 ADD MSTORE PUSH1 0x80 DUP2 ADD PUSH1 0x40 MSTORE DUP3 DUP2 SWAP3 POP SWAP3 POP POP SWAP1 SWAP2 JUMP JUMPDEST PUSH0 DUP2 SWAP1 POP SWAP2 SWAP1 POP JUMP JUMPDEST PUSH2 0x227 DUP2 PUSH2 0x215 JUMP JUMPDEST DUP3 MSTORE POP POP JUMP JUMPDEST PUSH0 DUP2 SWAP1 POP SWAP2 SWAP1 POP JUMP JUMPDEST PUSH2 0x23F DUP2 PUSH2 0x22D JUMP JUMPDEST DUP3 MSTORE POP POP JUMP JUMPDEST PUSH0 PUSH1 0xA0 DUP3 ADD SWAP1 POP PUSH2 0x258 PUSH0 DUP4 ADD DUP9 PUSH2 0x21E JUMP JUMPDEST PUSH2 0x265 PUSH1 0x20 DUP4 ADD DUP8 PUSH2 0x236 JUMP JUMPDEST PUSH2 0x272 PUSH1 0x40 DUP4 ADD DUP7 PUSH2 0x236 JUMP JUMPDEST PUSH2 0x27F PUSH1 0x60 DUP4 ADD DUP6 PUSH2 0x236 JUMP JUMPDEST PUSH2 0x28C PUSH1 0x80 DUP4 ADD DUP5 PUSH2 0x236 JUMP JUMPDEST SWAP7 SWAP6 POP POP POP POP POP POP JUMP JUMPDEST PUSH0 DUP2 MLOAD SWAP1 POP SWAP2 SWAP1 POP JUMP JUMPDEST PUSH0 DUP3 DUP3 MSTORE PUSH1 0x20 DUP3 ADD SWAP1 POP SWAP3 SWAP2 POP POP JUMP JUMPDEST PUSH0 DUP2 SWAP1 POP PUSH1 0x20 DUP3 ADD SWAP1 POP SWAP2 SWAP1 POP JUMP JUMPDEST PUSH2 0x2C8 DUP2 PUSH2 0x22D JUMP JUMPDEST DUP3 MSTORE POP POP JUMP JUMPDEST PUSH0 PUSH2 0x2D9 DUP4 DUP4 PUSH2 0x2BF JUMP JUMPDEST PUSH1 0x20 DUP4 ADD SWAP1 POP SWAP3 SWAP2 POP POP JUMP JUMPDEST PUSH0 PUSH1 0x20 DUP3 ADD SWAP1 POP SWAP2 SWAP1 POP JUMP JUMPDEST PUSH0 PUSH2 0x2FB DUP3 PUSH2 0x296 JUMP JUMPDEST PUSH2 0x305 DUP2 DUP6 PUSH2 0x2A0 JUMP JUMPDEST SWAP4 POP PUSH2 0x310 DUP4 PUSH2 0x2B0 JUMP JUMPDEST DUP1 PUSH0 JUMPDEST DUP4 DUP2 LT ISZERO PUSH2 0x340 JUMPI DUP2 MLOAD PUSH2 0x327 DUP9 DUP3 PUSH2 0x2CE JUMP JUMPDEST SWAP8 POP PUSH2 0x332 DUP4 PUSH2 0x2E5 JUMP JUMPDEST SWAP3 POP POP PUSH1 0x1 DUP2 ADD SWAP1 POP PUSH2 0x313 JUMP JUMPDEST POP DUP6 SWAP4 POP POP POP POP SWAP3 SWAP2 POP POP JUMP JUMPDEST PUSH0 PUSH1 0x40 DUP3 ADD SWAP1 POP PUSH2 0x360 PUSH0 DUP4 ADD DUP6 PUSH2 0x21E JUMP JUMPDEST DUP2 DUP2 SUB PUSH1 0x20 DUP4 ADD MSTORE PUSH2 0x372 DUP2 DUP5 PUSH2 0x2F1 JUMP JUMPDEST SWAP1 POP SWAP4 SWAP3 POP POP POP JUMP JUMPDEST PUSH32 0x4E487B7100000000000000000000000000000000000000000000000000000000 PUSH0 MSTORE PUSH1 0x41 PUSH1 0x4 MSTORE PUSH1 0x24 PUSH0 REVERT JUMPDEST PUSH32 0x4E487B7100000000000000000000000000000000000000000000000000000000 PUSH0 MSTORE PUSH1 0x32 PUSH1 0x4 MSTORE PUSH1 0x24 PUSH0 REVERT INVALID LOG2 PUSH5 0x6970667358 0x22 SLT KECCAK256 CALL SUB DUP6 OR 0xF7 TLOAD 0xE4 NOT SWAP2 0xCC GASLIMIT 0xED 0xEB STOP 0xC0 CALLDATACOPY SHR 0xCF 0x4B 0x25 0x26 0xCE MLOAD 0x24 0xA8 0xC3 REVERT 0xD SLT ORIGIN 0xB7 ISZERO PUSH5 0x736F6C6343 STOP ADDMOD BYTE STOP CALLER "
		},
		"gasEstimates": {
			"creation": {
				"codeDepositCost": "207000",
				"executionCost": "249",
				"totalCost": "207249"
			},
			"external": {
				"test_read()": "infinite",
				"test_write()": "infinite"
			}
		},
		"methodIdentifiers": {
			"test_read()": "831d520d",
			"test_write()": "c74bf03d"
		}
	},
	"abi": [
		{
			"inputs": [],
			"name": "test_read",
			"outputs": [
				{
					"internalType": "bytes32",
					"name": "p",
					"type": "bytes32"
				},
				{
					"internalType": "uint256",
					"name": "len",
					"type": "uint256"
				},
				{
					"internalType": "uint256",
					"name": "a0",
					"type": "uint256"
				},
				{
					"internalType": "uint256",
					"name": "a1",
					"type": "uint256"
				},
				{
					"internalType": "uint256",
					"name": "a2",
					"type": "uint256"
				}
			],
			"stateMutability": "pure",
			"type": "function"
		},
		{
			"inputs": [],
			"name": "test_write",
			"outputs": [
				{
					"internalType": "bytes32",
					"name": "p",
					"type": "bytes32"
				},
				{
					"internalType": "uint256[]",
					"name": "",
					"type": "uint256[]"
				}
			],
			"stateMutability": "pure",
			"type": "function"
		}
	]
}