{
	"data": {
		"bytecode": {
			"linkReferences": {},
			"object": "6080604052348015600e575f80fd5b506102158061001c5f395ff3fe608060405234801561000f575f80fd5b5060043610610029575f3560e01c806337278d8b1461002d575b5f80fd5b610047600480360381019061004291906100ff565b61005d565b6040516100549190610139565b60405180910390f35b5f805a90505f8367ffffffffffffffff81111561007d5761007c610152565b5b6040519080825280602002602001820160405280156100ab5781602001602082028036833780820191505090505b5090505f5a905080836100be91906101ac565b9350505050919050565b5f80fd5b5f819050919050565b6100de816100cc565b81146100e8575f80fd5b50565b5f813590506100f9816100d5565b92915050565b5f60208284031215610114576101136100c8565b5b5f610121848285016100eb565b91505092915050565b610133816100cc565b82525050565b5f60208201905061014c5f83018461012a565b92915050565b7f4e487b71000000000000000000000000000000000000000000000000000000005f52604160045260245ffd5b7f4e487b71000000000000000000000000000000000000000000000000000000005f52601160045260245ffd5b5f6101b6826100cc565b91506101c1836100cc565b92508282039050818111156101d9576101d861017f565b5b9291505056fea2646970667358221220e0bcf0960a5ee8448109821db265fc98ad5896447d0e10fe802d1c606d6eb74964736f6c634300081a0033",
			"opcodes": "PUSH1 0x80 PUSH1 0x40 MSTORE CALLVALUE DUP1 ISZERO PUSH1 0xE JUMPI PUSH0 DUP1 REVERT JUMPDEST POP PUSH2 0x215 DUP1 PUSH2 0x1C PUSH0 CODECOPY PUSH0 RETURN INVALID PUSH1 0x80 PUSH1 0x40 MSTORE CALLVALUE DUP1 ISZERO PUSH2 0xF JUMPI PUSH0 DUP1 REVERT JUMPDEST POP PUSH1 0x4 CALLDATASIZE LT PUSH2 0x29 JUMPI PUSH0 CALLDATALOAD PUSH1 0xE0 SHR DUP1 PUSH4 0x37278D8B EQ PUSH2 0x2D JUMPI JUMPDEST PUSH0 DUP1 REVERT JUMPDEST PUSH2 0x47 PUSH1 0x4 DUP1 CALLDATASIZE SUB DUP2 ADD SWAP1 PUSH2 0x42 SWAP2 SWAP1 PUSH2 0xFF JUMP JUMPDEST PUSH2 0x5D JUMP JUMPDEST PUSH1 0x40 MLOAD PUSH2 0x54 SWAP2 SWAP1 PUSH2 0x139 JUMP JUMPDEST PUSH1 0x40 MLOAD DUP1 SWAP2 SUB SWAP1 RETURN JUMPDEST PUSH0 DUP1 GAS SWAP1 POP PUSH0 DUP4 PUSH8 0xFFFFFFFFFFFFFFFF DUP2 GT ISZERO PUSH2 0x7D JUMPI PUSH2 0x7C PUSH2 0x152 JUMP JUMPDEST JUMPDEST PUSH1 0x40 MLOAD SWAP1 DUP1 DUP3 MSTORE DUP1 PUSH1 0x20 MUL PUSH1 0x20 ADD DUP3 ADD PUSH1 0x40 MSTORE DUP1 ISZERO PUSH2 0xAB JUMPI DUP2 PUSH1 0x20 ADD PUSH1 0x20 DUP3 MUL DUP1 CALLDATASIZE DUP4 CALLDATACOPY DUP1 DUP3 ADD SWAP2 POP POP SWAP1 POP JUMPDEST POP SWAP1 POP PUSH0 GAS SWAP1 POP DUP1 DUP4 PUSH2 0xBE SWAP2 SWAP1 PUSH2 0x1AC JUMP JUMPDEST SWAP4 POP POP POP POP SWAP2 SWAP1 POP JUMP JUMPDEST PUSH0 DUP1 REVERT JUMPDEST PUSH0 DUP2 SWAP1 POP SWAP2 SWAP1 POP JUMP JUMPDEST PUSH2 0xDE DUP2 PUSH2 0xCC JUMP JUMPDEST DUP2 EQ PUSH2 0xE8 JUMPI PUSH0 DUP1 REVERT JUMPDEST POP JUMP JUMPDEST PUSH0 DUP2 CALLDATALOAD SWAP1 POP PUSH2 0xF9 DUP2 PUSH2 0xD5 JUMP JUMPDEST SWAP3 SWAP2 POP POP JUMP JUMPDEST PUSH0 PUSH1 0x20 DUP3 DUP5 SUB SLT ISZERO PUSH2 0x114 JUMPI PUSH2 0x113 PUSH2 0xC8 JUMP JUMPDEST JUMPDEST PUSH0 PUSH2 0x121 DUP5 DUP3 DUP6 ADD PUSH2 0xEB JUMP JUMPDEST SWAP2 POP POP SWAP3 SWAP2 POP POP JUMP JUMPDEST PUSH2 0x133 DUP2 PUSH2 0xCC JUMP JUMPDEST DUP3 MSTORE POP POP JUMP JUMPDEST PUSH0 PUSH1 0x20 DUP3 ADD SWAP1 POP PUSH2 0x14C PUSH0 DUP4 ADD DUP5 PUSH2 0x12A JUMP JUMPDEST SWAP3 SWAP2 POP POP JUMP JUMPDEST PUSH32 0x4E487B7100000000000000000000000000000000000000000000000000000000 PUSH0 MSTORE PUSH1 0x41 PUSH1 0x4 MSTORE PUSH1 0x24 PUSH0 REVERT JUMPDEST PUSH32 0x4E487B7100000000000000000000000000000000000000000000000000000000 PUSH0 MSTORE PUSH1 0x11 PUSH1 0x4 MSTORE PUSH1 0x24 PUSH0 REVERT JUMPDEST PUSH0 PUSH2 0x1B6 DUP3 PUSH2 0xCC JUMP JUMPDEST SWAP2 POP PUSH2 0x1C1 DUP4 PUSH2 0xCC JUMP JUMPDEST SWAP3 POP DUP3 DUP3 SUB SWAP1 POP DUP2 DUP2 GT ISZERO PUSH2 0x1D9 JUMPI PUSH2 0x1D8 PUSH2 0x17F JUMP JUMPDEST JUMPDEST SWAP3 SWAP2 POP POP JUMP INVALID LOG2 PUSH5 0x6970667358 0x22 SLT KECCAK256 0xE0 0xBC CREATE SWAP7 EXP MCOPY 0xE8 PREVRANDAO DUP2 MULMOD DUP3 SAR 0xB2 PUSH6 0xFC98AD589644 PUSH30 0xE10FE802D1C606D6EB74964736F6C634300081A00330000000000000000 "
		},
		"gasEstimates": {
			"creation": {
				"codeDepositCost": "106600",
				"executionCost": "151",
				"totalCost": "106751"
			},
			"external": {
				"alloc_mem(uint256)": "infinite"
			}
		},
		"methodIdentifiers": {
			"alloc_mem(uint256)": "37278d8b"
		}
	},
	"abi": [
		{
			"inputs": [
				{
					"internalType": "uint256",
					"name": "n",
					"type": "uint256"
				}
			],
			"name": "alloc_mem",
			"outputs": [
				{
					"internalType": "uint256",
					"name": "",
					"type": "uint256"
				}
			],
			"stateMutability": "view",
			"type": "function"
		}
	]
}