{
	"data": {
		"bytecode": {
			"linkReferences": {},
			"object": "6080604052348015600e575f80fd5b5061022c8061001c5f395ff3fe608060405234801561000f575f80fd5b5060043610610034575f3560e01c8063831d520d14610038578063c74bf03d14610058575b5f80fd5b610040610078565b60405161004f93929190610194565b60405180910390f35b6100606100d5565b60405161006f93929190610194565b60405180910390f35b5f805f806040518060600160405280600163ffffffff1663ffffffff168152602001600263ffffffff1663ffffffff168152602001600363ffffffff1663ffffffff168152509050608051935060a051925060c051915050909192565b5f805f6100e061015a565b600b81526016602082015260216040820152805f60038110610105576101046101c9565b5b602002015163ffffffff16935080600160038110610126576101256101c9565b5b602002015163ffffffff16925080600260038110610147576101466101c9565b5b602002015163ffffffff16915050909192565b6040518060600160405280600390602082028036833780820191505090505090565b5f819050919050565b61018e8161017c565b82525050565b5f6060820190506101a75f830186610185565b6101b46020830185610185565b6101c16040830184610185565b949350505050565b7f4e487b71000000000000000000000000000000000000000000000000000000005f52603260045260245ffdfea264697066735822122035598f2383e5bb236dc8fad16af5271ee68776807aa76229f25888a72c07703664736f6c634300081a0033",
			"opcodes": "PUSH1 0x80 PUSH1 0x40 MSTORE CALLVALUE DUP1 ISZERO PUSH1 0xE JUMPI PUSH0 DUP1 REVERT JUMPDEST POP PUSH2 0x22C DUP1 PUSH2 0x1C PUSH0 CODECOPY PUSH0 RETURN INVALID PUSH1 0x80 PUSH1 0x40 MSTORE CALLVALUE DUP1 ISZERO PUSH2 0xF JUMPI PUSH0 DUP1 REVERT JUMPDEST POP PUSH1 0x4 CALLDATASIZE LT PUSH2 0x34 JUMPI PUSH0 CALLDATALOAD PUSH1 0xE0 SHR DUP1 PUSH4 0x831D520D EQ PUSH2 0x38 JUMPI DUP1 PUSH4 0xC74BF03D EQ PUSH2 0x58 JUMPI JUMPDEST PUSH0 DUP1 REVERT JUMPDEST PUSH2 0x40 PUSH2 0x78 JUMP JUMPDEST PUSH1 0x40 MLOAD PUSH2 0x4F SWAP4 SWAP3 SWAP2 SWAP1 PUSH2 0x194 JUMP JUMPDEST PUSH1 0x40 MLOAD DUP1 SWAP2 SUB SWAP1 RETURN JUMPDEST PUSH2 0x60 PUSH2 0xD5 JUMP JUMPDEST PUSH1 0x40 MLOAD PUSH2 0x6F SWAP4 SWAP3 SWAP2 SWAP1 PUSH2 0x194 JUMP JUMPDEST PUSH1 0x40 MLOAD DUP1 SWAP2 SUB SWAP1 RETURN JUMPDEST PUSH0 DUP1 PUSH0 DUP1 PUSH1 0x40 MLOAD DUP1 PUSH1 0x60 ADD PUSH1 0x40 MSTORE DUP1 PUSH1 0x1 PUSH4 0xFFFFFFFF AND PUSH4 0xFFFFFFFF AND DUP2 MSTORE PUSH1 0x20 ADD PUSH1 0x2 PUSH4 0xFFFFFFFF AND PUSH4 0xFFFFFFFF AND DUP2 MSTORE PUSH1 0x20 ADD PUSH1 0x3 PUSH4 0xFFFFFFFF AND PUSH4 0xFFFFFFFF AND DUP2 MSTORE POP SWAP1 POP PUSH1 0x80 MLOAD SWAP4 POP PUSH1 0xA0 MLOAD SWAP3 POP PUSH1 0xC0 MLOAD SWAP2 POP POP SWAP1 SWAP2 SWAP3 JUMP JUMPDEST PUSH0 DUP1 PUSH0 PUSH2 0xE0 PUSH2 0x15A JUMP JUMPDEST PUSH1 0xB DUP2 MSTORE PUSH1 0x16 PUSH1 0x20 DUP3 ADD MSTORE PUSH1 0x21 PUSH1 0x40 DUP3 ADD MSTORE DUP1 PUSH0 PUSH1 0x3 DUP2 LT PUSH2 0x105 JUMPI PUSH2 0x104 PUSH2 0x1C9 JUMP JUMPDEST JUMPDEST PUSH1 0x20 MUL ADD MLOAD PUSH4 0xFFFFFFFF AND SWAP4 POP DUP1 PUSH1 0x1 PUSH1 0x3 DUP2 LT PUSH2 0x126 JUMPI PUSH2 0x125 PUSH2 0x1C9 JUMP JUMPDEST JUMPDEST PUSH1 0x20 MUL ADD MLOAD PUSH4 0xFFFFFFFF AND SWAP3 POP DUP1 PUSH1 0x2 PUSH1 0x3 DUP2 LT PUSH2 0x147 JUMPI PUSH2 0x146 PUSH2 0x1C9 JUMP JUMPDEST JUMPDEST PUSH1 0x20 MUL ADD MLOAD PUSH4 0xFFFFFFFF AND SWAP2 POP POP SWAP1 SWAP2 SWAP3 JUMP JUMPDEST PUSH1 0x40 MLOAD DUP1 PUSH1 0x60 ADD PUSH1 0x40 MSTORE DUP1 PUSH1 0x3 SWAP1 PUSH1 0x20 DUP3 MUL DUP1 CALLDATASIZE DUP4 CALLDATACOPY DUP1 DUP3 ADD SWAP2 POP POP SWAP1 POP POP SWAP1 JUMP JUMPDEST PUSH0 DUP2 SWAP1 POP SWAP2 SWAP1 POP JUMP JUMPDEST PUSH2 0x18E DUP2 PUSH2 0x17C JUMP JUMPDEST DUP3 MSTORE POP POP JUMP JUMPDEST PUSH0 PUSH1 0x60 DUP3 ADD SWAP1 POP PUSH2 0x1A7 PUSH0 DUP4 ADD DUP7 PUSH2 0x185 JUMP JUMPDEST PUSH2 0x1B4 PUSH1 0x20 DUP4 ADD DUP6 PUSH2 0x185 JUMP JUMPDEST PUSH2 0x1C1 PUSH1 0x40 DUP4 ADD DUP5 PUSH2 0x185 JUMP JUMPDEST SWAP5 SWAP4 POP POP POP POP JUMP JUMPDEST PUSH32 0x4E487B7100000000000000000000000000000000000000000000000000000000 PUSH0 MSTORE PUSH1 0x32 PUSH1 0x4 MSTORE PUSH1 0x24 PUSH0 REVERT INVALID LOG2 PUSH5 0x6970667358 0x22 SLT KECCAK256 CALLDATALOAD MSIZE DUP16 0x23 DUP4 0xE5 0xBB 0x23 PUSH14 0xC8FAD16AF5271EE68776807AA762 0x29 CALLCODE PC DUP9 0xA7 0x2C SMOD PUSH17 0x3664736F6C634300081A00330000000000 "
		},
		"gasEstimates": {
			"creation": {
				"codeDepositCost": "111200",
				"executionCost": "157",
				"totalCost": "111357"
			},
			"external": {
				"test_read()": "infinite",
				"test_write()": "infinite"
			}
		},
		"methodIdentifiers": {
			"test_read()": "831d520d",
			"test_write()": "c74bf03d"
		}
	},
	"abi": [
		{
			"inputs": [],
			"name": "test_read",
			"outputs": [
				{
					"internalType": "uint256",
					"name": "a0",
					"type": "uint256"
				},
				{
					"internalType": "uint256",
					"name": "a1",
					"type": "uint256"
				},
				{
					"internalType": "uint256",
					"name": "a2",
					"type": "uint256"
				}
			],
			"stateMutability": "pure",
			"type": "function"
		},
		{
			"inputs": [],
			"name": "test_write",
			"outputs": [
				{
					"internalType": "uint256",
					"name": "a0",
					"type": "uint256"
				},
				{
					"internalType": "uint256",
					"name": "a1",
					"type": "uint256"
				},
				{
					"internalType": "uint256",
					"name": "a2",
					"type": "uint256"
				}
			],
			"stateMutability": "pure",
			"type": "function"
		}
	]
}