{
	"data": {
		"bytecode": {
			"linkReferences": {},
			"object": "6080604052348015600e575f80fd5b506102668061001c5f395ff3fe608060405234801561000f575f80fd5b5060043610610034575f3560e01c806341b01ba014610038578063ae8cb79614610042575b5f80fd5b610040610063565b005b61004a61006e565b60405161005a9493929190610193565b60405180910390f35b61006b610095565b50565b5f805f8061007a61009f565b50608051935060a051925060c051915060e051905090919293565b5f62ababab905090565b60605f600367ffffffffffffffff8111156100bd576100bc6101d6565b5b6040519080825280602002602001820160405280156100eb5781602001602082028036833780820191505090505b509050610aaa5f1b815f8151811061010657610105610203565b5b602002602001018181525050610bbb5f1b8160018151811061012b5761012a610203565b5b602002602001018181525050610ccc5f1b816002815181106101505761014f610203565b5b6020026020010181815250508091505090565b5f819050919050565b61017581610163565b82525050565b5f819050919050565b61018d8161017b565b82525050565b5f6080820190506101a65f83018761016c565b6101b36020830186610184565b6101c06040830185610184565b6101cd6060830184610184565b95945050505050565b7f4e487b71000000000000000000000000000000000000000000000000000000005f52604160045260245ffd5b7f4e487b71000000000000000000000000000000000000000000000000000000005f52603260045260245ffdfea2646970667358221220d96a353834b686c44ac110e8525b9f407581dc364b78ab18ad1085dc446b0f2464736f6c634300081a0033",
			"opcodes": "PUSH1 0x80 PUSH1 0x40 MSTORE CALLVALUE DUP1 ISZERO PUSH1 0xE JUMPI PUSH0 DUP1 REVERT JUMPDEST POP PUSH2 0x266 DUP1 PUSH2 0x1C PUSH0 CODECOPY PUSH0 RETURN INVALID PUSH1 0x80 PUSH1 0x40 MSTORE CALLVALUE DUP1 ISZERO PUSH2 0xF JUMPI PUSH0 DUP1 REVERT JUMPDEST POP PUSH1 0x4 CALLDATASIZE LT PUSH2 0x34 JUMPI PUSH0 CALLDATALOAD PUSH1 0xE0 SHR DUP1 PUSH4 0x41B01BA0 EQ PUSH2 0x38 JUMPI DUP1 PUSH4 0xAE8CB796 EQ PUSH2 0x42 JUMPI JUMPDEST PUSH0 DUP1 REVERT JUMPDEST PUSH2 0x40 PUSH2 0x63 JUMP JUMPDEST STOP JUMPDEST PUSH2 0x4A PUSH2 0x6E JUMP JUMPDEST PUSH1 0x40 MLOAD PUSH2 0x5A SWAP5 SWAP4 SWAP3 SWAP2 SWAP1 PUSH2 0x193 JUMP JUMPDEST PUSH1 0x40 MLOAD DUP1 SWAP2 SUB SWAP1 RETURN JUMPDEST PUSH2 0x6B PUSH2 0x95 JUMP JUMPDEST POP JUMP JUMPDEST PUSH0 DUP1 PUSH0 DUP1 PUSH2 0x7A PUSH2 0x9F JUMP JUMPDEST POP PUSH1 0x80 MLOAD SWAP4 POP PUSH1 0xA0 MLOAD SWAP3 POP PUSH1 0xC0 MLOAD SWAP2 POP PUSH1 0xE0 MLOAD SWAP1 POP SWAP1 SWAP2 SWAP3 SWAP4 JUMP JUMPDEST PUSH0 PUSH3 0xABABAB SWAP1 POP SWAP1 JUMP JUMPDEST PUSH1 0x60 PUSH0 PUSH1 0x3 PUSH8 0xFFFFFFFFFFFFFFFF DUP2 GT ISZERO PUSH2 0xBD JUMPI PUSH2 0xBC PUSH2 0x1D6 JUMP JUMPDEST JUMPDEST PUSH1 0x40 MLOAD SWAP1 DUP1 DUP3 MSTORE DUP1 PUSH1 0x20 MUL PUSH1 0x20 ADD DUP3 ADD PUSH1 0x40 MSTORE DUP1 ISZERO PUSH2 0xEB JUMPI DUP2 PUSH1 0x20 ADD PUSH1 0x20 DUP3 MUL DUP1 CALLDATASIZE DUP4 CALLDATACOPY DUP1 DUP3 ADD SWAP2 POP POP SWAP1 POP JUMPDEST POP SWAP1 POP PUSH2 0xAAA PUSH0 SHL DUP2 PUSH0 DUP2 MLOAD DUP2 LT PUSH2 0x106 JUMPI PUSH2 0x105 PUSH2 0x203 JUMP JUMPDEST JUMPDEST PUSH1 0x20 MUL PUSH1 0x20 ADD ADD DUP2 DUP2 MSTORE POP POP PUSH2 0xBBB PUSH0 SHL DUP2 PUSH1 0x1 DUP2 MLOAD DUP2 LT PUSH2 0x12B JUMPI PUSH2 0x12A PUSH2 0x203 JUMP JUMPDEST JUMPDEST PUSH1 0x20 MUL PUSH1 0x20 ADD ADD DUP2 DUP2 MSTORE POP POP PUSH2 0xCCC PUSH0 SHL DUP2 PUSH1 0x2 DUP2 MLOAD DUP2 LT PUSH2 0x150 JUMPI PUSH2 0x14F PUSH2 0x203 JUMP JUMPDEST JUMPDEST PUSH1 0x20 MUL PUSH1 0x20 ADD ADD DUP2 DUP2 MSTORE POP POP DUP1 SWAP2 POP POP SWAP1 JUMP JUMPDEST PUSH0 DUP2 SWAP1 POP SWAP2 SWAP1 POP JUMP JUMPDEST PUSH2 0x175 DUP2 PUSH2 0x163 JUMP JUMPDEST DUP3 MSTORE POP POP JUMP JUMPDEST PUSH0 DUP2 SWAP1 POP SWAP2 SWAP1 POP JUMP JUMPDEST PUSH2 0x18D DUP2 PUSH2 0x17B JUMP JUMPDEST DUP3 MSTORE POP POP JUMP JUMPDEST PUSH0 PUSH1 0x80 DUP3 ADD SWAP1 POP PUSH2 0x1A6 PUSH0 DUP4 ADD DUP8 PUSH2 0x16C JUMP JUMPDEST PUSH2 0x1B3 PUSH1 0x20 DUP4 ADD DUP7 PUSH2 0x184 JUMP JUMPDEST PUSH2 0x1C0 PUSH1 0x40 DUP4 ADD DUP6 PUSH2 0x184 JUMP JUMPDEST PUSH2 0x1CD PUSH1 0x60 DUP4 ADD DUP5 PUSH2 0x184 JUMP JUMPDEST SWAP6 SWAP5 POP POP POP POP POP JUMP JUMPDEST PUSH32 0x4E487B7100000000000000000000000000000000000000000000000000000000 PUSH0 MSTORE PUSH1 0x41 PUSH1 0x4 MSTORE PUSH1 0x24 PUSH0 REVERT JUMPDEST PUSH32 0x4E487B7100000000000000000000000000000000000000000000000000000000 PUSH0 MSTORE PUSH1 0x32 PUSH1 0x4 MSTORE PUSH1 0x24 PUSH0 REVERT INVALID LOG2 PUSH5 0x6970667358 0x22 SLT KECCAK256 0xD9 PUSH11 0x353834B686C44AC110E852 JUMPDEST SWAP16 BLOCKHASH PUSH22 0x81DC364B78AB18AD1085DC446B0F2464736F6C634300 ADDMOD BYTE STOP CALLER "
		},
		"gasEstimates": {
			"creation": {
				"codeDepositCost": "122800",
				"executionCost": "169",
				"totalCost": "122969"
			},
			"external": {
				"test_mem()": "infinite",
				"test_val()": "160"
			},
			"internal": {
				"internal_func_return_mem()": "infinite",
				"internal_func_return_val()": "22"
			}
		},
		"methodIdentifiers": {
			"test_mem()": "ae8cb796",
			"test_val()": "41b01ba0"
		}
	},
	"abi": [
		{
			"inputs": [],
			"name": "test_mem",
			"outputs": [
				{
					"internalType": "uint256",
					"name": "len",
					"type": "uint256"
				},
				{
					"internalType": "bytes32",
					"name": "a0",
					"type": "bytes32"
				},
				{
					"internalType": "bytes32",
					"name": "a1",
					"type": "bytes32"
				},
				{
					"internalType": "bytes32",
					"name": "a2",
					"type": "bytes32"
				}
			],
			"stateMutability": "pure",
			"type": "function"
		},
		{
			"inputs": [],
			"name": "test_val",
			"outputs": [],
			"stateMutability": "pure",
			"type": "function"
		}
	]
}