{
	"data": {
		"bytecode": {
			"linkReferences": {},
			"object": "6080604052348015600e575f80fd5b5061017a8061001c5f395ff3fe608060405234801561000f575f80fd5b5060043610610034575f3560e01c8063775dec4914610038578063b1845b6f14610056575b5f80fd5b610040610074565b60405161004d91906100d7565b60405180910390f35b61005e6100a5565b60405161006b91906100d7565b60405180910390f35b5f6001600260405160200161008a929190610119565b60405160208183030381529060405280519060200120905090565b5f6001608052600260a05260406080208060c052602060c0f35b5f819050919050565b6100d1816100bf565b82525050565b5f6020820190506100ea5f8301846100c8565b92915050565b5f819050919050565b5f819050919050565b61011361010e826100f0565b6100f9565b82525050565b5f6101248285610102565b6020820191506101348284610102565b602082019150819050939250505056fea2646970667358221220b2f6e46de28165aa132bb285d67cd1e129e9ba195761c0cb4f435e1fb4b1bdbd64736f6c634300081a0033",
			"opcodes": "PUSH1 0x80 PUSH1 0x40 MSTORE CALLVALUE DUP1 ISZERO PUSH1 0xE JUMPI PUSH0 DUP1 REVERT JUMPDEST POP PUSH2 0x17A DUP1 PUSH2 0x1C PUSH0 CODECOPY PUSH0 RETURN INVALID PUSH1 0x80 PUSH1 0x40 MSTORE CALLVALUE DUP1 ISZERO PUSH2 0xF JUMPI PUSH0 DUP1 REVERT JUMPDEST POP PUSH1 0x4 CALLDATASIZE LT PUSH2 0x34 JUMPI PUSH0 CALLDATALOAD PUSH1 0xE0 SHR DUP1 PUSH4 0x775DEC49 EQ PUSH2 0x38 JUMPI DUP1 PUSH4 0xB1845B6F EQ PUSH2 0x56 JUMPI JUMPDEST PUSH0 DUP1 REVERT JUMPDEST PUSH2 0x40 PUSH2 0x74 JUMP JUMPDEST PUSH1 0x40 MLOAD PUSH2 0x4D SWAP2 SWAP1 PUSH2 0xD7 JUMP JUMPDEST PUSH1 0x40 MLOAD DUP1 SWAP2 SUB SWAP1 RETURN JUMPDEST PUSH2 0x5E PUSH2 0xA5 JUMP JUMPDEST PUSH1 0x40 MLOAD PUSH2 0x6B SWAP2 SWAP1 PUSH2 0xD7 JUMP JUMPDEST PUSH1 0x40 MLOAD DUP1 SWAP2 SUB SWAP1 RETURN JUMPDEST PUSH0 PUSH1 0x1 PUSH1 0x2 PUSH1 0x40 MLOAD PUSH1 0x20 ADD PUSH2 0x8A SWAP3 SWAP2 SWAP1 PUSH2 0x119 JUMP JUMPDEST PUSH1 0x40 MLOAD PUSH1 0x20 DUP2 DUP4 SUB SUB DUP2 MSTORE SWAP1 PUSH1 0x40 MSTORE DUP1 MLOAD SWAP1 PUSH1 0x20 ADD KECCAK256 SWAP1 POP SWAP1 JUMP JUMPDEST PUSH0 PUSH1 0x1 PUSH1 0x80 MSTORE PUSH1 0x2 PUSH1 0xA0 MSTORE PUSH1 0x40 PUSH1 0x80 KECCAK256 DUP1 PUSH1 0xC0 MSTORE PUSH1 0x20 PUSH1 0xC0 RETURN JUMPDEST PUSH0 DUP2 SWAP1 POP SWAP2 SWAP1 POP JUMP JUMPDEST PUSH2 0xD1 DUP2 PUSH2 0xBF JUMP JUMPDEST DUP3 MSTORE POP POP JUMP JUMPDEST PUSH0 PUSH1 0x20 DUP3 ADD SWAP1 POP PUSH2 0xEA PUSH0 DUP4 ADD DUP5 PUSH2 0xC8 JUMP JUMPDEST SWAP3 SWAP2 POP POP JUMP JUMPDEST PUSH0 DUP2 SWAP1 POP SWAP2 SWAP1 POP JUMP JUMPDEST PUSH0 DUP2 SWAP1 POP SWAP2 SWAP1 POP JUMP JUMPDEST PUSH2 0x113 PUSH2 0x10E DUP3 PUSH2 0xF0 JUMP JUMPDEST PUSH2 0xF9 JUMP JUMPDEST DUP3 MSTORE POP POP JUMP JUMPDEST PUSH0 PUSH2 0x124 DUP3 DUP6 PUSH2 0x102 JUMP JUMPDEST PUSH1 0x20 DUP3 ADD SWAP2 POP PUSH2 0x134 DUP3 DUP5 PUSH2 0x102 JUMP JUMPDEST PUSH1 0x20 DUP3 ADD SWAP2 POP DUP2 SWAP1 POP SWAP4 SWAP3 POP POP POP JUMP INVALID LOG2 PUSH5 0x6970667358 0x22 SLT KECCAK256 0xB2 0xF6 0xE4 PUSH14 0xE28165AA132BB285D67CD1E129E9 0xBA NOT JUMPI PUSH2 0xC0CB 0x4F NUMBER MCOPY 0x1F 0xB4 0xB1 0xBD 0xBD PUSH5 0x736F6C6343 STOP ADDMOD BYTE STOP CALLER "
		},
		"gasEstimates": {
			"creation": {
				"codeDepositCost": "75600",
				"executionCost": "121",
				"totalCost": "75721"
			},
			"external": {
				"keccak()": "infinite",
				"test_keccak()": "229"
			}
		},
		"methodIdentifiers": {
			"keccak()": "775dec49",
			"test_keccak()": "b1845b6f"
		}
	},
	"abi": [
		{
			"inputs": [],
			"name": "keccak",
			"outputs": [
				{
					"internalType": "bytes32",
					"name": "",
					"type": "bytes32"
				}
			],
			"stateMutability": "pure",
			"type": "function"
		},
		{
			"inputs": [],
			"name": "test_keccak",
			"outputs": [
				{
					"internalType": "bytes32",
					"name": "",
					"type": "bytes32"
				}
			],
			"stateMutability": "pure",
			"type": "function"
		}
	]
}