{
	"data": {
		"bytecode": {
			"linkReferences": {},
			"object": "6080604052348015600e575f80fd5b5060ea8061001b5f395ff3fe6080604052348015600e575f80fd5b50600436106030575f3560e01c80636d3d1416146034578063fd64f36414603c575b5f80fd5b603a6044565b005b6042606e565b005b7f4552524f5220484552450000000000000000000000000000000000000000000060805260206080fd5b6040516308c379a060e01b815260206004820152600560248201527f4552524f520000000000000000000000000000000000000000000000000000006044820152606481fdfea2646970667358221220b5fae11b713c2f3865f72cefce42789e73cfb8658d34f0289a034ea372b7e15164736f6c634300081a0033",
			"opcodes": "PUSH1 0x80 PUSH1 0x40 MSTORE CALLVALUE DUP1 ISZERO PUSH1 0xE JUMPI PUSH0 DUP1 REVERT JUMPDEST POP PUSH1 0xEA DUP1 PUSH2 0x1B PUSH0 CODECOPY PUSH0 RETURN INVALID PUSH1 0x80 PUSH1 0x40 MSTORE CALLVALUE DUP1 ISZERO PUSH1 0xE JUMPI PUSH0 DUP1 REVERT JUMPDEST POP PUSH1 0x4 CALLDATASIZE LT PUSH1 0x30 JUMPI PUSH0 CALLDATALOAD PUSH1 0xE0 SHR DUP1 PUSH4 0x6D3D1416 EQ PUSH1 0x34 JUMPI DUP1 PUSH4 0xFD64F364 EQ PUSH1 0x3C JUMPI JUMPDEST PUSH0 DUP1 REVERT JUMPDEST PUSH1 0x3A PUSH1 0x44 JUMP JUMPDEST STOP JUMPDEST PUSH1 0x42 PUSH1 0x6E JUMP JUMPDEST STOP JUMPDEST PUSH32 0x4552524F52204845524500000000000000000000000000000000000000000000 PUSH1 0x80 MSTORE PUSH1 0x20 PUSH1 0x80 REVERT JUMPDEST PUSH1 0x40 MLOAD PUSH4 0x8C379A0 PUSH1 0xE0 SHL DUP2 MSTORE PUSH1 0x20 PUSH1 0x4 DUP3 ADD MSTORE PUSH1 0x5 PUSH1 0x24 DUP3 ADD MSTORE PUSH32 0x4552524F52000000000000000000000000000000000000000000000000000000 PUSH1 0x44 DUP3 ADD MSTORE PUSH1 0x64 DUP2 REVERT INVALID LOG2 PUSH5 0x6970667358 0x22 SLT KECCAK256 0xB5 STATICCALL 0xE1 SHL PUSH18 0x3C2F3865F72CEFCE42789E73CFB8658D34F0 0x28 SWAP11 SUB 0x4E LOG3 PUSH19 0xB7E15164736F6C634300081A00330000000000 "
		},
		"gasEstimates": {
			"creation": {
				"codeDepositCost": "46800",
				"executionCost": "97",
				"totalCost": "46897"
			},
			"external": {
				"test_revert()": "133",
				"test_revert_with_error_msg()": "221"
			}
		},
		"methodIdentifiers": {
			"test_revert()": "6d3d1416",
			"test_revert_with_error_msg()": "fd64f364"
		}
	},
	"abi": [
		{
			"inputs": [],
			"name": "test_revert",
			"outputs": [],
			"stateMutability": "pure",
			"type": "function"
		},
		{
			"inputs": [],
			"name": "test_revert_with_error_msg",
			"outputs": [],
			"stateMutability": "pure",
			"type": "function"
		}
	]
}