{
	"data": {
		"bytecode": {
			"linkReferences": {},
			"object": "6080604052348015600e575f80fd5b506104af8061001c5f395ff3fe608060405260043610610028575f3560e01c80634e5081171461002c578063fe6d03cf1461005c575b5f80fd5b610046600480360381019061004191906102ee565b610098565b60405161005391906103a8565b60405180910390f35b348015610067575f80fd5b50610082600480360381019061007d91906103c8565b6100d3565b60405161008f919061040b565b60405180910390f35b606081818351602085015f808383348b5af1806100b3575f80fd5b3d808752805f602089013e80602001870160405250505050505092915050565b5f806101298360405160240160405160208183030381529060405263371303c060e01b6020820180517bffffffffffffffffffffffffffffffffffffffffffffffffffffffff8381831617835250505050610098565b90508080602001905181019061013f919061044e565b915050919050565b5f604051905090565b5f80fd5b5f80fd5b5f73ffffffffffffffffffffffffffffffffffffffff82169050919050565b5f61018182610158565b9050919050565b61019181610177565b811461019b575f80fd5b50565b5f813590506101ac81610188565b92915050565b5f80fd5b5f80fd5b5f601f19601f8301169050919050565b7f4e487b71000000000000000000000000000000000000000000000000000000005f52604160045260245ffd5b610200826101ba565b810181811067ffffffffffffffff8211171561021f5761021e6101ca565b5b80604052505050565b5f610231610147565b905061023d82826101f7565b919050565b5f67ffffffffffffffff82111561025c5761025b6101ca565b5b610265826101ba565b9050602081019050919050565b828183375f83830152505050565b5f61029261028d84610242565b610228565b9050828152602081018484840111156102ae576102ad6101b6565b5b6102b9848285610272565b509392505050565b5f82601f8301126102d5576102d46101b2565b5b81356102e5848260208601610280565b91505092915050565b5f806040838503121561030457610303610150565b5b5f6103118582860161019e565b925050602083013567ffffffffffffffff81111561033257610331610154565b5b61033e858286016102c1565b9150509250929050565b5f81519050919050565b5f82825260208201905092915050565b8281835e5f83830152505050565b5f61037a82610348565b6103848185610352565b9350610394818560208601610362565b61039d816101ba565b840191505092915050565b5f6020820190508181035f8301526103c08184610370565b905092915050565b5f602082840312156103dd576103dc610150565b5b5f6103ea8482850161019e565b91505092915050565b5f819050919050565b610405816103f3565b82525050565b5f60208201905061041e5f8301846103fc565b92915050565b61042d816103f3565b8114610437575f80fd5b50565b5f8151905061044881610424565b92915050565b5f6020828403121561046357610462610150565b5b5f6104708482850161043a565b9150509291505056fea26469706673582212207e8ec67da7df50d352cc0a047ffdbae0c0edd98bc437838690943df72526f6c564736f6c634300081a0033",
			"opcodes": "PUSH1 0x80 PUSH1 0x40 MSTORE CALLVALUE DUP1 ISZERO PUSH1 0xE JUMPI PUSH0 DUP1 REVERT JUMPDEST POP PUSH2 0x4AF DUP1 PUSH2 0x1C PUSH0 CODECOPY PUSH0 RETURN INVALID PUSH1 0x80 PUSH1 0x40 MSTORE PUSH1 0x4 CALLDATASIZE LT PUSH2 0x28 JUMPI PUSH0 CALLDATALOAD PUSH1 0xE0 SHR DUP1 PUSH4 0x4E508117 EQ PUSH2 0x2C JUMPI DUP1 PUSH4 0xFE6D03CF EQ PUSH2 0x5C JUMPI JUMPDEST PUSH0 DUP1 REVERT JUMPDEST PUSH2 0x46 PUSH1 0x4 DUP1 CALLDATASIZE SUB DUP2 ADD SWAP1 PUSH2 0x41 SWAP2 SWAP1 PUSH2 0x2EE JUMP JUMPDEST PUSH2 0x98 JUMP JUMPDEST PUSH1 0x40 MLOAD PUSH2 0x53 SWAP2 SWAP1 PUSH2 0x3A8 JUMP JUMPDEST PUSH1 0x40 MLOAD DUP1 SWAP2 SUB SWAP1 RETURN JUMPDEST CALLVALUE DUP1 ISZERO PUSH2 0x67 JUMPI PUSH0 DUP1 REVERT JUMPDEST POP PUSH2 0x82 PUSH1 0x4 DUP1 CALLDATASIZE SUB DUP2 ADD SWAP1 PUSH2 0x7D SWAP2 SWAP1 PUSH2 0x3C8 JUMP JUMPDEST PUSH2 0xD3 JUMP JUMPDEST PUSH1 0x40 MLOAD PUSH2 0x8F SWAP2 SWAP1 PUSH2 0x40B JUMP JUMPDEST PUSH1 0x40 MLOAD DUP1 SWAP2 SUB SWAP1 RETURN JUMPDEST PUSH1 0x60 DUP2 DUP2 DUP4 MLOAD PUSH1 0x20 DUP6 ADD PUSH0 DUP1 DUP4 DUP4 CALLVALUE DUP12 GAS CALL DUP1 PUSH2 0xB3 JUMPI PUSH0 DUP1 REVERT JUMPDEST RETURNDATASIZE DUP1 DUP8 MSTORE DUP1 PUSH0 PUSH1 0x20 DUP10 ADD RETURNDATACOPY DUP1 PUSH1 0x20 ADD DUP8 ADD PUSH1 0x40 MSTORE POP POP POP POP POP POP SWAP3 SWAP2 POP POP JUMP JUMPDEST PUSH0 DUP1 PUSH2 0x129 DUP4 PUSH1 0x40 MLOAD PUSH1 0x24 ADD PUSH1 0x40 MLOAD PUSH1 0x20 DUP2 DUP4 SUB SUB DUP2 MSTORE SWAP1 PUSH1 0x40 MSTORE PUSH4 0x371303C0 PUSH1 0xE0 SHL PUSH1 0x20 DUP3 ADD DUP1 MLOAD PUSH28 0xFFFFFFFFFFFFFFFFFFFFFFFFFFFFFFFFFFFFFFFFFFFFFFFFFFFFFFFF DUP4 DUP2 DUP4 AND OR DUP4 MSTORE POP POP POP POP PUSH2 0x98 JUMP JUMPDEST SWAP1 POP DUP1 DUP1 PUSH1 0x20 ADD SWAP1 MLOAD DUP2 ADD SWAP1 PUSH2 0x13F SWAP2 SWAP1 PUSH2 0x44E JUMP JUMPDEST SWAP2 POP POP SWAP2 SWAP1 POP JUMP JUMPDEST PUSH0 PUSH1 0x40 MLOAD SWAP1 POP SWAP1 JUMP JUMPDEST PUSH0 DUP1 REVERT JUMPDEST PUSH0 DUP1 REVERT JUMPDEST PUSH0 PUSH20 0xFFFFFFFFFFFFFFFFFFFFFFFFFFFFFFFFFFFFFFFF DUP3 AND SWAP1 POP SWAP2 SWAP1 POP JUMP JUMPDEST PUSH0 PUSH2 0x181 DUP3 PUSH2 0x158 JUMP JUMPDEST SWAP1 POP SWAP2 SWAP1 POP JUMP JUMPDEST PUSH2 0x191 DUP2 PUSH2 0x177 JUMP JUMPDEST DUP2 EQ PUSH2 0x19B JUMPI PUSH0 DUP1 REVERT JUMPDEST POP JUMP JUMPDEST PUSH0 DUP2 CALLDATALOAD SWAP1 POP PUSH2 0x1AC DUP2 PUSH2 0x188 JUMP JUMPDEST SWAP3 SWAP2 POP POP JUMP JUMPDEST PUSH0 DUP1 REVERT JUMPDEST PUSH0 DUP1 REVERT JUMPDEST PUSH0 PUSH1 0x1F NOT PUSH1 0x1F DUP4 ADD AND SWAP1 POP SWAP2 SWAP1 POP JUMP JUMPDEST PUSH32 0x4E487B7100000000000000000000000000000000000000000000000000000000 PUSH0 MSTORE PUSH1 0x41 PUSH1 0x4 MSTORE PUSH1 0x24 PUSH0 REVERT JUMPDEST PUSH2 0x200 DUP3 PUSH2 0x1BA JUMP JUMPDEST DUP2 ADD DUP2 DUP2 LT PUSH8 0xFFFFFFFFFFFFFFFF DUP3 GT OR ISZERO PUSH2 0x21F JUMPI PUSH2 0x21E PUSH2 0x1CA JUMP JUMPDEST JUMPDEST DUP1 PUSH1 0x40 MSTORE POP POP POP JUMP JUMPDEST PUSH0 PUSH2 0x231 PUSH2 0x147 JUMP JUMPDEST SWAP1 POP PUSH2 0x23D DUP3 DUP3 PUSH2 0x1F7 JUMP JUMPDEST SWAP2 SWAP1 POP JUMP JUMPDEST PUSH0 PUSH8 0xFFFFFFFFFFFFFFFF DUP3 GT ISZERO PUSH2 0x25C JUMPI PUSH2 0x25B PUSH2 0x1CA JUMP JUMPDEST JUMPDEST PUSH2 0x265 DUP3 PUSH2 0x1BA JUMP JUMPDEST SWAP1 POP PUSH1 0x20 DUP2 ADD SWAP1 POP SWAP2 SWAP1 POP JUMP JUMPDEST DUP3 DUP2 DUP4 CALLDATACOPY PUSH0 DUP4 DUP4 ADD MSTORE POP POP POP JUMP JUMPDEST PUSH0 PUSH2 0x292 PUSH2 0x28D DUP5 PUSH2 0x242 JUMP JUMPDEST PUSH2 0x228 JUMP JUMPDEST SWAP1 POP DUP3 DUP2 MSTORE PUSH1 0x20 DUP2 ADD DUP5 DUP5 DUP5 ADD GT ISZERO PUSH2 0x2AE JUMPI PUSH2 0x2AD PUSH2 0x1B6 JUMP JUMPDEST JUMPDEST PUSH2 0x2B9 DUP5 DUP3 DUP6 PUSH2 0x272 JUMP JUMPDEST POP SWAP4 SWAP3 POP POP POP JUMP JUMPDEST PUSH0 DUP3 PUSH1 0x1F DUP4 ADD SLT PUSH2 0x2D5 JUMPI PUSH2 0x2D4 PUSH2 0x1B2 JUMP JUMPDEST JUMPDEST DUP2 CALLDATALOAD PUSH2 0x2E5 DUP5 DUP3 PUSH1 0x20 DUP7 ADD PUSH2 0x280 JUMP JUMPDEST SWAP2 POP POP SWAP3 SWAP2 POP POP JUMP JUMPDEST PUSH0 DUP1 PUSH1 0x40 DUP4 DUP6 SUB SLT ISZERO PUSH2 0x304 JUMPI PUSH2 0x303 PUSH2 0x150 JUMP JUMPDEST JUMPDEST PUSH0 PUSH2 0x311 DUP6 DUP3 DUP7 ADD PUSH2 0x19E JUMP JUMPDEST SWAP3 POP POP PUSH1 0x20 DUP4 ADD CALLDATALOAD PUSH8 0xFFFFFFFFFFFFFFFF DUP2 GT ISZERO PUSH2 0x332 JUMPI PUSH2 0x331 PUSH2 0x154 JUMP JUMPDEST JUMPDEST PUSH2 0x33E DUP6 DUP3 DUP7 ADD PUSH2 0x2C1 JUMP JUMPDEST SWAP2 POP POP SWAP3 POP SWAP3 SWAP1 POP JUMP JUMPDEST PUSH0 DUP2 MLOAD SWAP1 POP SWAP2 SWAP1 POP JUMP JUMPDEST PUSH0 DUP3 DUP3 MSTORE PUSH1 0x20 DUP3 ADD SWAP1 POP SWAP3 SWAP2 POP POP JUMP JUMPDEST DUP3 DUP2 DUP4 MCOPY PUSH0 DUP4 DUP4 ADD MSTORE POP POP POP JUMP JUMPDEST PUSH0 PUSH2 0x37A DUP3 PUSH2 0x348 JUMP JUMPDEST PUSH2 0x384 DUP2 DUP6 PUSH2 0x352 JUMP JUMPDEST SWAP4 POP PUSH2 0x394 DUP2 DUP6 PUSH1 0x20 DUP7 ADD PUSH2 0x362 JUMP JUMPDEST PUSH2 0x39D DUP2 PUSH2 0x1BA JUMP JUMPDEST DUP5 ADD SWAP2 POP POP SWAP3 SWAP2 POP POP JUMP JUMPDEST PUSH0 PUSH1 0x20 DUP3 ADD SWAP1 POP DUP2 DUP2 SUB PUSH0 DUP4 ADD MSTORE PUSH2 0x3C0 DUP2 DUP5 PUSH2 0x370 JUMP JUMPDEST SWAP1 POP SWAP3 SWAP2 POP POP JUMP JUMPDEST PUSH0 PUSH1 0x20 DUP3 DUP5 SUB SLT ISZERO PUSH2 0x3DD JUMPI PUSH2 0x3DC PUSH2 0x150 JUMP JUMPDEST JUMPDEST PUSH0 PUSH2 0x3EA DUP5 DUP3 DUP6 ADD PUSH2 0x19E JUMP JUMPDEST SWAP2 POP POP SWAP3 SWAP2 POP POP JUMP JUMPDEST PUSH0 DUP2 SWAP1 POP SWAP2 SWAP1 POP JUMP JUMPDEST PUSH2 0x405 DUP2 PUSH2 0x3F3 JUMP JUMPDEST DUP3 MSTORE POP POP JUMP JUMPDEST PUSH0 PUSH1 0x20 DUP3 ADD SWAP1 POP PUSH2 0x41E PUSH0 DUP4 ADD DUP5 PUSH2 0x3FC JUMP JUMPDEST SWAP3 SWAP2 POP POP JUMP JUMPDEST PUSH2 0x42D DUP2 PUSH2 0x3F3 JUMP JUMPDEST DUP2 EQ PUSH2 0x437 JUMPI PUSH0 DUP1 REVERT JUMPDEST POP JUMP JUMPDEST PUSH0 DUP2 MLOAD SWAP1 POP PUSH2 0x448 DUP2 PUSH2 0x424 JUMP JUMPDEST SWAP3 SWAP2 POP POP JUMP JUMPDEST PUSH0 PUSH1 0x20 DUP3 DUP5 SUB SLT ISZERO PUSH2 0x463 JUMPI PUSH2 0x462 PUSH2 0x150 JUMP JUMPDEST JUMPDEST PUSH0 PUSH2 0x470 DUP5 DUP3 DUP6 ADD PUSH2 0x43A JUMP JUMPDEST SWAP2 POP POP SWAP3 SWAP2 POP POP JUMP INVALID LOG2 PUSH5 0x6970667358 0x22 SLT KECCAK256 PUSH31 0x8EC67DA7DF50D352CC0A047FFDBAE0C0EDD98BC437838690943DF72526F6C5 PUSH5 0x736F6C6343 STOP ADDMOD BYTE STOP CALLER "
		},
		"gasEstimates": {
			"creation": {
				"codeDepositCost": "239800",
				"executionCost": "279",
				"totalCost": "240079"
			},
			"external": {
				"test_call(address,bytes)": "infinite",
				"test_inc(address)": "infinite"
			}
		},
		"methodIdentifiers": {
			"test_call(address,bytes)": "4e508117",
			"test_inc(address)": "fe6d03cf"
		}
	},
	"abi": [
		{
			"inputs": [
				{
					"internalType": "address",
					"name": "a",
					"type": "address"
				},
				{
					"internalType": "bytes",
					"name": "data",
					"type": "bytes"
				}
			],
			"name": "test_call",
			"outputs": [
				{
					"internalType": "bytes",
					"name": "out",
					"type": "bytes"
				}
			],
			"stateMutability": "payable",
			"type": "function"
		},
		{
			"inputs": [
				{
					"internalType": "address",
					"name": "counter",
					"type": "address"
				}
			],
			"name": "test_inc",
			"outputs": [
				{
					"internalType": "uint256",
					"name": "count",
					"type": "uint256"
				}
			],
			"stateMutability": "nonpayable",
			"type": "function"
		}
	]
}