{
	"data": {
		"bytecode": {
			"linkReferences": {},
			"object": "6080604052348015600e575f80fd5b506104ed8061001c5f395ff3fe608060405234801561000f575f80fd5b5060043610610055575f3560e01c806311835039146100595780635dc70e3f14610089578063884ed1af146100ba57806390aa73b4146100d6578063bcd6cb5014610106575b5f80fd5b610073600480360381019061006e9190610294565b610136565b6040516100809190610361565b60405180910390f35b6100a3600480360381019061009e9190610294565b61014a565b6040516100b1929190610399565b60405180910390f35b6100d460048036038101906100cf9190610294565b61018a565b005b6100f060048036038101906100eb9190610294565b6101aa565b6040516100fd919061047e565b60405180910390f35b610120600480360381019061011b9190610294565b6101be565b60405161012d919061049e565b60405180910390f35b606061014384848461018a565b9392505050565b60605f604051838582378381016040525f808583895afa8061016a575f80fd5b3d9250828452825f602086013e8260200184016040525050935093915050565b604051818382375f808383875afa806101a1575f80fd5b3d805f843e8083f35b60606101b784848461018a565b9392505050565b5f6101ca84848461018a565b9392505050565b5f80fd5b5f80fd5b5f73ffffffffffffffffffffffffffffffffffffffff82169050919050565b5f610202826101d9565b9050919050565b610212816101f8565b811461021c575f80fd5b50565b5f8135905061022d81610209565b92915050565b5f80fd5b5f80fd5b5f80fd5b5f8083601f84011261025457610253610233565b5b8235905067ffffffffffffffff81111561027157610270610237565b5b60208301915083600182028301111561028d5761028c61023b565b5b9250929050565b5f805f604084860312156102ab576102aa6101d1565b5b5f6102b88682870161021f565b935050602084013567ffffffffffffffff8111156102d9576102d86101d5565b5b6102e58682870161023f565b92509250509250925092565b5f81519050919050565b5f82825260208201905092915050565b8281835e5f83830152505050565b5f601f19601f8301169050919050565b5f610333826102f1565b61033d81856102fb565b935061034d81856020860161030b565b61035681610319565b840191505092915050565b5f6020820190508181035f8301526103798184610329565b905092915050565b5f819050919050565b61039381610381565b82525050565b5f6040820190508181035f8301526103b18185610329565b90506103c0602083018461038a565b9392505050565b5f81519050919050565b5f82825260208201905092915050565b5f819050602082019050919050565b6103f981610381565b82525050565b5f61040a83836103f0565b60208301905092915050565b5f602082019050919050565b5f61042c826103c7565b61043681856103d1565b9350610441836103e1565b805f5b8381101561047157815161045888826103ff565b975061046383610416565b925050600181019050610444565b5085935050505092915050565b5f6020820190508181035f8301526104968184610422565b905092915050565b5f6020820190506104b15f83018461038a565b9291505056fea2646970667358221220686e2aa954b61cbf996cba567d6ad6e81bccf756dcbab9c2874229fa911d16d464736f6c634300081a0033",
			"opcodes": "PUSH1 0x80 PUSH1 0x40 MSTORE CALLVALUE DUP1 ISZERO PUSH1 0xE JUMPI PUSH0 DUP1 REVERT JUMPDEST POP PUSH2 0x4ED DUP1 PUSH2 0x1C PUSH0 CODECOPY PUSH0 RETURN INVALID PUSH1 0x80 PUSH1 0x40 MSTORE CALLVALUE DUP1 ISZERO PUSH2 0xF JUMPI PUSH0 DUP1 REVERT JUMPDEST POP PUSH1 0x4 CALLDATASIZE LT PUSH2 0x55 JUMPI PUSH0 CALLDATALOAD PUSH1 0xE0 SHR DUP1 PUSH4 0x11835039 EQ PUSH2 0x59 JUMPI DUP1 PUSH4 0x5DC70E3F EQ PUSH2 0x89 JUMPI DUP1 PUSH4 0x884ED1AF EQ PUSH2 0xBA JUMPI DUP1 PUSH4 0x90AA73B4 EQ PUSH2 0xD6 JUMPI DUP1 PUSH4 0xBCD6CB50 EQ PUSH2 0x106 JUMPI JUMPDEST PUSH0 DUP1 REVERT JUMPDEST PUSH2 0x73 PUSH1 0x4 DUP1 CALLDATASIZE SUB DUP2 ADD SWAP1 PUSH2 0x6E SWAP2 SWAP1 PUSH2 0x294 JUMP JUMPDEST PUSH2 0x136 JUMP JUMPDEST PUSH1 0x40 MLOAD PUSH2 0x80 SWAP2 SWAP1 PUSH2 0x361 JUMP JUMPDEST PUSH1 0x40 MLOAD DUP1 SWAP2 SUB SWAP1 RETURN JUMPDEST PUSH2 0xA3 PUSH1 0x4 DUP1 CALLDATASIZE SUB DUP2 ADD SWAP1 PUSH2 0x9E SWAP2 SWAP1 PUSH2 0x294 JUMP JUMPDEST PUSH2 0x14A JUMP JUMPDEST PUSH1 0x40 MLOAD PUSH2 0xB1 SWAP3 SWAP2 SWAP1 PUSH2 0x399 JUMP JUMPDEST PUSH1 0x40 MLOAD DUP1 SWAP2 SUB SWAP1 RETURN JUMPDEST PUSH2 0xD4 PUSH1 0x4 DUP1 CALLDATASIZE SUB DUP2 ADD SWAP1 PUSH2 0xCF SWAP2 SWAP1 PUSH2 0x294 JUMP JUMPDEST PUSH2 0x18A JUMP JUMPDEST STOP JUMPDEST PUSH2 0xF0 PUSH1 0x4 DUP1 CALLDATASIZE SUB DUP2 ADD SWAP1 PUSH2 0xEB SWAP2 SWAP1 PUSH2 0x294 JUMP JUMPDEST PUSH2 0x1AA JUMP JUMPDEST PUSH1 0x40 MLOAD PUSH2 0xFD SWAP2 SWAP1 PUSH2 0x47E JUMP JUMPDEST PUSH1 0x40 MLOAD DUP1 SWAP2 SUB SWAP1 RETURN JUMPDEST PUSH2 0x120 PUSH1 0x4 DUP1 CALLDATASIZE SUB DUP2 ADD SWAP1 PUSH2 0x11B SWAP2 SWAP1 PUSH2 0x294 JUMP JUMPDEST PUSH2 0x1BE JUMP JUMPDEST PUSH1 0x40 MLOAD PUSH2 0x12D SWAP2 SWAP1 PUSH2 0x49E JUMP JUMPDEST PUSH1 0x40 MLOAD DUP1 SWAP2 SUB SWAP1 RETURN JUMPDEST PUSH1 0x60 PUSH2 0x143 DUP5 DUP5 DUP5 PUSH2 0x18A JUMP JUMPDEST SWAP4 SWAP3 POP POP POP JUMP JUMPDEST PUSH1 0x60 PUSH0 PUSH1 0x40 MLOAD DUP4 DUP6 DUP3 CALLDATACOPY DUP4 DUP2 ADD PUSH1 0x40 MSTORE PUSH0 DUP1 DUP6 DUP4 DUP10 GAS STATICCALL DUP1 PUSH2 0x16A JUMPI PUSH0 DUP1 REVERT JUMPDEST RETURNDATASIZE SWAP3 POP DUP3 DUP5 MSTORE DUP3 PUSH0 PUSH1 0x20 DUP7 ADD RETURNDATACOPY DUP3 PUSH1 0x20 ADD DUP5 ADD PUSH1 0x40 MSTORE POP POP SWAP4 POP SWAP4 SWAP2 POP POP JUMP JUMPDEST PUSH1 0x40 MLOAD DUP2 DUP4 DUP3 CALLDATACOPY PUSH0 DUP1 DUP4 DUP4 DUP8 GAS STATICCALL DUP1 PUSH2 0x1A1 JUMPI PUSH0 DUP1 REVERT JUMPDEST RETURNDATASIZE DUP1 PUSH0 DUP5 RETURNDATACOPY DUP1 DUP4 RETURN JUMPDEST PUSH1 0x60 PUSH2 0x1B7 DUP5 DUP5 DUP5 PUSH2 0x18A JUMP JUMPDEST SWAP4 SWAP3 POP POP POP JUMP JUMPDEST PUSH0 PUSH2 0x1CA DUP5 DUP5 DUP5 PUSH2 0x18A JUMP JUMPDEST SWAP4 SWAP3 POP POP POP JUMP JUMPDEST PUSH0 DUP1 REVERT JUMPDEST PUSH0 DUP1 REVERT JUMPDEST PUSH0 PUSH20 0xFFFFFFFFFFFFFFFFFFFFFFFFFFFFFFFFFFFFFFFF DUP3 AND SWAP1 POP SWAP2 SWAP1 POP JUMP JUMPDEST PUSH0 PUSH2 0x202 DUP3 PUSH2 0x1D9 JUMP JUMPDEST SWAP1 POP SWAP2 SWAP1 POP JUMP JUMPDEST PUSH2 0x212 DUP2 PUSH2 0x1F8 JUMP JUMPDEST DUP2 EQ PUSH2 0x21C JUMPI PUSH0 DUP1 REVERT JUMPDEST POP JUMP JUMPDEST PUSH0 DUP2 CALLDATALOAD SWAP1 POP PUSH2 0x22D DUP2 PUSH2 0x209 JUMP JUMPDEST SWAP3 SWAP2 POP POP JUMP JUMPDEST PUSH0 DUP1 REVERT JUMPDEST PUSH0 DUP1 REVERT JUMPDEST PUSH0 DUP1 REVERT JUMPDEST PUSH0 DUP1 DUP4 PUSH1 0x1F DUP5 ADD SLT PUSH2 0x254 JUMPI PUSH2 0x253 PUSH2 0x233 JUMP JUMPDEST JUMPDEST DUP3 CALLDATALOAD SWAP1 POP PUSH8 0xFFFFFFFFFFFFFFFF DUP2 GT ISZERO PUSH2 0x271 JUMPI PUSH2 0x270 PUSH2 0x237 JUMP JUMPDEST JUMPDEST PUSH1 0x20 DUP4 ADD SWAP2 POP DUP4 PUSH1 0x1 DUP3 MUL DUP4 ADD GT ISZERO PUSH2 0x28D JUMPI PUSH2 0x28C PUSH2 0x23B JUMP JUMPDEST JUMPDEST SWAP3 POP SWAP3 SWAP1 POP JUMP JUMPDEST PUSH0 DUP1 PUSH0 PUSH1 0x40 DUP5 DUP7 SUB SLT ISZERO PUSH2 0x2AB JUMPI PUSH2 0x2AA PUSH2 0x1D1 JUMP JUMPDEST JUMPDEST PUSH0 PUSH2 0x2B8 DUP7 DUP3 DUP8 ADD PUSH2 0x21F JUMP JUMPDEST SWAP4 POP POP PUSH1 0x20 DUP5 ADD CALLDATALOAD PUSH8 0xFFFFFFFFFFFFFFFF DUP2 GT ISZERO PUSH2 0x2D9 JUMPI PUSH2 0x2D8 PUSH2 0x1D5 JUMP JUMPDEST JUMPDEST PUSH2 0x2E5 DUP7 DUP3 DUP8 ADD PUSH2 0x23F JUMP JUMPDEST SWAP3 POP SWAP3 POP POP SWAP3 POP SWAP3 POP SWAP3 JUMP JUMPDEST PUSH0 DUP2 MLOAD SWAP1 POP SWAP2 SWAP1 POP JUMP JUMPDEST PUSH0 DUP3 DUP3 MSTORE PUSH1 0x20 DUP3 ADD SWAP1 POP SWAP3 SWAP2 POP POP JUMP JUMPDEST DUP3 DUP2 DUP4 MCOPY PUSH0 DUP4 DUP4 ADD MSTORE POP POP POP JUMP JUMPDEST PUSH0 PUSH1 0x1F NOT PUSH1 0x1F DUP4 ADD AND SWAP1 POP SWAP2 SWAP1 POP JUMP JUMPDEST PUSH0 PUSH2 0x333 DUP3 PUSH2 0x2F1 JUMP JUMPDEST PUSH2 0x33D DUP2 DUP6 PUSH2 0x2FB JUMP JUMPDEST SWAP4 POP PUSH2 0x34D DUP2 DUP6 PUSH1 0x20 DUP7 ADD PUSH2 0x30B JUMP JUMPDEST PUSH2 0x356 DUP2 PUSH2 0x319 JUMP JUMPDEST DUP5 ADD SWAP2 POP POP SWAP3 SWAP2 POP POP JUMP JUMPDEST PUSH0 PUSH1 0x20 DUP3 ADD SWAP1 POP DUP2 DUP2 SUB PUSH0 DUP4 ADD MSTORE PUSH2 0x379 DUP2 DUP5 PUSH2 0x329 JUMP JUMPDEST SWAP1 POP SWAP3 SWAP2 POP POP JUMP JUMPDEST PUSH0 DUP2 SWAP1 POP SWAP2 SWAP1 POP JUMP JUMPDEST PUSH2 0x393 DUP2 PUSH2 0x381 JUMP JUMPDEST DUP3 MSTORE POP POP JUMP JUMPDEST PUSH0 PUSH1 0x40 DUP3 ADD SWAP1 POP DUP2 DUP2 SUB PUSH0 DUP4 ADD MSTORE PUSH2 0x3B1 DUP2 DUP6 PUSH2 0x329 JUMP JUMPDEST SWAP1 POP PUSH2 0x3C0 PUSH1 0x20 DUP4 ADD DUP5 PUSH2 0x38A JUMP JUMPDEST SWAP4 SWAP3 POP POP POP JUMP JUMPDEST PUSH0 DUP2 MLOAD SWAP1 POP SWAP2 SWAP1 POP JUMP JUMPDEST PUSH0 DUP3 DUP3 MSTORE PUSH1 0x20 DUP3 ADD SWAP1 POP SWAP3 SWAP2 POP POP JUMP JUMPDEST PUSH0 DUP2 SWAP1 POP PUSH1 0x20 DUP3 ADD SWAP1 POP SWAP2 SWAP1 POP JUMP JUMPDEST PUSH2 0x3F9 DUP2 PUSH2 0x381 JUMP JUMPDEST DUP3 MSTORE POP POP JUMP JUMPDEST PUSH0 PUSH2 0x40A DUP4 DUP4 PUSH2 0x3F0 JUMP JUMPDEST PUSH1 0x20 DUP4 ADD SWAP1 POP SWAP3 SWAP2 POP POP JUMP JUMPDEST PUSH0 PUSH1 0x20 DUP3 ADD SWAP1 POP SWAP2 SWAP1 POP JUMP JUMPDEST PUSH0 PUSH2 0x42C DUP3 PUSH2 0x3C7 JUMP JUMPDEST PUSH2 0x436 DUP2 DUP6 PUSH2 0x3D1 JUMP JUMPDEST SWAP4 POP PUSH2 0x441 DUP4 PUSH2 0x3E1 JUMP JUMPDEST DUP1 PUSH0 JUMPDEST DUP4 DUP2 LT ISZERO PUSH2 0x471 JUMPI DUP2 MLOAD PUSH2 0x458 DUP9 DUP3 PUSH2 0x3FF JUMP JUMPDEST SWAP8 POP PUSH2 0x463 DUP4 PUSH2 0x416 JUMP JUMPDEST SWAP3 POP POP PUSH1 0x1 DUP2 ADD SWAP1 POP PUSH2 0x444 JUMP JUMPDEST POP DUP6 SWAP4 POP POP POP POP SWAP3 SWAP2 POP POP JUMP JUMPDEST PUSH0 PUSH1 0x20 DUP3 ADD SWAP1 POP DUP2 DUP2 SUB PUSH0 DUP4 ADD MSTORE PUSH2 0x496 DUP2 DUP5 PUSH2 0x422 JUMP JUMPDEST SWAP1 POP SWAP3 SWAP2 POP POP JUMP JUMPDEST PUSH0 PUSH1 0x20 DUP3 ADD SWAP1 POP PUSH2 0x4B1 PUSH0 DUP4 ADD DUP5 PUSH2 0x38A JUMP JUMPDEST SWAP3 SWAP2 POP POP JUMP INVALID LOG2 PUSH5 0x6970667358 0x22 SLT KECCAK256 PUSH9 0x6E2AA954B61CBF996C 0xBA JUMP PUSH30 0x6AD6E81BCCF756DCBAB9C2874229FA911D16D464736F6C634300081A0033 "
		},
		"gasEstimates": {
			"creation": {
				"codeDepositCost": "252200",
				"executionCost": "292",
				"totalCost": "252492"
			},
			"external": {
				"test_abi_decode_bytes(address,bytes)": "infinite",
				"test_abi_decode_uint256(address,bytes)": "infinite",
				"test_abi_decode_uint256_arr(address,bytes)": "infinite",
				"test_staticcall(address,bytes)": "infinite",
				"test_staticcall_return_abi_encoded_bytes(address,bytes)": "infinite"
			}
		},
		"methodIdentifiers": {
			"test_abi_decode_bytes(address,bytes)": "11835039",
			"test_abi_decode_uint256(address,bytes)": "bcd6cb50",
			"test_abi_decode_uint256_arr(address,bytes)": "90aa73b4",
			"test_staticcall(address,bytes)": "884ed1af",
			"test_staticcall_return_abi_encoded_bytes(address,bytes)": "5dc70e3f"
		}
	},
	"abi": [
		{
			"inputs": [
				{
					"internalType": "address",
					"name": "a",
					"type": "address"
				},
				{
					"internalType": "bytes",
					"name": "data",
					"type": "bytes"
				}
			],
			"name": "test_abi_decode_bytes",
			"outputs": [
				{
					"internalType": "bytes",
					"name": "",
					"type": "bytes"
				}
			],
			"stateMutability": "view",
			"type": "function"
		},
		{
			"inputs": [
				{
					"internalType": "address",
					"name": "a",
					"type": "address"
				},
				{
					"internalType": "bytes",
					"name": "data",
					"type": "bytes"
				}
			],
			"name": "test_abi_decode_uint256",
			"outputs": [
				{
					"internalType": "uint256",
					"name": "",
					"type": "uint256"
				}
			],
			"stateMutability": "view",
			"type": "function"
		},
		{
			"inputs": [
				{
					"internalType": "address",
					"name": "a",
					"type": "address"
				},
				{
					"internalType": "bytes",
					"name": "data",
					"type": "bytes"
				}
			],
			"name": "test_abi_decode_uint256_arr",
			"outputs": [
				{
					"internalType": "uint256[]",
					"name": "",
					"type": "uint256[]"
				}
			],
			"stateMutability": "view",
			"type": "function"
		},
		{
			"inputs": [
				{
					"internalType": "address",
					"name": "a",
					"type": "address"
				},
				{
					"internalType": "bytes",
					"name": "data",
					"type": "bytes"
				}
			],
			"name": "test_staticcall",
			"outputs": [],
			"stateMutability": "view",
			"type": "function"
		},
		{
			"inputs": [
				{
					"internalType": "address",
					"name": "addr",
					"type": "address"
				},
				{
					"internalType": "bytes",
					"name": "data",
					"type": "bytes"
				}
			],
			"name": "test_staticcall_return_abi_encoded_bytes",
			"outputs": [
				{
					"internalType": "bytes",
					"name": "out",
					"type": "bytes"
				},
				{
					"internalType": "uint256",
					"name": "return_data_size",
					"type": "uint256"
				}
			],
			"stateMutability": "view",
			"type": "function"
		}
	]
}